{
	"questins/2.sol": {
		"questionFourteen": {
			"abi": [
				{
					"inputs": [],
					"name": "pop",
					"outputs": [],
					"stateMutability": "nonpayable",
					"type": "function"
				},
				{
					"inputs": [
						{
							"internalType": "string",
							"name": "_val",
							"type": "string"
						}
					],
					"name": "push",
					"outputs": [],
					"stateMutability": "nonpayable",
					"type": "function"
				},
				{
					"inputs": [],
					"name": "returnarr",
					"outputs": [
						{
							"internalType": "string[]",
							"name": "",
							"type": "string[]"
						}
					],
					"stateMutability": "view",
					"type": "function"
				}
			],
			"devdoc": {
				"kind": "dev",
				"methods": {},
				"version": 1
			},
			"evm": {
				"assembly": "    /* \"questins/2.sol\":1884:2161  contract questionFourteen{... */\n  mstore(0x40, 0x80)\n  callvalue\n  dup1\n  iszero\n  tag_1\n  jumpi\n  0x00\n  dup1\n  revert\ntag_1:\n  pop\n  dataSize(sub_0)\n  dup1\n  dataOffset(sub_0)\n  0x00\n  codecopy\n  0x00\n  return\nstop\n\nsub_0: assembly {\n        /* \"questins/2.sol\":1884:2161  contract questionFourteen{... */\n      mstore(0x40, 0x80)\n      callvalue\n      dup1\n      iszero\n      tag_1\n      jumpi\n      0x00\n      dup1\n      revert\n    tag_1:\n      pop\n      jumpi(tag_2, lt(calldatasize, 0x04))\n      shr(0xe0, calldataload(0x00))\n      dup1\n      0x4f3d057a\n      eq\n      tag_3\n      jumpi\n      dup1\n      0xa4ece52c\n      eq\n      tag_4\n      jumpi\n      dup1\n      0xd1eb42b2\n      eq\n      tag_5\n      jumpi\n    tag_2:\n      0x00\n      dup1\n      revert\n        /* \"questins/2.sol\":1935:2009  function push(string memory _val) public {... */\n    tag_3:\n      tag_6\n      0x04\n      dup1\n      calldatasize\n      sub\n      dup2\n      add\n      swap1\n      tag_7\n      swap2\n      swap1\n      tag_8\n      jump\t// in\n    tag_7:\n      tag_9\n      jump\t// in\n    tag_6:\n      stop\n        /* \"questins/2.sol\":2015:2064  function pop() public{... */\n    tag_4:\n      tag_10\n      tag_11\n      jump\t// in\n    tag_10:\n      stop\n        /* \"questins/2.sol\":2070:2156  function returnarr() public view returns(string[] memory){... */\n    tag_5:\n      tag_12\n      tag_13\n      jump\t// in\n    tag_12:\n      mload(0x40)\n      tag_14\n      swap2\n      swap1\n      tag_15\n      jump\t// in\n    tag_14:\n      mload(0x40)\n      dup1\n      swap2\n      sub\n      swap1\n      return\n        /* \"questins/2.sol\":1935:2009  function push(string memory _val) public {... */\n    tag_9:\n        /* \"questins/2.sol\":1987:1990  arr */\n      0x00\n        /* \"questins/2.sol\":1996:2000  _val */\n      dup2\n        /* \"questins/2.sol\":1987:2001  arr.push(_val) */\n      swap1\n      dup1\n      0x01\n      dup2\n      sload\n      add\n      dup1\n      dup3\n      sstore\n      dup1\n      swap2\n      pop\n      pop\n      0x01\n      swap1\n      sub\n      swap1\n      0x00\n      mstore\n      keccak256(0x00, 0x20)\n      add\n      0x00\n      swap1\n      swap2\n      swap1\n      swap2\n      swap1\n      swap2\n      pop\n      swap1\n      dup2\n      tag_18\n      swap2\n      swap1\n      tag_19\n      jump\t// in\n    tag_18:\n      pop\n        /* \"questins/2.sol\":1935:2009  function push(string memory _val) public {... */\n      pop\n      jump\t// out\n        /* \"questins/2.sol\":2015:2064  function pop() public{... */\n    tag_11:\n        /* \"questins/2.sol\":2047:2050  arr */\n      0x00\n        /* \"questins/2.sol\":2047:2056  arr.pop() */\n      dup1\n      sload\n      dup1\n      tag_21\n      jumpi\n      tag_22\n      tag_23\n      jump\t// in\n    tag_22:\n    tag_21:\n      0x01\n      swap1\n      sub\n      dup2\n      dup2\n      swap1\n      0x00\n      mstore\n      keccak256(0x00, 0x20)\n      add\n      0x00\n      tag_25\n      swap2\n      swap1\n      tag_26\n      jump\t// in\n    tag_25:\n      swap1\n      sstore\n        /* \"questins/2.sol\":2015:2064  function pop() public{... */\n      jump\t// out\n        /* \"questins/2.sol\":2070:2156  function returnarr() public view returns(string[] memory){... */\n    tag_13:\n        /* \"questins/2.sol\":2111:2126  string[] memory */\n      0x60\n        /* \"questins/2.sol\":2145:2148  arr */\n      0x00\n        /* \"questins/2.sol\":2138:2148  return arr */\n      dup1\n      sload\n      dup1\n      0x20\n      mul\n      0x20\n      add\n      mload(0x40)\n      swap1\n      dup2\n      add\n      0x40\n      mstore\n      dup1\n      swap3\n      swap2\n      swap1\n      dup2\n      dup2\n      mstore\n      0x20\n      add\n      0x00\n      swap1\n    tag_28:\n      dup3\n      dup3\n      lt\n      iszero\n      tag_29\n      jumpi\n      dup4\n      dup3\n      swap1\n      0x00\n      mstore\n      keccak256(0x00, 0x20)\n      add\n      dup1\n      sload\n      tag_31\n      swap1\n      tag_32\n      jump\t// in\n    tag_31:\n      dup1\n      0x1f\n      add\n      0x20\n      dup1\n      swap2\n      div\n      mul\n      0x20\n      add\n      mload(0x40)\n      swap1\n      dup2\n      add\n      0x40\n      mstore\n      dup1\n      swap3\n      swap2\n      swap1\n      dup2\n      dup2\n      mstore\n      0x20\n      add\n      dup3\n      dup1\n      sload\n      tag_33\n      swap1\n      tag_32\n      jump\t// in\n    tag_33:\n      dup1\n      iszero\n      tag_34\n      jumpi\n      dup1\n      0x1f\n      lt\n      tag_35\n      jumpi\n      0x0100\n      dup1\n      dup4\n      sload\n      div\n      mul\n      dup4\n      mstore\n      swap2\n      0x20\n      add\n      swap2\n      jump(tag_34)\n    tag_35:\n      dup3\n      add\n      swap2\n      swap1\n      0x00\n      mstore\n      keccak256(0x00, 0x20)\n      swap1\n    tag_36:\n      dup2\n      sload\n      dup2\n      mstore\n      swap1\n      0x01\n      add\n      swap1\n      0x20\n      add\n      dup1\n      dup4\n      gt\n      tag_36\n      jumpi\n      dup3\n      swap1\n      sub\n      0x1f\n      and\n      dup3\n      add\n      swap2\n    tag_34:\n      pop\n      pop\n      pop\n      pop\n      pop\n      dup2\n      mstore\n      0x20\n      add\n      swap1\n      0x01\n      add\n      swap1\n      jump(tag_28)\n    tag_29:\n      pop\n      pop\n      pop\n      pop\n      swap1\n      pop\n        /* \"questins/2.sol\":2070:2156  function returnarr() public view returns(string[] memory){... */\n      swap1\n      jump\t// out\n    tag_26:\n      pop\n      dup1\n      sload\n      tag_37\n      swap1\n      tag_32\n      jump\t// in\n    tag_37:\n      0x00\n      dup3\n      sstore\n      dup1\n      0x1f\n      lt\n      tag_39\n      jumpi\n      pop\n      jump(tag_38)\n    tag_39:\n      0x1f\n      add\n      0x20\n      swap1\n      div\n      swap1\n      0x00\n      mstore\n      keccak256(0x00, 0x20)\n      swap1\n      dup2\n      add\n      swap1\n      tag_40\n      swap2\n      swap1\n      tag_41\n      jump\t// in\n    tag_40:\n    tag_38:\n      pop\n      jump\t// out\n    tag_41:\n    tag_42:\n      dup1\n      dup3\n      gt\n      iszero\n      tag_43\n      jumpi\n      0x00\n      dup2\n      0x00\n      swap1\n      sstore\n      pop\n      0x01\n      add\n      jump(tag_42)\n    tag_43:\n      pop\n      swap1\n      jump\t// out\n        /* \"#utility.yul\":7:82   */\n    tag_44:\n        /* \"#utility.yul\":40:46   */\n      0x00\n        /* \"#utility.yul\":73:75   */\n      0x40\n        /* \"#utility.yul\":67:76   */\n      mload\n        /* \"#utility.yul\":57:76   */\n      swap1\n      pop\n        /* \"#utility.yul\":7:82   */\n      swap1\n      jump\t// out\n        /* \"#utility.yul\":88:205   */\n    tag_45:\n        /* \"#utility.yul\":197:198   */\n      0x00\n        /* \"#utility.yul\":194:195   */\n      dup1\n        /* \"#utility.yul\":187:199   */\n      revert\n        /* \"#utility.yul\":211:328   */\n    tag_46:\n        /* \"#utility.yul\":320:321   */\n      0x00\n        /* \"#utility.yul\":317:318   */\n      dup1\n        /* \"#utility.yul\":310:322   */\n      revert\n        /* \"#utility.yul\":334:451   */\n    tag_47:\n        /* \"#utility.yul\":443:444   */\n      0x00\n        /* \"#utility.yul\":440:441   */\n      dup1\n        /* \"#utility.yul\":433:445   */\n      revert\n        /* \"#utility.yul\":457:574   */\n    tag_48:\n        /* \"#utility.yul\":566:567   */\n      0x00\n        /* \"#utility.yul\":563:564   */\n      dup1\n        /* \"#utility.yul\":556:568   */\n      revert\n        /* \"#utility.yul\":580:682   */\n    tag_49:\n        /* \"#utility.yul\":621:627   */\n      0x00\n        /* \"#utility.yul\":672:674   */\n      0x1f\n        /* \"#utility.yul\":668:675   */\n      not\n        /* \"#utility.yul\":663:665   */\n      0x1f\n        /* \"#utility.yul\":656:661   */\n      dup4\n        /* \"#utility.yul\":652:666   */\n      add\n        /* \"#utility.yul\":648:676   */\n      and\n        /* \"#utility.yul\":638:676   */\n      swap1\n      pop\n        /* \"#utility.yul\":580:682   */\n      swap2\n      swap1\n      pop\n      jump\t// out\n        /* \"#utility.yul\":688:868   */\n    tag_50:\n        /* \"#utility.yul\":736:813   */\n      0x4e487b7100000000000000000000000000000000000000000000000000000000\n        /* \"#utility.yul\":733:734   */\n      0x00\n        /* \"#utility.yul\":726:814   */\n      mstore\n        /* \"#utility.yul\":833:837   */\n      0x41\n        /* \"#utility.yul\":830:831   */\n      0x04\n        /* \"#utility.yul\":823:838   */\n      mstore\n        /* \"#utility.yul\":857:861   */\n      0x24\n        /* \"#utility.yul\":854:855   */\n      0x00\n        /* \"#utility.yul\":847:862   */\n      revert\n        /* \"#utility.yul\":874:1155   */\n    tag_51:\n        /* \"#utility.yul\":957:984   */\n      tag_93\n        /* \"#utility.yul\":979:983   */\n      dup3\n        /* \"#utility.yul\":957:984   */\n      tag_49\n      jump\t// in\n    tag_93:\n        /* \"#utility.yul\":949:955   */\n      dup2\n        /* \"#utility.yul\":945:985   */\n      add\n        /* \"#utility.yul\":1087:1093   */\n      dup2\n        /* \"#utility.yul\":1075:1085   */\n      dup2\n        /* \"#utility.yul\":1072:1094   */\n      lt\n        /* \"#utility.yul\":1051:1069   */\n      0xffffffffffffffff\n        /* \"#utility.yul\":1039:1049   */\n      dup3\n        /* \"#utility.yul\":1036:1070   */\n      gt\n        /* \"#utility.yul\":1033:1095   */\n      or\n        /* \"#utility.yul\":1030:1118   */\n      iszero\n      tag_94\n      jumpi\n        /* \"#utility.yul\":1098:1116   */\n      tag_95\n      tag_50\n      jump\t// in\n    tag_95:\n        /* \"#utility.yul\":1030:1118   */\n    tag_94:\n        /* \"#utility.yul\":1138:1148   */\n      dup1\n        /* \"#utility.yul\":1134:1136   */\n      0x40\n        /* \"#utility.yul\":1127:1149   */\n      mstore\n        /* \"#utility.yul\":917:1155   */\n      pop\n        /* \"#utility.yul\":874:1155   */\n      pop\n      pop\n      jump\t// out\n        /* \"#utility.yul\":1161:1290   */\n    tag_52:\n        /* \"#utility.yul\":1195:1201   */\n      0x00\n        /* \"#utility.yul\":1222:1242   */\n      tag_97\n      tag_44\n      jump\t// in\n    tag_97:\n        /* \"#utility.yul\":1212:1242   */\n      swap1\n      pop\n        /* \"#utility.yul\":1251:1284   */\n      tag_98\n        /* \"#utility.yul\":1279:1283   */\n      dup3\n        /* \"#utility.yul\":1271:1277   */\n      dup3\n        /* \"#utility.yul\":1251:1284   */\n      tag_51\n      jump\t// in\n    tag_98:\n        /* \"#utility.yul\":1161:1290   */\n      swap2\n      swap1\n      pop\n      jump\t// out\n        /* \"#utility.yul\":1296:1604   */\n    tag_53:\n        /* \"#utility.yul\":1358:1362   */\n      0x00\n        /* \"#utility.yul\":1448:1466   */\n      0xffffffffffffffff\n        /* \"#utility.yul\":1440:1446   */\n      dup3\n        /* \"#utility.yul\":1437:1467   */\n      gt\n        /* \"#utility.yul\":1434:1490   */\n      iszero\n      tag_100\n      jumpi\n        /* \"#utility.yul\":1470:1488   */\n      tag_101\n      tag_50\n      jump\t// in\n    tag_101:\n        /* \"#utility.yul\":1434:1490   */\n    tag_100:\n        /* \"#utility.yul\":1508:1537   */\n      tag_102\n        /* \"#utility.yul\":1530:1536   */\n      dup3\n        /* \"#utility.yul\":1508:1537   */\n      tag_49\n      jump\t// in\n    tag_102:\n        /* \"#utility.yul\":1500:1537   */\n      swap1\n      pop\n        /* \"#utility.yul\":1592:1596   */\n      0x20\n        /* \"#utility.yul\":1586:1590   */\n      dup2\n        /* \"#utility.yul\":1582:1597   */\n      add\n        /* \"#utility.yul\":1574:1597   */\n      swap1\n      pop\n        /* \"#utility.yul\":1296:1604   */\n      swap2\n      swap1\n      pop\n      jump\t// out\n        /* \"#utility.yul\":1610:1756   */\n    tag_54:\n        /* \"#utility.yul\":1707:1713   */\n      dup3\n        /* \"#utility.yul\":1702:1705   */\n      dup2\n        /* \"#utility.yul\":1697:1700   */\n      dup4\n        /* \"#utility.yul\":1684:1714   */\n      calldatacopy\n        /* \"#utility.yul\":1748:1749   */\n      0x00\n        /* \"#utility.yul\":1739:1745   */\n      dup4\n        /* \"#utility.yul\":1734:1737   */\n      dup4\n        /* \"#utility.yul\":1730:1746   */\n      add\n        /* \"#utility.yul\":1723:1750   */\n      mstore\n        /* \"#utility.yul\":1610:1756   */\n      pop\n      pop\n      pop\n      jump\t// out\n        /* \"#utility.yul\":1762:2187   */\n    tag_55:\n        /* \"#utility.yul\":1840:1845   */\n      0x00\n        /* \"#utility.yul\":1865:1931   */\n      tag_105\n        /* \"#utility.yul\":1881:1930   */\n      tag_106\n        /* \"#utility.yul\":1923:1929   */\n      dup5\n        /* \"#utility.yul\":1881:1930   */\n      tag_53\n      jump\t// in\n    tag_106:\n        /* \"#utility.yul\":1865:1931   */\n      tag_52\n      jump\t// in\n    tag_105:\n        /* \"#utility.yul\":1856:1931   */\n      swap1\n      pop\n        /* \"#utility.yul\":1954:1960   */\n      dup3\n        /* \"#utility.yul\":1947:1952   */\n      dup2\n        /* \"#utility.yul\":1940:1961   */\n      mstore\n        /* \"#utility.yul\":1992:1996   */\n      0x20\n        /* \"#utility.yul\":1985:1990   */\n      dup2\n        /* \"#utility.yul\":1981:1997   */\n      add\n        /* \"#utility.yul\":2030:2033   */\n      dup5\n        /* \"#utility.yul\":2021:2027   */\n      dup5\n        /* \"#utility.yul\":2016:2019   */\n      dup5\n        /* \"#utility.yul\":2012:2028   */\n      add\n        /* \"#utility.yul\":2009:2034   */\n      gt\n        /* \"#utility.yul\":2006:2118   */\n      iszero\n      tag_107\n      jumpi\n        /* \"#utility.yul\":2037:2116   */\n      tag_108\n      tag_48\n      jump\t// in\n    tag_108:\n        /* \"#utility.yul\":2006:2118   */\n    tag_107:\n        /* \"#utility.yul\":2127:2181   */\n      tag_109\n        /* \"#utility.yul\":2174:2180   */\n      dup5\n        /* \"#utility.yul\":2169:2172   */\n      dup3\n        /* \"#utility.yul\":2164:2167   */\n      dup6\n        /* \"#utility.yul\":2127:2181   */\n      tag_54\n      jump\t// in\n    tag_109:\n        /* \"#utility.yul\":1846:2187   */\n      pop\n        /* \"#utility.yul\":1762:2187   */\n      swap4\n      swap3\n      pop\n      pop\n      pop\n      jump\t// out\n        /* \"#utility.yul\":2207:2547   */\n    tag_56:\n        /* \"#utility.yul\":2263:2268   */\n      0x00\n        /* \"#utility.yul\":2312:2315   */\n      dup3\n        /* \"#utility.yul\":2305:2309   */\n      0x1f\n        /* \"#utility.yul\":2297:2303   */\n      dup4\n        /* \"#utility.yul\":2293:2310   */\n      add\n        /* \"#utility.yul\":2289:2316   */\n      slt\n        /* \"#utility.yul\":2279:2401   */\n      tag_111\n      jumpi\n        /* \"#utility.yul\":2320:2399   */\n      tag_112\n      tag_47\n      jump\t// in\n    tag_112:\n        /* \"#utility.yul\":2279:2401   */\n    tag_111:\n        /* \"#utility.yul\":2437:2443   */\n      dup2\n        /* \"#utility.yul\":2424:2444   */\n      calldataload\n        /* \"#utility.yul\":2462:2541   */\n      tag_113\n        /* \"#utility.yul\":2537:2540   */\n      dup5\n        /* \"#utility.yul\":2529:2535   */\n      dup3\n        /* \"#utility.yul\":2522:2526   */\n      0x20\n        /* \"#utility.yul\":2514:2520   */\n      dup7\n        /* \"#utility.yul\":2510:2527   */\n      add\n        /* \"#utility.yul\":2462:2541   */\n      tag_55\n      jump\t// in\n    tag_113:\n        /* \"#utility.yul\":2453:2541   */\n      swap2\n      pop\n        /* \"#utility.yul\":2269:2547   */\n      pop\n        /* \"#utility.yul\":2207:2547   */\n      swap3\n      swap2\n      pop\n      pop\n      jump\t// out\n        /* \"#utility.yul\":2553:3062   */\n    tag_8:\n        /* \"#utility.yul\":2622:2628   */\n      0x00\n        /* \"#utility.yul\":2671:2673   */\n      0x20\n        /* \"#utility.yul\":2659:2668   */\n      dup3\n        /* \"#utility.yul\":2650:2657   */\n      dup5\n        /* \"#utility.yul\":2646:2669   */\n      sub\n        /* \"#utility.yul\":2642:2674   */\n      slt\n        /* \"#utility.yul\":2639:2758   */\n      iszero\n      tag_115\n      jumpi\n        /* \"#utility.yul\":2677:2756   */\n      tag_116\n      tag_45\n      jump\t// in\n    tag_116:\n        /* \"#utility.yul\":2639:2758   */\n    tag_115:\n        /* \"#utility.yul\":2825:2826   */\n      0x00\n        /* \"#utility.yul\":2814:2823   */\n      dup3\n        /* \"#utility.yul\":2810:2827   */\n      add\n        /* \"#utility.yul\":2797:2828   */\n      calldataload\n        /* \"#utility.yul\":2855:2873   */\n      0xffffffffffffffff\n        /* \"#utility.yul\":2847:2853   */\n      dup2\n        /* \"#utility.yul\":2844:2874   */\n      gt\n        /* \"#utility.yul\":2841:2958   */\n      iszero\n      tag_117\n      jumpi\n        /* \"#utility.yul\":2877:2956   */\n      tag_118\n      tag_46\n      jump\t// in\n    tag_118:\n        /* \"#utility.yul\":2841:2958   */\n    tag_117:\n        /* \"#utility.yul\":2982:3045   */\n      tag_119\n        /* \"#utility.yul\":3037:3044   */\n      dup5\n        /* \"#utility.yul\":3028:3034   */\n      dup3\n        /* \"#utility.yul\":3017:3026   */\n      dup6\n        /* \"#utility.yul\":3013:3035   */\n      add\n        /* \"#utility.yul\":2982:3045   */\n      tag_56\n      jump\t// in\n    tag_119:\n        /* \"#utility.yul\":2972:3045   */\n      swap2\n      pop\n        /* \"#utility.yul\":2768:3055   */\n      pop\n        /* \"#utility.yul\":2553:3062   */\n      swap3\n      swap2\n      pop\n      pop\n      jump\t// out\n        /* \"#utility.yul\":3068:3192   */\n    tag_57:\n        /* \"#utility.yul\":3145:3151   */\n      0x00\n        /* \"#utility.yul\":3179:3184   */\n      dup2\n        /* \"#utility.yul\":3173:3185   */\n      mload\n        /* \"#utility.yul\":3163:3185   */\n      swap1\n      pop\n        /* \"#utility.yul\":3068:3192   */\n      swap2\n      swap1\n      pop\n      jump\t// out\n        /* \"#utility.yul\":3198:3392   */\n    tag_58:\n        /* \"#utility.yul\":3307:3318   */\n      0x00\n        /* \"#utility.yul\":3341:3347   */\n      dup3\n        /* \"#utility.yul\":3336:3339   */\n      dup3\n        /* \"#utility.yul\":3329:3348   */\n      mstore\n        /* \"#utility.yul\":3381:3385   */\n      0x20\n        /* \"#utility.yul\":3376:3379   */\n      dup3\n        /* \"#utility.yul\":3372:3386   */\n      add\n        /* \"#utility.yul\":3357:3386   */\n      swap1\n      pop\n        /* \"#utility.yul\":3198:3392   */\n      swap3\n      swap2\n      pop\n      pop\n      jump\t// out\n        /* \"#utility.yul\":3398:3540   */\n    tag_59:\n        /* \"#utility.yul\":3475:3479   */\n      0x00\n        /* \"#utility.yul\":3498:3501   */\n      dup2\n        /* \"#utility.yul\":3490:3501   */\n      swap1\n      pop\n        /* \"#utility.yul\":3528:3532   */\n      0x20\n        /* \"#utility.yul\":3523:3526   */\n      dup3\n        /* \"#utility.yul\":3519:3533   */\n      add\n        /* \"#utility.yul\":3511:3533   */\n      swap1\n      pop\n        /* \"#utility.yul\":3398:3540   */\n      swap2\n      swap1\n      pop\n      jump\t// out\n        /* \"#utility.yul\":3546:3645   */\n    tag_60:\n        /* \"#utility.yul\":3598:3604   */\n      0x00\n        /* \"#utility.yul\":3632:3637   */\n      dup2\n        /* \"#utility.yul\":3626:3638   */\n      mload\n        /* \"#utility.yul\":3616:3638   */\n      swap1\n      pop\n        /* \"#utility.yul\":3546:3645   */\n      swap2\n      swap1\n      pop\n      jump\t// out\n        /* \"#utility.yul\":3651:3810   */\n    tag_61:\n        /* \"#utility.yul\":3725:3736   */\n      0x00\n        /* \"#utility.yul\":3759:3765   */\n      dup3\n        /* \"#utility.yul\":3754:3757   */\n      dup3\n        /* \"#utility.yul\":3747:3766   */\n      mstore\n        /* \"#utility.yul\":3799:3803   */\n      0x20\n        /* \"#utility.yul\":3794:3797   */\n      dup3\n        /* \"#utility.yul\":3790:3804   */\n      add\n        /* \"#utility.yul\":3775:3804   */\n      swap1\n      pop\n        /* \"#utility.yul\":3651:3810   */\n      swap3\n      swap2\n      pop\n      pop\n      jump\t// out\n        /* \"#utility.yul\":3816:4062   */\n    tag_62:\n        /* \"#utility.yul\":3897:3898   */\n      0x00\n        /* \"#utility.yul\":3907:4020   */\n    tag_126:\n        /* \"#utility.yul\":3921:3927   */\n      dup4\n        /* \"#utility.yul\":3918:3919   */\n      dup2\n        /* \"#utility.yul\":3915:3928   */\n      lt\n        /* \"#utility.yul\":3907:4020   */\n      iszero\n      tag_128\n      jumpi\n        /* \"#utility.yul\":4006:4007   */\n      dup1\n        /* \"#utility.yul\":4001:4004   */\n      dup3\n        /* \"#utility.yul\":3997:4008   */\n      add\n        /* \"#utility.yul\":3991:4009   */\n      mload\n        /* \"#utility.yul\":3987:3988   */\n      dup2\n        /* \"#utility.yul\":3982:3985   */\n      dup5\n        /* \"#utility.yul\":3978:3989   */\n      add\n        /* \"#utility.yul\":3971:4010   */\n      mstore\n        /* \"#utility.yul\":3943:3945   */\n      0x20\n        /* \"#utility.yul\":3940:3941   */\n      dup2\n        /* \"#utility.yul\":3936:3946   */\n      add\n        /* \"#utility.yul\":3931:3946   */\n      swap1\n      pop\n        /* \"#utility.yul\":3907:4020   */\n      jump(tag_126)\n    tag_128:\n        /* \"#utility.yul\":4054:4055   */\n      0x00\n        /* \"#utility.yul\":4045:4051   */\n      dup5\n        /* \"#utility.yul\":4040:4043   */\n      dup5\n        /* \"#utility.yul\":4036:4052   */\n      add\n        /* \"#utility.yul\":4029:4056   */\n      mstore\n        /* \"#utility.yul\":3878:4062   */\n      pop\n        /* \"#utility.yul\":3816:4062   */\n      pop\n      pop\n      pop\n      jump\t// out\n        /* \"#utility.yul\":4068:4425   */\n    tag_63:\n        /* \"#utility.yul\":4146:4149   */\n      0x00\n        /* \"#utility.yul\":4174:4213   */\n      tag_130\n        /* \"#utility.yul\":4207:4212   */\n      dup3\n        /* \"#utility.yul\":4174:4213   */\n      tag_60\n      jump\t// in\n    tag_130:\n        /* \"#utility.yul\":4229:4290   */\n      tag_131\n        /* \"#utility.yul\":4283:4289   */\n      dup2\n        /* \"#utility.yul\":4278:4281   */\n      dup6\n        /* \"#utility.yul\":4229:4290   */\n      tag_61\n      jump\t// in\n    tag_131:\n        /* \"#utility.yul\":4222:4290   */\n      swap4\n      pop\n        /* \"#utility.yul\":4299:4364   */\n      tag_132\n        /* \"#utility.yul\":4357:4363   */\n      dup2\n        /* \"#utility.yul\":4352:4355   */\n      dup6\n        /* \"#utility.yul\":4345:4349   */\n      0x20\n        /* \"#utility.yul\":4338:4343   */\n      dup7\n        /* \"#utility.yul\":4334:4350   */\n      add\n        /* \"#utility.yul\":4299:4364   */\n      tag_62\n      jump\t// in\n    tag_132:\n        /* \"#utility.yul\":4389:4418   */\n      tag_133\n        /* \"#utility.yul\":4411:4417   */\n      dup2\n        /* \"#utility.yul\":4389:4418   */\n      tag_49\n      jump\t// in\n    tag_133:\n        /* \"#utility.yul\":4384:4387   */\n      dup5\n        /* \"#utility.yul\":4380:4419   */\n      add\n        /* \"#utility.yul\":4373:4419   */\n      swap2\n      pop\n        /* \"#utility.yul\":4150:4425   */\n      pop\n        /* \"#utility.yul\":4068:4425   */\n      swap3\n      swap2\n      pop\n      pop\n      jump\t// out\n        /* \"#utility.yul\":4431:4627   */\n    tag_64:\n        /* \"#utility.yul\":4520:4530   */\n      0x00\n        /* \"#utility.yul\":4555:4621   */\n      tag_135\n        /* \"#utility.yul\":4617:4620   */\n      dup4\n        /* \"#utility.yul\":4609:4615   */\n      dup4\n        /* \"#utility.yul\":4555:4621   */\n      tag_63\n      jump\t// in\n    tag_135:\n        /* \"#utility.yul\":4541:4621   */\n      swap1\n      pop\n        /* \"#utility.yul\":4431:4627   */\n      swap3\n      swap2\n      pop\n      pop\n      jump\t// out\n        /* \"#utility.yul\":4633:4756   */\n    tag_65:\n        /* \"#utility.yul\":4713:4717   */\n      0x00\n        /* \"#utility.yul\":4745:4749   */\n      0x20\n        /* \"#utility.yul\":4740:4743   */\n      dup3\n        /* \"#utility.yul\":4736:4750   */\n      add\n        /* \"#utility.yul\":4728:4750   */\n      swap1\n      pop\n        /* \"#utility.yul\":4633:4756   */\n      swap2\n      swap1\n      pop\n      jump\t// out\n        /* \"#utility.yul\":4790:5781   */\n    tag_66:\n        /* \"#utility.yul\":4929:4932   */\n      0x00\n        /* \"#utility.yul\":4958:5022   */\n      tag_138\n        /* \"#utility.yul\":5016:5021   */\n      dup3\n        /* \"#utility.yul\":4958:5022   */\n      tag_57\n      jump\t// in\n    tag_138:\n        /* \"#utility.yul\":5038:5134   */\n      tag_139\n        /* \"#utility.yul\":5127:5133   */\n      dup2\n        /* \"#utility.yul\":5122:5125   */\n      dup6\n        /* \"#utility.yul\":5038:5134   */\n      tag_58\n      jump\t// in\n    tag_139:\n        /* \"#utility.yul\":5031:5134   */\n      swap4\n      pop\n        /* \"#utility.yul\":5160:5163   */\n      dup4\n        /* \"#utility.yul\":5205:5209   */\n      0x20\n        /* \"#utility.yul\":5197:5203   */\n      dup3\n        /* \"#utility.yul\":5193:5210   */\n      mul\n        /* \"#utility.yul\":5188:5191   */\n      dup6\n        /* \"#utility.yul\":5184:5211   */\n      add\n        /* \"#utility.yul\":5235:5301   */\n      tag_140\n        /* \"#utility.yul\":5295:5300   */\n      dup6\n        /* \"#utility.yul\":5235:5301   */\n      tag_59\n      jump\t// in\n    tag_140:\n        /* \"#utility.yul\":5324:5331   */\n      dup1\n        /* \"#utility.yul\":5355:5356   */\n      0x00\n        /* \"#utility.yul\":5340:5736   */\n    tag_141:\n        /* \"#utility.yul\":5365:5371   */\n      dup6\n        /* \"#utility.yul\":5362:5363   */\n      dup2\n        /* \"#utility.yul\":5359:5372   */\n      lt\n        /* \"#utility.yul\":5340:5736   */\n      iszero\n      tag_143\n      jumpi\n        /* \"#utility.yul\":5436:5445   */\n      dup5\n        /* \"#utility.yul\":5430:5434   */\n      dup5\n        /* \"#utility.yul\":5426:5446   */\n      sub\n        /* \"#utility.yul\":5421:5424   */\n      dup10\n        /* \"#utility.yul\":5414:5447   */\n      mstore\n        /* \"#utility.yul\":5487:5493   */\n      dup2\n        /* \"#utility.yul\":5481:5494   */\n      mload\n        /* \"#utility.yul\":5515:5599   */\n      tag_144\n        /* \"#utility.yul\":5594:5598   */\n      dup6\n        /* \"#utility.yul\":5579:5592   */\n      dup3\n        /* \"#utility.yul\":5515:5599   */\n      tag_64\n      jump\t// in\n    tag_144:\n        /* \"#utility.yul\":5507:5599   */\n      swap5\n      pop\n        /* \"#utility.yul\":5622:5692   */\n      tag_145\n        /* \"#utility.yul\":5685:5691   */\n      dup4\n        /* \"#utility.yul\":5622:5692   */\n      tag_65\n      jump\t// in\n    tag_145:\n        /* \"#utility.yul\":5612:5692   */\n      swap3\n      pop\n        /* \"#utility.yul\":5721:5725   */\n      0x20\n        /* \"#utility.yul\":5716:5719   */\n      dup11\n        /* \"#utility.yul\":5712:5726   */\n      add\n        /* \"#utility.yul\":5705:5726   */\n      swap10\n      pop\n        /* \"#utility.yul\":5400:5736   */\n      pop\n        /* \"#utility.yul\":5387:5388   */\n      0x01\n        /* \"#utility.yul\":5384:5385   */\n      dup2\n        /* \"#utility.yul\":5380:5389   */\n      add\n        /* \"#utility.yul\":5375:5389   */\n      swap1\n      pop\n        /* \"#utility.yul\":5340:5736   */\n      jump(tag_141)\n    tag_143:\n        /* \"#utility.yul\":5344:5358   */\n      pop\n        /* \"#utility.yul\":5752:5756   */\n      dup3\n        /* \"#utility.yul\":5745:5756   */\n      swap8\n      pop\n        /* \"#utility.yul\":5772:5775   */\n      dup8\n        /* \"#utility.yul\":5765:5775   */\n      swap6\n      pop\n        /* \"#utility.yul\":4934:5781   */\n      pop\n      pop\n      pop\n      pop\n      pop\n        /* \"#utility.yul\":4790:5781   */\n      swap3\n      swap2\n      pop\n      pop\n      jump\t// out\n        /* \"#utility.yul\":5787:6200   */\n    tag_15:\n        /* \"#utility.yul\":5950:5954   */\n      0x00\n        /* \"#utility.yul\":5988:5990   */\n      0x20\n        /* \"#utility.yul\":5977:5986   */\n      dup3\n        /* \"#utility.yul\":5973:5991   */\n      add\n        /* \"#utility.yul\":5965:5991   */\n      swap1\n      pop\n        /* \"#utility.yul\":6037:6046   */\n      dup2\n        /* \"#utility.yul\":6031:6035   */\n      dup2\n        /* \"#utility.yul\":6027:6047   */\n      sub\n        /* \"#utility.yul\":6023:6024   */\n      0x00\n        /* \"#utility.yul\":6012:6021   */\n      dup4\n        /* \"#utility.yul\":6008:6025   */\n      add\n        /* \"#utility.yul\":6001:6048   */\n      mstore\n        /* \"#utility.yul\":6065:6193   */\n      tag_147\n        /* \"#utility.yul\":6188:6192   */\n      dup2\n        /* \"#utility.yul\":6179:6185   */\n      dup5\n        /* \"#utility.yul\":6065:6193   */\n      tag_66\n      jump\t// in\n    tag_147:\n        /* \"#utility.yul\":6057:6193   */\n      swap1\n      pop\n        /* \"#utility.yul\":5787:6200   */\n      swap3\n      swap2\n      pop\n      pop\n      jump\t// out\n        /* \"#utility.yul\":6206:6386   */\n    tag_67:\n        /* \"#utility.yul\":6254:6331   */\n      0x4e487b7100000000000000000000000000000000000000000000000000000000\n        /* \"#utility.yul\":6251:6252   */\n      0x00\n        /* \"#utility.yul\":6244:6332   */\n      mstore\n        /* \"#utility.yul\":6351:6355   */\n      0x22\n        /* \"#utility.yul\":6348:6349   */\n      0x04\n        /* \"#utility.yul\":6341:6356   */\n      mstore\n        /* \"#utility.yul\":6375:6379   */\n      0x24\n        /* \"#utility.yul\":6372:6373   */\n      0x00\n        /* \"#utility.yul\":6365:6380   */\n      revert\n        /* \"#utility.yul\":6392:6712   */\n    tag_32:\n        /* \"#utility.yul\":6436:6442   */\n      0x00\n        /* \"#utility.yul\":6473:6474   */\n      0x02\n        /* \"#utility.yul\":6467:6471   */\n      dup3\n        /* \"#utility.yul\":6463:6475   */\n      div\n        /* \"#utility.yul\":6453:6475   */\n      swap1\n      pop\n        /* \"#utility.yul\":6520:6521   */\n      0x01\n        /* \"#utility.yul\":6514:6518   */\n      dup3\n        /* \"#utility.yul\":6510:6522   */\n      and\n        /* \"#utility.yul\":6541:6559   */\n      dup1\n        /* \"#utility.yul\":6531:6612   */\n      tag_150\n      jumpi\n        /* \"#utility.yul\":6597:6601   */\n      0x7f\n        /* \"#utility.yul\":6589:6595   */\n      dup3\n        /* \"#utility.yul\":6585:6602   */\n      and\n        /* \"#utility.yul\":6575:6602   */\n      swap2\n      pop\n        /* \"#utility.yul\":6531:6612   */\n    tag_150:\n        /* \"#utility.yul\":6659:6661   */\n      0x20\n        /* \"#utility.yul\":6651:6657   */\n      dup3\n        /* \"#utility.yul\":6648:6662   */\n      lt\n        /* \"#utility.yul\":6628:6646   */\n      dup2\n        /* \"#utility.yul\":6625:6663   */\n      sub\n        /* \"#utility.yul\":6622:6706   */\n      tag_151\n      jumpi\n        /* \"#utility.yul\":6678:6696   */\n      tag_152\n      tag_67\n      jump\t// in\n    tag_152:\n        /* \"#utility.yul\":6622:6706   */\n    tag_151:\n        /* \"#utility.yul\":6443:6712   */\n      pop\n        /* \"#utility.yul\":6392:6712   */\n      swap2\n      swap1\n      pop\n      jump\t// out\n        /* \"#utility.yul\":6718:6859   */\n    tag_68:\n        /* \"#utility.yul\":6767:6771   */\n      0x00\n        /* \"#utility.yul\":6790:6793   */\n      dup2\n        /* \"#utility.yul\":6782:6793   */\n      swap1\n      pop\n        /* \"#utility.yul\":6813:6816   */\n      dup2\n        /* \"#utility.yul\":6810:6811   */\n      0x00\n        /* \"#utility.yul\":6803:6817   */\n      mstore\n        /* \"#utility.yul\":6847:6851   */\n      0x20\n        /* \"#utility.yul\":6844:6845   */\n      0x00\n        /* \"#utility.yul\":6834:6852   */\n      keccak256\n        /* \"#utility.yul\":6826:6852   */\n      swap1\n      pop\n        /* \"#utility.yul\":6718:6859   */\n      swap2\n      swap1\n      pop\n      jump\t// out\n        /* \"#utility.yul\":6865:6958   */\n    tag_69:\n        /* \"#utility.yul\":6902:6908   */\n      0x00\n        /* \"#utility.yul\":6949:6951   */\n      0x20\n        /* \"#utility.yul\":6944:6946   */\n      0x1f\n        /* \"#utility.yul\":6937:6942   */\n      dup4\n        /* \"#utility.yul\":6933:6947   */\n      add\n        /* \"#utility.yul\":6929:6952   */\n      div\n        /* \"#utility.yul\":6919:6952   */\n      swap1\n      pop\n        /* \"#utility.yul\":6865:6958   */\n      swap2\n      swap1\n      pop\n      jump\t// out\n        /* \"#utility.yul\":6964:7071   */\n    tag_70:\n        /* \"#utility.yul\":7008:7016   */\n      0x00\n        /* \"#utility.yul\":7058:7063   */\n      dup3\n        /* \"#utility.yul\":7052:7056   */\n      dup3\n        /* \"#utility.yul\":7048:7064   */\n      shl\n        /* \"#utility.yul\":7027:7064   */\n      swap1\n      pop\n        /* \"#utility.yul\":6964:7071   */\n      swap3\n      swap2\n      pop\n      pop\n      jump\t// out\n        /* \"#utility.yul\":7077:7470   */\n    tag_71:\n        /* \"#utility.yul\":7146:7152   */\n      0x00\n        /* \"#utility.yul\":7196:7197   */\n      0x08\n        /* \"#utility.yul\":7184:7194   */\n      dup4\n        /* \"#utility.yul\":7180:7198   */\n      mul\n        /* \"#utility.yul\":7219:7316   */\n      tag_157\n        /* \"#utility.yul\":7249:7315   */\n      0xffffffffffffffffffffffffffffffffffffffffffffffffffffffffffffffff\n        /* \"#utility.yul\":7238:7247   */\n      dup3\n        /* \"#utility.yul\":7219:7316   */\n      tag_70\n      jump\t// in\n    tag_157:\n        /* \"#utility.yul\":7337:7376   */\n      tag_158\n        /* \"#utility.yul\":7367:7375   */\n      dup7\n        /* \"#utility.yul\":7356:7365   */\n      dup4\n        /* \"#utility.yul\":7337:7376   */\n      tag_70\n      jump\t// in\n    tag_158:\n        /* \"#utility.yul\":7325:7376   */\n      swap6\n      pop\n        /* \"#utility.yul\":7409:7413   */\n      dup1\n        /* \"#utility.yul\":7405:7414   */\n      not\n        /* \"#utility.yul\":7398:7403   */\n      dup5\n        /* \"#utility.yul\":7394:7415   */\n      and\n        /* \"#utility.yul\":7385:7415   */\n      swap4\n      pop\n        /* \"#utility.yul\":7458:7462   */\n      dup1\n        /* \"#utility.yul\":7448:7456   */\n      dup7\n        /* \"#utility.yul\":7444:7463   */\n      and\n        /* \"#utility.yul\":7437:7442   */\n      dup5\n        /* \"#utility.yul\":7434:7464   */\n      or\n        /* \"#utility.yul\":7424:7464   */\n      swap3\n      pop\n        /* \"#utility.yul\":7153:7470   */\n      pop\n      pop\n        /* \"#utility.yul\":7077:7470   */\n      swap4\n      swap3\n      pop\n      pop\n      pop\n      jump\t// out\n        /* \"#utility.yul\":7476:7553   */\n    tag_72:\n        /* \"#utility.yul\":7513:7520   */\n      0x00\n        /* \"#utility.yul\":7542:7547   */\n      dup2\n        /* \"#utility.yul\":7531:7547   */\n      swap1\n      pop\n        /* \"#utility.yul\":7476:7553   */\n      swap2\n      swap1\n      pop\n      jump\t// out\n        /* \"#utility.yul\":7559:7619   */\n    tag_73:\n        /* \"#utility.yul\":7587:7590   */\n      0x00\n        /* \"#utility.yul\":7608:7613   */\n      dup2\n        /* \"#utility.yul\":7601:7613   */\n      swap1\n      pop\n        /* \"#utility.yul\":7559:7619   */\n      swap2\n      swap1\n      pop\n      jump\t// out\n        /* \"#utility.yul\":7625:7767   */\n    tag_74:\n        /* \"#utility.yul\":7675:7684   */\n      0x00\n        /* \"#utility.yul\":7708:7761   */\n      tag_162\n        /* \"#utility.yul\":7726:7760   */\n      tag_163\n        /* \"#utility.yul\":7735:7759   */\n      tag_164\n        /* \"#utility.yul\":7753:7758   */\n      dup5\n        /* \"#utility.yul\":7735:7759   */\n      tag_72\n      jump\t// in\n    tag_164:\n        /* \"#utility.yul\":7726:7760   */\n      tag_73\n      jump\t// in\n    tag_163:\n        /* \"#utility.yul\":7708:7761   */\n      tag_72\n      jump\t// in\n    tag_162:\n        /* \"#utility.yul\":7695:7761   */\n      swap1\n      pop\n        /* \"#utility.yul\":7625:7767   */\n      swap2\n      swap1\n      pop\n      jump\t// out\n        /* \"#utility.yul\":7773:7848   */\n    tag_75:\n        /* \"#utility.yul\":7816:7819   */\n      0x00\n        /* \"#utility.yul\":7837:7842   */\n      dup2\n        /* \"#utility.yul\":7830:7842   */\n      swap1\n      pop\n        /* \"#utility.yul\":7773:7848   */\n      swap2\n      swap1\n      pop\n      jump\t// out\n        /* \"#utility.yul\":7854:8123   */\n    tag_76:\n        /* \"#utility.yul\":7964:8003   */\n      tag_167\n        /* \"#utility.yul\":7995:8002   */\n      dup4\n        /* \"#utility.yul\":7964:8003   */\n      tag_74\n      jump\t// in\n    tag_167:\n        /* \"#utility.yul\":8025:8116   */\n      tag_168\n        /* \"#utility.yul\":8074:8115   */\n      tag_169\n        /* \"#utility.yul\":8098:8114   */\n      dup3\n        /* \"#utility.yul\":8074:8115   */\n      tag_75\n      jump\t// in\n    tag_169:\n        /* \"#utility.yul\":8066:8072   */\n      dup5\n        /* \"#utility.yul\":8059:8063   */\n      dup5\n        /* \"#utility.yul\":8053:8064   */\n      sload\n        /* \"#utility.yul\":8025:8116   */\n      tag_71\n      jump\t// in\n    tag_168:\n        /* \"#utility.yul\":8019:8023   */\n      dup3\n        /* \"#utility.yul\":8012:8117   */\n      sstore\n        /* \"#utility.yul\":7930:8123   */\n      pop\n        /* \"#utility.yul\":7854:8123   */\n      pop\n      pop\n      pop\n      jump\t// out\n        /* \"#utility.yul\":8129:8202   */\n    tag_77:\n        /* \"#utility.yul\":8174:8177   */\n      0x00\n        /* \"#utility.yul\":8129:8202   */\n      swap1\n      jump\t// out\n        /* \"#utility.yul\":8208:8397   */\n    tag_78:\n        /* \"#utility.yul\":8285:8317   */\n      tag_172\n      tag_77\n      jump\t// in\n    tag_172:\n        /* \"#utility.yul\":8326:8391   */\n      tag_173\n        /* \"#utility.yul\":8384:8390   */\n      dup2\n        /* \"#utility.yul\":8376:8382   */\n      dup5\n        /* \"#utility.yul\":8370:8374   */\n      dup5\n        /* \"#utility.yul\":8326:8391   */\n      tag_76\n      jump\t// in\n    tag_173:\n        /* \"#utility.yul\":8261:8397   */\n      pop\n        /* \"#utility.yul\":8208:8397   */\n      pop\n      pop\n      jump\t// out\n        /* \"#utility.yul\":8403:8589   */\n    tag_79:\n        /* \"#utility.yul\":8463:8583   */\n    tag_175:\n        /* \"#utility.yul\":8480:8483   */\n      dup2\n        /* \"#utility.yul\":8473:8478   */\n      dup2\n        /* \"#utility.yul\":8470:8484   */\n      lt\n        /* \"#utility.yul\":8463:8583   */\n      iszero\n      tag_177\n      jumpi\n        /* \"#utility.yul\":8534:8573   */\n      tag_178\n        /* \"#utility.yul\":8571:8572   */\n      0x00\n        /* \"#utility.yul\":8564:8569   */\n      dup3\n        /* \"#utility.yul\":8534:8573   */\n      tag_78\n      jump\t// in\n    tag_178:\n        /* \"#utility.yul\":8507:8508   */\n      0x01\n        /* \"#utility.yul\":8500:8505   */\n      dup2\n        /* \"#utility.yul\":8496:8509   */\n      add\n        /* \"#utility.yul\":8487:8509   */\n      swap1\n      pop\n        /* \"#utility.yul\":8463:8583   */\n      jump(tag_175)\n    tag_177:\n        /* \"#utility.yul\":8403:8589   */\n      pop\n      pop\n      jump\t// out\n        /* \"#utility.yul\":8595:9138   */\n    tag_80:\n        /* \"#utility.yul\":8696:8698   */\n      0x1f\n        /* \"#utility.yul\":8691:8694   */\n      dup3\n        /* \"#utility.yul\":8688:8699   */\n      gt\n        /* \"#utility.yul\":8685:9131   */\n      iszero\n      tag_180\n      jumpi\n        /* \"#utility.yul\":8730:8768   */\n      tag_181\n        /* \"#utility.yul\":8762:8767   */\n      dup2\n        /* \"#utility.yul\":8730:8768   */\n      tag_68\n      jump\t// in\n    tag_181:\n        /* \"#utility.yul\":8814:8843   */\n      tag_182\n        /* \"#utility.yul\":8832:8842   */\n      dup5\n        /* \"#utility.yul\":8814:8843   */\n      tag_69\n      jump\t// in\n    tag_182:\n        /* \"#utility.yul\":8804:8812   */\n      dup2\n        /* \"#utility.yul\":8800:8844   */\n      add\n        /* \"#utility.yul\":8997:8999   */\n      0x20\n        /* \"#utility.yul\":8985:8995   */\n      dup6\n        /* \"#utility.yul\":8982:9000   */\n      lt\n        /* \"#utility.yul\":8979:9028   */\n      iszero\n      tag_183\n      jumpi\n        /* \"#utility.yul\":9018:9026   */\n      dup2\n        /* \"#utility.yul\":9003:9026   */\n      swap1\n      pop\n        /* \"#utility.yul\":8979:9028   */\n    tag_183:\n        /* \"#utility.yul\":9041:9121   */\n      tag_184\n        /* \"#utility.yul\":9097:9119   */\n      tag_185\n        /* \"#utility.yul\":9115:9118   */\n      dup6\n        /* \"#utility.yul\":9097:9119   */\n      tag_69\n      jump\t// in\n    tag_185:\n        /* \"#utility.yul\":9087:9095   */\n      dup4\n        /* \"#utility.yul\":9083:9120   */\n      add\n        /* \"#utility.yul\":9070:9081   */\n      dup3\n        /* \"#utility.yul\":9041:9121   */\n      tag_79\n      jump\t// in\n    tag_184:\n        /* \"#utility.yul\":8700:9131   */\n      pop\n      pop\n        /* \"#utility.yul\":8685:9131   */\n    tag_180:\n        /* \"#utility.yul\":8595:9138   */\n      pop\n      pop\n      pop\n      jump\t// out\n        /* \"#utility.yul\":9144:9261   */\n    tag_81:\n        /* \"#utility.yul\":9198:9206   */\n      0x00\n        /* \"#utility.yul\":9248:9253   */\n      dup3\n        /* \"#utility.yul\":9242:9246   */\n      dup3\n        /* \"#utility.yul\":9238:9254   */\n      shr\n        /* \"#utility.yul\":9217:9254   */\n      swap1\n      pop\n        /* \"#utility.yul\":9144:9261   */\n      swap3\n      swap2\n      pop\n      pop\n      jump\t// out\n        /* \"#utility.yul\":9267:9436   */\n    tag_82:\n        /* \"#utility.yul\":9311:9317   */\n      0x00\n        /* \"#utility.yul\":9344:9395   */\n      tag_188\n        /* \"#utility.yul\":9392:9393   */\n      0x00\n        /* \"#utility.yul\":9388:9394   */\n      not\n        /* \"#utility.yul\":9380:9385   */\n      dup5\n        /* \"#utility.yul\":9377:9378   */\n      0x08\n        /* \"#utility.yul\":9373:9386   */\n      mul\n        /* \"#utility.yul\":9344:9395   */\n      tag_81\n      jump\t// in\n    tag_188:\n        /* \"#utility.yul\":9340:9396   */\n      not\n        /* \"#utility.yul\":9425:9429   */\n      dup1\n        /* \"#utility.yul\":9419:9423   */\n      dup4\n        /* \"#utility.yul\":9415:9430   */\n      and\n        /* \"#utility.yul\":9405:9430   */\n      swap2\n      pop\n        /* \"#utility.yul\":9318:9436   */\n      pop\n        /* \"#utility.yul\":9267:9436   */\n      swap3\n      swap2\n      pop\n      pop\n      jump\t// out\n        /* \"#utility.yul\":9441:9736   */\n    tag_83:\n        /* \"#utility.yul\":9517:9521   */\n      0x00\n        /* \"#utility.yul\":9663:9692   */\n      tag_190\n        /* \"#utility.yul\":9688:9691   */\n      dup4\n        /* \"#utility.yul\":9682:9686   */\n      dup4\n        /* \"#utility.yul\":9663:9692   */\n      tag_82\n      jump\t// in\n    tag_190:\n        /* \"#utility.yul\":9655:9692   */\n      swap2\n      pop\n        /* \"#utility.yul\":9725:9728   */\n      dup3\n        /* \"#utility.yul\":9722:9723   */\n      0x02\n        /* \"#utility.yul\":9718:9729   */\n      mul\n        /* \"#utility.yul\":9712:9716   */\n      dup3\n        /* \"#utility.yul\":9709:9730   */\n      or\n        /* \"#utility.yul\":9701:9730   */\n      swap1\n      pop\n        /* \"#utility.yul\":9441:9736   */\n      swap3\n      swap2\n      pop\n      pop\n      jump\t// out\n        /* \"#utility.yul\":9741:11136   */\n    tag_19:\n        /* \"#utility.yul\":9858:9895   */\n      tag_192\n        /* \"#utility.yul\":9891:9894   */\n      dup3\n        /* \"#utility.yul\":9858:9895   */\n      tag_60\n      jump\t// in\n    tag_192:\n        /* \"#utility.yul\":9960:9978   */\n      0xffffffffffffffff\n        /* \"#utility.yul\":9952:9958   */\n      dup2\n        /* \"#utility.yul\":9949:9979   */\n      gt\n        /* \"#utility.yul\":9946:10002   */\n      iszero\n      tag_193\n      jumpi\n        /* \"#utility.yul\":9982:10000   */\n      tag_194\n      tag_50\n      jump\t// in\n    tag_194:\n        /* \"#utility.yul\":9946:10002   */\n    tag_193:\n        /* \"#utility.yul\":10026:10064   */\n      tag_195\n        /* \"#utility.yul\":10058:10062   */\n      dup3\n        /* \"#utility.yul\":10052:10063   */\n      sload\n        /* \"#utility.yul\":10026:10064   */\n      tag_32\n      jump\t// in\n    tag_195:\n        /* \"#utility.yul\":10111:10178   */\n      tag_196\n        /* \"#utility.yul\":10171:10177   */\n      dup3\n        /* \"#utility.yul\":10163:10169   */\n      dup3\n        /* \"#utility.yul\":10157:10161   */\n      dup6\n        /* \"#utility.yul\":10111:10178   */\n      tag_80\n      jump\t// in\n    tag_196:\n        /* \"#utility.yul\":10205:10206   */\n      0x00\n        /* \"#utility.yul\":10229:10233   */\n      0x20\n        /* \"#utility.yul\":10216:10233   */\n      swap1\n      pop\n        /* \"#utility.yul\":10261:10263   */\n      0x1f\n        /* \"#utility.yul\":10253:10259   */\n      dup4\n        /* \"#utility.yul\":10250:10264   */\n      gt\n        /* \"#utility.yul\":10278:10279   */\n      0x01\n        /* \"#utility.yul\":10273:10891   */\n      dup2\n      eq\n      tag_198\n      jumpi\n        /* \"#utility.yul\":10935:10936   */\n      0x00\n        /* \"#utility.yul\":10952:10958   */\n      dup5\n        /* \"#utility.yul\":10949:11026   */\n      iszero\n      tag_199\n      jumpi\n        /* \"#utility.yul\":11001:11010   */\n      dup3\n        /* \"#utility.yul\":10996:10999   */\n      dup8\n        /* \"#utility.yul\":10992:11011   */\n      add\n        /* \"#utility.yul\":10986:11012   */\n      mload\n        /* \"#utility.yul\":10977:11012   */\n      swap1\n      pop\n        /* \"#utility.yul\":10949:11026   */\n    tag_199:\n        /* \"#utility.yul\":11052:11119   */\n      tag_200\n        /* \"#utility.yul\":11112:11118   */\n      dup6\n        /* \"#utility.yul\":11105:11110   */\n      dup3\n        /* \"#utility.yul\":11052:11119   */\n      tag_83\n      jump\t// in\n    tag_200:\n        /* \"#utility.yul\":11046:11050   */\n      dup7\n        /* \"#utility.yul\":11039:11120   */\n      sstore\n        /* \"#utility.yul\":10908:11130   */\n      pop\n        /* \"#utility.yul\":10243:11130   */\n      jump(tag_197)\n        /* \"#utility.yul\":10273:10891   */\n    tag_198:\n        /* \"#utility.yul\":10325:10329   */\n      0x1f\n        /* \"#utility.yul\":10321:10330   */\n      not\n        /* \"#utility.yul\":10313:10319   */\n      dup5\n        /* \"#utility.yul\":10309:10331   */\n      and\n        /* \"#utility.yul\":10359:10396   */\n      tag_201\n        /* \"#utility.yul\":10391:10395   */\n      dup7\n        /* \"#utility.yul\":10359:10396   */\n      tag_68\n      jump\t// in\n    tag_201:\n        /* \"#utility.yul\":10418:10419   */\n      0x00\n        /* \"#utility.yul\":10432:10640   */\n    tag_202:\n        /* \"#utility.yul\":10446:10453   */\n      dup3\n        /* \"#utility.yul\":10443:10444   */\n      dup2\n        /* \"#utility.yul\":10440:10454   */\n      lt\n        /* \"#utility.yul\":10432:10640   */\n      iszero\n      tag_204\n      jumpi\n        /* \"#utility.yul\":10525:10534   */\n      dup5\n        /* \"#utility.yul\":10520:10523   */\n      dup10\n        /* \"#utility.yul\":10516:10535   */\n      add\n        /* \"#utility.yul\":10510:10536   */\n      mload\n        /* \"#utility.yul\":10502:10508   */\n      dup3\n        /* \"#utility.yul\":10495:10537   */\n      sstore\n        /* \"#utility.yul\":10576:10577   */\n      0x01\n        /* \"#utility.yul\":10568:10574   */\n      dup3\n        /* \"#utility.yul\":10564:10578   */\n      add\n        /* \"#utility.yul\":10554:10578   */\n      swap2\n      pop\n        /* \"#utility.yul\":10623:10625   */\n      0x20\n        /* \"#utility.yul\":10612:10621   */\n      dup6\n        /* \"#utility.yul\":10608:10626   */\n      add\n        /* \"#utility.yul\":10595:10626   */\n      swap5\n      pop\n        /* \"#utility.yul\":10469:10473   */\n      0x20\n        /* \"#utility.yul\":10466:10467   */\n      dup2\n        /* \"#utility.yul\":10462:10474   */\n      add\n        /* \"#utility.yul\":10457:10474   */\n      swap1\n      pop\n        /* \"#utility.yul\":10432:10640   */\n      jump(tag_202)\n    tag_204:\n        /* \"#utility.yul\":10668:10674   */\n      dup7\n        /* \"#utility.yul\":10659:10666   */\n      dup4\n        /* \"#utility.yul\":10656:10675   */\n      lt\n        /* \"#utility.yul\":10653:10832   */\n      iszero\n      tag_205\n      jumpi\n        /* \"#utility.yul\":10726:10735   */\n      dup5\n        /* \"#utility.yul\":10721:10724   */\n      dup10\n        /* \"#utility.yul\":10717:10736   */\n      add\n        /* \"#utility.yul\":10711:10737   */\n      mload\n        /* \"#utility.yul\":10769:10817   */\n      tag_206\n        /* \"#utility.yul\":10811:10815   */\n      0x1f\n        /* \"#utility.yul\":10803:10809   */\n      dup10\n        /* \"#utility.yul\":10799:10816   */\n      and\n        /* \"#utility.yul\":10788:10797   */\n      dup3\n        /* \"#utility.yul\":10769:10817   */\n      tag_82\n      jump\t// in\n    tag_206:\n        /* \"#utility.yul\":10761:10767   */\n      dup4\n        /* \"#utility.yul\":10754:10818   */\n      sstore\n        /* \"#utility.yul\":10676:10832   */\n      pop\n        /* \"#utility.yul\":10653:10832   */\n    tag_205:\n        /* \"#utility.yul\":10878:10879   */\n      0x01\n        /* \"#utility.yul\":10874:10875   */\n      0x02\n        /* \"#utility.yul\":10866:10872   */\n      dup9\n        /* \"#utility.yul\":10862:10876   */\n      mul\n        /* \"#utility.yul\":10858:10880   */\n      add\n        /* \"#utility.yul\":10852:10856   */\n      dup9\n        /* \"#utility.yul\":10845:10881   */\n      sstore\n        /* \"#utility.yul\":10280:10891   */\n      pop\n      pop\n      pop\n        /* \"#utility.yul\":10243:11130   */\n    tag_197:\n      pop\n        /* \"#utility.yul\":9833:11136   */\n      pop\n      pop\n      pop\n        /* \"#utility.yul\":9741:11136   */\n      pop\n      pop\n      jump\t// out\n        /* \"#utility.yul\":11142:11322   */\n    tag_23:\n        /* \"#utility.yul\":11190:11267   */\n      0x4e487b7100000000000000000000000000000000000000000000000000000000\n        /* \"#utility.yul\":11187:11188   */\n      0x00\n        /* \"#utility.yul\":11180:11268   */\n      mstore\n        /* \"#utility.yul\":11287:11291   */\n      0x31\n        /* \"#utility.yul\":11284:11285   */\n      0x04\n        /* \"#utility.yul\":11277:11292   */\n      mstore\n        /* \"#utility.yul\":11311:11315   */\n      0x24\n        /* \"#utility.yul\":11308:11309   */\n      0x00\n        /* \"#utility.yul\":11301:11316   */\n      revert\n\n    auxdata: 0xa264697066735822122046c2f44380316936a524bbf06939b0ba302f3e61857b703d371c7f3f26469ba264736f6c63430008120033\n}\n",
				"bytecode": {
					"linkReferences": {},
					"object": "608060405234801561001057600080fd5b5061087d806100206000396000f3fe608060405234801561001057600080fd5b50600436106100415760003560e01c80634f3d057a14610046578063a4ece52c14610062578063d1eb42b21461006c575b600080fd5b610060600480360381019061005b9190610384565b61008a565b005b61006a6100c2565b005b6100746100f4565b604051610081919061050e565b60405180910390f35b6000819080600181540180825580915050600190039060005260206000200160009091909190915090816100be9190610746565b5050565b60008054806100d4576100d3610818565b5b6001900381819060005260206000200160006100f091906101cd565b9055565b60606000805480602002602001604051908101604052809291908181526020016000905b828210156101c45783829060005260206000200180546101379061055f565b80601f01602080910402602001604051908101604052809291908181526020018280546101639061055f565b80156101b05780601f10610185576101008083540402835291602001916101b0565b820191906000526020600020905b81548152906001019060200180831161019357829003601f168201915b505050505081526020019060010190610118565b50505050905090565b5080546101d99061055f565b6000825580601f106101eb575061020a565b601f016020900490600052602060002090810190610209919061020d565b5b50565b5b8082111561022657600081600090555060010161020e565b5090565b6000604051905090565b600080fd5b600080fd5b600080fd5b600080fd5b6000601f19601f8301169050919050565b7f4e487b7100000000000000000000000000000000000000000000000000000000600052604160045260246000fd5b61029182610248565b810181811067ffffffffffffffff821117156102b0576102af610259565b5b80604052505050565b60006102c361022a565b90506102cf8282610288565b919050565b600067ffffffffffffffff8211156102ef576102ee610259565b5b6102f882610248565b9050602081019050919050565b82818337600083830152505050565b6000610327610322846102d4565b6102b9565b90508281526020810184848401111561034357610342610243565b5b61034e848285610305565b509392505050565b600082601f83011261036b5761036a61023e565b5b813561037b848260208601610314565b91505092915050565b60006020828403121561039a57610399610234565b5b600082013567ffffffffffffffff8111156103b8576103b7610239565b5b6103c484828501610356565b91505092915050565b600081519050919050565b600082825260208201905092915050565b6000819050602082019050919050565b600081519050919050565b600082825260208201905092915050565b60005b83811015610433578082015181840152602081019050610418565b60008484015250505050565b600061044a826103f9565b6104548185610404565b9350610464818560208601610415565b61046d81610248565b840191505092915050565b6000610484838361043f565b905092915050565b6000602082019050919050565b60006104a4826103cd565b6104ae81856103d8565b9350836020820285016104c0856103e9565b8060005b858110156104fc57848403895281516104dd8582610478565b94506104e88361048c565b925060208a019950506001810190506104c4565b50829750879550505050505092915050565b600060208201905081810360008301526105288184610499565b905092915050565b7f4e487b7100000000000000000000000000000000000000000000000000000000600052602260045260246000fd5b6000600282049050600182168061057757607f821691505b60208210810361058a57610589610530565b5b50919050565b60008190508160005260206000209050919050565b60006020601f8301049050919050565b600082821b905092915050565b6000600883026105f27fffffffffffffffffffffffffffffffffffffffffffffffffffffffffffffffff826105b5565b6105fc86836105b5565b95508019841693508086168417925050509392505050565b6000819050919050565b6000819050919050565b600061064361063e61063984610614565b61061e565b610614565b9050919050565b6000819050919050565b61065d83610628565b6106716106698261064a565b8484546105c2565b825550505050565b600090565b610686610679565b610691818484610654565b505050565b5b818110156106b5576106aa60008261067e565b600181019050610697565b5050565b601f8211156106fa576106cb81610590565b6106d4846105a5565b810160208510156106e3578190505b6106f76106ef856105a5565b830182610696565b50505b505050565b600082821c905092915050565b600061071d600019846008026106ff565b1980831691505092915050565b6000610736838361070c565b9150826002028217905092915050565b61074f826103f9565b67ffffffffffffffff81111561076857610767610259565b5b610772825461055f565b61077d8282856106b9565b600060209050601f8311600181146107b0576000841561079e578287015190505b6107a8858261072a565b865550610810565b601f1984166107be86610590565b60005b828110156107e6578489015182556001820191506020850194506020810190506107c1565b8683101561080357848901516107ff601f89168261070c565b8355505b6001600288020188555050505b505050505050565b7f4e487b7100000000000000000000000000000000000000000000000000000000600052603160045260246000fdfea264697066735822122046c2f44380316936a524bbf06939b0ba302f3e61857b703d371c7f3f26469ba264736f6c63430008120033",
					"opcodes": "PUSH1 0x80 PUSH1 0x40 MSTORE CALLVALUE DUP1 ISZERO PUSH2 0x10 JUMPI PUSH1 0x0 DUP1 REVERT JUMPDEST POP PUSH2 0x87D DUP1 PUSH2 0x20 PUSH1 0x0 CODECOPY PUSH1 0x0 RETURN INVALID PUSH1 0x80 PUSH1 0x40 MSTORE CALLVALUE DUP1 ISZERO PUSH2 0x10 JUMPI PUSH1 0x0 DUP1 REVERT JUMPDEST POP PUSH1 0x4 CALLDATASIZE LT PUSH2 0x41 JUMPI PUSH1 0x0 CALLDATALOAD PUSH1 0xE0 SHR DUP1 PUSH4 0x4F3D057A EQ PUSH2 0x46 JUMPI DUP1 PUSH4 0xA4ECE52C EQ PUSH2 0x62 JUMPI DUP1 PUSH4 0xD1EB42B2 EQ PUSH2 0x6C JUMPI JUMPDEST PUSH1 0x0 DUP1 REVERT JUMPDEST PUSH2 0x60 PUSH1 0x4 DUP1 CALLDATASIZE SUB DUP2 ADD SWAP1 PUSH2 0x5B SWAP2 SWAP1 PUSH2 0x384 JUMP JUMPDEST PUSH2 0x8A JUMP JUMPDEST STOP JUMPDEST PUSH2 0x6A PUSH2 0xC2 JUMP JUMPDEST STOP JUMPDEST PUSH2 0x74 PUSH2 0xF4 JUMP JUMPDEST PUSH1 0x40 MLOAD PUSH2 0x81 SWAP2 SWAP1 PUSH2 0x50E JUMP JUMPDEST PUSH1 0x40 MLOAD DUP1 SWAP2 SUB SWAP1 RETURN JUMPDEST PUSH1 0x0 DUP2 SWAP1 DUP1 PUSH1 0x1 DUP2 SLOAD ADD DUP1 DUP3 SSTORE DUP1 SWAP2 POP POP PUSH1 0x1 SWAP1 SUB SWAP1 PUSH1 0x0 MSTORE PUSH1 0x20 PUSH1 0x0 KECCAK256 ADD PUSH1 0x0 SWAP1 SWAP2 SWAP1 SWAP2 SWAP1 SWAP2 POP SWAP1 DUP2 PUSH2 0xBE SWAP2 SWAP1 PUSH2 0x746 JUMP JUMPDEST POP POP JUMP JUMPDEST PUSH1 0x0 DUP1 SLOAD DUP1 PUSH2 0xD4 JUMPI PUSH2 0xD3 PUSH2 0x818 JUMP JUMPDEST JUMPDEST PUSH1 0x1 SWAP1 SUB DUP2 DUP2 SWAP1 PUSH1 0x0 MSTORE PUSH1 0x20 PUSH1 0x0 KECCAK256 ADD PUSH1 0x0 PUSH2 0xF0 SWAP2 SWAP1 PUSH2 0x1CD JUMP JUMPDEST SWAP1 SSTORE JUMP JUMPDEST PUSH1 0x60 PUSH1 0x0 DUP1 SLOAD DUP1 PUSH1 0x20 MUL PUSH1 0x20 ADD PUSH1 0x40 MLOAD SWAP1 DUP2 ADD PUSH1 0x40 MSTORE DUP1 SWAP3 SWAP2 SWAP1 DUP2 DUP2 MSTORE PUSH1 0x20 ADD PUSH1 0x0 SWAP1 JUMPDEST DUP3 DUP3 LT ISZERO PUSH2 0x1C4 JUMPI DUP4 DUP3 SWAP1 PUSH1 0x0 MSTORE PUSH1 0x20 PUSH1 0x0 KECCAK256 ADD DUP1 SLOAD PUSH2 0x137 SWAP1 PUSH2 0x55F JUMP JUMPDEST DUP1 PUSH1 0x1F ADD PUSH1 0x20 DUP1 SWAP2 DIV MUL PUSH1 0x20 ADD PUSH1 0x40 MLOAD SWAP1 DUP2 ADD PUSH1 0x40 MSTORE DUP1 SWAP3 SWAP2 SWAP1 DUP2 DUP2 MSTORE PUSH1 0x20 ADD DUP3 DUP1 SLOAD PUSH2 0x163 SWAP1 PUSH2 0x55F JUMP JUMPDEST DUP1 ISZERO PUSH2 0x1B0 JUMPI DUP1 PUSH1 0x1F LT PUSH2 0x185 JUMPI PUSH2 0x100 DUP1 DUP4 SLOAD DIV MUL DUP4 MSTORE SWAP2 PUSH1 0x20 ADD SWAP2 PUSH2 0x1B0 JUMP JUMPDEST DUP3 ADD SWAP2 SWAP1 PUSH1 0x0 MSTORE PUSH1 0x20 PUSH1 0x0 KECCAK256 SWAP1 JUMPDEST DUP2 SLOAD DUP2 MSTORE SWAP1 PUSH1 0x1 ADD SWAP1 PUSH1 0x20 ADD DUP1 DUP4 GT PUSH2 0x193 JUMPI DUP3 SWAP1 SUB PUSH1 0x1F AND DUP3 ADD SWAP2 JUMPDEST POP POP POP POP POP DUP2 MSTORE PUSH1 0x20 ADD SWAP1 PUSH1 0x1 ADD SWAP1 PUSH2 0x118 JUMP JUMPDEST POP POP POP POP SWAP1 POP SWAP1 JUMP JUMPDEST POP DUP1 SLOAD PUSH2 0x1D9 SWAP1 PUSH2 0x55F JUMP JUMPDEST PUSH1 0x0 DUP3 SSTORE DUP1 PUSH1 0x1F LT PUSH2 0x1EB JUMPI POP PUSH2 0x20A JUMP JUMPDEST PUSH1 0x1F ADD PUSH1 0x20 SWAP1 DIV SWAP1 PUSH1 0x0 MSTORE PUSH1 0x20 PUSH1 0x0 KECCAK256 SWAP1 DUP2 ADD SWAP1 PUSH2 0x209 SWAP2 SWAP1 PUSH2 0x20D JUMP JUMPDEST JUMPDEST POP JUMP JUMPDEST JUMPDEST DUP1 DUP3 GT ISZERO PUSH2 0x226 JUMPI PUSH1 0x0 DUP2 PUSH1 0x0 SWAP1 SSTORE POP PUSH1 0x1 ADD PUSH2 0x20E JUMP JUMPDEST POP SWAP1 JUMP JUMPDEST PUSH1 0x0 PUSH1 0x40 MLOAD SWAP1 POP SWAP1 JUMP JUMPDEST PUSH1 0x0 DUP1 REVERT JUMPDEST PUSH1 0x0 DUP1 REVERT JUMPDEST PUSH1 0x0 DUP1 REVERT JUMPDEST PUSH1 0x0 DUP1 REVERT JUMPDEST PUSH1 0x0 PUSH1 0x1F NOT PUSH1 0x1F DUP4 ADD AND SWAP1 POP SWAP2 SWAP1 POP JUMP JUMPDEST PUSH32 0x4E487B7100000000000000000000000000000000000000000000000000000000 PUSH1 0x0 MSTORE PUSH1 0x41 PUSH1 0x4 MSTORE PUSH1 0x24 PUSH1 0x0 REVERT JUMPDEST PUSH2 0x291 DUP3 PUSH2 0x248 JUMP JUMPDEST DUP2 ADD DUP2 DUP2 LT PUSH8 0xFFFFFFFFFFFFFFFF DUP3 GT OR ISZERO PUSH2 0x2B0 JUMPI PUSH2 0x2AF PUSH2 0x259 JUMP JUMPDEST JUMPDEST DUP1 PUSH1 0x40 MSTORE POP POP POP JUMP JUMPDEST PUSH1 0x0 PUSH2 0x2C3 PUSH2 0x22A JUMP JUMPDEST SWAP1 POP PUSH2 0x2CF DUP3 DUP3 PUSH2 0x288 JUMP JUMPDEST SWAP2 SWAP1 POP JUMP JUMPDEST PUSH1 0x0 PUSH8 0xFFFFFFFFFFFFFFFF DUP3 GT ISZERO PUSH2 0x2EF JUMPI PUSH2 0x2EE PUSH2 0x259 JUMP JUMPDEST JUMPDEST PUSH2 0x2F8 DUP3 PUSH2 0x248 JUMP JUMPDEST SWAP1 POP PUSH1 0x20 DUP2 ADD SWAP1 POP SWAP2 SWAP1 POP JUMP JUMPDEST DUP3 DUP2 DUP4 CALLDATACOPY PUSH1 0x0 DUP4 DUP4 ADD MSTORE POP POP POP JUMP JUMPDEST PUSH1 0x0 PUSH2 0x327 PUSH2 0x322 DUP5 PUSH2 0x2D4 JUMP JUMPDEST PUSH2 0x2B9 JUMP JUMPDEST SWAP1 POP DUP3 DUP2 MSTORE PUSH1 0x20 DUP2 ADD DUP5 DUP5 DUP5 ADD GT ISZERO PUSH2 0x343 JUMPI PUSH2 0x342 PUSH2 0x243 JUMP JUMPDEST JUMPDEST PUSH2 0x34E DUP5 DUP3 DUP6 PUSH2 0x305 JUMP JUMPDEST POP SWAP4 SWAP3 POP POP POP JUMP JUMPDEST PUSH1 0x0 DUP3 PUSH1 0x1F DUP4 ADD SLT PUSH2 0x36B JUMPI PUSH2 0x36A PUSH2 0x23E JUMP JUMPDEST JUMPDEST DUP2 CALLDATALOAD PUSH2 0x37B DUP5 DUP3 PUSH1 0x20 DUP7 ADD PUSH2 0x314 JUMP JUMPDEST SWAP2 POP POP SWAP3 SWAP2 POP POP JUMP JUMPDEST PUSH1 0x0 PUSH1 0x20 DUP3 DUP5 SUB SLT ISZERO PUSH2 0x39A JUMPI PUSH2 0x399 PUSH2 0x234 JUMP JUMPDEST JUMPDEST PUSH1 0x0 DUP3 ADD CALLDATALOAD PUSH8 0xFFFFFFFFFFFFFFFF DUP2 GT ISZERO PUSH2 0x3B8 JUMPI PUSH2 0x3B7 PUSH2 0x239 JUMP JUMPDEST JUMPDEST PUSH2 0x3C4 DUP5 DUP3 DUP6 ADD PUSH2 0x356 JUMP JUMPDEST SWAP2 POP POP SWAP3 SWAP2 POP POP JUMP JUMPDEST PUSH1 0x0 DUP2 MLOAD SWAP1 POP SWAP2 SWAP1 POP JUMP JUMPDEST PUSH1 0x0 DUP3 DUP3 MSTORE PUSH1 0x20 DUP3 ADD SWAP1 POP SWAP3 SWAP2 POP POP JUMP JUMPDEST PUSH1 0x0 DUP2 SWAP1 POP PUSH1 0x20 DUP3 ADD SWAP1 POP SWAP2 SWAP1 POP JUMP JUMPDEST PUSH1 0x0 DUP2 MLOAD SWAP1 POP SWAP2 SWAP1 POP JUMP JUMPDEST PUSH1 0x0 DUP3 DUP3 MSTORE PUSH1 0x20 DUP3 ADD SWAP1 POP SWAP3 SWAP2 POP POP JUMP JUMPDEST PUSH1 0x0 JUMPDEST DUP4 DUP2 LT ISZERO PUSH2 0x433 JUMPI DUP1 DUP3 ADD MLOAD DUP2 DUP5 ADD MSTORE PUSH1 0x20 DUP2 ADD SWAP1 POP PUSH2 0x418 JUMP JUMPDEST PUSH1 0x0 DUP5 DUP5 ADD MSTORE POP POP POP POP JUMP JUMPDEST PUSH1 0x0 PUSH2 0x44A DUP3 PUSH2 0x3F9 JUMP JUMPDEST PUSH2 0x454 DUP2 DUP6 PUSH2 0x404 JUMP JUMPDEST SWAP4 POP PUSH2 0x464 DUP2 DUP6 PUSH1 0x20 DUP7 ADD PUSH2 0x415 JUMP JUMPDEST PUSH2 0x46D DUP2 PUSH2 0x248 JUMP JUMPDEST DUP5 ADD SWAP2 POP POP SWAP3 SWAP2 POP POP JUMP JUMPDEST PUSH1 0x0 PUSH2 0x484 DUP4 DUP4 PUSH2 0x43F JUMP JUMPDEST SWAP1 POP SWAP3 SWAP2 POP POP JUMP JUMPDEST PUSH1 0x0 PUSH1 0x20 DUP3 ADD SWAP1 POP SWAP2 SWAP1 POP JUMP JUMPDEST PUSH1 0x0 PUSH2 0x4A4 DUP3 PUSH2 0x3CD JUMP JUMPDEST PUSH2 0x4AE DUP2 DUP6 PUSH2 0x3D8 JUMP JUMPDEST SWAP4 POP DUP4 PUSH1 0x20 DUP3 MUL DUP6 ADD PUSH2 0x4C0 DUP6 PUSH2 0x3E9 JUMP JUMPDEST DUP1 PUSH1 0x0 JUMPDEST DUP6 DUP2 LT ISZERO PUSH2 0x4FC JUMPI DUP5 DUP5 SUB DUP10 MSTORE DUP2 MLOAD PUSH2 0x4DD DUP6 DUP3 PUSH2 0x478 JUMP JUMPDEST SWAP5 POP PUSH2 0x4E8 DUP4 PUSH2 0x48C JUMP JUMPDEST SWAP3 POP PUSH1 0x20 DUP11 ADD SWAP10 POP POP PUSH1 0x1 DUP2 ADD SWAP1 POP PUSH2 0x4C4 JUMP JUMPDEST POP DUP3 SWAP8 POP DUP8 SWAP6 POP POP POP POP POP POP SWAP3 SWAP2 POP POP JUMP JUMPDEST PUSH1 0x0 PUSH1 0x20 DUP3 ADD SWAP1 POP DUP2 DUP2 SUB PUSH1 0x0 DUP4 ADD MSTORE PUSH2 0x528 DUP2 DUP5 PUSH2 0x499 JUMP JUMPDEST SWAP1 POP SWAP3 SWAP2 POP POP JUMP JUMPDEST PUSH32 0x4E487B7100000000000000000000000000000000000000000000000000000000 PUSH1 0x0 MSTORE PUSH1 0x22 PUSH1 0x4 MSTORE PUSH1 0x24 PUSH1 0x0 REVERT JUMPDEST PUSH1 0x0 PUSH1 0x2 DUP3 DIV SWAP1 POP PUSH1 0x1 DUP3 AND DUP1 PUSH2 0x577 JUMPI PUSH1 0x7F DUP3 AND SWAP2 POP JUMPDEST PUSH1 0x20 DUP3 LT DUP2 SUB PUSH2 0x58A JUMPI PUSH2 0x589 PUSH2 0x530 JUMP JUMPDEST JUMPDEST POP SWAP2 SWAP1 POP JUMP JUMPDEST PUSH1 0x0 DUP2 SWAP1 POP DUP2 PUSH1 0x0 MSTORE PUSH1 0x20 PUSH1 0x0 KECCAK256 SWAP1 POP SWAP2 SWAP1 POP JUMP JUMPDEST PUSH1 0x0 PUSH1 0x20 PUSH1 0x1F DUP4 ADD DIV SWAP1 POP SWAP2 SWAP1 POP JUMP JUMPDEST PUSH1 0x0 DUP3 DUP3 SHL SWAP1 POP SWAP3 SWAP2 POP POP JUMP JUMPDEST PUSH1 0x0 PUSH1 0x8 DUP4 MUL PUSH2 0x5F2 PUSH32 0xFFFFFFFFFFFFFFFFFFFFFFFFFFFFFFFFFFFFFFFFFFFFFFFFFFFFFFFFFFFFFFFF DUP3 PUSH2 0x5B5 JUMP JUMPDEST PUSH2 0x5FC DUP7 DUP4 PUSH2 0x5B5 JUMP JUMPDEST SWAP6 POP DUP1 NOT DUP5 AND SWAP4 POP DUP1 DUP7 AND DUP5 OR SWAP3 POP POP POP SWAP4 SWAP3 POP POP POP JUMP JUMPDEST PUSH1 0x0 DUP2 SWAP1 POP SWAP2 SWAP1 POP JUMP JUMPDEST PUSH1 0x0 DUP2 SWAP1 POP SWAP2 SWAP1 POP JUMP JUMPDEST PUSH1 0x0 PUSH2 0x643 PUSH2 0x63E PUSH2 0x639 DUP5 PUSH2 0x614 JUMP JUMPDEST PUSH2 0x61E JUMP JUMPDEST PUSH2 0x614 JUMP JUMPDEST SWAP1 POP SWAP2 SWAP1 POP JUMP JUMPDEST PUSH1 0x0 DUP2 SWAP1 POP SWAP2 SWAP1 POP JUMP JUMPDEST PUSH2 0x65D DUP4 PUSH2 0x628 JUMP JUMPDEST PUSH2 0x671 PUSH2 0x669 DUP3 PUSH2 0x64A JUMP JUMPDEST DUP5 DUP5 SLOAD PUSH2 0x5C2 JUMP JUMPDEST DUP3 SSTORE POP POP POP POP JUMP JUMPDEST PUSH1 0x0 SWAP1 JUMP JUMPDEST PUSH2 0x686 PUSH2 0x679 JUMP JUMPDEST PUSH2 0x691 DUP2 DUP5 DUP5 PUSH2 0x654 JUMP JUMPDEST POP POP POP JUMP JUMPDEST JUMPDEST DUP2 DUP2 LT ISZERO PUSH2 0x6B5 JUMPI PUSH2 0x6AA PUSH1 0x0 DUP3 PUSH2 0x67E JUMP JUMPDEST PUSH1 0x1 DUP2 ADD SWAP1 POP PUSH2 0x697 JUMP JUMPDEST POP POP JUMP JUMPDEST PUSH1 0x1F DUP3 GT ISZERO PUSH2 0x6FA JUMPI PUSH2 0x6CB DUP2 PUSH2 0x590 JUMP JUMPDEST PUSH2 0x6D4 DUP5 PUSH2 0x5A5 JUMP JUMPDEST DUP2 ADD PUSH1 0x20 DUP6 LT ISZERO PUSH2 0x6E3 JUMPI DUP2 SWAP1 POP JUMPDEST PUSH2 0x6F7 PUSH2 0x6EF DUP6 PUSH2 0x5A5 JUMP JUMPDEST DUP4 ADD DUP3 PUSH2 0x696 JUMP JUMPDEST POP POP JUMPDEST POP POP POP JUMP JUMPDEST PUSH1 0x0 DUP3 DUP3 SHR SWAP1 POP SWAP3 SWAP2 POP POP JUMP JUMPDEST PUSH1 0x0 PUSH2 0x71D PUSH1 0x0 NOT DUP5 PUSH1 0x8 MUL PUSH2 0x6FF JUMP JUMPDEST NOT DUP1 DUP4 AND SWAP2 POP POP SWAP3 SWAP2 POP POP JUMP JUMPDEST PUSH1 0x0 PUSH2 0x736 DUP4 DUP4 PUSH2 0x70C JUMP JUMPDEST SWAP2 POP DUP3 PUSH1 0x2 MUL DUP3 OR SWAP1 POP SWAP3 SWAP2 POP POP JUMP JUMPDEST PUSH2 0x74F DUP3 PUSH2 0x3F9 JUMP JUMPDEST PUSH8 0xFFFFFFFFFFFFFFFF DUP2 GT ISZERO PUSH2 0x768 JUMPI PUSH2 0x767 PUSH2 0x259 JUMP JUMPDEST JUMPDEST PUSH2 0x772 DUP3 SLOAD PUSH2 0x55F JUMP JUMPDEST PUSH2 0x77D DUP3 DUP3 DUP6 PUSH2 0x6B9 JUMP JUMPDEST PUSH1 0x0 PUSH1 0x20 SWAP1 POP PUSH1 0x1F DUP4 GT PUSH1 0x1 DUP2 EQ PUSH2 0x7B0 JUMPI PUSH1 0x0 DUP5 ISZERO PUSH2 0x79E JUMPI DUP3 DUP8 ADD MLOAD SWAP1 POP JUMPDEST PUSH2 0x7A8 DUP6 DUP3 PUSH2 0x72A JUMP JUMPDEST DUP7 SSTORE POP PUSH2 0x810 JUMP JUMPDEST PUSH1 0x1F NOT DUP5 AND PUSH2 0x7BE DUP7 PUSH2 0x590 JUMP JUMPDEST PUSH1 0x0 JUMPDEST DUP3 DUP2 LT ISZERO PUSH2 0x7E6 JUMPI DUP5 DUP10 ADD MLOAD DUP3 SSTORE PUSH1 0x1 DUP3 ADD SWAP2 POP PUSH1 0x20 DUP6 ADD SWAP5 POP PUSH1 0x20 DUP2 ADD SWAP1 POP PUSH2 0x7C1 JUMP JUMPDEST DUP7 DUP4 LT ISZERO PUSH2 0x803 JUMPI DUP5 DUP10 ADD MLOAD PUSH2 0x7FF PUSH1 0x1F DUP10 AND DUP3 PUSH2 0x70C JUMP JUMPDEST DUP4 SSTORE POP JUMPDEST PUSH1 0x1 PUSH1 0x2 DUP9 MUL ADD DUP9 SSTORE POP POP POP JUMPDEST POP POP POP POP POP POP JUMP JUMPDEST PUSH32 0x4E487B7100000000000000000000000000000000000000000000000000000000 PUSH1 0x0 MSTORE PUSH1 0x31 PUSH1 0x4 MSTORE PUSH1 0x24 PUSH1 0x0 REVERT INVALID LOG2 PUSH5 0x6970667358 0x22 SLT KECCAK256 CHAINID 0xC2 DELEGATECALL NUMBER DUP1 BALANCE PUSH10 0x36A524BBF06939B0BA30 0x2F RETURNDATACOPY PUSH2 0x857B PUSH17 0x3D371C7F3F26469BA264736F6C63430008 SLT STOP CALLER "
				},
				"gasEstimates": {
					"creation": {
						"codeDepositCost": "434600",
						"executionCost": "468",
						"totalCost": "435068"
					},
					"external": {
						"pop()": "infinite",
						"push(string)": "infinite",
						"returnarr()": "infinite"
					}
				},
				"methodIdentifiers": {
					"pop()": "a4ece52c",
					"push(string)": "4f3d057a",
					"returnarr()": "d1eb42b2"
				}
			},
			"storageLayout": {
				"storage": [
					{
						"astId": 237,
						"contract": "questins/2.sol:questionFourteen",
						"label": "arr",
						"offset": 0,
						"slot": "0",
						"type": "t_array(t_string_storage)dyn_storage"
					}
				],
				"types": {
					"t_array(t_string_storage)dyn_storage": {
						"base": "t_string_storage",
						"encoding": "dynamic_array",
						"label": "string[]",
						"numberOfBytes": "32"
					},
					"t_string_storage": {
						"encoding": "bytes",
						"label": "string",
						"numberOfBytes": "32"
					}
				}
			},
			"userdoc": {
				"kind": "user",
				"methods": {},
				"version": 1
			}
		}
	}
}