{
	"questins/2.sol": {
		"questionTwelve": {
			"abi": [
				{
					"inputs": [],
					"name": "get",
					"outputs": [
						{
							"components": [
								{
									"internalType": "string",
									"name": "name",
									"type": "string"
								},
								{
									"internalType": "uint256",
									"name": "rollno",
									"type": "uint256"
								},
								{
									"internalType": "uint256",
									"name": "age",
									"type": "uint256"
								}
							],
							"internalType": "struct questionTwelve.student",
							"name": "",
							"type": "tuple"
						}
					],
					"stateMutability": "view",
					"type": "function"
				},
				{
					"inputs": [
						{
							"internalType": "string",
							"name": "_name",
							"type": "string"
						},
						{
							"internalType": "uint256",
							"name": "_rollno",
							"type": "uint256"
						},
						{
							"internalType": "uint256",
							"name": "_age",
							"type": "uint256"
						}
					],
					"name": "setter",
					"outputs": [],
					"stateMutability": "nonpayable",
					"type": "function"
				}
			],
			"devdoc": {
				"kind": "dev",
				"methods": {},
				"version": 1
			},
			"evm": {
				"assembly": "    /* \"questins/2.sol\":1096:1574  contract questionTwelve{... */\n  mstore(0x40, 0x80)\n  callvalue\n  dup1\n  iszero\n  tag_1\n  jumpi\n  0x00\n  dup1\n  revert\ntag_1:\n  pop\n  dataSize(sub_0)\n  dup1\n  dataOffset(sub_0)\n  0x00\n  codecopy\n  0x00\n  return\nstop\n\nsub_0: assembly {\n        /* \"questins/2.sol\":1096:1574  contract questionTwelve{... */\n      mstore(0x40, 0x80)\n      callvalue\n      dup1\n      iszero\n      tag_1\n      jumpi\n      0x00\n      dup1\n      revert\n    tag_1:\n      pop\n      jumpi(tag_2, lt(calldatasize, 0x04))\n      shr(0xe0, calldataload(0x00))\n      dup1\n      0x6d4ce63c\n      eq\n      tag_3\n      jumpi\n      dup1\n      0x9db51e26\n      eq\n      tag_4\n      jumpi\n    tag_2:\n      0x00\n      dup1\n      revert\n        /* \"questins/2.sol\":1473:1569  function get() public view returns(student memory){... */\n    tag_3:\n      tag_5\n      tag_6\n      jump\t// in\n    tag_5:\n      mload(0x40)\n      tag_7\n      swap2\n      swap1\n      tag_8\n      jump\t// in\n    tag_7:\n      mload(0x40)\n      dup1\n      swap2\n      sub\n      swap1\n      return\n        /* \"questins/2.sol\":1262:1467  function setter(string calldata _name,uint _rollno,uint _age) public {... */\n    tag_4:\n      tag_9\n      0x04\n      dup1\n      calldatasize\n      sub\n      dup2\n      add\n      swap1\n      tag_10\n      swap2\n      swap1\n      tag_11\n      jump\t// in\n    tag_10:\n      tag_12\n      jump\t// in\n    tag_9:\n      stop\n        /* \"questins/2.sol\":1473:1569  function get() public view returns(student memory){... */\n    tag_6:\n        /* \"questins/2.sol\":1508:1522  student memory */\n      tag_13\n      tag_14\n      jump\t// in\n    tag_13:\n        /* \"questins/2.sol\":1541:1549  students */\n      0x00\n        /* \"questins/2.sol\":1541:1561  students[msg.sender] */\n      dup1\n        /* \"questins/2.sol\":1550:1560  msg.sender */\n      caller\n        /* \"questins/2.sol\":1541:1561  students[msg.sender] */\n      0xffffffffffffffffffffffffffffffffffffffff\n      and\n      0xffffffffffffffffffffffffffffffffffffffff\n      and\n      dup2\n      mstore\n      0x20\n      add\n      swap1\n      dup2\n      mstore\n      0x20\n      add\n      0x00\n      keccak256\n        /* \"questins/2.sol\":1534:1561  return students[msg.sender] */\n      mload(0x40)\n      dup1\n      0x60\n      add\n      0x40\n      mstore\n      swap1\n      dup2\n      0x00\n      dup3\n      add\n      dup1\n      sload\n      tag_16\n      swap1\n      tag_17\n      jump\t// in\n    tag_16:\n      dup1\n      0x1f\n      add\n      0x20\n      dup1\n      swap2\n      div\n      mul\n      0x20\n      add\n      mload(0x40)\n      swap1\n      dup2\n      add\n      0x40\n      mstore\n      dup1\n      swap3\n      swap2\n      swap1\n      dup2\n      dup2\n      mstore\n      0x20\n      add\n      dup3\n      dup1\n      sload\n      tag_18\n      swap1\n      tag_17\n      jump\t// in\n    tag_18:\n      dup1\n      iszero\n      tag_19\n      jumpi\n      dup1\n      0x1f\n      lt\n      tag_20\n      jumpi\n      0x0100\n      dup1\n      dup4\n      sload\n      div\n      mul\n      dup4\n      mstore\n      swap2\n      0x20\n      add\n      swap2\n      jump(tag_19)\n    tag_20:\n      dup3\n      add\n      swap2\n      swap1\n      0x00\n      mstore\n      keccak256(0x00, 0x20)\n      swap1\n    tag_21:\n      dup2\n      sload\n      dup2\n      mstore\n      swap1\n      0x01\n      add\n      swap1\n      0x20\n      add\n      dup1\n      dup4\n      gt\n      tag_21\n      jumpi\n      dup3\n      swap1\n      sub\n      0x1f\n      and\n      dup3\n      add\n      swap2\n    tag_19:\n      pop\n      pop\n      pop\n      pop\n      pop\n      dup2\n      mstore\n      0x20\n      add\n      0x01\n      dup3\n      add\n      sload\n      dup2\n      mstore\n      0x20\n      add\n      0x02\n      dup3\n      add\n      sload\n      dup2\n      mstore\n      pop\n      pop\n      swap1\n      pop\n        /* \"questins/2.sol\":1473:1569  function get() public view returns(student memory){... */\n      swap1\n      jump\t// out\n        /* \"questins/2.sol\":1262:1467  function setter(string calldata _name,uint _rollno,uint _age) public {... */\n    tag_12:\n        /* \"questins/2.sol\":1368:1373  _name */\n      dup4\n      dup4\n        /* \"questins/2.sol\":1342:1350  students */\n      0x00\n        /* \"questins/2.sol\":1342:1362  students[msg.sender] */\n      dup1\n        /* \"questins/2.sol\":1351:1361  msg.sender */\n      caller\n        /* \"questins/2.sol\":1342:1362  students[msg.sender] */\n      0xffffffffffffffffffffffffffffffffffffffff\n      and\n      0xffffffffffffffffffffffffffffffffffffffff\n      and\n      dup2\n      mstore\n      0x20\n      add\n      swap1\n      dup2\n      mstore\n      0x20\n      add\n      0x00\n      keccak256\n        /* \"questins/2.sol\":1342:1367  students[msg.sender].name */\n      0x00\n      add\n        /* \"questins/2.sol\":1342:1373  students[msg.sender].name=_name */\n      swap2\n      dup3\n      tag_23\n      swap3\n      swap2\n      swap1\n      tag_24\n      jump\t// in\n    tag_23:\n      pop\n        /* \"questins/2.sol\":1409:1413  _age */\n      dup1\n        /* \"questins/2.sol\":1384:1392  students */\n      0x00\n        /* \"questins/2.sol\":1384:1404  students[msg.sender] */\n      dup1\n        /* \"questins/2.sol\":1393:1403  msg.sender */\n      caller\n        /* \"questins/2.sol\":1384:1404  students[msg.sender] */\n      0xffffffffffffffffffffffffffffffffffffffff\n      and\n      0xffffffffffffffffffffffffffffffffffffffff\n      and\n      dup2\n      mstore\n      0x20\n      add\n      swap1\n      dup2\n      mstore\n      0x20\n      add\n      0x00\n      keccak256\n        /* \"questins/2.sol\":1384:1408  students[msg.sender].age */\n      0x02\n      add\n        /* \"questins/2.sol\":1384:1413  students[msg.sender].age=_age */\n      dup2\n      swap1\n      sstore\n      pop\n        /* \"questins/2.sol\":1452:1459  _rollno */\n      dup2\n        /* \"questins/2.sol\":1424:1432  students */\n      0x00\n        /* \"questins/2.sol\":1424:1444  students[msg.sender] */\n      dup1\n        /* \"questins/2.sol\":1433:1443  msg.sender */\n      caller\n        /* \"questins/2.sol\":1424:1444  students[msg.sender] */\n      0xffffffffffffffffffffffffffffffffffffffff\n      and\n      0xffffffffffffffffffffffffffffffffffffffff\n      and\n      dup2\n      mstore\n      0x20\n      add\n      swap1\n      dup2\n      mstore\n      0x20\n      add\n      0x00\n      keccak256\n        /* \"questins/2.sol\":1424:1451  students[msg.sender].rollno */\n      0x01\n      add\n        /* \"questins/2.sol\":1424:1459  students[msg.sender].rollno=_rollno */\n      dup2\n      swap1\n      sstore\n      pop\n        /* \"questins/2.sol\":1262:1467  function setter(string calldata _name,uint _rollno,uint _age) public {... */\n      pop\n      pop\n      pop\n      pop\n      jump\t// out\n    tag_14:\n      mload(0x40)\n      dup1\n      0x60\n      add\n      0x40\n      mstore\n      dup1\n      0x60\n      dup2\n      mstore\n      0x20\n      add\n      0x00\n      dup2\n      mstore\n      0x20\n      add\n      0x00\n      dup2\n      mstore\n      pop\n      swap1\n      jump\t// out\n        /* \"#utility.yul\":7:106   */\n    tag_25:\n        /* \"#utility.yul\":59:65   */\n      0x00\n        /* \"#utility.yul\":93:98   */\n      dup2\n        /* \"#utility.yul\":87:99   */\n      mload\n        /* \"#utility.yul\":77:99   */\n      swap1\n      pop\n        /* \"#utility.yul\":7:106   */\n      swap2\n      swap1\n      pop\n      jump\t// out\n        /* \"#utility.yul\":112:271   */\n    tag_26:\n        /* \"#utility.yul\":186:197   */\n      0x00\n        /* \"#utility.yul\":220:226   */\n      dup3\n        /* \"#utility.yul\":215:218   */\n      dup3\n        /* \"#utility.yul\":208:227   */\n      mstore\n        /* \"#utility.yul\":260:264   */\n      0x20\n        /* \"#utility.yul\":255:258   */\n      dup3\n        /* \"#utility.yul\":251:265   */\n      add\n        /* \"#utility.yul\":236:265   */\n      swap1\n      pop\n        /* \"#utility.yul\":112:271   */\n      swap3\n      swap2\n      pop\n      pop\n      jump\t// out\n        /* \"#utility.yul\":277:523   */\n    tag_27:\n        /* \"#utility.yul\":358:359   */\n      0x00\n        /* \"#utility.yul\":368:481   */\n    tag_64:\n        /* \"#utility.yul\":382:388   */\n      dup4\n        /* \"#utility.yul\":379:380   */\n      dup2\n        /* \"#utility.yul\":376:389   */\n      lt\n        /* \"#utility.yul\":368:481   */\n      iszero\n      tag_66\n      jumpi\n        /* \"#utility.yul\":467:468   */\n      dup1\n        /* \"#utility.yul\":462:465   */\n      dup3\n        /* \"#utility.yul\":458:469   */\n      add\n        /* \"#utility.yul\":452:470   */\n      mload\n        /* \"#utility.yul\":448:449   */\n      dup2\n        /* \"#utility.yul\":443:446   */\n      dup5\n        /* \"#utility.yul\":439:450   */\n      add\n        /* \"#utility.yul\":432:471   */\n      mstore\n        /* \"#utility.yul\":404:406   */\n      0x20\n        /* \"#utility.yul\":401:402   */\n      dup2\n        /* \"#utility.yul\":397:407   */\n      add\n        /* \"#utility.yul\":392:407   */\n      swap1\n      pop\n        /* \"#utility.yul\":368:481   */\n      jump(tag_64)\n    tag_66:\n        /* \"#utility.yul\":515:516   */\n      0x00\n        /* \"#utility.yul\":506:512   */\n      dup5\n        /* \"#utility.yul\":501:504   */\n      dup5\n        /* \"#utility.yul\":497:513   */\n      add\n        /* \"#utility.yul\":490:517   */\n      mstore\n        /* \"#utility.yul\":339:523   */\n      pop\n        /* \"#utility.yul\":277:523   */\n      pop\n      pop\n      pop\n      jump\t// out\n        /* \"#utility.yul\":529:631   */\n    tag_28:\n        /* \"#utility.yul\":570:576   */\n      0x00\n        /* \"#utility.yul\":621:623   */\n      0x1f\n        /* \"#utility.yul\":617:624   */\n      not\n        /* \"#utility.yul\":612:614   */\n      0x1f\n        /* \"#utility.yul\":605:610   */\n      dup4\n        /* \"#utility.yul\":601:615   */\n      add\n        /* \"#utility.yul\":597:625   */\n      and\n        /* \"#utility.yul\":587:625   */\n      swap1\n      pop\n        /* \"#utility.yul\":529:631   */\n      swap2\n      swap1\n      pop\n      jump\t// out\n        /* \"#utility.yul\":637:994   */\n    tag_29:\n        /* \"#utility.yul\":715:718   */\n      0x00\n        /* \"#utility.yul\":743:782   */\n      tag_69\n        /* \"#utility.yul\":776:781   */\n      dup3\n        /* \"#utility.yul\":743:782   */\n      tag_25\n      jump\t// in\n    tag_69:\n        /* \"#utility.yul\":798:859   */\n      tag_70\n        /* \"#utility.yul\":852:858   */\n      dup2\n        /* \"#utility.yul\":847:850   */\n      dup6\n        /* \"#utility.yul\":798:859   */\n      tag_26\n      jump\t// in\n    tag_70:\n        /* \"#utility.yul\":791:859   */\n      swap4\n      pop\n        /* \"#utility.yul\":868:933   */\n      tag_71\n        /* \"#utility.yul\":926:932   */\n      dup2\n        /* \"#utility.yul\":921:924   */\n      dup6\n        /* \"#utility.yul\":914:918   */\n      0x20\n        /* \"#utility.yul\":907:912   */\n      dup7\n        /* \"#utility.yul\":903:919   */\n      add\n        /* \"#utility.yul\":868:933   */\n      tag_27\n      jump\t// in\n    tag_71:\n        /* \"#utility.yul\":958:987   */\n      tag_72\n        /* \"#utility.yul\":980:986   */\n      dup2\n        /* \"#utility.yul\":958:987   */\n      tag_28\n      jump\t// in\n    tag_72:\n        /* \"#utility.yul\":953:956   */\n      dup5\n        /* \"#utility.yul\":949:988   */\n      add\n        /* \"#utility.yul\":942:988   */\n      swap2\n      pop\n        /* \"#utility.yul\":719:994   */\n      pop\n        /* \"#utility.yul\":637:994   */\n      swap3\n      swap2\n      pop\n      pop\n      jump\t// out\n        /* \"#utility.yul\":1000:1077   */\n    tag_30:\n        /* \"#utility.yul\":1037:1044   */\n      0x00\n        /* \"#utility.yul\":1066:1071   */\n      dup2\n        /* \"#utility.yul\":1055:1071   */\n      swap1\n      pop\n        /* \"#utility.yul\":1000:1077   */\n      swap2\n      swap1\n      pop\n      jump\t// out\n        /* \"#utility.yul\":1083:1191   */\n    tag_31:\n        /* \"#utility.yul\":1160:1184   */\n      tag_75\n        /* \"#utility.yul\":1178:1183   */\n      dup2\n        /* \"#utility.yul\":1160:1184   */\n      tag_30\n      jump\t// in\n    tag_75:\n        /* \"#utility.yul\":1155:1158   */\n      dup3\n        /* \"#utility.yul\":1148:1185   */\n      mstore\n        /* \"#utility.yul\":1083:1191   */\n      pop\n      pop\n      jump\t// out\n        /* \"#utility.yul\":1267:2046   */\n    tag_32:\n        /* \"#utility.yul\":1384:1387   */\n      0x00\n        /* \"#utility.yul\":1420:1424   */\n      0x60\n        /* \"#utility.yul\":1415:1418   */\n      dup4\n        /* \"#utility.yul\":1411:1425   */\n      add\n        /* \"#utility.yul\":1507:1511   */\n      0x00\n        /* \"#utility.yul\":1500:1505   */\n      dup4\n        /* \"#utility.yul\":1496:1512   */\n      add\n        /* \"#utility.yul\":1490:1513   */\n      mload\n        /* \"#utility.yul\":1560:1563   */\n      dup5\n        /* \"#utility.yul\":1554:1558   */\n      dup3\n        /* \"#utility.yul\":1550:1564   */\n      sub\n        /* \"#utility.yul\":1543:1547   */\n      0x00\n        /* \"#utility.yul\":1538:1541   */\n      dup7\n        /* \"#utility.yul\":1534:1548   */\n      add\n        /* \"#utility.yul\":1527:1565   */\n      mstore\n        /* \"#utility.yul\":1586:1659   */\n      tag_77\n        /* \"#utility.yul\":1654:1658   */\n      dup3\n        /* \"#utility.yul\":1640:1652   */\n      dup3\n        /* \"#utility.yul\":1586:1659   */\n      tag_29\n      jump\t// in\n    tag_77:\n        /* \"#utility.yul\":1578:1659   */\n      swap2\n      pop\n        /* \"#utility.yul\":1435:1670   */\n      pop\n        /* \"#utility.yul\":1754:1758   */\n      0x20\n        /* \"#utility.yul\":1747:1752   */\n      dup4\n        /* \"#utility.yul\":1743:1759   */\n      add\n        /* \"#utility.yul\":1737:1760   */\n      mload\n        /* \"#utility.yul\":1773:1836   */\n      tag_78\n        /* \"#utility.yul\":1830:1834   */\n      0x20\n        /* \"#utility.yul\":1825:1828   */\n      dup7\n        /* \"#utility.yul\":1821:1835   */\n      add\n        /* \"#utility.yul\":1807:1819   */\n      dup3\n        /* \"#utility.yul\":1773:1836   */\n      tag_31\n      jump\t// in\n    tag_78:\n        /* \"#utility.yul\":1680:1846   */\n      pop\n        /* \"#utility.yul\":1927:1931   */\n      0x40\n        /* \"#utility.yul\":1920:1925   */\n      dup4\n        /* \"#utility.yul\":1916:1932   */\n      add\n        /* \"#utility.yul\":1910:1933   */\n      mload\n        /* \"#utility.yul\":1946:2009   */\n      tag_79\n        /* \"#utility.yul\":2003:2007   */\n      0x40\n        /* \"#utility.yul\":1998:2001   */\n      dup7\n        /* \"#utility.yul\":1994:2008   */\n      add\n        /* \"#utility.yul\":1980:1992   */\n      dup3\n        /* \"#utility.yul\":1946:2009   */\n      tag_31\n      jump\t// in\n    tag_79:\n        /* \"#utility.yul\":1856:2019   */\n      pop\n        /* \"#utility.yul\":2036:2040   */\n      dup1\n        /* \"#utility.yul\":2029:2040   */\n      swap2\n      pop\n        /* \"#utility.yul\":1389:2046   */\n      pop\n        /* \"#utility.yul\":1267:2046   */\n      swap3\n      swap2\n      pop\n      pop\n      jump\t// out\n        /* \"#utility.yul\":2052:2421   */\n    tag_8:\n        /* \"#utility.yul\":2193:2197   */\n      0x00\n        /* \"#utility.yul\":2231:2233   */\n      0x20\n        /* \"#utility.yul\":2220:2229   */\n      dup3\n        /* \"#utility.yul\":2216:2234   */\n      add\n        /* \"#utility.yul\":2208:2234   */\n      swap1\n      pop\n        /* \"#utility.yul\":2280:2289   */\n      dup2\n        /* \"#utility.yul\":2274:2278   */\n      dup2\n        /* \"#utility.yul\":2270:2290   */\n      sub\n        /* \"#utility.yul\":2266:2267   */\n      0x00\n        /* \"#utility.yul\":2255:2264   */\n      dup4\n        /* \"#utility.yul\":2251:2268   */\n      add\n        /* \"#utility.yul\":2244:2291   */\n      mstore\n        /* \"#utility.yul\":2308:2414   */\n      tag_81\n        /* \"#utility.yul\":2409:2413   */\n      dup2\n        /* \"#utility.yul\":2400:2406   */\n      dup5\n        /* \"#utility.yul\":2308:2414   */\n      tag_32\n      jump\t// in\n    tag_81:\n        /* \"#utility.yul\":2300:2414   */\n      swap1\n      pop\n        /* \"#utility.yul\":2052:2421   */\n      swap3\n      swap2\n      pop\n      pop\n      jump\t// out\n        /* \"#utility.yul\":2508:2625   */\n    tag_34:\n        /* \"#utility.yul\":2617:2618   */\n      0x00\n        /* \"#utility.yul\":2614:2615   */\n      dup1\n        /* \"#utility.yul\":2607:2619   */\n      revert\n        /* \"#utility.yul\":2631:2748   */\n    tag_35:\n        /* \"#utility.yul\":2740:2741   */\n      0x00\n        /* \"#utility.yul\":2737:2738   */\n      dup1\n        /* \"#utility.yul\":2730:2742   */\n      revert\n        /* \"#utility.yul\":2754:2871   */\n    tag_36:\n        /* \"#utility.yul\":2863:2864   */\n      0x00\n        /* \"#utility.yul\":2860:2861   */\n      dup1\n        /* \"#utility.yul\":2853:2865   */\n      revert\n        /* \"#utility.yul\":2877:2994   */\n    tag_37:\n        /* \"#utility.yul\":2986:2987   */\n      0x00\n        /* \"#utility.yul\":2983:2984   */\n      dup1\n        /* \"#utility.yul\":2976:2988   */\n      revert\n        /* \"#utility.yul\":3000:3117   */\n    tag_38:\n        /* \"#utility.yul\":3109:3110   */\n      0x00\n        /* \"#utility.yul\":3106:3107   */\n      dup1\n        /* \"#utility.yul\":3099:3111   */\n      revert\n        /* \"#utility.yul\":3137:3690   */\n    tag_39:\n        /* \"#utility.yul\":3195:3203   */\n      0x00\n        /* \"#utility.yul\":3205:3211   */\n      dup1\n        /* \"#utility.yul\":3255:3258   */\n      dup4\n        /* \"#utility.yul\":3248:3252   */\n      0x1f\n        /* \"#utility.yul\":3240:3246   */\n      dup5\n        /* \"#utility.yul\":3236:3253   */\n      add\n        /* \"#utility.yul\":3232:3259   */\n      slt\n        /* \"#utility.yul\":3222:3344   */\n      tag_89\n      jumpi\n        /* \"#utility.yul\":3263:3342   */\n      tag_90\n      tag_36\n      jump\t// in\n    tag_90:\n        /* \"#utility.yul\":3222:3344   */\n    tag_89:\n        /* \"#utility.yul\":3376:3382   */\n      dup3\n        /* \"#utility.yul\":3363:3383   */\n      calldataload\n        /* \"#utility.yul\":3353:3383   */\n      swap1\n      pop\n        /* \"#utility.yul\":3406:3424   */\n      0xffffffffffffffff\n        /* \"#utility.yul\":3398:3404   */\n      dup2\n        /* \"#utility.yul\":3395:3425   */\n      gt\n        /* \"#utility.yul\":3392:3509   */\n      iszero\n      tag_91\n      jumpi\n        /* \"#utility.yul\":3428:3507   */\n      tag_92\n      tag_37\n      jump\t// in\n    tag_92:\n        /* \"#utility.yul\":3392:3509   */\n    tag_91:\n        /* \"#utility.yul\":3542:3546   */\n      0x20\n        /* \"#utility.yul\":3534:3540   */\n      dup4\n        /* \"#utility.yul\":3530:3547   */\n      add\n        /* \"#utility.yul\":3518:3547   */\n      swap2\n      pop\n        /* \"#utility.yul\":3596:3599   */\n      dup4\n        /* \"#utility.yul\":3588:3592   */\n      0x01\n        /* \"#utility.yul\":3580:3586   */\n      dup3\n        /* \"#utility.yul\":3576:3593   */\n      mul\n        /* \"#utility.yul\":3566:3574   */\n      dup4\n        /* \"#utility.yul\":3562:3594   */\n      add\n        /* \"#utility.yul\":3559:3600   */\n      gt\n        /* \"#utility.yul\":3556:3684   */\n      iszero\n      tag_93\n      jumpi\n        /* \"#utility.yul\":3603:3682   */\n      tag_94\n      tag_38\n      jump\t// in\n    tag_94:\n        /* \"#utility.yul\":3556:3684   */\n    tag_93:\n        /* \"#utility.yul\":3137:3690   */\n      swap3\n      pop\n      swap3\n      swap1\n      pop\n      jump\t// out\n        /* \"#utility.yul\":3696:3818   */\n    tag_40:\n        /* \"#utility.yul\":3769:3793   */\n      tag_96\n        /* \"#utility.yul\":3787:3792   */\n      dup2\n        /* \"#utility.yul\":3769:3793   */\n      tag_30\n      jump\t// in\n    tag_96:\n        /* \"#utility.yul\":3762:3767   */\n      dup2\n        /* \"#utility.yul\":3759:3794   */\n      eq\n        /* \"#utility.yul\":3749:3812   */\n      tag_97\n      jumpi\n        /* \"#utility.yul\":3808:3809   */\n      0x00\n        /* \"#utility.yul\":3805:3806   */\n      dup1\n        /* \"#utility.yul\":3798:3810   */\n      revert\n        /* \"#utility.yul\":3749:3812   */\n    tag_97:\n        /* \"#utility.yul\":3696:3818   */\n      pop\n      jump\t// out\n        /* \"#utility.yul\":3824:3963   */\n    tag_41:\n        /* \"#utility.yul\":3870:3875   */\n      0x00\n        /* \"#utility.yul\":3908:3914   */\n      dup2\n        /* \"#utility.yul\":3895:3915   */\n      calldataload\n        /* \"#utility.yul\":3886:3915   */\n      swap1\n      pop\n        /* \"#utility.yul\":3924:3957   */\n      tag_99\n        /* \"#utility.yul\":3951:3956   */\n      dup2\n        /* \"#utility.yul\":3924:3957   */\n      tag_40\n      jump\t// in\n    tag_99:\n        /* \"#utility.yul\":3824:3963   */\n      swap3\n      swap2\n      pop\n      pop\n      jump\t// out\n        /* \"#utility.yul\":3969:4788   */\n    tag_11:\n        /* \"#utility.yul\":4058:4064   */\n      0x00\n        /* \"#utility.yul\":4066:4072   */\n      dup1\n        /* \"#utility.yul\":4074:4080   */\n      0x00\n        /* \"#utility.yul\":4082:4088   */\n      dup1\n        /* \"#utility.yul\":4131:4133   */\n      0x60\n        /* \"#utility.yul\":4119:4128   */\n      dup6\n        /* \"#utility.yul\":4110:4117   */\n      dup8\n        /* \"#utility.yul\":4106:4129   */\n      sub\n        /* \"#utility.yul\":4102:4134   */\n      slt\n        /* \"#utility.yul\":4099:4218   */\n      iszero\n      tag_101\n      jumpi\n        /* \"#utility.yul\":4137:4216   */\n      tag_102\n      tag_34\n      jump\t// in\n    tag_102:\n        /* \"#utility.yul\":4099:4218   */\n    tag_101:\n        /* \"#utility.yul\":4285:4286   */\n      0x00\n        /* \"#utility.yul\":4274:4283   */\n      dup6\n        /* \"#utility.yul\":4270:4287   */\n      add\n        /* \"#utility.yul\":4257:4288   */\n      calldataload\n        /* \"#utility.yul\":4315:4333   */\n      0xffffffffffffffff\n        /* \"#utility.yul\":4307:4313   */\n      dup2\n        /* \"#utility.yul\":4304:4334   */\n      gt\n        /* \"#utility.yul\":4301:4418   */\n      iszero\n      tag_103\n      jumpi\n        /* \"#utility.yul\":4337:4416   */\n      tag_104\n      tag_35\n      jump\t// in\n    tag_104:\n        /* \"#utility.yul\":4301:4418   */\n    tag_103:\n        /* \"#utility.yul\":4450:4515   */\n      tag_105\n        /* \"#utility.yul\":4507:4514   */\n      dup8\n        /* \"#utility.yul\":4498:4504   */\n      dup3\n        /* \"#utility.yul\":4487:4496   */\n      dup9\n        /* \"#utility.yul\":4483:4505   */\n      add\n        /* \"#utility.yul\":4450:4515   */\n      tag_39\n      jump\t// in\n    tag_105:\n        /* \"#utility.yul\":4432:4515   */\n      swap5\n      pop\n      swap5\n      pop\n        /* \"#utility.yul\":4228:4525   */\n      pop\n        /* \"#utility.yul\":4564:4566   */\n      0x20\n        /* \"#utility.yul\":4590:4643   */\n      tag_106\n        /* \"#utility.yul\":4635:4642   */\n      dup8\n        /* \"#utility.yul\":4626:4632   */\n      dup3\n        /* \"#utility.yul\":4615:4624   */\n      dup9\n        /* \"#utility.yul\":4611:4633   */\n      add\n        /* \"#utility.yul\":4590:4643   */\n      tag_41\n      jump\t// in\n    tag_106:\n        /* \"#utility.yul\":4580:4643   */\n      swap3\n      pop\n        /* \"#utility.yul\":4535:4653   */\n      pop\n        /* \"#utility.yul\":4692:4694   */\n      0x40\n        /* \"#utility.yul\":4718:4771   */\n      tag_107\n        /* \"#utility.yul\":4763:4770   */\n      dup8\n        /* \"#utility.yul\":4754:4760   */\n      dup3\n        /* \"#utility.yul\":4743:4752   */\n      dup9\n        /* \"#utility.yul\":4739:4761   */\n      add\n        /* \"#utility.yul\":4718:4771   */\n      tag_41\n      jump\t// in\n    tag_107:\n        /* \"#utility.yul\":4708:4771   */\n      swap2\n      pop\n        /* \"#utility.yul\":4663:4781   */\n      pop\n        /* \"#utility.yul\":3969:4788   */\n      swap3\n      swap6\n      swap2\n      swap5\n      pop\n      swap3\n      pop\n      jump\t// out\n        /* \"#utility.yul\":4794:4974   */\n    tag_42:\n        /* \"#utility.yul\":4842:4919   */\n      0x4e487b7100000000000000000000000000000000000000000000000000000000\n        /* \"#utility.yul\":4839:4840   */\n      0x00\n        /* \"#utility.yul\":4832:4920   */\n      mstore\n        /* \"#utility.yul\":4939:4943   */\n      0x22\n        /* \"#utility.yul\":4936:4937   */\n      0x04\n        /* \"#utility.yul\":4929:4944   */\n      mstore\n        /* \"#utility.yul\":4963:4967   */\n      0x24\n        /* \"#utility.yul\":4960:4961   */\n      0x00\n        /* \"#utility.yul\":4953:4968   */\n      revert\n        /* \"#utility.yul\":4980:5300   */\n    tag_17:\n        /* \"#utility.yul\":5024:5030   */\n      0x00\n        /* \"#utility.yul\":5061:5062   */\n      0x02\n        /* \"#utility.yul\":5055:5059   */\n      dup3\n        /* \"#utility.yul\":5051:5063   */\n      div\n        /* \"#utility.yul\":5041:5063   */\n      swap1\n      pop\n        /* \"#utility.yul\":5108:5109   */\n      0x01\n        /* \"#utility.yul\":5102:5106   */\n      dup3\n        /* \"#utility.yul\":5098:5110   */\n      and\n        /* \"#utility.yul\":5129:5147   */\n      dup1\n        /* \"#utility.yul\":5119:5200   */\n      tag_110\n      jumpi\n        /* \"#utility.yul\":5185:5189   */\n      0x7f\n        /* \"#utility.yul\":5177:5183   */\n      dup3\n        /* \"#utility.yul\":5173:5190   */\n      and\n        /* \"#utility.yul\":5163:5190   */\n      swap2\n      pop\n        /* \"#utility.yul\":5119:5200   */\n    tag_110:\n        /* \"#utility.yul\":5247:5249   */\n      0x20\n        /* \"#utility.yul\":5239:5245   */\n      dup3\n        /* \"#utility.yul\":5236:5250   */\n      lt\n        /* \"#utility.yul\":5216:5234   */\n      dup2\n        /* \"#utility.yul\":5213:5251   */\n      sub\n        /* \"#utility.yul\":5210:5294   */\n      tag_111\n      jumpi\n        /* \"#utility.yul\":5266:5284   */\n      tag_112\n      tag_42\n      jump\t// in\n    tag_112:\n        /* \"#utility.yul\":5210:5294   */\n    tag_111:\n        /* \"#utility.yul\":5031:5300   */\n      pop\n        /* \"#utility.yul\":4980:5300   */\n      swap2\n      swap1\n      pop\n      jump\t// out\n        /* \"#utility.yul\":5306:5403   */\n    tag_43:\n        /* \"#utility.yul\":5365:5371   */\n      0x00\n        /* \"#utility.yul\":5393:5396   */\n      dup3\n        /* \"#utility.yul\":5383:5396   */\n      swap1\n      pop\n        /* \"#utility.yul\":5306:5403   */\n      swap3\n      swap2\n      pop\n      pop\n      jump\t// out\n        /* \"#utility.yul\":5409:5589   */\n    tag_44:\n        /* \"#utility.yul\":5457:5534   */\n      0x4e487b7100000000000000000000000000000000000000000000000000000000\n        /* \"#utility.yul\":5454:5455   */\n      0x00\n        /* \"#utility.yul\":5447:5535   */\n      mstore\n        /* \"#utility.yul\":5554:5558   */\n      0x41\n        /* \"#utility.yul\":5551:5552   */\n      0x04\n        /* \"#utility.yul\":5544:5559   */\n      mstore\n        /* \"#utility.yul\":5578:5582   */\n      0x24\n        /* \"#utility.yul\":5575:5576   */\n      0x00\n        /* \"#utility.yul\":5568:5583   */\n      revert\n        /* \"#utility.yul\":5595:5736   */\n    tag_45:\n        /* \"#utility.yul\":5644:5648   */\n      0x00\n        /* \"#utility.yul\":5667:5670   */\n      dup2\n        /* \"#utility.yul\":5659:5670   */\n      swap1\n      pop\n        /* \"#utility.yul\":5690:5693   */\n      dup2\n        /* \"#utility.yul\":5687:5688   */\n      0x00\n        /* \"#utility.yul\":5680:5694   */\n      mstore\n        /* \"#utility.yul\":5724:5728   */\n      0x20\n        /* \"#utility.yul\":5721:5722   */\n      0x00\n        /* \"#utility.yul\":5711:5729   */\n      keccak256\n        /* \"#utility.yul\":5703:5729   */\n      swap1\n      pop\n        /* \"#utility.yul\":5595:5736   */\n      swap2\n      swap1\n      pop\n      jump\t// out\n        /* \"#utility.yul\":5742:5835   */\n    tag_46:\n        /* \"#utility.yul\":5779:5785   */\n      0x00\n        /* \"#utility.yul\":5826:5828   */\n      0x20\n        /* \"#utility.yul\":5821:5823   */\n      0x1f\n        /* \"#utility.yul\":5814:5819   */\n      dup4\n        /* \"#utility.yul\":5810:5824   */\n      add\n        /* \"#utility.yul\":5806:5829   */\n      div\n        /* \"#utility.yul\":5796:5829   */\n      swap1\n      pop\n        /* \"#utility.yul\":5742:5835   */\n      swap2\n      swap1\n      pop\n      jump\t// out\n        /* \"#utility.yul\":5841:5948   */\n    tag_47:\n        /* \"#utility.yul\":5885:5893   */\n      0x00\n        /* \"#utility.yul\":5935:5940   */\n      dup3\n        /* \"#utility.yul\":5929:5933   */\n      dup3\n        /* \"#utility.yul\":5925:5941   */\n      shl\n        /* \"#utility.yul\":5904:5941   */\n      swap1\n      pop\n        /* \"#utility.yul\":5841:5948   */\n      swap3\n      swap2\n      pop\n      pop\n      jump\t// out\n        /* \"#utility.yul\":5954:6347   */\n    tag_48:\n        /* \"#utility.yul\":6023:6029   */\n      0x00\n        /* \"#utility.yul\":6073:6074   */\n      0x08\n        /* \"#utility.yul\":6061:6071   */\n      dup4\n        /* \"#utility.yul\":6057:6075   */\n      mul\n        /* \"#utility.yul\":6096:6193   */\n      tag_119\n        /* \"#utility.yul\":6126:6192   */\n      0xffffffffffffffffffffffffffffffffffffffffffffffffffffffffffffffff\n        /* \"#utility.yul\":6115:6124   */\n      dup3\n        /* \"#utility.yul\":6096:6193   */\n      tag_47\n      jump\t// in\n    tag_119:\n        /* \"#utility.yul\":6214:6253   */\n      tag_120\n        /* \"#utility.yul\":6244:6252   */\n      dup7\n        /* \"#utility.yul\":6233:6242   */\n      dup4\n        /* \"#utility.yul\":6214:6253   */\n      tag_47\n      jump\t// in\n    tag_120:\n        /* \"#utility.yul\":6202:6253   */\n      swap6\n      pop\n        /* \"#utility.yul\":6286:6290   */\n      dup1\n        /* \"#utility.yul\":6282:6291   */\n      not\n        /* \"#utility.yul\":6275:6280   */\n      dup5\n        /* \"#utility.yul\":6271:6292   */\n      and\n        /* \"#utility.yul\":6262:6292   */\n      swap4\n      pop\n        /* \"#utility.yul\":6335:6339   */\n      dup1\n        /* \"#utility.yul\":6325:6333   */\n      dup7\n        /* \"#utility.yul\":6321:6340   */\n      and\n        /* \"#utility.yul\":6314:6319   */\n      dup5\n        /* \"#utility.yul\":6311:6341   */\n      or\n        /* \"#utility.yul\":6301:6341   */\n      swap3\n      pop\n        /* \"#utility.yul\":6030:6347   */\n      pop\n      pop\n        /* \"#utility.yul\":5954:6347   */\n      swap4\n      swap3\n      pop\n      pop\n      pop\n      jump\t// out\n        /* \"#utility.yul\":6353:6413   */\n    tag_49:\n        /* \"#utility.yul\":6381:6384   */\n      0x00\n        /* \"#utility.yul\":6402:6407   */\n      dup2\n        /* \"#utility.yul\":6395:6407   */\n      swap1\n      pop\n        /* \"#utility.yul\":6353:6413   */\n      swap2\n      swap1\n      pop\n      jump\t// out\n        /* \"#utility.yul\":6419:6561   */\n    tag_50:\n        /* \"#utility.yul\":6469:6478   */\n      0x00\n        /* \"#utility.yul\":6502:6555   */\n      tag_123\n        /* \"#utility.yul\":6520:6554   */\n      tag_124\n        /* \"#utility.yul\":6529:6553   */\n      tag_125\n        /* \"#utility.yul\":6547:6552   */\n      dup5\n        /* \"#utility.yul\":6529:6553   */\n      tag_30\n      jump\t// in\n    tag_125:\n        /* \"#utility.yul\":6520:6554   */\n      tag_49\n      jump\t// in\n    tag_124:\n        /* \"#utility.yul\":6502:6555   */\n      tag_30\n      jump\t// in\n    tag_123:\n        /* \"#utility.yul\":6489:6555   */\n      swap1\n      pop\n        /* \"#utility.yul\":6419:6561   */\n      swap2\n      swap1\n      pop\n      jump\t// out\n        /* \"#utility.yul\":6567:6642   */\n    tag_51:\n        /* \"#utility.yul\":6610:6613   */\n      0x00\n        /* \"#utility.yul\":6631:6636   */\n      dup2\n        /* \"#utility.yul\":6624:6636   */\n      swap1\n      pop\n        /* \"#utility.yul\":6567:6642   */\n      swap2\n      swap1\n      pop\n      jump\t// out\n        /* \"#utility.yul\":6648:6917   */\n    tag_52:\n        /* \"#utility.yul\":6758:6797   */\n      tag_128\n        /* \"#utility.yul\":6789:6796   */\n      dup4\n        /* \"#utility.yul\":6758:6797   */\n      tag_50\n      jump\t// in\n    tag_128:\n        /* \"#utility.yul\":6819:6910   */\n      tag_129\n        /* \"#utility.yul\":6868:6909   */\n      tag_130\n        /* \"#utility.yul\":6892:6908   */\n      dup3\n        /* \"#utility.yul\":6868:6909   */\n      tag_51\n      jump\t// in\n    tag_130:\n        /* \"#utility.yul\":6860:6866   */\n      dup5\n        /* \"#utility.yul\":6853:6857   */\n      dup5\n        /* \"#utility.yul\":6847:6858   */\n      sload\n        /* \"#utility.yul\":6819:6910   */\n      tag_48\n      jump\t// in\n    tag_129:\n        /* \"#utility.yul\":6813:6817   */\n      dup3\n        /* \"#utility.yul\":6806:6911   */\n      sstore\n        /* \"#utility.yul\":6724:6917   */\n      pop\n        /* \"#utility.yul\":6648:6917   */\n      pop\n      pop\n      pop\n      jump\t// out\n        /* \"#utility.yul\":6923:6996   */\n    tag_53:\n        /* \"#utility.yul\":6968:6971   */\n      0x00\n        /* \"#utility.yul\":6923:6996   */\n      swap1\n      jump\t// out\n        /* \"#utility.yul\":7002:7191   */\n    tag_54:\n        /* \"#utility.yul\":7079:7111   */\n      tag_133\n      tag_53\n      jump\t// in\n    tag_133:\n        /* \"#utility.yul\":7120:7185   */\n      tag_134\n        /* \"#utility.yul\":7178:7184   */\n      dup2\n        /* \"#utility.yul\":7170:7176   */\n      dup5\n        /* \"#utility.yul\":7164:7168   */\n      dup5\n        /* \"#utility.yul\":7120:7185   */\n      tag_52\n      jump\t// in\n    tag_134:\n        /* \"#utility.yul\":7055:7191   */\n      pop\n        /* \"#utility.yul\":7002:7191   */\n      pop\n      pop\n      jump\t// out\n        /* \"#utility.yul\":7197:7383   */\n    tag_55:\n        /* \"#utility.yul\":7257:7377   */\n    tag_136:\n        /* \"#utility.yul\":7274:7277   */\n      dup2\n        /* \"#utility.yul\":7267:7272   */\n      dup2\n        /* \"#utility.yul\":7264:7278   */\n      lt\n        /* \"#utility.yul\":7257:7377   */\n      iszero\n      tag_138\n      jumpi\n        /* \"#utility.yul\":7328:7367   */\n      tag_139\n        /* \"#utility.yul\":7365:7366   */\n      0x00\n        /* \"#utility.yul\":7358:7363   */\n      dup3\n        /* \"#utility.yul\":7328:7367   */\n      tag_54\n      jump\t// in\n    tag_139:\n        /* \"#utility.yul\":7301:7302   */\n      0x01\n        /* \"#utility.yul\":7294:7299   */\n      dup2\n        /* \"#utility.yul\":7290:7303   */\n      add\n        /* \"#utility.yul\":7281:7303   */\n      swap1\n      pop\n        /* \"#utility.yul\":7257:7377   */\n      jump(tag_136)\n    tag_138:\n        /* \"#utility.yul\":7197:7383   */\n      pop\n      pop\n      jump\t// out\n        /* \"#utility.yul\":7389:7932   */\n    tag_56:\n        /* \"#utility.yul\":7490:7492   */\n      0x1f\n        /* \"#utility.yul\":7485:7488   */\n      dup3\n        /* \"#utility.yul\":7482:7493   */\n      gt\n        /* \"#utility.yul\":7479:7925   */\n      iszero\n      tag_141\n      jumpi\n        /* \"#utility.yul\":7524:7562   */\n      tag_142\n        /* \"#utility.yul\":7556:7561   */\n      dup2\n        /* \"#utility.yul\":7524:7562   */\n      tag_45\n      jump\t// in\n    tag_142:\n        /* \"#utility.yul\":7608:7637   */\n      tag_143\n        /* \"#utility.yul\":7626:7636   */\n      dup5\n        /* \"#utility.yul\":7608:7637   */\n      tag_46\n      jump\t// in\n    tag_143:\n        /* \"#utility.yul\":7598:7606   */\n      dup2\n        /* \"#utility.yul\":7594:7638   */\n      add\n        /* \"#utility.yul\":7791:7793   */\n      0x20\n        /* \"#utility.yul\":7779:7789   */\n      dup6\n        /* \"#utility.yul\":7776:7794   */\n      lt\n        /* \"#utility.yul\":7773:7822   */\n      iszero\n      tag_144\n      jumpi\n        /* \"#utility.yul\":7812:7820   */\n      dup2\n        /* \"#utility.yul\":7797:7820   */\n      swap1\n      pop\n        /* \"#utility.yul\":7773:7822   */\n    tag_144:\n        /* \"#utility.yul\":7835:7915   */\n      tag_145\n        /* \"#utility.yul\":7891:7913   */\n      tag_146\n        /* \"#utility.yul\":7909:7912   */\n      dup6\n        /* \"#utility.yul\":7891:7913   */\n      tag_46\n      jump\t// in\n    tag_146:\n        /* \"#utility.yul\":7881:7889   */\n      dup4\n        /* \"#utility.yul\":7877:7914   */\n      add\n        /* \"#utility.yul\":7864:7875   */\n      dup3\n        /* \"#utility.yul\":7835:7915   */\n      tag_55\n      jump\t// in\n    tag_145:\n        /* \"#utility.yul\":7494:7925   */\n      pop\n      pop\n        /* \"#utility.yul\":7479:7925   */\n    tag_141:\n        /* \"#utility.yul\":7389:7932   */\n      pop\n      pop\n      pop\n      jump\t// out\n        /* \"#utility.yul\":7938:8055   */\n    tag_57:\n        /* \"#utility.yul\":7992:8000   */\n      0x00\n        /* \"#utility.yul\":8042:8047   */\n      dup3\n        /* \"#utility.yul\":8036:8040   */\n      dup3\n        /* \"#utility.yul\":8032:8048   */\n      shr\n        /* \"#utility.yul\":8011:8048   */\n      swap1\n      pop\n        /* \"#utility.yul\":7938:8055   */\n      swap3\n      swap2\n      pop\n      pop\n      jump\t// out\n        /* \"#utility.yul\":8061:8230   */\n    tag_58:\n        /* \"#utility.yul\":8105:8111   */\n      0x00\n        /* \"#utility.yul\":8138:8189   */\n      tag_149\n        /* \"#utility.yul\":8186:8187   */\n      0x00\n        /* \"#utility.yul\":8182:8188   */\n      not\n        /* \"#utility.yul\":8174:8179   */\n      dup5\n        /* \"#utility.yul\":8171:8172   */\n      0x08\n        /* \"#utility.yul\":8167:8180   */\n      mul\n        /* \"#utility.yul\":8138:8189   */\n      tag_57\n      jump\t// in\n    tag_149:\n        /* \"#utility.yul\":8134:8190   */\n      not\n        /* \"#utility.yul\":8219:8223   */\n      dup1\n        /* \"#utility.yul\":8213:8217   */\n      dup4\n        /* \"#utility.yul\":8209:8224   */\n      and\n        /* \"#utility.yul\":8199:8224   */\n      swap2\n      pop\n        /* \"#utility.yul\":8112:8230   */\n      pop\n        /* \"#utility.yul\":8061:8230   */\n      swap3\n      swap2\n      pop\n      pop\n      jump\t// out\n        /* \"#utility.yul\":8235:8530   */\n    tag_59:\n        /* \"#utility.yul\":8311:8315   */\n      0x00\n        /* \"#utility.yul\":8457:8486   */\n      tag_151\n        /* \"#utility.yul\":8482:8485   */\n      dup4\n        /* \"#utility.yul\":8476:8480   */\n      dup4\n        /* \"#utility.yul\":8457:8486   */\n      tag_58\n      jump\t// in\n    tag_151:\n        /* \"#utility.yul\":8449:8486   */\n      swap2\n      pop\n        /* \"#utility.yul\":8519:8522   */\n      dup3\n        /* \"#utility.yul\":8516:8517   */\n      0x02\n        /* \"#utility.yul\":8512:8523   */\n      mul\n        /* \"#utility.yul\":8506:8510   */\n      dup3\n        /* \"#utility.yul\":8503:8524   */\n      or\n        /* \"#utility.yul\":8495:8524   */\n      swap1\n      pop\n        /* \"#utility.yul\":8235:8530   */\n      swap3\n      swap2\n      pop\n      pop\n      jump\t// out\n        /* \"#utility.yul\":8535:9938   */\n    tag_24:\n        /* \"#utility.yul\":8659:8703   */\n      tag_153\n        /* \"#utility.yul\":8699:8702   */\n      dup4\n        /* \"#utility.yul\":8694:8697   */\n      dup4\n        /* \"#utility.yul\":8659:8703   */\n      tag_43\n      jump\t// in\n    tag_153:\n        /* \"#utility.yul\":8768:8786   */\n      0xffffffffffffffff\n        /* \"#utility.yul\":8760:8766   */\n      dup2\n        /* \"#utility.yul\":8757:8787   */\n      gt\n        /* \"#utility.yul\":8754:8810   */\n      iszero\n      tag_154\n      jumpi\n        /* \"#utility.yul\":8790:8808   */\n      tag_155\n      tag_44\n      jump\t// in\n    tag_155:\n        /* \"#utility.yul\":8754:8810   */\n    tag_154:\n        /* \"#utility.yul\":8834:8872   */\n      tag_156\n        /* \"#utility.yul\":8866:8870   */\n      dup3\n        /* \"#utility.yul\":8860:8871   */\n      sload\n        /* \"#utility.yul\":8834:8872   */\n      tag_17\n      jump\t// in\n    tag_156:\n        /* \"#utility.yul\":8919:8986   */\n      tag_157\n        /* \"#utility.yul\":8979:8985   */\n      dup3\n        /* \"#utility.yul\":8971:8977   */\n      dup3\n        /* \"#utility.yul\":8965:8969   */\n      dup6\n        /* \"#utility.yul\":8919:8986   */\n      tag_56\n      jump\t// in\n    tag_157:\n        /* \"#utility.yul\":9013:9014   */\n      0x00\n        /* \"#utility.yul\":9042:9044   */\n      0x1f\n        /* \"#utility.yul\":9034:9040   */\n      dup4\n        /* \"#utility.yul\":9031:9045   */\n      gt\n        /* \"#utility.yul\":9059:9060   */\n      0x01\n        /* \"#utility.yul\":9054:9686   */\n      dup2\n      eq\n      tag_159\n      jumpi\n        /* \"#utility.yul\":9730:9731   */\n      0x00\n        /* \"#utility.yul\":9747:9753   */\n      dup5\n        /* \"#utility.yul\":9744:9828   */\n      iszero\n      tag_160\n      jumpi\n        /* \"#utility.yul\":9803:9812   */\n      dup3\n        /* \"#utility.yul\":9798:9801   */\n      dup8\n        /* \"#utility.yul\":9794:9813   */\n      add\n        /* \"#utility.yul\":9781:9814   */\n      calldataload\n        /* \"#utility.yul\":9772:9814   */\n      swap1\n      pop\n        /* \"#utility.yul\":9744:9828   */\n    tag_160:\n        /* \"#utility.yul\":9854:9921   */\n      tag_161\n        /* \"#utility.yul\":9914:9920   */\n      dup6\n        /* \"#utility.yul\":9907:9912   */\n      dup3\n        /* \"#utility.yul\":9854:9921   */\n      tag_59\n      jump\t// in\n    tag_161:\n        /* \"#utility.yul\":9848:9852   */\n      dup7\n        /* \"#utility.yul\":9841:9922   */\n      sstore\n        /* \"#utility.yul\":9703:9932   */\n      pop\n        /* \"#utility.yul\":9024:9932   */\n      jump(tag_158)\n        /* \"#utility.yul\":9054:9686   */\n    tag_159:\n        /* \"#utility.yul\":9106:9110   */\n      0x1f\n        /* \"#utility.yul\":9102:9111   */\n      not\n        /* \"#utility.yul\":9094:9100   */\n      dup5\n        /* \"#utility.yul\":9090:9112   */\n      and\n        /* \"#utility.yul\":9140:9177   */\n      tag_162\n        /* \"#utility.yul\":9172:9176   */\n      dup7\n        /* \"#utility.yul\":9140:9177   */\n      tag_45\n      jump\t// in\n    tag_162:\n        /* \"#utility.yul\":9199:9200   */\n      0x00\n        /* \"#utility.yul\":9213:9428   */\n    tag_163:\n        /* \"#utility.yul\":9227:9234   */\n      dup3\n        /* \"#utility.yul\":9224:9225   */\n      dup2\n        /* \"#utility.yul\":9221:9235   */\n      lt\n        /* \"#utility.yul\":9213:9428   */\n      iszero\n      tag_165\n      jumpi\n        /* \"#utility.yul\":9313:9322   */\n      dup5\n        /* \"#utility.yul\":9308:9311   */\n      dup10\n        /* \"#utility.yul\":9304:9323   */\n      add\n        /* \"#utility.yul\":9291:9324   */\n      calldataload\n        /* \"#utility.yul\":9283:9289   */\n      dup3\n        /* \"#utility.yul\":9276:9325   */\n      sstore\n        /* \"#utility.yul\":9364:9365   */\n      0x01\n        /* \"#utility.yul\":9356:9362   */\n      dup3\n        /* \"#utility.yul\":9352:9366   */\n      add\n        /* \"#utility.yul\":9342:9366   */\n      swap2\n      pop\n        /* \"#utility.yul\":9411:9413   */\n      0x20\n        /* \"#utility.yul\":9400:9409   */\n      dup6\n        /* \"#utility.yul\":9396:9414   */\n      add\n        /* \"#utility.yul\":9383:9414   */\n      swap5\n      pop\n        /* \"#utility.yul\":9250:9254   */\n      0x20\n        /* \"#utility.yul\":9247:9248   */\n      dup2\n        /* \"#utility.yul\":9243:9255   */\n      add\n        /* \"#utility.yul\":9238:9255   */\n      swap1\n      pop\n        /* \"#utility.yul\":9213:9428   */\n      jump(tag_163)\n    tag_165:\n        /* \"#utility.yul\":9456:9462   */\n      dup7\n        /* \"#utility.yul\":9447:9454   */\n      dup4\n        /* \"#utility.yul\":9444:9463   */\n      lt\n        /* \"#utility.yul\":9441:9627   */\n      iszero\n      tag_166\n      jumpi\n        /* \"#utility.yul\":9521:9530   */\n      dup5\n        /* \"#utility.yul\":9516:9519   */\n      dup10\n        /* \"#utility.yul\":9512:9531   */\n      add\n        /* \"#utility.yul\":9499:9532   */\n      calldataload\n        /* \"#utility.yul\":9564:9612   */\n      tag_167\n        /* \"#utility.yul\":9606:9610   */\n      0x1f\n        /* \"#utility.yul\":9598:9604   */\n      dup10\n        /* \"#utility.yul\":9594:9611   */\n      and\n        /* \"#utility.yul\":9583:9592   */\n      dup3\n        /* \"#utility.yul\":9564:9612   */\n      tag_58\n      jump\t// in\n    tag_167:\n        /* \"#utility.yul\":9556:9562   */\n      dup4\n        /* \"#utility.yul\":9549:9613   */\n      sstore\n        /* \"#utility.yul\":9464:9627   */\n      pop\n        /* \"#utility.yul\":9441:9627   */\n    tag_166:\n        /* \"#utility.yul\":9673:9674   */\n      0x01\n        /* \"#utility.yul\":9669:9670   */\n      0x02\n        /* \"#utility.yul\":9661:9667   */\n      dup9\n        /* \"#utility.yul\":9657:9671   */\n      mul\n        /* \"#utility.yul\":9653:9675   */\n      add\n        /* \"#utility.yul\":9647:9651   */\n      dup9\n        /* \"#utility.yul\":9640:9676   */\n      sstore\n        /* \"#utility.yul\":9061:9686   */\n      pop\n      pop\n      pop\n        /* \"#utility.yul\":9024:9932   */\n    tag_158:\n      pop\n        /* \"#utility.yul\":8634:9938   */\n      pop\n      pop\n      pop\n        /* \"#utility.yul\":8535:9938   */\n      pop\n      pop\n      pop\n      jump\t// out\n\n    auxdata: 0xa264697066735822122031a27bc25118593202a16d4bfe4dd8edbcb904751e312acf48947517a6448f7d64736f6c63430008120033\n}\n",
				"bytecode": {
					"linkReferences": {},
					"object": "608060405234801561001057600080fd5b506107eb806100206000396000f3fe608060405234801561001057600080fd5b50600436106100365760003560e01c80636d4ce63c1461003b5780639db51e2614610059575b600080fd5b610043610075565b604051610050919061036e565b60405180910390f35b610073600480360381019061006e919061042b565b610171565b005b61007d610254565b6000803373ffffffffffffffffffffffffffffffffffffffff1673ffffffffffffffffffffffffffffffffffffffff1681526020019081526020016000206040518060600160405290816000820180546100d6906104ce565b80601f0160208091040260200160405190810160405280929190818152602001828054610102906104ce565b801561014f5780601f106101245761010080835404028352916020019161014f565b820191906000526020600020905b81548152906001019060200180831161013257829003601f168201915b5050505050815260200160018201548152602001600282015481525050905090565b83836000803373ffffffffffffffffffffffffffffffffffffffff1673ffffffffffffffffffffffffffffffffffffffff16815260200190815260200160002060000191826101c19291906106e5565b50806000803373ffffffffffffffffffffffffffffffffffffffff1673ffffffffffffffffffffffffffffffffffffffff16815260200190815260200160002060020181905550816000803373ffffffffffffffffffffffffffffffffffffffff1673ffffffffffffffffffffffffffffffffffffffff1681526020019081526020016000206001018190555050505050565b60405180606001604052806060815260200160008152602001600081525090565b600081519050919050565b600082825260208201905092915050565b60005b838110156102af578082015181840152602081019050610294565b60008484015250505050565b6000601f19601f8301169050919050565b60006102d782610275565b6102e18185610280565b93506102f1818560208601610291565b6102fa816102bb565b840191505092915050565b6000819050919050565b61031881610305565b82525050565b6000606083016000830151848203600086015261033b82826102cc565b9150506020830151610350602086018261030f565b506040830151610363604086018261030f565b508091505092915050565b60006020820190508181036000830152610388818461031e565b905092915050565b600080fd5b600080fd5b600080fd5b600080fd5b600080fd5b60008083601f8401126103bf576103be61039a565b5b8235905067ffffffffffffffff8111156103dc576103db61039f565b5b6020830191508360018202830111156103f8576103f76103a4565b5b9250929050565b61040881610305565b811461041357600080fd5b50565b600081359050610425816103ff565b92915050565b6000806000806060858703121561044557610444610390565b5b600085013567ffffffffffffffff81111561046357610462610395565b5b61046f878288016103a9565b9450945050602061048287828801610416565b925050604061049387828801610416565b91505092959194509250565b7f4e487b7100000000000000000000000000000000000000000000000000000000600052602260045260246000fd5b600060028204905060018216806104e657607f821691505b6020821081036104f9576104f861049f565b5b50919050565b600082905092915050565b7f4e487b7100000000000000000000000000000000000000000000000000000000600052604160045260246000fd5b60008190508160005260206000209050919050565b60006020601f8301049050919050565b600082821b905092915050565b60006008830261059b7fffffffffffffffffffffffffffffffffffffffffffffffffffffffffffffffff8261055e565b6105a5868361055e565b95508019841693508086168417925050509392505050565b6000819050919050565b60006105e26105dd6105d884610305565b6105bd565b610305565b9050919050565b6000819050919050565b6105fc836105c7565b610610610608826105e9565b84845461056b565b825550505050565b600090565b610625610618565b6106308184846105f3565b505050565b5b818110156106545761064960008261061d565b600181019050610636565b5050565b601f8211156106995761066a81610539565b6106738461054e565b81016020851015610682578190505b61069661068e8561054e565b830182610635565b50505b505050565b600082821c905092915050565b60006106bc6000198460080261069e565b1980831691505092915050565b60006106d583836106ab565b9150826002028217905092915050565b6106ef83836104ff565b67ffffffffffffffff8111156107085761070761050a565b5b61071282546104ce565b61071d828285610658565b6000601f83116001811461074c576000841561073a578287013590505b61074485826106c9565b8655506107ac565b601f19841661075a86610539565b60005b828110156107825784890135825560018201915060208501945060208101905061075d565b8683101561079f578489013561079b601f8916826106ab565b8355505b6001600288020188555050505b5050505050505056fea264697066735822122031a27bc25118593202a16d4bfe4dd8edbcb904751e312acf48947517a6448f7d64736f6c63430008120033",
					"opcodes": "PUSH1 0x80 PUSH1 0x40 MSTORE CALLVALUE DUP1 ISZERO PUSH2 0x10 JUMPI PUSH1 0x0 DUP1 REVERT JUMPDEST POP PUSH2 0x7EB DUP1 PUSH2 0x20 PUSH1 0x0 CODECOPY PUSH1 0x0 RETURN INVALID PUSH1 0x80 PUSH1 0x40 MSTORE CALLVALUE DUP1 ISZERO PUSH2 0x10 JUMPI PUSH1 0x0 DUP1 REVERT JUMPDEST POP PUSH1 0x4 CALLDATASIZE LT PUSH2 0x36 JUMPI PUSH1 0x0 CALLDATALOAD PUSH1 0xE0 SHR DUP1 PUSH4 0x6D4CE63C EQ PUSH2 0x3B JUMPI DUP1 PUSH4 0x9DB51E26 EQ PUSH2 0x59 JUMPI JUMPDEST PUSH1 0x0 DUP1 REVERT JUMPDEST PUSH2 0x43 PUSH2 0x75 JUMP JUMPDEST PUSH1 0x40 MLOAD PUSH2 0x50 SWAP2 SWAP1 PUSH2 0x36E JUMP JUMPDEST PUSH1 0x40 MLOAD DUP1 SWAP2 SUB SWAP1 RETURN JUMPDEST PUSH2 0x73 PUSH1 0x4 DUP1 CALLDATASIZE SUB DUP2 ADD SWAP1 PUSH2 0x6E SWAP2 SWAP1 PUSH2 0x42B JUMP JUMPDEST PUSH2 0x171 JUMP JUMPDEST STOP JUMPDEST PUSH2 0x7D PUSH2 0x254 JUMP JUMPDEST PUSH1 0x0 DUP1 CALLER PUSH20 0xFFFFFFFFFFFFFFFFFFFFFFFFFFFFFFFFFFFFFFFF AND PUSH20 0xFFFFFFFFFFFFFFFFFFFFFFFFFFFFFFFFFFFFFFFF AND DUP2 MSTORE PUSH1 0x20 ADD SWAP1 DUP2 MSTORE PUSH1 0x20 ADD PUSH1 0x0 KECCAK256 PUSH1 0x40 MLOAD DUP1 PUSH1 0x60 ADD PUSH1 0x40 MSTORE SWAP1 DUP2 PUSH1 0x0 DUP3 ADD DUP1 SLOAD PUSH2 0xD6 SWAP1 PUSH2 0x4CE JUMP JUMPDEST DUP1 PUSH1 0x1F ADD PUSH1 0x20 DUP1 SWAP2 DIV MUL PUSH1 0x20 ADD PUSH1 0x40 MLOAD SWAP1 DUP2 ADD PUSH1 0x40 MSTORE DUP1 SWAP3 SWAP2 SWAP1 DUP2 DUP2 MSTORE PUSH1 0x20 ADD DUP3 DUP1 SLOAD PUSH2 0x102 SWAP1 PUSH2 0x4CE JUMP JUMPDEST DUP1 ISZERO PUSH2 0x14F JUMPI DUP1 PUSH1 0x1F LT PUSH2 0x124 JUMPI PUSH2 0x100 DUP1 DUP4 SLOAD DIV MUL DUP4 MSTORE SWAP2 PUSH1 0x20 ADD SWAP2 PUSH2 0x14F JUMP JUMPDEST DUP3 ADD SWAP2 SWAP1 PUSH1 0x0 MSTORE PUSH1 0x20 PUSH1 0x0 KECCAK256 SWAP1 JUMPDEST DUP2 SLOAD DUP2 MSTORE SWAP1 PUSH1 0x1 ADD SWAP1 PUSH1 0x20 ADD DUP1 DUP4 GT PUSH2 0x132 JUMPI DUP3 SWAP1 SUB PUSH1 0x1F AND DUP3 ADD SWAP2 JUMPDEST POP POP POP POP POP DUP2 MSTORE PUSH1 0x20 ADD PUSH1 0x1 DUP3 ADD SLOAD DUP2 MSTORE PUSH1 0x20 ADD PUSH1 0x2 DUP3 ADD SLOAD DUP2 MSTORE POP POP SWAP1 POP SWAP1 JUMP JUMPDEST DUP4 DUP4 PUSH1 0x0 DUP1 CALLER PUSH20 0xFFFFFFFFFFFFFFFFFFFFFFFFFFFFFFFFFFFFFFFF AND PUSH20 0xFFFFFFFFFFFFFFFFFFFFFFFFFFFFFFFFFFFFFFFF AND DUP2 MSTORE PUSH1 0x20 ADD SWAP1 DUP2 MSTORE PUSH1 0x20 ADD PUSH1 0x0 KECCAK256 PUSH1 0x0 ADD SWAP2 DUP3 PUSH2 0x1C1 SWAP3 SWAP2 SWAP1 PUSH2 0x6E5 JUMP JUMPDEST POP DUP1 PUSH1 0x0 DUP1 CALLER PUSH20 0xFFFFFFFFFFFFFFFFFFFFFFFFFFFFFFFFFFFFFFFF AND PUSH20 0xFFFFFFFFFFFFFFFFFFFFFFFFFFFFFFFFFFFFFFFF AND DUP2 MSTORE PUSH1 0x20 ADD SWAP1 DUP2 MSTORE PUSH1 0x20 ADD PUSH1 0x0 KECCAK256 PUSH1 0x2 ADD DUP2 SWAP1 SSTORE POP DUP2 PUSH1 0x0 DUP1 CALLER PUSH20 0xFFFFFFFFFFFFFFFFFFFFFFFFFFFFFFFFFFFFFFFF AND PUSH20 0xFFFFFFFFFFFFFFFFFFFFFFFFFFFFFFFFFFFFFFFF AND DUP2 MSTORE PUSH1 0x20 ADD SWAP1 DUP2 MSTORE PUSH1 0x20 ADD PUSH1 0x0 KECCAK256 PUSH1 0x1 ADD DUP2 SWAP1 SSTORE POP POP POP POP POP JUMP JUMPDEST PUSH1 0x40 MLOAD DUP1 PUSH1 0x60 ADD PUSH1 0x40 MSTORE DUP1 PUSH1 0x60 DUP2 MSTORE PUSH1 0x20 ADD PUSH1 0x0 DUP2 MSTORE PUSH1 0x20 ADD PUSH1 0x0 DUP2 MSTORE POP SWAP1 JUMP JUMPDEST PUSH1 0x0 DUP2 MLOAD SWAP1 POP SWAP2 SWAP1 POP JUMP JUMPDEST PUSH1 0x0 DUP3 DUP3 MSTORE PUSH1 0x20 DUP3 ADD SWAP1 POP SWAP3 SWAP2 POP POP JUMP JUMPDEST PUSH1 0x0 JUMPDEST DUP4 DUP2 LT ISZERO PUSH2 0x2AF JUMPI DUP1 DUP3 ADD MLOAD DUP2 DUP5 ADD MSTORE PUSH1 0x20 DUP2 ADD SWAP1 POP PUSH2 0x294 JUMP JUMPDEST PUSH1 0x0 DUP5 DUP5 ADD MSTORE POP POP POP POP JUMP JUMPDEST PUSH1 0x0 PUSH1 0x1F NOT PUSH1 0x1F DUP4 ADD AND SWAP1 POP SWAP2 SWAP1 POP JUMP JUMPDEST PUSH1 0x0 PUSH2 0x2D7 DUP3 PUSH2 0x275 JUMP JUMPDEST PUSH2 0x2E1 DUP2 DUP6 PUSH2 0x280 JUMP JUMPDEST SWAP4 POP PUSH2 0x2F1 DUP2 DUP6 PUSH1 0x20 DUP7 ADD PUSH2 0x291 JUMP JUMPDEST PUSH2 0x2FA DUP2 PUSH2 0x2BB JUMP JUMPDEST DUP5 ADD SWAP2 POP POP SWAP3 SWAP2 POP POP JUMP JUMPDEST PUSH1 0x0 DUP2 SWAP1 POP SWAP2 SWAP1 POP JUMP JUMPDEST PUSH2 0x318 DUP2 PUSH2 0x305 JUMP JUMPDEST DUP3 MSTORE POP POP JUMP JUMPDEST PUSH1 0x0 PUSH1 0x60 DUP4 ADD PUSH1 0x0 DUP4 ADD MLOAD DUP5 DUP3 SUB PUSH1 0x0 DUP7 ADD MSTORE PUSH2 0x33B DUP3 DUP3 PUSH2 0x2CC JUMP JUMPDEST SWAP2 POP POP PUSH1 0x20 DUP4 ADD MLOAD PUSH2 0x350 PUSH1 0x20 DUP7 ADD DUP3 PUSH2 0x30F JUMP JUMPDEST POP PUSH1 0x40 DUP4 ADD MLOAD PUSH2 0x363 PUSH1 0x40 DUP7 ADD DUP3 PUSH2 0x30F JUMP JUMPDEST POP DUP1 SWAP2 POP POP SWAP3 SWAP2 POP POP JUMP JUMPDEST PUSH1 0x0 PUSH1 0x20 DUP3 ADD SWAP1 POP DUP2 DUP2 SUB PUSH1 0x0 DUP4 ADD MSTORE PUSH2 0x388 DUP2 DUP5 PUSH2 0x31E JUMP JUMPDEST SWAP1 POP SWAP3 SWAP2 POP POP JUMP JUMPDEST PUSH1 0x0 DUP1 REVERT JUMPDEST PUSH1 0x0 DUP1 REVERT JUMPDEST PUSH1 0x0 DUP1 REVERT JUMPDEST PUSH1 0x0 DUP1 REVERT JUMPDEST PUSH1 0x0 DUP1 REVERT JUMPDEST PUSH1 0x0 DUP1 DUP4 PUSH1 0x1F DUP5 ADD SLT PUSH2 0x3BF JUMPI PUSH2 0x3BE PUSH2 0x39A JUMP JUMPDEST JUMPDEST DUP3 CALLDATALOAD SWAP1 POP PUSH8 0xFFFFFFFFFFFFFFFF DUP2 GT ISZERO PUSH2 0x3DC JUMPI PUSH2 0x3DB PUSH2 0x39F JUMP JUMPDEST JUMPDEST PUSH1 0x20 DUP4 ADD SWAP2 POP DUP4 PUSH1 0x1 DUP3 MUL DUP4 ADD GT ISZERO PUSH2 0x3F8 JUMPI PUSH2 0x3F7 PUSH2 0x3A4 JUMP JUMPDEST JUMPDEST SWAP3 POP SWAP3 SWAP1 POP JUMP JUMPDEST PUSH2 0x408 DUP2 PUSH2 0x305 JUMP JUMPDEST DUP2 EQ PUSH2 0x413 JUMPI PUSH1 0x0 DUP1 REVERT JUMPDEST POP JUMP JUMPDEST PUSH1 0x0 DUP2 CALLDATALOAD SWAP1 POP PUSH2 0x425 DUP2 PUSH2 0x3FF JUMP JUMPDEST SWAP3 SWAP2 POP POP JUMP JUMPDEST PUSH1 0x0 DUP1 PUSH1 0x0 DUP1 PUSH1 0x60 DUP6 DUP8 SUB SLT ISZERO PUSH2 0x445 JUMPI PUSH2 0x444 PUSH2 0x390 JUMP JUMPDEST JUMPDEST PUSH1 0x0 DUP6 ADD CALLDATALOAD PUSH8 0xFFFFFFFFFFFFFFFF DUP2 GT ISZERO PUSH2 0x463 JUMPI PUSH2 0x462 PUSH2 0x395 JUMP JUMPDEST JUMPDEST PUSH2 0x46F DUP8 DUP3 DUP9 ADD PUSH2 0x3A9 JUMP JUMPDEST SWAP5 POP SWAP5 POP POP PUSH1 0x20 PUSH2 0x482 DUP8 DUP3 DUP9 ADD PUSH2 0x416 JUMP JUMPDEST SWAP3 POP POP PUSH1 0x40 PUSH2 0x493 DUP8 DUP3 DUP9 ADD PUSH2 0x416 JUMP JUMPDEST SWAP2 POP POP SWAP3 SWAP6 SWAP2 SWAP5 POP SWAP3 POP JUMP JUMPDEST PUSH32 0x4E487B7100000000000000000000000000000000000000000000000000000000 PUSH1 0x0 MSTORE PUSH1 0x22 PUSH1 0x4 MSTORE PUSH1 0x24 PUSH1 0x0 REVERT JUMPDEST PUSH1 0x0 PUSH1 0x2 DUP3 DIV SWAP1 POP PUSH1 0x1 DUP3 AND DUP1 PUSH2 0x4E6 JUMPI PUSH1 0x7F DUP3 AND SWAP2 POP JUMPDEST PUSH1 0x20 DUP3 LT DUP2 SUB PUSH2 0x4F9 JUMPI PUSH2 0x4F8 PUSH2 0x49F JUMP JUMPDEST JUMPDEST POP SWAP2 SWAP1 POP JUMP JUMPDEST PUSH1 0x0 DUP3 SWAP1 POP SWAP3 SWAP2 POP POP JUMP JUMPDEST PUSH32 0x4E487B7100000000000000000000000000000000000000000000000000000000 PUSH1 0x0 MSTORE PUSH1 0x41 PUSH1 0x4 MSTORE PUSH1 0x24 PUSH1 0x0 REVERT JUMPDEST PUSH1 0x0 DUP2 SWAP1 POP DUP2 PUSH1 0x0 MSTORE PUSH1 0x20 PUSH1 0x0 KECCAK256 SWAP1 POP SWAP2 SWAP1 POP JUMP JUMPDEST PUSH1 0x0 PUSH1 0x20 PUSH1 0x1F DUP4 ADD DIV SWAP1 POP SWAP2 SWAP1 POP JUMP JUMPDEST PUSH1 0x0 DUP3 DUP3 SHL SWAP1 POP SWAP3 SWAP2 POP POP JUMP JUMPDEST PUSH1 0x0 PUSH1 0x8 DUP4 MUL PUSH2 0x59B PUSH32 0xFFFFFFFFFFFFFFFFFFFFFFFFFFFFFFFFFFFFFFFFFFFFFFFFFFFFFFFFFFFFFFFF DUP3 PUSH2 0x55E JUMP JUMPDEST PUSH2 0x5A5 DUP7 DUP4 PUSH2 0x55E JUMP JUMPDEST SWAP6 POP DUP1 NOT DUP5 AND SWAP4 POP DUP1 DUP7 AND DUP5 OR SWAP3 POP POP POP SWAP4 SWAP3 POP POP POP JUMP JUMPDEST PUSH1 0x0 DUP2 SWAP1 POP SWAP2 SWAP1 POP JUMP JUMPDEST PUSH1 0x0 PUSH2 0x5E2 PUSH2 0x5DD PUSH2 0x5D8 DUP5 PUSH2 0x305 JUMP JUMPDEST PUSH2 0x5BD JUMP JUMPDEST PUSH2 0x305 JUMP JUMPDEST SWAP1 POP SWAP2 SWAP1 POP JUMP JUMPDEST PUSH1 0x0 DUP2 SWAP1 POP SWAP2 SWAP1 POP JUMP JUMPDEST PUSH2 0x5FC DUP4 PUSH2 0x5C7 JUMP JUMPDEST PUSH2 0x610 PUSH2 0x608 DUP3 PUSH2 0x5E9 JUMP JUMPDEST DUP5 DUP5 SLOAD PUSH2 0x56B JUMP JUMPDEST DUP3 SSTORE POP POP POP POP JUMP JUMPDEST PUSH1 0x0 SWAP1 JUMP JUMPDEST PUSH2 0x625 PUSH2 0x618 JUMP JUMPDEST PUSH2 0x630 DUP2 DUP5 DUP5 PUSH2 0x5F3 JUMP JUMPDEST POP POP POP JUMP JUMPDEST JUMPDEST DUP2 DUP2 LT ISZERO PUSH2 0x654 JUMPI PUSH2 0x649 PUSH1 0x0 DUP3 PUSH2 0x61D JUMP JUMPDEST PUSH1 0x1 DUP2 ADD SWAP1 POP PUSH2 0x636 JUMP JUMPDEST POP POP JUMP JUMPDEST PUSH1 0x1F DUP3 GT ISZERO PUSH2 0x699 JUMPI PUSH2 0x66A DUP2 PUSH2 0x539 JUMP JUMPDEST PUSH2 0x673 DUP5 PUSH2 0x54E JUMP JUMPDEST DUP2 ADD PUSH1 0x20 DUP6 LT ISZERO PUSH2 0x682 JUMPI DUP2 SWAP1 POP JUMPDEST PUSH2 0x696 PUSH2 0x68E DUP6 PUSH2 0x54E JUMP JUMPDEST DUP4 ADD DUP3 PUSH2 0x635 JUMP JUMPDEST POP POP JUMPDEST POP POP POP JUMP JUMPDEST PUSH1 0x0 DUP3 DUP3 SHR SWAP1 POP SWAP3 SWAP2 POP POP JUMP JUMPDEST PUSH1 0x0 PUSH2 0x6BC PUSH1 0x0 NOT DUP5 PUSH1 0x8 MUL PUSH2 0x69E JUMP JUMPDEST NOT DUP1 DUP4 AND SWAP2 POP POP SWAP3 SWAP2 POP POP JUMP JUMPDEST PUSH1 0x0 PUSH2 0x6D5 DUP4 DUP4 PUSH2 0x6AB JUMP JUMPDEST SWAP2 POP DUP3 PUSH1 0x2 MUL DUP3 OR SWAP1 POP SWAP3 SWAP2 POP POP JUMP JUMPDEST PUSH2 0x6EF DUP4 DUP4 PUSH2 0x4FF JUMP JUMPDEST PUSH8 0xFFFFFFFFFFFFFFFF DUP2 GT ISZERO PUSH2 0x708 JUMPI PUSH2 0x707 PUSH2 0x50A JUMP JUMPDEST JUMPDEST PUSH2 0x712 DUP3 SLOAD PUSH2 0x4CE JUMP JUMPDEST PUSH2 0x71D DUP3 DUP3 DUP6 PUSH2 0x658 JUMP JUMPDEST PUSH1 0x0 PUSH1 0x1F DUP4 GT PUSH1 0x1 DUP2 EQ PUSH2 0x74C JUMPI PUSH1 0x0 DUP5 ISZERO PUSH2 0x73A JUMPI DUP3 DUP8 ADD CALLDATALOAD SWAP1 POP JUMPDEST PUSH2 0x744 DUP6 DUP3 PUSH2 0x6C9 JUMP JUMPDEST DUP7 SSTORE POP PUSH2 0x7AC JUMP JUMPDEST PUSH1 0x1F NOT DUP5 AND PUSH2 0x75A DUP7 PUSH2 0x539 JUMP JUMPDEST PUSH1 0x0 JUMPDEST DUP3 DUP2 LT ISZERO PUSH2 0x782 JUMPI DUP5 DUP10 ADD CALLDATALOAD DUP3 SSTORE PUSH1 0x1 DUP3 ADD SWAP2 POP PUSH1 0x20 DUP6 ADD SWAP5 POP PUSH1 0x20 DUP2 ADD SWAP1 POP PUSH2 0x75D JUMP JUMPDEST DUP7 DUP4 LT ISZERO PUSH2 0x79F JUMPI DUP5 DUP10 ADD CALLDATALOAD PUSH2 0x79B PUSH1 0x1F DUP10 AND DUP3 PUSH2 0x6AB JUMP JUMPDEST DUP4 SSTORE POP JUMPDEST PUSH1 0x1 PUSH1 0x2 DUP9 MUL ADD DUP9 SSTORE POP POP POP JUMPDEST POP POP POP POP POP POP POP JUMP INVALID LOG2 PUSH5 0x6970667358 0x22 SLT KECCAK256 BALANCE LOG2 PUSH28 0xC25118593202A16D4BFE4DD8EDBCB904751E312ACF48947517A6448F PUSH30 0x64736F6C6343000812003300000000000000000000000000000000000000 "
				},
				"gasEstimates": {
					"creation": {
						"codeDepositCost": "405400",
						"executionCost": "443",
						"totalCost": "405843"
					},
					"external": {
						"get()": "infinite",
						"setter(string,uint256,uint256)": "infinite"
					}
				},
				"methodIdentifiers": {
					"get()": "6d4ce63c",
					"setter(string,uint256,uint256)": "9db51e26"
				}
			},
			"storageLayout": {
				"storage": [
					{
						"astId": 148,
						"contract": "questins/2.sol:questionTwelve",
						"label": "students",
						"offset": 0,
						"slot": "0",
						"type": "t_mapping(t_address,t_struct(student)143_storage)"
					}
				],
				"types": {
					"t_address": {
						"encoding": "inplace",
						"label": "address",
						"numberOfBytes": "20"
					},
					"t_mapping(t_address,t_struct(student)143_storage)": {
						"encoding": "mapping",
						"key": "t_address",
						"label": "mapping(address => struct questionTwelve.student)",
						"numberOfBytes": "32",
						"value": "t_struct(student)143_storage"
					},
					"t_string_storage": {
						"encoding": "bytes",
						"label": "string",
						"numberOfBytes": "32"
					},
					"t_struct(student)143_storage": {
						"encoding": "inplace",
						"label": "struct questionTwelve.student",
						"members": [
							{
								"astId": 138,
								"contract": "questins/2.sol:questionTwelve",
								"label": "name",
								"offset": 0,
								"slot": "0",
								"type": "t_string_storage"
							},
							{
								"astId": 140,
								"contract": "questins/2.sol:questionTwelve",
								"label": "rollno",
								"offset": 0,
								"slot": "1",
								"type": "t_uint256"
							},
							{
								"astId": 142,
								"contract": "questins/2.sol:questionTwelve",
								"label": "age",
								"offset": 0,
								"slot": "2",
								"type": "t_uint256"
							}
						],
						"numberOfBytes": "96"
					},
					"t_uint256": {
						"encoding": "inplace",
						"label": "uint256",
						"numberOfBytes": "32"
					}
				}
			},
			"userdoc": {
				"kind": "user",
				"methods": {},
				"version": 1
			}
		}
	}
}