{
	"assignment/StudentRecords.sol": {
		"StudentRecords": {
			"abi": [
				{
					"inputs": [],
					"stateMutability": "nonpayable",
					"type": "constructor"
				},
				{
					"inputs": [
						{
							"internalType": "uint256",
							"name": "_rollno",
							"type": "uint256"
						},
						{
							"internalType": "string",
							"name": "_name",
							"type": "string"
						},
						{
							"internalType": "uint256[3]",
							"name": "_marks",
							"type": "uint256[3]"
						}
					],
					"name": "addRecords",
					"outputs": [],
					"stateMutability": "nonpayable",
					"type": "function"
				},
				{
					"inputs": [
						{
							"internalType": "uint256",
							"name": "_rollNo",
							"type": "uint256"
						}
					],
					"name": "deleteRecord",
					"outputs": [],
					"stateMutability": "nonpayable",
					"type": "function"
				},
				{
					"inputs": [
						{
							"internalType": "uint256",
							"name": "_rollNo",
							"type": "uint256"
						}
					],
					"name": "getRecord",
					"outputs": [
						{
							"components": [
								{
									"internalType": "uint256",
									"name": "rollno",
									"type": "uint256"
								},
								{
									"internalType": "string",
									"name": "name",
									"type": "string"
								},
								{
									"internalType": "uint256[]",
									"name": "marks",
									"type": "uint256[]"
								}
							],
							"internalType": "struct StudentRecords.student",
							"name": "",
							"type": "tuple"
						}
					],
					"stateMutability": "view",
					"type": "function"
				},
				{
					"inputs": [],
					"name": "owner",
					"outputs": [
						{
							"internalType": "address",
							"name": "",
							"type": "address"
						}
					],
					"stateMutability": "view",
					"type": "function"
				}
			],
			"devdoc": {
				"kind": "dev",
				"methods": {},
				"version": 1
			},
			"evm": {
				"assembly": "    /* \"assignment/StudentRecords.sol\":69:941  contract StudentRecords{... */\n  mstore(0x40, 0x80)\n    /* \"assignment/StudentRecords.sol\":126:174  constructor(){... */\n  callvalue\n  dup1\n  iszero\n  tag_1\n  jumpi\n  0x00\n  dup1\n  revert\ntag_1:\n  pop\n    /* \"assignment/StudentRecords.sol\":156:166  msg.sender */\n  caller\n    /* \"assignment/StudentRecords.sol\":150:155  owner */\n  0x00\n  dup1\n    /* \"assignment/StudentRecords.sol\":150:166  owner=msg.sender */\n  0x0100\n  exp\n  dup2\n  sload\n  dup2\n  0xffffffffffffffffffffffffffffffffffffffff\n  mul\n  not\n  and\n  swap1\n  dup4\n  0xffffffffffffffffffffffffffffffffffffffff\n  and\n  mul\n  or\n  swap1\n  sstore\n  pop\n    /* \"assignment/StudentRecords.sol\":69:941  contract StudentRecords{... */\n  dataSize(sub_0)\n  dup1\n  dataOffset(sub_0)\n  0x00\n  codecopy\n  0x00\n  return\nstop\n\nsub_0: assembly {\n        /* \"assignment/StudentRecords.sol\":69:941  contract StudentRecords{... */\n      mstore(0x40, 0x80)\n      callvalue\n      dup1\n      iszero\n      tag_1\n      jumpi\n      0x00\n      dup1\n      revert\n    tag_1:\n      pop\n      jumpi(tag_2, lt(calldatasize, 0x04))\n      shr(0xe0, calldataload(0x00))\n      dup1\n      0x03e9e609\n      eq\n      tag_3\n      jumpi\n      dup1\n      0x061f9811\n      eq\n      tag_4\n      jumpi\n      dup1\n      0x5ed11036\n      eq\n      tag_5\n      jumpi\n      dup1\n      0x8da5cb5b\n      eq\n      tag_6\n      jumpi\n    tag_2:\n      0x00\n      dup1\n      revert\n        /* \"assignment/StudentRecords.sol\":609:781  function getRecord(uint _rollNo) public view returns(student memory){... */\n    tag_3:\n      tag_7\n      0x04\n      dup1\n      calldatasize\n      sub\n      dup2\n      add\n      swap1\n      tag_8\n      swap2\n      swap1\n      tag_9\n      jump\t// in\n    tag_8:\n      tag_10\n      jump\t// in\n    tag_7:\n      mload(0x40)\n      tag_11\n      swap2\n      swap1\n      tag_12\n      jump\t// in\n    tag_11:\n      mload(0x40)\n      dup1\n      swap2\n      sub\n      swap1\n      return\n        /* \"assignment/StudentRecords.sol\":787:936  function deleteRecord(uint _rollNo) public {... */\n    tag_4:\n      tag_13\n      0x04\n      dup1\n      calldatasize\n      sub\n      dup2\n      add\n      swap1\n      tag_14\n      swap2\n      swap1\n      tag_9\n      jump\t// in\n    tag_14:\n      tag_15\n      jump\t// in\n    tag_13:\n      stop\n        /* \"assignment/StudentRecords.sol\":321:603  function addRecords(uint _rollno,string calldata _name,uint[3] calldata _marks) public {... */\n    tag_5:\n      tag_16\n      0x04\n      dup1\n      calldatasize\n      sub\n      dup2\n      add\n      swap1\n      tag_17\n      swap2\n      swap1\n      tag_18\n      jump\t// in\n    tag_17:\n      tag_19\n      jump\t// in\n    tag_16:\n      stop\n        /* \"assignment/StudentRecords.sol\":99:119  address public owner */\n    tag_6:\n      tag_20\n      tag_21\n      jump\t// in\n    tag_20:\n      mload(0x40)\n      tag_22\n      swap2\n      swap1\n      tag_23\n      jump\t// in\n    tag_22:\n      mload(0x40)\n      dup1\n      swap2\n      sub\n      swap1\n      return\n        /* \"assignment/StudentRecords.sol\":609:781  function getRecord(uint _rollNo) public view returns(student memory){... */\n    tag_10:\n        /* \"assignment/StudentRecords.sol\":662:676  student memory */\n      tag_24\n      tag_25\n      jump\t// in\n    tag_24:\n        /* \"assignment/StudentRecords.sol\":708:713  owner */\n      0x00\n      dup1\n      sload\n      swap1\n      0x0100\n      exp\n      swap1\n      div\n      0xffffffffffffffffffffffffffffffffffffffff\n      and\n        /* \"assignment/StudentRecords.sol\":696:713  msg.sender==owner */\n      0xffffffffffffffffffffffffffffffffffffffff\n      and\n        /* \"assignment/StudentRecords.sol\":696:706  msg.sender */\n      caller\n        /* \"assignment/StudentRecords.sol\":696:713  msg.sender==owner */\n      0xffffffffffffffffffffffffffffffffffffffff\n      and\n      eq\n        /* \"assignment/StudentRecords.sol\":688:738  require(msg.sender==owner,\"You are not the owner\") */\n      tag_27\n      jumpi\n      mload(0x40)\n      0x08c379a000000000000000000000000000000000000000000000000000000000\n      dup2\n      mstore\n      0x04\n      add\n      tag_28\n      swap1\n      tag_29\n      jump\t// in\n    tag_28:\n      mload(0x40)\n      dup1\n      swap2\n      sub\n      swap1\n      revert\n    tag_27:\n        /* \"assignment/StudentRecords.sol\":756:764  students */\n      0x01\n        /* \"assignment/StudentRecords.sol\":756:773  students[_rollNo] */\n      0x00\n        /* \"assignment/StudentRecords.sol\":765:772  _rollNo */\n      dup4\n        /* \"assignment/StudentRecords.sol\":756:773  students[_rollNo] */\n      dup2\n      mstore\n      0x20\n      add\n      swap1\n      dup2\n      mstore\n      0x20\n      add\n      0x00\n      keccak256\n        /* \"assignment/StudentRecords.sol\":749:773  return students[_rollNo] */\n      mload(0x40)\n      dup1\n      0x60\n      add\n      0x40\n      mstore\n      swap1\n      dup2\n      0x00\n      dup3\n      add\n      sload\n      dup2\n      mstore\n      0x20\n      add\n      0x01\n      dup3\n      add\n      dup1\n      sload\n      tag_30\n      swap1\n      tag_31\n      jump\t// in\n    tag_30:\n      dup1\n      0x1f\n      add\n      0x20\n      dup1\n      swap2\n      div\n      mul\n      0x20\n      add\n      mload(0x40)\n      swap1\n      dup2\n      add\n      0x40\n      mstore\n      dup1\n      swap3\n      swap2\n      swap1\n      dup2\n      dup2\n      mstore\n      0x20\n      add\n      dup3\n      dup1\n      sload\n      tag_32\n      swap1\n      tag_31\n      jump\t// in\n    tag_32:\n      dup1\n      iszero\n      tag_33\n      jumpi\n      dup1\n      0x1f\n      lt\n      tag_34\n      jumpi\n      0x0100\n      dup1\n      dup4\n      sload\n      div\n      mul\n      dup4\n      mstore\n      swap2\n      0x20\n      add\n      swap2\n      jump(tag_33)\n    tag_34:\n      dup3\n      add\n      swap2\n      swap1\n      0x00\n      mstore\n      keccak256(0x00, 0x20)\n      swap1\n    tag_35:\n      dup2\n      sload\n      dup2\n      mstore\n      swap1\n      0x01\n      add\n      swap1\n      0x20\n      add\n      dup1\n      dup4\n      gt\n      tag_35\n      jumpi\n      dup3\n      swap1\n      sub\n      0x1f\n      and\n      dup3\n      add\n      swap2\n    tag_33:\n      pop\n      pop\n      pop\n      pop\n      pop\n      dup2\n      mstore\n      0x20\n      add\n      0x02\n      dup3\n      add\n      dup1\n      sload\n      dup1\n      0x20\n      mul\n      0x20\n      add\n      mload(0x40)\n      swap1\n      dup2\n      add\n      0x40\n      mstore\n      dup1\n      swap3\n      swap2\n      swap1\n      dup2\n      dup2\n      mstore\n      0x20\n      add\n      dup3\n      dup1\n      sload\n      dup1\n      iszero\n      tag_36\n      jumpi\n      0x20\n      mul\n      dup3\n      add\n      swap2\n      swap1\n      0x00\n      mstore\n      keccak256(0x00, 0x20)\n      swap1\n    tag_37:\n      dup2\n      sload\n      dup2\n      mstore\n      0x20\n      add\n      swap1\n      0x01\n      add\n      swap1\n      dup1\n      dup4\n      gt\n      tag_37\n      jumpi\n    tag_36:\n      pop\n      pop\n      pop\n      pop\n      pop\n      dup2\n      mstore\n      pop\n      pop\n      swap1\n      pop\n        /* \"assignment/StudentRecords.sol\":609:781  function getRecord(uint _rollNo) public view returns(student memory){... */\n      swap2\n      swap1\n      pop\n      jump\t// out\n        /* \"assignment/StudentRecords.sol\":787:936  function deleteRecord(uint _rollNo) public {... */\n    tag_15:\n        /* \"assignment/StudentRecords.sol\":861:866  owner */\n      0x00\n      dup1\n      sload\n      swap1\n      0x0100\n      exp\n      swap1\n      div\n      0xffffffffffffffffffffffffffffffffffffffff\n      and\n        /* \"assignment/StudentRecords.sol\":849:866  msg.sender==owner */\n      0xffffffffffffffffffffffffffffffffffffffff\n      and\n        /* \"assignment/StudentRecords.sol\":849:859  msg.sender */\n      caller\n        /* \"assignment/StudentRecords.sol\":849:866  msg.sender==owner */\n      0xffffffffffffffffffffffffffffffffffffffff\n      and\n      eq\n        /* \"assignment/StudentRecords.sol\":841:891  require(msg.sender==owner,\"You are not the owner\") */\n      tag_39\n      jumpi\n      mload(0x40)\n      0x08c379a000000000000000000000000000000000000000000000000000000000\n      dup2\n      mstore\n      0x04\n      add\n      tag_40\n      swap1\n      tag_29\n      jump\t// in\n    tag_40:\n      mload(0x40)\n      dup1\n      swap2\n      sub\n      swap1\n      revert\n    tag_39:\n        /* \"assignment/StudentRecords.sol\":909:917  students */\n      0x01\n        /* \"assignment/StudentRecords.sol\":909:926  students[_rollNo] */\n      0x00\n        /* \"assignment/StudentRecords.sol\":918:925  _rollNo */\n      dup3\n        /* \"assignment/StudentRecords.sol\":909:926  students[_rollNo] */\n      dup2\n      mstore\n      0x20\n      add\n      swap1\n      dup2\n      mstore\n      0x20\n      add\n      0x00\n      keccak256\n      0x00\n        /* \"assignment/StudentRecords.sol\":902:926  delete students[_rollNo] */\n      dup1\n      dup3\n      add\n      0x00\n      swap1\n      sstore\n      0x01\n      dup3\n      add\n      0x00\n      tag_41\n      swap2\n      swap1\n      tag_42\n      jump\t// in\n    tag_41:\n      0x02\n      dup3\n      add\n      0x00\n      tag_43\n      swap2\n      swap1\n      tag_44\n      jump\t// in\n    tag_43:\n      pop\n      pop\n        /* \"assignment/StudentRecords.sol\":787:936  function deleteRecord(uint _rollNo) public {... */\n      pop\n      jump\t// out\n        /* \"assignment/StudentRecords.sol\":321:603  function addRecords(uint _rollno,string calldata _name,uint[3] calldata _marks) public {... */\n    tag_19:\n        /* \"assignment/StudentRecords.sol\":439:444  owner */\n      0x00\n      dup1\n      sload\n      swap1\n      0x0100\n      exp\n      swap1\n      div\n      0xffffffffffffffffffffffffffffffffffffffff\n      and\n        /* \"assignment/StudentRecords.sol\":427:444  msg.sender==owner */\n      0xffffffffffffffffffffffffffffffffffffffff\n      and\n        /* \"assignment/StudentRecords.sol\":427:437  msg.sender */\n      caller\n        /* \"assignment/StudentRecords.sol\":427:444  msg.sender==owner */\n      0xffffffffffffffffffffffffffffffffffffffff\n      and\n      eq\n        /* \"assignment/StudentRecords.sol\":419:469  require(msg.sender==owner,\"You are not the owner\") */\n      tag_46\n      jumpi\n      mload(0x40)\n      0x08c379a000000000000000000000000000000000000000000000000000000000\n      dup2\n      mstore\n      0x04\n      add\n      tag_47\n      swap1\n      tag_29\n      jump\t// in\n    tag_47:\n      mload(0x40)\n      dup1\n      swap2\n      sub\n      swap1\n      revert\n    tag_46:\n        /* \"assignment/StudentRecords.sol\":506:513  _rollno */\n      dup4\n        /* \"assignment/StudentRecords.sol\":480:488  students */\n      0x01\n        /* \"assignment/StudentRecords.sol\":480:497  students[_rollno] */\n      0x00\n        /* \"assignment/StudentRecords.sol\":489:496  _rollno */\n      dup7\n        /* \"assignment/StudentRecords.sol\":480:497  students[_rollno] */\n      dup2\n      mstore\n      0x20\n      add\n      swap1\n      dup2\n      mstore\n      0x20\n      add\n      0x00\n      keccak256\n        /* \"assignment/StudentRecords.sol\":480:504  students[_rollno].rollno */\n      0x00\n      add\n        /* \"assignment/StudentRecords.sol\":480:513  students[_rollno].rollno= _rollno */\n      dup2\n      swap1\n      sstore\n      pop\n        /* \"assignment/StudentRecords.sol\":548:553  _name */\n      dup3\n      dup3\n        /* \"assignment/StudentRecords.sol\":524:532  students */\n      0x01\n        /* \"assignment/StudentRecords.sol\":524:541  students[_rollno] */\n      0x00\n        /* \"assignment/StudentRecords.sol\":533:540  _rollno */\n      dup8\n        /* \"assignment/StudentRecords.sol\":524:541  students[_rollno] */\n      dup2\n      mstore\n      0x20\n      add\n      swap1\n      dup2\n      mstore\n      0x20\n      add\n      0x00\n      keccak256\n        /* \"assignment/StudentRecords.sol\":524:546  students[_rollno].name */\n      0x01\n      add\n        /* \"assignment/StudentRecords.sol\":524:553  students[_rollno].name= _name */\n      swap2\n      dup3\n      tag_48\n      swap3\n      swap2\n      swap1\n      tag_49\n      jump\t// in\n    tag_48:\n      pop\n        /* \"assignment/StudentRecords.sol\":589:595  _marks */\n      dup1\n        /* \"assignment/StudentRecords.sol\":564:572  students */\n      0x01\n        /* \"assignment/StudentRecords.sol\":564:581  students[_rollno] */\n      0x00\n        /* \"assignment/StudentRecords.sol\":573:580  _rollno */\n      dup7\n        /* \"assignment/StudentRecords.sol\":564:581  students[_rollno] */\n      dup2\n      mstore\n      0x20\n      add\n      swap1\n      dup2\n      mstore\n      0x20\n      add\n      0x00\n      keccak256\n        /* \"assignment/StudentRecords.sol\":564:587  students[_rollno].marks */\n      0x02\n      add\n        /* \"assignment/StudentRecords.sol\":564:595  students[_rollno].marks= _marks */\n      swap1\n      0x03\n      tag_50\n      swap3\n      swap2\n      swap1\n      tag_51\n      jump\t// in\n    tag_50:\n      pop\n        /* \"assignment/StudentRecords.sol\":321:603  function addRecords(uint _rollno,string calldata _name,uint[3] calldata _marks) public {... */\n      pop\n      pop\n      pop\n      pop\n      jump\t// out\n        /* \"assignment/StudentRecords.sol\":99:119  address public owner */\n    tag_21:\n      0x00\n      dup1\n      sload\n      swap1\n      0x0100\n      exp\n      swap1\n      div\n      0xffffffffffffffffffffffffffffffffffffffff\n      and\n      dup2\n      jump\t// out\n    tag_25:\n      mload(0x40)\n      dup1\n      0x60\n      add\n      0x40\n      mstore\n      dup1\n      0x00\n      dup2\n      mstore\n      0x20\n      add\n      0x60\n      dup2\n      mstore\n      0x20\n      add\n      0x60\n      dup2\n      mstore\n      pop\n      swap1\n      jump\t// out\n    tag_42:\n      pop\n      dup1\n      sload\n      tag_52\n      swap1\n      tag_31\n      jump\t// in\n    tag_52:\n      0x00\n      dup3\n      sstore\n      dup1\n      0x1f\n      lt\n      tag_54\n      jumpi\n      pop\n      jump(tag_53)\n    tag_54:\n      0x1f\n      add\n      0x20\n      swap1\n      div\n      swap1\n      0x00\n      mstore\n      keccak256(0x00, 0x20)\n      swap1\n      dup2\n      add\n      swap1\n      tag_55\n      swap2\n      swap1\n      tag_56\n      jump\t// in\n    tag_55:\n    tag_53:\n      pop\n      jump\t// out\n    tag_44:\n      pop\n      dup1\n      sload\n      0x00\n      dup3\n      sstore\n      swap1\n      0x00\n      mstore\n      keccak256(0x00, 0x20)\n      swap1\n      dup2\n      add\n      swap1\n      tag_58\n      swap2\n      swap1\n      tag_56\n      jump\t// in\n    tag_58:\n      pop\n      jump\t// out\n    tag_51:\n      dup3\n      dup1\n      sload\n      dup3\n      dup3\n      sstore\n      swap1\n      0x00\n      mstore\n      keccak256(0x00, 0x20)\n      swap1\n      dup2\n      add\n      swap3\n      dup3\n      iszero\n      tag_59\n      jumpi\n      swap2\n      0x20\n      mul\n      dup3\n      add\n    tag_60:\n      dup3\n      dup2\n      gt\n      iszero\n      tag_61\n      jumpi\n      dup3\n      calldataload\n      dup3\n      sstore\n      swap2\n      0x20\n      add\n      swap2\n      swap1\n      0x01\n      add\n      swap1\n      jump(tag_60)\n    tag_61:\n    tag_59:\n      pop\n      swap1\n      pop\n      tag_62\n      swap2\n      swap1\n      tag_56\n      jump\t// in\n    tag_62:\n      pop\n      swap1\n      jump\t// out\n    tag_56:\n    tag_63:\n      dup1\n      dup3\n      gt\n      iszero\n      tag_64\n      jumpi\n      0x00\n      dup2\n      0x00\n      swap1\n      sstore\n      pop\n      0x01\n      add\n      jump(tag_63)\n    tag_64:\n      pop\n      swap1\n      jump\t// out\n        /* \"#utility.yul\":88:205   */\n    tag_66:\n        /* \"#utility.yul\":197:198   */\n      0x00\n        /* \"#utility.yul\":194:195   */\n      dup1\n        /* \"#utility.yul\":187:199   */\n      revert\n        /* \"#utility.yul\":211:328   */\n    tag_67:\n        /* \"#utility.yul\":320:321   */\n      0x00\n        /* \"#utility.yul\":317:318   */\n      dup1\n        /* \"#utility.yul\":310:322   */\n      revert\n        /* \"#utility.yul\":334:411   */\n    tag_68:\n        /* \"#utility.yul\":371:378   */\n      0x00\n        /* \"#utility.yul\":400:405   */\n      dup2\n        /* \"#utility.yul\":389:405   */\n      swap1\n      pop\n        /* \"#utility.yul\":334:411   */\n      swap2\n      swap1\n      pop\n      jump\t// out\n        /* \"#utility.yul\":417:539   */\n    tag_69:\n        /* \"#utility.yul\":490:514   */\n      tag_119\n        /* \"#utility.yul\":508:513   */\n      dup2\n        /* \"#utility.yul\":490:514   */\n      tag_68\n      jump\t// in\n    tag_119:\n        /* \"#utility.yul\":483:488   */\n      dup2\n        /* \"#utility.yul\":480:515   */\n      eq\n        /* \"#utility.yul\":470:533   */\n      tag_120\n      jumpi\n        /* \"#utility.yul\":529:530   */\n      0x00\n        /* \"#utility.yul\":526:527   */\n      dup1\n        /* \"#utility.yul\":519:531   */\n      revert\n        /* \"#utility.yul\":470:533   */\n    tag_120:\n        /* \"#utility.yul\":417:539   */\n      pop\n      jump\t// out\n        /* \"#utility.yul\":545:684   */\n    tag_70:\n        /* \"#utility.yul\":591:596   */\n      0x00\n        /* \"#utility.yul\":629:635   */\n      dup2\n        /* \"#utility.yul\":616:636   */\n      calldataload\n        /* \"#utility.yul\":607:636   */\n      swap1\n      pop\n        /* \"#utility.yul\":645:678   */\n      tag_122\n        /* \"#utility.yul\":672:677   */\n      dup2\n        /* \"#utility.yul\":645:678   */\n      tag_69\n      jump\t// in\n    tag_122:\n        /* \"#utility.yul\":545:684   */\n      swap3\n      swap2\n      pop\n      pop\n      jump\t// out\n        /* \"#utility.yul\":690:1019   */\n    tag_9:\n        /* \"#utility.yul\":749:755   */\n      0x00\n        /* \"#utility.yul\":798:800   */\n      0x20\n        /* \"#utility.yul\":786:795   */\n      dup3\n        /* \"#utility.yul\":777:784   */\n      dup5\n        /* \"#utility.yul\":773:796   */\n      sub\n        /* \"#utility.yul\":769:801   */\n      slt\n        /* \"#utility.yul\":766:885   */\n      iszero\n      tag_124\n      jumpi\n        /* \"#utility.yul\":804:883   */\n      tag_125\n      tag_66\n      jump\t// in\n    tag_125:\n        /* \"#utility.yul\":766:885   */\n    tag_124:\n        /* \"#utility.yul\":924:925   */\n      0x00\n        /* \"#utility.yul\":949:1002   */\n      tag_126\n        /* \"#utility.yul\":994:1001   */\n      dup5\n        /* \"#utility.yul\":985:991   */\n      dup3\n        /* \"#utility.yul\":974:983   */\n      dup6\n        /* \"#utility.yul\":970:992   */\n      add\n        /* \"#utility.yul\":949:1002   */\n      tag_70\n      jump\t// in\n    tag_126:\n        /* \"#utility.yul\":939:1002   */\n      swap2\n      pop\n        /* \"#utility.yul\":895:1012   */\n      pop\n        /* \"#utility.yul\":690:1019   */\n      swap3\n      swap2\n      pop\n      pop\n      jump\t// out\n        /* \"#utility.yul\":1025:1133   */\n    tag_71:\n        /* \"#utility.yul\":1102:1126   */\n      tag_128\n        /* \"#utility.yul\":1120:1125   */\n      dup2\n        /* \"#utility.yul\":1102:1126   */\n      tag_68\n      jump\t// in\n    tag_128:\n        /* \"#utility.yul\":1097:1100   */\n      dup3\n        /* \"#utility.yul\":1090:1127   */\n      mstore\n        /* \"#utility.yul\":1025:1133   */\n      pop\n      pop\n      jump\t// out\n        /* \"#utility.yul\":1139:1238   */\n    tag_72:\n        /* \"#utility.yul\":1191:1197   */\n      0x00\n        /* \"#utility.yul\":1225:1230   */\n      dup2\n        /* \"#utility.yul\":1219:1231   */\n      mload\n        /* \"#utility.yul\":1209:1231   */\n      swap1\n      pop\n        /* \"#utility.yul\":1139:1238   */\n      swap2\n      swap1\n      pop\n      jump\t// out\n        /* \"#utility.yul\":1244:1403   */\n    tag_73:\n        /* \"#utility.yul\":1318:1329   */\n      0x00\n        /* \"#utility.yul\":1352:1358   */\n      dup3\n        /* \"#utility.yul\":1347:1350   */\n      dup3\n        /* \"#utility.yul\":1340:1359   */\n      mstore\n        /* \"#utility.yul\":1392:1396   */\n      0x20\n        /* \"#utility.yul\":1387:1390   */\n      dup3\n        /* \"#utility.yul\":1383:1397   */\n      add\n        /* \"#utility.yul\":1368:1397   */\n      swap1\n      pop\n        /* \"#utility.yul\":1244:1403   */\n      swap3\n      swap2\n      pop\n      pop\n      jump\t// out\n        /* \"#utility.yul\":1409:1655   */\n    tag_74:\n        /* \"#utility.yul\":1490:1491   */\n      0x00\n        /* \"#utility.yul\":1500:1613   */\n    tag_132:\n        /* \"#utility.yul\":1514:1520   */\n      dup4\n        /* \"#utility.yul\":1511:1512   */\n      dup2\n        /* \"#utility.yul\":1508:1521   */\n      lt\n        /* \"#utility.yul\":1500:1613   */\n      iszero\n      tag_134\n      jumpi\n        /* \"#utility.yul\":1599:1600   */\n      dup1\n        /* \"#utility.yul\":1594:1597   */\n      dup3\n        /* \"#utility.yul\":1590:1601   */\n      add\n        /* \"#utility.yul\":1584:1602   */\n      mload\n        /* \"#utility.yul\":1580:1581   */\n      dup2\n        /* \"#utility.yul\":1575:1578   */\n      dup5\n        /* \"#utility.yul\":1571:1582   */\n      add\n        /* \"#utility.yul\":1564:1603   */\n      mstore\n        /* \"#utility.yul\":1536:1538   */\n      0x20\n        /* \"#utility.yul\":1533:1534   */\n      dup2\n        /* \"#utility.yul\":1529:1539   */\n      add\n        /* \"#utility.yul\":1524:1539   */\n      swap1\n      pop\n        /* \"#utility.yul\":1500:1613   */\n      jump(tag_132)\n    tag_134:\n        /* \"#utility.yul\":1647:1648   */\n      0x00\n        /* \"#utility.yul\":1638:1644   */\n      dup5\n        /* \"#utility.yul\":1633:1636   */\n      dup5\n        /* \"#utility.yul\":1629:1645   */\n      add\n        /* \"#utility.yul\":1622:1649   */\n      mstore\n        /* \"#utility.yul\":1471:1655   */\n      pop\n        /* \"#utility.yul\":1409:1655   */\n      pop\n      pop\n      pop\n      jump\t// out\n        /* \"#utility.yul\":1661:1763   */\n    tag_75:\n        /* \"#utility.yul\":1702:1708   */\n      0x00\n        /* \"#utility.yul\":1753:1755   */\n      0x1f\n        /* \"#utility.yul\":1749:1756   */\n      not\n        /* \"#utility.yul\":1744:1746   */\n      0x1f\n        /* \"#utility.yul\":1737:1742   */\n      dup4\n        /* \"#utility.yul\":1733:1747   */\n      add\n        /* \"#utility.yul\":1729:1757   */\n      and\n        /* \"#utility.yul\":1719:1757   */\n      swap1\n      pop\n        /* \"#utility.yul\":1661:1763   */\n      swap2\n      swap1\n      pop\n      jump\t// out\n        /* \"#utility.yul\":1769:2126   */\n    tag_76:\n        /* \"#utility.yul\":1847:1850   */\n      0x00\n        /* \"#utility.yul\":1875:1914   */\n      tag_137\n        /* \"#utility.yul\":1908:1913   */\n      dup3\n        /* \"#utility.yul\":1875:1914   */\n      tag_72\n      jump\t// in\n    tag_137:\n        /* \"#utility.yul\":1930:1991   */\n      tag_138\n        /* \"#utility.yul\":1984:1990   */\n      dup2\n        /* \"#utility.yul\":1979:1982   */\n      dup6\n        /* \"#utility.yul\":1930:1991   */\n      tag_73\n      jump\t// in\n    tag_138:\n        /* \"#utility.yul\":1923:1991   */\n      swap4\n      pop\n        /* \"#utility.yul\":2000:2065   */\n      tag_139\n        /* \"#utility.yul\":2058:2064   */\n      dup2\n        /* \"#utility.yul\":2053:2056   */\n      dup6\n        /* \"#utility.yul\":2046:2050   */\n      0x20\n        /* \"#utility.yul\":2039:2044   */\n      dup7\n        /* \"#utility.yul\":2035:2051   */\n      add\n        /* \"#utility.yul\":2000:2065   */\n      tag_74\n      jump\t// in\n    tag_139:\n        /* \"#utility.yul\":2090:2119   */\n      tag_140\n        /* \"#utility.yul\":2112:2118   */\n      dup2\n        /* \"#utility.yul\":2090:2119   */\n      tag_75\n      jump\t// in\n    tag_140:\n        /* \"#utility.yul\":2085:2088   */\n      dup5\n        /* \"#utility.yul\":2081:2120   */\n      add\n        /* \"#utility.yul\":2074:2120   */\n      swap2\n      pop\n        /* \"#utility.yul\":1851:2126   */\n      pop\n        /* \"#utility.yul\":1769:2126   */\n      swap3\n      swap2\n      pop\n      pop\n      jump\t// out\n        /* \"#utility.yul\":2132:2246   */\n    tag_77:\n        /* \"#utility.yul\":2199:2205   */\n      0x00\n        /* \"#utility.yul\":2233:2238   */\n      dup2\n        /* \"#utility.yul\":2227:2239   */\n      mload\n        /* \"#utility.yul\":2217:2239   */\n      swap1\n      pop\n        /* \"#utility.yul\":2132:2246   */\n      swap2\n      swap1\n      pop\n      jump\t// out\n        /* \"#utility.yul\":2252:2426   */\n    tag_78:\n        /* \"#utility.yul\":2341:2352   */\n      0x00\n        /* \"#utility.yul\":2375:2381   */\n      dup3\n        /* \"#utility.yul\":2370:2373   */\n      dup3\n        /* \"#utility.yul\":2363:2382   */\n      mstore\n        /* \"#utility.yul\":2415:2419   */\n      0x20\n        /* \"#utility.yul\":2410:2413   */\n      dup3\n        /* \"#utility.yul\":2406:2420   */\n      add\n        /* \"#utility.yul\":2391:2420   */\n      swap1\n      pop\n        /* \"#utility.yul\":2252:2426   */\n      swap3\n      swap2\n      pop\n      pop\n      jump\t// out\n        /* \"#utility.yul\":2432:2564   */\n    tag_79:\n        /* \"#utility.yul\":2499:2503   */\n      0x00\n        /* \"#utility.yul\":2522:2525   */\n      dup2\n        /* \"#utility.yul\":2514:2525   */\n      swap1\n      pop\n        /* \"#utility.yul\":2552:2556   */\n      0x20\n        /* \"#utility.yul\":2547:2550   */\n      dup3\n        /* \"#utility.yul\":2543:2557   */\n      add\n        /* \"#utility.yul\":2535:2557   */\n      swap1\n      pop\n        /* \"#utility.yul\":2432:2564   */\n      swap2\n      swap1\n      pop\n      jump\t// out\n        /* \"#utility.yul\":2570:2749   */\n    tag_80:\n        /* \"#utility.yul\":2639:2649   */\n      0x00\n        /* \"#utility.yul\":2660:2706   */\n      tag_145\n        /* \"#utility.yul\":2702:2705   */\n      dup4\n        /* \"#utility.yul\":2694:2700   */\n      dup4\n        /* \"#utility.yul\":2660:2706   */\n      tag_71\n      jump\t// in\n    tag_145:\n        /* \"#utility.yul\":2738:2742   */\n      0x20\n        /* \"#utility.yul\":2733:2736   */\n      dup4\n        /* \"#utility.yul\":2729:2743   */\n      add\n        /* \"#utility.yul\":2715:2743   */\n      swap1\n      pop\n        /* \"#utility.yul\":2570:2749   */\n      swap3\n      swap2\n      pop\n      pop\n      jump\t// out\n        /* \"#utility.yul\":2755:2868   */\n    tag_81:\n        /* \"#utility.yul\":2825:2829   */\n      0x00\n        /* \"#utility.yul\":2857:2861   */\n      0x20\n        /* \"#utility.yul\":2852:2855   */\n      dup3\n        /* \"#utility.yul\":2848:2862   */\n      add\n        /* \"#utility.yul\":2840:2862   */\n      swap1\n      pop\n        /* \"#utility.yul\":2755:2868   */\n      swap2\n      swap1\n      pop\n      jump\t// out\n        /* \"#utility.yul\":2904:3616   */\n    tag_82:\n        /* \"#utility.yul\":3013:3016   */\n      0x00\n        /* \"#utility.yul\":3042:3096   */\n      tag_148\n        /* \"#utility.yul\":3090:3095   */\n      dup3\n        /* \"#utility.yul\":3042:3096   */\n      tag_77\n      jump\t// in\n    tag_148:\n        /* \"#utility.yul\":3112:3188   */\n      tag_149\n        /* \"#utility.yul\":3181:3187   */\n      dup2\n        /* \"#utility.yul\":3176:3179   */\n      dup6\n        /* \"#utility.yul\":3112:3188   */\n      tag_78\n      jump\t// in\n    tag_149:\n        /* \"#utility.yul\":3105:3188   */\n      swap4\n      pop\n        /* \"#utility.yul\":3212:3268   */\n      tag_150\n        /* \"#utility.yul\":3262:3267   */\n      dup4\n        /* \"#utility.yul\":3212:3268   */\n      tag_79\n      jump\t// in\n    tag_150:\n        /* \"#utility.yul\":3291:3298   */\n      dup1\n        /* \"#utility.yul\":3322:3323   */\n      0x00\n        /* \"#utility.yul\":3307:3591   */\n    tag_151:\n        /* \"#utility.yul\":3332:3338   */\n      dup4\n        /* \"#utility.yul\":3329:3330   */\n      dup2\n        /* \"#utility.yul\":3326:3339   */\n      lt\n        /* \"#utility.yul\":3307:3591   */\n      iszero\n      tag_153\n      jumpi\n        /* \"#utility.yul\":3408:3414   */\n      dup2\n        /* \"#utility.yul\":3402:3415   */\n      mload\n        /* \"#utility.yul\":3435:3498   */\n      tag_154\n        /* \"#utility.yul\":3494:3497   */\n      dup9\n        /* \"#utility.yul\":3479:3492   */\n      dup3\n        /* \"#utility.yul\":3435:3498   */\n      tag_80\n      jump\t// in\n    tag_154:\n        /* \"#utility.yul\":3428:3498   */\n      swap8\n      pop\n        /* \"#utility.yul\":3521:3581   */\n      tag_155\n        /* \"#utility.yul\":3574:3580   */\n      dup4\n        /* \"#utility.yul\":3521:3581   */\n      tag_81\n      jump\t// in\n    tag_155:\n        /* \"#utility.yul\":3511:3581   */\n      swap3\n      pop\n        /* \"#utility.yul\":3367:3591   */\n      pop\n        /* \"#utility.yul\":3354:3355   */\n      0x01\n        /* \"#utility.yul\":3351:3352   */\n      dup2\n        /* \"#utility.yul\":3347:3356   */\n      add\n        /* \"#utility.yul\":3342:3356   */\n      swap1\n      pop\n        /* \"#utility.yul\":3307:3591   */\n      jump(tag_151)\n    tag_153:\n        /* \"#utility.yul\":3311:3325   */\n      pop\n        /* \"#utility.yul\":3607:3610   */\n      dup6\n        /* \"#utility.yul\":3600:3610   */\n      swap4\n      pop\n        /* \"#utility.yul\":3018:3616   */\n      pop\n      pop\n      pop\n        /* \"#utility.yul\":2904:3616   */\n      swap3\n      swap2\n      pop\n      pop\n      jump\t// out\n        /* \"#utility.yul\":3692:4572   */\n    tag_83:\n        /* \"#utility.yul\":3807:3810   */\n      0x00\n        /* \"#utility.yul\":3843:3847   */\n      0x60\n        /* \"#utility.yul\":3838:3841   */\n      dup4\n        /* \"#utility.yul\":3834:3848   */\n      add\n        /* \"#utility.yul\":3932:3936   */\n      0x00\n        /* \"#utility.yul\":3925:3930   */\n      dup4\n        /* \"#utility.yul\":3921:3937   */\n      add\n        /* \"#utility.yul\":3915:3938   */\n      mload\n        /* \"#utility.yul\":3951:4014   */\n      tag_157\n        /* \"#utility.yul\":4008:4012   */\n      0x00\n        /* \"#utility.yul\":4003:4006   */\n      dup7\n        /* \"#utility.yul\":3999:4013   */\n      add\n        /* \"#utility.yul\":3985:3997   */\n      dup3\n        /* \"#utility.yul\":3951:4014   */\n      tag_71\n      jump\t// in\n    tag_157:\n        /* \"#utility.yul\":3858:4024   */\n      pop\n        /* \"#utility.yul\":4106:4110   */\n      0x20\n        /* \"#utility.yul\":4099:4104   */\n      dup4\n        /* \"#utility.yul\":4095:4111   */\n      add\n        /* \"#utility.yul\":4089:4112   */\n      mload\n        /* \"#utility.yul\":4159:4162   */\n      dup5\n        /* \"#utility.yul\":4153:4157   */\n      dup3\n        /* \"#utility.yul\":4149:4163   */\n      sub\n        /* \"#utility.yul\":4142:4146   */\n      0x20\n        /* \"#utility.yul\":4137:4140   */\n      dup7\n        /* \"#utility.yul\":4133:4147   */\n      add\n        /* \"#utility.yul\":4126:4164   */\n      mstore\n        /* \"#utility.yul\":4185:4258   */\n      tag_158\n        /* \"#utility.yul\":4253:4257   */\n      dup3\n        /* \"#utility.yul\":4239:4251   */\n      dup3\n        /* \"#utility.yul\":4185:4258   */\n      tag_76\n      jump\t// in\n    tag_158:\n        /* \"#utility.yul\":4177:4258   */\n      swap2\n      pop\n        /* \"#utility.yul\":4034:4269   */\n      pop\n        /* \"#utility.yul\":4352:4356   */\n      0x40\n        /* \"#utility.yul\":4345:4350   */\n      dup4\n        /* \"#utility.yul\":4341:4357   */\n      add\n        /* \"#utility.yul\":4335:4358   */\n      mload\n        /* \"#utility.yul\":4405:4408   */\n      dup5\n        /* \"#utility.yul\":4399:4403   */\n      dup3\n        /* \"#utility.yul\":4395:4409   */\n      sub\n        /* \"#utility.yul\":4388:4392   */\n      0x40\n        /* \"#utility.yul\":4383:4386   */\n      dup7\n        /* \"#utility.yul\":4379:4393   */\n      add\n        /* \"#utility.yul\":4372:4410   */\n      mstore\n        /* \"#utility.yul\":4431:4534   */\n      tag_159\n        /* \"#utility.yul\":4529:4533   */\n      dup3\n        /* \"#utility.yul\":4515:4527   */\n      dup3\n        /* \"#utility.yul\":4431:4534   */\n      tag_82\n      jump\t// in\n    tag_159:\n        /* \"#utility.yul\":4423:4534   */\n      swap2\n      pop\n        /* \"#utility.yul\":4279:4545   */\n      pop\n        /* \"#utility.yul\":4562:4566   */\n      dup1\n        /* \"#utility.yul\":4555:4566   */\n      swap2\n      pop\n        /* \"#utility.yul\":3812:4572   */\n      pop\n        /* \"#utility.yul\":3692:4572   */\n      swap3\n      swap2\n      pop\n      pop\n      jump\t// out\n        /* \"#utility.yul\":4578:4943   */\n    tag_12:\n        /* \"#utility.yul\":4717:4721   */\n      0x00\n        /* \"#utility.yul\":4755:4757   */\n      0x20\n        /* \"#utility.yul\":4744:4753   */\n      dup3\n        /* \"#utility.yul\":4740:4758   */\n      add\n        /* \"#utility.yul\":4732:4758   */\n      swap1\n      pop\n        /* \"#utility.yul\":4804:4813   */\n      dup2\n        /* \"#utility.yul\":4798:4802   */\n      dup2\n        /* \"#utility.yul\":4794:4814   */\n      sub\n        /* \"#utility.yul\":4790:4791   */\n      0x00\n        /* \"#utility.yul\":4779:4788   */\n      dup4\n        /* \"#utility.yul\":4775:4792   */\n      add\n        /* \"#utility.yul\":4768:4815   */\n      mstore\n        /* \"#utility.yul\":4832:4936   */\n      tag_161\n        /* \"#utility.yul\":4931:4935   */\n      dup2\n        /* \"#utility.yul\":4922:4928   */\n      dup5\n        /* \"#utility.yul\":4832:4936   */\n      tag_83\n      jump\t// in\n    tag_161:\n        /* \"#utility.yul\":4824:4936   */\n      swap1\n      pop\n        /* \"#utility.yul\":4578:4943   */\n      swap3\n      swap2\n      pop\n      pop\n      jump\t// out\n        /* \"#utility.yul\":4949:5066   */\n    tag_84:\n        /* \"#utility.yul\":5058:5059   */\n      0x00\n        /* \"#utility.yul\":5055:5056   */\n      dup1\n        /* \"#utility.yul\":5048:5060   */\n      revert\n        /* \"#utility.yul\":5072:5189   */\n    tag_85:\n        /* \"#utility.yul\":5181:5182   */\n      0x00\n        /* \"#utility.yul\":5178:5179   */\n      dup1\n        /* \"#utility.yul\":5171:5183   */\n      revert\n        /* \"#utility.yul\":5195:5312   */\n    tag_86:\n        /* \"#utility.yul\":5304:5305   */\n      0x00\n        /* \"#utility.yul\":5301:5302   */\n      dup1\n        /* \"#utility.yul\":5294:5306   */\n      revert\n        /* \"#utility.yul\":5332:5885   */\n    tag_87:\n        /* \"#utility.yul\":5390:5398   */\n      0x00\n        /* \"#utility.yul\":5400:5406   */\n      dup1\n        /* \"#utility.yul\":5450:5453   */\n      dup4\n        /* \"#utility.yul\":5443:5447   */\n      0x1f\n        /* \"#utility.yul\":5435:5441   */\n      dup5\n        /* \"#utility.yul\":5431:5448   */\n      add\n        /* \"#utility.yul\":5427:5454   */\n      slt\n        /* \"#utility.yul\":5417:5539   */\n      tag_166\n      jumpi\n        /* \"#utility.yul\":5458:5537   */\n      tag_167\n      tag_84\n      jump\t// in\n    tag_167:\n        /* \"#utility.yul\":5417:5539   */\n    tag_166:\n        /* \"#utility.yul\":5571:5577   */\n      dup3\n        /* \"#utility.yul\":5558:5578   */\n      calldataload\n        /* \"#utility.yul\":5548:5578   */\n      swap1\n      pop\n        /* \"#utility.yul\":5601:5619   */\n      0xffffffffffffffff\n        /* \"#utility.yul\":5593:5599   */\n      dup2\n        /* \"#utility.yul\":5590:5620   */\n      gt\n        /* \"#utility.yul\":5587:5704   */\n      iszero\n      tag_168\n      jumpi\n        /* \"#utility.yul\":5623:5702   */\n      tag_169\n      tag_85\n      jump\t// in\n    tag_169:\n        /* \"#utility.yul\":5587:5704   */\n    tag_168:\n        /* \"#utility.yul\":5737:5741   */\n      0x20\n        /* \"#utility.yul\":5729:5735   */\n      dup4\n        /* \"#utility.yul\":5725:5742   */\n      add\n        /* \"#utility.yul\":5713:5742   */\n      swap2\n      pop\n        /* \"#utility.yul\":5791:5794   */\n      dup4\n        /* \"#utility.yul\":5783:5787   */\n      0x01\n        /* \"#utility.yul\":5775:5781   */\n      dup3\n        /* \"#utility.yul\":5771:5788   */\n      mul\n        /* \"#utility.yul\":5761:5769   */\n      dup4\n        /* \"#utility.yul\":5757:5789   */\n      add\n        /* \"#utility.yul\":5754:5795   */\n      gt\n        /* \"#utility.yul\":5751:5879   */\n      iszero\n      tag_170\n      jumpi\n        /* \"#utility.yul\":5798:5877   */\n      tag_171\n      tag_86\n      jump\t// in\n    tag_171:\n        /* \"#utility.yul\":5751:5879   */\n    tag_170:\n        /* \"#utility.yul\":5332:5885   */\n      swap3\n      pop\n      swap3\n      swap1\n      pop\n      jump\t// out\n        /* \"#utility.yul\":5909:6158   */\n    tag_88:\n        /* \"#utility.yul\":5980:5988   */\n      0x00\n        /* \"#utility.yul\":6011:6017   */\n      dup2\n        /* \"#utility.yul\":5999:6017   */\n      swap1\n      pop\n        /* \"#utility.yul\":6064:6067   */\n      dup3\n        /* \"#utility.yul\":6056:6060   */\n      0x20\n        /* \"#utility.yul\":6050:6054   */\n      0x03\n        /* \"#utility.yul\":6046:6061   */\n      mul\n        /* \"#utility.yul\":6036:6044   */\n      dup3\n        /* \"#utility.yul\":6032:6062   */\n      add\n        /* \"#utility.yul\":6029:6068   */\n      gt\n        /* \"#utility.yul\":6026:6152   */\n      iszero\n      tag_173\n      jumpi\n        /* \"#utility.yul\":6071:6150   */\n      tag_174\n      tag_86\n      jump\t// in\n    tag_174:\n        /* \"#utility.yul\":6026:6152   */\n    tag_173:\n        /* \"#utility.yul\":5909:6158   */\n      swap3\n      swap2\n      pop\n      pop\n      jump\t// out\n        /* \"#utility.yul\":6164:7034   */\n    tag_18:\n        /* \"#utility.yul\":6278:6284   */\n      0x00\n        /* \"#utility.yul\":6286:6292   */\n      dup1\n        /* \"#utility.yul\":6294:6300   */\n      0x00\n        /* \"#utility.yul\":6302:6308   */\n      dup1\n        /* \"#utility.yul\":6351:6354   */\n      0xa0\n        /* \"#utility.yul\":6339:6348   */\n      dup6\n        /* \"#utility.yul\":6330:6337   */\n      dup8\n        /* \"#utility.yul\":6326:6349   */\n      sub\n        /* \"#utility.yul\":6322:6355   */\n      slt\n        /* \"#utility.yul\":6319:6439   */\n      iszero\n      tag_176\n      jumpi\n        /* \"#utility.yul\":6358:6437   */\n      tag_177\n      tag_66\n      jump\t// in\n    tag_177:\n        /* \"#utility.yul\":6319:6439   */\n    tag_176:\n        /* \"#utility.yul\":6478:6479   */\n      0x00\n        /* \"#utility.yul\":6503:6556   */\n      tag_178\n        /* \"#utility.yul\":6548:6555   */\n      dup8\n        /* \"#utility.yul\":6539:6545   */\n      dup3\n        /* \"#utility.yul\":6528:6537   */\n      dup9\n        /* \"#utility.yul\":6524:6546   */\n      add\n        /* \"#utility.yul\":6503:6556   */\n      tag_70\n      jump\t// in\n    tag_178:\n        /* \"#utility.yul\":6493:6556   */\n      swap5\n      pop\n        /* \"#utility.yul\":6449:6566   */\n      pop\n        /* \"#utility.yul\":6633:6635   */\n      0x20\n        /* \"#utility.yul\":6622:6631   */\n      dup6\n        /* \"#utility.yul\":6618:6636   */\n      add\n        /* \"#utility.yul\":6605:6637   */\n      calldataload\n        /* \"#utility.yul\":6664:6682   */\n      0xffffffffffffffff\n        /* \"#utility.yul\":6656:6662   */\n      dup2\n        /* \"#utility.yul\":6653:6683   */\n      gt\n        /* \"#utility.yul\":6650:6767   */\n      iszero\n      tag_179\n      jumpi\n        /* \"#utility.yul\":6686:6765   */\n      tag_180\n      tag_67\n      jump\t// in\n    tag_180:\n        /* \"#utility.yul\":6650:6767   */\n    tag_179:\n        /* \"#utility.yul\":6799:6864   */\n      tag_181\n        /* \"#utility.yul\":6856:6863   */\n      dup8\n        /* \"#utility.yul\":6847:6853   */\n      dup3\n        /* \"#utility.yul\":6836:6845   */\n      dup9\n        /* \"#utility.yul\":6832:6854   */\n      add\n        /* \"#utility.yul\":6799:6864   */\n      tag_87\n      jump\t// in\n    tag_181:\n        /* \"#utility.yul\":6781:6864   */\n      swap4\n      pop\n      swap4\n      pop\n        /* \"#utility.yul\":6576:6874   */\n      pop\n        /* \"#utility.yul\":6913:6915   */\n      0x40\n        /* \"#utility.yul\":6939:7017   */\n      tag_182\n        /* \"#utility.yul\":7009:7016   */\n      dup8\n        /* \"#utility.yul\":7000:7006   */\n      dup3\n        /* \"#utility.yul\":6989:6998   */\n      dup9\n        /* \"#utility.yul\":6985:7007   */\n      add\n        /* \"#utility.yul\":6939:7017   */\n      tag_88\n      jump\t// in\n    tag_182:\n        /* \"#utility.yul\":6929:7017   */\n      swap2\n      pop\n        /* \"#utility.yul\":6884:7027   */\n      pop\n        /* \"#utility.yul\":6164:7034   */\n      swap3\n      swap6\n      swap2\n      swap5\n      pop\n      swap3\n      pop\n      jump\t// out\n        /* \"#utility.yul\":7040:7166   */\n    tag_89:\n        /* \"#utility.yul\":7077:7084   */\n      0x00\n        /* \"#utility.yul\":7117:7159   */\n      0xffffffffffffffffffffffffffffffffffffffff\n        /* \"#utility.yul\":7110:7115   */\n      dup3\n        /* \"#utility.yul\":7106:7160   */\n      and\n        /* \"#utility.yul\":7095:7160   */\n      swap1\n      pop\n        /* \"#utility.yul\":7040:7166   */\n      swap2\n      swap1\n      pop\n      jump\t// out\n        /* \"#utility.yul\":7172:7268   */\n    tag_90:\n        /* \"#utility.yul\":7209:7216   */\n      0x00\n        /* \"#utility.yul\":7238:7262   */\n      tag_185\n        /* \"#utility.yul\":7256:7261   */\n      dup3\n        /* \"#utility.yul\":7238:7262   */\n      tag_89\n      jump\t// in\n    tag_185:\n        /* \"#utility.yul\":7227:7262   */\n      swap1\n      pop\n        /* \"#utility.yul\":7172:7268   */\n      swap2\n      swap1\n      pop\n      jump\t// out\n        /* \"#utility.yul\":7274:7392   */\n    tag_91:\n        /* \"#utility.yul\":7361:7385   */\n      tag_187\n        /* \"#utility.yul\":7379:7384   */\n      dup2\n        /* \"#utility.yul\":7361:7385   */\n      tag_90\n      jump\t// in\n    tag_187:\n        /* \"#utility.yul\":7356:7359   */\n      dup3\n        /* \"#utility.yul\":7349:7386   */\n      mstore\n        /* \"#utility.yul\":7274:7392   */\n      pop\n      pop\n      jump\t// out\n        /* \"#utility.yul\":7398:7620   */\n    tag_23:\n        /* \"#utility.yul\":7491:7495   */\n      0x00\n        /* \"#utility.yul\":7529:7531   */\n      0x20\n        /* \"#utility.yul\":7518:7527   */\n      dup3\n        /* \"#utility.yul\":7514:7532   */\n      add\n        /* \"#utility.yul\":7506:7532   */\n      swap1\n      pop\n        /* \"#utility.yul\":7542:7613   */\n      tag_189\n        /* \"#utility.yul\":7610:7611   */\n      0x00\n        /* \"#utility.yul\":7599:7608   */\n      dup4\n        /* \"#utility.yul\":7595:7612   */\n      add\n        /* \"#utility.yul\":7586:7592   */\n      dup5\n        /* \"#utility.yul\":7542:7613   */\n      tag_91\n      jump\t// in\n    tag_189:\n        /* \"#utility.yul\":7398:7620   */\n      swap3\n      swap2\n      pop\n      pop\n      jump\t// out\n        /* \"#utility.yul\":7626:7795   */\n    tag_92:\n        /* \"#utility.yul\":7710:7721   */\n      0x00\n        /* \"#utility.yul\":7744:7750   */\n      dup3\n        /* \"#utility.yul\":7739:7742   */\n      dup3\n        /* \"#utility.yul\":7732:7751   */\n      mstore\n        /* \"#utility.yul\":7784:7788   */\n      0x20\n        /* \"#utility.yul\":7779:7782   */\n      dup3\n        /* \"#utility.yul\":7775:7789   */\n      add\n        /* \"#utility.yul\":7760:7789   */\n      swap1\n      pop\n        /* \"#utility.yul\":7626:7795   */\n      swap3\n      swap2\n      pop\n      pop\n      jump\t// out\n        /* \"#utility.yul\":7801:7972   */\n    tag_93:\n        /* \"#utility.yul\":7941:7964   */\n      0x596f7520617265206e6f7420746865206f776e65720000000000000000000000\n        /* \"#utility.yul\":7937:7938   */\n      0x00\n        /* \"#utility.yul\":7929:7935   */\n      dup3\n        /* \"#utility.yul\":7925:7939   */\n      add\n        /* \"#utility.yul\":7918:7965   */\n      mstore\n        /* \"#utility.yul\":7801:7972   */\n      pop\n      jump\t// out\n        /* \"#utility.yul\":7978:8344   */\n    tag_94:\n        /* \"#utility.yul\":8120:8123   */\n      0x00\n        /* \"#utility.yul\":8141:8208   */\n      tag_193\n        /* \"#utility.yul\":8205:8207   */\n      0x15\n        /* \"#utility.yul\":8200:8203   */\n      dup4\n        /* \"#utility.yul\":8141:8208   */\n      tag_92\n      jump\t// in\n    tag_193:\n        /* \"#utility.yul\":8134:8208   */\n      swap2\n      pop\n        /* \"#utility.yul\":8217:8310   */\n      tag_194\n        /* \"#utility.yul\":8306:8309   */\n      dup3\n        /* \"#utility.yul\":8217:8310   */\n      tag_93\n      jump\t// in\n    tag_194:\n        /* \"#utility.yul\":8335:8337   */\n      0x20\n        /* \"#utility.yul\":8330:8333   */\n      dup3\n        /* \"#utility.yul\":8326:8338   */\n      add\n        /* \"#utility.yul\":8319:8338   */\n      swap1\n      pop\n        /* \"#utility.yul\":7978:8344   */\n      swap2\n      swap1\n      pop\n      jump\t// out\n        /* \"#utility.yul\":8350:8769   */\n    tag_29:\n        /* \"#utility.yul\":8516:8520   */\n      0x00\n        /* \"#utility.yul\":8554:8556   */\n      0x20\n        /* \"#utility.yul\":8543:8552   */\n      dup3\n        /* \"#utility.yul\":8539:8557   */\n      add\n        /* \"#utility.yul\":8531:8557   */\n      swap1\n      pop\n        /* \"#utility.yul\":8603:8612   */\n      dup2\n        /* \"#utility.yul\":8597:8601   */\n      dup2\n        /* \"#utility.yul\":8593:8613   */\n      sub\n        /* \"#utility.yul\":8589:8590   */\n      0x00\n        /* \"#utility.yul\":8578:8587   */\n      dup4\n        /* \"#utility.yul\":8574:8591   */\n      add\n        /* \"#utility.yul\":8567:8614   */\n      mstore\n        /* \"#utility.yul\":8631:8762   */\n      tag_196\n        /* \"#utility.yul\":8757:8761   */\n      dup2\n        /* \"#utility.yul\":8631:8762   */\n      tag_94\n      jump\t// in\n    tag_196:\n        /* \"#utility.yul\":8623:8762   */\n      swap1\n      pop\n        /* \"#utility.yul\":8350:8769   */\n      swap2\n      swap1\n      pop\n      jump\t// out\n        /* \"#utility.yul\":8775:8955   */\n    tag_95:\n        /* \"#utility.yul\":8823:8900   */\n      0x4e487b7100000000000000000000000000000000000000000000000000000000\n        /* \"#utility.yul\":8820:8821   */\n      0x00\n        /* \"#utility.yul\":8813:8901   */\n      mstore\n        /* \"#utility.yul\":8920:8924   */\n      0x22\n        /* \"#utility.yul\":8917:8918   */\n      0x04\n        /* \"#utility.yul\":8910:8925   */\n      mstore\n        /* \"#utility.yul\":8944:8948   */\n      0x24\n        /* \"#utility.yul\":8941:8942   */\n      0x00\n        /* \"#utility.yul\":8934:8949   */\n      revert\n        /* \"#utility.yul\":8961:9281   */\n    tag_31:\n        /* \"#utility.yul\":9005:9011   */\n      0x00\n        /* \"#utility.yul\":9042:9043   */\n      0x02\n        /* \"#utility.yul\":9036:9040   */\n      dup3\n        /* \"#utility.yul\":9032:9044   */\n      div\n        /* \"#utility.yul\":9022:9044   */\n      swap1\n      pop\n        /* \"#utility.yul\":9089:9090   */\n      0x01\n        /* \"#utility.yul\":9083:9087   */\n      dup3\n        /* \"#utility.yul\":9079:9091   */\n      and\n        /* \"#utility.yul\":9110:9128   */\n      dup1\n        /* \"#utility.yul\":9100:9181   */\n      tag_199\n      jumpi\n        /* \"#utility.yul\":9166:9170   */\n      0x7f\n        /* \"#utility.yul\":9158:9164   */\n      dup3\n        /* \"#utility.yul\":9154:9171   */\n      and\n        /* \"#utility.yul\":9144:9171   */\n      swap2\n      pop\n        /* \"#utility.yul\":9100:9181   */\n    tag_199:\n        /* \"#utility.yul\":9228:9230   */\n      0x20\n        /* \"#utility.yul\":9220:9226   */\n      dup3\n        /* \"#utility.yul\":9217:9231   */\n      lt\n        /* \"#utility.yul\":9197:9215   */\n      dup2\n        /* \"#utility.yul\":9194:9232   */\n      sub\n        /* \"#utility.yul\":9191:9275   */\n      tag_200\n      jumpi\n        /* \"#utility.yul\":9247:9265   */\n      tag_201\n      tag_95\n      jump\t// in\n    tag_201:\n        /* \"#utility.yul\":9191:9275   */\n    tag_200:\n        /* \"#utility.yul\":9012:9281   */\n      pop\n        /* \"#utility.yul\":8961:9281   */\n      swap2\n      swap1\n      pop\n      jump\t// out\n        /* \"#utility.yul\":9287:9384   */\n    tag_96:\n        /* \"#utility.yul\":9346:9352   */\n      0x00\n        /* \"#utility.yul\":9374:9377   */\n      dup3\n        /* \"#utility.yul\":9364:9377   */\n      swap1\n      pop\n        /* \"#utility.yul\":9287:9384   */\n      swap3\n      swap2\n      pop\n      pop\n      jump\t// out\n        /* \"#utility.yul\":9390:9570   */\n    tag_97:\n        /* \"#utility.yul\":9438:9515   */\n      0x4e487b7100000000000000000000000000000000000000000000000000000000\n        /* \"#utility.yul\":9435:9436   */\n      0x00\n        /* \"#utility.yul\":9428:9516   */\n      mstore\n        /* \"#utility.yul\":9535:9539   */\n      0x41\n        /* \"#utility.yul\":9532:9533   */\n      0x04\n        /* \"#utility.yul\":9525:9540   */\n      mstore\n        /* \"#utility.yul\":9559:9563   */\n      0x24\n        /* \"#utility.yul\":9556:9557   */\n      0x00\n        /* \"#utility.yul\":9549:9564   */\n      revert\n        /* \"#utility.yul\":9576:9717   */\n    tag_98:\n        /* \"#utility.yul\":9625:9629   */\n      0x00\n        /* \"#utility.yul\":9648:9651   */\n      dup2\n        /* \"#utility.yul\":9640:9651   */\n      swap1\n      pop\n        /* \"#utility.yul\":9671:9674   */\n      dup2\n        /* \"#utility.yul\":9668:9669   */\n      0x00\n        /* \"#utility.yul\":9661:9675   */\n      mstore\n        /* \"#utility.yul\":9705:9709   */\n      0x20\n        /* \"#utility.yul\":9702:9703   */\n      0x00\n        /* \"#utility.yul\":9692:9710   */\n      keccak256\n        /* \"#utility.yul\":9684:9710   */\n      swap1\n      pop\n        /* \"#utility.yul\":9576:9717   */\n      swap2\n      swap1\n      pop\n      jump\t// out\n        /* \"#utility.yul\":9723:9816   */\n    tag_99:\n        /* \"#utility.yul\":9760:9766   */\n      0x00\n        /* \"#utility.yul\":9807:9809   */\n      0x20\n        /* \"#utility.yul\":9802:9804   */\n      0x1f\n        /* \"#utility.yul\":9795:9800   */\n      dup4\n        /* \"#utility.yul\":9791:9805   */\n      add\n        /* \"#utility.yul\":9787:9810   */\n      div\n        /* \"#utility.yul\":9777:9810   */\n      swap1\n      pop\n        /* \"#utility.yul\":9723:9816   */\n      swap2\n      swap1\n      pop\n      jump\t// out\n        /* \"#utility.yul\":9822:9929   */\n    tag_100:\n        /* \"#utility.yul\":9866:9874   */\n      0x00\n        /* \"#utility.yul\":9916:9921   */\n      dup3\n        /* \"#utility.yul\":9910:9914   */\n      dup3\n        /* \"#utility.yul\":9906:9922   */\n      shl\n        /* \"#utility.yul\":9885:9922   */\n      swap1\n      pop\n        /* \"#utility.yul\":9822:9929   */\n      swap3\n      swap2\n      pop\n      pop\n      jump\t// out\n        /* \"#utility.yul\":9935:10328   */\n    tag_101:\n        /* \"#utility.yul\":10004:10010   */\n      0x00\n        /* \"#utility.yul\":10054:10055   */\n      0x08\n        /* \"#utility.yul\":10042:10052   */\n      dup4\n        /* \"#utility.yul\":10038:10056   */\n      mul\n        /* \"#utility.yul\":10077:10174   */\n      tag_208\n        /* \"#utility.yul\":10107:10173   */\n      0xffffffffffffffffffffffffffffffffffffffffffffffffffffffffffffffff\n        /* \"#utility.yul\":10096:10105   */\n      dup3\n        /* \"#utility.yul\":10077:10174   */\n      tag_100\n      jump\t// in\n    tag_208:\n        /* \"#utility.yul\":10195:10234   */\n      tag_209\n        /* \"#utility.yul\":10225:10233   */\n      dup7\n        /* \"#utility.yul\":10214:10223   */\n      dup4\n        /* \"#utility.yul\":10195:10234   */\n      tag_100\n      jump\t// in\n    tag_209:\n        /* \"#utility.yul\":10183:10234   */\n      swap6\n      pop\n        /* \"#utility.yul\":10267:10271   */\n      dup1\n        /* \"#utility.yul\":10263:10272   */\n      not\n        /* \"#utility.yul\":10256:10261   */\n      dup5\n        /* \"#utility.yul\":10252:10273   */\n      and\n        /* \"#utility.yul\":10243:10273   */\n      swap4\n      pop\n        /* \"#utility.yul\":10316:10320   */\n      dup1\n        /* \"#utility.yul\":10306:10314   */\n      dup7\n        /* \"#utility.yul\":10302:10321   */\n      and\n        /* \"#utility.yul\":10295:10300   */\n      dup5\n        /* \"#utility.yul\":10292:10322   */\n      or\n        /* \"#utility.yul\":10282:10322   */\n      swap3\n      pop\n        /* \"#utility.yul\":10011:10328   */\n      pop\n      pop\n        /* \"#utility.yul\":9935:10328   */\n      swap4\n      swap3\n      pop\n      pop\n      pop\n      jump\t// out\n        /* \"#utility.yul\":10334:10394   */\n    tag_102:\n        /* \"#utility.yul\":10362:10365   */\n      0x00\n        /* \"#utility.yul\":10383:10388   */\n      dup2\n        /* \"#utility.yul\":10376:10388   */\n      swap1\n      pop\n        /* \"#utility.yul\":10334:10394   */\n      swap2\n      swap1\n      pop\n      jump\t// out\n        /* \"#utility.yul\":10400:10542   */\n    tag_103:\n        /* \"#utility.yul\":10450:10459   */\n      0x00\n        /* \"#utility.yul\":10483:10536   */\n      tag_212\n        /* \"#utility.yul\":10501:10535   */\n      tag_213\n        /* \"#utility.yul\":10510:10534   */\n      tag_214\n        /* \"#utility.yul\":10528:10533   */\n      dup5\n        /* \"#utility.yul\":10510:10534   */\n      tag_68\n      jump\t// in\n    tag_214:\n        /* \"#utility.yul\":10501:10535   */\n      tag_102\n      jump\t// in\n    tag_213:\n        /* \"#utility.yul\":10483:10536   */\n      tag_68\n      jump\t// in\n    tag_212:\n        /* \"#utility.yul\":10470:10536   */\n      swap1\n      pop\n        /* \"#utility.yul\":10400:10542   */\n      swap2\n      swap1\n      pop\n      jump\t// out\n        /* \"#utility.yul\":10548:10623   */\n    tag_104:\n        /* \"#utility.yul\":10591:10594   */\n      0x00\n        /* \"#utility.yul\":10612:10617   */\n      dup2\n        /* \"#utility.yul\":10605:10617   */\n      swap1\n      pop\n        /* \"#utility.yul\":10548:10623   */\n      swap2\n      swap1\n      pop\n      jump\t// out\n        /* \"#utility.yul\":10629:10898   */\n    tag_105:\n        /* \"#utility.yul\":10739:10778   */\n      tag_217\n        /* \"#utility.yul\":10770:10777   */\n      dup4\n        /* \"#utility.yul\":10739:10778   */\n      tag_103\n      jump\t// in\n    tag_217:\n        /* \"#utility.yul\":10800:10891   */\n      tag_218\n        /* \"#utility.yul\":10849:10890   */\n      tag_219\n        /* \"#utility.yul\":10873:10889   */\n      dup3\n        /* \"#utility.yul\":10849:10890   */\n      tag_104\n      jump\t// in\n    tag_219:\n        /* \"#utility.yul\":10841:10847   */\n      dup5\n        /* \"#utility.yul\":10834:10838   */\n      dup5\n        /* \"#utility.yul\":10828:10839   */\n      sload\n        /* \"#utility.yul\":10800:10891   */\n      tag_101\n      jump\t// in\n    tag_218:\n        /* \"#utility.yul\":10794:10798   */\n      dup3\n        /* \"#utility.yul\":10787:10892   */\n      sstore\n        /* \"#utility.yul\":10705:10898   */\n      pop\n        /* \"#utility.yul\":10629:10898   */\n      pop\n      pop\n      pop\n      jump\t// out\n        /* \"#utility.yul\":10904:10977   */\n    tag_106:\n        /* \"#utility.yul\":10949:10952   */\n      0x00\n        /* \"#utility.yul\":10904:10977   */\n      swap1\n      jump\t// out\n        /* \"#utility.yul\":10983:11172   */\n    tag_107:\n        /* \"#utility.yul\":11060:11092   */\n      tag_222\n      tag_106\n      jump\t// in\n    tag_222:\n        /* \"#utility.yul\":11101:11166   */\n      tag_223\n        /* \"#utility.yul\":11159:11165   */\n      dup2\n        /* \"#utility.yul\":11151:11157   */\n      dup5\n        /* \"#utility.yul\":11145:11149   */\n      dup5\n        /* \"#utility.yul\":11101:11166   */\n      tag_105\n      jump\t// in\n    tag_223:\n        /* \"#utility.yul\":11036:11172   */\n      pop\n        /* \"#utility.yul\":10983:11172   */\n      pop\n      pop\n      jump\t// out\n        /* \"#utility.yul\":11178:11364   */\n    tag_108:\n        /* \"#utility.yul\":11238:11358   */\n    tag_225:\n        /* \"#utility.yul\":11255:11258   */\n      dup2\n        /* \"#utility.yul\":11248:11253   */\n      dup2\n        /* \"#utility.yul\":11245:11259   */\n      lt\n        /* \"#utility.yul\":11238:11358   */\n      iszero\n      tag_227\n      jumpi\n        /* \"#utility.yul\":11309:11348   */\n      tag_228\n        /* \"#utility.yul\":11346:11347   */\n      0x00\n        /* \"#utility.yul\":11339:11344   */\n      dup3\n        /* \"#utility.yul\":11309:11348   */\n      tag_107\n      jump\t// in\n    tag_228:\n        /* \"#utility.yul\":11282:11283   */\n      0x01\n        /* \"#utility.yul\":11275:11280   */\n      dup2\n        /* \"#utility.yul\":11271:11284   */\n      add\n        /* \"#utility.yul\":11262:11284   */\n      swap1\n      pop\n        /* \"#utility.yul\":11238:11358   */\n      jump(tag_225)\n    tag_227:\n        /* \"#utility.yul\":11178:11364   */\n      pop\n      pop\n      jump\t// out\n        /* \"#utility.yul\":11370:11913   */\n    tag_109:\n        /* \"#utility.yul\":11471:11473   */\n      0x1f\n        /* \"#utility.yul\":11466:11469   */\n      dup3\n        /* \"#utility.yul\":11463:11474   */\n      gt\n        /* \"#utility.yul\":11460:11906   */\n      iszero\n      tag_230\n      jumpi\n        /* \"#utility.yul\":11505:11543   */\n      tag_231\n        /* \"#utility.yul\":11537:11542   */\n      dup2\n        /* \"#utility.yul\":11505:11543   */\n      tag_98\n      jump\t// in\n    tag_231:\n        /* \"#utility.yul\":11589:11618   */\n      tag_232\n        /* \"#utility.yul\":11607:11617   */\n      dup5\n        /* \"#utility.yul\":11589:11618   */\n      tag_99\n      jump\t// in\n    tag_232:\n        /* \"#utility.yul\":11579:11587   */\n      dup2\n        /* \"#utility.yul\":11575:11619   */\n      add\n        /* \"#utility.yul\":11772:11774   */\n      0x20\n        /* \"#utility.yul\":11760:11770   */\n      dup6\n        /* \"#utility.yul\":11757:11775   */\n      lt\n        /* \"#utility.yul\":11754:11803   */\n      iszero\n      tag_233\n      jumpi\n        /* \"#utility.yul\":11793:11801   */\n      dup2\n        /* \"#utility.yul\":11778:11801   */\n      swap1\n      pop\n        /* \"#utility.yul\":11754:11803   */\n    tag_233:\n        /* \"#utility.yul\":11816:11896   */\n      tag_234\n        /* \"#utility.yul\":11872:11894   */\n      tag_235\n        /* \"#utility.yul\":11890:11893   */\n      dup6\n        /* \"#utility.yul\":11872:11894   */\n      tag_99\n      jump\t// in\n    tag_235:\n        /* \"#utility.yul\":11862:11870   */\n      dup4\n        /* \"#utility.yul\":11858:11895   */\n      add\n        /* \"#utility.yul\":11845:11856   */\n      dup3\n        /* \"#utility.yul\":11816:11896   */\n      tag_108\n      jump\t// in\n    tag_234:\n        /* \"#utility.yul\":11475:11906   */\n      pop\n      pop\n        /* \"#utility.yul\":11460:11906   */\n    tag_230:\n        /* \"#utility.yul\":11370:11913   */\n      pop\n      pop\n      pop\n      jump\t// out\n        /* \"#utility.yul\":11919:12036   */\n    tag_110:\n        /* \"#utility.yul\":11973:11981   */\n      0x00\n        /* \"#utility.yul\":12023:12028   */\n      dup3\n        /* \"#utility.yul\":12017:12021   */\n      dup3\n        /* \"#utility.yul\":12013:12029   */\n      shr\n        /* \"#utility.yul\":11992:12029   */\n      swap1\n      pop\n        /* \"#utility.yul\":11919:12036   */\n      swap3\n      swap2\n      pop\n      pop\n      jump\t// out\n        /* \"#utility.yul\":12042:12211   */\n    tag_111:\n        /* \"#utility.yul\":12086:12092   */\n      0x00\n        /* \"#utility.yul\":12119:12170   */\n      tag_238\n        /* \"#utility.yul\":12167:12168   */\n      0x00\n        /* \"#utility.yul\":12163:12169   */\n      not\n        /* \"#utility.yul\":12155:12160   */\n      dup5\n        /* \"#utility.yul\":12152:12153   */\n      0x08\n        /* \"#utility.yul\":12148:12161   */\n      mul\n        /* \"#utility.yul\":12119:12170   */\n      tag_110\n      jump\t// in\n    tag_238:\n        /* \"#utility.yul\":12115:12171   */\n      not\n        /* \"#utility.yul\":12200:12204   */\n      dup1\n        /* \"#utility.yul\":12194:12198   */\n      dup4\n        /* \"#utility.yul\":12190:12205   */\n      and\n        /* \"#utility.yul\":12180:12205   */\n      swap2\n      pop\n        /* \"#utility.yul\":12093:12211   */\n      pop\n        /* \"#utility.yul\":12042:12211   */\n      swap3\n      swap2\n      pop\n      pop\n      jump\t// out\n        /* \"#utility.yul\":12216:12511   */\n    tag_112:\n        /* \"#utility.yul\":12292:12296   */\n      0x00\n        /* \"#utility.yul\":12438:12467   */\n      tag_240\n        /* \"#utility.yul\":12463:12466   */\n      dup4\n        /* \"#utility.yul\":12457:12461   */\n      dup4\n        /* \"#utility.yul\":12438:12467   */\n      tag_111\n      jump\t// in\n    tag_240:\n        /* \"#utility.yul\":12430:12467   */\n      swap2\n      pop\n        /* \"#utility.yul\":12500:12503   */\n      dup3\n        /* \"#utility.yul\":12497:12498   */\n      0x02\n        /* \"#utility.yul\":12493:12504   */\n      mul\n        /* \"#utility.yul\":12487:12491   */\n      dup3\n        /* \"#utility.yul\":12484:12505   */\n      or\n        /* \"#utility.yul\":12476:12505   */\n      swap1\n      pop\n        /* \"#utility.yul\":12216:12511   */\n      swap3\n      swap2\n      pop\n      pop\n      jump\t// out\n        /* \"#utility.yul\":12516:13919   */\n    tag_49:\n        /* \"#utility.yul\":12640:12684   */\n      tag_242\n        /* \"#utility.yul\":12680:12683   */\n      dup4\n        /* \"#utility.yul\":12675:12678   */\n      dup4\n        /* \"#utility.yul\":12640:12684   */\n      tag_96\n      jump\t// in\n    tag_242:\n        /* \"#utility.yul\":12749:12767   */\n      0xffffffffffffffff\n        /* \"#utility.yul\":12741:12747   */\n      dup2\n        /* \"#utility.yul\":12738:12768   */\n      gt\n        /* \"#utility.yul\":12735:12791   */\n      iszero\n      tag_243\n      jumpi\n        /* \"#utility.yul\":12771:12789   */\n      tag_244\n      tag_97\n      jump\t// in\n    tag_244:\n        /* \"#utility.yul\":12735:12791   */\n    tag_243:\n        /* \"#utility.yul\":12815:12853   */\n      tag_245\n        /* \"#utility.yul\":12847:12851   */\n      dup3\n        /* \"#utility.yul\":12841:12852   */\n      sload\n        /* \"#utility.yul\":12815:12853   */\n      tag_31\n      jump\t// in\n    tag_245:\n        /* \"#utility.yul\":12900:12967   */\n      tag_246\n        /* \"#utility.yul\":12960:12966   */\n      dup3\n        /* \"#utility.yul\":12952:12958   */\n      dup3\n        /* \"#utility.yul\":12946:12950   */\n      dup6\n        /* \"#utility.yul\":12900:12967   */\n      tag_109\n      jump\t// in\n    tag_246:\n        /* \"#utility.yul\":12994:12995   */\n      0x00\n        /* \"#utility.yul\":13023:13025   */\n      0x1f\n        /* \"#utility.yul\":13015:13021   */\n      dup4\n        /* \"#utility.yul\":13012:13026   */\n      gt\n        /* \"#utility.yul\":13040:13041   */\n      0x01\n        /* \"#utility.yul\":13035:13667   */\n      dup2\n      eq\n      tag_248\n      jumpi\n        /* \"#utility.yul\":13711:13712   */\n      0x00\n        /* \"#utility.yul\":13728:13734   */\n      dup5\n        /* \"#utility.yul\":13725:13809   */\n      iszero\n      tag_249\n      jumpi\n        /* \"#utility.yul\":13784:13793   */\n      dup3\n        /* \"#utility.yul\":13779:13782   */\n      dup8\n        /* \"#utility.yul\":13775:13794   */\n      add\n        /* \"#utility.yul\":13762:13795   */\n      calldataload\n        /* \"#utility.yul\":13753:13795   */\n      swap1\n      pop\n        /* \"#utility.yul\":13725:13809   */\n    tag_249:\n        /* \"#utility.yul\":13835:13902   */\n      tag_250\n        /* \"#utility.yul\":13895:13901   */\n      dup6\n        /* \"#utility.yul\":13888:13893   */\n      dup3\n        /* \"#utility.yul\":13835:13902   */\n      tag_112\n      jump\t// in\n    tag_250:\n        /* \"#utility.yul\":13829:13833   */\n      dup7\n        /* \"#utility.yul\":13822:13903   */\n      sstore\n        /* \"#utility.yul\":13684:13913   */\n      pop\n        /* \"#utility.yul\":13005:13913   */\n      jump(tag_247)\n        /* \"#utility.yul\":13035:13667   */\n    tag_248:\n        /* \"#utility.yul\":13087:13091   */\n      0x1f\n        /* \"#utility.yul\":13083:13092   */\n      not\n        /* \"#utility.yul\":13075:13081   */\n      dup5\n        /* \"#utility.yul\":13071:13093   */\n      and\n        /* \"#utility.yul\":13121:13158   */\n      tag_251\n        /* \"#utility.yul\":13153:13157   */\n      dup7\n        /* \"#utility.yul\":13121:13158   */\n      tag_98\n      jump\t// in\n    tag_251:\n        /* \"#utility.yul\":13180:13181   */\n      0x00\n        /* \"#utility.yul\":13194:13409   */\n    tag_252:\n        /* \"#utility.yul\":13208:13215   */\n      dup3\n        /* \"#utility.yul\":13205:13206   */\n      dup2\n        /* \"#utility.yul\":13202:13216   */\n      lt\n        /* \"#utility.yul\":13194:13409   */\n      iszero\n      tag_254\n      jumpi\n        /* \"#utility.yul\":13294:13303   */\n      dup5\n        /* \"#utility.yul\":13289:13292   */\n      dup10\n        /* \"#utility.yul\":13285:13304   */\n      add\n        /* \"#utility.yul\":13272:13305   */\n      calldataload\n        /* \"#utility.yul\":13264:13270   */\n      dup3\n        /* \"#utility.yul\":13257:13306   */\n      sstore\n        /* \"#utility.yul\":13345:13346   */\n      0x01\n        /* \"#utility.yul\":13337:13343   */\n      dup3\n        /* \"#utility.yul\":13333:13347   */\n      add\n        /* \"#utility.yul\":13323:13347   */\n      swap2\n      pop\n        /* \"#utility.yul\":13392:13394   */\n      0x20\n        /* \"#utility.yul\":13381:13390   */\n      dup6\n        /* \"#utility.yul\":13377:13395   */\n      add\n        /* \"#utility.yul\":13364:13395   */\n      swap5\n      pop\n        /* \"#utility.yul\":13231:13235   */\n      0x20\n        /* \"#utility.yul\":13228:13229   */\n      dup2\n        /* \"#utility.yul\":13224:13236   */\n      add\n        /* \"#utility.yul\":13219:13236   */\n      swap1\n      pop\n        /* \"#utility.yul\":13194:13409   */\n      jump(tag_252)\n    tag_254:\n        /* \"#utility.yul\":13437:13443   */\n      dup7\n        /* \"#utility.yul\":13428:13435   */\n      dup4\n        /* \"#utility.yul\":13425:13444   */\n      lt\n        /* \"#utility.yul\":13422:13608   */\n      iszero\n      tag_255\n      jumpi\n        /* \"#utility.yul\":13502:13511   */\n      dup5\n        /* \"#utility.yul\":13497:13500   */\n      dup10\n        /* \"#utility.yul\":13493:13512   */\n      add\n        /* \"#utility.yul\":13480:13513   */\n      calldataload\n        /* \"#utility.yul\":13545:13593   */\n      tag_256\n        /* \"#utility.yul\":13587:13591   */\n      0x1f\n        /* \"#utility.yul\":13579:13585   */\n      dup10\n        /* \"#utility.yul\":13575:13592   */\n      and\n        /* \"#utility.yul\":13564:13573   */\n      dup3\n        /* \"#utility.yul\":13545:13593   */\n      tag_111\n      jump\t// in\n    tag_256:\n        /* \"#utility.yul\":13537:13543   */\n      dup4\n        /* \"#utility.yul\":13530:13594   */\n      sstore\n        /* \"#utility.yul\":13445:13608   */\n      pop\n        /* \"#utility.yul\":13422:13608   */\n    tag_255:\n        /* \"#utility.yul\":13654:13655   */\n      0x01\n        /* \"#utility.yul\":13650:13651   */\n      0x02\n        /* \"#utility.yul\":13642:13648   */\n      dup9\n        /* \"#utility.yul\":13638:13652   */\n      mul\n        /* \"#utility.yul\":13634:13656   */\n      add\n        /* \"#utility.yul\":13628:13632   */\n      dup9\n        /* \"#utility.yul\":13621:13657   */\n      sstore\n        /* \"#utility.yul\":13042:13667   */\n      pop\n      pop\n      pop\n        /* \"#utility.yul\":13005:13913   */\n    tag_247:\n      pop\n        /* \"#utility.yul\":12615:13919   */\n      pop\n      pop\n      pop\n        /* \"#utility.yul\":12516:13919   */\n      pop\n      pop\n      pop\n      jump\t// out\n\n    auxdata: 0xa2646970667358221220ef645f315299106384aecede36253b09c4250d46b5925dc5c568f14e256c747164736f6c63430008120033\n}\n",
				"bytecode": {
					"linkReferences": {},
					"object": "608060405234801561001057600080fd5b50336000806101000a81548173ffffffffffffffffffffffffffffffffffffffff021916908373ffffffffffffffffffffffffffffffffffffffff160217905550610cb4806100606000396000f3fe608060405234801561001057600080fd5b506004361061004c5760003560e01c806303e9e60914610051578063061f9811146100815780635ed110361461009d5780638da5cb5b146100b9575b600080fd5b61006b600480360381019061006691906105a0565b6100d7565b6040516100789190610772565b60405180910390f35b61009b600480360381019061009691906105a0565b610286565b005b6100b760048036038101906100b2919061081b565b610355565b005b6100c1610450565b6040516100ce91906108d0565b60405180910390f35b6100df610474565b60008054906101000a900473ffffffffffffffffffffffffffffffffffffffff1673ffffffffffffffffffffffffffffffffffffffff163373ffffffffffffffffffffffffffffffffffffffff161461016d576040517f08c379a000000000000000000000000000000000000000000000000000000000815260040161016490610948565b60405180910390fd5b60016000838152602001908152602001600020604051806060016040529081600082015481526020016001820180546101a590610997565b80601f01602080910402602001604051908101604052809291908181526020018280546101d190610997565b801561021e5780601f106101f35761010080835404028352916020019161021e565b820191906000526020600020905b81548152906001019060200180831161020157829003601f168201915b505050505081526020016002820180548060200260200160405190810160405280929190818152602001828054801561027657602002820191906000526020600020905b815481526020019060010190808311610262575b5050505050815250509050919050565b60008054906101000a900473ffffffffffffffffffffffffffffffffffffffff1673ffffffffffffffffffffffffffffffffffffffff163373ffffffffffffffffffffffffffffffffffffffff1614610314576040517f08c379a000000000000000000000000000000000000000000000000000000000815260040161030b90610948565b60405180910390fd5b600160008281526020019081526020016000206000808201600090556001820160006103409190610495565b60028201600061035091906104d5565b505050565b60008054906101000a900473ffffffffffffffffffffffffffffffffffffffff1673ffffffffffffffffffffffffffffffffffffffff163373ffffffffffffffffffffffffffffffffffffffff16146103e3576040517f08c379a00000000000000000000000000000000000000000000000000000000081526004016103da90610948565b60405180910390fd5b8360016000868152602001908152602001600020600001819055508282600160008781526020019081526020016000206001019182610423929190610bae565b5080600160008681526020019081526020016000206002019060036104499291906104f6565b5050505050565b60008054906101000a900473ffffffffffffffffffffffffffffffffffffffff1681565b60405180606001604052806000815260200160608152602001606081525090565b5080546104a190610997565b6000825580601f106104b357506104d2565b601f0160209004906000526020600020908101906104d19190610543565b5b50565b50805460008255906000526020600020908101906104f39190610543565b50565b828054828255906000526020600020908101928215610532579160200282015b82811115610531578235825591602001919060010190610516565b5b50905061053f9190610543565b5090565b5b8082111561055c576000816000905550600101610544565b5090565b600080fd5b600080fd5b6000819050919050565b61057d8161056a565b811461058857600080fd5b50565b60008135905061059a81610574565b92915050565b6000602082840312156105b6576105b5610560565b5b60006105c48482850161058b565b91505092915050565b6105d68161056a565b82525050565b600081519050919050565b600082825260208201905092915050565b60005b838110156106165780820151818401526020810190506105fb565b60008484015250505050565b6000601f19601f8301169050919050565b600061063e826105dc565b61064881856105e7565b93506106588185602086016105f8565b61066181610622565b840191505092915050565b600081519050919050565b600082825260208201905092915050565b6000819050602082019050919050565b60006106a483836105cd565b60208301905092915050565b6000602082019050919050565b60006106c88261066c565b6106d28185610677565b93506106dd83610688565b8060005b8381101561070e5781516106f58882610698565b9750610700836106b0565b9250506001810190506106e1565b5085935050505092915050565b600060608301600083015161073360008601826105cd565b506020830151848203602086015261074b8282610633565b9150506040830151848203604086015261076582826106bd565b9150508091505092915050565b6000602082019050818103600083015261078c818461071b565b905092915050565b600080fd5b600080fd5b600080fd5b60008083601f8401126107b9576107b8610794565b5b8235905067ffffffffffffffff8111156107d6576107d5610799565b5b6020830191508360018202830111156107f2576107f161079e565b5b9250929050565b6000819050826020600302820111156108155761081461079e565b5b92915050565b60008060008060a0858703121561083557610834610560565b5b60006108438782880161058b565b945050602085013567ffffffffffffffff81111561086457610863610565565b5b610870878288016107a3565b93509350506040610883878288016107f9565b91505092959194509250565b600073ffffffffffffffffffffffffffffffffffffffff82169050919050565b60006108ba8261088f565b9050919050565b6108ca816108af565b82525050565b60006020820190506108e560008301846108c1565b92915050565b600082825260208201905092915050565b7f596f7520617265206e6f7420746865206f776e65720000000000000000000000600082015250565b60006109326015836108eb565b915061093d826108fc565b602082019050919050565b6000602082019050818103600083015261096181610925565b9050919050565b7f4e487b7100000000000000000000000000000000000000000000000000000000600052602260045260246000fd5b600060028204905060018216806109af57607f821691505b6020821081036109c2576109c1610968565b5b50919050565b600082905092915050565b7f4e487b7100000000000000000000000000000000000000000000000000000000600052604160045260246000fd5b60008190508160005260206000209050919050565b60006020601f8301049050919050565b600082821b905092915050565b600060088302610a647fffffffffffffffffffffffffffffffffffffffffffffffffffffffffffffffff82610a27565b610a6e8683610a27565b95508019841693508086168417925050509392505050565b6000819050919050565b6000610aab610aa6610aa18461056a565b610a86565b61056a565b9050919050565b6000819050919050565b610ac583610a90565b610ad9610ad182610ab2565b848454610a34565b825550505050565b600090565b610aee610ae1565b610af9818484610abc565b505050565b5b81811015610b1d57610b12600082610ae6565b600181019050610aff565b5050565b601f821115610b6257610b3381610a02565b610b3c84610a17565b81016020851015610b4b578190505b610b5f610b5785610a17565b830182610afe565b50505b505050565b600082821c905092915050565b6000610b8560001984600802610b67565b1980831691505092915050565b6000610b9e8383610b74565b9150826002028217905092915050565b610bb883836109c8565b67ffffffffffffffff811115610bd157610bd06109d3565b5b610bdb8254610997565b610be6828285610b21565b6000601f831160018114610c155760008415610c03578287013590505b610c0d8582610b92565b865550610c75565b601f198416610c2386610a02565b60005b82811015610c4b57848901358255600182019150602085019450602081019050610c26565b86831015610c685784890135610c64601f891682610b74565b8355505b6001600288020188555050505b5050505050505056fea2646970667358221220ef645f315299106384aecede36253b09c4250d46b5925dc5c568f14e256c747164736f6c63430008120033",
					"opcodes": "PUSH1 0x80 PUSH1 0x40 MSTORE CALLVALUE DUP1 ISZERO PUSH2 0x10 JUMPI PUSH1 0x0 DUP1 REVERT JUMPDEST POP CALLER PUSH1 0x0 DUP1 PUSH2 0x100 EXP DUP2 SLOAD DUP2 PUSH20 0xFFFFFFFFFFFFFFFFFFFFFFFFFFFFFFFFFFFFFFFF MUL NOT AND SWAP1 DUP4 PUSH20 0xFFFFFFFFFFFFFFFFFFFFFFFFFFFFFFFFFFFFFFFF AND MUL OR SWAP1 SSTORE POP PUSH2 0xCB4 DUP1 PUSH2 0x60 PUSH1 0x0 CODECOPY PUSH1 0x0 RETURN INVALID PUSH1 0x80 PUSH1 0x40 MSTORE CALLVALUE DUP1 ISZERO PUSH2 0x10 JUMPI PUSH1 0x0 DUP1 REVERT JUMPDEST POP PUSH1 0x4 CALLDATASIZE LT PUSH2 0x4C JUMPI PUSH1 0x0 CALLDATALOAD PUSH1 0xE0 SHR DUP1 PUSH4 0x3E9E609 EQ PUSH2 0x51 JUMPI DUP1 PUSH4 0x61F9811 EQ PUSH2 0x81 JUMPI DUP1 PUSH4 0x5ED11036 EQ PUSH2 0x9D JUMPI DUP1 PUSH4 0x8DA5CB5B EQ PUSH2 0xB9 JUMPI JUMPDEST PUSH1 0x0 DUP1 REVERT JUMPDEST PUSH2 0x6B PUSH1 0x4 DUP1 CALLDATASIZE SUB DUP2 ADD SWAP1 PUSH2 0x66 SWAP2 SWAP1 PUSH2 0x5A0 JUMP JUMPDEST PUSH2 0xD7 JUMP JUMPDEST PUSH1 0x40 MLOAD PUSH2 0x78 SWAP2 SWAP1 PUSH2 0x772 JUMP JUMPDEST PUSH1 0x40 MLOAD DUP1 SWAP2 SUB SWAP1 RETURN JUMPDEST PUSH2 0x9B PUSH1 0x4 DUP1 CALLDATASIZE SUB DUP2 ADD SWAP1 PUSH2 0x96 SWAP2 SWAP1 PUSH2 0x5A0 JUMP JUMPDEST PUSH2 0x286 JUMP JUMPDEST STOP JUMPDEST PUSH2 0xB7 PUSH1 0x4 DUP1 CALLDATASIZE SUB DUP2 ADD SWAP1 PUSH2 0xB2 SWAP2 SWAP1 PUSH2 0x81B JUMP JUMPDEST PUSH2 0x355 JUMP JUMPDEST STOP JUMPDEST PUSH2 0xC1 PUSH2 0x450 JUMP JUMPDEST PUSH1 0x40 MLOAD PUSH2 0xCE SWAP2 SWAP1 PUSH2 0x8D0 JUMP JUMPDEST PUSH1 0x40 MLOAD DUP1 SWAP2 SUB SWAP1 RETURN JUMPDEST PUSH2 0xDF PUSH2 0x474 JUMP JUMPDEST PUSH1 0x0 DUP1 SLOAD SWAP1 PUSH2 0x100 EXP SWAP1 DIV PUSH20 0xFFFFFFFFFFFFFFFFFFFFFFFFFFFFFFFFFFFFFFFF AND PUSH20 0xFFFFFFFFFFFFFFFFFFFFFFFFFFFFFFFFFFFFFFFF AND CALLER PUSH20 0xFFFFFFFFFFFFFFFFFFFFFFFFFFFFFFFFFFFFFFFF AND EQ PUSH2 0x16D JUMPI PUSH1 0x40 MLOAD PUSH32 0x8C379A000000000000000000000000000000000000000000000000000000000 DUP2 MSTORE PUSH1 0x4 ADD PUSH2 0x164 SWAP1 PUSH2 0x948 JUMP JUMPDEST PUSH1 0x40 MLOAD DUP1 SWAP2 SUB SWAP1 REVERT JUMPDEST PUSH1 0x1 PUSH1 0x0 DUP4 DUP2 MSTORE PUSH1 0x20 ADD SWAP1 DUP2 MSTORE PUSH1 0x20 ADD PUSH1 0x0 KECCAK256 PUSH1 0x40 MLOAD DUP1 PUSH1 0x60 ADD PUSH1 0x40 MSTORE SWAP1 DUP2 PUSH1 0x0 DUP3 ADD SLOAD DUP2 MSTORE PUSH1 0x20 ADD PUSH1 0x1 DUP3 ADD DUP1 SLOAD PUSH2 0x1A5 SWAP1 PUSH2 0x997 JUMP JUMPDEST DUP1 PUSH1 0x1F ADD PUSH1 0x20 DUP1 SWAP2 DIV MUL PUSH1 0x20 ADD PUSH1 0x40 MLOAD SWAP1 DUP2 ADD PUSH1 0x40 MSTORE DUP1 SWAP3 SWAP2 SWAP1 DUP2 DUP2 MSTORE PUSH1 0x20 ADD DUP3 DUP1 SLOAD PUSH2 0x1D1 SWAP1 PUSH2 0x997 JUMP JUMPDEST DUP1 ISZERO PUSH2 0x21E JUMPI DUP1 PUSH1 0x1F LT PUSH2 0x1F3 JUMPI PUSH2 0x100 DUP1 DUP4 SLOAD DIV MUL DUP4 MSTORE SWAP2 PUSH1 0x20 ADD SWAP2 PUSH2 0x21E JUMP JUMPDEST DUP3 ADD SWAP2 SWAP1 PUSH1 0x0 MSTORE PUSH1 0x20 PUSH1 0x0 KECCAK256 SWAP1 JUMPDEST DUP2 SLOAD DUP2 MSTORE SWAP1 PUSH1 0x1 ADD SWAP1 PUSH1 0x20 ADD DUP1 DUP4 GT PUSH2 0x201 JUMPI DUP3 SWAP1 SUB PUSH1 0x1F AND DUP3 ADD SWAP2 JUMPDEST POP POP POP POP POP DUP2 MSTORE PUSH1 0x20 ADD PUSH1 0x2 DUP3 ADD DUP1 SLOAD DUP1 PUSH1 0x20 MUL PUSH1 0x20 ADD PUSH1 0x40 MLOAD SWAP1 DUP2 ADD PUSH1 0x40 MSTORE DUP1 SWAP3 SWAP2 SWAP1 DUP2 DUP2 MSTORE PUSH1 0x20 ADD DUP3 DUP1 SLOAD DUP1 ISZERO PUSH2 0x276 JUMPI PUSH1 0x20 MUL DUP3 ADD SWAP2 SWAP1 PUSH1 0x0 MSTORE PUSH1 0x20 PUSH1 0x0 KECCAK256 SWAP1 JUMPDEST DUP2 SLOAD DUP2 MSTORE PUSH1 0x20 ADD SWAP1 PUSH1 0x1 ADD SWAP1 DUP1 DUP4 GT PUSH2 0x262 JUMPI JUMPDEST POP POP POP POP POP DUP2 MSTORE POP POP SWAP1 POP SWAP2 SWAP1 POP JUMP JUMPDEST PUSH1 0x0 DUP1 SLOAD SWAP1 PUSH2 0x100 EXP SWAP1 DIV PUSH20 0xFFFFFFFFFFFFFFFFFFFFFFFFFFFFFFFFFFFFFFFF AND PUSH20 0xFFFFFFFFFFFFFFFFFFFFFFFFFFFFFFFFFFFFFFFF AND CALLER PUSH20 0xFFFFFFFFFFFFFFFFFFFFFFFFFFFFFFFFFFFFFFFF AND EQ PUSH2 0x314 JUMPI PUSH1 0x40 MLOAD PUSH32 0x8C379A000000000000000000000000000000000000000000000000000000000 DUP2 MSTORE PUSH1 0x4 ADD PUSH2 0x30B SWAP1 PUSH2 0x948 JUMP JUMPDEST PUSH1 0x40 MLOAD DUP1 SWAP2 SUB SWAP1 REVERT JUMPDEST PUSH1 0x1 PUSH1 0x0 DUP3 DUP2 MSTORE PUSH1 0x20 ADD SWAP1 DUP2 MSTORE PUSH1 0x20 ADD PUSH1 0x0 KECCAK256 PUSH1 0x0 DUP1 DUP3 ADD PUSH1 0x0 SWAP1 SSTORE PUSH1 0x1 DUP3 ADD PUSH1 0x0 PUSH2 0x340 SWAP2 SWAP1 PUSH2 0x495 JUMP JUMPDEST PUSH1 0x2 DUP3 ADD PUSH1 0x0 PUSH2 0x350 SWAP2 SWAP1 PUSH2 0x4D5 JUMP JUMPDEST POP POP POP JUMP JUMPDEST PUSH1 0x0 DUP1 SLOAD SWAP1 PUSH2 0x100 EXP SWAP1 DIV PUSH20 0xFFFFFFFFFFFFFFFFFFFFFFFFFFFFFFFFFFFFFFFF AND PUSH20 0xFFFFFFFFFFFFFFFFFFFFFFFFFFFFFFFFFFFFFFFF AND CALLER PUSH20 0xFFFFFFFFFFFFFFFFFFFFFFFFFFFFFFFFFFFFFFFF AND EQ PUSH2 0x3E3 JUMPI PUSH1 0x40 MLOAD PUSH32 0x8C379A000000000000000000000000000000000000000000000000000000000 DUP2 MSTORE PUSH1 0x4 ADD PUSH2 0x3DA SWAP1 PUSH2 0x948 JUMP JUMPDEST PUSH1 0x40 MLOAD DUP1 SWAP2 SUB SWAP1 REVERT JUMPDEST DUP4 PUSH1 0x1 PUSH1 0x0 DUP7 DUP2 MSTORE PUSH1 0x20 ADD SWAP1 DUP2 MSTORE PUSH1 0x20 ADD PUSH1 0x0 KECCAK256 PUSH1 0x0 ADD DUP2 SWAP1 SSTORE POP DUP3 DUP3 PUSH1 0x1 PUSH1 0x0 DUP8 DUP2 MSTORE PUSH1 0x20 ADD SWAP1 DUP2 MSTORE PUSH1 0x20 ADD PUSH1 0x0 KECCAK256 PUSH1 0x1 ADD SWAP2 DUP3 PUSH2 0x423 SWAP3 SWAP2 SWAP1 PUSH2 0xBAE JUMP JUMPDEST POP DUP1 PUSH1 0x1 PUSH1 0x0 DUP7 DUP2 MSTORE PUSH1 0x20 ADD SWAP1 DUP2 MSTORE PUSH1 0x20 ADD PUSH1 0x0 KECCAK256 PUSH1 0x2 ADD SWAP1 PUSH1 0x3 PUSH2 0x449 SWAP3 SWAP2 SWAP1 PUSH2 0x4F6 JUMP JUMPDEST POP POP POP POP POP JUMP JUMPDEST PUSH1 0x0 DUP1 SLOAD SWAP1 PUSH2 0x100 EXP SWAP1 DIV PUSH20 0xFFFFFFFFFFFFFFFFFFFFFFFFFFFFFFFFFFFFFFFF AND DUP2 JUMP JUMPDEST PUSH1 0x40 MLOAD DUP1 PUSH1 0x60 ADD PUSH1 0x40 MSTORE DUP1 PUSH1 0x0 DUP2 MSTORE PUSH1 0x20 ADD PUSH1 0x60 DUP2 MSTORE PUSH1 0x20 ADD PUSH1 0x60 DUP2 MSTORE POP SWAP1 JUMP JUMPDEST POP DUP1 SLOAD PUSH2 0x4A1 SWAP1 PUSH2 0x997 JUMP JUMPDEST PUSH1 0x0 DUP3 SSTORE DUP1 PUSH1 0x1F LT PUSH2 0x4B3 JUMPI POP PUSH2 0x4D2 JUMP JUMPDEST PUSH1 0x1F ADD PUSH1 0x20 SWAP1 DIV SWAP1 PUSH1 0x0 MSTORE PUSH1 0x20 PUSH1 0x0 KECCAK256 SWAP1 DUP2 ADD SWAP1 PUSH2 0x4D1 SWAP2 SWAP1 PUSH2 0x543 JUMP JUMPDEST JUMPDEST POP JUMP JUMPDEST POP DUP1 SLOAD PUSH1 0x0 DUP3 SSTORE SWAP1 PUSH1 0x0 MSTORE PUSH1 0x20 PUSH1 0x0 KECCAK256 SWAP1 DUP2 ADD SWAP1 PUSH2 0x4F3 SWAP2 SWAP1 PUSH2 0x543 JUMP JUMPDEST POP JUMP JUMPDEST DUP3 DUP1 SLOAD DUP3 DUP3 SSTORE SWAP1 PUSH1 0x0 MSTORE PUSH1 0x20 PUSH1 0x0 KECCAK256 SWAP1 DUP2 ADD SWAP3 DUP3 ISZERO PUSH2 0x532 JUMPI SWAP2 PUSH1 0x20 MUL DUP3 ADD JUMPDEST DUP3 DUP2 GT ISZERO PUSH2 0x531 JUMPI DUP3 CALLDATALOAD DUP3 SSTORE SWAP2 PUSH1 0x20 ADD SWAP2 SWAP1 PUSH1 0x1 ADD SWAP1 PUSH2 0x516 JUMP JUMPDEST JUMPDEST POP SWAP1 POP PUSH2 0x53F SWAP2 SWAP1 PUSH2 0x543 JUMP JUMPDEST POP SWAP1 JUMP JUMPDEST JUMPDEST DUP1 DUP3 GT ISZERO PUSH2 0x55C JUMPI PUSH1 0x0 DUP2 PUSH1 0x0 SWAP1 SSTORE POP PUSH1 0x1 ADD PUSH2 0x544 JUMP JUMPDEST POP SWAP1 JUMP JUMPDEST PUSH1 0x0 DUP1 REVERT JUMPDEST PUSH1 0x0 DUP1 REVERT JUMPDEST PUSH1 0x0 DUP2 SWAP1 POP SWAP2 SWAP1 POP JUMP JUMPDEST PUSH2 0x57D DUP2 PUSH2 0x56A JUMP JUMPDEST DUP2 EQ PUSH2 0x588 JUMPI PUSH1 0x0 DUP1 REVERT JUMPDEST POP JUMP JUMPDEST PUSH1 0x0 DUP2 CALLDATALOAD SWAP1 POP PUSH2 0x59A DUP2 PUSH2 0x574 JUMP JUMPDEST SWAP3 SWAP2 POP POP JUMP JUMPDEST PUSH1 0x0 PUSH1 0x20 DUP3 DUP5 SUB SLT ISZERO PUSH2 0x5B6 JUMPI PUSH2 0x5B5 PUSH2 0x560 JUMP JUMPDEST JUMPDEST PUSH1 0x0 PUSH2 0x5C4 DUP5 DUP3 DUP6 ADD PUSH2 0x58B JUMP JUMPDEST SWAP2 POP POP SWAP3 SWAP2 POP POP JUMP JUMPDEST PUSH2 0x5D6 DUP2 PUSH2 0x56A JUMP JUMPDEST DUP3 MSTORE POP POP JUMP JUMPDEST PUSH1 0x0 DUP2 MLOAD SWAP1 POP SWAP2 SWAP1 POP JUMP JUMPDEST PUSH1 0x0 DUP3 DUP3 MSTORE PUSH1 0x20 DUP3 ADD SWAP1 POP SWAP3 SWAP2 POP POP JUMP JUMPDEST PUSH1 0x0 JUMPDEST DUP4 DUP2 LT ISZERO PUSH2 0x616 JUMPI DUP1 DUP3 ADD MLOAD DUP2 DUP5 ADD MSTORE PUSH1 0x20 DUP2 ADD SWAP1 POP PUSH2 0x5FB JUMP JUMPDEST PUSH1 0x0 DUP5 DUP5 ADD MSTORE POP POP POP POP JUMP JUMPDEST PUSH1 0x0 PUSH1 0x1F NOT PUSH1 0x1F DUP4 ADD AND SWAP1 POP SWAP2 SWAP1 POP JUMP JUMPDEST PUSH1 0x0 PUSH2 0x63E DUP3 PUSH2 0x5DC JUMP JUMPDEST PUSH2 0x648 DUP2 DUP6 PUSH2 0x5E7 JUMP JUMPDEST SWAP4 POP PUSH2 0x658 DUP2 DUP6 PUSH1 0x20 DUP7 ADD PUSH2 0x5F8 JUMP JUMPDEST PUSH2 0x661 DUP2 PUSH2 0x622 JUMP JUMPDEST DUP5 ADD SWAP2 POP POP SWAP3 SWAP2 POP POP JUMP JUMPDEST PUSH1 0x0 DUP2 MLOAD SWAP1 POP SWAP2 SWAP1 POP JUMP JUMPDEST PUSH1 0x0 DUP3 DUP3 MSTORE PUSH1 0x20 DUP3 ADD SWAP1 POP SWAP3 SWAP2 POP POP JUMP JUMPDEST PUSH1 0x0 DUP2 SWAP1 POP PUSH1 0x20 DUP3 ADD SWAP1 POP SWAP2 SWAP1 POP JUMP JUMPDEST PUSH1 0x0 PUSH2 0x6A4 DUP4 DUP4 PUSH2 0x5CD JUMP JUMPDEST PUSH1 0x20 DUP4 ADD SWAP1 POP SWAP3 SWAP2 POP POP JUMP JUMPDEST PUSH1 0x0 PUSH1 0x20 DUP3 ADD SWAP1 POP SWAP2 SWAP1 POP JUMP JUMPDEST PUSH1 0x0 PUSH2 0x6C8 DUP3 PUSH2 0x66C JUMP JUMPDEST PUSH2 0x6D2 DUP2 DUP6 PUSH2 0x677 JUMP JUMPDEST SWAP4 POP PUSH2 0x6DD DUP4 PUSH2 0x688 JUMP JUMPDEST DUP1 PUSH1 0x0 JUMPDEST DUP4 DUP2 LT ISZERO PUSH2 0x70E JUMPI DUP2 MLOAD PUSH2 0x6F5 DUP9 DUP3 PUSH2 0x698 JUMP JUMPDEST SWAP8 POP PUSH2 0x700 DUP4 PUSH2 0x6B0 JUMP JUMPDEST SWAP3 POP POP PUSH1 0x1 DUP2 ADD SWAP1 POP PUSH2 0x6E1 JUMP JUMPDEST POP DUP6 SWAP4 POP POP POP POP SWAP3 SWAP2 POP POP JUMP JUMPDEST PUSH1 0x0 PUSH1 0x60 DUP4 ADD PUSH1 0x0 DUP4 ADD MLOAD PUSH2 0x733 PUSH1 0x0 DUP7 ADD DUP3 PUSH2 0x5CD JUMP JUMPDEST POP PUSH1 0x20 DUP4 ADD MLOAD DUP5 DUP3 SUB PUSH1 0x20 DUP7 ADD MSTORE PUSH2 0x74B DUP3 DUP3 PUSH2 0x633 JUMP JUMPDEST SWAP2 POP POP PUSH1 0x40 DUP4 ADD MLOAD DUP5 DUP3 SUB PUSH1 0x40 DUP7 ADD MSTORE PUSH2 0x765 DUP3 DUP3 PUSH2 0x6BD JUMP JUMPDEST SWAP2 POP POP DUP1 SWAP2 POP POP SWAP3 SWAP2 POP POP JUMP JUMPDEST PUSH1 0x0 PUSH1 0x20 DUP3 ADD SWAP1 POP DUP2 DUP2 SUB PUSH1 0x0 DUP4 ADD MSTORE PUSH2 0x78C DUP2 DUP5 PUSH2 0x71B JUMP JUMPDEST SWAP1 POP SWAP3 SWAP2 POP POP JUMP JUMPDEST PUSH1 0x0 DUP1 REVERT JUMPDEST PUSH1 0x0 DUP1 REVERT JUMPDEST PUSH1 0x0 DUP1 REVERT JUMPDEST PUSH1 0x0 DUP1 DUP4 PUSH1 0x1F DUP5 ADD SLT PUSH2 0x7B9 JUMPI PUSH2 0x7B8 PUSH2 0x794 JUMP JUMPDEST JUMPDEST DUP3 CALLDATALOAD SWAP1 POP PUSH8 0xFFFFFFFFFFFFFFFF DUP2 GT ISZERO PUSH2 0x7D6 JUMPI PUSH2 0x7D5 PUSH2 0x799 JUMP JUMPDEST JUMPDEST PUSH1 0x20 DUP4 ADD SWAP2 POP DUP4 PUSH1 0x1 DUP3 MUL DUP4 ADD GT ISZERO PUSH2 0x7F2 JUMPI PUSH2 0x7F1 PUSH2 0x79E JUMP JUMPDEST JUMPDEST SWAP3 POP SWAP3 SWAP1 POP JUMP JUMPDEST PUSH1 0x0 DUP2 SWAP1 POP DUP3 PUSH1 0x20 PUSH1 0x3 MUL DUP3 ADD GT ISZERO PUSH2 0x815 JUMPI PUSH2 0x814 PUSH2 0x79E JUMP JUMPDEST JUMPDEST SWAP3 SWAP2 POP POP JUMP JUMPDEST PUSH1 0x0 DUP1 PUSH1 0x0 DUP1 PUSH1 0xA0 DUP6 DUP8 SUB SLT ISZERO PUSH2 0x835 JUMPI PUSH2 0x834 PUSH2 0x560 JUMP JUMPDEST JUMPDEST PUSH1 0x0 PUSH2 0x843 DUP8 DUP3 DUP9 ADD PUSH2 0x58B JUMP JUMPDEST SWAP5 POP POP PUSH1 0x20 DUP6 ADD CALLDATALOAD PUSH8 0xFFFFFFFFFFFFFFFF DUP2 GT ISZERO PUSH2 0x864 JUMPI PUSH2 0x863 PUSH2 0x565 JUMP JUMPDEST JUMPDEST PUSH2 0x870 DUP8 DUP3 DUP9 ADD PUSH2 0x7A3 JUMP JUMPDEST SWAP4 POP SWAP4 POP POP PUSH1 0x40 PUSH2 0x883 DUP8 DUP3 DUP9 ADD PUSH2 0x7F9 JUMP JUMPDEST SWAP2 POP POP SWAP3 SWAP6 SWAP2 SWAP5 POP SWAP3 POP JUMP JUMPDEST PUSH1 0x0 PUSH20 0xFFFFFFFFFFFFFFFFFFFFFFFFFFFFFFFFFFFFFFFF DUP3 AND SWAP1 POP SWAP2 SWAP1 POP JUMP JUMPDEST PUSH1 0x0 PUSH2 0x8BA DUP3 PUSH2 0x88F JUMP JUMPDEST SWAP1 POP SWAP2 SWAP1 POP JUMP JUMPDEST PUSH2 0x8CA DUP2 PUSH2 0x8AF JUMP JUMPDEST DUP3 MSTORE POP POP JUMP JUMPDEST PUSH1 0x0 PUSH1 0x20 DUP3 ADD SWAP1 POP PUSH2 0x8E5 PUSH1 0x0 DUP4 ADD DUP5 PUSH2 0x8C1 JUMP JUMPDEST SWAP3 SWAP2 POP POP JUMP JUMPDEST PUSH1 0x0 DUP3 DUP3 MSTORE PUSH1 0x20 DUP3 ADD SWAP1 POP SWAP3 SWAP2 POP POP JUMP JUMPDEST PUSH32 0x596F7520617265206E6F7420746865206F776E65720000000000000000000000 PUSH1 0x0 DUP3 ADD MSTORE POP JUMP JUMPDEST PUSH1 0x0 PUSH2 0x932 PUSH1 0x15 DUP4 PUSH2 0x8EB JUMP JUMPDEST SWAP2 POP PUSH2 0x93D DUP3 PUSH2 0x8FC JUMP JUMPDEST PUSH1 0x20 DUP3 ADD SWAP1 POP SWAP2 SWAP1 POP JUMP JUMPDEST PUSH1 0x0 PUSH1 0x20 DUP3 ADD SWAP1 POP DUP2 DUP2 SUB PUSH1 0x0 DUP4 ADD MSTORE PUSH2 0x961 DUP2 PUSH2 0x925 JUMP JUMPDEST SWAP1 POP SWAP2 SWAP1 POP JUMP JUMPDEST PUSH32 0x4E487B7100000000000000000000000000000000000000000000000000000000 PUSH1 0x0 MSTORE PUSH1 0x22 PUSH1 0x4 MSTORE PUSH1 0x24 PUSH1 0x0 REVERT JUMPDEST PUSH1 0x0 PUSH1 0x2 DUP3 DIV SWAP1 POP PUSH1 0x1 DUP3 AND DUP1 PUSH2 0x9AF JUMPI PUSH1 0x7F DUP3 AND SWAP2 POP JUMPDEST PUSH1 0x20 DUP3 LT DUP2 SUB PUSH2 0x9C2 JUMPI PUSH2 0x9C1 PUSH2 0x968 JUMP JUMPDEST JUMPDEST POP SWAP2 SWAP1 POP JUMP JUMPDEST PUSH1 0x0 DUP3 SWAP1 POP SWAP3 SWAP2 POP POP JUMP JUMPDEST PUSH32 0x4E487B7100000000000000000000000000000000000000000000000000000000 PUSH1 0x0 MSTORE PUSH1 0x41 PUSH1 0x4 MSTORE PUSH1 0x24 PUSH1 0x0 REVERT JUMPDEST PUSH1 0x0 DUP2 SWAP1 POP DUP2 PUSH1 0x0 MSTORE PUSH1 0x20 PUSH1 0x0 KECCAK256 SWAP1 POP SWAP2 SWAP1 POP JUMP JUMPDEST PUSH1 0x0 PUSH1 0x20 PUSH1 0x1F DUP4 ADD DIV SWAP1 POP SWAP2 SWAP1 POP JUMP JUMPDEST PUSH1 0x0 DUP3 DUP3 SHL SWAP1 POP SWAP3 SWAP2 POP POP JUMP JUMPDEST PUSH1 0x0 PUSH1 0x8 DUP4 MUL PUSH2 0xA64 PUSH32 0xFFFFFFFFFFFFFFFFFFFFFFFFFFFFFFFFFFFFFFFFFFFFFFFFFFFFFFFFFFFFFFFF DUP3 PUSH2 0xA27 JUMP JUMPDEST PUSH2 0xA6E DUP7 DUP4 PUSH2 0xA27 JUMP JUMPDEST SWAP6 POP DUP1 NOT DUP5 AND SWAP4 POP DUP1 DUP7 AND DUP5 OR SWAP3 POP POP POP SWAP4 SWAP3 POP POP POP JUMP JUMPDEST PUSH1 0x0 DUP2 SWAP1 POP SWAP2 SWAP1 POP JUMP JUMPDEST PUSH1 0x0 PUSH2 0xAAB PUSH2 0xAA6 PUSH2 0xAA1 DUP5 PUSH2 0x56A JUMP JUMPDEST PUSH2 0xA86 JUMP JUMPDEST PUSH2 0x56A JUMP JUMPDEST SWAP1 POP SWAP2 SWAP1 POP JUMP JUMPDEST PUSH1 0x0 DUP2 SWAP1 POP SWAP2 SWAP1 POP JUMP JUMPDEST PUSH2 0xAC5 DUP4 PUSH2 0xA90 JUMP JUMPDEST PUSH2 0xAD9 PUSH2 0xAD1 DUP3 PUSH2 0xAB2 JUMP JUMPDEST DUP5 DUP5 SLOAD PUSH2 0xA34 JUMP JUMPDEST DUP3 SSTORE POP POP POP POP JUMP JUMPDEST PUSH1 0x0 SWAP1 JUMP JUMPDEST PUSH2 0xAEE PUSH2 0xAE1 JUMP JUMPDEST PUSH2 0xAF9 DUP2 DUP5 DUP5 PUSH2 0xABC JUMP JUMPDEST POP POP POP JUMP JUMPDEST JUMPDEST DUP2 DUP2 LT ISZERO PUSH2 0xB1D JUMPI PUSH2 0xB12 PUSH1 0x0 DUP3 PUSH2 0xAE6 JUMP JUMPDEST PUSH1 0x1 DUP2 ADD SWAP1 POP PUSH2 0xAFF JUMP JUMPDEST POP POP JUMP JUMPDEST PUSH1 0x1F DUP3 GT ISZERO PUSH2 0xB62 JUMPI PUSH2 0xB33 DUP2 PUSH2 0xA02 JUMP JUMPDEST PUSH2 0xB3C DUP5 PUSH2 0xA17 JUMP JUMPDEST DUP2 ADD PUSH1 0x20 DUP6 LT ISZERO PUSH2 0xB4B JUMPI DUP2 SWAP1 POP JUMPDEST PUSH2 0xB5F PUSH2 0xB57 DUP6 PUSH2 0xA17 JUMP JUMPDEST DUP4 ADD DUP3 PUSH2 0xAFE JUMP JUMPDEST POP POP JUMPDEST POP POP POP JUMP JUMPDEST PUSH1 0x0 DUP3 DUP3 SHR SWAP1 POP SWAP3 SWAP2 POP POP JUMP JUMPDEST PUSH1 0x0 PUSH2 0xB85 PUSH1 0x0 NOT DUP5 PUSH1 0x8 MUL PUSH2 0xB67 JUMP JUMPDEST NOT DUP1 DUP4 AND SWAP2 POP POP SWAP3 SWAP2 POP POP JUMP JUMPDEST PUSH1 0x0 PUSH2 0xB9E DUP4 DUP4 PUSH2 0xB74 JUMP JUMPDEST SWAP2 POP DUP3 PUSH1 0x2 MUL DUP3 OR SWAP1 POP SWAP3 SWAP2 POP POP JUMP JUMPDEST PUSH2 0xBB8 DUP4 DUP4 PUSH2 0x9C8 JUMP JUMPDEST PUSH8 0xFFFFFFFFFFFFFFFF DUP2 GT ISZERO PUSH2 0xBD1 JUMPI PUSH2 0xBD0 PUSH2 0x9D3 JUMP JUMPDEST JUMPDEST PUSH2 0xBDB DUP3 SLOAD PUSH2 0x997 JUMP JUMPDEST PUSH2 0xBE6 DUP3 DUP3 DUP6 PUSH2 0xB21 JUMP JUMPDEST PUSH1 0x0 PUSH1 0x1F DUP4 GT PUSH1 0x1 DUP2 EQ PUSH2 0xC15 JUMPI PUSH1 0x0 DUP5 ISZERO PUSH2 0xC03 JUMPI DUP3 DUP8 ADD CALLDATALOAD SWAP1 POP JUMPDEST PUSH2 0xC0D DUP6 DUP3 PUSH2 0xB92 JUMP JUMPDEST DUP7 SSTORE POP PUSH2 0xC75 JUMP JUMPDEST PUSH1 0x1F NOT DUP5 AND PUSH2 0xC23 DUP7 PUSH2 0xA02 JUMP JUMPDEST PUSH1 0x0 JUMPDEST DUP3 DUP2 LT ISZERO PUSH2 0xC4B JUMPI DUP5 DUP10 ADD CALLDATALOAD DUP3 SSTORE PUSH1 0x1 DUP3 ADD SWAP2 POP PUSH1 0x20 DUP6 ADD SWAP5 POP PUSH1 0x20 DUP2 ADD SWAP1 POP PUSH2 0xC26 JUMP JUMPDEST DUP7 DUP4 LT ISZERO PUSH2 0xC68 JUMPI DUP5 DUP10 ADD CALLDATALOAD PUSH2 0xC64 PUSH1 0x1F DUP10 AND DUP3 PUSH2 0xB74 JUMP JUMPDEST DUP4 SSTORE POP JUMPDEST PUSH1 0x1 PUSH1 0x2 DUP9 MUL ADD DUP9 SSTORE POP POP POP JUMPDEST POP POP POP POP POP POP POP JUMP INVALID LOG2 PUSH5 0x6970667358 0x22 SLT KECCAK256 0xEF PUSH5 0x5F31529910 PUSH4 0x84AECEDE CALLDATASIZE 0x25 EXTCODESIZE MULMOD 0xC4 0x25 0xD CHAINID 0xB5 SWAP3 0x5D 0xC5 0xC5 PUSH9 0xF14E256C747164736F PUSH13 0x63430008120033000000000000 "
				},
				"gasEstimates": {
					"creation": {
						"codeDepositCost": "650400",
						"executionCost": "24949",
						"totalCost": "675349"
					},
					"external": {
						"addRecords(uint256,string,uint256[3])": "infinite",
						"deleteRecord(uint256)": "infinite",
						"getRecord(uint256)": "infinite",
						"owner()": "2555"
					}
				},
				"methodIdentifiers": {
					"addRecords(uint256,string,uint256[3])": "5ed11036",
					"deleteRecord(uint256)": "061f9811",
					"getRecord(uint256)": "03e9e609",
					"owner()": "8da5cb5b"
				}
			},
			"storageLayout": {
				"storage": [
					{
						"astId": 3,
						"contract": "assignment/StudentRecords.sol:StudentRecords",
						"label": "owner",
						"offset": 0,
						"slot": "0",
						"type": "t_address"
					},
					{
						"astId": 25,
						"contract": "assignment/StudentRecords.sol:StudentRecords",
						"label": "students",
						"offset": 0,
						"slot": "1",
						"type": "t_mapping(t_uint256,t_struct(student)20_storage)"
					}
				],
				"types": {
					"t_address": {
						"encoding": "inplace",
						"label": "address",
						"numberOfBytes": "20"
					},
					"t_array(t_uint256)dyn_storage": {
						"base": "t_uint256",
						"encoding": "dynamic_array",
						"label": "uint256[]",
						"numberOfBytes": "32"
					},
					"t_mapping(t_uint256,t_struct(student)20_storage)": {
						"encoding": "mapping",
						"key": "t_uint256",
						"label": "mapping(uint256 => struct StudentRecords.student)",
						"numberOfBytes": "32",
						"value": "t_struct(student)20_storage"
					},
					"t_string_storage": {
						"encoding": "bytes",
						"label": "string",
						"numberOfBytes": "32"
					},
					"t_struct(student)20_storage": {
						"encoding": "inplace",
						"label": "struct StudentRecords.student",
						"members": [
							{
								"astId": 14,
								"contract": "assignment/StudentRecords.sol:StudentRecords",
								"label": "rollno",
								"offset": 0,
								"slot": "0",
								"type": "t_uint256"
							},
							{
								"astId": 16,
								"contract": "assignment/StudentRecords.sol:StudentRecords",
								"label": "name",
								"offset": 0,
								"slot": "1",
								"type": "t_string_storage"
							},
							{
								"astId": 19,
								"contract": "assignment/StudentRecords.sol:StudentRecords",
								"label": "marks",
								"offset": 0,
								"slot": "2",
								"type": "t_array(t_uint256)dyn_storage"
							}
						],
						"numberOfBytes": "96"
					},
					"t_uint256": {
						"encoding": "inplace",
						"label": "uint256",
						"numberOfBytes": "32"
					}
				}
			},
			"userdoc": {
				"kind": "user",
				"methods": {},
				"version": 1
			}
		}
	}
}