{
	"contracts/testing.sol": {
		"obj": {
			"abi": [
				{
					"inputs": [
						{
							"internalType": "uint256",
							"name": "l",
							"type": "uint256"
						},
						{
							"internalType": "uint256",
							"name": "b",
							"type": "uint256"
						},
						{
							"internalType": "uint256",
							"name": "h",
							"type": "uint256"
						}
					],
					"name": "setdi",
					"outputs": [],
					"stateMutability": "nonpayable",
					"type": "function"
				}
			],
			"devdoc": {
				"kind": "dev",
				"methods": {},
				"version": 1
			},
			"evm": {
				"assembly": "    /* \"contracts/testing.sol\":328:471  contract obj{... */\n  mstore(0x40, 0x80)\n    /* \"contracts/testing.sol\":356:366  new data() */\n  mload(0x40)\n  tag_1\n  swap1\n  tag_2\n  jump\t// in\ntag_1:\n  mload(0x40)\n  dup1\n  swap2\n  sub\n  swap1\n  0x00\n  create\n  dup1\n  iszero\n  dup1\n  iszero\n  tag_3\n  jumpi\n  returndatasize\n  0x00\n  dup1\n  returndatacopy\n  revert(0x00, returndatasize)\ntag_3:\n  pop\n    /* \"contracts/testing.sol\":347:366  data obj=new data() */\n  0x00\n  dup1\n  0x0100\n  exp\n  dup2\n  sload\n  dup2\n  0xffffffffffffffffffffffffffffffffffffffff\n  mul\n  not\n  and\n  swap1\n  dup4\n  0xffffffffffffffffffffffffffffffffffffffff\n  and\n  mul\n  or\n  swap1\n  sstore\n  pop\n    /* \"contracts/testing.sol\":328:471  contract obj{... */\n  callvalue\n  dup1\n  iszero\n  tag_4\n  jumpi\n  0x00\n  dup1\n  revert\ntag_4:\n  pop\n  jump(tag_5)\ntag_2:\n  dataSize(sub_1)\n  dup1\n  dataOffset(sub_1)\n  dup4\n  codecopy\n  add\n  swap1\n  jump\t// out\ntag_5:\n  dataSize(sub_0)\n  dup1\n  dataOffset(sub_0)\n  0x00\n  codecopy\n  0x00\n  return\nstop\n\nsub_0: assembly {\n        /* \"contracts/testing.sol\":328:471  contract obj{... */\n      mstore(0x40, 0x80)\n      callvalue\n      dup1\n      iszero\n      tag_1\n      jumpi\n      0x00\n      dup1\n      revert\n    tag_1:\n      pop\n      jumpi(tag_2, lt(calldatasize, 0x04))\n      shr(0xe0, calldataload(0x00))\n      dup1\n      0x57926318\n      eq\n      tag_3\n      jumpi\n    tag_2:\n      0x00\n      dup1\n      revert\n        /* \"contracts/testing.sol\":373:461  function setdi(uint l,uint b,uint h) public {... */\n    tag_3:\n      tag_4\n      0x04\n      dup1\n      calldatasize\n      sub\n      dup2\n      add\n      swap1\n      tag_5\n      swap2\n      swap1\n      tag_6\n      jump\t// in\n    tag_5:\n      tag_7\n      jump\t// in\n    tag_4:\n      stop\n    tag_7:\n        /* \"contracts/testing.sol\":428:431  obj */\n      0x00\n      dup1\n      sload\n      swap1\n      0x0100\n      exp\n      swap1\n      div\n      0xffffffffffffffffffffffffffffffffffffffff\n      and\n        /* \"contracts/testing.sol\":428:444  obj.setDimension */\n      0xffffffffffffffffffffffffffffffffffffffff\n      and\n      0x4948863c\n        /* \"contracts/testing.sol\":445:446  l */\n      dup5\n        /* \"contracts/testing.sol\":448:449  b */\n      dup5\n        /* \"contracts/testing.sol\":451:452  h */\n      dup5\n        /* \"contracts/testing.sol\":428:453  obj.setDimension(l, b, h) */\n      mload(0x40)\n      dup5\n      0xffffffff\n      and\n      0xe0\n      shl\n      dup2\n      mstore\n      0x04\n      add\n      tag_9\n      swap4\n      swap3\n      swap2\n      swap1\n      tag_10\n      jump\t// in\n    tag_9:\n      0x00\n      mload(0x40)\n      dup1\n      dup4\n      sub\n      dup2\n      0x00\n      dup8\n      dup1\n      extcodesize\n      iszero\n      dup1\n      iszero\n      tag_11\n      jumpi\n      0x00\n      dup1\n      revert\n    tag_11:\n      pop\n      gas\n      call\n      iszero\n      dup1\n      iszero\n      tag_13\n      jumpi\n      returndatasize\n      0x00\n      dup1\n      returndatacopy\n      revert(0x00, returndatasize)\n    tag_13:\n      pop\n      pop\n      pop\n      pop\n        /* \"contracts/testing.sol\":373:461  function setdi(uint l,uint b,uint h) public {... */\n      pop\n      pop\n      pop\n      jump\t// out\n        /* \"#utility.yul\":88:205   */\n    tag_15:\n        /* \"#utility.yul\":197:198   */\n      0x00\n        /* \"#utility.yul\":194:195   */\n      dup1\n        /* \"#utility.yul\":187:199   */\n      revert\n        /* \"#utility.yul\":334:411   */\n    tag_17:\n        /* \"#utility.yul\":371:378   */\n      0x00\n        /* \"#utility.yul\":400:405   */\n      dup2\n        /* \"#utility.yul\":389:405   */\n      swap1\n      pop\n        /* \"#utility.yul\":334:411   */\n      swap2\n      swap1\n      pop\n      jump\t// out\n        /* \"#utility.yul\":417:539   */\n    tag_18:\n        /* \"#utility.yul\":490:514   */\n      tag_27\n        /* \"#utility.yul\":508:513   */\n      dup2\n        /* \"#utility.yul\":490:514   */\n      tag_17\n      jump\t// in\n    tag_27:\n        /* \"#utility.yul\":483:488   */\n      dup2\n        /* \"#utility.yul\":480:515   */\n      eq\n        /* \"#utility.yul\":470:533   */\n      tag_28\n      jumpi\n        /* \"#utility.yul\":529:530   */\n      0x00\n        /* \"#utility.yul\":526:527   */\n      dup1\n        /* \"#utility.yul\":519:531   */\n      revert\n        /* \"#utility.yul\":470:533   */\n    tag_28:\n        /* \"#utility.yul\":417:539   */\n      pop\n      jump\t// out\n        /* \"#utility.yul\":545:684   */\n    tag_19:\n        /* \"#utility.yul\":591:596   */\n      0x00\n        /* \"#utility.yul\":629:635   */\n      dup2\n        /* \"#utility.yul\":616:636   */\n      calldataload\n        /* \"#utility.yul\":607:636   */\n      swap1\n      pop\n        /* \"#utility.yul\":645:678   */\n      tag_30\n        /* \"#utility.yul\":672:677   */\n      dup2\n        /* \"#utility.yul\":645:678   */\n      tag_18\n      jump\t// in\n    tag_30:\n        /* \"#utility.yul\":545:684   */\n      swap3\n      swap2\n      pop\n      pop\n      jump\t// out\n        /* \"#utility.yul\":690:1309   */\n    tag_6:\n        /* \"#utility.yul\":767:773   */\n      0x00\n        /* \"#utility.yul\":775:781   */\n      dup1\n        /* \"#utility.yul\":783:789   */\n      0x00\n        /* \"#utility.yul\":832:834   */\n      0x60\n        /* \"#utility.yul\":820:829   */\n      dup5\n        /* \"#utility.yul\":811:818   */\n      dup7\n        /* \"#utility.yul\":807:830   */\n      sub\n        /* \"#utility.yul\":803:835   */\n      slt\n        /* \"#utility.yul\":800:919   */\n      iszero\n      tag_32\n      jumpi\n        /* \"#utility.yul\":838:917   */\n      tag_33\n      tag_15\n      jump\t// in\n    tag_33:\n        /* \"#utility.yul\":800:919   */\n    tag_32:\n        /* \"#utility.yul\":958:959   */\n      0x00\n        /* \"#utility.yul\":983:1036   */\n      tag_34\n        /* \"#utility.yul\":1028:1035   */\n      dup7\n        /* \"#utility.yul\":1019:1025   */\n      dup3\n        /* \"#utility.yul\":1008:1017   */\n      dup8\n        /* \"#utility.yul\":1004:1026   */\n      add\n        /* \"#utility.yul\":983:1036   */\n      tag_19\n      jump\t// in\n    tag_34:\n        /* \"#utility.yul\":973:1036   */\n      swap4\n      pop\n        /* \"#utility.yul\":929:1046   */\n      pop\n        /* \"#utility.yul\":1085:1087   */\n      0x20\n        /* \"#utility.yul\":1111:1164   */\n      tag_35\n        /* \"#utility.yul\":1156:1163   */\n      dup7\n        /* \"#utility.yul\":1147:1153   */\n      dup3\n        /* \"#utility.yul\":1136:1145   */\n      dup8\n        /* \"#utility.yul\":1132:1154   */\n      add\n        /* \"#utility.yul\":1111:1164   */\n      tag_19\n      jump\t// in\n    tag_35:\n        /* \"#utility.yul\":1101:1164   */\n      swap3\n      pop\n        /* \"#utility.yul\":1056:1174   */\n      pop\n        /* \"#utility.yul\":1213:1215   */\n      0x40\n        /* \"#utility.yul\":1239:1292   */\n      tag_36\n        /* \"#utility.yul\":1284:1291   */\n      dup7\n        /* \"#utility.yul\":1275:1281   */\n      dup3\n        /* \"#utility.yul\":1264:1273   */\n      dup8\n        /* \"#utility.yul\":1260:1282   */\n      add\n        /* \"#utility.yul\":1239:1292   */\n      tag_19\n      jump\t// in\n    tag_36:\n        /* \"#utility.yul\":1229:1292   */\n      swap2\n      pop\n        /* \"#utility.yul\":1184:1302   */\n      pop\n        /* \"#utility.yul\":690:1309   */\n      swap3\n      pop\n      swap3\n      pop\n      swap3\n      jump\t// out\n        /* \"#utility.yul\":1315:1433   */\n    tag_20:\n        /* \"#utility.yul\":1402:1426   */\n      tag_38\n        /* \"#utility.yul\":1420:1425   */\n      dup2\n        /* \"#utility.yul\":1402:1426   */\n      tag_17\n      jump\t// in\n    tag_38:\n        /* \"#utility.yul\":1397:1400   */\n      dup3\n        /* \"#utility.yul\":1390:1427   */\n      mstore\n        /* \"#utility.yul\":1315:1433   */\n      pop\n      pop\n      jump\t// out\n        /* \"#utility.yul\":1439:1881   */\n    tag_10:\n        /* \"#utility.yul\":1588:1592   */\n      0x00\n        /* \"#utility.yul\":1626:1628   */\n      0x60\n        /* \"#utility.yul\":1615:1624   */\n      dup3\n        /* \"#utility.yul\":1611:1629   */\n      add\n        /* \"#utility.yul\":1603:1629   */\n      swap1\n      pop\n        /* \"#utility.yul\":1639:1710   */\n      tag_40\n        /* \"#utility.yul\":1707:1708   */\n      0x00\n        /* \"#utility.yul\":1696:1705   */\n      dup4\n        /* \"#utility.yul\":1692:1709   */\n      add\n        /* \"#utility.yul\":1683:1689   */\n      dup7\n        /* \"#utility.yul\":1639:1710   */\n      tag_20\n      jump\t// in\n    tag_40:\n        /* \"#utility.yul\":1720:1792   */\n      tag_41\n        /* \"#utility.yul\":1788:1790   */\n      0x20\n        /* \"#utility.yul\":1777:1786   */\n      dup4\n        /* \"#utility.yul\":1773:1791   */\n      add\n        /* \"#utility.yul\":1764:1770   */\n      dup6\n        /* \"#utility.yul\":1720:1792   */\n      tag_20\n      jump\t// in\n    tag_41:\n        /* \"#utility.yul\":1802:1874   */\n      tag_42\n        /* \"#utility.yul\":1870:1872   */\n      0x40\n        /* \"#utility.yul\":1859:1868   */\n      dup4\n        /* \"#utility.yul\":1855:1873   */\n      add\n        /* \"#utility.yul\":1846:1852   */\n      dup5\n        /* \"#utility.yul\":1802:1874   */\n      tag_20\n      jump\t// in\n    tag_42:\n        /* \"#utility.yul\":1439:1881   */\n      swap5\n      swap4\n      pop\n      pop\n      pop\n      pop\n      jump\t// out\n\n    auxdata: 0xa26469706673582212207490dbd979dd5d405716a3526f7592a3533d7e0079e1df9f52523e61393aa7fe64736f6c63430008120033\n}\n\nsub_1: assembly {\n        /* \"contracts/testing.sol\":58:324  contract data{... */\n      mstore(0x40, 0x80)\n      callvalue\n      dup1\n      iszero\n      tag_1\n      jumpi\n      0x00\n      dup1\n      revert\n    tag_1:\n      pop\n      dataSize(sub_0)\n      dup1\n      dataOffset(sub_0)\n      0x00\n      codecopy\n      0x00\n      return\n    stop\n\n    sub_0: assembly {\n            /* \"contracts/testing.sol\":58:324  contract data{... */\n          mstore(0x40, 0x80)\n          callvalue\n          dup1\n          iszero\n          tag_1\n          jumpi\n          0x00\n          dup1\n          revert\n        tag_1:\n          pop\n          jumpi(tag_2, lt(calldatasize, 0x04))\n          shr(0xe0, calldataload(0x00))\n          dup1\n          0x4948863c\n          eq\n          tag_3\n          jumpi\n          dup1\n          0xf02782dc\n          eq\n          tag_4\n          jumpi\n        tag_2:\n          0x00\n          dup1\n          revert\n            /* \"contracts/testing.sol\":117:224  function setDimension(uint _l,uint _b,uint _h) public {... */\n        tag_3:\n          tag_5\n          0x04\n          dup1\n          calldatasize\n          sub\n          dup2\n          add\n          swap1\n          tag_6\n          swap2\n          swap1\n          tag_7\n          jump\t// in\n        tag_6:\n          tag_8\n          jump\t// in\n        tag_5:\n          stop\n            /* \"contracts/testing.sol\":230:321  function getDimension() public view returns(uint,uint,uint){... */\n        tag_4:\n          tag_9\n          tag_10\n          jump\t// in\n        tag_9:\n          mload(0x40)\n          tag_11\n          swap4\n          swap3\n          swap2\n          swap1\n          tag_12\n          jump\t// in\n        tag_11:\n          mload(0x40)\n          dup1\n          swap2\n          sub\n          swap1\n          return\n            /* \"contracts/testing.sol\":117:224  function setDimension(uint _l,uint _b,uint _h) public {... */\n        tag_8:\n            /* \"contracts/testing.sol\":184:186  _l */\n          dup3\n            /* \"contracts/testing.sol\":182:183  l */\n          0x00\n            /* \"contracts/testing.sol\":182:186  l=_l */\n          dup2\n          swap1\n          sstore\n          pop\n            /* \"contracts/testing.sol\":199:201  _b */\n          dup2\n            /* \"contracts/testing.sol\":197:198  b */\n          0x01\n            /* \"contracts/testing.sol\":197:201  b=_b */\n          dup2\n          swap1\n          sstore\n          pop\n            /* \"contracts/testing.sol\":214:216  _h */\n          dup1\n            /* \"contracts/testing.sol\":212:213  h */\n          0x02\n            /* \"contracts/testing.sol\":212:216  h=_h */\n          dup2\n          swap1\n          sstore\n          pop\n            /* \"contracts/testing.sol\":117:224  function setDimension(uint _l,uint _b,uint _h) public {... */\n          pop\n          pop\n          pop\n          jump\t// out\n            /* \"contracts/testing.sol\":230:321  function getDimension() public view returns(uint,uint,uint){... */\n        tag_10:\n            /* \"contracts/testing.sol\":274:278  uint */\n          0x00\n            /* \"contracts/testing.sol\":279:283  uint */\n          dup1\n            /* \"contracts/testing.sol\":284:288  uint */\n          0x00\n            /* \"contracts/testing.sol\":307:308  l */\n          dup1\n          sload\n            /* \"contracts/testing.sol\":309:310  b */\n          sload(0x01)\n            /* \"contracts/testing.sol\":311:312  h */\n          sload(0x02)\n            /* \"contracts/testing.sol\":300:313  return(l,b,h) */\n          swap3\n          pop\n          swap3\n          pop\n          swap3\n          pop\n            /* \"contracts/testing.sol\":230:321  function getDimension() public view returns(uint,uint,uint){... */\n          swap1\n          swap2\n          swap3\n          jump\t// out\n            /* \"#utility.yul\":88:205   */\n        tag_16:\n            /* \"#utility.yul\":197:198   */\n          0x00\n            /* \"#utility.yul\":194:195   */\n          dup1\n            /* \"#utility.yul\":187:199   */\n          revert\n            /* \"#utility.yul\":334:411   */\n        tag_18:\n            /* \"#utility.yul\":371:378   */\n          0x00\n            /* \"#utility.yul\":400:405   */\n          dup2\n            /* \"#utility.yul\":389:405   */\n          swap1\n          pop\n            /* \"#utility.yul\":334:411   */\n          swap2\n          swap1\n          pop\n          jump\t// out\n            /* \"#utility.yul\":417:539   */\n        tag_19:\n            /* \"#utility.yul\":490:514   */\n          tag_28\n            /* \"#utility.yul\":508:513   */\n          dup2\n            /* \"#utility.yul\":490:514   */\n          tag_18\n          jump\t// in\n        tag_28:\n            /* \"#utility.yul\":483:488   */\n          dup2\n            /* \"#utility.yul\":480:515   */\n          eq\n            /* \"#utility.yul\":470:533   */\n          tag_29\n          jumpi\n            /* \"#utility.yul\":529:530   */\n          0x00\n            /* \"#utility.yul\":526:527   */\n          dup1\n            /* \"#utility.yul\":519:531   */\n          revert\n            /* \"#utility.yul\":470:533   */\n        tag_29:\n            /* \"#utility.yul\":417:539   */\n          pop\n          jump\t// out\n            /* \"#utility.yul\":545:684   */\n        tag_20:\n            /* \"#utility.yul\":591:596   */\n          0x00\n            /* \"#utility.yul\":629:635   */\n          dup2\n            /* \"#utility.yul\":616:636   */\n          calldataload\n            /* \"#utility.yul\":607:636   */\n          swap1\n          pop\n            /* \"#utility.yul\":645:678   */\n          tag_31\n            /* \"#utility.yul\":672:677   */\n          dup2\n            /* \"#utility.yul\":645:678   */\n          tag_19\n          jump\t// in\n        tag_31:\n            /* \"#utility.yul\":545:684   */\n          swap3\n          swap2\n          pop\n          pop\n          jump\t// out\n            /* \"#utility.yul\":690:1309   */\n        tag_7:\n            /* \"#utility.yul\":767:773   */\n          0x00\n            /* \"#utility.yul\":775:781   */\n          dup1\n            /* \"#utility.yul\":783:789   */\n          0x00\n            /* \"#utility.yul\":832:834   */\n          0x60\n            /* \"#utility.yul\":820:829   */\n          dup5\n            /* \"#utility.yul\":811:818   */\n          dup7\n            /* \"#utility.yul\":807:830   */\n          sub\n            /* \"#utility.yul\":803:835   */\n          slt\n            /* \"#utility.yul\":800:919   */\n          iszero\n          tag_33\n          jumpi\n            /* \"#utility.yul\":838:917   */\n          tag_34\n          tag_16\n          jump\t// in\n        tag_34:\n            /* \"#utility.yul\":800:919   */\n        tag_33:\n            /* \"#utility.yul\":958:959   */\n          0x00\n            /* \"#utility.yul\":983:1036   */\n          tag_35\n            /* \"#utility.yul\":1028:1035   */\n          dup7\n            /* \"#utility.yul\":1019:1025   */\n          dup3\n            /* \"#utility.yul\":1008:1017   */\n          dup8\n            /* \"#utility.yul\":1004:1026   */\n          add\n            /* \"#utility.yul\":983:1036   */\n          tag_20\n          jump\t// in\n        tag_35:\n            /* \"#utility.yul\":973:1036   */\n          swap4\n          pop\n            /* \"#utility.yul\":929:1046   */\n          pop\n            /* \"#utility.yul\":1085:1087   */\n          0x20\n            /* \"#utility.yul\":1111:1164   */\n          tag_36\n            /* \"#utility.yul\":1156:1163   */\n          dup7\n            /* \"#utility.yul\":1147:1153   */\n          dup3\n            /* \"#utility.yul\":1136:1145   */\n          dup8\n            /* \"#utility.yul\":1132:1154   */\n          add\n            /* \"#utility.yul\":1111:1164   */\n          tag_20\n          jump\t// in\n        tag_36:\n            /* \"#utility.yul\":1101:1164   */\n          swap3\n          pop\n            /* \"#utility.yul\":1056:1174   */\n          pop\n            /* \"#utility.yul\":1213:1215   */\n          0x40\n            /* \"#utility.yul\":1239:1292   */\n          tag_37\n            /* \"#utility.yul\":1284:1291   */\n          dup7\n            /* \"#utility.yul\":1275:1281   */\n          dup3\n            /* \"#utility.yul\":1264:1273   */\n          dup8\n            /* \"#utility.yul\":1260:1282   */\n          add\n            /* \"#utility.yul\":1239:1292   */\n          tag_20\n          jump\t// in\n        tag_37:\n            /* \"#utility.yul\":1229:1292   */\n          swap2\n          pop\n            /* \"#utility.yul\":1184:1302   */\n          pop\n            /* \"#utility.yul\":690:1309   */\n          swap3\n          pop\n          swap3\n          pop\n          swap3\n          jump\t// out\n            /* \"#utility.yul\":1315:1433   */\n        tag_21:\n            /* \"#utility.yul\":1402:1426   */\n          tag_39\n            /* \"#utility.yul\":1420:1425   */\n          dup2\n            /* \"#utility.yul\":1402:1426   */\n          tag_18\n          jump\t// in\n        tag_39:\n            /* \"#utility.yul\":1397:1400   */\n          dup3\n            /* \"#utility.yul\":1390:1427   */\n          mstore\n            /* \"#utility.yul\":1315:1433   */\n          pop\n          pop\n          jump\t// out\n            /* \"#utility.yul\":1439:1881   */\n        tag_12:\n            /* \"#utility.yul\":1588:1592   */\n          0x00\n            /* \"#utility.yul\":1626:1628   */\n          0x60\n            /* \"#utility.yul\":1615:1624   */\n          dup3\n            /* \"#utility.yul\":1611:1629   */\n          add\n            /* \"#utility.yul\":1603:1629   */\n          swap1\n          pop\n            /* \"#utility.yul\":1639:1710   */\n          tag_41\n            /* \"#utility.yul\":1707:1708   */\n          0x00\n            /* \"#utility.yul\":1696:1705   */\n          dup4\n            /* \"#utility.yul\":1692:1709   */\n          add\n            /* \"#utility.yul\":1683:1689   */\n          dup7\n            /* \"#utility.yul\":1639:1710   */\n          tag_21\n          jump\t// in\n        tag_41:\n            /* \"#utility.yul\":1720:1792   */\n          tag_42\n            /* \"#utility.yul\":1788:1790   */\n          0x20\n            /* \"#utility.yul\":1777:1786   */\n          dup4\n            /* \"#utility.yul\":1773:1791   */\n          add\n            /* \"#utility.yul\":1764:1770   */\n          dup6\n            /* \"#utility.yul\":1720:1792   */\n          tag_21\n          jump\t// in\n        tag_42:\n            /* \"#utility.yul\":1802:1874   */\n          tag_43\n            /* \"#utility.yul\":1870:1872   */\n          0x40\n            /* \"#utility.yul\":1859:1868   */\n          dup4\n            /* \"#utility.yul\":1855:1873   */\n          add\n            /* \"#utility.yul\":1846:1852   */\n          dup5\n            /* \"#utility.yul\":1802:1874   */\n          tag_21\n          jump\t// in\n        tag_43:\n            /* \"#utility.yul\":1439:1881   */\n          swap5\n          swap4\n          pop\n          pop\n          pop\n          pop\n          jump\t// out\n\n        auxdata: 0xa2646970667358221220a06c5d95f38c022be840ad906173bb2a4f6384c5b6e20356929a3254c9805b1264736f6c63430008120033\n    }\n}\n",
				"bytecode": {
					"linkReferences": {},
					"object": "60806040526040516100109061007e565b604051809103906000f08015801561002c573d6000803e3d6000fd5b506000806101000a81548173ffffffffffffffffffffffffffffffffffffffff021916908373ffffffffffffffffffffffffffffffffffffffff16021790555034801561007857600080fd5b5061008b565b6101d38061028483390190565b6101ea8061009a6000396000f3fe608060405234801561001057600080fd5b506004361061002b5760003560e01c80635792631814610030575b600080fd5b61004a6004803603810190610045919061011b565b61004c565b005b60008054906101000a900473ffffffffffffffffffffffffffffffffffffffff1673ffffffffffffffffffffffffffffffffffffffff16634948863c8484846040518463ffffffff1660e01b81526004016100a99392919061017d565b600060405180830381600087803b1580156100c357600080fd5b505af11580156100d7573d6000803e3d6000fd5b50505050505050565b600080fd5b6000819050919050565b6100f8816100e5565b811461010357600080fd5b50565b600081359050610115816100ef565b92915050565b600080600060608486031215610134576101336100e0565b5b600061014286828701610106565b935050602061015386828701610106565b925050604061016486828701610106565b9150509250925092565b610177816100e5565b82525050565b6000606082019050610192600083018661016e565b61019f602083018561016e565b6101ac604083018461016e565b94935050505056fea26469706673582212207490dbd979dd5d405716a3526f7592a3533d7e0079e1df9f52523e61393aa7fe64736f6c63430008120033608060405234801561001057600080fd5b506101b3806100206000396000f3fe608060405234801561001057600080fd5b50600436106100365760003560e01c80634948863c1461003b578063f02782dc14610057575b600080fd5b610055600480360381019061005091906100e4565b610077565b005b61005f610091565b60405161006e93929190610146565b60405180910390f35b826000819055508160018190555080600281905550505050565b60008060008054600154600254925092509250909192565b600080fd5b6000819050919050565b6100c1816100ae565b81146100cc57600080fd5b50565b6000813590506100de816100b8565b92915050565b6000806000606084860312156100fd576100fc6100a9565b5b600061010b868287016100cf565b935050602061011c868287016100cf565b925050604061012d868287016100cf565b9150509250925092565b610140816100ae565b82525050565b600060608201905061015b6000830186610137565b6101686020830185610137565b6101756040830184610137565b94935050505056fea2646970667358221220a06c5d95f38c022be840ad906173bb2a4f6384c5b6e20356929a3254c9805b1264736f6c63430008120033",
					"opcodes": "PUSH1 0x80 PUSH1 0x40 MSTORE PUSH1 0x40 MLOAD PUSH2 0x10 SWAP1 PUSH2 0x7E JUMP JUMPDEST PUSH1 0x40 MLOAD DUP1 SWAP2 SUB SWAP1 PUSH1 0x0 CREATE DUP1 ISZERO DUP1 ISZERO PUSH2 0x2C JUMPI RETURNDATASIZE PUSH1 0x0 DUP1 RETURNDATACOPY RETURNDATASIZE PUSH1 0x0 REVERT JUMPDEST POP PUSH1 0x0 DUP1 PUSH2 0x100 EXP DUP2 SLOAD DUP2 PUSH20 0xFFFFFFFFFFFFFFFFFFFFFFFFFFFFFFFFFFFFFFFF MUL NOT AND SWAP1 DUP4 PUSH20 0xFFFFFFFFFFFFFFFFFFFFFFFFFFFFFFFFFFFFFFFF AND MUL OR SWAP1 SSTORE POP CALLVALUE DUP1 ISZERO PUSH2 0x78 JUMPI PUSH1 0x0 DUP1 REVERT JUMPDEST POP PUSH2 0x8B JUMP JUMPDEST PUSH2 0x1D3 DUP1 PUSH2 0x284 DUP4 CODECOPY ADD SWAP1 JUMP JUMPDEST PUSH2 0x1EA DUP1 PUSH2 0x9A PUSH1 0x0 CODECOPY PUSH1 0x0 RETURN INVALID PUSH1 0x80 PUSH1 0x40 MSTORE CALLVALUE DUP1 ISZERO PUSH2 0x10 JUMPI PUSH1 0x0 DUP1 REVERT JUMPDEST POP PUSH1 0x4 CALLDATASIZE LT PUSH2 0x2B JUMPI PUSH1 0x0 CALLDATALOAD PUSH1 0xE0 SHR DUP1 PUSH4 0x57926318 EQ PUSH2 0x30 JUMPI JUMPDEST PUSH1 0x0 DUP1 REVERT JUMPDEST PUSH2 0x4A PUSH1 0x4 DUP1 CALLDATASIZE SUB DUP2 ADD SWAP1 PUSH2 0x45 SWAP2 SWAP1 PUSH2 0x11B JUMP JUMPDEST PUSH2 0x4C JUMP JUMPDEST STOP JUMPDEST PUSH1 0x0 DUP1 SLOAD SWAP1 PUSH2 0x100 EXP SWAP1 DIV PUSH20 0xFFFFFFFFFFFFFFFFFFFFFFFFFFFFFFFFFFFFFFFF AND PUSH20 0xFFFFFFFFFFFFFFFFFFFFFFFFFFFFFFFFFFFFFFFF AND PUSH4 0x4948863C DUP5 DUP5 DUP5 PUSH1 0x40 MLOAD DUP5 PUSH4 0xFFFFFFFF AND PUSH1 0xE0 SHL DUP2 MSTORE PUSH1 0x4 ADD PUSH2 0xA9 SWAP4 SWAP3 SWAP2 SWAP1 PUSH2 0x17D JUMP JUMPDEST PUSH1 0x0 PUSH1 0x40 MLOAD DUP1 DUP4 SUB DUP2 PUSH1 0x0 DUP8 DUP1 EXTCODESIZE ISZERO DUP1 ISZERO PUSH2 0xC3 JUMPI PUSH1 0x0 DUP1 REVERT JUMPDEST POP GAS CALL ISZERO DUP1 ISZERO PUSH2 0xD7 JUMPI RETURNDATASIZE PUSH1 0x0 DUP1 RETURNDATACOPY RETURNDATASIZE PUSH1 0x0 REVERT JUMPDEST POP POP POP POP POP POP POP JUMP JUMPDEST PUSH1 0x0 DUP1 REVERT JUMPDEST PUSH1 0x0 DUP2 SWAP1 POP SWAP2 SWAP1 POP JUMP JUMPDEST PUSH2 0xF8 DUP2 PUSH2 0xE5 JUMP JUMPDEST DUP2 EQ PUSH2 0x103 JUMPI PUSH1 0x0 DUP1 REVERT JUMPDEST POP JUMP JUMPDEST PUSH1 0x0 DUP2 CALLDATALOAD SWAP1 POP PUSH2 0x115 DUP2 PUSH2 0xEF JUMP JUMPDEST SWAP3 SWAP2 POP POP JUMP JUMPDEST PUSH1 0x0 DUP1 PUSH1 0x0 PUSH1 0x60 DUP5 DUP7 SUB SLT ISZERO PUSH2 0x134 JUMPI PUSH2 0x133 PUSH2 0xE0 JUMP JUMPDEST JUMPDEST PUSH1 0x0 PUSH2 0x142 DUP7 DUP3 DUP8 ADD PUSH2 0x106 JUMP JUMPDEST SWAP4 POP POP PUSH1 0x20 PUSH2 0x153 DUP7 DUP3 DUP8 ADD PUSH2 0x106 JUMP JUMPDEST SWAP3 POP POP PUSH1 0x40 PUSH2 0x164 DUP7 DUP3 DUP8 ADD PUSH2 0x106 JUMP JUMPDEST SWAP2 POP POP SWAP3 POP SWAP3 POP SWAP3 JUMP JUMPDEST PUSH2 0x177 DUP2 PUSH2 0xE5 JUMP JUMPDEST DUP3 MSTORE POP POP JUMP JUMPDEST PUSH1 0x0 PUSH1 0x60 DUP3 ADD SWAP1 POP PUSH2 0x192 PUSH1 0x0 DUP4 ADD DUP7 PUSH2 0x16E JUMP JUMPDEST PUSH2 0x19F PUSH1 0x20 DUP4 ADD DUP6 PUSH2 0x16E JUMP JUMPDEST PUSH2 0x1AC PUSH1 0x40 DUP4 ADD DUP5 PUSH2 0x16E JUMP JUMPDEST SWAP5 SWAP4 POP POP POP POP JUMP INVALID LOG2 PUSH5 0x6970667358 0x22 SLT KECCAK256 PUSH21 0x90DBD979DD5D405716A3526F7592A3533D7E0079E1 0xDF SWAP16 MSTORE MSTORE RETURNDATACOPY PUSH2 0x393A 0xA7 INVALID PUSH5 0x736F6C6343 STOP ADDMOD SLT STOP CALLER PUSH1 0x80 PUSH1 0x40 MSTORE CALLVALUE DUP1 ISZERO PUSH2 0x10 JUMPI PUSH1 0x0 DUP1 REVERT JUMPDEST POP PUSH2 0x1B3 DUP1 PUSH2 0x20 PUSH1 0x0 CODECOPY PUSH1 0x0 RETURN INVALID PUSH1 0x80 PUSH1 0x40 MSTORE CALLVALUE DUP1 ISZERO PUSH2 0x10 JUMPI PUSH1 0x0 DUP1 REVERT JUMPDEST POP PUSH1 0x4 CALLDATASIZE LT PUSH2 0x36 JUMPI PUSH1 0x0 CALLDATALOAD PUSH1 0xE0 SHR DUP1 PUSH4 0x4948863C EQ PUSH2 0x3B JUMPI DUP1 PUSH4 0xF02782DC EQ PUSH2 0x57 JUMPI JUMPDEST PUSH1 0x0 DUP1 REVERT JUMPDEST PUSH2 0x55 PUSH1 0x4 DUP1 CALLDATASIZE SUB DUP2 ADD SWAP1 PUSH2 0x50 SWAP2 SWAP1 PUSH2 0xE4 JUMP JUMPDEST PUSH2 0x77 JUMP JUMPDEST STOP JUMPDEST PUSH2 0x5F PUSH2 0x91 JUMP JUMPDEST PUSH1 0x40 MLOAD PUSH2 0x6E SWAP4 SWAP3 SWAP2 SWAP1 PUSH2 0x146 JUMP JUMPDEST PUSH1 0x40 MLOAD DUP1 SWAP2 SUB SWAP1 RETURN JUMPDEST DUP3 PUSH1 0x0 DUP2 SWAP1 SSTORE POP DUP2 PUSH1 0x1 DUP2 SWAP1 SSTORE POP DUP1 PUSH1 0x2 DUP2 SWAP1 SSTORE POP POP POP POP JUMP JUMPDEST PUSH1 0x0 DUP1 PUSH1 0x0 DUP1 SLOAD PUSH1 0x1 SLOAD PUSH1 0x2 SLOAD SWAP3 POP SWAP3 POP SWAP3 POP SWAP1 SWAP2 SWAP3 JUMP JUMPDEST PUSH1 0x0 DUP1 REVERT JUMPDEST PUSH1 0x0 DUP2 SWAP1 POP SWAP2 SWAP1 POP JUMP JUMPDEST PUSH2 0xC1 DUP2 PUSH2 0xAE JUMP JUMPDEST DUP2 EQ PUSH2 0xCC JUMPI PUSH1 0x0 DUP1 REVERT JUMPDEST POP JUMP JUMPDEST PUSH1 0x0 DUP2 CALLDATALOAD SWAP1 POP PUSH2 0xDE DUP2 PUSH2 0xB8 JUMP JUMPDEST SWAP3 SWAP2 POP POP JUMP JUMPDEST PUSH1 0x0 DUP1 PUSH1 0x0 PUSH1 0x60 DUP5 DUP7 SUB SLT ISZERO PUSH2 0xFD JUMPI PUSH2 0xFC PUSH2 0xA9 JUMP JUMPDEST JUMPDEST PUSH1 0x0 PUSH2 0x10B DUP7 DUP3 DUP8 ADD PUSH2 0xCF JUMP JUMPDEST SWAP4 POP POP PUSH1 0x20 PUSH2 0x11C DUP7 DUP3 DUP8 ADD PUSH2 0xCF JUMP JUMPDEST SWAP3 POP POP PUSH1 0x40 PUSH2 0x12D DUP7 DUP3 DUP8 ADD PUSH2 0xCF JUMP JUMPDEST SWAP2 POP POP SWAP3 POP SWAP3 POP SWAP3 JUMP JUMPDEST PUSH2 0x140 DUP2 PUSH2 0xAE JUMP JUMPDEST DUP3 MSTORE POP POP JUMP JUMPDEST PUSH1 0x0 PUSH1 0x60 DUP3 ADD SWAP1 POP PUSH2 0x15B PUSH1 0x0 DUP4 ADD DUP7 PUSH2 0x137 JUMP JUMPDEST PUSH2 0x168 PUSH1 0x20 DUP4 ADD DUP6 PUSH2 0x137 JUMP JUMPDEST PUSH2 0x175 PUSH1 0x40 DUP4 ADD DUP5 PUSH2 0x137 JUMP JUMPDEST SWAP5 SWAP4 POP POP POP POP JUMP INVALID LOG2 PUSH5 0x6970667358 0x22 SLT KECCAK256 LOG0 PUSH13 0x5D95F38C022BE840AD906173BB 0x2A 0x4F PUSH4 0x84C5B6E2 SUB JUMP SWAP3 SWAP11 ORIGIN SLOAD 0xC9 DUP1 JUMPDEST SLT PUSH5 0x736F6C6343 STOP ADDMOD SLT STOP CALLER "
				},
				"gasEstimates": {
					"creation": {
						"codeDepositCost": "98000",
						"executionCost": "infinite",
						"totalCost": "infinite"
					},
					"external": {
						"setdi(uint256,uint256,uint256)": "infinite"
					}
				},
				"methodIdentifiers": {
					"setdi(uint256,uint256,uint256)": "57926318"
				}
			},
			"storageLayout": {
				"storage": [
					{
						"astId": 52,
						"contract": "contracts/testing.sol:obj",
						"label": "obj",
						"offset": 0,
						"slot": "0",
						"type": "t_contract(data)45"
					}
				],
				"types": {
					"t_contract(data)45": {
						"encoding": "inplace",
						"label": "contract data",
						"numberOfBytes": "20"
					}
				}
			},
			"userdoc": {
				"kind": "user",
				"methods": {},
				"version": 1
			}
		}
	}
}