{
	"PROJECT/Tweeter.sol": {
		"Tweeter": {
			"abi": [
				{
					"inputs": [
						{
							"internalType": "address",
							"name": "_operator",
							"type": "address"
						}
					],
					"name": "allow",
					"outputs": [],
					"stateMutability": "nonpayable",
					"type": "function"
				},
				{
					"inputs": [
						{
							"internalType": "address",
							"name": "_operator",
							"type": "address"
						}
					],
					"name": "disallow",
					"outputs": [],
					"stateMutability": "nonpayable",
					"type": "function"
				},
				{
					"inputs": [
						{
							"internalType": "address",
							"name": "_followed",
							"type": "address"
						}
					],
					"name": "follow",
					"outputs": [],
					"stateMutability": "nonpayable",
					"type": "function"
				},
				{
					"inputs": [
						{
							"internalType": "uint256",
							"name": "count",
							"type": "uint256"
						}
					],
					"name": "getLatestTweets",
					"outputs": [
						{
							"components": [
								{
									"internalType": "uint256",
									"name": "id",
									"type": "uint256"
								},
								{
									"internalType": "address",
									"name": "author",
									"type": "address"
								},
								{
									"internalType": "string",
									"name": "content",
									"type": "string"
								},
								{
									"internalType": "uint256",
									"name": "createdAt",
									"type": "uint256"
								}
							],
							"internalType": "struct Tweeter.Tweet[]",
							"name": "",
							"type": "tuple[]"
						}
					],
					"stateMutability": "view",
					"type": "function"
				},
				{
					"inputs": [
						{
							"internalType": "address",
							"name": "_user",
							"type": "address"
						},
						{
							"internalType": "uint256",
							"name": "count",
							"type": "uint256"
						}
					],
					"name": "getLatestofUser",
					"outputs": [
						{
							"components": [
								{
									"internalType": "uint256",
									"name": "id",
									"type": "uint256"
								},
								{
									"internalType": "address",
									"name": "author",
									"type": "address"
								},
								{
									"internalType": "string",
									"name": "content",
									"type": "string"
								},
								{
									"internalType": "uint256",
									"name": "createdAt",
									"type": "uint256"
								}
							],
							"internalType": "struct Tweeter.Tweet[]",
							"name": "",
							"type": "tuple[]"
						}
					],
					"stateMutability": "view",
					"type": "function"
				},
				{
					"inputs": [
						{
							"internalType": "string",
							"name": "_content",
							"type": "string"
						},
						{
							"internalType": "address",
							"name": "_to",
							"type": "address"
						}
					],
					"name": "sendmessage",
					"outputs": [],
					"stateMutability": "nonpayable",
					"type": "function"
				},
				{
					"inputs": [
						{
							"internalType": "address",
							"name": "_from",
							"type": "address"
						},
						{
							"internalType": "string",
							"name": "_content",
							"type": "string"
						}
					],
					"name": "tweet",
					"outputs": [],
					"stateMutability": "nonpayable",
					"type": "function"
				},
				{
					"inputs": [
						{
							"internalType": "address",
							"name": "_from",
							"type": "address"
						},
						{
							"internalType": "address",
							"name": "_to",
							"type": "address"
						},
						{
							"internalType": "string",
							"name": "content",
							"type": "string"
						}
					],
					"name": "tweet",
					"outputs": [],
					"stateMutability": "nonpayable",
					"type": "function"
				},
				{
					"inputs": [
						{
							"internalType": "string",
							"name": "_content",
							"type": "string"
						}
					],
					"name": "tweet",
					"outputs": [],
					"stateMutability": "nonpayable",
					"type": "function"
				}
			],
			"devdoc": {
				"kind": "dev",
				"methods": {},
				"version": 1
			},
			"evm": {
				"assembly": "    /* \"PROJECT/Tweeter.sol\":68:2949  contract Tweeter{... */\n  mstore(0x40, 0x80)\n  callvalue\n  dup1\n  iszero\n  tag_1\n  jumpi\n  0x00\n  dup1\n  revert\ntag_1:\n  pop\n  dataSize(sub_0)\n  dup1\n  dataOffset(sub_0)\n  0x00\n  codecopy\n  0x00\n  return\nstop\n\nsub_0: assembly {\n        /* \"PROJECT/Tweeter.sol\":68:2949  contract Tweeter{... */\n      mstore(0x40, 0x80)\n      callvalue\n      dup1\n      iszero\n      tag_1\n      jumpi\n      0x00\n      dup1\n      revert\n    tag_1:\n      pop\n      jumpi(tag_2, lt(calldatasize, 0x04))\n      shr(0xe0, calldataload(0x00))\n      dup1\n      0xd21d1596\n      gt\n      tag_12\n      jumpi\n      dup1\n      0xd21d1596\n      eq\n      tag_7\n      jumpi\n      dup1\n      0xeb2eb2b2\n      eq\n      tag_8\n      jumpi\n      dup1\n      0xf5255cd8\n      eq\n      tag_9\n      jumpi\n      dup1\n      0xfb46d4c5\n      eq\n      tag_10\n      jumpi\n      dup1\n      0xff9913e8\n      eq\n      tag_11\n      jumpi\n      jump(tag_2)\n    tag_12:\n      dup1\n      0x4dbf27cc\n      eq\n      tag_3\n      jumpi\n      dup1\n      0x4dc0a687\n      eq\n      tag_4\n      jumpi\n      dup1\n      0x5284b64a\n      eq\n      tag_5\n      jumpi\n      dup1\n      0xa9ed9cb8\n      eq\n      tag_6\n      jumpi\n    tag_2:\n      0x00\n      dup1\n      revert\n        /* \"PROJECT/Tweeter.sol\":1499:1596  function follow(address _followed) public{... */\n    tag_3:\n      tag_13\n      0x04\n      dup1\n      calldatasize\n      sub\n      dup2\n      add\n      swap1\n      tag_14\n      swap2\n      swap1\n      tag_15\n      jump\t// in\n    tag_14:\n      tag_16\n      jump\t// in\n    tag_13:\n      stop\n        /* \"PROJECT/Tweeter.sol\":1810:2284  function getLatestTweets(uint count) public view returns(Tweet[] memory){... */\n    tag_4:\n      tag_17\n      0x04\n      dup1\n      calldatasize\n      sub\n      dup2\n      add\n      swap1\n      tag_18\n      swap2\n      swap1\n      tag_19\n      jump\t// in\n    tag_18:\n      tag_20\n      jump\t// in\n    tag_17:\n      mload(0x40)\n      tag_21\n      swap2\n      swap1\n      tag_22\n      jump\t// in\n    tag_21:\n      mload(0x40)\n      dup1\n      swap2\n      sub\n      swap1\n      return\n        /* \"PROJECT/Tweeter.sol\":2290:2946  function getLatestofUser(address _user,uint count) public view returns(Tweet[] memory){... */\n    tag_5:\n      tag_23\n      0x04\n      dup1\n      calldatasize\n      sub\n      dup2\n      add\n      swap1\n      tag_24\n      swap2\n      swap1\n      tag_25\n      jump\t// in\n    tag_24:\n      tag_26\n      jump\t// in\n    tag_23:\n      mload(0x40)\n      tag_27\n      swap2\n      swap1\n      tag_22\n      jump\t// in\n    tag_27:\n      mload(0x40)\n      dup1\n      swap2\n      sub\n      swap1\n      return\n        /* \"PROJECT/Tweeter.sol\":1704:1804  function disallow(address _operator) public{... */\n    tag_6:\n      tag_28\n      0x04\n      dup1\n      calldatasize\n      sub\n      dup2\n      add\n      swap1\n      tag_29\n      swap2\n      swap1\n      tag_15\n      jump\t// in\n    tag_29:\n      tag_30\n      jump\t// in\n    tag_28:\n      stop\n        /* \"PROJECT/Tweeter.sol\":1138:1238  function tweet(address _from,string memory _content) public{... */\n    tag_7:\n      tag_31\n      0x04\n      dup1\n      calldatasize\n      sub\n      dup2\n      add\n      swap1\n      tag_32\n      swap2\n      swap1\n      tag_33\n      jump\t// in\n    tag_32:\n      tag_34\n      jump\t// in\n    tag_31:\n      stop\n        /* \"PROJECT/Tweeter.sol\":1371:1493  function tweet(address _from,address _to,string memory content) public{... */\n    tag_8:\n      tag_35\n      0x04\n      dup1\n      calldatasize\n      sub\n      dup2\n      add\n      swap1\n      tag_36\n      swap2\n      swap1\n      tag_37\n      jump\t// in\n    tag_36:\n      tag_38\n      jump\t// in\n    tag_35:\n      stop\n        /* \"PROJECT/Tweeter.sol\":1244:1365  function sendmessage(string memory _content,address _to) public{... */\n    tag_9:\n      tag_39\n      0x04\n      dup1\n      calldatasize\n      sub\n      dup2\n      add\n      swap1\n      tag_40\n      swap2\n      swap1\n      tag_41\n      jump\t// in\n    tag_40:\n      tag_42\n      jump\t// in\n    tag_39:\n      stop\n        /* \"PROJECT/Tweeter.sol\":1039:1132  function tweet(string memory _content) public{... */\n    tag_10:\n      tag_43\n      0x04\n      dup1\n      calldatasize\n      sub\n      dup2\n      add\n      swap1\n      tag_44\n      swap2\n      swap1\n      tag_45\n      jump\t// in\n    tag_44:\n      tag_46\n      jump\t// in\n    tag_43:\n      stop\n        /* \"PROJECT/Tweeter.sol\":1602:1698  function allow(address _operator) public{... */\n    tag_11:\n      tag_47\n      0x04\n      dup1\n      calldatasize\n      sub\n      dup2\n      add\n      swap1\n      tag_48\n      swap2\n      swap1\n      tag_15\n      jump\t// in\n    tag_48:\n      tag_49\n      jump\t// in\n    tag_47:\n      stop\n        /* \"PROJECT/Tweeter.sol\":1499:1596  function follow(address _followed) public{... */\n    tag_16:\n        /* \"PROJECT/Tweeter.sol\":1551:1560  followers */\n      0x04\n        /* \"PROJECT/Tweeter.sol\":1551:1572  followers[msg.sender] */\n      0x00\n        /* \"PROJECT/Tweeter.sol\":1561:1571  msg.sender */\n      caller\n        /* \"PROJECT/Tweeter.sol\":1551:1572  followers[msg.sender] */\n      0xffffffffffffffffffffffffffffffffffffffff\n      and\n      0xffffffffffffffffffffffffffffffffffffffff\n      and\n      dup2\n      mstore\n      0x20\n      add\n      swap1\n      dup2\n      mstore\n      0x20\n      add\n      0x00\n      keccak256\n        /* \"PROJECT/Tweeter.sol\":1578:1587  _followed */\n      dup2\n        /* \"PROJECT/Tweeter.sol\":1551:1588  followers[msg.sender].push(_followed) */\n      swap1\n      dup1\n      0x01\n      dup2\n      sload\n      add\n      dup1\n      dup3\n      sstore\n      dup1\n      swap2\n      pop\n      pop\n      0x01\n      swap1\n      sub\n      swap1\n      0x00\n      mstore\n      keccak256(0x00, 0x20)\n      add\n      0x00\n      swap1\n      swap2\n      swap1\n      swap2\n      swap1\n      swap2\n      0x0100\n      exp\n      dup2\n      sload\n      dup2\n      0xffffffffffffffffffffffffffffffffffffffff\n      mul\n      not\n      and\n      swap1\n      dup4\n      0xffffffffffffffffffffffffffffffffffffffff\n      and\n      mul\n      or\n      swap1\n      sstore\n      pop\n        /* \"PROJECT/Tweeter.sol\":1499:1596  function follow(address _followed) public{... */\n      pop\n      jump\t// out\n        /* \"PROJECT/Tweeter.sol\":1810:2284  function getLatestTweets(uint count) public view returns(Tweet[] memory){... */\n    tag_20:\n        /* \"PROJECT/Tweeter.sol\":1867:1881  Tweet[] memory */\n      0x60\n        /* \"PROJECT/Tweeter.sol\":1907:1908  0 */\n      0x00\n        /* \"PROJECT/Tweeter.sol\":1901:1906  count */\n      dup3\n        /* \"PROJECT/Tweeter.sol\":1901:1908  count>0 */\n      gt\n        /* \"PROJECT/Tweeter.sol\":1901:1924  count>0 && count<nextId */\n      dup1\n      iszero\n      tag_53\n      jumpi\n      pop\n        /* \"PROJECT/Tweeter.sol\":1918:1924  nextId */\n      sload(0x05)\n        /* \"PROJECT/Tweeter.sol\":1912:1917  count */\n      dup3\n        /* \"PROJECT/Tweeter.sol\":1912:1924  count<nextId */\n      lt\n        /* \"PROJECT/Tweeter.sol\":1901:1924  count>0 && count<nextId */\n    tag_53:\n        /* \"PROJECT/Tweeter.sol\":1893:1947  require(count>0 && count<nextId,\"count is not proper\") */\n      tag_54\n      jumpi\n      mload(0x40)\n      0x08c379a000000000000000000000000000000000000000000000000000000000\n      dup2\n      mstore\n      0x04\n      add\n      tag_55\n      swap1\n      tag_56\n      jump\t// in\n    tag_55:\n      mload(0x40)\n      dup1\n      swap2\n      sub\n      swap1\n      revert\n    tag_54:\n        /* \"PROJECT/Tweeter.sol\":1958:1980  Tweet[] memory _tweets */\n      0x00\n        /* \"PROJECT/Tweeter.sol\":1995:2000  count */\n      dup3\n        /* \"PROJECT/Tweeter.sol\":1983:2001  new Tweet[](count) */\n      0xffffffffffffffff\n      dup2\n      gt\n      iszero\n      tag_57\n      jumpi\n      tag_58\n      tag_59\n      jump\t// in\n    tag_58:\n    tag_57:\n      mload(0x40)\n      swap1\n      dup1\n      dup3\n      mstore\n      dup1\n      0x20\n      mul\n      0x20\n      add\n      dup3\n      add\n      0x40\n      mstore\n      dup1\n      iszero\n      tag_60\n      jumpi\n      dup2\n      0x20\n      add\n    tag_61:\n      tag_62\n      tag_63\n      jump\t// in\n    tag_62:\n      dup2\n      mstore\n      0x20\n      add\n      swap1\n      0x01\n      swap1\n      sub\n      swap1\n      dup2\n      tag_61\n      jumpi\n      swap1\n      pop\n    tag_60:\n      pop\n        /* \"PROJECT/Tweeter.sol\":1958:2001  Tweet[] memory _tweets = new Tweet[](count) */\n      swap1\n      pop\n        /* \"PROJECT/Tweeter.sol\":2012:2018  uint k */\n      0x00\n        /* \"PROJECT/Tweeter.sol\":2033:2039  uint i */\n      dup1\n        /* \"PROJECT/Tweeter.sol\":2047:2052  count */\n      dup5\n        /* \"PROJECT/Tweeter.sol\":2040:2046  nextId */\n      sload(0x05)\n        /* \"PROJECT/Tweeter.sol\":2040:2052  nextId-count */\n      tag_67\n      swap2\n      swap1\n      tag_68\n      jump\t// in\n    tag_67:\n        /* \"PROJECT/Tweeter.sol\":2033:2052  uint i=nextId-count */\n      swap1\n      pop\n        /* \"PROJECT/Tweeter.sol\":2029:2252  for(uint i=nextId-count;i<nextId;i++){... */\n    tag_64:\n        /* \"PROJECT/Tweeter.sol\":2055:2061  nextId */\n      sload(0x05)\n        /* \"PROJECT/Tweeter.sol\":2053:2054  i */\n      dup2\n        /* \"PROJECT/Tweeter.sol\":2053:2061  i<nextId */\n      lt\n        /* \"PROJECT/Tweeter.sol\":2029:2252  for(uint i=nextId-count;i<nextId;i++){... */\n      iszero\n      tag_65\n      jumpi\n        /* \"PROJECT/Tweeter.sol\":2081:2105  Tweet storage _structure */\n      0x00\n        /* \"PROJECT/Tweeter.sol\":2108:2114  tweets */\n      dup1\n        /* \"PROJECT/Tweeter.sol\":2108:2117  tweets[i] */\n      0x00\n        /* \"PROJECT/Tweeter.sol\":2115:2116  i */\n      dup4\n        /* \"PROJECT/Tweeter.sol\":2108:2117  tweets[i] */\n      dup2\n      mstore\n      0x20\n      add\n      swap1\n      dup2\n      mstore\n      0x20\n      add\n      0x00\n      keccak256\n        /* \"PROJECT/Tweeter.sol\":2081:2117  Tweet storage _structure = tweets[i] */\n      swap1\n      pop\n        /* \"PROJECT/Tweeter.sol\":2144:2222  Tweet(_structure.id,_structure.author,_structure.content,_structure.createdAt) */\n      mload(0x40)\n      dup1\n      0x80\n      add\n      0x40\n      mstore\n      dup1\n        /* \"PROJECT/Tweeter.sol\":2150:2160  _structure */\n      dup3\n        /* \"PROJECT/Tweeter.sol\":2150:2163  _structure.id */\n      0x00\n      add\n      sload\n        /* \"PROJECT/Tweeter.sol\":2144:2222  Tweet(_structure.id,_structure.author,_structure.content,_structure.createdAt) */\n      dup2\n      mstore\n      0x20\n      add\n        /* \"PROJECT/Tweeter.sol\":2164:2174  _structure */\n      dup3\n        /* \"PROJECT/Tweeter.sol\":2164:2181  _structure.author */\n      0x01\n      add\n      0x00\n      swap1\n      sload\n      swap1\n      0x0100\n      exp\n      swap1\n      div\n      0xffffffffffffffffffffffffffffffffffffffff\n      and\n        /* \"PROJECT/Tweeter.sol\":2144:2222  Tweet(_structure.id,_structure.author,_structure.content,_structure.createdAt) */\n      0xffffffffffffffffffffffffffffffffffffffff\n      and\n      dup2\n      mstore\n      0x20\n      add\n        /* \"PROJECT/Tweeter.sol\":2182:2192  _structure */\n      dup3\n        /* \"PROJECT/Tweeter.sol\":2182:2200  _structure.content */\n      0x02\n      add\n        /* \"PROJECT/Tweeter.sol\":2144:2222  Tweet(_structure.id,_structure.author,_structure.content,_structure.createdAt) */\n      dup1\n      sload\n      tag_69\n      swap1\n      tag_70\n      jump\t// in\n    tag_69:\n      dup1\n      0x1f\n      add\n      0x20\n      dup1\n      swap2\n      div\n      mul\n      0x20\n      add\n      mload(0x40)\n      swap1\n      dup2\n      add\n      0x40\n      mstore\n      dup1\n      swap3\n      swap2\n      swap1\n      dup2\n      dup2\n      mstore\n      0x20\n      add\n      dup3\n      dup1\n      sload\n      tag_71\n      swap1\n      tag_70\n      jump\t// in\n    tag_71:\n      dup1\n      iszero\n      tag_72\n      jumpi\n      dup1\n      0x1f\n      lt\n      tag_73\n      jumpi\n      0x0100\n      dup1\n      dup4\n      sload\n      div\n      mul\n      dup4\n      mstore\n      swap2\n      0x20\n      add\n      swap2\n      jump(tag_72)\n    tag_73:\n      dup3\n      add\n      swap2\n      swap1\n      0x00\n      mstore\n      keccak256(0x00, 0x20)\n      swap1\n    tag_74:\n      dup2\n      sload\n      dup2\n      mstore\n      swap1\n      0x01\n      add\n      swap1\n      0x20\n      add\n      dup1\n      dup4\n      gt\n      tag_74\n      jumpi\n      dup3\n      swap1\n      sub\n      0x1f\n      and\n      dup3\n      add\n      swap2\n    tag_72:\n      pop\n      pop\n      pop\n      pop\n      pop\n      dup2\n      mstore\n      0x20\n      add\n        /* \"PROJECT/Tweeter.sol\":2201:2211  _structure */\n      dup3\n        /* \"PROJECT/Tweeter.sol\":2201:2221  _structure.createdAt */\n      0x03\n      add\n      sload\n        /* \"PROJECT/Tweeter.sol\":2144:2222  Tweet(_structure.id,_structure.author,_structure.content,_structure.createdAt) */\n      dup2\n      mstore\n      pop\n        /* \"PROJECT/Tweeter.sol\":2132:2139  _tweets */\n      dup5\n        /* \"PROJECT/Tweeter.sol\":2140:2141  k */\n      dup5\n        /* \"PROJECT/Tweeter.sol\":2132:2142  _tweets[k] */\n      dup2\n      mload\n      dup2\n      lt\n      tag_75\n      jumpi\n      tag_76\n      tag_77\n      jump\t// in\n    tag_76:\n    tag_75:\n      0x20\n      mul\n      0x20\n      add\n      add\n        /* \"PROJECT/Tweeter.sol\":2132:2222  _tweets[k]= Tweet(_structure.id,_structure.author,_structure.content,_structure.createdAt) */\n      dup2\n      swap1\n      mstore\n      pop\n        /* \"PROJECT/Tweeter.sol\":2237:2240  k++ */\n      dup3\n      dup1\n      tag_78\n      swap1\n      tag_79\n      jump\t// in\n    tag_78:\n      swap4\n      pop\n      pop\n        /* \"PROJECT/Tweeter.sol\":2066:2252  {... */\n      pop\n        /* \"PROJECT/Tweeter.sol\":2062:2065  i++ */\n      dup1\n      dup1\n      tag_80\n      swap1\n      tag_79\n      jump\t// in\n    tag_80:\n      swap2\n      pop\n      pop\n        /* \"PROJECT/Tweeter.sol\":2029:2252  for(uint i=nextId-count;i<nextId;i++){... */\n      jump(tag_64)\n    tag_65:\n      pop\n        /* \"PROJECT/Tweeter.sol\":2269:2276  _tweets */\n      dup2\n        /* \"PROJECT/Tweeter.sol\":2262:2276  return _tweets */\n      swap3\n      pop\n      pop\n      pop\n        /* \"PROJECT/Tweeter.sol\":1810:2284  function getLatestTweets(uint count) public view returns(Tweet[] memory){... */\n      swap2\n      swap1\n      pop\n      jump\t// out\n        /* \"PROJECT/Tweeter.sol\":2290:2946  function getLatestofUser(address _user,uint count) public view returns(Tweet[] memory){... */\n    tag_26:\n        /* \"PROJECT/Tweeter.sol\":2361:2375  Tweet[] memory */\n      0x60\n        /* \"PROJECT/Tweeter.sol\":2401:2402  0 */\n      0x00\n        /* \"PROJECT/Tweeter.sol\":2395:2400  count */\n      dup3\n        /* \"PROJECT/Tweeter.sol\":2395:2402  count>0 */\n      gt\n        /* \"PROJECT/Tweeter.sol\":2395:2419  count>0 && count<=nextId */\n      dup1\n      iszero\n      tag_82\n      jumpi\n      pop\n        /* \"PROJECT/Tweeter.sol\":2413:2419  nextId */\n      sload(0x05)\n        /* \"PROJECT/Tweeter.sol\":2406:2411  count */\n      dup3\n        /* \"PROJECT/Tweeter.sol\":2406:2419  count<=nextId */\n      gt\n      iszero\n        /* \"PROJECT/Tweeter.sol\":2395:2419  count>0 && count<=nextId */\n    tag_82:\n        /* \"PROJECT/Tweeter.sol\":2387:2442  require(count>0 && count<=nextId,\"count is not define\") */\n      tag_83\n      jumpi\n      mload(0x40)\n      0x08c379a000000000000000000000000000000000000000000000000000000000\n      dup2\n      mstore\n      0x04\n      add\n      tag_84\n      swap1\n      tag_85\n      jump\t// in\n    tag_84:\n      mload(0x40)\n      dup1\n      swap2\n      sub\n      swap1\n      revert\n    tag_83:\n        /* \"PROJECT/Tweeter.sol\":2483:2505  Tweet[] memory _tweets */\n      0x00\n        /* \"PROJECT/Tweeter.sol\":2520:2525  count */\n      dup3\n        /* \"PROJECT/Tweeter.sol\":2508:2526  new Tweet[](count) */\n      0xffffffffffffffff\n      dup2\n      gt\n      iszero\n      tag_86\n      jumpi\n      tag_87\n      tag_59\n      jump\t// in\n    tag_87:\n    tag_86:\n      mload(0x40)\n      swap1\n      dup1\n      dup3\n      mstore\n      dup1\n      0x20\n      mul\n      0x20\n      add\n      dup3\n      add\n      0x40\n      mstore\n      dup1\n      iszero\n      tag_88\n      jumpi\n      dup2\n      0x20\n      add\n    tag_89:\n      tag_90\n      tag_63\n      jump\t// in\n    tag_90:\n      dup2\n      mstore\n      0x20\n      add\n      swap1\n      0x01\n      swap1\n      sub\n      swap1\n      dup2\n      tag_89\n      jumpi\n      swap1\n      pop\n    tag_88:\n      pop\n        /* \"PROJECT/Tweeter.sol\":2483:2526  Tweet[] memory _tweets = new Tweet[](count) */\n      swap1\n      pop\n        /* \"PROJECT/Tweeter.sol\":2537:2554  uint[] memory ids */\n      0x00\n        /* \"PROJECT/Tweeter.sol\":2556:2563  tweetOf */\n      0x01\n        /* \"PROJECT/Tweeter.sol\":2556:2570  tweetOf[_user] */\n      0x00\n        /* \"PROJECT/Tweeter.sol\":2564:2569  _user */\n      dup7\n        /* \"PROJECT/Tweeter.sol\":2556:2570  tweetOf[_user] */\n      0xffffffffffffffffffffffffffffffffffffffff\n      and\n      0xffffffffffffffffffffffffffffffffffffffff\n      and\n      dup2\n      mstore\n      0x20\n      add\n      swap1\n      dup2\n      mstore\n      0x20\n      add\n      0x00\n      keccak256\n        /* \"PROJECT/Tweeter.sol\":2537:2570  uint[] memory ids= tweetOf[_user] */\n      dup1\n      sload\n      dup1\n      0x20\n      mul\n      0x20\n      add\n      mload(0x40)\n      swap1\n      dup2\n      add\n      0x40\n      mstore\n      dup1\n      swap3\n      swap2\n      swap1\n      dup2\n      dup2\n      mstore\n      0x20\n      add\n      dup3\n      dup1\n      sload\n      dup1\n      iszero\n      tag_91\n      jumpi\n      0x20\n      mul\n      dup3\n      add\n      swap2\n      swap1\n      0x00\n      mstore\n      keccak256(0x00, 0x20)\n      swap1\n    tag_92:\n      dup2\n      sload\n      dup2\n      mstore\n      0x20\n      add\n      swap1\n      0x01\n      add\n      swap1\n      dup1\n      dup4\n      gt\n      tag_92\n      jumpi\n    tag_91:\n      pop\n      pop\n      pop\n      pop\n      pop\n      swap1\n      pop\n        /* \"PROJECT/Tweeter.sol\":2596:2597  0 */\n      0x00\n        /* \"PROJECT/Tweeter.sol\":2590:2595  count */\n      dup5\n        /* \"PROJECT/Tweeter.sol\":2590:2597  count>0 */\n      gt\n        /* \"PROJECT/Tweeter.sol\":2590:2618  count>0 && count<=ids.length */\n      dup1\n      iszero\n      tag_93\n      jumpi\n      pop\n        /* \"PROJECT/Tweeter.sol\":2608:2611  ids */\n      dup1\n        /* \"PROJECT/Tweeter.sol\":2608:2618  ids.length */\n      mload\n        /* \"PROJECT/Tweeter.sol\":2601:2606  count */\n      dup5\n        /* \"PROJECT/Tweeter.sol\":2601:2618  count<=ids.length */\n      gt\n      iszero\n        /* \"PROJECT/Tweeter.sol\":2590:2618  count>0 && count<=ids.length */\n    tag_93:\n        /* \"PROJECT/Tweeter.sol\":2582:2650  require(count>0 && count<=ids.length,\"count is not properly define\") */\n      tag_94\n      jumpi\n      mload(0x40)\n      0x08c379a000000000000000000000000000000000000000000000000000000000\n      dup2\n      mstore\n      0x04\n      add\n      tag_95\n      swap1\n      tag_96\n      jump\t// in\n    tag_95:\n      mload(0x40)\n      dup1\n      swap2\n      sub\n      swap1\n      revert\n    tag_94:\n        /* \"PROJECT/Tweeter.sol\":2661:2667  uint k */\n      0x00\n        /* \"PROJECT/Tweeter.sol\":2682:2688  uint i */\n      dup1\n        /* \"PROJECT/Tweeter.sol\":2700:2705  count */\n      dup6\n        /* \"PROJECT/Tweeter.sol\":2689:2692  ids */\n      dup4\n        /* \"PROJECT/Tweeter.sol\":2689:2699  ids.length */\n      mload\n        /* \"PROJECT/Tweeter.sol\":2689:2705  ids.length-count */\n      tag_100\n      swap2\n      swap1\n      tag_68\n      jump\t// in\n    tag_100:\n        /* \"PROJECT/Tweeter.sol\":2682:2705  uint i=ids.length-count */\n      swap1\n      pop\n        /* \"PROJECT/Tweeter.sol\":2678:2914  for(uint i=ids.length-count;i<ids.length;i++){... */\n    tag_97:\n        /* \"PROJECT/Tweeter.sol\":2708:2711  ids */\n      dup3\n        /* \"PROJECT/Tweeter.sol\":2708:2718  ids.length */\n      mload\n        /* \"PROJECT/Tweeter.sol\":2706:2707  i */\n      dup2\n        /* \"PROJECT/Tweeter.sol\":2706:2718  i<ids.length */\n      lt\n        /* \"PROJECT/Tweeter.sol\":2678:2914  for(uint i=ids.length-count;i<ids.length;i++){... */\n      iszero\n      tag_98\n      jumpi\n        /* \"PROJECT/Tweeter.sol\":2738:2762  Tweet storage _structure */\n      0x00\n        /* \"PROJECT/Tweeter.sol\":2765:2771  tweets */\n      dup1\n        /* \"PROJECT/Tweeter.sol\":2765:2779  tweets[ids[i]] */\n      0x00\n        /* \"PROJECT/Tweeter.sol\":2772:2775  ids */\n      dup6\n        /* \"PROJECT/Tweeter.sol\":2776:2777  i */\n      dup5\n        /* \"PROJECT/Tweeter.sol\":2772:2778  ids[i] */\n      dup2\n      mload\n      dup2\n      lt\n      tag_101\n      jumpi\n      tag_102\n      tag_77\n      jump\t// in\n    tag_102:\n    tag_101:\n      0x20\n      mul\n      0x20\n      add\n      add\n      mload\n        /* \"PROJECT/Tweeter.sol\":2765:2779  tweets[ids[i]] */\n      dup2\n      mstore\n      0x20\n      add\n      swap1\n      dup2\n      mstore\n      0x20\n      add\n      0x00\n      keccak256\n        /* \"PROJECT/Tweeter.sol\":2738:2779  Tweet storage _structure = tweets[ids[i]] */\n      swap1\n      pop\n        /* \"PROJECT/Tweeter.sol\":2806:2884  Tweet(_structure.id,_structure.author,_structure.content,_structure.createdAt) */\n      mload(0x40)\n      dup1\n      0x80\n      add\n      0x40\n      mstore\n      dup1\n        /* \"PROJECT/Tweeter.sol\":2812:2822  _structure */\n      dup3\n        /* \"PROJECT/Tweeter.sol\":2812:2825  _structure.id */\n      0x00\n      add\n      sload\n        /* \"PROJECT/Tweeter.sol\":2806:2884  Tweet(_structure.id,_structure.author,_structure.content,_structure.createdAt) */\n      dup2\n      mstore\n      0x20\n      add\n        /* \"PROJECT/Tweeter.sol\":2826:2836  _structure */\n      dup3\n        /* \"PROJECT/Tweeter.sol\":2826:2843  _structure.author */\n      0x01\n      add\n      0x00\n      swap1\n      sload\n      swap1\n      0x0100\n      exp\n      swap1\n      div\n      0xffffffffffffffffffffffffffffffffffffffff\n      and\n        /* \"PROJECT/Tweeter.sol\":2806:2884  Tweet(_structure.id,_structure.author,_structure.content,_structure.createdAt) */\n      0xffffffffffffffffffffffffffffffffffffffff\n      and\n      dup2\n      mstore\n      0x20\n      add\n        /* \"PROJECT/Tweeter.sol\":2844:2854  _structure */\n      dup3\n        /* \"PROJECT/Tweeter.sol\":2844:2862  _structure.content */\n      0x02\n      add\n        /* \"PROJECT/Tweeter.sol\":2806:2884  Tweet(_structure.id,_structure.author,_structure.content,_structure.createdAt) */\n      dup1\n      sload\n      tag_103\n      swap1\n      tag_70\n      jump\t// in\n    tag_103:\n      dup1\n      0x1f\n      add\n      0x20\n      dup1\n      swap2\n      div\n      mul\n      0x20\n      add\n      mload(0x40)\n      swap1\n      dup2\n      add\n      0x40\n      mstore\n      dup1\n      swap3\n      swap2\n      swap1\n      dup2\n      dup2\n      mstore\n      0x20\n      add\n      dup3\n      dup1\n      sload\n      tag_104\n      swap1\n      tag_70\n      jump\t// in\n    tag_104:\n      dup1\n      iszero\n      tag_105\n      jumpi\n      dup1\n      0x1f\n      lt\n      tag_106\n      jumpi\n      0x0100\n      dup1\n      dup4\n      sload\n      div\n      mul\n      dup4\n      mstore\n      swap2\n      0x20\n      add\n      swap2\n      jump(tag_105)\n    tag_106:\n      dup3\n      add\n      swap2\n      swap1\n      0x00\n      mstore\n      keccak256(0x00, 0x20)\n      swap1\n    tag_107:\n      dup2\n      sload\n      dup2\n      mstore\n      swap1\n      0x01\n      add\n      swap1\n      0x20\n      add\n      dup1\n      dup4\n      gt\n      tag_107\n      jumpi\n      dup3\n      swap1\n      sub\n      0x1f\n      and\n      dup3\n      add\n      swap2\n    tag_105:\n      pop\n      pop\n      pop\n      pop\n      pop\n      dup2\n      mstore\n      0x20\n      add\n        /* \"PROJECT/Tweeter.sol\":2863:2873  _structure */\n      dup3\n        /* \"PROJECT/Tweeter.sol\":2863:2883  _structure.createdAt */\n      0x03\n      add\n      sload\n        /* \"PROJECT/Tweeter.sol\":2806:2884  Tweet(_structure.id,_structure.author,_structure.content,_structure.createdAt) */\n      dup2\n      mstore\n      pop\n        /* \"PROJECT/Tweeter.sol\":2794:2801  _tweets */\n      dup6\n        /* \"PROJECT/Tweeter.sol\":2802:2803  k */\n      dup5\n        /* \"PROJECT/Tweeter.sol\":2794:2804  _tweets[k] */\n      dup2\n      mload\n      dup2\n      lt\n      tag_108\n      jumpi\n      tag_109\n      tag_77\n      jump\t// in\n    tag_109:\n    tag_108:\n      0x20\n      mul\n      0x20\n      add\n      add\n        /* \"PROJECT/Tweeter.sol\":2794:2884  _tweets[k]= Tweet(_structure.id,_structure.author,_structure.content,_structure.createdAt) */\n      dup2\n      swap1\n      mstore\n      pop\n        /* \"PROJECT/Tweeter.sol\":2899:2902  k++ */\n      dup3\n      dup1\n      tag_110\n      swap1\n      tag_79\n      jump\t// in\n    tag_110:\n      swap4\n      pop\n      pop\n        /* \"PROJECT/Tweeter.sol\":2723:2914  {... */\n      pop\n        /* \"PROJECT/Tweeter.sol\":2719:2722  i++ */\n      dup1\n      dup1\n      tag_111\n      swap1\n      tag_79\n      jump\t// in\n    tag_111:\n      swap2\n      pop\n      pop\n        /* \"PROJECT/Tweeter.sol\":2678:2914  for(uint i=ids.length-count;i<ids.length;i++){... */\n      jump(tag_97)\n    tag_98:\n      pop\n        /* \"PROJECT/Tweeter.sol\":2931:2938  _tweets */\n      dup3\n        /* \"PROJECT/Tweeter.sol\":2924:2938  return _tweets */\n      swap4\n      pop\n      pop\n      pop\n      pop\n        /* \"PROJECT/Tweeter.sol\":2290:2946  function getLatestofUser(address _user,uint count) public view returns(Tweet[] memory){... */\n      swap3\n      swap2\n      pop\n      pop\n      jump\t// out\n        /* \"PROJECT/Tweeter.sol\":1704:1804  function disallow(address _operator) public{... */\n    tag_30:\n        /* \"PROJECT/Tweeter.sol\":1791:1796  false */\n      0x00\n        /* \"PROJECT/Tweeter.sol\":1758:1767  operators */\n      0x03\n        /* \"PROJECT/Tweeter.sol\":1758:1779  operators[msg.sender] */\n      0x00\n        /* \"PROJECT/Tweeter.sol\":1768:1778  msg.sender */\n      caller\n        /* \"PROJECT/Tweeter.sol\":1758:1779  operators[msg.sender] */\n      0xffffffffffffffffffffffffffffffffffffffff\n      and\n      0xffffffffffffffffffffffffffffffffffffffff\n      and\n      dup2\n      mstore\n      0x20\n      add\n      swap1\n      dup2\n      mstore\n      0x20\n      add\n      0x00\n      keccak256\n        /* \"PROJECT/Tweeter.sol\":1758:1790  operators[msg.sender][_operator] */\n      0x00\n        /* \"PROJECT/Tweeter.sol\":1780:1789  _operator */\n      dup4\n        /* \"PROJECT/Tweeter.sol\":1758:1790  operators[msg.sender][_operator] */\n      0xffffffffffffffffffffffffffffffffffffffff\n      and\n      0xffffffffffffffffffffffffffffffffffffffff\n      and\n      dup2\n      mstore\n      0x20\n      add\n      swap1\n      dup2\n      mstore\n      0x20\n      add\n      0x00\n      keccak256\n      0x00\n        /* \"PROJECT/Tweeter.sol\":1758:1796  operators[msg.sender][_operator]=false */\n      0x0100\n      exp\n      dup2\n      sload\n      dup2\n      0xff\n      mul\n      not\n      and\n      swap1\n      dup4\n      iszero\n      iszero\n      mul\n      or\n      swap1\n      sstore\n      pop\n        /* \"PROJECT/Tweeter.sol\":1704:1804  function disallow(address _operator) public{... */\n      pop\n      jump\t// out\n        /* \"PROJECT/Tweeter.sol\":1138:1238  function tweet(address _from,string memory _content) public{... */\n    tag_34:\n        /* \"PROJECT/Tweeter.sol\":1208:1230  _tweet(_from,_content) */\n      tag_114\n        /* \"PROJECT/Tweeter.sol\":1215:1220  _from */\n      dup3\n        /* \"PROJECT/Tweeter.sol\":1221:1229  _content */\n      dup3\n        /* \"PROJECT/Tweeter.sol\":1208:1214  _tweet */\n      tag_115\n        /* \"PROJECT/Tweeter.sol\":1208:1230  _tweet(_from,_content) */\n      jump\t// in\n    tag_114:\n        /* \"PROJECT/Tweeter.sol\":1138:1238  function tweet(address _from,string memory _content) public{... */\n      pop\n      pop\n      jump\t// out\n        /* \"PROJECT/Tweeter.sol\":1371:1493  function tweet(address _from,address _to,string memory content) public{... */\n    tag_38:\n        /* \"PROJECT/Tweeter.sol\":1452:1485  _sendmessage(_from, _to, content) */\n      tag_117\n        /* \"PROJECT/Tweeter.sol\":1465:1470  _from */\n      dup4\n        /* \"PROJECT/Tweeter.sol\":1472:1475  _to */\n      dup4\n        /* \"PROJECT/Tweeter.sol\":1477:1484  content */\n      dup4\n        /* \"PROJECT/Tweeter.sol\":1452:1464  _sendmessage */\n      tag_118\n        /* \"PROJECT/Tweeter.sol\":1452:1485  _sendmessage(_from, _to, content) */\n      jump\t// in\n    tag_117:\n        /* \"PROJECT/Tweeter.sol\":1371:1493  function tweet(address _from,address _to,string memory content) public{... */\n      pop\n      pop\n      pop\n      jump\t// out\n        /* \"PROJECT/Tweeter.sol\":1244:1365  function sendmessage(string memory _content,address _to) public{... */\n    tag_42:\n        /* \"PROJECT/Tweeter.sol\":1318:1357  _sendmessage(msg.sender, _to, _content) */\n      tag_120\n        /* \"PROJECT/Tweeter.sol\":1331:1341  msg.sender */\n      caller\n        /* \"PROJECT/Tweeter.sol\":1343:1346  _to */\n      dup3\n        /* \"PROJECT/Tweeter.sol\":1348:1356  _content */\n      dup5\n        /* \"PROJECT/Tweeter.sol\":1318:1330  _sendmessage */\n      tag_118\n        /* \"PROJECT/Tweeter.sol\":1318:1357  _sendmessage(msg.sender, _to, _content) */\n      jump\t// in\n    tag_120:\n        /* \"PROJECT/Tweeter.sol\":1244:1365  function sendmessage(string memory _content,address _to) public{... */\n      pop\n      pop\n      jump\t// out\n        /* \"PROJECT/Tweeter.sol\":1039:1132  function tweet(string memory _content) public{... */\n    tag_46:\n        /* \"PROJECT/Tweeter.sol\":1095:1122  _tweet(msg.sender,_content) */\n      tag_122\n        /* \"PROJECT/Tweeter.sol\":1102:1112  msg.sender */\n      caller\n        /* \"PROJECT/Tweeter.sol\":1113:1121  _content */\n      dup3\n        /* \"PROJECT/Tweeter.sol\":1095:1101  _tweet */\n      tag_115\n        /* \"PROJECT/Tweeter.sol\":1095:1122  _tweet(msg.sender,_content) */\n      jump\t// in\n    tag_122:\n        /* \"PROJECT/Tweeter.sol\":1039:1132  function tweet(string memory _content) public{... */\n      pop\n      jump\t// out\n        /* \"PROJECT/Tweeter.sol\":1602:1698  function allow(address _operator) public{... */\n    tag_49:\n        /* \"PROJECT/Tweeter.sol\":1686:1690  true */\n      0x01\n        /* \"PROJECT/Tweeter.sol\":1653:1662  operators */\n      0x03\n        /* \"PROJECT/Tweeter.sol\":1653:1674  operators[msg.sender] */\n      0x00\n        /* \"PROJECT/Tweeter.sol\":1663:1673  msg.sender */\n      caller\n        /* \"PROJECT/Tweeter.sol\":1653:1674  operators[msg.sender] */\n      0xffffffffffffffffffffffffffffffffffffffff\n      and\n      0xffffffffffffffffffffffffffffffffffffffff\n      and\n      dup2\n      mstore\n      0x20\n      add\n      swap1\n      dup2\n      mstore\n      0x20\n      add\n      0x00\n      keccak256\n        /* \"PROJECT/Tweeter.sol\":1653:1685  operators[msg.sender][_operator] */\n      0x00\n        /* \"PROJECT/Tweeter.sol\":1675:1684  _operator */\n      dup4\n        /* \"PROJECT/Tweeter.sol\":1653:1685  operators[msg.sender][_operator] */\n      0xffffffffffffffffffffffffffffffffffffffff\n      and\n      0xffffffffffffffffffffffffffffffffffffffff\n      and\n      dup2\n      mstore\n      0x20\n      add\n      swap1\n      dup2\n      mstore\n      0x20\n      add\n      0x00\n      keccak256\n      0x00\n        /* \"PROJECT/Tweeter.sol\":1653:1690  operators[msg.sender][_operator]=true */\n      0x0100\n      exp\n      dup2\n      sload\n      dup2\n      0xff\n      mul\n      not\n      and\n      swap1\n      dup4\n      iszero\n      iszero\n      mul\n      or\n      swap1\n      sstore\n      pop\n        /* \"PROJECT/Tweeter.sol\":1602:1698  function allow(address _operator) public{... */\n      pop\n      jump\t// out\n        /* \"PROJECT/Tweeter.sol\":660:818  function _tweet(address _from,string memory content) internal {... */\n    tag_115:\n        /* \"PROJECT/Tweeter.sol\":748:791  Tweet(nextId,_from,content,block.timestamp) */\n      mload(0x40)\n      dup1\n      0x80\n      add\n      0x40\n      mstore\n      dup1\n        /* \"PROJECT/Tweeter.sol\":754:760  nextId */\n      sload(0x05)\n        /* \"PROJECT/Tweeter.sol\":748:791  Tweet(nextId,_from,content,block.timestamp) */\n      dup2\n      mstore\n      0x20\n      add\n        /* \"PROJECT/Tweeter.sol\":761:766  _from */\n      dup4\n        /* \"PROJECT/Tweeter.sol\":748:791  Tweet(nextId,_from,content,block.timestamp) */\n      0xffffffffffffffffffffffffffffffffffffffff\n      and\n      dup2\n      mstore\n      0x20\n      add\n        /* \"PROJECT/Tweeter.sol\":767:774  content */\n      dup3\n        /* \"PROJECT/Tweeter.sol\":748:791  Tweet(nextId,_from,content,block.timestamp) */\n      dup2\n      mstore\n      0x20\n      add\n        /* \"PROJECT/Tweeter.sol\":775:790  block.timestamp */\n      timestamp\n        /* \"PROJECT/Tweeter.sol\":748:791  Tweet(nextId,_from,content,block.timestamp) */\n      dup2\n      mstore\n      pop\n        /* \"PROJECT/Tweeter.sol\":733:739  tweets */\n      0x00\n        /* \"PROJECT/Tweeter.sol\":733:747  tweets[nextId] */\n      dup1\n        /* \"PROJECT/Tweeter.sol\":740:746  nextId */\n      sload(0x05)\n        /* \"PROJECT/Tweeter.sol\":733:747  tweets[nextId] */\n      dup2\n      mstore\n      0x20\n      add\n      swap1\n      dup2\n      mstore\n      0x20\n      add\n      0x00\n      keccak256\n        /* \"PROJECT/Tweeter.sol\":733:791  tweets[nextId]=Tweet(nextId,_from,content,block.timestamp) */\n      0x00\n      dup3\n      add\n      mload\n      dup2\n      0x00\n      add\n      sstore\n      0x20\n      dup3\n      add\n      mload\n      dup2\n      0x01\n      add\n      exp(0x0100, 0x00)\n      dup2\n      sload\n      dup2\n      0xffffffffffffffffffffffffffffffffffffffff\n      mul\n      not\n      and\n      swap1\n      dup4\n      0xffffffffffffffffffffffffffffffffffffffff\n      and\n      mul\n      or\n      swap1\n      sstore\n      pop\n      0x40\n      dup3\n      add\n      mload\n      dup2\n      0x02\n      add\n      swap1\n      dup2\n      tag_125\n      swap2\n      swap1\n      tag_126\n      jump\t// in\n    tag_125:\n      pop\n      0x60\n      dup3\n      add\n      mload\n      dup2\n      0x03\n      add\n      sstore\n      swap1\n      pop\n      pop\n        /* \"PROJECT/Tweeter.sol\":802:808  nextId */\n      0x05\n      0x00\n        /* \"PROJECT/Tweeter.sol\":802:810  nextId++ */\n      dup2\n      sload\n      dup1\n      swap3\n      swap2\n      swap1\n      tag_127\n      swap1\n      tag_79\n      jump\t// in\n    tag_127:\n      swap2\n      swap1\n      pop\n      sstore\n      pop\n        /* \"PROJECT/Tweeter.sol\":660:818  function _tweet(address _from,string memory content) internal {... */\n      pop\n      pop\n      jump\t// out\n        /* \"PROJECT/Tweeter.sol\":824:1032  function _sendmessage(address _from,address _to,string memory content) internal {... */\n    tag_118:\n        /* \"PROJECT/Tweeter.sol\":915:928  conversations */\n      0x02\n        /* \"PROJECT/Tweeter.sol\":915:935  conversations[_from] */\n      0x00\n        /* \"PROJECT/Tweeter.sol\":929:934  _from */\n      dup5\n        /* \"PROJECT/Tweeter.sol\":915:935  conversations[_from] */\n      0xffffffffffffffffffffffffffffffffffffffff\n      and\n      0xffffffffffffffffffffffffffffffffffffffff\n      and\n      dup2\n      mstore\n      0x20\n      add\n      swap1\n      dup2\n      mstore\n      0x20\n      add\n      0x00\n      keccak256\n        /* \"PROJECT/Tweeter.sol\":941:997  message(nextMessageId,content,_from,_to,block.timestamp) */\n      mload(0x40)\n      dup1\n      0xa0\n      add\n      0x40\n      mstore\n      dup1\n        /* \"PROJECT/Tweeter.sol\":949:962  nextMessageId */\n      sload(0x06)\n        /* \"PROJECT/Tweeter.sol\":941:997  message(nextMessageId,content,_from,_to,block.timestamp) */\n      dup2\n      mstore\n      0x20\n      add\n        /* \"PROJECT/Tweeter.sol\":963:970  content */\n      dup4\n        /* \"PROJECT/Tweeter.sol\":941:997  message(nextMessageId,content,_from,_to,block.timestamp) */\n      dup2\n      mstore\n      0x20\n      add\n        /* \"PROJECT/Tweeter.sol\":971:976  _from */\n      dup6\n        /* \"PROJECT/Tweeter.sol\":941:997  message(nextMessageId,content,_from,_to,block.timestamp) */\n      0xffffffffffffffffffffffffffffffffffffffff\n      and\n      dup2\n      mstore\n      0x20\n      add\n        /* \"PROJECT/Tweeter.sol\":977:980  _to */\n      dup5\n        /* \"PROJECT/Tweeter.sol\":941:997  message(nextMessageId,content,_from,_to,block.timestamp) */\n      0xffffffffffffffffffffffffffffffffffffffff\n      and\n      dup2\n      mstore\n      0x20\n      add\n        /* \"PROJECT/Tweeter.sol\":981:996  block.timestamp */\n      timestamp\n        /* \"PROJECT/Tweeter.sol\":941:997  message(nextMessageId,content,_from,_to,block.timestamp) */\n      dup2\n      mstore\n      pop\n        /* \"PROJECT/Tweeter.sol\":915:998  conversations[_from].push(message(nextMessageId,content,_from,_to,block.timestamp)) */\n      swap1\n      dup1\n      0x01\n      dup2\n      sload\n      add\n      dup1\n      dup3\n      sstore\n      dup1\n      swap2\n      pop\n      pop\n      0x01\n      swap1\n      sub\n      swap1\n      0x00\n      mstore\n      keccak256(0x00, 0x20)\n      swap1\n      0x05\n      mul\n      add\n      0x00\n      swap1\n      swap2\n      swap1\n      swap2\n      swap1\n      swap2\n      pop\n      0x00\n      dup3\n      add\n      mload\n      dup2\n      0x00\n      add\n      sstore\n      0x20\n      dup3\n      add\n      mload\n      dup2\n      0x01\n      add\n      swap1\n      dup2\n      tag_130\n      swap2\n      swap1\n      tag_126\n      jump\t// in\n    tag_130:\n      pop\n      0x40\n      dup3\n      add\n      mload\n      dup2\n      0x02\n      add\n      exp(0x0100, 0x00)\n      dup2\n      sload\n      dup2\n      0xffffffffffffffffffffffffffffffffffffffff\n      mul\n      not\n      and\n      swap1\n      dup4\n      0xffffffffffffffffffffffffffffffffffffffff\n      and\n      mul\n      or\n      swap1\n      sstore\n      pop\n      0x60\n      dup3\n      add\n      mload\n      dup2\n      0x03\n      add\n      exp(0x0100, 0x00)\n      dup2\n      sload\n      dup2\n      0xffffffffffffffffffffffffffffffffffffffff\n      mul\n      not\n      and\n      swap1\n      dup4\n      0xffffffffffffffffffffffffffffffffffffffff\n      and\n      mul\n      or\n      swap1\n      sstore\n      pop\n      0x80\n      dup3\n      add\n      mload\n      dup2\n      0x04\n      add\n      sstore\n      pop\n      pop\n        /* \"PROJECT/Tweeter.sol\":1009:1022  nextMessageId */\n      0x06\n      0x00\n        /* \"PROJECT/Tweeter.sol\":1009:1024  nextMessageId++ */\n      dup2\n      sload\n      dup1\n      swap3\n      swap2\n      swap1\n      tag_131\n      swap1\n      tag_79\n      jump\t// in\n    tag_131:\n      swap2\n      swap1\n      pop\n      sstore\n      pop\n        /* \"PROJECT/Tweeter.sol\":824:1032  function _sendmessage(address _from,address _to,string memory content) internal {... */\n      pop\n      pop\n      pop\n      jump\t// out\n    tag_63:\n      mload(0x40)\n      dup1\n      0x80\n      add\n      0x40\n      mstore\n      dup1\n      0x00\n      dup2\n      mstore\n      0x20\n      add\n      and(0xffffffffffffffffffffffffffffffffffffffff, 0x00)\n      dup2\n      mstore\n      0x20\n      add\n      0x60\n      dup2\n      mstore\n      0x20\n      add\n      0x00\n      dup2\n      mstore\n      pop\n      swap1\n      jump\t// out\n        /* \"#utility.yul\":7:82   */\n    tag_132:\n        /* \"#utility.yul\":40:46   */\n      0x00\n        /* \"#utility.yul\":73:75   */\n      0x40\n        /* \"#utility.yul\":67:76   */\n      mload\n        /* \"#utility.yul\":57:76   */\n      swap1\n      pop\n        /* \"#utility.yul\":7:82   */\n      swap1\n      jump\t// out\n        /* \"#utility.yul\":88:205   */\n    tag_133:\n        /* \"#utility.yul\":197:198   */\n      0x00\n        /* \"#utility.yul\":194:195   */\n      dup1\n        /* \"#utility.yul\":187:199   */\n      revert\n        /* \"#utility.yul\":211:328   */\n    tag_134:\n        /* \"#utility.yul\":320:321   */\n      0x00\n        /* \"#utility.yul\":317:318   */\n      dup1\n        /* \"#utility.yul\":310:322   */\n      revert\n        /* \"#utility.yul\":334:460   */\n    tag_135:\n        /* \"#utility.yul\":371:378   */\n      0x00\n        /* \"#utility.yul\":411:453   */\n      0xffffffffffffffffffffffffffffffffffffffff\n        /* \"#utility.yul\":404:409   */\n      dup3\n        /* \"#utility.yul\":400:454   */\n      and\n        /* \"#utility.yul\":389:454   */\n      swap1\n      pop\n        /* \"#utility.yul\":334:460   */\n      swap2\n      swap1\n      pop\n      jump\t// out\n        /* \"#utility.yul\":466:562   */\n    tag_136:\n        /* \"#utility.yul\":503:510   */\n      0x00\n        /* \"#utility.yul\":532:556   */\n      tag_194\n        /* \"#utility.yul\":550:555   */\n      dup3\n        /* \"#utility.yul\":532:556   */\n      tag_135\n      jump\t// in\n    tag_194:\n        /* \"#utility.yul\":521:556   */\n      swap1\n      pop\n        /* \"#utility.yul\":466:562   */\n      swap2\n      swap1\n      pop\n      jump\t// out\n        /* \"#utility.yul\":568:690   */\n    tag_137:\n        /* \"#utility.yul\":641:665   */\n      tag_196\n        /* \"#utility.yul\":659:664   */\n      dup2\n        /* \"#utility.yul\":641:665   */\n      tag_136\n      jump\t// in\n    tag_196:\n        /* \"#utility.yul\":634:639   */\n      dup2\n        /* \"#utility.yul\":631:666   */\n      eq\n        /* \"#utility.yul\":621:684   */\n      tag_197\n      jumpi\n        /* \"#utility.yul\":680:681   */\n      0x00\n        /* \"#utility.yul\":677:678   */\n      dup1\n        /* \"#utility.yul\":670:682   */\n      revert\n        /* \"#utility.yul\":621:684   */\n    tag_197:\n        /* \"#utility.yul\":568:690   */\n      pop\n      jump\t// out\n        /* \"#utility.yul\":696:835   */\n    tag_138:\n        /* \"#utility.yul\":742:747   */\n      0x00\n        /* \"#utility.yul\":780:786   */\n      dup2\n        /* \"#utility.yul\":767:787   */\n      calldataload\n        /* \"#utility.yul\":758:787   */\n      swap1\n      pop\n        /* \"#utility.yul\":796:829   */\n      tag_199\n        /* \"#utility.yul\":823:828   */\n      dup2\n        /* \"#utility.yul\":796:829   */\n      tag_137\n      jump\t// in\n    tag_199:\n        /* \"#utility.yul\":696:835   */\n      swap3\n      swap2\n      pop\n      pop\n      jump\t// out\n        /* \"#utility.yul\":841:1170   */\n    tag_15:\n        /* \"#utility.yul\":900:906   */\n      0x00\n        /* \"#utility.yul\":949:951   */\n      0x20\n        /* \"#utility.yul\":937:946   */\n      dup3\n        /* \"#utility.yul\":928:935   */\n      dup5\n        /* \"#utility.yul\":924:947   */\n      sub\n        /* \"#utility.yul\":920:952   */\n      slt\n        /* \"#utility.yul\":917:1036   */\n      iszero\n      tag_201\n      jumpi\n        /* \"#utility.yul\":955:1034   */\n      tag_202\n      tag_133\n      jump\t// in\n    tag_202:\n        /* \"#utility.yul\":917:1036   */\n    tag_201:\n        /* \"#utility.yul\":1075:1076   */\n      0x00\n        /* \"#utility.yul\":1100:1153   */\n      tag_203\n        /* \"#utility.yul\":1145:1152   */\n      dup5\n        /* \"#utility.yul\":1136:1142   */\n      dup3\n        /* \"#utility.yul\":1125:1134   */\n      dup6\n        /* \"#utility.yul\":1121:1143   */\n      add\n        /* \"#utility.yul\":1100:1153   */\n      tag_138\n      jump\t// in\n    tag_203:\n        /* \"#utility.yul\":1090:1153   */\n      swap2\n      pop\n        /* \"#utility.yul\":1046:1163   */\n      pop\n        /* \"#utility.yul\":841:1170   */\n      swap3\n      swap2\n      pop\n      pop\n      jump\t// out\n        /* \"#utility.yul\":1176:1253   */\n    tag_139:\n        /* \"#utility.yul\":1213:1220   */\n      0x00\n        /* \"#utility.yul\":1242:1247   */\n      dup2\n        /* \"#utility.yul\":1231:1247   */\n      swap1\n      pop\n        /* \"#utility.yul\":1176:1253   */\n      swap2\n      swap1\n      pop\n      jump\t// out\n        /* \"#utility.yul\":1259:1381   */\n    tag_140:\n        /* \"#utility.yul\":1332:1356   */\n      tag_206\n        /* \"#utility.yul\":1350:1355   */\n      dup2\n        /* \"#utility.yul\":1332:1356   */\n      tag_139\n      jump\t// in\n    tag_206:\n        /* \"#utility.yul\":1325:1330   */\n      dup2\n        /* \"#utility.yul\":1322:1357   */\n      eq\n        /* \"#utility.yul\":1312:1375   */\n      tag_207\n      jumpi\n        /* \"#utility.yul\":1371:1372   */\n      0x00\n        /* \"#utility.yul\":1368:1369   */\n      dup1\n        /* \"#utility.yul\":1361:1373   */\n      revert\n        /* \"#utility.yul\":1312:1375   */\n    tag_207:\n        /* \"#utility.yul\":1259:1381   */\n      pop\n      jump\t// out\n        /* \"#utility.yul\":1387:1526   */\n    tag_141:\n        /* \"#utility.yul\":1433:1438   */\n      0x00\n        /* \"#utility.yul\":1471:1477   */\n      dup2\n        /* \"#utility.yul\":1458:1478   */\n      calldataload\n        /* \"#utility.yul\":1449:1478   */\n      swap1\n      pop\n        /* \"#utility.yul\":1487:1520   */\n      tag_209\n        /* \"#utility.yul\":1514:1519   */\n      dup2\n        /* \"#utility.yul\":1487:1520   */\n      tag_140\n      jump\t// in\n    tag_209:\n        /* \"#utility.yul\":1387:1526   */\n      swap3\n      swap2\n      pop\n      pop\n      jump\t// out\n        /* \"#utility.yul\":1532:1861   */\n    tag_19:\n        /* \"#utility.yul\":1591:1597   */\n      0x00\n        /* \"#utility.yul\":1640:1642   */\n      0x20\n        /* \"#utility.yul\":1628:1637   */\n      dup3\n        /* \"#utility.yul\":1619:1626   */\n      dup5\n        /* \"#utility.yul\":1615:1638   */\n      sub\n        /* \"#utility.yul\":1611:1643   */\n      slt\n        /* \"#utility.yul\":1608:1727   */\n      iszero\n      tag_211\n      jumpi\n        /* \"#utility.yul\":1646:1725   */\n      tag_212\n      tag_133\n      jump\t// in\n    tag_212:\n        /* \"#utility.yul\":1608:1727   */\n    tag_211:\n        /* \"#utility.yul\":1766:1767   */\n      0x00\n        /* \"#utility.yul\":1791:1844   */\n      tag_213\n        /* \"#utility.yul\":1836:1843   */\n      dup5\n        /* \"#utility.yul\":1827:1833   */\n      dup3\n        /* \"#utility.yul\":1816:1825   */\n      dup6\n        /* \"#utility.yul\":1812:1834   */\n      add\n        /* \"#utility.yul\":1791:1844   */\n      tag_141\n      jump\t// in\n    tag_213:\n        /* \"#utility.yul\":1781:1844   */\n      swap2\n      pop\n        /* \"#utility.yul\":1737:1854   */\n      pop\n        /* \"#utility.yul\":1532:1861   */\n      swap3\n      swap2\n      pop\n      pop\n      jump\t// out\n        /* \"#utility.yul\":1867:2002   */\n    tag_142:\n        /* \"#utility.yul\":1955:1961   */\n      0x00\n        /* \"#utility.yul\":1989:1994   */\n      dup2\n        /* \"#utility.yul\":1983:1995   */\n      mload\n        /* \"#utility.yul\":1973:1995   */\n      swap1\n      pop\n        /* \"#utility.yul\":1867:2002   */\n      swap2\n      swap1\n      pop\n      jump\t// out\n        /* \"#utility.yul\":2008:2213   */\n    tag_143:\n        /* \"#utility.yul\":2128:2139   */\n      0x00\n        /* \"#utility.yul\":2162:2168   */\n      dup3\n        /* \"#utility.yul\":2157:2160   */\n      dup3\n        /* \"#utility.yul\":2150:2169   */\n      mstore\n        /* \"#utility.yul\":2202:2206   */\n      0x20\n        /* \"#utility.yul\":2197:2200   */\n      dup3\n        /* \"#utility.yul\":2193:2207   */\n      add\n        /* \"#utility.yul\":2178:2207   */\n      swap1\n      pop\n        /* \"#utility.yul\":2008:2213   */\n      swap3\n      swap2\n      pop\n      pop\n      jump\t// out\n        /* \"#utility.yul\":2219:2372   */\n    tag_144:\n        /* \"#utility.yul\":2307:2311   */\n      0x00\n        /* \"#utility.yul\":2330:2333   */\n      dup2\n        /* \"#utility.yul\":2322:2333   */\n      swap1\n      pop\n        /* \"#utility.yul\":2360:2364   */\n      0x20\n        /* \"#utility.yul\":2355:2358   */\n      dup3\n        /* \"#utility.yul\":2351:2365   */\n      add\n        /* \"#utility.yul\":2343:2365   */\n      swap1\n      pop\n        /* \"#utility.yul\":2219:2372   */\n      swap2\n      swap1\n      pop\n      jump\t// out\n        /* \"#utility.yul\":2378:2486   */\n    tag_145:\n        /* \"#utility.yul\":2455:2479   */\n      tag_218\n        /* \"#utility.yul\":2473:2478   */\n      dup2\n        /* \"#utility.yul\":2455:2479   */\n      tag_139\n      jump\t// in\n    tag_218:\n        /* \"#utility.yul\":2450:2453   */\n      dup3\n        /* \"#utility.yul\":2443:2480   */\n      mstore\n        /* \"#utility.yul\":2378:2486   */\n      pop\n      pop\n      jump\t// out\n        /* \"#utility.yul\":2492:2600   */\n    tag_146:\n        /* \"#utility.yul\":2569:2593   */\n      tag_220\n        /* \"#utility.yul\":2587:2592   */\n      dup2\n        /* \"#utility.yul\":2569:2593   */\n      tag_136\n      jump\t// in\n    tag_220:\n        /* \"#utility.yul\":2564:2567   */\n      dup3\n        /* \"#utility.yul\":2557:2594   */\n      mstore\n        /* \"#utility.yul\":2492:2600   */\n      pop\n      pop\n      jump\t// out\n        /* \"#utility.yul\":2606:2705   */\n    tag_147:\n        /* \"#utility.yul\":2658:2664   */\n      0x00\n        /* \"#utility.yul\":2692:2697   */\n      dup2\n        /* \"#utility.yul\":2686:2698   */\n      mload\n        /* \"#utility.yul\":2676:2698   */\n      swap1\n      pop\n        /* \"#utility.yul\":2606:2705   */\n      swap2\n      swap1\n      pop\n      jump\t// out\n        /* \"#utility.yul\":2711:2870   */\n    tag_148:\n        /* \"#utility.yul\":2785:2796   */\n      0x00\n        /* \"#utility.yul\":2819:2825   */\n      dup3\n        /* \"#utility.yul\":2814:2817   */\n      dup3\n        /* \"#utility.yul\":2807:2826   */\n      mstore\n        /* \"#utility.yul\":2859:2863   */\n      0x20\n        /* \"#utility.yul\":2854:2857   */\n      dup3\n        /* \"#utility.yul\":2850:2864   */\n      add\n        /* \"#utility.yul\":2835:2864   */\n      swap1\n      pop\n        /* \"#utility.yul\":2711:2870   */\n      swap3\n      swap2\n      pop\n      pop\n      jump\t// out\n        /* \"#utility.yul\":2876:3122   */\n    tag_149:\n        /* \"#utility.yul\":2957:2958   */\n      0x00\n        /* \"#utility.yul\":2967:3080   */\n    tag_224:\n        /* \"#utility.yul\":2981:2987   */\n      dup4\n        /* \"#utility.yul\":2978:2979   */\n      dup2\n        /* \"#utility.yul\":2975:2988   */\n      lt\n        /* \"#utility.yul\":2967:3080   */\n      iszero\n      tag_226\n      jumpi\n        /* \"#utility.yul\":3066:3067   */\n      dup1\n        /* \"#utility.yul\":3061:3064   */\n      dup3\n        /* \"#utility.yul\":3057:3068   */\n      add\n        /* \"#utility.yul\":3051:3069   */\n      mload\n        /* \"#utility.yul\":3047:3048   */\n      dup2\n        /* \"#utility.yul\":3042:3045   */\n      dup5\n        /* \"#utility.yul\":3038:3049   */\n      add\n        /* \"#utility.yul\":3031:3070   */\n      mstore\n        /* \"#utility.yul\":3003:3005   */\n      0x20\n        /* \"#utility.yul\":3000:3001   */\n      dup2\n        /* \"#utility.yul\":2996:3006   */\n      add\n        /* \"#utility.yul\":2991:3006   */\n      swap1\n      pop\n        /* \"#utility.yul\":2967:3080   */\n      jump(tag_224)\n    tag_226:\n        /* \"#utility.yul\":3114:3115   */\n      0x00\n        /* \"#utility.yul\":3105:3111   */\n      dup5\n        /* \"#utility.yul\":3100:3103   */\n      dup5\n        /* \"#utility.yul\":3096:3112   */\n      add\n        /* \"#utility.yul\":3089:3116   */\n      mstore\n        /* \"#utility.yul\":2938:3122   */\n      pop\n        /* \"#utility.yul\":2876:3122   */\n      pop\n      pop\n      pop\n      jump\t// out\n        /* \"#utility.yul\":3128:3230   */\n    tag_150:\n        /* \"#utility.yul\":3169:3175   */\n      0x00\n        /* \"#utility.yul\":3220:3222   */\n      0x1f\n        /* \"#utility.yul\":3216:3223   */\n      not\n        /* \"#utility.yul\":3211:3213   */\n      0x1f\n        /* \"#utility.yul\":3204:3209   */\n      dup4\n        /* \"#utility.yul\":3200:3214   */\n      add\n        /* \"#utility.yul\":3196:3224   */\n      and\n        /* \"#utility.yul\":3186:3224   */\n      swap1\n      pop\n        /* \"#utility.yul\":3128:3230   */\n      swap2\n      swap1\n      pop\n      jump\t// out\n        /* \"#utility.yul\":3236:3593   */\n    tag_151:\n        /* \"#utility.yul\":3314:3317   */\n      0x00\n        /* \"#utility.yul\":3342:3381   */\n      tag_229\n        /* \"#utility.yul\":3375:3380   */\n      dup3\n        /* \"#utility.yul\":3342:3381   */\n      tag_147\n      jump\t// in\n    tag_229:\n        /* \"#utility.yul\":3397:3458   */\n      tag_230\n        /* \"#utility.yul\":3451:3457   */\n      dup2\n        /* \"#utility.yul\":3446:3449   */\n      dup6\n        /* \"#utility.yul\":3397:3458   */\n      tag_148\n      jump\t// in\n    tag_230:\n        /* \"#utility.yul\":3390:3458   */\n      swap4\n      pop\n        /* \"#utility.yul\":3467:3532   */\n      tag_231\n        /* \"#utility.yul\":3525:3531   */\n      dup2\n        /* \"#utility.yul\":3520:3523   */\n      dup6\n        /* \"#utility.yul\":3513:3517   */\n      0x20\n        /* \"#utility.yul\":3506:3511   */\n      dup7\n        /* \"#utility.yul\":3502:3518   */\n      add\n        /* \"#utility.yul\":3467:3532   */\n      tag_149\n      jump\t// in\n    tag_231:\n        /* \"#utility.yul\":3557:3586   */\n      tag_232\n        /* \"#utility.yul\":3579:3585   */\n      dup2\n        /* \"#utility.yul\":3557:3586   */\n      tag_150\n      jump\t// in\n    tag_232:\n        /* \"#utility.yul\":3552:3555   */\n      dup5\n        /* \"#utility.yul\":3548:3587   */\n      add\n        /* \"#utility.yul\":3541:3587   */\n      swap2\n      pop\n        /* \"#utility.yul\":3318:3593   */\n      pop\n        /* \"#utility.yul\":3236:3593   */\n      swap3\n      swap2\n      pop\n      pop\n      jump\t// out\n        /* \"#utility.yul\":3651:4595   */\n    tag_152:\n        /* \"#utility.yul\":3752:3755   */\n      0x00\n        /* \"#utility.yul\":3788:3792   */\n      0x80\n        /* \"#utility.yul\":3783:3786   */\n      dup4\n        /* \"#utility.yul\":3779:3793   */\n      add\n        /* \"#utility.yul\":3873:3877   */\n      0x00\n        /* \"#utility.yul\":3866:3871   */\n      dup4\n        /* \"#utility.yul\":3862:3878   */\n      add\n        /* \"#utility.yul\":3856:3879   */\n      mload\n        /* \"#utility.yul\":3892:3955   */\n      tag_234\n        /* \"#utility.yul\":3949:3953   */\n      0x00\n        /* \"#utility.yul\":3944:3947   */\n      dup7\n        /* \"#utility.yul\":3940:3954   */\n      add\n        /* \"#utility.yul\":3926:3938   */\n      dup3\n        /* \"#utility.yul\":3892:3955   */\n      tag_145\n      jump\t// in\n    tag_234:\n        /* \"#utility.yul\":3803:3965   */\n      pop\n        /* \"#utility.yul\":4049:4053   */\n      0x20\n        /* \"#utility.yul\":4042:4047   */\n      dup4\n        /* \"#utility.yul\":4038:4054   */\n      add\n        /* \"#utility.yul\":4032:4055   */\n      mload\n        /* \"#utility.yul\":4068:4131   */\n      tag_235\n        /* \"#utility.yul\":4125:4129   */\n      0x20\n        /* \"#utility.yul\":4120:4123   */\n      dup7\n        /* \"#utility.yul\":4116:4130   */\n      add\n        /* \"#utility.yul\":4102:4114   */\n      dup3\n        /* \"#utility.yul\":4068:4131   */\n      tag_146\n      jump\t// in\n    tag_235:\n        /* \"#utility.yul\":3975:4141   */\n      pop\n        /* \"#utility.yul\":4226:4230   */\n      0x40\n        /* \"#utility.yul\":4219:4224   */\n      dup4\n        /* \"#utility.yul\":4215:4231   */\n      add\n        /* \"#utility.yul\":4209:4232   */\n      mload\n        /* \"#utility.yul\":4279:4282   */\n      dup5\n        /* \"#utility.yul\":4273:4277   */\n      dup3\n        /* \"#utility.yul\":4269:4283   */\n      sub\n        /* \"#utility.yul\":4262:4266   */\n      0x40\n        /* \"#utility.yul\":4257:4260   */\n      dup7\n        /* \"#utility.yul\":4253:4267   */\n      add\n        /* \"#utility.yul\":4246:4284   */\n      mstore\n        /* \"#utility.yul\":4305:4378   */\n      tag_236\n        /* \"#utility.yul\":4373:4377   */\n      dup3\n        /* \"#utility.yul\":4359:4371   */\n      dup3\n        /* \"#utility.yul\":4305:4378   */\n      tag_151\n      jump\t// in\n    tag_236:\n        /* \"#utility.yul\":4297:4378   */\n      swap2\n      pop\n        /* \"#utility.yul\":4151:4389   */\n      pop\n        /* \"#utility.yul\":4476:4480   */\n      0x60\n        /* \"#utility.yul\":4469:4474   */\n      dup4\n        /* \"#utility.yul\":4465:4481   */\n      add\n        /* \"#utility.yul\":4459:4482   */\n      mload\n        /* \"#utility.yul\":4495:4558   */\n      tag_237\n        /* \"#utility.yul\":4552:4556   */\n      0x60\n        /* \"#utility.yul\":4547:4550   */\n      dup7\n        /* \"#utility.yul\":4543:4557   */\n      add\n        /* \"#utility.yul\":4529:4541   */\n      dup3\n        /* \"#utility.yul\":4495:4558   */\n      tag_145\n      jump\t// in\n    tag_237:\n        /* \"#utility.yul\":4399:4568   */\n      pop\n        /* \"#utility.yul\":4585:4589   */\n      dup1\n        /* \"#utility.yul\":4578:4589   */\n      swap2\n      pop\n        /* \"#utility.yul\":3757:4595   */\n      pop\n        /* \"#utility.yul\":3651:4595   */\n      swap3\n      swap2\n      pop\n      pop\n      jump\t// out\n        /* \"#utility.yul\":4601:4841   */\n    tag_153:\n        /* \"#utility.yul\":4712:4722   */\n      0x00\n        /* \"#utility.yul\":4747:4835   */\n      tag_239\n        /* \"#utility.yul\":4831:4834   */\n      dup4\n        /* \"#utility.yul\":4823:4829   */\n      dup4\n        /* \"#utility.yul\":4747:4835   */\n      tag_152\n      jump\t// in\n    tag_239:\n        /* \"#utility.yul\":4733:4835   */\n      swap1\n      pop\n        /* \"#utility.yul\":4601:4841   */\n      swap3\n      swap2\n      pop\n      pop\n      jump\t// out\n        /* \"#utility.yul\":4847:4981   */\n    tag_154:\n        /* \"#utility.yul\":4938:4942   */\n      0x00\n        /* \"#utility.yul\":4970:4974   */\n      0x20\n        /* \"#utility.yul\":4965:4968   */\n      dup3\n        /* \"#utility.yul\":4961:4975   */\n      add\n        /* \"#utility.yul\":4953:4975   */\n      swap1\n      pop\n        /* \"#utility.yul\":4847:4981   */\n      swap2\n      swap1\n      pop\n      jump\t// out\n        /* \"#utility.yul\":5043:6122   */\n    tag_155:\n        /* \"#utility.yul\":5204:5207   */\n      0x00\n        /* \"#utility.yul\":5233:5308   */\n      tag_242\n        /* \"#utility.yul\":5302:5307   */\n      dup3\n        /* \"#utility.yul\":5233:5308   */\n      tag_142\n      jump\t// in\n    tag_242:\n        /* \"#utility.yul\":5324:5431   */\n      tag_243\n        /* \"#utility.yul\":5424:5430   */\n      dup2\n        /* \"#utility.yul\":5419:5422   */\n      dup6\n        /* \"#utility.yul\":5324:5431   */\n      tag_143\n      jump\t// in\n    tag_243:\n        /* \"#utility.yul\":5317:5431   */\n      swap4\n      pop\n        /* \"#utility.yul\":5457:5460   */\n      dup4\n        /* \"#utility.yul\":5502:5506   */\n      0x20\n        /* \"#utility.yul\":5494:5500   */\n      dup3\n        /* \"#utility.yul\":5490:5507   */\n      mul\n        /* \"#utility.yul\":5485:5488   */\n      dup6\n        /* \"#utility.yul\":5481:5508   */\n      add\n        /* \"#utility.yul\":5532:5609   */\n      tag_244\n        /* \"#utility.yul\":5603:5608   */\n      dup6\n        /* \"#utility.yul\":5532:5609   */\n      tag_144\n      jump\t// in\n    tag_244:\n        /* \"#utility.yul\":5632:5639   */\n      dup1\n        /* \"#utility.yul\":5663:5664   */\n      0x00\n        /* \"#utility.yul\":5648:6077   */\n    tag_245:\n        /* \"#utility.yul\":5673:5679   */\n      dup6\n        /* \"#utility.yul\":5670:5671   */\n      dup2\n        /* \"#utility.yul\":5667:5680   */\n      lt\n        /* \"#utility.yul\":5648:6077   */\n      iszero\n      tag_247\n      jumpi\n        /* \"#utility.yul\":5744:5753   */\n      dup5\n        /* \"#utility.yul\":5738:5742   */\n      dup5\n        /* \"#utility.yul\":5734:5754   */\n      sub\n        /* \"#utility.yul\":5729:5732   */\n      dup10\n        /* \"#utility.yul\":5722:5755   */\n      mstore\n        /* \"#utility.yul\":5795:5801   */\n      dup2\n        /* \"#utility.yul\":5789:5802   */\n      mload\n        /* \"#utility.yul\":5823:5929   */\n      tag_248\n        /* \"#utility.yul\":5924:5928   */\n      dup6\n        /* \"#utility.yul\":5909:5922   */\n      dup3\n        /* \"#utility.yul\":5823:5929   */\n      tag_153\n      jump\t// in\n    tag_248:\n        /* \"#utility.yul\":5815:5929   */\n      swap5\n      pop\n        /* \"#utility.yul\":5952:6033   */\n      tag_249\n        /* \"#utility.yul\":6026:6032   */\n      dup4\n        /* \"#utility.yul\":5952:6033   */\n      tag_154\n      jump\t// in\n    tag_249:\n        /* \"#utility.yul\":5942:6033   */\n      swap3\n      pop\n        /* \"#utility.yul\":6062:6066   */\n      0x20\n        /* \"#utility.yul\":6057:6060   */\n      dup11\n        /* \"#utility.yul\":6053:6067   */\n      add\n        /* \"#utility.yul\":6046:6067   */\n      swap10\n      pop\n        /* \"#utility.yul\":5708:6077   */\n      pop\n        /* \"#utility.yul\":5695:5696   */\n      0x01\n        /* \"#utility.yul\":5692:5693   */\n      dup2\n        /* \"#utility.yul\":5688:5697   */\n      add\n        /* \"#utility.yul\":5683:5697   */\n      swap1\n      pop\n        /* \"#utility.yul\":5648:6077   */\n      jump(tag_245)\n    tag_247:\n        /* \"#utility.yul\":5652:5666   */\n      pop\n        /* \"#utility.yul\":6093:6097   */\n      dup3\n        /* \"#utility.yul\":6086:6097   */\n      swap8\n      pop\n        /* \"#utility.yul\":6113:6116   */\n      dup8\n        /* \"#utility.yul\":6106:6116   */\n      swap6\n      pop\n        /* \"#utility.yul\":5209:6122   */\n      pop\n      pop\n      pop\n      pop\n      pop\n        /* \"#utility.yul\":5043:6122   */\n      swap3\n      swap2\n      pop\n      pop\n      jump\t// out\n        /* \"#utility.yul\":6128:6585   */\n    tag_22:\n        /* \"#utility.yul\":6313:6317   */\n      0x00\n        /* \"#utility.yul\":6351:6353   */\n      0x20\n        /* \"#utility.yul\":6340:6349   */\n      dup3\n        /* \"#utility.yul\":6336:6354   */\n      add\n        /* \"#utility.yul\":6328:6354   */\n      swap1\n      pop\n        /* \"#utility.yul\":6400:6409   */\n      dup2\n        /* \"#utility.yul\":6394:6398   */\n      dup2\n        /* \"#utility.yul\":6390:6410   */\n      sub\n        /* \"#utility.yul\":6386:6387   */\n      0x00\n        /* \"#utility.yul\":6375:6384   */\n      dup4\n        /* \"#utility.yul\":6371:6388   */\n      add\n        /* \"#utility.yul\":6364:6411   */\n      mstore\n        /* \"#utility.yul\":6428:6578   */\n      tag_251\n        /* \"#utility.yul\":6573:6577   */\n      dup2\n        /* \"#utility.yul\":6564:6570   */\n      dup5\n        /* \"#utility.yul\":6428:6578   */\n      tag_155\n      jump\t// in\n    tag_251:\n        /* \"#utility.yul\":6420:6578   */\n      swap1\n      pop\n        /* \"#utility.yul\":6128:6585   */\n      swap3\n      swap2\n      pop\n      pop\n      jump\t// out\n        /* \"#utility.yul\":6591:7065   */\n    tag_25:\n        /* \"#utility.yul\":6659:6665   */\n      0x00\n        /* \"#utility.yul\":6667:6673   */\n      dup1\n        /* \"#utility.yul\":6716:6718   */\n      0x40\n        /* \"#utility.yul\":6704:6713   */\n      dup4\n        /* \"#utility.yul\":6695:6702   */\n      dup6\n        /* \"#utility.yul\":6691:6714   */\n      sub\n        /* \"#utility.yul\":6687:6719   */\n      slt\n        /* \"#utility.yul\":6684:6803   */\n      iszero\n      tag_253\n      jumpi\n        /* \"#utility.yul\":6722:6801   */\n      tag_254\n      tag_133\n      jump\t// in\n    tag_254:\n        /* \"#utility.yul\":6684:6803   */\n    tag_253:\n        /* \"#utility.yul\":6842:6843   */\n      0x00\n        /* \"#utility.yul\":6867:6920   */\n      tag_255\n        /* \"#utility.yul\":6912:6919   */\n      dup6\n        /* \"#utility.yul\":6903:6909   */\n      dup3\n        /* \"#utility.yul\":6892:6901   */\n      dup7\n        /* \"#utility.yul\":6888:6910   */\n      add\n        /* \"#utility.yul\":6867:6920   */\n      tag_138\n      jump\t// in\n    tag_255:\n        /* \"#utility.yul\":6857:6920   */\n      swap3\n      pop\n        /* \"#utility.yul\":6813:6930   */\n      pop\n        /* \"#utility.yul\":6969:6971   */\n      0x20\n        /* \"#utility.yul\":6995:7048   */\n      tag_256\n        /* \"#utility.yul\":7040:7047   */\n      dup6\n        /* \"#utility.yul\":7031:7037   */\n      dup3\n        /* \"#utility.yul\":7020:7029   */\n      dup7\n        /* \"#utility.yul\":7016:7038   */\n      add\n        /* \"#utility.yul\":6995:7048   */\n      tag_141\n      jump\t// in\n    tag_256:\n        /* \"#utility.yul\":6985:7048   */\n      swap2\n      pop\n        /* \"#utility.yul\":6940:7058   */\n      pop\n        /* \"#utility.yul\":6591:7065   */\n      swap3\n      pop\n      swap3\n      swap1\n      pop\n      jump\t// out\n        /* \"#utility.yul\":7071:7188   */\n    tag_156:\n        /* \"#utility.yul\":7180:7181   */\n      0x00\n        /* \"#utility.yul\":7177:7178   */\n      dup1\n        /* \"#utility.yul\":7170:7182   */\n      revert\n        /* \"#utility.yul\":7194:7311   */\n    tag_157:\n        /* \"#utility.yul\":7303:7304   */\n      0x00\n        /* \"#utility.yul\":7300:7301   */\n      dup1\n        /* \"#utility.yul\":7293:7305   */\n      revert\n        /* \"#utility.yul\":7317:7497   */\n    tag_59:\n        /* \"#utility.yul\":7365:7442   */\n      0x4e487b7100000000000000000000000000000000000000000000000000000000\n        /* \"#utility.yul\":7362:7363   */\n      0x00\n        /* \"#utility.yul\":7355:7443   */\n      mstore\n        /* \"#utility.yul\":7462:7466   */\n      0x41\n        /* \"#utility.yul\":7459:7460   */\n      0x04\n        /* \"#utility.yul\":7452:7467   */\n      mstore\n        /* \"#utility.yul\":7486:7490   */\n      0x24\n        /* \"#utility.yul\":7483:7484   */\n      0x00\n        /* \"#utility.yul\":7476:7491   */\n      revert\n        /* \"#utility.yul\":7503:7784   */\n    tag_158:\n        /* \"#utility.yul\":7586:7613   */\n      tag_261\n        /* \"#utility.yul\":7608:7612   */\n      dup3\n        /* \"#utility.yul\":7586:7613   */\n      tag_150\n      jump\t// in\n    tag_261:\n        /* \"#utility.yul\":7578:7584   */\n      dup2\n        /* \"#utility.yul\":7574:7614   */\n      add\n        /* \"#utility.yul\":7716:7722   */\n      dup2\n        /* \"#utility.yul\":7704:7714   */\n      dup2\n        /* \"#utility.yul\":7701:7723   */\n      lt\n        /* \"#utility.yul\":7680:7698   */\n      0xffffffffffffffff\n        /* \"#utility.yul\":7668:7678   */\n      dup3\n        /* \"#utility.yul\":7665:7699   */\n      gt\n        /* \"#utility.yul\":7662:7724   */\n      or\n        /* \"#utility.yul\":7659:7747   */\n      iszero\n      tag_262\n      jumpi\n        /* \"#utility.yul\":7727:7745   */\n      tag_263\n      tag_59\n      jump\t// in\n    tag_263:\n        /* \"#utility.yul\":7659:7747   */\n    tag_262:\n        /* \"#utility.yul\":7767:7777   */\n      dup1\n        /* \"#utility.yul\":7763:7765   */\n      0x40\n        /* \"#utility.yul\":7756:7778   */\n      mstore\n        /* \"#utility.yul\":7546:7784   */\n      pop\n        /* \"#utility.yul\":7503:7784   */\n      pop\n      pop\n      jump\t// out\n        /* \"#utility.yul\":7790:7919   */\n    tag_159:\n        /* \"#utility.yul\":7824:7830   */\n      0x00\n        /* \"#utility.yul\":7851:7871   */\n      tag_265\n      tag_132\n      jump\t// in\n    tag_265:\n        /* \"#utility.yul\":7841:7871   */\n      swap1\n      pop\n        /* \"#utility.yul\":7880:7913   */\n      tag_266\n        /* \"#utility.yul\":7908:7912   */\n      dup3\n        /* \"#utility.yul\":7900:7906   */\n      dup3\n        /* \"#utility.yul\":7880:7913   */\n      tag_158\n      jump\t// in\n    tag_266:\n        /* \"#utility.yul\":7790:7919   */\n      swap2\n      swap1\n      pop\n      jump\t// out\n        /* \"#utility.yul\":7925:8233   */\n    tag_160:\n        /* \"#utility.yul\":7987:7991   */\n      0x00\n        /* \"#utility.yul\":8077:8095   */\n      0xffffffffffffffff\n        /* \"#utility.yul\":8069:8075   */\n      dup3\n        /* \"#utility.yul\":8066:8096   */\n      gt\n        /* \"#utility.yul\":8063:8119   */\n      iszero\n      tag_268\n      jumpi\n        /* \"#utility.yul\":8099:8117   */\n      tag_269\n      tag_59\n      jump\t// in\n    tag_269:\n        /* \"#utility.yul\":8063:8119   */\n    tag_268:\n        /* \"#utility.yul\":8137:8166   */\n      tag_270\n        /* \"#utility.yul\":8159:8165   */\n      dup3\n        /* \"#utility.yul\":8137:8166   */\n      tag_150\n      jump\t// in\n    tag_270:\n        /* \"#utility.yul\":8129:8166   */\n      swap1\n      pop\n        /* \"#utility.yul\":8221:8225   */\n      0x20\n        /* \"#utility.yul\":8215:8219   */\n      dup2\n        /* \"#utility.yul\":8211:8226   */\n      add\n        /* \"#utility.yul\":8203:8226   */\n      swap1\n      pop\n        /* \"#utility.yul\":7925:8233   */\n      swap2\n      swap1\n      pop\n      jump\t// out\n        /* \"#utility.yul\":8239:8385   */\n    tag_161:\n        /* \"#utility.yul\":8336:8342   */\n      dup3\n        /* \"#utility.yul\":8331:8334   */\n      dup2\n        /* \"#utility.yul\":8326:8329   */\n      dup4\n        /* \"#utility.yul\":8313:8343   */\n      calldatacopy\n        /* \"#utility.yul\":8377:8378   */\n      0x00\n        /* \"#utility.yul\":8368:8374   */\n      dup4\n        /* \"#utility.yul\":8363:8366   */\n      dup4\n        /* \"#utility.yul\":8359:8375   */\n      add\n        /* \"#utility.yul\":8352:8379   */\n      mstore\n        /* \"#utility.yul\":8239:8385   */\n      pop\n      pop\n      pop\n      jump\t// out\n        /* \"#utility.yul\":8391:8816   */\n    tag_162:\n        /* \"#utility.yul\":8469:8474   */\n      0x00\n        /* \"#utility.yul\":8494:8560   */\n      tag_273\n        /* \"#utility.yul\":8510:8559   */\n      tag_274\n        /* \"#utility.yul\":8552:8558   */\n      dup5\n        /* \"#utility.yul\":8510:8559   */\n      tag_160\n      jump\t// in\n    tag_274:\n        /* \"#utility.yul\":8494:8560   */\n      tag_159\n      jump\t// in\n    tag_273:\n        /* \"#utility.yul\":8485:8560   */\n      swap1\n      pop\n        /* \"#utility.yul\":8583:8589   */\n      dup3\n        /* \"#utility.yul\":8576:8581   */\n      dup2\n        /* \"#utility.yul\":8569:8590   */\n      mstore\n        /* \"#utility.yul\":8621:8625   */\n      0x20\n        /* \"#utility.yul\":8614:8619   */\n      dup2\n        /* \"#utility.yul\":8610:8626   */\n      add\n        /* \"#utility.yul\":8659:8662   */\n      dup5\n        /* \"#utility.yul\":8650:8656   */\n      dup5\n        /* \"#utility.yul\":8645:8648   */\n      dup5\n        /* \"#utility.yul\":8641:8657   */\n      add\n        /* \"#utility.yul\":8638:8663   */\n      gt\n        /* \"#utility.yul\":8635:8747   */\n      iszero\n      tag_275\n      jumpi\n        /* \"#utility.yul\":8666:8745   */\n      tag_276\n      tag_157\n      jump\t// in\n    tag_276:\n        /* \"#utility.yul\":8635:8747   */\n    tag_275:\n        /* \"#utility.yul\":8756:8810   */\n      tag_277\n        /* \"#utility.yul\":8803:8809   */\n      dup5\n        /* \"#utility.yul\":8798:8801   */\n      dup3\n        /* \"#utility.yul\":8793:8796   */\n      dup6\n        /* \"#utility.yul\":8756:8810   */\n      tag_161\n      jump\t// in\n    tag_277:\n        /* \"#utility.yul\":8475:8816   */\n      pop\n        /* \"#utility.yul\":8391:8816   */\n      swap4\n      swap3\n      pop\n      pop\n      pop\n      jump\t// out\n        /* \"#utility.yul\":8836:9176   */\n    tag_163:\n        /* \"#utility.yul\":8892:8897   */\n      0x00\n        /* \"#utility.yul\":8941:8944   */\n      dup3\n        /* \"#utility.yul\":8934:8938   */\n      0x1f\n        /* \"#utility.yul\":8926:8932   */\n      dup4\n        /* \"#utility.yul\":8922:8939   */\n      add\n        /* \"#utility.yul\":8918:8945   */\n      slt\n        /* \"#utility.yul\":8908:9030   */\n      tag_279\n      jumpi\n        /* \"#utility.yul\":8949:9028   */\n      tag_280\n      tag_156\n      jump\t// in\n    tag_280:\n        /* \"#utility.yul\":8908:9030   */\n    tag_279:\n        /* \"#utility.yul\":9066:9072   */\n      dup2\n        /* \"#utility.yul\":9053:9073   */\n      calldataload\n        /* \"#utility.yul\":9091:9170   */\n      tag_281\n        /* \"#utility.yul\":9166:9169   */\n      dup5\n        /* \"#utility.yul\":9158:9164   */\n      dup3\n        /* \"#utility.yul\":9151:9155   */\n      0x20\n        /* \"#utility.yul\":9143:9149   */\n      dup7\n        /* \"#utility.yul\":9139:9156   */\n      add\n        /* \"#utility.yul\":9091:9170   */\n      tag_162\n      jump\t// in\n    tag_281:\n        /* \"#utility.yul\":9082:9170   */\n      swap2\n      pop\n        /* \"#utility.yul\":8898:9176   */\n      pop\n        /* \"#utility.yul\":8836:9176   */\n      swap3\n      swap2\n      pop\n      pop\n      jump\t// out\n        /* \"#utility.yul\":9182:9836   */\n    tag_33:\n        /* \"#utility.yul\":9260:9266   */\n      0x00\n        /* \"#utility.yul\":9268:9274   */\n      dup1\n        /* \"#utility.yul\":9317:9319   */\n      0x40\n        /* \"#utility.yul\":9305:9314   */\n      dup4\n        /* \"#utility.yul\":9296:9303   */\n      dup6\n        /* \"#utility.yul\":9292:9315   */\n      sub\n        /* \"#utility.yul\":9288:9320   */\n      slt\n        /* \"#utility.yul\":9285:9404   */\n      iszero\n      tag_283\n      jumpi\n        /* \"#utility.yul\":9323:9402   */\n      tag_284\n      tag_133\n      jump\t// in\n    tag_284:\n        /* \"#utility.yul\":9285:9404   */\n    tag_283:\n        /* \"#utility.yul\":9443:9444   */\n      0x00\n        /* \"#utility.yul\":9468:9521   */\n      tag_285\n        /* \"#utility.yul\":9513:9520   */\n      dup6\n        /* \"#utility.yul\":9504:9510   */\n      dup3\n        /* \"#utility.yul\":9493:9502   */\n      dup7\n        /* \"#utility.yul\":9489:9511   */\n      add\n        /* \"#utility.yul\":9468:9521   */\n      tag_138\n      jump\t// in\n    tag_285:\n        /* \"#utility.yul\":9458:9521   */\n      swap3\n      pop\n        /* \"#utility.yul\":9414:9531   */\n      pop\n        /* \"#utility.yul\":9598:9600   */\n      0x20\n        /* \"#utility.yul\":9587:9596   */\n      dup4\n        /* \"#utility.yul\":9583:9601   */\n      add\n        /* \"#utility.yul\":9570:9602   */\n      calldataload\n        /* \"#utility.yul\":9629:9647   */\n      0xffffffffffffffff\n        /* \"#utility.yul\":9621:9627   */\n      dup2\n        /* \"#utility.yul\":9618:9648   */\n      gt\n        /* \"#utility.yul\":9615:9732   */\n      iszero\n      tag_286\n      jumpi\n        /* \"#utility.yul\":9651:9730   */\n      tag_287\n      tag_134\n      jump\t// in\n    tag_287:\n        /* \"#utility.yul\":9615:9732   */\n    tag_286:\n        /* \"#utility.yul\":9756:9819   */\n      tag_288\n        /* \"#utility.yul\":9811:9818   */\n      dup6\n        /* \"#utility.yul\":9802:9808   */\n      dup3\n        /* \"#utility.yul\":9791:9800   */\n      dup7\n        /* \"#utility.yul\":9787:9809   */\n      add\n        /* \"#utility.yul\":9756:9819   */\n      tag_163\n      jump\t// in\n    tag_288:\n        /* \"#utility.yul\":9746:9819   */\n      swap2\n      pop\n        /* \"#utility.yul\":9541:9829   */\n      pop\n        /* \"#utility.yul\":9182:9836   */\n      swap3\n      pop\n      swap3\n      swap1\n      pop\n      jump\t// out\n        /* \"#utility.yul\":9842:10641   */\n    tag_37:\n        /* \"#utility.yul\":9929:9935   */\n      0x00\n        /* \"#utility.yul\":9937:9943   */\n      dup1\n        /* \"#utility.yul\":9945:9951   */\n      0x00\n        /* \"#utility.yul\":9994:9996   */\n      0x60\n        /* \"#utility.yul\":9982:9991   */\n      dup5\n        /* \"#utility.yul\":9973:9980   */\n      dup7\n        /* \"#utility.yul\":9969:9992   */\n      sub\n        /* \"#utility.yul\":9965:9997   */\n      slt\n        /* \"#utility.yul\":9962:10081   */\n      iszero\n      tag_290\n      jumpi\n        /* \"#utility.yul\":10000:10079   */\n      tag_291\n      tag_133\n      jump\t// in\n    tag_291:\n        /* \"#utility.yul\":9962:10081   */\n    tag_290:\n        /* \"#utility.yul\":10120:10121   */\n      0x00\n        /* \"#utility.yul\":10145:10198   */\n      tag_292\n        /* \"#utility.yul\":10190:10197   */\n      dup7\n        /* \"#utility.yul\":10181:10187   */\n      dup3\n        /* \"#utility.yul\":10170:10179   */\n      dup8\n        /* \"#utility.yul\":10166:10188   */\n      add\n        /* \"#utility.yul\":10145:10198   */\n      tag_138\n      jump\t// in\n    tag_292:\n        /* \"#utility.yul\":10135:10198   */\n      swap4\n      pop\n        /* \"#utility.yul\":10091:10208   */\n      pop\n        /* \"#utility.yul\":10247:10249   */\n      0x20\n        /* \"#utility.yul\":10273:10326   */\n      tag_293\n        /* \"#utility.yul\":10318:10325   */\n      dup7\n        /* \"#utility.yul\":10309:10315   */\n      dup3\n        /* \"#utility.yul\":10298:10307   */\n      dup8\n        /* \"#utility.yul\":10294:10316   */\n      add\n        /* \"#utility.yul\":10273:10326   */\n      tag_138\n      jump\t// in\n    tag_293:\n        /* \"#utility.yul\":10263:10326   */\n      swap3\n      pop\n        /* \"#utility.yul\":10218:10336   */\n      pop\n        /* \"#utility.yul\":10403:10405   */\n      0x40\n        /* \"#utility.yul\":10392:10401   */\n      dup5\n        /* \"#utility.yul\":10388:10406   */\n      add\n        /* \"#utility.yul\":10375:10407   */\n      calldataload\n        /* \"#utility.yul\":10434:10452   */\n      0xffffffffffffffff\n        /* \"#utility.yul\":10426:10432   */\n      dup2\n        /* \"#utility.yul\":10423:10453   */\n      gt\n        /* \"#utility.yul\":10420:10537   */\n      iszero\n      tag_294\n      jumpi\n        /* \"#utility.yul\":10456:10535   */\n      tag_295\n      tag_134\n      jump\t// in\n    tag_295:\n        /* \"#utility.yul\":10420:10537   */\n    tag_294:\n        /* \"#utility.yul\":10561:10624   */\n      tag_296\n        /* \"#utility.yul\":10616:10623   */\n      dup7\n        /* \"#utility.yul\":10607:10613   */\n      dup3\n        /* \"#utility.yul\":10596:10605   */\n      dup8\n        /* \"#utility.yul\":10592:10614   */\n      add\n        /* \"#utility.yul\":10561:10624   */\n      tag_163\n      jump\t// in\n    tag_296:\n        /* \"#utility.yul\":10551:10624   */\n      swap2\n      pop\n        /* \"#utility.yul\":10346:10634   */\n      pop\n        /* \"#utility.yul\":9842:10641   */\n      swap3\n      pop\n      swap3\n      pop\n      swap3\n      jump\t// out\n        /* \"#utility.yul\":10647:11301   */\n    tag_41:\n        /* \"#utility.yul\":10725:10731   */\n      0x00\n        /* \"#utility.yul\":10733:10739   */\n      dup1\n        /* \"#utility.yul\":10782:10784   */\n      0x40\n        /* \"#utility.yul\":10770:10779   */\n      dup4\n        /* \"#utility.yul\":10761:10768   */\n      dup6\n        /* \"#utility.yul\":10757:10780   */\n      sub\n        /* \"#utility.yul\":10753:10785   */\n      slt\n        /* \"#utility.yul\":10750:10869   */\n      iszero\n      tag_298\n      jumpi\n        /* \"#utility.yul\":10788:10867   */\n      tag_299\n      tag_133\n      jump\t// in\n    tag_299:\n        /* \"#utility.yul\":10750:10869   */\n    tag_298:\n        /* \"#utility.yul\":10936:10937   */\n      0x00\n        /* \"#utility.yul\":10925:10934   */\n      dup4\n        /* \"#utility.yul\":10921:10938   */\n      add\n        /* \"#utility.yul\":10908:10939   */\n      calldataload\n        /* \"#utility.yul\":10966:10984   */\n      0xffffffffffffffff\n        /* \"#utility.yul\":10958:10964   */\n      dup2\n        /* \"#utility.yul\":10955:10985   */\n      gt\n        /* \"#utility.yul\":10952:11069   */\n      iszero\n      tag_300\n      jumpi\n        /* \"#utility.yul\":10988:11067   */\n      tag_301\n      tag_134\n      jump\t// in\n    tag_301:\n        /* \"#utility.yul\":10952:11069   */\n    tag_300:\n        /* \"#utility.yul\":11093:11156   */\n      tag_302\n        /* \"#utility.yul\":11148:11155   */\n      dup6\n        /* \"#utility.yul\":11139:11145   */\n      dup3\n        /* \"#utility.yul\":11128:11137   */\n      dup7\n        /* \"#utility.yul\":11124:11146   */\n      add\n        /* \"#utility.yul\":11093:11156   */\n      tag_163\n      jump\t// in\n    tag_302:\n        /* \"#utility.yul\":11083:11156   */\n      swap3\n      pop\n        /* \"#utility.yul\":10879:11166   */\n      pop\n        /* \"#utility.yul\":11205:11207   */\n      0x20\n        /* \"#utility.yul\":11231:11284   */\n      tag_303\n        /* \"#utility.yul\":11276:11283   */\n      dup6\n        /* \"#utility.yul\":11267:11273   */\n      dup3\n        /* \"#utility.yul\":11256:11265   */\n      dup7\n        /* \"#utility.yul\":11252:11274   */\n      add\n        /* \"#utility.yul\":11231:11284   */\n      tag_138\n      jump\t// in\n    tag_303:\n        /* \"#utility.yul\":11221:11284   */\n      swap2\n      pop\n        /* \"#utility.yul\":11176:11294   */\n      pop\n        /* \"#utility.yul\":10647:11301   */\n      swap3\n      pop\n      swap3\n      swap1\n      pop\n      jump\t// out\n        /* \"#utility.yul\":11307:11816   */\n    tag_45:\n        /* \"#utility.yul\":11376:11382   */\n      0x00\n        /* \"#utility.yul\":11425:11427   */\n      0x20\n        /* \"#utility.yul\":11413:11422   */\n      dup3\n        /* \"#utility.yul\":11404:11411   */\n      dup5\n        /* \"#utility.yul\":11400:11423   */\n      sub\n        /* \"#utility.yul\":11396:11428   */\n      slt\n        /* \"#utility.yul\":11393:11512   */\n      iszero\n      tag_305\n      jumpi\n        /* \"#utility.yul\":11431:11510   */\n      tag_306\n      tag_133\n      jump\t// in\n    tag_306:\n        /* \"#utility.yul\":11393:11512   */\n    tag_305:\n        /* \"#utility.yul\":11579:11580   */\n      0x00\n        /* \"#utility.yul\":11568:11577   */\n      dup3\n        /* \"#utility.yul\":11564:11581   */\n      add\n        /* \"#utility.yul\":11551:11582   */\n      calldataload\n        /* \"#utility.yul\":11609:11627   */\n      0xffffffffffffffff\n        /* \"#utility.yul\":11601:11607   */\n      dup2\n        /* \"#utility.yul\":11598:11628   */\n      gt\n        /* \"#utility.yul\":11595:11712   */\n      iszero\n      tag_307\n      jumpi\n        /* \"#utility.yul\":11631:11710   */\n      tag_308\n      tag_134\n      jump\t// in\n    tag_308:\n        /* \"#utility.yul\":11595:11712   */\n    tag_307:\n        /* \"#utility.yul\":11736:11799   */\n      tag_309\n        /* \"#utility.yul\":11791:11798   */\n      dup5\n        /* \"#utility.yul\":11782:11788   */\n      dup3\n        /* \"#utility.yul\":11771:11780   */\n      dup6\n        /* \"#utility.yul\":11767:11789   */\n      add\n        /* \"#utility.yul\":11736:11799   */\n      tag_163\n      jump\t// in\n    tag_309:\n        /* \"#utility.yul\":11726:11799   */\n      swap2\n      pop\n        /* \"#utility.yul\":11522:11809   */\n      pop\n        /* \"#utility.yul\":11307:11816   */\n      swap3\n      swap2\n      pop\n      pop\n      jump\t// out\n        /* \"#utility.yul\":11822:11991   */\n    tag_164:\n        /* \"#utility.yul\":11906:11917   */\n      0x00\n        /* \"#utility.yul\":11940:11946   */\n      dup3\n        /* \"#utility.yul\":11935:11938   */\n      dup3\n        /* \"#utility.yul\":11928:11947   */\n      mstore\n        /* \"#utility.yul\":11980:11984   */\n      0x20\n        /* \"#utility.yul\":11975:11978   */\n      dup3\n        /* \"#utility.yul\":11971:11985   */\n      add\n        /* \"#utility.yul\":11956:11985   */\n      swap1\n      pop\n        /* \"#utility.yul\":11822:11991   */\n      swap3\n      swap2\n      pop\n      pop\n      jump\t// out\n        /* \"#utility.yul\":11997:12166   */\n    tag_165:\n        /* \"#utility.yul\":12137:12158   */\n      0x636f756e74206973206e6f742070726f70657200000000000000000000000000\n        /* \"#utility.yul\":12133:12134   */\n      0x00\n        /* \"#utility.yul\":12125:12131   */\n      dup3\n        /* \"#utility.yul\":12121:12135   */\n      add\n        /* \"#utility.yul\":12114:12159   */\n      mstore\n        /* \"#utility.yul\":11997:12166   */\n      pop\n      jump\t// out\n        /* \"#utility.yul\":12172:12538   */\n    tag_166:\n        /* \"#utility.yul\":12314:12317   */\n      0x00\n        /* \"#utility.yul\":12335:12402   */\n      tag_313\n        /* \"#utility.yul\":12399:12401   */\n      0x13\n        /* \"#utility.yul\":12394:12397   */\n      dup4\n        /* \"#utility.yul\":12335:12402   */\n      tag_164\n      jump\t// in\n    tag_313:\n        /* \"#utility.yul\":12328:12402   */\n      swap2\n      pop\n        /* \"#utility.yul\":12411:12504   */\n      tag_314\n        /* \"#utility.yul\":12500:12503   */\n      dup3\n        /* \"#utility.yul\":12411:12504   */\n      tag_165\n      jump\t// in\n    tag_314:\n        /* \"#utility.yul\":12529:12531   */\n      0x20\n        /* \"#utility.yul\":12524:12527   */\n      dup3\n        /* \"#utility.yul\":12520:12532   */\n      add\n        /* \"#utility.yul\":12513:12532   */\n      swap1\n      pop\n        /* \"#utility.yul\":12172:12538   */\n      swap2\n      swap1\n      pop\n      jump\t// out\n        /* \"#utility.yul\":12544:12963   */\n    tag_56:\n        /* \"#utility.yul\":12710:12714   */\n      0x00\n        /* \"#utility.yul\":12748:12750   */\n      0x20\n        /* \"#utility.yul\":12737:12746   */\n      dup3\n        /* \"#utility.yul\":12733:12751   */\n      add\n        /* \"#utility.yul\":12725:12751   */\n      swap1\n      pop\n        /* \"#utility.yul\":12797:12806   */\n      dup2\n        /* \"#utility.yul\":12791:12795   */\n      dup2\n        /* \"#utility.yul\":12787:12807   */\n      sub\n        /* \"#utility.yul\":12783:12784   */\n      0x00\n        /* \"#utility.yul\":12772:12781   */\n      dup4\n        /* \"#utility.yul\":12768:12785   */\n      add\n        /* \"#utility.yul\":12761:12808   */\n      mstore\n        /* \"#utility.yul\":12825:12956   */\n      tag_316\n        /* \"#utility.yul\":12951:12955   */\n      dup2\n        /* \"#utility.yul\":12825:12956   */\n      tag_166\n      jump\t// in\n    tag_316:\n        /* \"#utility.yul\":12817:12956   */\n      swap1\n      pop\n        /* \"#utility.yul\":12544:12963   */\n      swap2\n      swap1\n      pop\n      jump\t// out\n        /* \"#utility.yul\":12969:13149   */\n    tag_167:\n        /* \"#utility.yul\":13017:13094   */\n      0x4e487b7100000000000000000000000000000000000000000000000000000000\n        /* \"#utility.yul\":13014:13015   */\n      0x00\n        /* \"#utility.yul\":13007:13095   */\n      mstore\n        /* \"#utility.yul\":13114:13118   */\n      0x11\n        /* \"#utility.yul\":13111:13112   */\n      0x04\n        /* \"#utility.yul\":13104:13119   */\n      mstore\n        /* \"#utility.yul\":13138:13142   */\n      0x24\n        /* \"#utility.yul\":13135:13136   */\n      0x00\n        /* \"#utility.yul\":13128:13143   */\n      revert\n        /* \"#utility.yul\":13155:13349   */\n    tag_68:\n        /* \"#utility.yul\":13195:13199   */\n      0x00\n        /* \"#utility.yul\":13215:13235   */\n      tag_319\n        /* \"#utility.yul\":13233:13234   */\n      dup3\n        /* \"#utility.yul\":13215:13235   */\n      tag_139\n      jump\t// in\n    tag_319:\n        /* \"#utility.yul\":13210:13235   */\n      swap2\n      pop\n        /* \"#utility.yul\":13249:13269   */\n      tag_320\n        /* \"#utility.yul\":13267:13268   */\n      dup4\n        /* \"#utility.yul\":13249:13269   */\n      tag_139\n      jump\t// in\n    tag_320:\n        /* \"#utility.yul\":13244:13269   */\n      swap3\n      pop\n        /* \"#utility.yul\":13293:13294   */\n      dup3\n        /* \"#utility.yul\":13290:13291   */\n      dup3\n        /* \"#utility.yul\":13286:13295   */\n      sub\n        /* \"#utility.yul\":13278:13295   */\n      swap1\n      pop\n        /* \"#utility.yul\":13317:13318   */\n      dup2\n        /* \"#utility.yul\":13311:13315   */\n      dup2\n        /* \"#utility.yul\":13308:13319   */\n      gt\n        /* \"#utility.yul\":13305:13342   */\n      iszero\n      tag_321\n      jumpi\n        /* \"#utility.yul\":13322:13340   */\n      tag_322\n      tag_167\n      jump\t// in\n    tag_322:\n        /* \"#utility.yul\":13305:13342   */\n    tag_321:\n        /* \"#utility.yul\":13155:13349   */\n      swap3\n      swap2\n      pop\n      pop\n      jump\t// out\n        /* \"#utility.yul\":13355:13535   */\n    tag_168:\n        /* \"#utility.yul\":13403:13480   */\n      0x4e487b7100000000000000000000000000000000000000000000000000000000\n        /* \"#utility.yul\":13400:13401   */\n      0x00\n        /* \"#utility.yul\":13393:13481   */\n      mstore\n        /* \"#utility.yul\":13500:13504   */\n      0x22\n        /* \"#utility.yul\":13497:13498   */\n      0x04\n        /* \"#utility.yul\":13490:13505   */\n      mstore\n        /* \"#utility.yul\":13524:13528   */\n      0x24\n        /* \"#utility.yul\":13521:13522   */\n      0x00\n        /* \"#utility.yul\":13514:13529   */\n      revert\n        /* \"#utility.yul\":13541:13861   */\n    tag_70:\n        /* \"#utility.yul\":13585:13591   */\n      0x00\n        /* \"#utility.yul\":13622:13623   */\n      0x02\n        /* \"#utility.yul\":13616:13620   */\n      dup3\n        /* \"#utility.yul\":13612:13624   */\n      div\n        /* \"#utility.yul\":13602:13624   */\n      swap1\n      pop\n        /* \"#utility.yul\":13669:13670   */\n      0x01\n        /* \"#utility.yul\":13663:13667   */\n      dup3\n        /* \"#utility.yul\":13659:13671   */\n      and\n        /* \"#utility.yul\":13690:13708   */\n      dup1\n        /* \"#utility.yul\":13680:13761   */\n      tag_325\n      jumpi\n        /* \"#utility.yul\":13746:13750   */\n      0x7f\n        /* \"#utility.yul\":13738:13744   */\n      dup3\n        /* \"#utility.yul\":13734:13751   */\n      and\n        /* \"#utility.yul\":13724:13751   */\n      swap2\n      pop\n        /* \"#utility.yul\":13680:13761   */\n    tag_325:\n        /* \"#utility.yul\":13808:13810   */\n      0x20\n        /* \"#utility.yul\":13800:13806   */\n      dup3\n        /* \"#utility.yul\":13797:13811   */\n      lt\n        /* \"#utility.yul\":13777:13795   */\n      dup2\n        /* \"#utility.yul\":13774:13812   */\n      sub\n        /* \"#utility.yul\":13771:13855   */\n      tag_326\n      jumpi\n        /* \"#utility.yul\":13827:13845   */\n      tag_327\n      tag_168\n      jump\t// in\n    tag_327:\n        /* \"#utility.yul\":13771:13855   */\n    tag_326:\n        /* \"#utility.yul\":13592:13861   */\n      pop\n        /* \"#utility.yul\":13541:13861   */\n      swap2\n      swap1\n      pop\n      jump\t// out\n        /* \"#utility.yul\":13867:14047   */\n    tag_77:\n        /* \"#utility.yul\":13915:13992   */\n      0x4e487b7100000000000000000000000000000000000000000000000000000000\n        /* \"#utility.yul\":13912:13913   */\n      0x00\n        /* \"#utility.yul\":13905:13993   */\n      mstore\n        /* \"#utility.yul\":14012:14016   */\n      0x32\n        /* \"#utility.yul\":14009:14010   */\n      0x04\n        /* \"#utility.yul\":14002:14017   */\n      mstore\n        /* \"#utility.yul\":14036:14040   */\n      0x24\n        /* \"#utility.yul\":14033:14034   */\n      0x00\n        /* \"#utility.yul\":14026:14041   */\n      revert\n        /* \"#utility.yul\":14053:14286   */\n    tag_79:\n        /* \"#utility.yul\":14092:14095   */\n      0x00\n        /* \"#utility.yul\":14115:14139   */\n      tag_330\n        /* \"#utility.yul\":14133:14138   */\n      dup3\n        /* \"#utility.yul\":14115:14139   */\n      tag_139\n      jump\t// in\n    tag_330:\n        /* \"#utility.yul\":14106:14139   */\n      swap2\n      pop\n        /* \"#utility.yul\":14161:14227   */\n      0xffffffffffffffffffffffffffffffffffffffffffffffffffffffffffffffff\n        /* \"#utility.yul\":14154:14159   */\n      dup3\n        /* \"#utility.yul\":14151:14228   */\n      sub\n        /* \"#utility.yul\":14148:14251   */\n      tag_331\n      jumpi\n        /* \"#utility.yul\":14231:14249   */\n      tag_332\n      tag_167\n      jump\t// in\n    tag_332:\n        /* \"#utility.yul\":14148:14251   */\n    tag_331:\n        /* \"#utility.yul\":14278:14279   */\n      0x01\n        /* \"#utility.yul\":14271:14276   */\n      dup3\n        /* \"#utility.yul\":14267:14280   */\n      add\n        /* \"#utility.yul\":14260:14280   */\n      swap1\n      pop\n        /* \"#utility.yul\":14053:14286   */\n      swap2\n      swap1\n      pop\n      jump\t// out\n        /* \"#utility.yul\":14292:14461   */\n    tag_169:\n        /* \"#utility.yul\":14432:14453   */\n      0x636f756e74206973206e6f7420646566696e6500000000000000000000000000\n        /* \"#utility.yul\":14428:14429   */\n      0x00\n        /* \"#utility.yul\":14420:14426   */\n      dup3\n        /* \"#utility.yul\":14416:14430   */\n      add\n        /* \"#utility.yul\":14409:14454   */\n      mstore\n        /* \"#utility.yul\":14292:14461   */\n      pop\n      jump\t// out\n        /* \"#utility.yul\":14467:14833   */\n    tag_170:\n        /* \"#utility.yul\":14609:14612   */\n      0x00\n        /* \"#utility.yul\":14630:14697   */\n      tag_335\n        /* \"#utility.yul\":14694:14696   */\n      0x13\n        /* \"#utility.yul\":14689:14692   */\n      dup4\n        /* \"#utility.yul\":14630:14697   */\n      tag_164\n      jump\t// in\n    tag_335:\n        /* \"#utility.yul\":14623:14697   */\n      swap2\n      pop\n        /* \"#utility.yul\":14706:14799   */\n      tag_336\n        /* \"#utility.yul\":14795:14798   */\n      dup3\n        /* \"#utility.yul\":14706:14799   */\n      tag_169\n      jump\t// in\n    tag_336:\n        /* \"#utility.yul\":14824:14826   */\n      0x20\n        /* \"#utility.yul\":14819:14822   */\n      dup3\n        /* \"#utility.yul\":14815:14827   */\n      add\n        /* \"#utility.yul\":14808:14827   */\n      swap1\n      pop\n        /* \"#utility.yul\":14467:14833   */\n      swap2\n      swap1\n      pop\n      jump\t// out\n        /* \"#utility.yul\":14839:15258   */\n    tag_85:\n        /* \"#utility.yul\":15005:15009   */\n      0x00\n        /* \"#utility.yul\":15043:15045   */\n      0x20\n        /* \"#utility.yul\":15032:15041   */\n      dup3\n        /* \"#utility.yul\":15028:15046   */\n      add\n        /* \"#utility.yul\":15020:15046   */\n      swap1\n      pop\n        /* \"#utility.yul\":15092:15101   */\n      dup2\n        /* \"#utility.yul\":15086:15090   */\n      dup2\n        /* \"#utility.yul\":15082:15102   */\n      sub\n        /* \"#utility.yul\":15078:15079   */\n      0x00\n        /* \"#utility.yul\":15067:15076   */\n      dup4\n        /* \"#utility.yul\":15063:15080   */\n      add\n        /* \"#utility.yul\":15056:15103   */\n      mstore\n        /* \"#utility.yul\":15120:15251   */\n      tag_338\n        /* \"#utility.yul\":15246:15250   */\n      dup2\n        /* \"#utility.yul\":15120:15251   */\n      tag_170\n      jump\t// in\n    tag_338:\n        /* \"#utility.yul\":15112:15251   */\n      swap1\n      pop\n        /* \"#utility.yul\":14839:15258   */\n      swap2\n      swap1\n      pop\n      jump\t// out\n        /* \"#utility.yul\":15264:15442   */\n    tag_171:\n        /* \"#utility.yul\":15404:15434   */\n      0x636f756e74206973206e6f742070726f7065726c7920646566696e6500000000\n        /* \"#utility.yul\":15400:15401   */\n      0x00\n        /* \"#utility.yul\":15392:15398   */\n      dup3\n        /* \"#utility.yul\":15388:15402   */\n      add\n        /* \"#utility.yul\":15381:15435   */\n      mstore\n        /* \"#utility.yul\":15264:15442   */\n      pop\n      jump\t// out\n        /* \"#utility.yul\":15448:15814   */\n    tag_172:\n        /* \"#utility.yul\":15590:15593   */\n      0x00\n        /* \"#utility.yul\":15611:15678   */\n      tag_341\n        /* \"#utility.yul\":15675:15677   */\n      0x1c\n        /* \"#utility.yul\":15670:15673   */\n      dup4\n        /* \"#utility.yul\":15611:15678   */\n      tag_164\n      jump\t// in\n    tag_341:\n        /* \"#utility.yul\":15604:15678   */\n      swap2\n      pop\n        /* \"#utility.yul\":15687:15780   */\n      tag_342\n        /* \"#utility.yul\":15776:15779   */\n      dup3\n        /* \"#utility.yul\":15687:15780   */\n      tag_171\n      jump\t// in\n    tag_342:\n        /* \"#utility.yul\":15805:15807   */\n      0x20\n        /* \"#utility.yul\":15800:15803   */\n      dup3\n        /* \"#utility.yul\":15796:15808   */\n      add\n        /* \"#utility.yul\":15789:15808   */\n      swap1\n      pop\n        /* \"#utility.yul\":15448:15814   */\n      swap2\n      swap1\n      pop\n      jump\t// out\n        /* \"#utility.yul\":15820:16239   */\n    tag_96:\n        /* \"#utility.yul\":15986:15990   */\n      0x00\n        /* \"#utility.yul\":16024:16026   */\n      0x20\n        /* \"#utility.yul\":16013:16022   */\n      dup3\n        /* \"#utility.yul\":16009:16027   */\n      add\n        /* \"#utility.yul\":16001:16027   */\n      swap1\n      pop\n        /* \"#utility.yul\":16073:16082   */\n      dup2\n        /* \"#utility.yul\":16067:16071   */\n      dup2\n        /* \"#utility.yul\":16063:16083   */\n      sub\n        /* \"#utility.yul\":16059:16060   */\n      0x00\n        /* \"#utility.yul\":16048:16057   */\n      dup4\n        /* \"#utility.yul\":16044:16061   */\n      add\n        /* \"#utility.yul\":16037:16084   */\n      mstore\n        /* \"#utility.yul\":16101:16232   */\n      tag_344\n        /* \"#utility.yul\":16227:16231   */\n      dup2\n        /* \"#utility.yul\":16101:16232   */\n      tag_172\n      jump\t// in\n    tag_344:\n        /* \"#utility.yul\":16093:16232   */\n      swap1\n      pop\n        /* \"#utility.yul\":15820:16239   */\n      swap2\n      swap1\n      pop\n      jump\t// out\n        /* \"#utility.yul\":16245:16386   */\n    tag_173:\n        /* \"#utility.yul\":16294:16298   */\n      0x00\n        /* \"#utility.yul\":16317:16320   */\n      dup2\n        /* \"#utility.yul\":16309:16320   */\n      swap1\n      pop\n        /* \"#utility.yul\":16340:16343   */\n      dup2\n        /* \"#utility.yul\":16337:16338   */\n      0x00\n        /* \"#utility.yul\":16330:16344   */\n      mstore\n        /* \"#utility.yul\":16374:16378   */\n      0x20\n        /* \"#utility.yul\":16371:16372   */\n      0x00\n        /* \"#utility.yul\":16361:16379   */\n      keccak256\n        /* \"#utility.yul\":16353:16379   */\n      swap1\n      pop\n        /* \"#utility.yul\":16245:16386   */\n      swap2\n      swap1\n      pop\n      jump\t// out\n        /* \"#utility.yul\":16392:16485   */\n    tag_174:\n        /* \"#utility.yul\":16429:16435   */\n      0x00\n        /* \"#utility.yul\":16476:16478   */\n      0x20\n        /* \"#utility.yul\":16471:16473   */\n      0x1f\n        /* \"#utility.yul\":16464:16469   */\n      dup4\n        /* \"#utility.yul\":16460:16474   */\n      add\n        /* \"#utility.yul\":16456:16479   */\n      div\n        /* \"#utility.yul\":16446:16479   */\n      swap1\n      pop\n        /* \"#utility.yul\":16392:16485   */\n      swap2\n      swap1\n      pop\n      jump\t// out\n        /* \"#utility.yul\":16491:16598   */\n    tag_175:\n        /* \"#utility.yul\":16535:16543   */\n      0x00\n        /* \"#utility.yul\":16585:16590   */\n      dup3\n        /* \"#utility.yul\":16579:16583   */\n      dup3\n        /* \"#utility.yul\":16575:16591   */\n      shl\n        /* \"#utility.yul\":16554:16591   */\n      swap1\n      pop\n        /* \"#utility.yul\":16491:16598   */\n      swap3\n      swap2\n      pop\n      pop\n      jump\t// out\n        /* \"#utility.yul\":16604:16997   */\n    tag_176:\n        /* \"#utility.yul\":16673:16679   */\n      0x00\n        /* \"#utility.yul\":16723:16724   */\n      0x08\n        /* \"#utility.yul\":16711:16721   */\n      dup4\n        /* \"#utility.yul\":16707:16725   */\n      mul\n        /* \"#utility.yul\":16746:16843   */\n      tag_349\n        /* \"#utility.yul\":16776:16842   */\n      0xffffffffffffffffffffffffffffffffffffffffffffffffffffffffffffffff\n        /* \"#utility.yul\":16765:16774   */\n      dup3\n        /* \"#utility.yul\":16746:16843   */\n      tag_175\n      jump\t// in\n    tag_349:\n        /* \"#utility.yul\":16864:16903   */\n      tag_350\n        /* \"#utility.yul\":16894:16902   */\n      dup7\n        /* \"#utility.yul\":16883:16892   */\n      dup4\n        /* \"#utility.yul\":16864:16903   */\n      tag_175\n      jump\t// in\n    tag_350:\n        /* \"#utility.yul\":16852:16903   */\n      swap6\n      pop\n        /* \"#utility.yul\":16936:16940   */\n      dup1\n        /* \"#utility.yul\":16932:16941   */\n      not\n        /* \"#utility.yul\":16925:16930   */\n      dup5\n        /* \"#utility.yul\":16921:16942   */\n      and\n        /* \"#utility.yul\":16912:16942   */\n      swap4\n      pop\n        /* \"#utility.yul\":16985:16989   */\n      dup1\n        /* \"#utility.yul\":16975:16983   */\n      dup7\n        /* \"#utility.yul\":16971:16990   */\n      and\n        /* \"#utility.yul\":16964:16969   */\n      dup5\n        /* \"#utility.yul\":16961:16991   */\n      or\n        /* \"#utility.yul\":16951:16991   */\n      swap3\n      pop\n        /* \"#utility.yul\":16680:16997   */\n      pop\n      pop\n        /* \"#utility.yul\":16604:16997   */\n      swap4\n      swap3\n      pop\n      pop\n      pop\n      jump\t// out\n        /* \"#utility.yul\":17003:17063   */\n    tag_177:\n        /* \"#utility.yul\":17031:17034   */\n      0x00\n        /* \"#utility.yul\":17052:17057   */\n      dup2\n        /* \"#utility.yul\":17045:17057   */\n      swap1\n      pop\n        /* \"#utility.yul\":17003:17063   */\n      swap2\n      swap1\n      pop\n      jump\t// out\n        /* \"#utility.yul\":17069:17211   */\n    tag_178:\n        /* \"#utility.yul\":17119:17128   */\n      0x00\n        /* \"#utility.yul\":17152:17205   */\n      tag_353\n        /* \"#utility.yul\":17170:17204   */\n      tag_354\n        /* \"#utility.yul\":17179:17203   */\n      tag_355\n        /* \"#utility.yul\":17197:17202   */\n      dup5\n        /* \"#utility.yul\":17179:17203   */\n      tag_139\n      jump\t// in\n    tag_355:\n        /* \"#utility.yul\":17170:17204   */\n      tag_177\n      jump\t// in\n    tag_354:\n        /* \"#utility.yul\":17152:17205   */\n      tag_139\n      jump\t// in\n    tag_353:\n        /* \"#utility.yul\":17139:17205   */\n      swap1\n      pop\n        /* \"#utility.yul\":17069:17211   */\n      swap2\n      swap1\n      pop\n      jump\t// out\n        /* \"#utility.yul\":17217:17292   */\n    tag_179:\n        /* \"#utility.yul\":17260:17263   */\n      0x00\n        /* \"#utility.yul\":17281:17286   */\n      dup2\n        /* \"#utility.yul\":17274:17286   */\n      swap1\n      pop\n        /* \"#utility.yul\":17217:17292   */\n      swap2\n      swap1\n      pop\n      jump\t// out\n        /* \"#utility.yul\":17298:17567   */\n    tag_180:\n        /* \"#utility.yul\":17408:17447   */\n      tag_358\n        /* \"#utility.yul\":17439:17446   */\n      dup4\n        /* \"#utility.yul\":17408:17447   */\n      tag_178\n      jump\t// in\n    tag_358:\n        /* \"#utility.yul\":17469:17560   */\n      tag_359\n        /* \"#utility.yul\":17518:17559   */\n      tag_360\n        /* \"#utility.yul\":17542:17558   */\n      dup3\n        /* \"#utility.yul\":17518:17559   */\n      tag_179\n      jump\t// in\n    tag_360:\n        /* \"#utility.yul\":17510:17516   */\n      dup5\n        /* \"#utility.yul\":17503:17507   */\n      dup5\n        /* \"#utility.yul\":17497:17508   */\n      sload\n        /* \"#utility.yul\":17469:17560   */\n      tag_176\n      jump\t// in\n    tag_359:\n        /* \"#utility.yul\":17463:17467   */\n      dup3\n        /* \"#utility.yul\":17456:17561   */\n      sstore\n        /* \"#utility.yul\":17374:17567   */\n      pop\n        /* \"#utility.yul\":17298:17567   */\n      pop\n      pop\n      pop\n      jump\t// out\n        /* \"#utility.yul\":17573:17646   */\n    tag_181:\n        /* \"#utility.yul\":17618:17621   */\n      0x00\n        /* \"#utility.yul\":17573:17646   */\n      swap1\n      jump\t// out\n        /* \"#utility.yul\":17652:17841   */\n    tag_182:\n        /* \"#utility.yul\":17729:17761   */\n      tag_363\n      tag_181\n      jump\t// in\n    tag_363:\n        /* \"#utility.yul\":17770:17835   */\n      tag_364\n        /* \"#utility.yul\":17828:17834   */\n      dup2\n        /* \"#utility.yul\":17820:17826   */\n      dup5\n        /* \"#utility.yul\":17814:17818   */\n      dup5\n        /* \"#utility.yul\":17770:17835   */\n      tag_180\n      jump\t// in\n    tag_364:\n        /* \"#utility.yul\":17705:17841   */\n      pop\n        /* \"#utility.yul\":17652:17841   */\n      pop\n      pop\n      jump\t// out\n        /* \"#utility.yul\":17847:18033   */\n    tag_183:\n        /* \"#utility.yul\":17907:18027   */\n    tag_366:\n        /* \"#utility.yul\":17924:17927   */\n      dup2\n        /* \"#utility.yul\":17917:17922   */\n      dup2\n        /* \"#utility.yul\":17914:17928   */\n      lt\n        /* \"#utility.yul\":17907:18027   */\n      iszero\n      tag_368\n      jumpi\n        /* \"#utility.yul\":17978:18017   */\n      tag_369\n        /* \"#utility.yul\":18015:18016   */\n      0x00\n        /* \"#utility.yul\":18008:18013   */\n      dup3\n        /* \"#utility.yul\":17978:18017   */\n      tag_182\n      jump\t// in\n    tag_369:\n        /* \"#utility.yul\":17951:17952   */\n      0x01\n        /* \"#utility.yul\":17944:17949   */\n      dup2\n        /* \"#utility.yul\":17940:17953   */\n      add\n        /* \"#utility.yul\":17931:17953   */\n      swap1\n      pop\n        /* \"#utility.yul\":17907:18027   */\n      jump(tag_366)\n    tag_368:\n        /* \"#utility.yul\":17847:18033   */\n      pop\n      pop\n      jump\t// out\n        /* \"#utility.yul\":18039:18582   */\n    tag_184:\n        /* \"#utility.yul\":18140:18142   */\n      0x1f\n        /* \"#utility.yul\":18135:18138   */\n      dup3\n        /* \"#utility.yul\":18132:18143   */\n      gt\n        /* \"#utility.yul\":18129:18575   */\n      iszero\n      tag_371\n      jumpi\n        /* \"#utility.yul\":18174:18212   */\n      tag_372\n        /* \"#utility.yul\":18206:18211   */\n      dup2\n        /* \"#utility.yul\":18174:18212   */\n      tag_173\n      jump\t// in\n    tag_372:\n        /* \"#utility.yul\":18258:18287   */\n      tag_373\n        /* \"#utility.yul\":18276:18286   */\n      dup5\n        /* \"#utility.yul\":18258:18287   */\n      tag_174\n      jump\t// in\n    tag_373:\n        /* \"#utility.yul\":18248:18256   */\n      dup2\n        /* \"#utility.yul\":18244:18288   */\n      add\n        /* \"#utility.yul\":18441:18443   */\n      0x20\n        /* \"#utility.yul\":18429:18439   */\n      dup6\n        /* \"#utility.yul\":18426:18444   */\n      lt\n        /* \"#utility.yul\":18423:18472   */\n      iszero\n      tag_374\n      jumpi\n        /* \"#utility.yul\":18462:18470   */\n      dup2\n        /* \"#utility.yul\":18447:18470   */\n      swap1\n      pop\n        /* \"#utility.yul\":18423:18472   */\n    tag_374:\n        /* \"#utility.yul\":18485:18565   */\n      tag_375\n        /* \"#utility.yul\":18541:18563   */\n      tag_376\n        /* \"#utility.yul\":18559:18562   */\n      dup6\n        /* \"#utility.yul\":18541:18563   */\n      tag_174\n      jump\t// in\n    tag_376:\n        /* \"#utility.yul\":18531:18539   */\n      dup4\n        /* \"#utility.yul\":18527:18564   */\n      add\n        /* \"#utility.yul\":18514:18525   */\n      dup3\n        /* \"#utility.yul\":18485:18565   */\n      tag_183\n      jump\t// in\n    tag_375:\n        /* \"#utility.yul\":18144:18575   */\n      pop\n      pop\n        /* \"#utility.yul\":18129:18575   */\n    tag_371:\n        /* \"#utility.yul\":18039:18582   */\n      pop\n      pop\n      pop\n      jump\t// out\n        /* \"#utility.yul\":18588:18705   */\n    tag_185:\n        /* \"#utility.yul\":18642:18650   */\n      0x00\n        /* \"#utility.yul\":18692:18697   */\n      dup3\n        /* \"#utility.yul\":18686:18690   */\n      dup3\n        /* \"#utility.yul\":18682:18698   */\n      shr\n        /* \"#utility.yul\":18661:18698   */\n      swap1\n      pop\n        /* \"#utility.yul\":18588:18705   */\n      swap3\n      swap2\n      pop\n      pop\n      jump\t// out\n        /* \"#utility.yul\":18711:18880   */\n    tag_186:\n        /* \"#utility.yul\":18755:18761   */\n      0x00\n        /* \"#utility.yul\":18788:18839   */\n      tag_379\n        /* \"#utility.yul\":18836:18837   */\n      0x00\n        /* \"#utility.yul\":18832:18838   */\n      not\n        /* \"#utility.yul\":18824:18829   */\n      dup5\n        /* \"#utility.yul\":18821:18822   */\n      0x08\n        /* \"#utility.yul\":18817:18830   */\n      mul\n        /* \"#utility.yul\":18788:18839   */\n      tag_185\n      jump\t// in\n    tag_379:\n        /* \"#utility.yul\":18784:18840   */\n      not\n        /* \"#utility.yul\":18869:18873   */\n      dup1\n        /* \"#utility.yul\":18863:18867   */\n      dup4\n        /* \"#utility.yul\":18859:18874   */\n      and\n        /* \"#utility.yul\":18849:18874   */\n      swap2\n      pop\n        /* \"#utility.yul\":18762:18880   */\n      pop\n        /* \"#utility.yul\":18711:18880   */\n      swap3\n      swap2\n      pop\n      pop\n      jump\t// out\n        /* \"#utility.yul\":18885:19180   */\n    tag_187:\n        /* \"#utility.yul\":18961:18965   */\n      0x00\n        /* \"#utility.yul\":19107:19136   */\n      tag_381\n        /* \"#utility.yul\":19132:19135   */\n      dup4\n        /* \"#utility.yul\":19126:19130   */\n      dup4\n        /* \"#utility.yul\":19107:19136   */\n      tag_186\n      jump\t// in\n    tag_381:\n        /* \"#utility.yul\":19099:19136   */\n      swap2\n      pop\n        /* \"#utility.yul\":19169:19172   */\n      dup3\n        /* \"#utility.yul\":19166:19167   */\n      0x02\n        /* \"#utility.yul\":19162:19173   */\n      mul\n        /* \"#utility.yul\":19156:19160   */\n      dup3\n        /* \"#utility.yul\":19153:19174   */\n      or\n        /* \"#utility.yul\":19145:19174   */\n      swap1\n      pop\n        /* \"#utility.yul\":18885:19180   */\n      swap3\n      swap2\n      pop\n      pop\n      jump\t// out\n        /* \"#utility.yul\":19185:20580   */\n    tag_126:\n        /* \"#utility.yul\":19302:19339   */\n      tag_383\n        /* \"#utility.yul\":19335:19338   */\n      dup3\n        /* \"#utility.yul\":19302:19339   */\n      tag_147\n      jump\t// in\n    tag_383:\n        /* \"#utility.yul\":19404:19422   */\n      0xffffffffffffffff\n        /* \"#utility.yul\":19396:19402   */\n      dup2\n        /* \"#utility.yul\":19393:19423   */\n      gt\n        /* \"#utility.yul\":19390:19446   */\n      iszero\n      tag_384\n      jumpi\n        /* \"#utility.yul\":19426:19444   */\n      tag_385\n      tag_59\n      jump\t// in\n    tag_385:\n        /* \"#utility.yul\":19390:19446   */\n    tag_384:\n        /* \"#utility.yul\":19470:19508   */\n      tag_386\n        /* \"#utility.yul\":19502:19506   */\n      dup3\n        /* \"#utility.yul\":19496:19507   */\n      sload\n        /* \"#utility.yul\":19470:19508   */\n      tag_70\n      jump\t// in\n    tag_386:\n        /* \"#utility.yul\":19555:19622   */\n      tag_387\n        /* \"#utility.yul\":19615:19621   */\n      dup3\n        /* \"#utility.yul\":19607:19613   */\n      dup3\n        /* \"#utility.yul\":19601:19605   */\n      dup6\n        /* \"#utility.yul\":19555:19622   */\n      tag_184\n      jump\t// in\n    tag_387:\n        /* \"#utility.yul\":19649:19650   */\n      0x00\n        /* \"#utility.yul\":19673:19677   */\n      0x20\n        /* \"#utility.yul\":19660:19677   */\n      swap1\n      pop\n        /* \"#utility.yul\":19705:19707   */\n      0x1f\n        /* \"#utility.yul\":19697:19703   */\n      dup4\n        /* \"#utility.yul\":19694:19708   */\n      gt\n        /* \"#utility.yul\":19722:19723   */\n      0x01\n        /* \"#utility.yul\":19717:20335   */\n      dup2\n      eq\n      tag_389\n      jumpi\n        /* \"#utility.yul\":20379:20380   */\n      0x00\n        /* \"#utility.yul\":20396:20402   */\n      dup5\n        /* \"#utility.yul\":20393:20470   */\n      iszero\n      tag_390\n      jumpi\n        /* \"#utility.yul\":20445:20454   */\n      dup3\n        /* \"#utility.yul\":20440:20443   */\n      dup8\n        /* \"#utility.yul\":20436:20455   */\n      add\n        /* \"#utility.yul\":20430:20456   */\n      mload\n        /* \"#utility.yul\":20421:20456   */\n      swap1\n      pop\n        /* \"#utility.yul\":20393:20470   */\n    tag_390:\n        /* \"#utility.yul\":20496:20563   */\n      tag_391\n        /* \"#utility.yul\":20556:20562   */\n      dup6\n        /* \"#utility.yul\":20549:20554   */\n      dup3\n        /* \"#utility.yul\":20496:20563   */\n      tag_187\n      jump\t// in\n    tag_391:\n        /* \"#utility.yul\":20490:20494   */\n      dup7\n        /* \"#utility.yul\":20483:20564   */\n      sstore\n        /* \"#utility.yul\":20352:20574   */\n      pop\n        /* \"#utility.yul\":19687:20574   */\n      jump(tag_388)\n        /* \"#utility.yul\":19717:20335   */\n    tag_389:\n        /* \"#utility.yul\":19769:19773   */\n      0x1f\n        /* \"#utility.yul\":19765:19774   */\n      not\n        /* \"#utility.yul\":19757:19763   */\n      dup5\n        /* \"#utility.yul\":19753:19775   */\n      and\n        /* \"#utility.yul\":19803:19840   */\n      tag_392\n        /* \"#utility.yul\":19835:19839   */\n      dup7\n        /* \"#utility.yul\":19803:19840   */\n      tag_173\n      jump\t// in\n    tag_392:\n        /* \"#utility.yul\":19862:19863   */\n      0x00\n        /* \"#utility.yul\":19876:20084   */\n    tag_393:\n        /* \"#utility.yul\":19890:19897   */\n      dup3\n        /* \"#utility.yul\":19887:19888   */\n      dup2\n        /* \"#utility.yul\":19884:19898   */\n      lt\n        /* \"#utility.yul\":19876:20084   */\n      iszero\n      tag_395\n      jumpi\n        /* \"#utility.yul\":19969:19978   */\n      dup5\n        /* \"#utility.yul\":19964:19967   */\n      dup10\n        /* \"#utility.yul\":19960:19979   */\n      add\n        /* \"#utility.yul\":19954:19980   */\n      mload\n        /* \"#utility.yul\":19946:19952   */\n      dup3\n        /* \"#utility.yul\":19939:19981   */\n      sstore\n        /* \"#utility.yul\":20020:20021   */\n      0x01\n        /* \"#utility.yul\":20012:20018   */\n      dup3\n        /* \"#utility.yul\":20008:20022   */\n      add\n        /* \"#utility.yul\":19998:20022   */\n      swap2\n      pop\n        /* \"#utility.yul\":20067:20069   */\n      0x20\n        /* \"#utility.yul\":20056:20065   */\n      dup6\n        /* \"#utility.yul\":20052:20070   */\n      add\n        /* \"#utility.yul\":20039:20070   */\n      swap5\n      pop\n        /* \"#utility.yul\":19913:19917   */\n      0x20\n        /* \"#utility.yul\":19910:19911   */\n      dup2\n        /* \"#utility.yul\":19906:19918   */\n      add\n        /* \"#utility.yul\":19901:19918   */\n      swap1\n      pop\n        /* \"#utility.yul\":19876:20084   */\n      jump(tag_393)\n    tag_395:\n        /* \"#utility.yul\":20112:20118   */\n      dup7\n        /* \"#utility.yul\":20103:20110   */\n      dup4\n        /* \"#utility.yul\":20100:20119   */\n      lt\n        /* \"#utility.yul\":20097:20276   */\n      iszero\n      tag_396\n      jumpi\n        /* \"#utility.yul\":20170:20179   */\n      dup5\n        /* \"#utility.yul\":20165:20168   */\n      dup10\n        /* \"#utility.yul\":20161:20180   */\n      add\n        /* \"#utility.yul\":20155:20181   */\n      mload\n        /* \"#utility.yul\":20213:20261   */\n      tag_397\n        /* \"#utility.yul\":20255:20259   */\n      0x1f\n        /* \"#utility.yul\":20247:20253   */\n      dup10\n        /* \"#utility.yul\":20243:20260   */\n      and\n        /* \"#utility.yul\":20232:20241   */\n      dup3\n        /* \"#utility.yul\":20213:20261   */\n      tag_186\n      jump\t// in\n    tag_397:\n        /* \"#utility.yul\":20205:20211   */\n      dup4\n        /* \"#utility.yul\":20198:20262   */\n      sstore\n        /* \"#utility.yul\":20120:20276   */\n      pop\n        /* \"#utility.yul\":20097:20276   */\n    tag_396:\n        /* \"#utility.yul\":20322:20323   */\n      0x01\n        /* \"#utility.yul\":20318:20319   */\n      0x02\n        /* \"#utility.yul\":20310:20316   */\n      dup9\n        /* \"#utility.yul\":20306:20320   */\n      mul\n        /* \"#utility.yul\":20302:20324   */\n      add\n        /* \"#utility.yul\":20296:20300   */\n      dup9\n        /* \"#utility.yul\":20289:20325   */\n      sstore\n        /* \"#utility.yul\":19724:20335   */\n      pop\n      pop\n      pop\n        /* \"#utility.yul\":19687:20574   */\n    tag_388:\n      pop\n        /* \"#utility.yul\":19277:20580   */\n      pop\n      pop\n      pop\n        /* \"#utility.yul\":19185:20580   */\n      pop\n      pop\n      jump\t// out\n\n    auxdata: 0xa2646970667358221220b63b5455e6f570456e4747b12c704dcbcff0302a493d4749e981b02e542f246264736f6c63430008120033\n}\n",
				"bytecode": {
					"linkReferences": {},
					"object": "608060405234801561001057600080fd5b506116c4806100206000396000f3fe608060405234801561001057600080fd5b50600436106100935760003560e01c8063d21d159611610066578063d21d159614610130578063eb2eb2b21461014c578063f5255cd814610168578063fb46d4c514610184578063ff9913e8146101a057610093565b80634dbf27cc146100985780634dc0a687146100b45780635284b64a146100e4578063a9ed9cb814610114575b600080fd5b6100b260048036038101906100ad9190610c17565b6101bc565b005b6100ce60048036038101906100c99190610c7a565b61025f565b6040516100db9190610e7a565b60405180910390f35b6100fe60048036038101906100f99190610e9c565b610477565b60405161010b9190610e7a565b60405180910390f35b61012e60048036038101906101299190610c17565b61078c565b005b61014a60048036038101906101459190611011565b610824565b005b6101666004803603810190610161919061106d565b610832565b005b610182600480360381019061017d91906110dc565b610842565b005b61019e60048036038101906101999190611138565b610851565b005b6101ba60048036038101906101b59190610c17565b61085e565b005b600460003373ffffffffffffffffffffffffffffffffffffffff1673ffffffffffffffffffffffffffffffffffffffff168152602001908152602001600020819080600181540180825580915050600190039060005260206000200160009091909190916101000a81548173ffffffffffffffffffffffffffffffffffffffff021916908373ffffffffffffffffffffffffffffffffffffffff16021790555050565b6060600082118015610272575060055482105b6102b1576040517f08c379a00000000000000000000000000000000000000000000000000000000081526004016102a8906111de565b60405180910390fd5b60008267ffffffffffffffff8111156102cd576102cc610ee6565b5b60405190808252806020026020018201604052801561030657816020015b6102f3610b67565b8152602001906001900390816102eb5790505b5090506000808460055461031a919061122d565b90505b60055481101561046c57600080600083815260200190815260200160002090506040518060800160405280826000015481526020018260010160009054906101000a900473ffffffffffffffffffffffffffffffffffffffff1673ffffffffffffffffffffffffffffffffffffffff1681526020018260020180546103a190611290565b80601f01602080910402602001604051908101604052809291908181526020018280546103cd90611290565b801561041a5780601f106103ef5761010080835404028352916020019161041a565b820191906000526020600020905b8154815290600101906020018083116103fd57829003601f168201915b50505050508152602001826003015481525084848151811061043f5761043e6112c1565b5b60200260200101819052508280610455906112f0565b935050508080610464906112f0565b91505061031d565b508192505050919050565b606060008211801561048b57506005548211155b6104ca576040517f08c379a00000000000000000000000000000000000000000000000000000000081526004016104c190611384565b60405180910390fd5b60008267ffffffffffffffff8111156104e6576104e5610ee6565b5b60405190808252806020026020018201604052801561051f57816020015b61050c610b67565b8152602001906001900390816105045790505b5090506000600160008673ffffffffffffffffffffffffffffffffffffffff1673ffffffffffffffffffffffffffffffffffffffff1681526020019081526020016000208054806020026020016040519081016040528092919081815260200182805480156105ad57602002820191906000526020600020905b815481526020019060010190808311610599575b505050505090506000841180156105c5575080518411155b610604576040517f08c379a00000000000000000000000000000000000000000000000000000000081526004016105fb906113f0565b60405180910390fd5b600080858351610614919061122d565b90505b825181101561077f576000806000858481518110610638576106376112c1565b5b6020026020010151815260200190815260200160002090506040518060800160405280826000015481526020018260010160009054906101000a900473ffffffffffffffffffffffffffffffffffffffff1673ffffffffffffffffffffffffffffffffffffffff1681526020018260020180546106b490611290565b80601f01602080910402602001604051908101604052809291908181526020018280546106e090611290565b801561072d5780601f106107025761010080835404028352916020019161072d565b820191906000526020600020905b81548152906001019060200180831161071057829003601f168201915b505050505081526020018260030154815250858481518110610752576107516112c1565b5b60200260200101819052508280610768906112f0565b935050508080610777906112f0565b915050610617565b5082935050505092915050565b6000600360003373ffffffffffffffffffffffffffffffffffffffff1673ffffffffffffffffffffffffffffffffffffffff16815260200190815260200160002060008373ffffffffffffffffffffffffffffffffffffffff1673ffffffffffffffffffffffffffffffffffffffff16815260200190815260200160002060006101000a81548160ff02191690831515021790555050565b61082e82826108f6565b5050565b61083d8383836109d3565b505050565b61084d3382846109d3565b5050565b61085b33826108f6565b50565b6001600360003373ffffffffffffffffffffffffffffffffffffffff1673ffffffffffffffffffffffffffffffffffffffff16815260200190815260200160002060008373ffffffffffffffffffffffffffffffffffffffff1673ffffffffffffffffffffffffffffffffffffffff16815260200190815260200160002060006101000a81548160ff02191690831515021790555050565b604051806080016040528060055481526020018373ffffffffffffffffffffffffffffffffffffffff1681526020018281526020014281525060008060055481526020019081526020016000206000820151816000015560208201518160010160006101000a81548173ffffffffffffffffffffffffffffffffffffffff021916908373ffffffffffffffffffffffffffffffffffffffff16021790555060408201518160020190816109a991906115bc565b5060608201518160030155905050600560008154809291906109ca906112f0565b91905055505050565b600260008473ffffffffffffffffffffffffffffffffffffffff1673ffffffffffffffffffffffffffffffffffffffff1681526020019081526020016000206040518060a0016040528060065481526020018381526020018573ffffffffffffffffffffffffffffffffffffffff1681526020018473ffffffffffffffffffffffffffffffffffffffff168152602001428152509080600181540180825580915050600190039060005260206000209060050201600090919091909150600082015181600001556020820151816001019081610aaf91906115bc565b5060408201518160020160006101000a81548173ffffffffffffffffffffffffffffffffffffffff021916908373ffffffffffffffffffffffffffffffffffffffff16021790555060608201518160030160006101000a81548173ffffffffffffffffffffffffffffffffffffffff021916908373ffffffffffffffffffffffffffffffffffffffff16021790555060808201518160040155505060066000815480929190610b5d906112f0565b9190505550505050565b604051806080016040528060008152602001600073ffffffffffffffffffffffffffffffffffffffff16815260200160608152602001600081525090565b6000604051905090565b600080fd5b600080fd5b600073ffffffffffffffffffffffffffffffffffffffff82169050919050565b6000610be482610bb9565b9050919050565b610bf481610bd9565b8114610bff57600080fd5b50565b600081359050610c1181610beb565b92915050565b600060208284031215610c2d57610c2c610baf565b5b6000610c3b84828501610c02565b91505092915050565b6000819050919050565b610c5781610c44565b8114610c6257600080fd5b50565b600081359050610c7481610c4e565b92915050565b600060208284031215610c9057610c8f610baf565b5b6000610c9e84828501610c65565b91505092915050565b600081519050919050565b600082825260208201905092915050565b6000819050602082019050919050565b610cdc81610c44565b82525050565b610ceb81610bd9565b82525050565b600081519050919050565b600082825260208201905092915050565b60005b83811015610d2b578082015181840152602081019050610d10565b60008484015250505050565b6000601f19601f8301169050919050565b6000610d5382610cf1565b610d5d8185610cfc565b9350610d6d818560208601610d0d565b610d7681610d37565b840191505092915050565b6000608083016000830151610d996000860182610cd3565b506020830151610dac6020860182610ce2565b5060408301518482036040860152610dc48282610d48565b9150506060830151610dd96060860182610cd3565b508091505092915050565b6000610df08383610d81565b905092915050565b6000602082019050919050565b6000610e1082610ca7565b610e1a8185610cb2565b935083602082028501610e2c85610cc3565b8060005b85811015610e685784840389528151610e498582610de4565b9450610e5483610df8565b925060208a01995050600181019050610e30565b50829750879550505050505092915050565b60006020820190508181036000830152610e948184610e05565b905092915050565b60008060408385031215610eb357610eb2610baf565b5b6000610ec185828601610c02565b9250506020610ed285828601610c65565b9150509250929050565b600080fd5b600080fd5b7f4e487b7100000000000000000000000000000000000000000000000000000000600052604160045260246000fd5b610f1e82610d37565b810181811067ffffffffffffffff82111715610f3d57610f3c610ee6565b5b80604052505050565b6000610f50610ba5565b9050610f5c8282610f15565b919050565b600067ffffffffffffffff821115610f7c57610f7b610ee6565b5b610f8582610d37565b9050602081019050919050565b82818337600083830152505050565b6000610fb4610faf84610f61565b610f46565b905082815260208101848484011115610fd057610fcf610ee1565b5b610fdb848285610f92565b509392505050565b600082601f830112610ff857610ff7610edc565b5b8135611008848260208601610fa1565b91505092915050565b6000806040838503121561102857611027610baf565b5b600061103685828601610c02565b925050602083013567ffffffffffffffff81111561105757611056610bb4565b5b61106385828601610fe3565b9150509250929050565b60008060006060848603121561108657611085610baf565b5b600061109486828701610c02565b93505060206110a586828701610c02565b925050604084013567ffffffffffffffff8111156110c6576110c5610bb4565b5b6110d286828701610fe3565b9150509250925092565b600080604083850312156110f3576110f2610baf565b5b600083013567ffffffffffffffff81111561111157611110610bb4565b5b61111d85828601610fe3565b925050602061112e85828601610c02565b9150509250929050565b60006020828403121561114e5761114d610baf565b5b600082013567ffffffffffffffff81111561116c5761116b610bb4565b5b61117884828501610fe3565b91505092915050565b600082825260208201905092915050565b7f636f756e74206973206e6f742070726f70657200000000000000000000000000600082015250565b60006111c8601383611181565b91506111d382611192565b602082019050919050565b600060208201905081810360008301526111f7816111bb565b9050919050565b7f4e487b7100000000000000000000000000000000000000000000000000000000600052601160045260246000fd5b600061123882610c44565b915061124383610c44565b925082820390508181111561125b5761125a6111fe565b5b92915050565b7f4e487b7100000000000000000000000000000000000000000000000000000000600052602260045260246000fd5b600060028204905060018216806112a857607f821691505b6020821081036112bb576112ba611261565b5b50919050565b7f4e487b7100000000000000000000000000000000000000000000000000000000600052603260045260246000fd5b60006112fb82610c44565b91507fffffffffffffffffffffffffffffffffffffffffffffffffffffffffffffffff820361132d5761132c6111fe565b5b600182019050919050565b7f636f756e74206973206e6f7420646566696e6500000000000000000000000000600082015250565b600061136e601383611181565b915061137982611338565b602082019050919050565b6000602082019050818103600083015261139d81611361565b9050919050565b7f636f756e74206973206e6f742070726f7065726c7920646566696e6500000000600082015250565b60006113da601c83611181565b91506113e5826113a4565b602082019050919050565b60006020820190508181036000830152611409816113cd565b9050919050565b60008190508160005260206000209050919050565b60006020601f8301049050919050565b600082821b905092915050565b6000600883026114727fffffffffffffffffffffffffffffffffffffffffffffffffffffffffffffffff82611435565b61147c8683611435565b95508019841693508086168417925050509392505050565b6000819050919050565b60006114b96114b46114af84610c44565b611494565b610c44565b9050919050565b6000819050919050565b6114d38361149e565b6114e76114df826114c0565b848454611442565b825550505050565b600090565b6114fc6114ef565b6115078184846114ca565b505050565b5b8181101561152b576115206000826114f4565b60018101905061150d565b5050565b601f8211156115705761154181611410565b61154a84611425565b81016020851015611559578190505b61156d61156585611425565b83018261150c565b50505b505050565b600082821c905092915050565b600061159360001984600802611575565b1980831691505092915050565b60006115ac8383611582565b9150826002028217905092915050565b6115c582610cf1565b67ffffffffffffffff8111156115de576115dd610ee6565b5b6115e88254611290565b6115f382828561152f565b600060209050601f8311600181146116265760008415611614578287015190505b61161e85826115a0565b865550611686565b601f19841661163486611410565b60005b8281101561165c57848901518255600182019150602085019450602081019050611637565b868310156116795784890151611675601f891682611582565b8355505b6001600288020188555050505b50505050505056fea2646970667358221220b63b5455e6f570456e4747b12c704dcbcff0302a493d4749e981b02e542f246264736f6c63430008120033",
					"opcodes": "PUSH1 0x80 PUSH1 0x40 MSTORE CALLVALUE DUP1 ISZERO PUSH2 0x10 JUMPI PUSH1 0x0 DUP1 REVERT JUMPDEST POP PUSH2 0x16C4 DUP1 PUSH2 0x20 PUSH1 0x0 CODECOPY PUSH1 0x0 RETURN INVALID PUSH1 0x80 PUSH1 0x40 MSTORE CALLVALUE DUP1 ISZERO PUSH2 0x10 JUMPI PUSH1 0x0 DUP1 REVERT JUMPDEST POP PUSH1 0x4 CALLDATASIZE LT PUSH2 0x93 JUMPI PUSH1 0x0 CALLDATALOAD PUSH1 0xE0 SHR DUP1 PUSH4 0xD21D1596 GT PUSH2 0x66 JUMPI DUP1 PUSH4 0xD21D1596 EQ PUSH2 0x130 JUMPI DUP1 PUSH4 0xEB2EB2B2 EQ PUSH2 0x14C JUMPI DUP1 PUSH4 0xF5255CD8 EQ PUSH2 0x168 JUMPI DUP1 PUSH4 0xFB46D4C5 EQ PUSH2 0x184 JUMPI DUP1 PUSH4 0xFF9913E8 EQ PUSH2 0x1A0 JUMPI PUSH2 0x93 JUMP JUMPDEST DUP1 PUSH4 0x4DBF27CC EQ PUSH2 0x98 JUMPI DUP1 PUSH4 0x4DC0A687 EQ PUSH2 0xB4 JUMPI DUP1 PUSH4 0x5284B64A EQ PUSH2 0xE4 JUMPI DUP1 PUSH4 0xA9ED9CB8 EQ PUSH2 0x114 JUMPI JUMPDEST PUSH1 0x0 DUP1 REVERT JUMPDEST PUSH2 0xB2 PUSH1 0x4 DUP1 CALLDATASIZE SUB DUP2 ADD SWAP1 PUSH2 0xAD SWAP2 SWAP1 PUSH2 0xC17 JUMP JUMPDEST PUSH2 0x1BC JUMP JUMPDEST STOP JUMPDEST PUSH2 0xCE PUSH1 0x4 DUP1 CALLDATASIZE SUB DUP2 ADD SWAP1 PUSH2 0xC9 SWAP2 SWAP1 PUSH2 0xC7A JUMP JUMPDEST PUSH2 0x25F JUMP JUMPDEST PUSH1 0x40 MLOAD PUSH2 0xDB SWAP2 SWAP1 PUSH2 0xE7A JUMP JUMPDEST PUSH1 0x40 MLOAD DUP1 SWAP2 SUB SWAP1 RETURN JUMPDEST PUSH2 0xFE PUSH1 0x4 DUP1 CALLDATASIZE SUB DUP2 ADD SWAP1 PUSH2 0xF9 SWAP2 SWAP1 PUSH2 0xE9C JUMP JUMPDEST PUSH2 0x477 JUMP JUMPDEST PUSH1 0x40 MLOAD PUSH2 0x10B SWAP2 SWAP1 PUSH2 0xE7A JUMP JUMPDEST PUSH1 0x40 MLOAD DUP1 SWAP2 SUB SWAP1 RETURN JUMPDEST PUSH2 0x12E PUSH1 0x4 DUP1 CALLDATASIZE SUB DUP2 ADD SWAP1 PUSH2 0x129 SWAP2 SWAP1 PUSH2 0xC17 JUMP JUMPDEST PUSH2 0x78C JUMP JUMPDEST STOP JUMPDEST PUSH2 0x14A PUSH1 0x4 DUP1 CALLDATASIZE SUB DUP2 ADD SWAP1 PUSH2 0x145 SWAP2 SWAP1 PUSH2 0x1011 JUMP JUMPDEST PUSH2 0x824 JUMP JUMPDEST STOP JUMPDEST PUSH2 0x166 PUSH1 0x4 DUP1 CALLDATASIZE SUB DUP2 ADD SWAP1 PUSH2 0x161 SWAP2 SWAP1 PUSH2 0x106D JUMP JUMPDEST PUSH2 0x832 JUMP JUMPDEST STOP JUMPDEST PUSH2 0x182 PUSH1 0x4 DUP1 CALLDATASIZE SUB DUP2 ADD SWAP1 PUSH2 0x17D SWAP2 SWAP1 PUSH2 0x10DC JUMP JUMPDEST PUSH2 0x842 JUMP JUMPDEST STOP JUMPDEST PUSH2 0x19E PUSH1 0x4 DUP1 CALLDATASIZE SUB DUP2 ADD SWAP1 PUSH2 0x199 SWAP2 SWAP1 PUSH2 0x1138 JUMP JUMPDEST PUSH2 0x851 JUMP JUMPDEST STOP JUMPDEST PUSH2 0x1BA PUSH1 0x4 DUP1 CALLDATASIZE SUB DUP2 ADD SWAP1 PUSH2 0x1B5 SWAP2 SWAP1 PUSH2 0xC17 JUMP JUMPDEST PUSH2 0x85E JUMP JUMPDEST STOP JUMPDEST PUSH1 0x4 PUSH1 0x0 CALLER PUSH20 0xFFFFFFFFFFFFFFFFFFFFFFFFFFFFFFFFFFFFFFFF AND PUSH20 0xFFFFFFFFFFFFFFFFFFFFFFFFFFFFFFFFFFFFFFFF AND DUP2 MSTORE PUSH1 0x20 ADD SWAP1 DUP2 MSTORE PUSH1 0x20 ADD PUSH1 0x0 KECCAK256 DUP2 SWAP1 DUP1 PUSH1 0x1 DUP2 SLOAD ADD DUP1 DUP3 SSTORE DUP1 SWAP2 POP POP PUSH1 0x1 SWAP1 SUB SWAP1 PUSH1 0x0 MSTORE PUSH1 0x20 PUSH1 0x0 KECCAK256 ADD PUSH1 0x0 SWAP1 SWAP2 SWAP1 SWAP2 SWAP1 SWAP2 PUSH2 0x100 EXP DUP2 SLOAD DUP2 PUSH20 0xFFFFFFFFFFFFFFFFFFFFFFFFFFFFFFFFFFFFFFFF MUL NOT AND SWAP1 DUP4 PUSH20 0xFFFFFFFFFFFFFFFFFFFFFFFFFFFFFFFFFFFFFFFF AND MUL OR SWAP1 SSTORE POP POP JUMP JUMPDEST PUSH1 0x60 PUSH1 0x0 DUP3 GT DUP1 ISZERO PUSH2 0x272 JUMPI POP PUSH1 0x5 SLOAD DUP3 LT JUMPDEST PUSH2 0x2B1 JUMPI PUSH1 0x40 MLOAD PUSH32 0x8C379A000000000000000000000000000000000000000000000000000000000 DUP2 MSTORE PUSH1 0x4 ADD PUSH2 0x2A8 SWAP1 PUSH2 0x11DE JUMP JUMPDEST PUSH1 0x40 MLOAD DUP1 SWAP2 SUB SWAP1 REVERT JUMPDEST PUSH1 0x0 DUP3 PUSH8 0xFFFFFFFFFFFFFFFF DUP2 GT ISZERO PUSH2 0x2CD JUMPI PUSH2 0x2CC PUSH2 0xEE6 JUMP JUMPDEST JUMPDEST PUSH1 0x40 MLOAD SWAP1 DUP1 DUP3 MSTORE DUP1 PUSH1 0x20 MUL PUSH1 0x20 ADD DUP3 ADD PUSH1 0x40 MSTORE DUP1 ISZERO PUSH2 0x306 JUMPI DUP2 PUSH1 0x20 ADD JUMPDEST PUSH2 0x2F3 PUSH2 0xB67 JUMP JUMPDEST DUP2 MSTORE PUSH1 0x20 ADD SWAP1 PUSH1 0x1 SWAP1 SUB SWAP1 DUP2 PUSH2 0x2EB JUMPI SWAP1 POP JUMPDEST POP SWAP1 POP PUSH1 0x0 DUP1 DUP5 PUSH1 0x5 SLOAD PUSH2 0x31A SWAP2 SWAP1 PUSH2 0x122D JUMP JUMPDEST SWAP1 POP JUMPDEST PUSH1 0x5 SLOAD DUP2 LT ISZERO PUSH2 0x46C JUMPI PUSH1 0x0 DUP1 PUSH1 0x0 DUP4 DUP2 MSTORE PUSH1 0x20 ADD SWAP1 DUP2 MSTORE PUSH1 0x20 ADD PUSH1 0x0 KECCAK256 SWAP1 POP PUSH1 0x40 MLOAD DUP1 PUSH1 0x80 ADD PUSH1 0x40 MSTORE DUP1 DUP3 PUSH1 0x0 ADD SLOAD DUP2 MSTORE PUSH1 0x20 ADD DUP3 PUSH1 0x1 ADD PUSH1 0x0 SWAP1 SLOAD SWAP1 PUSH2 0x100 EXP SWAP1 DIV PUSH20 0xFFFFFFFFFFFFFFFFFFFFFFFFFFFFFFFFFFFFFFFF AND PUSH20 0xFFFFFFFFFFFFFFFFFFFFFFFFFFFFFFFFFFFFFFFF AND DUP2 MSTORE PUSH1 0x20 ADD DUP3 PUSH1 0x2 ADD DUP1 SLOAD PUSH2 0x3A1 SWAP1 PUSH2 0x1290 JUMP JUMPDEST DUP1 PUSH1 0x1F ADD PUSH1 0x20 DUP1 SWAP2 DIV MUL PUSH1 0x20 ADD PUSH1 0x40 MLOAD SWAP1 DUP2 ADD PUSH1 0x40 MSTORE DUP1 SWAP3 SWAP2 SWAP1 DUP2 DUP2 MSTORE PUSH1 0x20 ADD DUP3 DUP1 SLOAD PUSH2 0x3CD SWAP1 PUSH2 0x1290 JUMP JUMPDEST DUP1 ISZERO PUSH2 0x41A JUMPI DUP1 PUSH1 0x1F LT PUSH2 0x3EF JUMPI PUSH2 0x100 DUP1 DUP4 SLOAD DIV MUL DUP4 MSTORE SWAP2 PUSH1 0x20 ADD SWAP2 PUSH2 0x41A JUMP JUMPDEST DUP3 ADD SWAP2 SWAP1 PUSH1 0x0 MSTORE PUSH1 0x20 PUSH1 0x0 KECCAK256 SWAP1 JUMPDEST DUP2 SLOAD DUP2 MSTORE SWAP1 PUSH1 0x1 ADD SWAP1 PUSH1 0x20 ADD DUP1 DUP4 GT PUSH2 0x3FD JUMPI DUP3 SWAP1 SUB PUSH1 0x1F AND DUP3 ADD SWAP2 JUMPDEST POP POP POP POP POP DUP2 MSTORE PUSH1 0x20 ADD DUP3 PUSH1 0x3 ADD SLOAD DUP2 MSTORE POP DUP5 DUP5 DUP2 MLOAD DUP2 LT PUSH2 0x43F JUMPI PUSH2 0x43E PUSH2 0x12C1 JUMP JUMPDEST JUMPDEST PUSH1 0x20 MUL PUSH1 0x20 ADD ADD DUP2 SWAP1 MSTORE POP DUP3 DUP1 PUSH2 0x455 SWAP1 PUSH2 0x12F0 JUMP JUMPDEST SWAP4 POP POP POP DUP1 DUP1 PUSH2 0x464 SWAP1 PUSH2 0x12F0 JUMP JUMPDEST SWAP2 POP POP PUSH2 0x31D JUMP JUMPDEST POP DUP2 SWAP3 POP POP POP SWAP2 SWAP1 POP JUMP JUMPDEST PUSH1 0x60 PUSH1 0x0 DUP3 GT DUP1 ISZERO PUSH2 0x48B JUMPI POP PUSH1 0x5 SLOAD DUP3 GT ISZERO JUMPDEST PUSH2 0x4CA JUMPI PUSH1 0x40 MLOAD PUSH32 0x8C379A000000000000000000000000000000000000000000000000000000000 DUP2 MSTORE PUSH1 0x4 ADD PUSH2 0x4C1 SWAP1 PUSH2 0x1384 JUMP JUMPDEST PUSH1 0x40 MLOAD DUP1 SWAP2 SUB SWAP1 REVERT JUMPDEST PUSH1 0x0 DUP3 PUSH8 0xFFFFFFFFFFFFFFFF DUP2 GT ISZERO PUSH2 0x4E6 JUMPI PUSH2 0x4E5 PUSH2 0xEE6 JUMP JUMPDEST JUMPDEST PUSH1 0x40 MLOAD SWAP1 DUP1 DUP3 MSTORE DUP1 PUSH1 0x20 MUL PUSH1 0x20 ADD DUP3 ADD PUSH1 0x40 MSTORE DUP1 ISZERO PUSH2 0x51F JUMPI DUP2 PUSH1 0x20 ADD JUMPDEST PUSH2 0x50C PUSH2 0xB67 JUMP JUMPDEST DUP2 MSTORE PUSH1 0x20 ADD SWAP1 PUSH1 0x1 SWAP1 SUB SWAP1 DUP2 PUSH2 0x504 JUMPI SWAP1 POP JUMPDEST POP SWAP1 POP PUSH1 0x0 PUSH1 0x1 PUSH1 0x0 DUP7 PUSH20 0xFFFFFFFFFFFFFFFFFFFFFFFFFFFFFFFFFFFFFFFF AND PUSH20 0xFFFFFFFFFFFFFFFFFFFFFFFFFFFFFFFFFFFFFFFF AND DUP2 MSTORE PUSH1 0x20 ADD SWAP1 DUP2 MSTORE PUSH1 0x20 ADD PUSH1 0x0 KECCAK256 DUP1 SLOAD DUP1 PUSH1 0x20 MUL PUSH1 0x20 ADD PUSH1 0x40 MLOAD SWAP1 DUP2 ADD PUSH1 0x40 MSTORE DUP1 SWAP3 SWAP2 SWAP1 DUP2 DUP2 MSTORE PUSH1 0x20 ADD DUP3 DUP1 SLOAD DUP1 ISZERO PUSH2 0x5AD JUMPI PUSH1 0x20 MUL DUP3 ADD SWAP2 SWAP1 PUSH1 0x0 MSTORE PUSH1 0x20 PUSH1 0x0 KECCAK256 SWAP1 JUMPDEST DUP2 SLOAD DUP2 MSTORE PUSH1 0x20 ADD SWAP1 PUSH1 0x1 ADD SWAP1 DUP1 DUP4 GT PUSH2 0x599 JUMPI JUMPDEST POP POP POP POP POP SWAP1 POP PUSH1 0x0 DUP5 GT DUP1 ISZERO PUSH2 0x5C5 JUMPI POP DUP1 MLOAD DUP5 GT ISZERO JUMPDEST PUSH2 0x604 JUMPI PUSH1 0x40 MLOAD PUSH32 0x8C379A000000000000000000000000000000000000000000000000000000000 DUP2 MSTORE PUSH1 0x4 ADD PUSH2 0x5FB SWAP1 PUSH2 0x13F0 JUMP JUMPDEST PUSH1 0x40 MLOAD DUP1 SWAP2 SUB SWAP1 REVERT JUMPDEST PUSH1 0x0 DUP1 DUP6 DUP4 MLOAD PUSH2 0x614 SWAP2 SWAP1 PUSH2 0x122D JUMP JUMPDEST SWAP1 POP JUMPDEST DUP3 MLOAD DUP2 LT ISZERO PUSH2 0x77F JUMPI PUSH1 0x0 DUP1 PUSH1 0x0 DUP6 DUP5 DUP2 MLOAD DUP2 LT PUSH2 0x638 JUMPI PUSH2 0x637 PUSH2 0x12C1 JUMP JUMPDEST JUMPDEST PUSH1 0x20 MUL PUSH1 0x20 ADD ADD MLOAD DUP2 MSTORE PUSH1 0x20 ADD SWAP1 DUP2 MSTORE PUSH1 0x20 ADD PUSH1 0x0 KECCAK256 SWAP1 POP PUSH1 0x40 MLOAD DUP1 PUSH1 0x80 ADD PUSH1 0x40 MSTORE DUP1 DUP3 PUSH1 0x0 ADD SLOAD DUP2 MSTORE PUSH1 0x20 ADD DUP3 PUSH1 0x1 ADD PUSH1 0x0 SWAP1 SLOAD SWAP1 PUSH2 0x100 EXP SWAP1 DIV PUSH20 0xFFFFFFFFFFFFFFFFFFFFFFFFFFFFFFFFFFFFFFFF AND PUSH20 0xFFFFFFFFFFFFFFFFFFFFFFFFFFFFFFFFFFFFFFFF AND DUP2 MSTORE PUSH1 0x20 ADD DUP3 PUSH1 0x2 ADD DUP1 SLOAD PUSH2 0x6B4 SWAP1 PUSH2 0x1290 JUMP JUMPDEST DUP1 PUSH1 0x1F ADD PUSH1 0x20 DUP1 SWAP2 DIV MUL PUSH1 0x20 ADD PUSH1 0x40 MLOAD SWAP1 DUP2 ADD PUSH1 0x40 MSTORE DUP1 SWAP3 SWAP2 SWAP1 DUP2 DUP2 MSTORE PUSH1 0x20 ADD DUP3 DUP1 SLOAD PUSH2 0x6E0 SWAP1 PUSH2 0x1290 JUMP JUMPDEST DUP1 ISZERO PUSH2 0x72D JUMPI DUP1 PUSH1 0x1F LT PUSH2 0x702 JUMPI PUSH2 0x100 DUP1 DUP4 SLOAD DIV MUL DUP4 MSTORE SWAP2 PUSH1 0x20 ADD SWAP2 PUSH2 0x72D JUMP JUMPDEST DUP3 ADD SWAP2 SWAP1 PUSH1 0x0 MSTORE PUSH1 0x20 PUSH1 0x0 KECCAK256 SWAP1 JUMPDEST DUP2 SLOAD DUP2 MSTORE SWAP1 PUSH1 0x1 ADD SWAP1 PUSH1 0x20 ADD DUP1 DUP4 GT PUSH2 0x710 JUMPI DUP3 SWAP1 SUB PUSH1 0x1F AND DUP3 ADD SWAP2 JUMPDEST POP POP POP POP POP DUP2 MSTORE PUSH1 0x20 ADD DUP3 PUSH1 0x3 ADD SLOAD DUP2 MSTORE POP DUP6 DUP5 DUP2 MLOAD DUP2 LT PUSH2 0x752 JUMPI PUSH2 0x751 PUSH2 0x12C1 JUMP JUMPDEST JUMPDEST PUSH1 0x20 MUL PUSH1 0x20 ADD ADD DUP2 SWAP1 MSTORE POP DUP3 DUP1 PUSH2 0x768 SWAP1 PUSH2 0x12F0 JUMP JUMPDEST SWAP4 POP POP POP DUP1 DUP1 PUSH2 0x777 SWAP1 PUSH2 0x12F0 JUMP JUMPDEST SWAP2 POP POP PUSH2 0x617 JUMP JUMPDEST POP DUP3 SWAP4 POP POP POP POP SWAP3 SWAP2 POP POP JUMP JUMPDEST PUSH1 0x0 PUSH1 0x3 PUSH1 0x0 CALLER PUSH20 0xFFFFFFFFFFFFFFFFFFFFFFFFFFFFFFFFFFFFFFFF AND PUSH20 0xFFFFFFFFFFFFFFFFFFFFFFFFFFFFFFFFFFFFFFFF AND DUP2 MSTORE PUSH1 0x20 ADD SWAP1 DUP2 MSTORE PUSH1 0x20 ADD PUSH1 0x0 KECCAK256 PUSH1 0x0 DUP4 PUSH20 0xFFFFFFFFFFFFFFFFFFFFFFFFFFFFFFFFFFFFFFFF AND PUSH20 0xFFFFFFFFFFFFFFFFFFFFFFFFFFFFFFFFFFFFFFFF AND DUP2 MSTORE PUSH1 0x20 ADD SWAP1 DUP2 MSTORE PUSH1 0x20 ADD PUSH1 0x0 KECCAK256 PUSH1 0x0 PUSH2 0x100 EXP DUP2 SLOAD DUP2 PUSH1 0xFF MUL NOT AND SWAP1 DUP4 ISZERO ISZERO MUL OR SWAP1 SSTORE POP POP JUMP JUMPDEST PUSH2 0x82E DUP3 DUP3 PUSH2 0x8F6 JUMP JUMPDEST POP POP JUMP JUMPDEST PUSH2 0x83D DUP4 DUP4 DUP4 PUSH2 0x9D3 JUMP JUMPDEST POP POP POP JUMP JUMPDEST PUSH2 0x84D CALLER DUP3 DUP5 PUSH2 0x9D3 JUMP JUMPDEST POP POP JUMP JUMPDEST PUSH2 0x85B CALLER DUP3 PUSH2 0x8F6 JUMP JUMPDEST POP JUMP JUMPDEST PUSH1 0x1 PUSH1 0x3 PUSH1 0x0 CALLER PUSH20 0xFFFFFFFFFFFFFFFFFFFFFFFFFFFFFFFFFFFFFFFF AND PUSH20 0xFFFFFFFFFFFFFFFFFFFFFFFFFFFFFFFFFFFFFFFF AND DUP2 MSTORE PUSH1 0x20 ADD SWAP1 DUP2 MSTORE PUSH1 0x20 ADD PUSH1 0x0 KECCAK256 PUSH1 0x0 DUP4 PUSH20 0xFFFFFFFFFFFFFFFFFFFFFFFFFFFFFFFFFFFFFFFF AND PUSH20 0xFFFFFFFFFFFFFFFFFFFFFFFFFFFFFFFFFFFFFFFF AND DUP2 MSTORE PUSH1 0x20 ADD SWAP1 DUP2 MSTORE PUSH1 0x20 ADD PUSH1 0x0 KECCAK256 PUSH1 0x0 PUSH2 0x100 EXP DUP2 SLOAD DUP2 PUSH1 0xFF MUL NOT AND SWAP1 DUP4 ISZERO ISZERO MUL OR SWAP1 SSTORE POP POP JUMP JUMPDEST PUSH1 0x40 MLOAD DUP1 PUSH1 0x80 ADD PUSH1 0x40 MSTORE DUP1 PUSH1 0x5 SLOAD DUP2 MSTORE PUSH1 0x20 ADD DUP4 PUSH20 0xFFFFFFFFFFFFFFFFFFFFFFFFFFFFFFFFFFFFFFFF AND DUP2 MSTORE PUSH1 0x20 ADD DUP3 DUP2 MSTORE PUSH1 0x20 ADD TIMESTAMP DUP2 MSTORE POP PUSH1 0x0 DUP1 PUSH1 0x5 SLOAD DUP2 MSTORE PUSH1 0x20 ADD SWAP1 DUP2 MSTORE PUSH1 0x20 ADD PUSH1 0x0 KECCAK256 PUSH1 0x0 DUP3 ADD MLOAD DUP2 PUSH1 0x0 ADD SSTORE PUSH1 0x20 DUP3 ADD MLOAD DUP2 PUSH1 0x1 ADD PUSH1 0x0 PUSH2 0x100 EXP DUP2 SLOAD DUP2 PUSH20 0xFFFFFFFFFFFFFFFFFFFFFFFFFFFFFFFFFFFFFFFF MUL NOT AND SWAP1 DUP4 PUSH20 0xFFFFFFFFFFFFFFFFFFFFFFFFFFFFFFFFFFFFFFFF AND MUL OR SWAP1 SSTORE POP PUSH1 0x40 DUP3 ADD MLOAD DUP2 PUSH1 0x2 ADD SWAP1 DUP2 PUSH2 0x9A9 SWAP2 SWAP1 PUSH2 0x15BC JUMP JUMPDEST POP PUSH1 0x60 DUP3 ADD MLOAD DUP2 PUSH1 0x3 ADD SSTORE SWAP1 POP POP PUSH1 0x5 PUSH1 0x0 DUP2 SLOAD DUP1 SWAP3 SWAP2 SWAP1 PUSH2 0x9CA SWAP1 PUSH2 0x12F0 JUMP JUMPDEST SWAP2 SWAP1 POP SSTORE POP POP POP JUMP JUMPDEST PUSH1 0x2 PUSH1 0x0 DUP5 PUSH20 0xFFFFFFFFFFFFFFFFFFFFFFFFFFFFFFFFFFFFFFFF AND PUSH20 0xFFFFFFFFFFFFFFFFFFFFFFFFFFFFFFFFFFFFFFFF AND DUP2 MSTORE PUSH1 0x20 ADD SWAP1 DUP2 MSTORE PUSH1 0x20 ADD PUSH1 0x0 KECCAK256 PUSH1 0x40 MLOAD DUP1 PUSH1 0xA0 ADD PUSH1 0x40 MSTORE DUP1 PUSH1 0x6 SLOAD DUP2 MSTORE PUSH1 0x20 ADD DUP4 DUP2 MSTORE PUSH1 0x20 ADD DUP6 PUSH20 0xFFFFFFFFFFFFFFFFFFFFFFFFFFFFFFFFFFFFFFFF AND DUP2 MSTORE PUSH1 0x20 ADD DUP5 PUSH20 0xFFFFFFFFFFFFFFFFFFFFFFFFFFFFFFFFFFFFFFFF AND DUP2 MSTORE PUSH1 0x20 ADD TIMESTAMP DUP2 MSTORE POP SWAP1 DUP1 PUSH1 0x1 DUP2 SLOAD ADD DUP1 DUP3 SSTORE DUP1 SWAP2 POP POP PUSH1 0x1 SWAP1 SUB SWAP1 PUSH1 0x0 MSTORE PUSH1 0x20 PUSH1 0x0 KECCAK256 SWAP1 PUSH1 0x5 MUL ADD PUSH1 0x0 SWAP1 SWAP2 SWAP1 SWAP2 SWAP1 SWAP2 POP PUSH1 0x0 DUP3 ADD MLOAD DUP2 PUSH1 0x0 ADD SSTORE PUSH1 0x20 DUP3 ADD MLOAD DUP2 PUSH1 0x1 ADD SWAP1 DUP2 PUSH2 0xAAF SWAP2 SWAP1 PUSH2 0x15BC JUMP JUMPDEST POP PUSH1 0x40 DUP3 ADD MLOAD DUP2 PUSH1 0x2 ADD PUSH1 0x0 PUSH2 0x100 EXP DUP2 SLOAD DUP2 PUSH20 0xFFFFFFFFFFFFFFFFFFFFFFFFFFFFFFFFFFFFFFFF MUL NOT AND SWAP1 DUP4 PUSH20 0xFFFFFFFFFFFFFFFFFFFFFFFFFFFFFFFFFFFFFFFF AND MUL OR SWAP1 SSTORE POP PUSH1 0x60 DUP3 ADD MLOAD DUP2 PUSH1 0x3 ADD PUSH1 0x0 PUSH2 0x100 EXP DUP2 SLOAD DUP2 PUSH20 0xFFFFFFFFFFFFFFFFFFFFFFFFFFFFFFFFFFFFFFFF MUL NOT AND SWAP1 DUP4 PUSH20 0xFFFFFFFFFFFFFFFFFFFFFFFFFFFFFFFFFFFFFFFF AND MUL OR SWAP1 SSTORE POP PUSH1 0x80 DUP3 ADD MLOAD DUP2 PUSH1 0x4 ADD SSTORE POP POP PUSH1 0x6 PUSH1 0x0 DUP2 SLOAD DUP1 SWAP3 SWAP2 SWAP1 PUSH2 0xB5D SWAP1 PUSH2 0x12F0 JUMP JUMPDEST SWAP2 SWAP1 POP SSTORE POP POP POP POP JUMP JUMPDEST PUSH1 0x40 MLOAD DUP1 PUSH1 0x80 ADD PUSH1 0x40 MSTORE DUP1 PUSH1 0x0 DUP2 MSTORE PUSH1 0x20 ADD PUSH1 0x0 PUSH20 0xFFFFFFFFFFFFFFFFFFFFFFFFFFFFFFFFFFFFFFFF AND DUP2 MSTORE PUSH1 0x20 ADD PUSH1 0x60 DUP2 MSTORE PUSH1 0x20 ADD PUSH1 0x0 DUP2 MSTORE POP SWAP1 JUMP JUMPDEST PUSH1 0x0 PUSH1 0x40 MLOAD SWAP1 POP SWAP1 JUMP JUMPDEST PUSH1 0x0 DUP1 REVERT JUMPDEST PUSH1 0x0 DUP1 REVERT JUMPDEST PUSH1 0x0 PUSH20 0xFFFFFFFFFFFFFFFFFFFFFFFFFFFFFFFFFFFFFFFF DUP3 AND SWAP1 POP SWAP2 SWAP1 POP JUMP JUMPDEST PUSH1 0x0 PUSH2 0xBE4 DUP3 PUSH2 0xBB9 JUMP JUMPDEST SWAP1 POP SWAP2 SWAP1 POP JUMP JUMPDEST PUSH2 0xBF4 DUP2 PUSH2 0xBD9 JUMP JUMPDEST DUP2 EQ PUSH2 0xBFF JUMPI PUSH1 0x0 DUP1 REVERT JUMPDEST POP JUMP JUMPDEST PUSH1 0x0 DUP2 CALLDATALOAD SWAP1 POP PUSH2 0xC11 DUP2 PUSH2 0xBEB JUMP JUMPDEST SWAP3 SWAP2 POP POP JUMP JUMPDEST PUSH1 0x0 PUSH1 0x20 DUP3 DUP5 SUB SLT ISZERO PUSH2 0xC2D JUMPI PUSH2 0xC2C PUSH2 0xBAF JUMP JUMPDEST JUMPDEST PUSH1 0x0 PUSH2 0xC3B DUP5 DUP3 DUP6 ADD PUSH2 0xC02 JUMP JUMPDEST SWAP2 POP POP SWAP3 SWAP2 POP POP JUMP JUMPDEST PUSH1 0x0 DUP2 SWAP1 POP SWAP2 SWAP1 POP JUMP JUMPDEST PUSH2 0xC57 DUP2 PUSH2 0xC44 JUMP JUMPDEST DUP2 EQ PUSH2 0xC62 JUMPI PUSH1 0x0 DUP1 REVERT JUMPDEST POP JUMP JUMPDEST PUSH1 0x0 DUP2 CALLDATALOAD SWAP1 POP PUSH2 0xC74 DUP2 PUSH2 0xC4E JUMP JUMPDEST SWAP3 SWAP2 POP POP JUMP JUMPDEST PUSH1 0x0 PUSH1 0x20 DUP3 DUP5 SUB SLT ISZERO PUSH2 0xC90 JUMPI PUSH2 0xC8F PUSH2 0xBAF JUMP JUMPDEST JUMPDEST PUSH1 0x0 PUSH2 0xC9E DUP5 DUP3 DUP6 ADD PUSH2 0xC65 JUMP JUMPDEST SWAP2 POP POP SWAP3 SWAP2 POP POP JUMP JUMPDEST PUSH1 0x0 DUP2 MLOAD SWAP1 POP SWAP2 SWAP1 POP JUMP JUMPDEST PUSH1 0x0 DUP3 DUP3 MSTORE PUSH1 0x20 DUP3 ADD SWAP1 POP SWAP3 SWAP2 POP POP JUMP JUMPDEST PUSH1 0x0 DUP2 SWAP1 POP PUSH1 0x20 DUP3 ADD SWAP1 POP SWAP2 SWAP1 POP JUMP JUMPDEST PUSH2 0xCDC DUP2 PUSH2 0xC44 JUMP JUMPDEST DUP3 MSTORE POP POP JUMP JUMPDEST PUSH2 0xCEB DUP2 PUSH2 0xBD9 JUMP JUMPDEST DUP3 MSTORE POP POP JUMP JUMPDEST PUSH1 0x0 DUP2 MLOAD SWAP1 POP SWAP2 SWAP1 POP JUMP JUMPDEST PUSH1 0x0 DUP3 DUP3 MSTORE PUSH1 0x20 DUP3 ADD SWAP1 POP SWAP3 SWAP2 POP POP JUMP JUMPDEST PUSH1 0x0 JUMPDEST DUP4 DUP2 LT ISZERO PUSH2 0xD2B JUMPI DUP1 DUP3 ADD MLOAD DUP2 DUP5 ADD MSTORE PUSH1 0x20 DUP2 ADD SWAP1 POP PUSH2 0xD10 JUMP JUMPDEST PUSH1 0x0 DUP5 DUP5 ADD MSTORE POP POP POP POP JUMP JUMPDEST PUSH1 0x0 PUSH1 0x1F NOT PUSH1 0x1F DUP4 ADD AND SWAP1 POP SWAP2 SWAP1 POP JUMP JUMPDEST PUSH1 0x0 PUSH2 0xD53 DUP3 PUSH2 0xCF1 JUMP JUMPDEST PUSH2 0xD5D DUP2 DUP6 PUSH2 0xCFC JUMP JUMPDEST SWAP4 POP PUSH2 0xD6D DUP2 DUP6 PUSH1 0x20 DUP7 ADD PUSH2 0xD0D JUMP JUMPDEST PUSH2 0xD76 DUP2 PUSH2 0xD37 JUMP JUMPDEST DUP5 ADD SWAP2 POP POP SWAP3 SWAP2 POP POP JUMP JUMPDEST PUSH1 0x0 PUSH1 0x80 DUP4 ADD PUSH1 0x0 DUP4 ADD MLOAD PUSH2 0xD99 PUSH1 0x0 DUP7 ADD DUP3 PUSH2 0xCD3 JUMP JUMPDEST POP PUSH1 0x20 DUP4 ADD MLOAD PUSH2 0xDAC PUSH1 0x20 DUP7 ADD DUP3 PUSH2 0xCE2 JUMP JUMPDEST POP PUSH1 0x40 DUP4 ADD MLOAD DUP5 DUP3 SUB PUSH1 0x40 DUP7 ADD MSTORE PUSH2 0xDC4 DUP3 DUP3 PUSH2 0xD48 JUMP JUMPDEST SWAP2 POP POP PUSH1 0x60 DUP4 ADD MLOAD PUSH2 0xDD9 PUSH1 0x60 DUP7 ADD DUP3 PUSH2 0xCD3 JUMP JUMPDEST POP DUP1 SWAP2 POP POP SWAP3 SWAP2 POP POP JUMP JUMPDEST PUSH1 0x0 PUSH2 0xDF0 DUP4 DUP4 PUSH2 0xD81 JUMP JUMPDEST SWAP1 POP SWAP3 SWAP2 POP POP JUMP JUMPDEST PUSH1 0x0 PUSH1 0x20 DUP3 ADD SWAP1 POP SWAP2 SWAP1 POP JUMP JUMPDEST PUSH1 0x0 PUSH2 0xE10 DUP3 PUSH2 0xCA7 JUMP JUMPDEST PUSH2 0xE1A DUP2 DUP6 PUSH2 0xCB2 JUMP JUMPDEST SWAP4 POP DUP4 PUSH1 0x20 DUP3 MUL DUP6 ADD PUSH2 0xE2C DUP6 PUSH2 0xCC3 JUMP JUMPDEST DUP1 PUSH1 0x0 JUMPDEST DUP6 DUP2 LT ISZERO PUSH2 0xE68 JUMPI DUP5 DUP5 SUB DUP10 MSTORE DUP2 MLOAD PUSH2 0xE49 DUP6 DUP3 PUSH2 0xDE4 JUMP JUMPDEST SWAP5 POP PUSH2 0xE54 DUP4 PUSH2 0xDF8 JUMP JUMPDEST SWAP3 POP PUSH1 0x20 DUP11 ADD SWAP10 POP POP PUSH1 0x1 DUP2 ADD SWAP1 POP PUSH2 0xE30 JUMP JUMPDEST POP DUP3 SWAP8 POP DUP8 SWAP6 POP POP POP POP POP POP SWAP3 SWAP2 POP POP JUMP JUMPDEST PUSH1 0x0 PUSH1 0x20 DUP3 ADD SWAP1 POP DUP2 DUP2 SUB PUSH1 0x0 DUP4 ADD MSTORE PUSH2 0xE94 DUP2 DUP5 PUSH2 0xE05 JUMP JUMPDEST SWAP1 POP SWAP3 SWAP2 POP POP JUMP JUMPDEST PUSH1 0x0 DUP1 PUSH1 0x40 DUP4 DUP6 SUB SLT ISZERO PUSH2 0xEB3 JUMPI PUSH2 0xEB2 PUSH2 0xBAF JUMP JUMPDEST JUMPDEST PUSH1 0x0 PUSH2 0xEC1 DUP6 DUP3 DUP7 ADD PUSH2 0xC02 JUMP JUMPDEST SWAP3 POP POP PUSH1 0x20 PUSH2 0xED2 DUP6 DUP3 DUP7 ADD PUSH2 0xC65 JUMP JUMPDEST SWAP2 POP POP SWAP3 POP SWAP3 SWAP1 POP JUMP JUMPDEST PUSH1 0x0 DUP1 REVERT JUMPDEST PUSH1 0x0 DUP1 REVERT JUMPDEST PUSH32 0x4E487B7100000000000000000000000000000000000000000000000000000000 PUSH1 0x0 MSTORE PUSH1 0x41 PUSH1 0x4 MSTORE PUSH1 0x24 PUSH1 0x0 REVERT JUMPDEST PUSH2 0xF1E DUP3 PUSH2 0xD37 JUMP JUMPDEST DUP2 ADD DUP2 DUP2 LT PUSH8 0xFFFFFFFFFFFFFFFF DUP3 GT OR ISZERO PUSH2 0xF3D JUMPI PUSH2 0xF3C PUSH2 0xEE6 JUMP JUMPDEST JUMPDEST DUP1 PUSH1 0x40 MSTORE POP POP POP JUMP JUMPDEST PUSH1 0x0 PUSH2 0xF50 PUSH2 0xBA5 JUMP JUMPDEST SWAP1 POP PUSH2 0xF5C DUP3 DUP3 PUSH2 0xF15 JUMP JUMPDEST SWAP2 SWAP1 POP JUMP JUMPDEST PUSH1 0x0 PUSH8 0xFFFFFFFFFFFFFFFF DUP3 GT ISZERO PUSH2 0xF7C JUMPI PUSH2 0xF7B PUSH2 0xEE6 JUMP JUMPDEST JUMPDEST PUSH2 0xF85 DUP3 PUSH2 0xD37 JUMP JUMPDEST SWAP1 POP PUSH1 0x20 DUP2 ADD SWAP1 POP SWAP2 SWAP1 POP JUMP JUMPDEST DUP3 DUP2 DUP4 CALLDATACOPY PUSH1 0x0 DUP4 DUP4 ADD MSTORE POP POP POP JUMP JUMPDEST PUSH1 0x0 PUSH2 0xFB4 PUSH2 0xFAF DUP5 PUSH2 0xF61 JUMP JUMPDEST PUSH2 0xF46 JUMP JUMPDEST SWAP1 POP DUP3 DUP2 MSTORE PUSH1 0x20 DUP2 ADD DUP5 DUP5 DUP5 ADD GT ISZERO PUSH2 0xFD0 JUMPI PUSH2 0xFCF PUSH2 0xEE1 JUMP JUMPDEST JUMPDEST PUSH2 0xFDB DUP5 DUP3 DUP6 PUSH2 0xF92 JUMP JUMPDEST POP SWAP4 SWAP3 POP POP POP JUMP JUMPDEST PUSH1 0x0 DUP3 PUSH1 0x1F DUP4 ADD SLT PUSH2 0xFF8 JUMPI PUSH2 0xFF7 PUSH2 0xEDC JUMP JUMPDEST JUMPDEST DUP2 CALLDATALOAD PUSH2 0x1008 DUP5 DUP3 PUSH1 0x20 DUP7 ADD PUSH2 0xFA1 JUMP JUMPDEST SWAP2 POP POP SWAP3 SWAP2 POP POP JUMP JUMPDEST PUSH1 0x0 DUP1 PUSH1 0x40 DUP4 DUP6 SUB SLT ISZERO PUSH2 0x1028 JUMPI PUSH2 0x1027 PUSH2 0xBAF JUMP JUMPDEST JUMPDEST PUSH1 0x0 PUSH2 0x1036 DUP6 DUP3 DUP7 ADD PUSH2 0xC02 JUMP JUMPDEST SWAP3 POP POP PUSH1 0x20 DUP4 ADD CALLDATALOAD PUSH8 0xFFFFFFFFFFFFFFFF DUP2 GT ISZERO PUSH2 0x1057 JUMPI PUSH2 0x1056 PUSH2 0xBB4 JUMP JUMPDEST JUMPDEST PUSH2 0x1063 DUP6 DUP3 DUP7 ADD PUSH2 0xFE3 JUMP JUMPDEST SWAP2 POP POP SWAP3 POP SWAP3 SWAP1 POP JUMP JUMPDEST PUSH1 0x0 DUP1 PUSH1 0x0 PUSH1 0x60 DUP5 DUP7 SUB SLT ISZERO PUSH2 0x1086 JUMPI PUSH2 0x1085 PUSH2 0xBAF JUMP JUMPDEST JUMPDEST PUSH1 0x0 PUSH2 0x1094 DUP7 DUP3 DUP8 ADD PUSH2 0xC02 JUMP JUMPDEST SWAP4 POP POP PUSH1 0x20 PUSH2 0x10A5 DUP7 DUP3 DUP8 ADD PUSH2 0xC02 JUMP JUMPDEST SWAP3 POP POP PUSH1 0x40 DUP5 ADD CALLDATALOAD PUSH8 0xFFFFFFFFFFFFFFFF DUP2 GT ISZERO PUSH2 0x10C6 JUMPI PUSH2 0x10C5 PUSH2 0xBB4 JUMP JUMPDEST JUMPDEST PUSH2 0x10D2 DUP7 DUP3 DUP8 ADD PUSH2 0xFE3 JUMP JUMPDEST SWAP2 POP POP SWAP3 POP SWAP3 POP SWAP3 JUMP JUMPDEST PUSH1 0x0 DUP1 PUSH1 0x40 DUP4 DUP6 SUB SLT ISZERO PUSH2 0x10F3 JUMPI PUSH2 0x10F2 PUSH2 0xBAF JUMP JUMPDEST JUMPDEST PUSH1 0x0 DUP4 ADD CALLDATALOAD PUSH8 0xFFFFFFFFFFFFFFFF DUP2 GT ISZERO PUSH2 0x1111 JUMPI PUSH2 0x1110 PUSH2 0xBB4 JUMP JUMPDEST JUMPDEST PUSH2 0x111D DUP6 DUP3 DUP7 ADD PUSH2 0xFE3 JUMP JUMPDEST SWAP3 POP POP PUSH1 0x20 PUSH2 0x112E DUP6 DUP3 DUP7 ADD PUSH2 0xC02 JUMP JUMPDEST SWAP2 POP POP SWAP3 POP SWAP3 SWAP1 POP JUMP JUMPDEST PUSH1 0x0 PUSH1 0x20 DUP3 DUP5 SUB SLT ISZERO PUSH2 0x114E JUMPI PUSH2 0x114D PUSH2 0xBAF JUMP JUMPDEST JUMPDEST PUSH1 0x0 DUP3 ADD CALLDATALOAD PUSH8 0xFFFFFFFFFFFFFFFF DUP2 GT ISZERO PUSH2 0x116C JUMPI PUSH2 0x116B PUSH2 0xBB4 JUMP JUMPDEST JUMPDEST PUSH2 0x1178 DUP5 DUP3 DUP6 ADD PUSH2 0xFE3 JUMP JUMPDEST SWAP2 POP POP SWAP3 SWAP2 POP POP JUMP JUMPDEST PUSH1 0x0 DUP3 DUP3 MSTORE PUSH1 0x20 DUP3 ADD SWAP1 POP SWAP3 SWAP2 POP POP JUMP JUMPDEST PUSH32 0x636F756E74206973206E6F742070726F70657200000000000000000000000000 PUSH1 0x0 DUP3 ADD MSTORE POP JUMP JUMPDEST PUSH1 0x0 PUSH2 0x11C8 PUSH1 0x13 DUP4 PUSH2 0x1181 JUMP JUMPDEST SWAP2 POP PUSH2 0x11D3 DUP3 PUSH2 0x1192 JUMP JUMPDEST PUSH1 0x20 DUP3 ADD SWAP1 POP SWAP2 SWAP1 POP JUMP JUMPDEST PUSH1 0x0 PUSH1 0x20 DUP3 ADD SWAP1 POP DUP2 DUP2 SUB PUSH1 0x0 DUP4 ADD MSTORE PUSH2 0x11F7 DUP2 PUSH2 0x11BB JUMP JUMPDEST SWAP1 POP SWAP2 SWAP1 POP JUMP JUMPDEST PUSH32 0x4E487B7100000000000000000000000000000000000000000000000000000000 PUSH1 0x0 MSTORE PUSH1 0x11 PUSH1 0x4 MSTORE PUSH1 0x24 PUSH1 0x0 REVERT JUMPDEST PUSH1 0x0 PUSH2 0x1238 DUP3 PUSH2 0xC44 JUMP JUMPDEST SWAP2 POP PUSH2 0x1243 DUP4 PUSH2 0xC44 JUMP JUMPDEST SWAP3 POP DUP3 DUP3 SUB SWAP1 POP DUP2 DUP2 GT ISZERO PUSH2 0x125B JUMPI PUSH2 0x125A PUSH2 0x11FE JUMP JUMPDEST JUMPDEST SWAP3 SWAP2 POP POP JUMP JUMPDEST PUSH32 0x4E487B7100000000000000000000000000000000000000000000000000000000 PUSH1 0x0 MSTORE PUSH1 0x22 PUSH1 0x4 MSTORE PUSH1 0x24 PUSH1 0x0 REVERT JUMPDEST PUSH1 0x0 PUSH1 0x2 DUP3 DIV SWAP1 POP PUSH1 0x1 DUP3 AND DUP1 PUSH2 0x12A8 JUMPI PUSH1 0x7F DUP3 AND SWAP2 POP JUMPDEST PUSH1 0x20 DUP3 LT DUP2 SUB PUSH2 0x12BB JUMPI PUSH2 0x12BA PUSH2 0x1261 JUMP JUMPDEST JUMPDEST POP SWAP2 SWAP1 POP JUMP JUMPDEST PUSH32 0x4E487B7100000000000000000000000000000000000000000000000000000000 PUSH1 0x0 MSTORE PUSH1 0x32 PUSH1 0x4 MSTORE PUSH1 0x24 PUSH1 0x0 REVERT JUMPDEST PUSH1 0x0 PUSH2 0x12FB DUP3 PUSH2 0xC44 JUMP JUMPDEST SWAP2 POP PUSH32 0xFFFFFFFFFFFFFFFFFFFFFFFFFFFFFFFFFFFFFFFFFFFFFFFFFFFFFFFFFFFFFFFF DUP3 SUB PUSH2 0x132D JUMPI PUSH2 0x132C PUSH2 0x11FE JUMP JUMPDEST JUMPDEST PUSH1 0x1 DUP3 ADD SWAP1 POP SWAP2 SWAP1 POP JUMP JUMPDEST PUSH32 0x636F756E74206973206E6F7420646566696E6500000000000000000000000000 PUSH1 0x0 DUP3 ADD MSTORE POP JUMP JUMPDEST PUSH1 0x0 PUSH2 0x136E PUSH1 0x13 DUP4 PUSH2 0x1181 JUMP JUMPDEST SWAP2 POP PUSH2 0x1379 DUP3 PUSH2 0x1338 JUMP JUMPDEST PUSH1 0x20 DUP3 ADD SWAP1 POP SWAP2 SWAP1 POP JUMP JUMPDEST PUSH1 0x0 PUSH1 0x20 DUP3 ADD SWAP1 POP DUP2 DUP2 SUB PUSH1 0x0 DUP4 ADD MSTORE PUSH2 0x139D DUP2 PUSH2 0x1361 JUMP JUMPDEST SWAP1 POP SWAP2 SWAP1 POP JUMP JUMPDEST PUSH32 0x636F756E74206973206E6F742070726F7065726C7920646566696E6500000000 PUSH1 0x0 DUP3 ADD MSTORE POP JUMP JUMPDEST PUSH1 0x0 PUSH2 0x13DA PUSH1 0x1C DUP4 PUSH2 0x1181 JUMP JUMPDEST SWAP2 POP PUSH2 0x13E5 DUP3 PUSH2 0x13A4 JUMP JUMPDEST PUSH1 0x20 DUP3 ADD SWAP1 POP SWAP2 SWAP1 POP JUMP JUMPDEST PUSH1 0x0 PUSH1 0x20 DUP3 ADD SWAP1 POP DUP2 DUP2 SUB PUSH1 0x0 DUP4 ADD MSTORE PUSH2 0x1409 DUP2 PUSH2 0x13CD JUMP JUMPDEST SWAP1 POP SWAP2 SWAP1 POP JUMP JUMPDEST PUSH1 0x0 DUP2 SWAP1 POP DUP2 PUSH1 0x0 MSTORE PUSH1 0x20 PUSH1 0x0 KECCAK256 SWAP1 POP SWAP2 SWAP1 POP JUMP JUMPDEST PUSH1 0x0 PUSH1 0x20 PUSH1 0x1F DUP4 ADD DIV SWAP1 POP SWAP2 SWAP1 POP JUMP JUMPDEST PUSH1 0x0 DUP3 DUP3 SHL SWAP1 POP SWAP3 SWAP2 POP POP JUMP JUMPDEST PUSH1 0x0 PUSH1 0x8 DUP4 MUL PUSH2 0x1472 PUSH32 0xFFFFFFFFFFFFFFFFFFFFFFFFFFFFFFFFFFFFFFFFFFFFFFFFFFFFFFFFFFFFFFFF DUP3 PUSH2 0x1435 JUMP JUMPDEST PUSH2 0x147C DUP7 DUP4 PUSH2 0x1435 JUMP JUMPDEST SWAP6 POP DUP1 NOT DUP5 AND SWAP4 POP DUP1 DUP7 AND DUP5 OR SWAP3 POP POP POP SWAP4 SWAP3 POP POP POP JUMP JUMPDEST PUSH1 0x0 DUP2 SWAP1 POP SWAP2 SWAP1 POP JUMP JUMPDEST PUSH1 0x0 PUSH2 0x14B9 PUSH2 0x14B4 PUSH2 0x14AF DUP5 PUSH2 0xC44 JUMP JUMPDEST PUSH2 0x1494 JUMP JUMPDEST PUSH2 0xC44 JUMP JUMPDEST SWAP1 POP SWAP2 SWAP1 POP JUMP JUMPDEST PUSH1 0x0 DUP2 SWAP1 POP SWAP2 SWAP1 POP JUMP JUMPDEST PUSH2 0x14D3 DUP4 PUSH2 0x149E JUMP JUMPDEST PUSH2 0x14E7 PUSH2 0x14DF DUP3 PUSH2 0x14C0 JUMP JUMPDEST DUP5 DUP5 SLOAD PUSH2 0x1442 JUMP JUMPDEST DUP3 SSTORE POP POP POP POP JUMP JUMPDEST PUSH1 0x0 SWAP1 JUMP JUMPDEST PUSH2 0x14FC PUSH2 0x14EF JUMP JUMPDEST PUSH2 0x1507 DUP2 DUP5 DUP5 PUSH2 0x14CA JUMP JUMPDEST POP POP POP JUMP JUMPDEST JUMPDEST DUP2 DUP2 LT ISZERO PUSH2 0x152B JUMPI PUSH2 0x1520 PUSH1 0x0 DUP3 PUSH2 0x14F4 JUMP JUMPDEST PUSH1 0x1 DUP2 ADD SWAP1 POP PUSH2 0x150D JUMP JUMPDEST POP POP JUMP JUMPDEST PUSH1 0x1F DUP3 GT ISZERO PUSH2 0x1570 JUMPI PUSH2 0x1541 DUP2 PUSH2 0x1410 JUMP JUMPDEST PUSH2 0x154A DUP5 PUSH2 0x1425 JUMP JUMPDEST DUP2 ADD PUSH1 0x20 DUP6 LT ISZERO PUSH2 0x1559 JUMPI DUP2 SWAP1 POP JUMPDEST PUSH2 0x156D PUSH2 0x1565 DUP6 PUSH2 0x1425 JUMP JUMPDEST DUP4 ADD DUP3 PUSH2 0x150C JUMP JUMPDEST POP POP JUMPDEST POP POP POP JUMP JUMPDEST PUSH1 0x0 DUP3 DUP3 SHR SWAP1 POP SWAP3 SWAP2 POP POP JUMP JUMPDEST PUSH1 0x0 PUSH2 0x1593 PUSH1 0x0 NOT DUP5 PUSH1 0x8 MUL PUSH2 0x1575 JUMP JUMPDEST NOT DUP1 DUP4 AND SWAP2 POP POP SWAP3 SWAP2 POP POP JUMP JUMPDEST PUSH1 0x0 PUSH2 0x15AC DUP4 DUP4 PUSH2 0x1582 JUMP JUMPDEST SWAP2 POP DUP3 PUSH1 0x2 MUL DUP3 OR SWAP1 POP SWAP3 SWAP2 POP POP JUMP JUMPDEST PUSH2 0x15C5 DUP3 PUSH2 0xCF1 JUMP JUMPDEST PUSH8 0xFFFFFFFFFFFFFFFF DUP2 GT ISZERO PUSH2 0x15DE JUMPI PUSH2 0x15DD PUSH2 0xEE6 JUMP JUMPDEST JUMPDEST PUSH2 0x15E8 DUP3 SLOAD PUSH2 0x1290 JUMP JUMPDEST PUSH2 0x15F3 DUP3 DUP3 DUP6 PUSH2 0x152F JUMP JUMPDEST PUSH1 0x0 PUSH1 0x20 SWAP1 POP PUSH1 0x1F DUP4 GT PUSH1 0x1 DUP2 EQ PUSH2 0x1626 JUMPI PUSH1 0x0 DUP5 ISZERO PUSH2 0x1614 JUMPI DUP3 DUP8 ADD MLOAD SWAP1 POP JUMPDEST PUSH2 0x161E DUP6 DUP3 PUSH2 0x15A0 JUMP JUMPDEST DUP7 SSTORE POP PUSH2 0x1686 JUMP JUMPDEST PUSH1 0x1F NOT DUP5 AND PUSH2 0x1634 DUP7 PUSH2 0x1410 JUMP JUMPDEST PUSH1 0x0 JUMPDEST DUP3 DUP2 LT ISZERO PUSH2 0x165C JUMPI DUP5 DUP10 ADD MLOAD DUP3 SSTORE PUSH1 0x1 DUP3 ADD SWAP2 POP PUSH1 0x20 DUP6 ADD SWAP5 POP PUSH1 0x20 DUP2 ADD SWAP1 POP PUSH2 0x1637 JUMP JUMPDEST DUP7 DUP4 LT ISZERO PUSH2 0x1679 JUMPI DUP5 DUP10 ADD MLOAD PUSH2 0x1675 PUSH1 0x1F DUP10 AND DUP3 PUSH2 0x1582 JUMP JUMPDEST DUP4 SSTORE POP JUMPDEST PUSH1 0x1 PUSH1 0x2 DUP9 MUL ADD DUP9 SSTORE POP POP POP JUMPDEST POP POP POP POP POP POP JUMP INVALID LOG2 PUSH5 0x6970667358 0x22 SLT KECCAK256 0xB6 EXTCODESIZE SLOAD SSTORE 0xE6 CREATE2 PUSH17 0x456E4747B12C704DCBCFF0302A493D4749 0xE9 DUP2 0xB0 0x2E SLOAD 0x2F 0x24 PUSH3 0x64736F PUSH13 0x63430008120033000000000000 "
				},
				"gasEstimates": {
					"creation": {
						"codeDepositCost": "1165600",
						"executionCost": "1214",
						"totalCost": "1166814"
					},
					"external": {
						"allow(address)": "24989",
						"disallow(address)": "24968",
						"follow(address)": "49124",
						"getLatestTweets(uint256)": "infinite",
						"getLatestofUser(address,uint256)": "infinite",
						"sendmessage(string,address)": "infinite",
						"tweet(address,address,string)": "infinite",
						"tweet(address,string)": "infinite",
						"tweet(string)": "infinite"
					},
					"internal": {
						"_sendmessage(address,address,string memory)": "infinite",
						"_tweet(address,string memory)": "infinite"
					}
				},
				"methodIdentifiers": {
					"allow(address)": "ff9913e8",
					"disallow(address)": "a9ed9cb8",
					"follow(address)": "4dbf27cc",
					"getLatestTweets(uint256)": "4dc0a687",
					"getLatestofUser(address,uint256)": "5284b64a",
					"sendmessage(string,address)": "f5255cd8",
					"tweet(address,address,string)": "eb2eb2b2",
					"tweet(address,string)": "d21d1596",
					"tweet(string)": "fb46d4c5"
				}
			},
			"storageLayout": {
				"storage": [
					{
						"astId": 26,
						"contract": "PROJECT/Tweeter.sol:Tweeter",
						"label": "tweets",
						"offset": 0,
						"slot": "0",
						"type": "t_mapping(t_uint256,t_struct(Tweet)10_storage)"
					},
					{
						"astId": 31,
						"contract": "PROJECT/Tweeter.sol:Tweeter",
						"label": "tweetOf",
						"offset": 0,
						"slot": "1",
						"type": "t_mapping(t_address,t_array(t_uint256)dyn_storage)"
					},
					{
						"astId": 37,
						"contract": "PROJECT/Tweeter.sol:Tweeter",
						"label": "conversations",
						"offset": 0,
						"slot": "2",
						"type": "t_mapping(t_address,t_array(t_struct(message)21_storage)dyn_storage)"
					},
					{
						"astId": 43,
						"contract": "PROJECT/Tweeter.sol:Tweeter",
						"label": "operators",
						"offset": 0,
						"slot": "3",
						"type": "t_mapping(t_address,t_mapping(t_address,t_bool))"
					},
					{
						"astId": 48,
						"contract": "PROJECT/Tweeter.sol:Tweeter",
						"label": "followers",
						"offset": 0,
						"slot": "4",
						"type": "t_mapping(t_address,t_array(t_address)dyn_storage)"
					},
					{
						"astId": 50,
						"contract": "PROJECT/Tweeter.sol:Tweeter",
						"label": "nextId",
						"offset": 0,
						"slot": "5",
						"type": "t_uint256"
					},
					{
						"astId": 52,
						"contract": "PROJECT/Tweeter.sol:Tweeter",
						"label": "nextMessageId",
						"offset": 0,
						"slot": "6",
						"type": "t_uint256"
					}
				],
				"types": {
					"t_address": {
						"encoding": "inplace",
						"label": "address",
						"numberOfBytes": "20"
					},
					"t_array(t_address)dyn_storage": {
						"base": "t_address",
						"encoding": "dynamic_array",
						"label": "address[]",
						"numberOfBytes": "32"
					},
					"t_array(t_struct(message)21_storage)dyn_storage": {
						"base": "t_struct(message)21_storage",
						"encoding": "dynamic_array",
						"label": "struct Tweeter.message[]",
						"numberOfBytes": "32"
					},
					"t_array(t_uint256)dyn_storage": {
						"base": "t_uint256",
						"encoding": "dynamic_array",
						"label": "uint256[]",
						"numberOfBytes": "32"
					},
					"t_bool": {
						"encoding": "inplace",
						"label": "bool",
						"numberOfBytes": "1"
					},
					"t_mapping(t_address,t_array(t_address)dyn_storage)": {
						"encoding": "mapping",
						"key": "t_address",
						"label": "mapping(address => address[])",
						"numberOfBytes": "32",
						"value": "t_array(t_address)dyn_storage"
					},
					"t_mapping(t_address,t_array(t_struct(message)21_storage)dyn_storage)": {
						"encoding": "mapping",
						"key": "t_address",
						"label": "mapping(address => struct Tweeter.message[])",
						"numberOfBytes": "32",
						"value": "t_array(t_struct(message)21_storage)dyn_storage"
					},
					"t_mapping(t_address,t_array(t_uint256)dyn_storage)": {
						"encoding": "mapping",
						"key": "t_address",
						"label": "mapping(address => uint256[])",
						"numberOfBytes": "32",
						"value": "t_array(t_uint256)dyn_storage"
					},
					"t_mapping(t_address,t_bool)": {
						"encoding": "mapping",
						"key": "t_address",
						"label": "mapping(address => bool)",
						"numberOfBytes": "32",
						"value": "t_bool"
					},
					"t_mapping(t_address,t_mapping(t_address,t_bool))": {
						"encoding": "mapping",
						"key": "t_address",
						"label": "mapping(address => mapping(address => bool))",
						"numberOfBytes": "32",
						"value": "t_mapping(t_address,t_bool)"
					},
					"t_mapping(t_uint256,t_struct(Tweet)10_storage)": {
						"encoding": "mapping",
						"key": "t_uint256",
						"label": "mapping(uint256 => struct Tweeter.Tweet)",
						"numberOfBytes": "32",
						"value": "t_struct(Tweet)10_storage"
					},
					"t_string_storage": {
						"encoding": "bytes",
						"label": "string",
						"numberOfBytes": "32"
					},
					"t_struct(Tweet)10_storage": {
						"encoding": "inplace",
						"label": "struct Tweeter.Tweet",
						"members": [
							{
								"astId": 3,
								"contract": "PROJECT/Tweeter.sol:Tweeter",
								"label": "id",
								"offset": 0,
								"slot": "0",
								"type": "t_uint256"
							},
							{
								"astId": 5,
								"contract": "PROJECT/Tweeter.sol:Tweeter",
								"label": "author",
								"offset": 0,
								"slot": "1",
								"type": "t_address"
							},
							{
								"astId": 7,
								"contract": "PROJECT/Tweeter.sol:Tweeter",
								"label": "content",
								"offset": 0,
								"slot": "2",
								"type": "t_string_storage"
							},
							{
								"astId": 9,
								"contract": "PROJECT/Tweeter.sol:Tweeter",
								"label": "createdAt",
								"offset": 0,
								"slot": "3",
								"type": "t_uint256"
							}
						],
						"numberOfBytes": "128"
					},
					"t_struct(message)21_storage": {
						"encoding": "inplace",
						"label": "struct Tweeter.message",
						"members": [
							{
								"astId": 12,
								"contract": "PROJECT/Tweeter.sol:Tweeter",
								"label": "id",
								"offset": 0,
								"slot": "0",
								"type": "t_uint256"
							},
							{
								"astId": 14,
								"contract": "PROJECT/Tweeter.sol:Tweeter",
								"label": "content",
								"offset": 0,
								"slot": "1",
								"type": "t_string_storage"
							},
							{
								"astId": 16,
								"contract": "PROJECT/Tweeter.sol:Tweeter",
								"label": "from",
								"offset": 0,
								"slot": "2",
								"type": "t_address"
							},
							{
								"astId": 18,
								"contract": "PROJECT/Tweeter.sol:Tweeter",
								"label": "to",
								"offset": 0,
								"slot": "3",
								"type": "t_address"
							},
							{
								"astId": 20,
								"contract": "PROJECT/Tweeter.sol:Tweeter",
								"label": "createdAt",
								"offset": 0,
								"slot": "4",
								"type": "t_uint256"
							}
						],
						"numberOfBytes": "160"
					},
					"t_uint256": {
						"encoding": "inplace",
						"label": "uint256",
						"numberOfBytes": "32"
					}
				}
			},
			"userdoc": {
				"kind": "user",
				"methods": {},
				"version": 1
			}
		}
	}
}