{
	"PROJECT/voting.sol": {
		"Vote": {
			"abi": [
				{
					"inputs": [],
					"stateMutability": "nonpayable",
					"type": "constructor"
				},
				{
					"inputs": [
						{
							"internalType": "uint256",
							"name": "StartTime",
							"type": "uint256"
						},
						{
							"internalType": "uint256",
							"name": "EndTime",
							"type": "uint256"
						}
					],
					"name": "VoteTime",
					"outputs": [],
					"stateMutability": "nonpayable",
					"type": "function"
				},
				{
					"inputs": [],
					"name": "candidateList",
					"outputs": [
						{
							"components": [
								{
									"internalType": "string",
									"name": "name",
									"type": "string"
								},
								{
									"internalType": "string",
									"name": "party",
									"type": "string"
								},
								{
									"internalType": "uint256",
									"name": "age",
									"type": "uint256"
								},
								{
									"internalType": "string",
									"name": "gender",
									"type": "string"
								},
								{
									"internalType": "uint256",
									"name": "candidateId",
									"type": "uint256"
								},
								{
									"internalType": "address",
									"name": "candidateAddress",
									"type": "address"
								},
								{
									"internalType": "uint256",
									"name": "votes",
									"type": "uint256"
								}
							],
							"internalType": "struct Vote.Candidate[]",
							"name": "",
							"type": "tuple[]"
						}
					],
					"stateMutability": "view",
					"type": "function"
				},
				{
					"inputs": [
						{
							"internalType": "string",
							"name": "_name",
							"type": "string"
						},
						{
							"internalType": "string",
							"name": "_party",
							"type": "string"
						},
						{
							"internalType": "uint256",
							"name": "_age",
							"type": "uint256"
						},
						{
							"internalType": "string",
							"name": "_gender",
							"type": "string"
						}
					],
					"name": "candidateRegister",
					"outputs": [],
					"stateMutability": "nonpayable",
					"type": "function"
				},
				{
					"inputs": [],
					"name": "emergency",
					"outputs": [],
					"stateMutability": "nonpayable",
					"type": "function"
				},
				{
					"inputs": [],
					"name": "result",
					"outputs": [],
					"stateMutability": "nonpayable",
					"type": "function"
				},
				{
					"inputs": [
						{
							"internalType": "uint256",
							"name": "_voterId",
							"type": "uint256"
						},
						{
							"internalType": "uint256",
							"name": "_CandidateId",
							"type": "uint256"
						}
					],
					"name": "vote",
					"outputs": [],
					"stateMutability": "nonpayable",
					"type": "function"
				},
				{
					"inputs": [],
					"name": "voterList",
					"outputs": [
						{
							"components": [
								{
									"internalType": "string",
									"name": "name",
									"type": "string"
								},
								{
									"internalType": "uint256",
									"name": "age",
									"type": "uint256"
								},
								{
									"internalType": "uint256",
									"name": "voterId",
									"type": "uint256"
								},
								{
									"internalType": "string",
									"name": "gender",
									"type": "string"
								},
								{
									"internalType": "uint256",
									"name": "voteCandidateId",
									"type": "uint256"
								},
								{
									"internalType": "address",
									"name": "voterAddress",
									"type": "address"
								}
							],
							"internalType": "struct Vote.Voter[]",
							"name": "",
							"type": "tuple[]"
						}
					],
					"stateMutability": "view",
					"type": "function"
				},
				{
					"inputs": [
						{
							"internalType": "string",
							"name": "_name",
							"type": "string"
						},
						{
							"internalType": "uint256",
							"name": "_age",
							"type": "uint256"
						},
						{
							"internalType": "string",
							"name": "_gender",
							"type": "string"
						}
					],
					"name": "voterRegister",
					"outputs": [],
					"stateMutability": "nonpayable",
					"type": "function"
				},
				{
					"inputs": [],
					"name": "voting_status",
					"outputs": [
						{
							"internalType": "string",
							"name": "",
							"type": "string"
						}
					],
					"stateMutability": "view",
					"type": "function"
				},
				{
					"inputs": [],
					"name": "winner",
					"outputs": [
						{
							"internalType": "address",
							"name": "",
							"type": "address"
						}
					],
					"stateMutability": "view",
					"type": "function"
				}
			],
			"devdoc": {
				"kind": "dev",
				"methods": {},
				"version": 1
			},
			"evm": {
				"assembly": "    /* \"PROJECT/voting.sol\":58:4541  contract Vote{... */\n  mstore(0x40, 0x80)\n    /* \"PROJECT/voting.sol\":537:538  1 */\n  0x01\n    /* \"PROJECT/voting.sol\":520:538  uint nextVoterId=1 */\n  0x02\n  sstore\n    /* \"PROJECT/voting.sol\":566:567  1 */\n  0x01\n    /* \"PROJECT/voting.sol\":545:567  uint nextCandidateId=1 */\n  0x03\n  sstore\n    /* \"PROJECT/voting.sol\":734:793  constructor(){... */\n  callvalue\n  dup1\n  iszero\n  tag_1\n  jumpi\n  0x00\n  dup1\n  revert\ntag_1:\n  pop\n    /* \"PROJECT/voting.sol\":775:785  msg.sender */\n  caller\n    /* \"PROJECT/voting.sol\":758:774  electionComision */\n  0x00\n  dup1\n    /* \"PROJECT/voting.sol\":758:785  electionComision=msg.sender */\n  0x0100\n  exp\n  dup2\n  sload\n  dup2\n  0xffffffffffffffffffffffffffffffffffffffff\n  mul\n  not\n  and\n  swap1\n  dup4\n  0xffffffffffffffffffffffffffffffffffffffff\n  and\n  mul\n  or\n  swap1\n  sstore\n  pop\n    /* \"PROJECT/voting.sol\":58:4541  contract Vote{... */\n  dataSize(sub_0)\n  dup1\n  dataOffset(sub_0)\n  0x00\n  codecopy\n  0x00\n  return\nstop\n\nsub_0: assembly {\n        /* \"PROJECT/voting.sol\":58:4541  contract Vote{... */\n      mstore(0x40, 0x80)\n      callvalue\n      dup1\n      iszero\n      tag_1\n      jumpi\n      0x00\n      dup1\n      revert\n    tag_1:\n      pop\n      jumpi(tag_2, lt(calldatasize, 0x04))\n      shr(0xe0, calldataload(0x00))\n      dup1\n      0x93e5fed2\n      gt\n      tag_13\n      jumpi\n      dup1\n      0x93e5fed2\n      eq\n      tag_8\n      jumpi\n      dup1\n      0xb384abef\n      eq\n      tag_9\n      jumpi\n      dup1\n      0xcaa6fea4\n      eq\n      tag_10\n      jumpi\n      dup1\n      0xcf5ce2e7\n      eq\n      tag_11\n      jumpi\n      dup1\n      0xdfbf53ae\n      eq\n      tag_12\n      jumpi\n      jump(tag_2)\n    tag_13:\n      dup1\n      0x24089918\n      eq\n      tag_3\n      jumpi\n      dup1\n      0x2624ef6d\n      eq\n      tag_4\n      jumpi\n      dup1\n      0x498ea441\n      eq\n      tag_5\n      jumpi\n      dup1\n      0x4e73b5b8\n      eq\n      tag_6\n      jumpi\n      dup1\n      0x65372147\n      eq\n      tag_7\n      jumpi\n    tag_2:\n      0x00\n      dup1\n      revert\n        /* \"PROJECT/voting.sol\":2788:3026  function voterList() public view returns(Voter[] memory){... */\n    tag_3:\n      tag_14\n      tag_15\n      jump\t// in\n    tag_14:\n      mload(0x40)\n      tag_16\n      swap2\n      swap1\n      tag_17\n      jump\t// in\n    tag_16:\n      mload(0x40)\n      dup1\n      swap2\n      sub\n      swap1\n      return\n        /* \"PROJECT/voting.sol\":3627:3814  function VoteTime(uint StartTime,uint EndTime)external onlyCommisioner{... */\n    tag_4:\n      tag_18\n      0x04\n      dup1\n      calldatasize\n      sub\n      dup2\n      add\n      swap1\n      tag_19\n      swap2\n      swap1\n      tag_20\n      jump\t// in\n    tag_19:\n      tag_21\n      jump\t// in\n    tag_18:\n      stop\n        /* \"PROJECT/voting.sol\":1910:2168  function candidateList() public view returns(Candidate[] memory){... */\n    tag_5:\n      tag_22\n      tag_23\n      jump\t// in\n    tag_22:\n      mload(0x40)\n      tag_24\n      swap2\n      swap1\n      tag_25\n      jump\t// in\n    tag_24:\n      mload(0x40)\n      dup1\n      swap2\n      sub\n      swap1\n      return\n        /* \"PROJECT/voting.sol\":3822:4154  function voting_status() public view returns( string memory){... */\n    tag_6:\n      tag_26\n      tag_27\n      jump\t// in\n    tag_26:\n      mload(0x40)\n      tag_28\n      swap2\n      swap1\n      tag_29\n      jump\t// in\n    tag_28:\n      mload(0x40)\n      dup1\n      swap2\n      sub\n      swap1\n      return\n        /* \"PROJECT/voting.sol\":4160:4447  function result() external onlyCommisioner() isVotingOver(){... */\n    tag_7:\n      tag_30\n      tag_31\n      jump\t// in\n    tag_30:\n      stop\n        /* \"PROJECT/voting.sol\":2176:2526  function voterRegister(string calldata _name,uint _age,string calldata _gender) public {... */\n    tag_8:\n      tag_32\n      0x04\n      dup1\n      calldatasize\n      sub\n      dup2\n      add\n      swap1\n      tag_33\n      swap2\n      swap1\n      tag_34\n      jump\t// in\n    tag_33:\n      tag_35\n      jump\t// in\n    tag_32:\n      stop\n        /* \"PROJECT/voting.sol\":3032:3619  function vote(uint _voterId,uint _CandidateId) external  isVotingOver{... */\n    tag_9:\n      tag_36\n      0x04\n      dup1\n      calldatasize\n      sub\n      dup2\n      add\n      swap1\n      tag_37\n      swap2\n      swap1\n      tag_20\n      jump\t// in\n    tag_37:\n      tag_38\n      jump\t// in\n    tag_36:\n      stop\n        /* \"PROJECT/voting.sol\":4455:4536  function emergency() public onlyCommisioner(){... */\n    tag_10:\n      tag_39\n      tag_40\n      jump\t// in\n    tag_39:\n      stop\n        /* \"PROJECT/voting.sol\":1054:1626  function candidateRegister(string calldata _name,string calldata _party,uint _age,string calldata _gender) public {... */\n    tag_11:\n      tag_41\n      0x04\n      dup1\n      calldatasize\n      sub\n      dup2\n      add\n      swap1\n      tag_42\n      swap2\n      swap1\n      tag_43\n      jump\t// in\n    tag_42:\n      tag_44\n      jump\t// in\n    tag_41:\n      stop\n        /* \"PROJECT/voting.sol\":109:130  address public winner */\n    tag_12:\n      tag_45\n      tag_46\n      jump\t// in\n    tag_45:\n      mload(0x40)\n      tag_47\n      swap2\n      swap1\n      tag_48\n      jump\t// in\n    tag_47:\n      mload(0x40)\n      dup1\n      swap2\n      sub\n      swap1\n      return\n        /* \"PROJECT/voting.sol\":2788:3026  function voterList() public view returns(Voter[] memory){... */\n    tag_15:\n        /* \"PROJECT/voting.sol\":2829:2843  Voter[] memory */\n      0x60\n        /* \"PROJECT/voting.sol\":2855:2875  Voter[] memory array */\n      0x00\n        /* \"PROJECT/voting.sol\":2888:2899  nextVoterId */\n      sload(0x02)\n        /* \"PROJECT/voting.sol\":2876:2900  new Voter[](nextVoterId) */\n      0xffffffffffffffff\n      dup2\n      gt\n      iszero\n      tag_50\n      jumpi\n      tag_51\n      tag_52\n      jump\t// in\n    tag_51:\n    tag_50:\n      mload(0x40)\n      swap1\n      dup1\n      dup3\n      mstore\n      dup1\n      0x20\n      mul\n      0x20\n      add\n      dup3\n      add\n      0x40\n      mstore\n      dup1\n      iszero\n      tag_53\n      jumpi\n      dup2\n      0x20\n      add\n    tag_54:\n      tag_55\n      tag_56\n      jump\t// in\n    tag_55:\n      dup2\n      mstore\n      0x20\n      add\n      swap1\n      0x01\n      swap1\n      sub\n      swap1\n      dup2\n      tag_54\n      jumpi\n      swap1\n      pop\n    tag_53:\n      pop\n        /* \"PROJECT/voting.sol\":2855:2900  Voter[] memory array=new Voter[](nextVoterId) */\n      swap1\n      pop\n        /* \"PROJECT/voting.sol\":2915:2921  uint i */\n      0x00\n        /* \"PROJECT/voting.sol\":2922:2923  1 */\n      0x01\n        /* \"PROJECT/voting.sol\":2915:2923  uint i=1 */\n      swap1\n      pop\n        /* \"PROJECT/voting.sol\":2911:2996  for(uint i=1;i<=nextVoterId;i++){... */\n    tag_57:\n        /* \"PROJECT/voting.sol\":2927:2938  nextVoterId */\n      sload(0x02)\n        /* \"PROJECT/voting.sol\":2924:2925  i */\n      dup2\n        /* \"PROJECT/voting.sol\":2924:2938  i<=nextVoterId */\n      gt\n        /* \"PROJECT/voting.sol\":2911:2996  for(uint i=1;i<=nextVoterId;i++){... */\n      tag_58\n      jumpi\n        /* \"PROJECT/voting.sol\":2969:2981  voterDetails */\n      0x06\n        /* \"PROJECT/voting.sol\":2969:2984  voterDetails[i] */\n      0x00\n        /* \"PROJECT/voting.sol\":2982:2983  i */\n      dup3\n        /* \"PROJECT/voting.sol\":2969:2984  voterDetails[i] */\n      dup2\n      mstore\n      0x20\n      add\n      swap1\n      dup2\n      mstore\n      0x20\n      add\n      0x00\n      keccak256\n        /* \"PROJECT/voting.sol\":2958:2984  array[i-1]=voterDetails[i] */\n      mload(0x40)\n      dup1\n      0xc0\n      add\n      0x40\n      mstore\n      swap1\n      dup2\n      0x00\n      dup3\n      add\n      dup1\n      sload\n      tag_60\n      swap1\n      tag_61\n      jump\t// in\n    tag_60:\n      dup1\n      0x1f\n      add\n      0x20\n      dup1\n      swap2\n      div\n      mul\n      0x20\n      add\n      mload(0x40)\n      swap1\n      dup2\n      add\n      0x40\n      mstore\n      dup1\n      swap3\n      swap2\n      swap1\n      dup2\n      dup2\n      mstore\n      0x20\n      add\n      dup3\n      dup1\n      sload\n      tag_62\n      swap1\n      tag_61\n      jump\t// in\n    tag_62:\n      dup1\n      iszero\n      tag_63\n      jumpi\n      dup1\n      0x1f\n      lt\n      tag_64\n      jumpi\n      0x0100\n      dup1\n      dup4\n      sload\n      div\n      mul\n      dup4\n      mstore\n      swap2\n      0x20\n      add\n      swap2\n      jump(tag_63)\n    tag_64:\n      dup3\n      add\n      swap2\n      swap1\n      0x00\n      mstore\n      keccak256(0x00, 0x20)\n      swap1\n    tag_65:\n      dup2\n      sload\n      dup2\n      mstore\n      swap1\n      0x01\n      add\n      swap1\n      0x20\n      add\n      dup1\n      dup4\n      gt\n      tag_65\n      jumpi\n      dup3\n      swap1\n      sub\n      0x1f\n      and\n      dup3\n      add\n      swap2\n    tag_63:\n      pop\n      pop\n      pop\n      pop\n      pop\n      dup2\n      mstore\n      0x20\n      add\n      0x01\n      dup3\n      add\n      sload\n      dup2\n      mstore\n      0x20\n      add\n      0x02\n      dup3\n      add\n      sload\n      dup2\n      mstore\n      0x20\n      add\n      0x03\n      dup3\n      add\n      dup1\n      sload\n      tag_66\n      swap1\n      tag_61\n      jump\t// in\n    tag_66:\n      dup1\n      0x1f\n      add\n      0x20\n      dup1\n      swap2\n      div\n      mul\n      0x20\n      add\n      mload(0x40)\n      swap1\n      dup2\n      add\n      0x40\n      mstore\n      dup1\n      swap3\n      swap2\n      swap1\n      dup2\n      dup2\n      mstore\n      0x20\n      add\n      dup3\n      dup1\n      sload\n      tag_67\n      swap1\n      tag_61\n      jump\t// in\n    tag_67:\n      dup1\n      iszero\n      tag_68\n      jumpi\n      dup1\n      0x1f\n      lt\n      tag_69\n      jumpi\n      0x0100\n      dup1\n      dup4\n      sload\n      div\n      mul\n      dup4\n      mstore\n      swap2\n      0x20\n      add\n      swap2\n      jump(tag_68)\n    tag_69:\n      dup3\n      add\n      swap2\n      swap1\n      0x00\n      mstore\n      keccak256(0x00, 0x20)\n      swap1\n    tag_70:\n      dup2\n      sload\n      dup2\n      mstore\n      swap1\n      0x01\n      add\n      swap1\n      0x20\n      add\n      dup1\n      dup4\n      gt\n      tag_70\n      jumpi\n      dup3\n      swap1\n      sub\n      0x1f\n      and\n      dup3\n      add\n      swap2\n    tag_68:\n      pop\n      pop\n      pop\n      pop\n      pop\n      dup2\n      mstore\n      0x20\n      add\n      0x04\n      dup3\n      add\n      sload\n      dup2\n      mstore\n      0x20\n      add\n      0x05\n      dup3\n      add\n      0x00\n      swap1\n      sload\n      swap1\n      0x0100\n      exp\n      swap1\n      div\n      0xffffffffffffffffffffffffffffffffffffffff\n      and\n      0xffffffffffffffffffffffffffffffffffffffff\n      and\n      0xffffffffffffffffffffffffffffffffffffffff\n      and\n      dup2\n      mstore\n      pop\n      pop\n        /* \"PROJECT/voting.sol\":2958:2963  array */\n      dup3\n        /* \"PROJECT/voting.sol\":2966:2967  1 */\n      0x01\n        /* \"PROJECT/voting.sol\":2964:2965  i */\n      dup4\n        /* \"PROJECT/voting.sol\":2964:2967  i-1 */\n      tag_71\n      swap2\n      swap1\n      tag_72\n      jump\t// in\n    tag_71:\n        /* \"PROJECT/voting.sol\":2958:2968  array[i-1] */\n      dup2\n      mload\n      dup2\n      lt\n      tag_73\n      jumpi\n      tag_74\n      tag_75\n      jump\t// in\n    tag_74:\n    tag_73:\n      0x20\n      mul\n      0x20\n      add\n      add\n        /* \"PROJECT/voting.sol\":2958:2984  array[i-1]=voterDetails[i] */\n      dup2\n      swap1\n      mstore\n      pop\n        /* \"PROJECT/voting.sol\":2939:2942  i++ */\n      dup1\n      dup1\n      tag_76\n      swap1\n      tag_77\n      jump\t// in\n    tag_76:\n      swap2\n      pop\n      pop\n        /* \"PROJECT/voting.sol\":2911:2996  for(uint i=1;i<=nextVoterId;i++){... */\n      jump(tag_57)\n    tag_58:\n      pop\n        /* \"PROJECT/voting.sol\":3013:3018  array */\n      dup1\n        /* \"PROJECT/voting.sol\":3006:3018  return array */\n      swap2\n      pop\n      pop\n        /* \"PROJECT/voting.sol\":2788:3026  function voterList() public view returns(Voter[] memory){... */\n      swap1\n      jump\t// out\n        /* \"PROJECT/voting.sol\":3627:3814  function VoteTime(uint StartTime,uint EndTime)external onlyCommisioner{... */\n    tag_21:\n        /* \"PROJECT/voting.sol\":987:997  msg.sender */\n      caller\n        /* \"PROJECT/voting.sol\":969:997  electionComision==msg.sender */\n      0xffffffffffffffffffffffffffffffffffffffff\n      and\n        /* \"PROJECT/voting.sol\":969:985  electionComision */\n      0x00\n      dup1\n      sload\n      swap1\n      0x0100\n      exp\n      swap1\n      div\n      0xffffffffffffffffffffffffffffffffffffffff\n      and\n        /* \"PROJECT/voting.sol\":969:997  electionComision==msg.sender */\n      0xffffffffffffffffffffffffffffffffffffffff\n      and\n      eq\n        /* \"PROJECT/voting.sol\":961:1028  require(electionComision==msg.sender,\"Not from election Commision\") */\n      tag_79\n      jumpi\n      mload(0x40)\n      0x08c379a000000000000000000000000000000000000000000000000000000000\n      dup2\n      mstore\n      0x04\n      add\n      tag_80\n      swap1\n      tag_81\n      jump\t// in\n    tag_80:\n      mload(0x40)\n      dup1\n      swap2\n      sub\n      swap1\n      revert\n    tag_79:\n        /* \"PROJECT/voting.sol\":3734:3743  StartTime */\n      dup2\n        /* \"PROJECT/voting.sol\":3718:3733  block.timestamp */\n      timestamp\n        /* \"PROJECT/voting.sol\":3718:3743  block.timestamp+StartTime */\n      tag_83\n      swap2\n      swap1\n      tag_84\n      jump\t// in\n    tag_83:\n        /* \"PROJECT/voting.sol\":3708:3717  startTime */\n      0x04\n        /* \"PROJECT/voting.sol\":3708:3743  startTime=block.timestamp+StartTime */\n      dup2\n      swap1\n      sstore\n      pop\n        /* \"PROJECT/voting.sol\":3772:3779  EndTime */\n      dup1\n        /* \"PROJECT/voting.sol\":3762:3771  startTime */\n      sload(0x04)\n        /* \"PROJECT/voting.sol\":3762:3779  startTime+EndTime */\n      tag_85\n      swap2\n      swap1\n      tag_84\n      jump\t// in\n    tag_85:\n        /* \"PROJECT/voting.sol\":3754:3761  endTime */\n      0x05\n        /* \"PROJECT/voting.sol\":3754:3779  endTime=startTime+EndTime */\n      dup2\n      swap1\n      sstore\n      pop\n        /* \"PROJECT/voting.sol\":3801:3806  false */\n      0x00\n        /* \"PROJECT/voting.sol\":3790:3800  stopVoting */\n      0x08\n      0x00\n        /* \"PROJECT/voting.sol\":3790:3806  stopVoting=false */\n      0x0100\n      exp\n      dup2\n      sload\n      dup2\n      0xff\n      mul\n      not\n      and\n      swap1\n      dup4\n      iszero\n      iszero\n      mul\n      or\n      swap1\n      sstore\n      pop\n        /* \"PROJECT/voting.sol\":3627:3814  function VoteTime(uint StartTime,uint EndTime)external onlyCommisioner{... */\n      pop\n      pop\n      jump\t// out\n        /* \"PROJECT/voting.sol\":1910:2168  function candidateList() public view returns(Candidate[] memory){... */\n    tag_23:\n        /* \"PROJECT/voting.sol\":1955:1973  Candidate[] memory */\n      0x60\n        /* \"PROJECT/voting.sol\":1985:2007  Candidate[] memory arr */\n      0x00\n        /* \"PROJECT/voting.sol\":2024:2039  nextCandidateId */\n      sload(0x03)\n        /* \"PROJECT/voting.sol\":2008:2040  new Candidate[](nextCandidateId) */\n      0xffffffffffffffff\n      dup2\n      gt\n      iszero\n      tag_87\n      jumpi\n      tag_88\n      tag_52\n      jump\t// in\n    tag_88:\n    tag_87:\n      mload(0x40)\n      swap1\n      dup1\n      dup3\n      mstore\n      dup1\n      0x20\n      mul\n      0x20\n      add\n      dup3\n      add\n      0x40\n      mstore\n      dup1\n      iszero\n      tag_89\n      jumpi\n      dup2\n      0x20\n      add\n    tag_90:\n      tag_91\n      tag_92\n      jump\t// in\n    tag_91:\n      dup2\n      mstore\n      0x20\n      add\n      swap1\n      0x01\n      swap1\n      sub\n      swap1\n      dup2\n      tag_90\n      jumpi\n      swap1\n      pop\n    tag_89:\n      pop\n        /* \"PROJECT/voting.sol\":1985:2040  Candidate[] memory arr=new Candidate[](nextCandidateId) */\n      swap1\n      pop\n        /* \"PROJECT/voting.sol\":2055:2061  uint i */\n      0x00\n        /* \"PROJECT/voting.sol\":2062:2063  1 */\n      0x01\n        /* \"PROJECT/voting.sol\":2055:2063  uint i=1 */\n      swap1\n      pop\n        /* \"PROJECT/voting.sol\":2051:2140  for(uint i=1;i<nextCandidateId;i++){... */\n    tag_93:\n        /* \"PROJECT/voting.sol\":2066:2081  nextCandidateId */\n      sload(0x03)\n        /* \"PROJECT/voting.sol\":2064:2065  i */\n      dup2\n        /* \"PROJECT/voting.sol\":2064:2081  i<nextCandidateId */\n      lt\n        /* \"PROJECT/voting.sol\":2051:2140  for(uint i=1;i<nextCandidateId;i++){... */\n      iszero\n      tag_94\n      jumpi\n        /* \"PROJECT/voting.sol\":2109:2125  candidateDetails */\n      0x07\n        /* \"PROJECT/voting.sol\":2109:2128  candidateDetails[i] */\n      0x00\n        /* \"PROJECT/voting.sol\":2126:2127  i */\n      dup3\n        /* \"PROJECT/voting.sol\":2109:2128  candidateDetails[i] */\n      dup2\n      mstore\n      0x20\n      add\n      swap1\n      dup2\n      mstore\n      0x20\n      add\n      0x00\n      keccak256\n        /* \"PROJECT/voting.sol\":2100:2128  arr[i-1]=candidateDetails[i] */\n      mload(0x40)\n      dup1\n      0xe0\n      add\n      0x40\n      mstore\n      swap1\n      dup2\n      0x00\n      dup3\n      add\n      dup1\n      sload\n      tag_96\n      swap1\n      tag_61\n      jump\t// in\n    tag_96:\n      dup1\n      0x1f\n      add\n      0x20\n      dup1\n      swap2\n      div\n      mul\n      0x20\n      add\n      mload(0x40)\n      swap1\n      dup2\n      add\n      0x40\n      mstore\n      dup1\n      swap3\n      swap2\n      swap1\n      dup2\n      dup2\n      mstore\n      0x20\n      add\n      dup3\n      dup1\n      sload\n      tag_97\n      swap1\n      tag_61\n      jump\t// in\n    tag_97:\n      dup1\n      iszero\n      tag_98\n      jumpi\n      dup1\n      0x1f\n      lt\n      tag_99\n      jumpi\n      0x0100\n      dup1\n      dup4\n      sload\n      div\n      mul\n      dup4\n      mstore\n      swap2\n      0x20\n      add\n      swap2\n      jump(tag_98)\n    tag_99:\n      dup3\n      add\n      swap2\n      swap1\n      0x00\n      mstore\n      keccak256(0x00, 0x20)\n      swap1\n    tag_100:\n      dup2\n      sload\n      dup2\n      mstore\n      swap1\n      0x01\n      add\n      swap1\n      0x20\n      add\n      dup1\n      dup4\n      gt\n      tag_100\n      jumpi\n      dup3\n      swap1\n      sub\n      0x1f\n      and\n      dup3\n      add\n      swap2\n    tag_98:\n      pop\n      pop\n      pop\n      pop\n      pop\n      dup2\n      mstore\n      0x20\n      add\n      0x01\n      dup3\n      add\n      dup1\n      sload\n      tag_101\n      swap1\n      tag_61\n      jump\t// in\n    tag_101:\n      dup1\n      0x1f\n      add\n      0x20\n      dup1\n      swap2\n      div\n      mul\n      0x20\n      add\n      mload(0x40)\n      swap1\n      dup2\n      add\n      0x40\n      mstore\n      dup1\n      swap3\n      swap2\n      swap1\n      dup2\n      dup2\n      mstore\n      0x20\n      add\n      dup3\n      dup1\n      sload\n      tag_102\n      swap1\n      tag_61\n      jump\t// in\n    tag_102:\n      dup1\n      iszero\n      tag_103\n      jumpi\n      dup1\n      0x1f\n      lt\n      tag_104\n      jumpi\n      0x0100\n      dup1\n      dup4\n      sload\n      div\n      mul\n      dup4\n      mstore\n      swap2\n      0x20\n      add\n      swap2\n      jump(tag_103)\n    tag_104:\n      dup3\n      add\n      swap2\n      swap1\n      0x00\n      mstore\n      keccak256(0x00, 0x20)\n      swap1\n    tag_105:\n      dup2\n      sload\n      dup2\n      mstore\n      swap1\n      0x01\n      add\n      swap1\n      0x20\n      add\n      dup1\n      dup4\n      gt\n      tag_105\n      jumpi\n      dup3\n      swap1\n      sub\n      0x1f\n      and\n      dup3\n      add\n      swap2\n    tag_103:\n      pop\n      pop\n      pop\n      pop\n      pop\n      dup2\n      mstore\n      0x20\n      add\n      0x02\n      dup3\n      add\n      sload\n      dup2\n      mstore\n      0x20\n      add\n      0x03\n      dup3\n      add\n      dup1\n      sload\n      tag_106\n      swap1\n      tag_61\n      jump\t// in\n    tag_106:\n      dup1\n      0x1f\n      add\n      0x20\n      dup1\n      swap2\n      div\n      mul\n      0x20\n      add\n      mload(0x40)\n      swap1\n      dup2\n      add\n      0x40\n      mstore\n      dup1\n      swap3\n      swap2\n      swap1\n      dup2\n      dup2\n      mstore\n      0x20\n      add\n      dup3\n      dup1\n      sload\n      tag_107\n      swap1\n      tag_61\n      jump\t// in\n    tag_107:\n      dup1\n      iszero\n      tag_108\n      jumpi\n      dup1\n      0x1f\n      lt\n      tag_109\n      jumpi\n      0x0100\n      dup1\n      dup4\n      sload\n      div\n      mul\n      dup4\n      mstore\n      swap2\n      0x20\n      add\n      swap2\n      jump(tag_108)\n    tag_109:\n      dup3\n      add\n      swap2\n      swap1\n      0x00\n      mstore\n      keccak256(0x00, 0x20)\n      swap1\n    tag_110:\n      dup2\n      sload\n      dup2\n      mstore\n      swap1\n      0x01\n      add\n      swap1\n      0x20\n      add\n      dup1\n      dup4\n      gt\n      tag_110\n      jumpi\n      dup3\n      swap1\n      sub\n      0x1f\n      and\n      dup3\n      add\n      swap2\n    tag_108:\n      pop\n      pop\n      pop\n      pop\n      pop\n      dup2\n      mstore\n      0x20\n      add\n      0x04\n      dup3\n      add\n      sload\n      dup2\n      mstore\n      0x20\n      add\n      0x05\n      dup3\n      add\n      0x00\n      swap1\n      sload\n      swap1\n      0x0100\n      exp\n      swap1\n      div\n      0xffffffffffffffffffffffffffffffffffffffff\n      and\n      0xffffffffffffffffffffffffffffffffffffffff\n      and\n      0xffffffffffffffffffffffffffffffffffffffff\n      and\n      dup2\n      mstore\n      0x20\n      add\n      0x06\n      dup3\n      add\n      sload\n      dup2\n      mstore\n      pop\n      pop\n        /* \"PROJECT/voting.sol\":2100:2103  arr */\n      dup3\n        /* \"PROJECT/voting.sol\":2106:2107  1 */\n      0x01\n        /* \"PROJECT/voting.sol\":2104:2105  i */\n      dup4\n        /* \"PROJECT/voting.sol\":2104:2107  i-1 */\n      tag_111\n      swap2\n      swap1\n      tag_72\n      jump\t// in\n    tag_111:\n        /* \"PROJECT/voting.sol\":2100:2108  arr[i-1] */\n      dup2\n      mload\n      dup2\n      lt\n      tag_112\n      jumpi\n      tag_113\n      tag_75\n      jump\t// in\n    tag_113:\n    tag_112:\n      0x20\n      mul\n      0x20\n      add\n      add\n        /* \"PROJECT/voting.sol\":2100:2128  arr[i-1]=candidateDetails[i] */\n      dup2\n      swap1\n      mstore\n      pop\n        /* \"PROJECT/voting.sol\":2082:2085  i++ */\n      dup1\n      dup1\n      tag_114\n      swap1\n      tag_77\n      jump\t// in\n    tag_114:\n      swap2\n      pop\n      pop\n        /* \"PROJECT/voting.sol\":2051:2140  for(uint i=1;i<nextCandidateId;i++){... */\n      jump(tag_93)\n    tag_94:\n      pop\n        /* \"PROJECT/voting.sol\":2157:2160  arr */\n      dup1\n        /* \"PROJECT/voting.sol\":2150:2160  return arr */\n      swap2\n      pop\n      pop\n        /* \"PROJECT/voting.sol\":1910:2168  function candidateList() public view returns(Candidate[] memory){... */\n      swap1\n      jump\t// out\n        /* \"PROJECT/voting.sol\":3822:4154  function voting_status() public view returns( string memory){... */\n    tag_27:\n        /* \"PROJECT/voting.sol\":3868:3881  string memory */\n      0x60\n        /* \"PROJECT/voting.sol\":3907:3908  0 */\n      0x00\n        /* \"PROJECT/voting.sol\":3896:3905  startTime */\n      sload(0x04)\n        /* \"PROJECT/voting.sol\":3896:3908  startTime==0 */\n      sub\n        /* \"PROJECT/voting.sol\":3893:4136  if(startTime==0){... */\n      tag_116\n      jumpi\n        /* \"PROJECT/voting.sol\":3924:3951  return \"voting not started\" */\n      mload(0x40)\n      dup1\n      0x40\n      add\n      0x40\n      mstore\n      dup1\n      0x12\n      dup2\n      mstore\n      0x20\n      add\n      0x766f74696e67206e6f7420737461727465640000000000000000000000000000\n      dup2\n      mstore\n      pop\n      swap1\n      pop\n      jump(tag_115)\n        /* \"PROJECT/voting.sol\":3893:4136  if(startTime==0){... */\n    tag_116:\n        /* \"PROJECT/voting.sol\":3990:4005  block.timestamp */\n      timestamp\n        /* \"PROJECT/voting.sol\":3981:3988  endTime */\n      sload(0x05)\n        /* \"PROJECT/voting.sol\":3981:4005  endTime<=block.timestamp */\n      gt\n      iszero\n        /* \"PROJECT/voting.sol\":3981:4026  endTime<=block.timestamp && stopVoting==false */\n      dup1\n      iszero\n      tag_118\n      jumpi\n      pop\n        /* \"PROJECT/voting.sol\":4021:4026  false */\n      0x00\n        /* \"PROJECT/voting.sol\":4009:4026  stopVoting==false */\n      iszero\n      iszero\n        /* \"PROJECT/voting.sol\":4009:4019  stopVoting */\n      0x08\n      0x00\n      swap1\n      sload\n      swap1\n      0x0100\n      exp\n      swap1\n      div\n      0xff\n      and\n        /* \"PROJECT/voting.sol\":4009:4026  stopVoting==false */\n      iszero\n      iszero\n      eq\n        /* \"PROJECT/voting.sol\":3981:4026  endTime<=block.timestamp && stopVoting==false */\n    tag_118:\n        /* \"PROJECT/voting.sol\":3981:4042  endTime<=block.timestamp && stopVoting==false && startTime!=0 */\n      dup1\n      iszero\n      tag_119\n      jumpi\n      pop\n        /* \"PROJECT/voting.sol\":4041:4042  0 */\n      0x00\n        /* \"PROJECT/voting.sol\":4030:4039  startTime */\n      sload(0x04)\n        /* \"PROJECT/voting.sol\":4030:4042  startTime!=0 */\n      eq\n      iszero\n        /* \"PROJECT/voting.sol\":3981:4042  endTime<=block.timestamp && stopVoting==false && startTime!=0 */\n    tag_119:\n        /* \"PROJECT/voting.sol\":3978:4136  if(endTime<=block.timestamp && stopVoting==false && startTime!=0){... */\n      iszero\n      tag_120\n      jumpi\n        /* \"PROJECT/voting.sol\":4058:4085  return \"voting in progress\" */\n      mload(0x40)\n      dup1\n      0x40\n      add\n      0x40\n      mstore\n      dup1\n      0x12\n      dup2\n      mstore\n      0x20\n      add\n      0x766f74696e6720696e2070726f67726573730000000000000000000000000000\n      dup2\n      mstore\n      pop\n      swap1\n      pop\n      jump(tag_115)\n        /* \"PROJECT/voting.sol\":3978:4136  if(endTime<=block.timestamp && stopVoting==false && startTime!=0){... */\n    tag_120:\n        /* \"PROJECT/voting.sol\":4113:4136  return \"voting is over\" */\n      mload(0x40)\n      dup1\n      0x40\n      add\n      0x40\n      mstore\n      dup1\n      0x0e\n      dup2\n      mstore\n      0x20\n      add\n      0x766f74696e67206973206f766572000000000000000000000000000000000000\n      dup2\n      mstore\n      pop\n      swap1\n      pop\n        /* \"PROJECT/voting.sol\":3822:4154  function voting_status() public view returns( string memory){... */\n    tag_115:\n      swap1\n      jump\t// out\n        /* \"PROJECT/voting.sol\":4160:4447  function result() external onlyCommisioner() isVotingOver(){... */\n    tag_31:\n        /* \"PROJECT/voting.sol\":987:997  msg.sender */\n      caller\n        /* \"PROJECT/voting.sol\":969:997  electionComision==msg.sender */\n      0xffffffffffffffffffffffffffffffffffffffff\n      and\n        /* \"PROJECT/voting.sol\":969:985  electionComision */\n      0x00\n      dup1\n      sload\n      swap1\n      0x0100\n      exp\n      swap1\n      div\n      0xffffffffffffffffffffffffffffffffffffffff\n      and\n        /* \"PROJECT/voting.sol\":969:997  electionComision==msg.sender */\n      0xffffffffffffffffffffffffffffffffffffffff\n      and\n      eq\n        /* \"PROJECT/voting.sol\":961:1028  require(electionComision==msg.sender,\"Not from election Commision\") */\n      tag_123\n      jumpi\n      mload(0x40)\n      0x08c379a000000000000000000000000000000000000000000000000000000000\n      dup2\n      mstore\n      0x04\n      add\n      tag_124\n      swap1\n      tag_81\n      jump\t// in\n    tag_124:\n      mload(0x40)\n      dup1\n      swap2\n      sub\n      swap1\n      revert\n    tag_123:\n        /* \"PROJECT/voting.sol\":851:866  block.timestamp */\n      timestamp\n        /* \"PROJECT/voting.sol\":843:850  endTime */\n      sload(0x05)\n        /* \"PROJECT/voting.sol\":843:866  endTime>block.timestamp */\n      gt\n        /* \"PROJECT/voting.sol\":843:880  endTime>block.timestamp || stopVoting */\n      dup1\n      tag_126\n      jumpi\n      pop\n        /* \"PROJECT/voting.sol\":870:880  stopVoting */\n      0x08\n      0x00\n      swap1\n      sload\n      swap1\n      0x0100\n      exp\n      swap1\n      div\n      0xff\n      and\n        /* \"PROJECT/voting.sol\":843:880  endTime>block.timestamp || stopVoting */\n    tag_126:\n        /* \"PROJECT/voting.sol\":835:898  require(endTime>block.timestamp || stopVoting,\"voting is over\") */\n      tag_127\n      jumpi\n      mload(0x40)\n      0x08c379a000000000000000000000000000000000000000000000000000000000\n      dup2\n      mstore\n      0x04\n      add\n      tag_128\n      swap1\n      tag_129\n      jump\t// in\n    tag_128:\n      mload(0x40)\n      dup1\n      swap2\n      sub\n      swap1\n      revert\n    tag_127:\n        /* \"PROJECT/voting.sol\":4259:4275  candidateDetails */\n      0x07\n        /* \"PROJECT/voting.sol\":4259:4278  candidateDetails[2] */\n      0x00\n        /* \"PROJECT/voting.sol\":4276:4277  2 */\n      0x02\n        /* \"PROJECT/voting.sol\":4259:4278  candidateDetails[2] */\n      dup2\n      mstore\n      0x20\n      add\n      swap1\n      dup2\n      mstore\n      0x20\n      add\n      0x00\n      keccak256\n        /* \"PROJECT/voting.sol\":4259:4284  candidateDetails[2].votes */\n      0x06\n      add\n      sload\n        /* \"PROJECT/voting.sol\":4233:4249  candidateDetails */\n      0x07\n        /* \"PROJECT/voting.sol\":4233:4252  candidateDetails[1] */\n      0x00\n        /* \"PROJECT/voting.sol\":4250:4251  1 */\n      0x01\n        /* \"PROJECT/voting.sol\":4233:4252  candidateDetails[1] */\n      dup2\n      mstore\n      0x20\n      add\n      swap1\n      dup2\n      mstore\n      0x20\n      add\n      0x00\n      keccak256\n        /* \"PROJECT/voting.sol\":4233:4258  candidateDetails[1].votes */\n      0x06\n      add\n      sload\n        /* \"PROJECT/voting.sol\":4233:4284  candidateDetails[1].votes>candidateDetails[2].votes */\n      gt\n        /* \"PROJECT/voting.sol\":4230:4440  if(candidateDetails[1].votes>candidateDetails[2].votes){... */\n      iszero\n      tag_131\n      jumpi\n        /* \"PROJECT/voting.sol\":4307:4323  candidateDetails */\n      0x07\n        /* \"PROJECT/voting.sol\":4307:4326  candidateDetails[1] */\n      0x00\n        /* \"PROJECT/voting.sol\":4324:4325  1 */\n      0x01\n        /* \"PROJECT/voting.sol\":4307:4326  candidateDetails[1] */\n      dup2\n      mstore\n      0x20\n      add\n      swap1\n      dup2\n      mstore\n      0x20\n      add\n      0x00\n      keccak256\n        /* \"PROJECT/voting.sol\":4307:4343  candidateDetails[1].candidateAddress */\n      0x05\n      add\n      0x00\n      swap1\n      sload\n      swap1\n      0x0100\n      exp\n      swap1\n      div\n      0xffffffffffffffffffffffffffffffffffffffff\n      and\n        /* \"PROJECT/voting.sol\":4300:4306  winner */\n      0x01\n      0x00\n        /* \"PROJECT/voting.sol\":4300:4343  winner=candidateDetails[1].candidateAddress */\n      0x0100\n      exp\n      dup2\n      sload\n      dup2\n      0xffffffffffffffffffffffffffffffffffffffff\n      mul\n      not\n      and\n      swap1\n      dup4\n      0xffffffffffffffffffffffffffffffffffffffff\n      and\n      mul\n      or\n      swap1\n      sstore\n      pop\n        /* \"PROJECT/voting.sol\":4230:4440  if(candidateDetails[1].votes>candidateDetails[2].votes){... */\n      jump(tag_132)\n    tag_131:\n        /* \"PROJECT/voting.sol\":4392:4408  candidateDetails */\n      0x07\n        /* \"PROJECT/voting.sol\":4392:4411  candidateDetails[2] */\n      0x00\n        /* \"PROJECT/voting.sol\":4409:4410  2 */\n      0x02\n        /* \"PROJECT/voting.sol\":4392:4411  candidateDetails[2] */\n      dup2\n      mstore\n      0x20\n      add\n      swap1\n      dup2\n      mstore\n      0x20\n      add\n      0x00\n      keccak256\n        /* \"PROJECT/voting.sol\":4392:4428  candidateDetails[2].candidateAddress */\n      0x05\n      add\n      0x00\n      swap1\n      sload\n      swap1\n      0x0100\n      exp\n      swap1\n      div\n      0xffffffffffffffffffffffffffffffffffffffff\n      and\n        /* \"PROJECT/voting.sol\":4385:4391  winner */\n      0x01\n      0x00\n        /* \"PROJECT/voting.sol\":4385:4428  winner=candidateDetails[2].candidateAddress */\n      0x0100\n      exp\n      dup2\n      sload\n      dup2\n      0xffffffffffffffffffffffffffffffffffffffff\n      mul\n      not\n      and\n      swap1\n      dup4\n      0xffffffffffffffffffffffffffffffffffffffff\n      and\n      mul\n      or\n      swap1\n      sstore\n      pop\n        /* \"PROJECT/voting.sol\":4230:4440  if(candidateDetails[1].votes>candidateDetails[2].votes){... */\n    tag_132:\n        /* \"PROJECT/voting.sol\":4160:4447  function result() external onlyCommisioner() isVotingOver(){... */\n      jump\t// out\n        /* \"PROJECT/voting.sol\":2176:2526  function voterRegister(string calldata _name,uint _age,string calldata _gender) public {... */\n    tag_35:\n        /* \"PROJECT/voting.sol\":2288:2290  18 */\n      0x12\n        /* \"PROJECT/voting.sol\":2282:2286  _age */\n      dup4\n        /* \"PROJECT/voting.sol\":2282:2290  _age>=18 */\n      lt\n      iszero\n        /* \"PROJECT/voting.sol\":2274:2325  require(_age>=18,\"you are not elegible for voting\") */\n      tag_134\n      jumpi\n      mload(0x40)\n      0x08c379a000000000000000000000000000000000000000000000000000000000\n      dup2\n      mstore\n      0x04\n      add\n      tag_135\n      swap1\n      tag_136\n      jump\t// in\n    tag_135:\n      mload(0x40)\n      dup1\n      swap2\n      sub\n      swap1\n      revert\n    tag_134:\n        /* \"PROJECT/voting.sol\":2375:2379  true */\n      0x01\n        /* \"PROJECT/voting.sol\":2344:2379  VoterVerification(msg.sender)==true */\n      iszero\n      iszero\n        /* \"PROJECT/voting.sol\":2344:2373  VoterVerification(msg.sender) */\n      tag_137\n        /* \"PROJECT/voting.sol\":2362:2372  msg.sender */\n      caller\n        /* \"PROJECT/voting.sol\":2344:2361  VoterVerification */\n      tag_138\n        /* \"PROJECT/voting.sol\":2344:2373  VoterVerification(msg.sender) */\n      jump\t// in\n    tag_137:\n        /* \"PROJECT/voting.sol\":2344:2379  VoterVerification(msg.sender)==true */\n      iszero\n      iszero\n      eq\n        /* \"PROJECT/voting.sol\":2336:2405  require(VoterVerification(msg.sender)==true,\"voter already register\") */\n      tag_139\n      jumpi\n      mload(0x40)\n      0x08c379a000000000000000000000000000000000000000000000000000000000\n      dup2\n      mstore\n      0x04\n      add\n      tag_140\n      swap1\n      tag_141\n      jump\t// in\n    tag_140:\n      mload(0x40)\n      dup1\n      swap2\n      sub\n      swap1\n      revert\n    tag_139:\n        /* \"PROJECT/voting.sol\":2442:2492  Voter(_name,_age,nextVoterId,_gender,0,msg.sender) */\n      mload(0x40)\n      dup1\n      0xc0\n      add\n      0x40\n      mstore\n      dup1\n        /* \"PROJECT/voting.sol\":2448:2453  _name */\n      dup7\n      dup7\n        /* \"PROJECT/voting.sol\":2442:2492  Voter(_name,_age,nextVoterId,_gender,0,msg.sender) */\n      dup1\n      dup1\n      0x1f\n      add\n      0x20\n      dup1\n      swap2\n      div\n      mul\n      0x20\n      add\n      mload(0x40)\n      swap1\n      dup2\n      add\n      0x40\n      mstore\n      dup1\n      swap4\n      swap3\n      swap2\n      swap1\n      dup2\n      dup2\n      mstore\n      0x20\n      add\n      dup4\n      dup4\n      dup1\n      dup3\n      dup5\n      calldatacopy\n      0x00\n      dup2\n      dup5\n      add\n      mstore\n      not(0x1f)\n      0x1f\n      dup3\n      add\n      and\n      swap1\n      pop\n      dup1\n      dup4\n      add\n      swap3\n      pop\n      pop\n      pop\n      pop\n      pop\n      pop\n      pop\n      dup2\n      mstore\n      0x20\n      add\n        /* \"PROJECT/voting.sol\":2454:2458  _age */\n      dup5\n        /* \"PROJECT/voting.sol\":2442:2492  Voter(_name,_age,nextVoterId,_gender,0,msg.sender) */\n      dup2\n      mstore\n      0x20\n      add\n        /* \"PROJECT/voting.sol\":2459:2470  nextVoterId */\n      sload(0x02)\n        /* \"PROJECT/voting.sol\":2442:2492  Voter(_name,_age,nextVoterId,_gender,0,msg.sender) */\n      dup2\n      mstore\n      0x20\n      add\n        /* \"PROJECT/voting.sol\":2471:2478  _gender */\n      dup4\n      dup4\n        /* \"PROJECT/voting.sol\":2442:2492  Voter(_name,_age,nextVoterId,_gender,0,msg.sender) */\n      dup1\n      dup1\n      0x1f\n      add\n      0x20\n      dup1\n      swap2\n      div\n      mul\n      0x20\n      add\n      mload(0x40)\n      swap1\n      dup2\n      add\n      0x40\n      mstore\n      dup1\n      swap4\n      swap3\n      swap2\n      swap1\n      dup2\n      dup2\n      mstore\n      0x20\n      add\n      dup4\n      dup4\n      dup1\n      dup3\n      dup5\n      calldatacopy\n      0x00\n      dup2\n      dup5\n      add\n      mstore\n      not(0x1f)\n      0x1f\n      dup3\n      add\n      and\n      swap1\n      pop\n      dup1\n      dup4\n      add\n      swap3\n      pop\n      pop\n      pop\n      pop\n      pop\n      pop\n      pop\n      dup2\n      mstore\n      0x20\n      add\n        /* \"PROJECT/voting.sol\":2479:2480  0 */\n      0x00\n        /* \"PROJECT/voting.sol\":2442:2492  Voter(_name,_age,nextVoterId,_gender,0,msg.sender) */\n      dup2\n      mstore\n      0x20\n      add\n        /* \"PROJECT/voting.sol\":2481:2491  msg.sender */\n      caller\n        /* \"PROJECT/voting.sol\":2442:2492  Voter(_name,_age,nextVoterId,_gender,0,msg.sender) */\n      0xffffffffffffffffffffffffffffffffffffffff\n      and\n      dup2\n      mstore\n      pop\n        /* \"PROJECT/voting.sol\":2416:2428  voterDetails */\n      0x06\n        /* \"PROJECT/voting.sol\":2416:2441  voterDetails[nextVoterId] */\n      0x00\n        /* \"PROJECT/voting.sol\":2429:2440  nextVoterId */\n      sload(0x02)\n        /* \"PROJECT/voting.sol\":2416:2441  voterDetails[nextVoterId] */\n      dup2\n      mstore\n      0x20\n      add\n      swap1\n      dup2\n      mstore\n      0x20\n      add\n      0x00\n      keccak256\n        /* \"PROJECT/voting.sol\":2416:2492  voterDetails[nextVoterId]=Voter(_name,_age,nextVoterId,_gender,0,msg.sender) */\n      0x00\n      dup3\n      add\n      mload\n      dup2\n      0x00\n      add\n      swap1\n      dup2\n      tag_142\n      swap2\n      swap1\n      tag_143\n      jump\t// in\n    tag_142:\n      pop\n      0x20\n      dup3\n      add\n      mload\n      dup2\n      0x01\n      add\n      sstore\n      0x40\n      dup3\n      add\n      mload\n      dup2\n      0x02\n      add\n      sstore\n      0x60\n      dup3\n      add\n      mload\n      dup2\n      0x03\n      add\n      swap1\n      dup2\n      tag_144\n      swap2\n      swap1\n      tag_143\n      jump\t// in\n    tag_144:\n      pop\n      0x80\n      dup3\n      add\n      mload\n      dup2\n      0x04\n      add\n      sstore\n      0xa0\n      dup3\n      add\n      mload\n      dup2\n      0x05\n      add\n      exp(0x0100, 0x00)\n      dup2\n      sload\n      dup2\n      0xffffffffffffffffffffffffffffffffffffffff\n      mul\n      not\n      and\n      swap1\n      dup4\n      0xffffffffffffffffffffffffffffffffffffffff\n      and\n      mul\n      or\n      swap1\n      sstore\n      pop\n      swap1\n      pop\n      pop\n        /* \"PROJECT/voting.sol\":2503:2514  nextVoterId */\n      0x02\n      0x00\n        /* \"PROJECT/voting.sol\":2503:2516  nextVoterId++ */\n      dup2\n      sload\n      dup1\n      swap3\n      swap2\n      swap1\n      tag_145\n      swap1\n      tag_77\n      jump\t// in\n    tag_145:\n      swap2\n      swap1\n      pop\n      sstore\n      pop\n        /* \"PROJECT/voting.sol\":2176:2526  function voterRegister(string calldata _name,uint _age,string calldata _gender) public {... */\n      pop\n      pop\n      pop\n      pop\n      pop\n      jump\t// out\n        /* \"PROJECT/voting.sol\":3032:3619  function vote(uint _voterId,uint _CandidateId) external  isVotingOver{... */\n    tag_38:\n        /* \"PROJECT/voting.sol\":851:866  block.timestamp */\n      timestamp\n        /* \"PROJECT/voting.sol\":843:850  endTime */\n      sload(0x05)\n        /* \"PROJECT/voting.sol\":843:866  endTime>block.timestamp */\n      gt\n        /* \"PROJECT/voting.sol\":843:880  endTime>block.timestamp || stopVoting */\n      dup1\n      tag_147\n      jumpi\n      pop\n        /* \"PROJECT/voting.sol\":870:880  stopVoting */\n      0x08\n      0x00\n      swap1\n      sload\n      swap1\n      0x0100\n      exp\n      swap1\n      div\n      0xff\n      and\n        /* \"PROJECT/voting.sol\":843:880  endTime>block.timestamp || stopVoting */\n    tag_147:\n        /* \"PROJECT/voting.sol\":835:898  require(endTime>block.timestamp || stopVoting,\"voting is over\") */\n      tag_148\n      jumpi\n      mload(0x40)\n      0x08c379a000000000000000000000000000000000000000000000000000000000\n      dup2\n      mstore\n      0x04\n      add\n      tag_149\n      swap1\n      tag_129\n      jump\t// in\n    tag_149:\n      mload(0x40)\n      dup1\n      swap2\n      sub\n      swap1\n      revert\n    tag_148:\n        /* \"PROJECT/voting.sol\":3160:3161  0 */\n      0x00\n        /* \"PROJECT/voting.sol\":3120:3132  voterDetails */\n      0x06\n        /* \"PROJECT/voting.sol\":3120:3142  voterDetails[_voterId] */\n      0x00\n        /* \"PROJECT/voting.sol\":3133:3141  _voterId */\n      dup5\n        /* \"PROJECT/voting.sol\":3120:3142  voterDetails[_voterId] */\n      dup2\n      mstore\n      0x20\n      add\n      swap1\n      dup2\n      mstore\n      0x20\n      add\n      0x00\n      keccak256\n        /* \"PROJECT/voting.sol\":3120:3158  voterDetails[_voterId].voteCandidateId */\n      0x04\n      add\n      sload\n        /* \"PROJECT/voting.sol\":3120:3161  voterDetails[_voterId].voteCandidateId==0 */\n      eq\n        /* \"PROJECT/voting.sol\":3112:3179  require(voterDetails[_voterId].voteCandidateId==0, \"already voted\") */\n      tag_151\n      jumpi\n      mload(0x40)\n      0x08c379a000000000000000000000000000000000000000000000000000000000\n      dup2\n      mstore\n      0x04\n      add\n      tag_152\n      swap1\n      tag_153\n      jump\t// in\n    tag_152:\n      mload(0x40)\n      dup1\n      swap2\n      sub\n      swap1\n      revert\n    tag_151:\n        /* \"PROJECT/voting.sol\":3235:3245  msg.sender */\n      caller\n        /* \"PROJECT/voting.sol\":3198:3245  voterDetails[_voterId].voterAddress==msg.sender */\n      0xffffffffffffffffffffffffffffffffffffffff\n      and\n        /* \"PROJECT/voting.sol\":3198:3210  voterDetails */\n      0x06\n        /* \"PROJECT/voting.sol\":3198:3220  voterDetails[_voterId] */\n      0x00\n        /* \"PROJECT/voting.sol\":3211:3219  _voterId */\n      dup5\n        /* \"PROJECT/voting.sol\":3198:3220  voterDetails[_voterId] */\n      dup2\n      mstore\n      0x20\n      add\n      swap1\n      dup2\n      mstore\n      0x20\n      add\n      0x00\n      keccak256\n        /* \"PROJECT/voting.sol\":3198:3233  voterDetails[_voterId].voterAddress */\n      0x05\n      add\n      0x00\n      swap1\n      sload\n      swap1\n      0x0100\n      exp\n      swap1\n      div\n      0xffffffffffffffffffffffffffffffffffffffff\n      and\n        /* \"PROJECT/voting.sol\":3198:3245  voterDetails[_voterId].voterAddress==msg.sender */\n      0xffffffffffffffffffffffffffffffffffffffff\n      and\n      eq\n        /* \"PROJECT/voting.sol\":3190:3292  require(voterDetails[_voterId].voterAddress==msg.sender,\"check You VoterId or you are not registered\") */\n      tag_154\n      jumpi\n      mload(0x40)\n      0x08c379a000000000000000000000000000000000000000000000000000000000\n      dup2\n      mstore\n      0x04\n      add\n      tag_155\n      swap1\n      tag_156\n      jump\t// in\n    tag_155:\n      mload(0x40)\n      dup1\n      swap2\n      sub\n      swap1\n      revert\n    tag_154:\n        /* \"PROJECT/voting.sol\":3322:3323  0 */\n      0x00\n        /* \"PROJECT/voting.sol\":3311:3320  startTime */\n      sload(0x04)\n        /* \"PROJECT/voting.sol\":3311:3323  startTime!=0 */\n      sub\n        /* \"PROJECT/voting.sol\":3303:3345  require(startTime!=0,\"voting not started\") */\n      tag_157\n      jumpi\n      mload(0x40)\n      0x08c379a000000000000000000000000000000000000000000000000000000000\n      dup2\n      mstore\n      0x04\n      add\n      tag_158\n      swap1\n      tag_159\n      jump\t// in\n    tag_158:\n      mload(0x40)\n      dup1\n      swap2\n      sub\n      swap1\n      revert\n    tag_157:\n        /* \"PROJECT/voting.sol\":3381:3382  3 */\n      0x03\n        /* \"PROJECT/voting.sol\":3364:3379  nextCandidateId */\n      dup1\n      sload\n        /* \"PROJECT/voting.sol\":3364:3382  nextCandidateId==3 */\n      eq\n        /* \"PROJECT/voting.sol\":3356:3425  require(nextCandidateId==3,\"candidate registration has not done yet\") */\n      tag_160\n      jumpi\n      mload(0x40)\n      0x08c379a000000000000000000000000000000000000000000000000000000000\n      dup2\n      mstore\n      0x04\n      add\n      tag_161\n      swap1\n      tag_162\n      jump\t// in\n    tag_161:\n      mload(0x40)\n      dup1\n      swap2\n      sub\n      swap1\n      revert\n    tag_160:\n        /* \"PROJECT/voting.sol\":3457:3458  0 */\n      0x00\n        /* \"PROJECT/voting.sol\":3444:3456  _CandidateId */\n      dup2\n        /* \"PROJECT/voting.sol\":3444:3458  _CandidateId>0 */\n      gt\n        /* \"PROJECT/voting.sol\":3444:3476  _CandidateId>0 && _CandidateId<3 */\n      dup1\n      iszero\n      tag_163\n      jumpi\n      pop\n        /* \"PROJECT/voting.sol\":3475:3476  3 */\n      0x03\n        /* \"PROJECT/voting.sol\":3462:3474  _CandidateId */\n      dup2\n        /* \"PROJECT/voting.sol\":3462:3476  _CandidateId<3 */\n      lt\n        /* \"PROJECT/voting.sol\":3444:3476  _CandidateId>0 && _CandidateId<3 */\n    tag_163:\n        /* \"PROJECT/voting.sol\":3436:3500  require(_CandidateId>0 && _CandidateId<3,\"invalid candidate Id\") */\n      tag_164\n      jumpi\n      mload(0x40)\n      0x08c379a000000000000000000000000000000000000000000000000000000000\n      dup2\n      mstore\n      0x04\n      add\n      tag_165\n      swap1\n      tag_166\n      jump\t// in\n    tag_165:\n      mload(0x40)\n      dup1\n      swap2\n      sub\n      swap1\n      revert\n    tag_164:\n        /* \"PROJECT/voting.sol\":3550:3562  _CandidateId */\n      dup1\n        /* \"PROJECT/voting.sol\":3511:3523  voterDetails */\n      0x06\n        /* \"PROJECT/voting.sol\":3511:3533  voterDetails[_voterId] */\n      0x00\n        /* \"PROJECT/voting.sol\":3524:3532  _voterId */\n      dup5\n        /* \"PROJECT/voting.sol\":3511:3533  voterDetails[_voterId] */\n      dup2\n      mstore\n      0x20\n      add\n      swap1\n      dup2\n      mstore\n      0x20\n      add\n      0x00\n      keccak256\n        /* \"PROJECT/voting.sol\":3511:3549  voterDetails[_voterId].voteCandidateId */\n      0x04\n      add\n        /* \"PROJECT/voting.sol\":3511:3562  voterDetails[_voterId].voteCandidateId=_CandidateId */\n      dup2\n      swap1\n      sstore\n      pop\n        /* \"PROJECT/voting.sol\":3573:3589  candidateDetails */\n      0x07\n        /* \"PROJECT/voting.sol\":3573:3603  candidateDetails[_CandidateId] */\n      0x00\n        /* \"PROJECT/voting.sol\":3590:3602  _CandidateId */\n      dup3\n        /* \"PROJECT/voting.sol\":3573:3603  candidateDetails[_CandidateId] */\n      dup2\n      mstore\n      0x20\n      add\n      swap1\n      dup2\n      mstore\n      0x20\n      add\n      0x00\n      keccak256\n        /* \"PROJECT/voting.sol\":3573:3609  candidateDetails[_CandidateId].votes */\n      0x06\n      add\n      0x00\n        /* \"PROJECT/voting.sol\":3573:3611  candidateDetails[_CandidateId].votes++ */\n      dup2\n      sload\n      dup1\n      swap3\n      swap2\n      swap1\n      tag_167\n      swap1\n      tag_77\n      jump\t// in\n    tag_167:\n      swap2\n      swap1\n      pop\n      sstore\n      pop\n        /* \"PROJECT/voting.sol\":3032:3619  function vote(uint _voterId,uint _CandidateId) external  isVotingOver{... */\n      pop\n      pop\n      jump\t// out\n        /* \"PROJECT/voting.sol\":4455:4536  function emergency() public onlyCommisioner(){... */\n    tag_40:\n        /* \"PROJECT/voting.sol\":987:997  msg.sender */\n      caller\n        /* \"PROJECT/voting.sol\":969:997  electionComision==msg.sender */\n      0xffffffffffffffffffffffffffffffffffffffff\n      and\n        /* \"PROJECT/voting.sol\":969:985  electionComision */\n      0x00\n      dup1\n      sload\n      swap1\n      0x0100\n      exp\n      swap1\n      div\n      0xffffffffffffffffffffffffffffffffffffffff\n      and\n        /* \"PROJECT/voting.sol\":969:997  electionComision==msg.sender */\n      0xffffffffffffffffffffffffffffffffffffffff\n      and\n      eq\n        /* \"PROJECT/voting.sol\":961:1028  require(electionComision==msg.sender,\"Not from election Commision\") */\n      tag_169\n      jumpi\n      mload(0x40)\n      0x08c379a000000000000000000000000000000000000000000000000000000000\n      dup2\n      mstore\n      0x04\n      add\n      tag_170\n      swap1\n      tag_81\n      jump\t// in\n    tag_170:\n      mload(0x40)\n      dup1\n      swap2\n      sub\n      swap1\n      revert\n    tag_169:\n        /* \"PROJECT/voting.sol\":4522:4526  true */\n      0x01\n        /* \"PROJECT/voting.sol\":4511:4521  stopVoting */\n      0x08\n      0x00\n        /* \"PROJECT/voting.sol\":4511:4526  stopVoting=true */\n      0x0100\n      exp\n      dup2\n      sload\n      dup2\n      0xff\n      mul\n      not\n      and\n      swap1\n      dup4\n      iszero\n      iszero\n      mul\n      or\n      swap1\n      sstore\n      pop\n        /* \"PROJECT/voting.sol\":4455:4536  function emergency() public onlyCommisioner(){... */\n      jump\t// out\n        /* \"PROJECT/voting.sol\":1054:1626  function candidateRegister(string calldata _name,string calldata _party,uint _age,string calldata _gender) public {... */\n    tag_44:\n        /* \"PROJECT/voting.sol\":1199:1215  electionComision */\n      0x00\n      dup1\n      sload\n      swap1\n      0x0100\n      exp\n      swap1\n      div\n      0xffffffffffffffffffffffffffffffffffffffff\n      and\n        /* \"PROJECT/voting.sol\":1187:1215  msg.sender!=electionComision */\n      0xffffffffffffffffffffffffffffffffffffffff\n      and\n        /* \"PROJECT/voting.sol\":1187:1197  msg.sender */\n      caller\n        /* \"PROJECT/voting.sol\":1187:1215  msg.sender!=electionComision */\n      0xffffffffffffffffffffffffffffffffffffffff\n      and\n      sub\n        /* \"PROJECT/voting.sol\":1179:1274  require(msg.sender!=electionComision,\"You're election commission and you can't be a candidate\") */\n      tag_173\n      jumpi\n      mload(0x40)\n      0x08c379a000000000000000000000000000000000000000000000000000000000\n      dup2\n      mstore\n      0x04\n      add\n      tag_174\n      swap1\n      tag_175\n      jump\t// in\n    tag_174:\n      mload(0x40)\n      dup1\n      swap2\n      sub\n      swap1\n      revert\n    tag_173:\n        /* \"PROJECT/voting.sol\":1328:1332  true */\n      0x01\n        /* \"PROJECT/voting.sol\":1293:1332  candidateVarification(msg.sender)==true */\n      iszero\n      iszero\n        /* \"PROJECT/voting.sol\":1293:1326  candidateVarification(msg.sender) */\n      tag_176\n        /* \"PROJECT/voting.sol\":1315:1325  msg.sender */\n      caller\n        /* \"PROJECT/voting.sol\":1293:1314  candidateVarification */\n      tag_177\n        /* \"PROJECT/voting.sol\":1293:1326  candidateVarification(msg.sender) */\n      jump\t// in\n    tag_176:\n        /* \"PROJECT/voting.sol\":1293:1332  candidateVarification(msg.sender)==true */\n      iszero\n      iszero\n      eq\n        /* \"PROJECT/voting.sol\":1285:1362  require(candidateVarification(msg.sender)==true,\"candidate alreday register\") */\n      tag_178\n      jumpi\n      mload(0x40)\n      0x08c379a000000000000000000000000000000000000000000000000000000000\n      dup2\n      mstore\n      0x04\n      add\n      tag_179\n      swap1\n      tag_180\n      jump\t// in\n    tag_179:\n      mload(0x40)\n      dup1\n      swap2\n      sub\n      swap1\n      revert\n    tag_178:\n        /* \"PROJECT/voting.sol\":1387:1389  18 */\n      0x12\n        /* \"PROJECT/voting.sol\":1381:1385  _age */\n      dup4\n        /* \"PROJECT/voting.sol\":1381:1389  _age>=18 */\n      lt\n      iszero\n        /* \"PROJECT/voting.sol\":1373:1413  require(_age>=18,\"you are not eligible\") */\n      tag_181\n      jumpi\n      mload(0x40)\n      0x08c379a000000000000000000000000000000000000000000000000000000000\n      dup2\n      mstore\n      0x04\n      add\n      tag_182\n      swap1\n      tag_183\n      jump\t// in\n    tag_182:\n      mload(0x40)\n      dup1\n      swap2\n      sub\n      swap1\n      revert\n    tag_181:\n        /* \"PROJECT/voting.sol\":1448:1449  3 */\n      0x03\n        /* \"PROJECT/voting.sol\":1432:1447  nextCandidateId */\n      dup1\n      sload\n        /* \"PROJECT/voting.sol\":1432:1449  nextCandidateId<3 */\n      lt\n        /* \"PROJECT/voting.sol\":1424:1480  require(nextCandidateId<3,\"candidate registration full\") */\n      tag_184\n      jumpi\n      mload(0x40)\n      0x08c379a000000000000000000000000000000000000000000000000000000000\n      dup2\n      mstore\n      0x04\n      add\n      tag_185\n      swap1\n      tag_186\n      jump\t// in\n    tag_185:\n      mload(0x40)\n      dup1\n      swap2\n      sub\n      swap1\n      revert\n    tag_184:\n        /* \"PROJECT/voting.sol\":1525:1590  Candidate(_name,_party,_age,_gender,nextCandidateId,msg.sender,0) */\n      mload(0x40)\n      dup1\n      0xe0\n      add\n      0x40\n      mstore\n      dup1\n        /* \"PROJECT/voting.sol\":1535:1540  _name */\n      dup9\n      dup9\n        /* \"PROJECT/voting.sol\":1525:1590  Candidate(_name,_party,_age,_gender,nextCandidateId,msg.sender,0) */\n      dup1\n      dup1\n      0x1f\n      add\n      0x20\n      dup1\n      swap2\n      div\n      mul\n      0x20\n      add\n      mload(0x40)\n      swap1\n      dup2\n      add\n      0x40\n      mstore\n      dup1\n      swap4\n      swap3\n      swap2\n      swap1\n      dup2\n      dup2\n      mstore\n      0x20\n      add\n      dup4\n      dup4\n      dup1\n      dup3\n      dup5\n      calldatacopy\n      0x00\n      dup2\n      dup5\n      add\n      mstore\n      not(0x1f)\n      0x1f\n      dup3\n      add\n      and\n      swap1\n      pop\n      dup1\n      dup4\n      add\n      swap3\n      pop\n      pop\n      pop\n      pop\n      pop\n      pop\n      pop\n      dup2\n      mstore\n      0x20\n      add\n        /* \"PROJECT/voting.sol\":1541:1547  _party */\n      dup7\n      dup7\n        /* \"PROJECT/voting.sol\":1525:1590  Candidate(_name,_party,_age,_gender,nextCandidateId,msg.sender,0) */\n      dup1\n      dup1\n      0x1f\n      add\n      0x20\n      dup1\n      swap2\n      div\n      mul\n      0x20\n      add\n      mload(0x40)\n      swap1\n      dup2\n      add\n      0x40\n      mstore\n      dup1\n      swap4\n      swap3\n      swap2\n      swap1\n      dup2\n      dup2\n      mstore\n      0x20\n      add\n      dup4\n      dup4\n      dup1\n      dup3\n      dup5\n      calldatacopy\n      0x00\n      dup2\n      dup5\n      add\n      mstore\n      not(0x1f)\n      0x1f\n      dup3\n      add\n      and\n      swap1\n      pop\n      dup1\n      dup4\n      add\n      swap3\n      pop\n      pop\n      pop\n      pop\n      pop\n      pop\n      pop\n      dup2\n      mstore\n      0x20\n      add\n        /* \"PROJECT/voting.sol\":1548:1552  _age */\n      dup5\n        /* \"PROJECT/voting.sol\":1525:1590  Candidate(_name,_party,_age,_gender,nextCandidateId,msg.sender,0) */\n      dup2\n      mstore\n      0x20\n      add\n        /* \"PROJECT/voting.sol\":1553:1560  _gender */\n      dup4\n      dup4\n        /* \"PROJECT/voting.sol\":1525:1590  Candidate(_name,_party,_age,_gender,nextCandidateId,msg.sender,0) */\n      dup1\n      dup1\n      0x1f\n      add\n      0x20\n      dup1\n      swap2\n      div\n      mul\n      0x20\n      add\n      mload(0x40)\n      swap1\n      dup2\n      add\n      0x40\n      mstore\n      dup1\n      swap4\n      swap3\n      swap2\n      swap1\n      dup2\n      dup2\n      mstore\n      0x20\n      add\n      dup4\n      dup4\n      dup1\n      dup3\n      dup5\n      calldatacopy\n      0x00\n      dup2\n      dup5\n      add\n      mstore\n      not(0x1f)\n      0x1f\n      dup3\n      add\n      and\n      swap1\n      pop\n      dup1\n      dup4\n      add\n      swap3\n      pop\n      pop\n      pop\n      pop\n      pop\n      pop\n      pop\n      dup2\n      mstore\n      0x20\n      add\n        /* \"PROJECT/voting.sol\":1561:1576  nextCandidateId */\n      sload(0x03)\n        /* \"PROJECT/voting.sol\":1525:1590  Candidate(_name,_party,_age,_gender,nextCandidateId,msg.sender,0) */\n      dup2\n      mstore\n      0x20\n      add\n        /* \"PROJECT/voting.sol\":1577:1587  msg.sender */\n      caller\n        /* \"PROJECT/voting.sol\":1525:1590  Candidate(_name,_party,_age,_gender,nextCandidateId,msg.sender,0) */\n      0xffffffffffffffffffffffffffffffffffffffff\n      and\n      dup2\n      mstore\n      0x20\n      add\n        /* \"PROJECT/voting.sol\":1588:1589  0 */\n      0x00\n        /* \"PROJECT/voting.sol\":1525:1590  Candidate(_name,_party,_age,_gender,nextCandidateId,msg.sender,0) */\n      dup2\n      mstore\n      pop\n        /* \"PROJECT/voting.sol\":1491:1507  candidateDetails */\n      0x07\n        /* \"PROJECT/voting.sol\":1491:1524  candidateDetails[nextCandidateId] */\n      0x00\n        /* \"PROJECT/voting.sol\":1508:1523  nextCandidateId */\n      sload(0x03)\n        /* \"PROJECT/voting.sol\":1491:1524  candidateDetails[nextCandidateId] */\n      dup2\n      mstore\n      0x20\n      add\n      swap1\n      dup2\n      mstore\n      0x20\n      add\n      0x00\n      keccak256\n        /* \"PROJECT/voting.sol\":1491:1590  candidateDetails[nextCandidateId]=Candidate(_name,_party,_age,_gender,nextCandidateId,msg.sender,0) */\n      0x00\n      dup3\n      add\n      mload\n      dup2\n      0x00\n      add\n      swap1\n      dup2\n      tag_187\n      swap2\n      swap1\n      tag_143\n      jump\t// in\n    tag_187:\n      pop\n      0x20\n      dup3\n      add\n      mload\n      dup2\n      0x01\n      add\n      swap1\n      dup2\n      tag_188\n      swap2\n      swap1\n      tag_143\n      jump\t// in\n    tag_188:\n      pop\n      0x40\n      dup3\n      add\n      mload\n      dup2\n      0x02\n      add\n      sstore\n      0x60\n      dup3\n      add\n      mload\n      dup2\n      0x03\n      add\n      swap1\n      dup2\n      tag_189\n      swap2\n      swap1\n      tag_143\n      jump\t// in\n    tag_189:\n      pop\n      0x80\n      dup3\n      add\n      mload\n      dup2\n      0x04\n      add\n      sstore\n      0xa0\n      dup3\n      add\n      mload\n      dup2\n      0x05\n      add\n      exp(0x0100, 0x00)\n      dup2\n      sload\n      dup2\n      0xffffffffffffffffffffffffffffffffffffffff\n      mul\n      not\n      and\n      swap1\n      dup4\n      0xffffffffffffffffffffffffffffffffffffffff\n      and\n      mul\n      or\n      swap1\n      sstore\n      pop\n      0xc0\n      dup3\n      add\n      mload\n      dup2\n      0x06\n      add\n      sstore\n      swap1\n      pop\n      pop\n        /* \"PROJECT/voting.sol\":1601:1616  nextCandidateId */\n      0x03\n      0x00\n        /* \"PROJECT/voting.sol\":1601:1618  nextCandidateId++ */\n      dup2\n      sload\n      dup1\n      swap3\n      swap2\n      swap1\n      tag_190\n      swap1\n      tag_77\n      jump\t// in\n    tag_190:\n      swap2\n      swap1\n      pop\n      sstore\n      pop\n        /* \"PROJECT/voting.sol\":1054:1626  function candidateRegister(string calldata _name,string calldata _party,uint _age,string calldata _gender) public {... */\n      pop\n      pop\n      pop\n      pop\n      pop\n      pop\n      pop\n      jump\t// out\n        /* \"PROJECT/voting.sol\":109:130  address public winner */\n    tag_46:\n      0x01\n      0x00\n      swap1\n      sload\n      swap1\n      0x0100\n      exp\n      swap1\n      div\n      0xffffffffffffffffffffffffffffffffffffffff\n      and\n      dup2\n      jump\t// out\n        /* \"PROJECT/voting.sol\":2532:2782  function VoterVerification(address _person) internal view returns(bool){... */\n    tag_138:\n        /* \"PROJECT/voting.sol\":2598:2602  bool */\n      0x00\n        /* \"PROJECT/voting.sol\":2617:2623  uint i */\n      dup1\n        /* \"PROJECT/voting.sol\":2624:2625  1 */\n      0x01\n        /* \"PROJECT/voting.sol\":2617:2625  uint i=1 */\n      swap1\n      pop\n        /* \"PROJECT/voting.sol\":2613:2754  for(uint i=1;i<nextVoterId;i++){... */\n    tag_192:\n        /* \"PROJECT/voting.sol\":2628:2639  nextVoterId */\n      sload(0x02)\n        /* \"PROJECT/voting.sol\":2626:2627  i */\n      dup2\n        /* \"PROJECT/voting.sol\":2626:2639  i<nextVoterId */\n      lt\n        /* \"PROJECT/voting.sol\":2613:2754  for(uint i=1;i<nextVoterId;i++){... */\n      iszero\n      tag_193\n      jumpi\n        /* \"PROJECT/voting.sol\":2691:2698  _person */\n      dup3\n        /* \"PROJECT/voting.sol\":2661:2698  voterDetails[i].voterAddress==_person */\n      0xffffffffffffffffffffffffffffffffffffffff\n      and\n        /* \"PROJECT/voting.sol\":2661:2673  voterDetails */\n      0x06\n        /* \"PROJECT/voting.sol\":2661:2676  voterDetails[i] */\n      0x00\n        /* \"PROJECT/voting.sol\":2674:2675  i */\n      dup4\n        /* \"PROJECT/voting.sol\":2661:2676  voterDetails[i] */\n      dup2\n      mstore\n      0x20\n      add\n      swap1\n      dup2\n      mstore\n      0x20\n      add\n      0x00\n      keccak256\n        /* \"PROJECT/voting.sol\":2661:2689  voterDetails[i].voterAddress */\n      0x05\n      add\n      0x00\n      swap1\n      sload\n      swap1\n      0x0100\n      exp\n      swap1\n      div\n      0xffffffffffffffffffffffffffffffffffffffff\n      and\n        /* \"PROJECT/voting.sol\":2661:2698  voterDetails[i].voterAddress==_person */\n      0xffffffffffffffffffffffffffffffffffffffff\n      and\n      sub\n        /* \"PROJECT/voting.sol\":2658:2744  if(voterDetails[i].voterAddress==_person){... */\n      tag_195\n      jumpi\n        /* \"PROJECT/voting.sol\":2724:2729  false */\n      0x00\n        /* \"PROJECT/voting.sol\":2717:2729  return false */\n      swap2\n      pop\n      pop\n      jump(tag_191)\n        /* \"PROJECT/voting.sol\":2658:2744  if(voterDetails[i].voterAddress==_person){... */\n    tag_195:\n        /* \"PROJECT/voting.sol\":2640:2643  i++ */\n      dup1\n      dup1\n      tag_196\n      swap1\n      tag_77\n      jump\t// in\n    tag_196:\n      swap2\n      pop\n      pop\n        /* \"PROJECT/voting.sol\":2613:2754  for(uint i=1;i<nextVoterId;i++){... */\n      jump(tag_192)\n    tag_193:\n      pop\n        /* \"PROJECT/voting.sol\":2770:2774  true */\n      0x01\n        /* \"PROJECT/voting.sol\":2763:2774  return true */\n      swap1\n      pop\n        /* \"PROJECT/voting.sol\":2532:2782  function VoterVerification(address _person) internal view returns(bool){... */\n    tag_191:\n      swap2\n      swap1\n      pop\n      jump\t// out\n        /* \"PROJECT/voting.sol\":1634:1904  function candidateVarification(address person) internal view returns(bool){... */\n    tag_177:\n        /* \"PROJECT/voting.sol\":1703:1707  bool */\n      0x00\n        /* \"PROJECT/voting.sol\":1723:1729  uint i */\n      dup1\n        /* \"PROJECT/voting.sol\":1730:1731  1 */\n      0x01\n        /* \"PROJECT/voting.sol\":1723:1731  uint i=1 */\n      swap1\n      pop\n        /* \"PROJECT/voting.sol\":1719:1875  for(uint i=1;i<nextCandidateId;i++){... */\n    tag_198:\n        /* \"PROJECT/voting.sol\":1734:1749  nextCandidateId */\n      sload(0x03)\n        /* \"PROJECT/voting.sol\":1732:1733  i */\n      dup2\n        /* \"PROJECT/voting.sol\":1732:1749  i<nextCandidateId */\n      lt\n        /* \"PROJECT/voting.sol\":1719:1875  for(uint i=1;i<nextCandidateId;i++){... */\n      iszero\n      tag_199\n      jumpi\n        /* \"PROJECT/voting.sol\":1810:1816  person */\n      dup3\n        /* \"PROJECT/voting.sol\":1772:1816  candidateDetails[i].candidateAddress==person */\n      0xffffffffffffffffffffffffffffffffffffffff\n      and\n        /* \"PROJECT/voting.sol\":1772:1788  candidateDetails */\n      0x07\n        /* \"PROJECT/voting.sol\":1772:1791  candidateDetails[i] */\n      0x00\n        /* \"PROJECT/voting.sol\":1789:1790  i */\n      dup4\n        /* \"PROJECT/voting.sol\":1772:1791  candidateDetails[i] */\n      dup2\n      mstore\n      0x20\n      add\n      swap1\n      dup2\n      mstore\n      0x20\n      add\n      0x00\n      keccak256\n        /* \"PROJECT/voting.sol\":1772:1808  candidateDetails[i].candidateAddress */\n      0x05\n      add\n      0x00\n      swap1\n      sload\n      swap1\n      0x0100\n      exp\n      swap1\n      div\n      0xffffffffffffffffffffffffffffffffffffffff\n      and\n        /* \"PROJECT/voting.sol\":1772:1816  candidateDetails[i].candidateAddress==person */\n      0xffffffffffffffffffffffffffffffffffffffff\n      and\n      sub\n        /* \"PROJECT/voting.sol\":1769:1864  if(candidateDetails[i].candidateAddress==person){... */\n      tag_201\n      jumpi\n        /* \"PROJECT/voting.sol\":1843:1848  false */\n      0x00\n        /* \"PROJECT/voting.sol\":1836:1848  return false */\n      swap2\n      pop\n      pop\n      jump(tag_197)\n        /* \"PROJECT/voting.sol\":1769:1864  if(candidateDetails[i].candidateAddress==person){... */\n    tag_201:\n        /* \"PROJECT/voting.sol\":1750:1753  i++ */\n      dup1\n      dup1\n      tag_202\n      swap1\n      tag_77\n      jump\t// in\n    tag_202:\n      swap2\n      pop\n      pop\n        /* \"PROJECT/voting.sol\":1719:1875  for(uint i=1;i<nextCandidateId;i++){... */\n      jump(tag_198)\n    tag_199:\n      pop\n        /* \"PROJECT/voting.sol\":1892:1896  true */\n      0x01\n        /* \"PROJECT/voting.sol\":1885:1896  return true */\n      swap1\n      pop\n        /* \"PROJECT/voting.sol\":1634:1904  function candidateVarification(address person) internal view returns(bool){... */\n    tag_197:\n      swap2\n      swap1\n      pop\n      jump\t// out\n    tag_56:\n      mload(0x40)\n      dup1\n      0xc0\n      add\n      0x40\n      mstore\n      dup1\n      0x60\n      dup2\n      mstore\n      0x20\n      add\n      0x00\n      dup2\n      mstore\n      0x20\n      add\n      0x00\n      dup2\n      mstore\n      0x20\n      add\n      0x60\n      dup2\n      mstore\n      0x20\n      add\n      0x00\n      dup2\n      mstore\n      0x20\n      add\n      and(0xffffffffffffffffffffffffffffffffffffffff, 0x00)\n      dup2\n      mstore\n      pop\n      swap1\n      jump\t// out\n    tag_92:\n      mload(0x40)\n      dup1\n      0xe0\n      add\n      0x40\n      mstore\n      dup1\n      0x60\n      dup2\n      mstore\n      0x20\n      add\n      0x60\n      dup2\n      mstore\n      0x20\n      add\n      0x00\n      dup2\n      mstore\n      0x20\n      add\n      0x60\n      dup2\n      mstore\n      0x20\n      add\n      0x00\n      dup2\n      mstore\n      0x20\n      add\n      and(0xffffffffffffffffffffffffffffffffffffffff, 0x00)\n      dup2\n      mstore\n      0x20\n      add\n      0x00\n      dup2\n      mstore\n      pop\n      swap1\n      jump\t// out\n        /* \"#utility.yul\":7:142   */\n    tag_203:\n        /* \"#utility.yul\":95:101   */\n      0x00\n        /* \"#utility.yul\":129:134   */\n      dup2\n        /* \"#utility.yul\":123:135   */\n      mload\n        /* \"#utility.yul\":113:135   */\n      swap1\n      pop\n        /* \"#utility.yul\":7:142   */\n      swap2\n      swap1\n      pop\n      jump\t// out\n        /* \"#utility.yul\":148:353   */\n    tag_204:\n        /* \"#utility.yul\":268:279   */\n      0x00\n        /* \"#utility.yul\":302:308   */\n      dup3\n        /* \"#utility.yul\":297:300   */\n      dup3\n        /* \"#utility.yul\":290:309   */\n      mstore\n        /* \"#utility.yul\":342:346   */\n      0x20\n        /* \"#utility.yul\":337:340   */\n      dup3\n        /* \"#utility.yul\":333:347   */\n      add\n        /* \"#utility.yul\":318:347   */\n      swap1\n      pop\n        /* \"#utility.yul\":148:353   */\n      swap3\n      swap2\n      pop\n      pop\n      jump\t// out\n        /* \"#utility.yul\":359:512   */\n    tag_205:\n        /* \"#utility.yul\":447:451   */\n      0x00\n        /* \"#utility.yul\":470:473   */\n      dup2\n        /* \"#utility.yul\":462:473   */\n      swap1\n      pop\n        /* \"#utility.yul\":500:504   */\n      0x20\n        /* \"#utility.yul\":495:498   */\n      dup3\n        /* \"#utility.yul\":491:505   */\n      add\n        /* \"#utility.yul\":483:505   */\n      swap1\n      pop\n        /* \"#utility.yul\":359:512   */\n      swap2\n      swap1\n      pop\n      jump\t// out\n        /* \"#utility.yul\":518:617   */\n    tag_206:\n        /* \"#utility.yul\":570:576   */\n      0x00\n        /* \"#utility.yul\":604:609   */\n      dup2\n        /* \"#utility.yul\":598:610   */\n      mload\n        /* \"#utility.yul\":588:610   */\n      swap1\n      pop\n        /* \"#utility.yul\":518:617   */\n      swap2\n      swap1\n      pop\n      jump\t// out\n        /* \"#utility.yul\":623:782   */\n    tag_207:\n        /* \"#utility.yul\":697:708   */\n      0x00\n        /* \"#utility.yul\":731:737   */\n      dup3\n        /* \"#utility.yul\":726:729   */\n      dup3\n        /* \"#utility.yul\":719:738   */\n      mstore\n        /* \"#utility.yul\":771:775   */\n      0x20\n        /* \"#utility.yul\":766:769   */\n      dup3\n        /* \"#utility.yul\":762:776   */\n      add\n        /* \"#utility.yul\":747:776   */\n      swap1\n      pop\n        /* \"#utility.yul\":623:782   */\n      swap3\n      swap2\n      pop\n      pop\n      jump\t// out\n        /* \"#utility.yul\":788:1034   */\n    tag_208:\n        /* \"#utility.yul\":869:870   */\n      0x00\n        /* \"#utility.yul\":879:992   */\n    tag_289:\n        /* \"#utility.yul\":893:899   */\n      dup4\n        /* \"#utility.yul\":890:891   */\n      dup2\n        /* \"#utility.yul\":887:900   */\n      lt\n        /* \"#utility.yul\":879:992   */\n      iszero\n      tag_291\n      jumpi\n        /* \"#utility.yul\":978:979   */\n      dup1\n        /* \"#utility.yul\":973:976   */\n      dup3\n        /* \"#utility.yul\":969:980   */\n      add\n        /* \"#utility.yul\":963:981   */\n      mload\n        /* \"#utility.yul\":959:960   */\n      dup2\n        /* \"#utility.yul\":954:957   */\n      dup5\n        /* \"#utility.yul\":950:961   */\n      add\n        /* \"#utility.yul\":943:982   */\n      mstore\n        /* \"#utility.yul\":915:917   */\n      0x20\n        /* \"#utility.yul\":912:913   */\n      dup2\n        /* \"#utility.yul\":908:918   */\n      add\n        /* \"#utility.yul\":903:918   */\n      swap1\n      pop\n        /* \"#utility.yul\":879:992   */\n      jump(tag_289)\n    tag_291:\n        /* \"#utility.yul\":1026:1027   */\n      0x00\n        /* \"#utility.yul\":1017:1023   */\n      dup5\n        /* \"#utility.yul\":1012:1015   */\n      dup5\n        /* \"#utility.yul\":1008:1024   */\n      add\n        /* \"#utility.yul\":1001:1028   */\n      mstore\n        /* \"#utility.yul\":850:1034   */\n      pop\n        /* \"#utility.yul\":788:1034   */\n      pop\n      pop\n      pop\n      jump\t// out\n        /* \"#utility.yul\":1040:1142   */\n    tag_209:\n        /* \"#utility.yul\":1081:1087   */\n      0x00\n        /* \"#utility.yul\":1132:1134   */\n      0x1f\n        /* \"#utility.yul\":1128:1135   */\n      not\n        /* \"#utility.yul\":1123:1125   */\n      0x1f\n        /* \"#utility.yul\":1116:1121   */\n      dup4\n        /* \"#utility.yul\":1112:1126   */\n      add\n        /* \"#utility.yul\":1108:1136   */\n      and\n        /* \"#utility.yul\":1098:1136   */\n      swap1\n      pop\n        /* \"#utility.yul\":1040:1142   */\n      swap2\n      swap1\n      pop\n      jump\t// out\n        /* \"#utility.yul\":1148:1505   */\n    tag_210:\n        /* \"#utility.yul\":1226:1229   */\n      0x00\n        /* \"#utility.yul\":1254:1293   */\n      tag_294\n        /* \"#utility.yul\":1287:1292   */\n      dup3\n        /* \"#utility.yul\":1254:1293   */\n      tag_206\n      jump\t// in\n    tag_294:\n        /* \"#utility.yul\":1309:1370   */\n      tag_295\n        /* \"#utility.yul\":1363:1369   */\n      dup2\n        /* \"#utility.yul\":1358:1361   */\n      dup6\n        /* \"#utility.yul\":1309:1370   */\n      tag_207\n      jump\t// in\n    tag_295:\n        /* \"#utility.yul\":1302:1370   */\n      swap4\n      pop\n        /* \"#utility.yul\":1379:1444   */\n      tag_296\n        /* \"#utility.yul\":1437:1443   */\n      dup2\n        /* \"#utility.yul\":1432:1435   */\n      dup6\n        /* \"#utility.yul\":1425:1429   */\n      0x20\n        /* \"#utility.yul\":1418:1423   */\n      dup7\n        /* \"#utility.yul\":1414:1430   */\n      add\n        /* \"#utility.yul\":1379:1444   */\n      tag_208\n      jump\t// in\n    tag_296:\n        /* \"#utility.yul\":1469:1498   */\n      tag_297\n        /* \"#utility.yul\":1491:1497   */\n      dup2\n        /* \"#utility.yul\":1469:1498   */\n      tag_209\n      jump\t// in\n    tag_297:\n        /* \"#utility.yul\":1464:1467   */\n      dup5\n        /* \"#utility.yul\":1460:1499   */\n      add\n        /* \"#utility.yul\":1453:1499   */\n      swap2\n      pop\n        /* \"#utility.yul\":1230:1505   */\n      pop\n        /* \"#utility.yul\":1148:1505   */\n      swap3\n      swap2\n      pop\n      pop\n      jump\t// out\n        /* \"#utility.yul\":1511:1588   */\n    tag_211:\n        /* \"#utility.yul\":1548:1555   */\n      0x00\n        /* \"#utility.yul\":1577:1582   */\n      dup2\n        /* \"#utility.yul\":1566:1582   */\n      swap1\n      pop\n        /* \"#utility.yul\":1511:1588   */\n      swap2\n      swap1\n      pop\n      jump\t// out\n        /* \"#utility.yul\":1594:1702   */\n    tag_212:\n        /* \"#utility.yul\":1671:1695   */\n      tag_300\n        /* \"#utility.yul\":1689:1694   */\n      dup2\n        /* \"#utility.yul\":1671:1695   */\n      tag_211\n      jump\t// in\n    tag_300:\n        /* \"#utility.yul\":1666:1669   */\n      dup3\n        /* \"#utility.yul\":1659:1696   */\n      mstore\n        /* \"#utility.yul\":1594:1702   */\n      pop\n      pop\n      jump\t// out\n        /* \"#utility.yul\":1708:1834   */\n    tag_213:\n        /* \"#utility.yul\":1745:1752   */\n      0x00\n        /* \"#utility.yul\":1785:1827   */\n      0xffffffffffffffffffffffffffffffffffffffff\n        /* \"#utility.yul\":1778:1783   */\n      dup3\n        /* \"#utility.yul\":1774:1828   */\n      and\n        /* \"#utility.yul\":1763:1828   */\n      swap1\n      pop\n        /* \"#utility.yul\":1708:1834   */\n      swap2\n      swap1\n      pop\n      jump\t// out\n        /* \"#utility.yul\":1840:1936   */\n    tag_214:\n        /* \"#utility.yul\":1877:1884   */\n      0x00\n        /* \"#utility.yul\":1906:1930   */\n      tag_303\n        /* \"#utility.yul\":1924:1929   */\n      dup3\n        /* \"#utility.yul\":1906:1930   */\n      tag_213\n      jump\t// in\n    tag_303:\n        /* \"#utility.yul\":1895:1930   */\n      swap1\n      pop\n        /* \"#utility.yul\":1840:1936   */\n      swap2\n      swap1\n      pop\n      jump\t// out\n        /* \"#utility.yul\":1942:2050   */\n    tag_215:\n        /* \"#utility.yul\":2019:2043   */\n      tag_305\n        /* \"#utility.yul\":2037:2042   */\n      dup2\n        /* \"#utility.yul\":2019:2043   */\n      tag_214\n      jump\t// in\n    tag_305:\n        /* \"#utility.yul\":2014:2017   */\n      dup3\n        /* \"#utility.yul\":2007:2044   */\n      mstore\n        /* \"#utility.yul\":1942:2050   */\n      pop\n      pop\n      jump\t// out\n        /* \"#utility.yul\":2102:3480   */\n    tag_216:\n        /* \"#utility.yul\":2203:2206   */\n      0x00\n        /* \"#utility.yul\":2239:2243   */\n      0xc0\n        /* \"#utility.yul\":2234:2237   */\n      dup4\n        /* \"#utility.yul\":2230:2244   */\n      add\n        /* \"#utility.yul\":2326:2330   */\n      0x00\n        /* \"#utility.yul\":2319:2324   */\n      dup4\n        /* \"#utility.yul\":2315:2331   */\n      add\n        /* \"#utility.yul\":2309:2332   */\n      mload\n        /* \"#utility.yul\":2379:2382   */\n      dup5\n        /* \"#utility.yul\":2373:2377   */\n      dup3\n        /* \"#utility.yul\":2369:2383   */\n      sub\n        /* \"#utility.yul\":2362:2366   */\n      0x00\n        /* \"#utility.yul\":2357:2360   */\n      dup7\n        /* \"#utility.yul\":2353:2367   */\n      add\n        /* \"#utility.yul\":2346:2384   */\n      mstore\n        /* \"#utility.yul\":2405:2478   */\n      tag_307\n        /* \"#utility.yul\":2473:2477   */\n      dup3\n        /* \"#utility.yul\":2459:2471   */\n      dup3\n        /* \"#utility.yul\":2405:2478   */\n      tag_210\n      jump\t// in\n    tag_307:\n        /* \"#utility.yul\":2397:2478   */\n      swap2\n      pop\n        /* \"#utility.yul\":2254:2489   */\n      pop\n        /* \"#utility.yul\":2570:2574   */\n      0x20\n        /* \"#utility.yul\":2563:2568   */\n      dup4\n        /* \"#utility.yul\":2559:2575   */\n      add\n        /* \"#utility.yul\":2553:2576   */\n      mload\n        /* \"#utility.yul\":2589:2652   */\n      tag_308\n        /* \"#utility.yul\":2646:2650   */\n      0x20\n        /* \"#utility.yul\":2641:2644   */\n      dup7\n        /* \"#utility.yul\":2637:2651   */\n      add\n        /* \"#utility.yul\":2623:2635   */\n      dup3\n        /* \"#utility.yul\":2589:2652   */\n      tag_212\n      jump\t// in\n    tag_308:\n        /* \"#utility.yul\":2499:2662   */\n      pop\n        /* \"#utility.yul\":2747:2751   */\n      0x40\n        /* \"#utility.yul\":2740:2745   */\n      dup4\n        /* \"#utility.yul\":2736:2752   */\n      add\n        /* \"#utility.yul\":2730:2753   */\n      mload\n        /* \"#utility.yul\":2766:2829   */\n      tag_309\n        /* \"#utility.yul\":2823:2827   */\n      0x40\n        /* \"#utility.yul\":2818:2821   */\n      dup7\n        /* \"#utility.yul\":2814:2828   */\n      add\n        /* \"#utility.yul\":2800:2812   */\n      dup3\n        /* \"#utility.yul\":2766:2829   */\n      tag_212\n      jump\t// in\n    tag_309:\n        /* \"#utility.yul\":2672:2839   */\n      pop\n        /* \"#utility.yul\":2923:2927   */\n      0x60\n        /* \"#utility.yul\":2916:2921   */\n      dup4\n        /* \"#utility.yul\":2912:2928   */\n      add\n        /* \"#utility.yul\":2906:2929   */\n      mload\n        /* \"#utility.yul\":2976:2979   */\n      dup5\n        /* \"#utility.yul\":2970:2974   */\n      dup3\n        /* \"#utility.yul\":2966:2980   */\n      sub\n        /* \"#utility.yul\":2959:2963   */\n      0x60\n        /* \"#utility.yul\":2954:2957   */\n      dup7\n        /* \"#utility.yul\":2950:2964   */\n      add\n        /* \"#utility.yul\":2943:2981   */\n      mstore\n        /* \"#utility.yul\":3002:3075   */\n      tag_310\n        /* \"#utility.yul\":3070:3074   */\n      dup3\n        /* \"#utility.yul\":3056:3068   */\n      dup3\n        /* \"#utility.yul\":3002:3075   */\n      tag_210\n      jump\t// in\n    tag_310:\n        /* \"#utility.yul\":2994:3075   */\n      swap2\n      pop\n        /* \"#utility.yul\":2849:3086   */\n      pop\n        /* \"#utility.yul\":3179:3183   */\n      0x80\n        /* \"#utility.yul\":3172:3177   */\n      dup4\n        /* \"#utility.yul\":3168:3184   */\n      add\n        /* \"#utility.yul\":3162:3185   */\n      mload\n        /* \"#utility.yul\":3198:3261   */\n      tag_311\n        /* \"#utility.yul\":3255:3259   */\n      0x80\n        /* \"#utility.yul\":3250:3253   */\n      dup7\n        /* \"#utility.yul\":3246:3260   */\n      add\n        /* \"#utility.yul\":3232:3244   */\n      dup3\n        /* \"#utility.yul\":3198:3261   */\n      tag_212\n      jump\t// in\n    tag_311:\n        /* \"#utility.yul\":3096:3271   */\n      pop\n        /* \"#utility.yul\":3361:3365   */\n      0xa0\n        /* \"#utility.yul\":3354:3359   */\n      dup4\n        /* \"#utility.yul\":3350:3366   */\n      add\n        /* \"#utility.yul\":3344:3367   */\n      mload\n        /* \"#utility.yul\":3380:3443   */\n      tag_312\n        /* \"#utility.yul\":3437:3441   */\n      0xa0\n        /* \"#utility.yul\":3432:3435   */\n      dup7\n        /* \"#utility.yul\":3428:3442   */\n      add\n        /* \"#utility.yul\":3414:3426   */\n      dup3\n        /* \"#utility.yul\":3380:3443   */\n      tag_215\n      jump\t// in\n    tag_312:\n        /* \"#utility.yul\":3281:3453   */\n      pop\n        /* \"#utility.yul\":3470:3474   */\n      dup1\n        /* \"#utility.yul\":3463:3474   */\n      swap2\n      pop\n        /* \"#utility.yul\":2208:3480   */\n      pop\n        /* \"#utility.yul\":2102:3480   */\n      swap3\n      swap2\n      pop\n      pop\n      jump\t// out\n        /* \"#utility.yul\":3486:3726   */\n    tag_217:\n        /* \"#utility.yul\":3597:3607   */\n      0x00\n        /* \"#utility.yul\":3632:3720   */\n      tag_314\n        /* \"#utility.yul\":3716:3719   */\n      dup4\n        /* \"#utility.yul\":3708:3714   */\n      dup4\n        /* \"#utility.yul\":3632:3720   */\n      tag_216\n      jump\t// in\n    tag_314:\n        /* \"#utility.yul\":3618:3720   */\n      swap1\n      pop\n        /* \"#utility.yul\":3486:3726   */\n      swap3\n      swap2\n      pop\n      pop\n      jump\t// out\n        /* \"#utility.yul\":3732:3866   */\n    tag_218:\n        /* \"#utility.yul\":3823:3827   */\n      0x00\n        /* \"#utility.yul\":3855:3859   */\n      0x20\n        /* \"#utility.yul\":3850:3853   */\n      dup3\n        /* \"#utility.yul\":3846:3860   */\n      add\n        /* \"#utility.yul\":3838:3860   */\n      swap1\n      pop\n        /* \"#utility.yul\":3732:3866   */\n      swap2\n      swap1\n      pop\n      jump\t// out\n        /* \"#utility.yul\":3922:5001   */\n    tag_219:\n        /* \"#utility.yul\":4083:4086   */\n      0x00\n        /* \"#utility.yul\":4112:4187   */\n      tag_317\n        /* \"#utility.yul\":4181:4186   */\n      dup3\n        /* \"#utility.yul\":4112:4187   */\n      tag_203\n      jump\t// in\n    tag_317:\n        /* \"#utility.yul\":4203:4310   */\n      tag_318\n        /* \"#utility.yul\":4303:4309   */\n      dup2\n        /* \"#utility.yul\":4298:4301   */\n      dup6\n        /* \"#utility.yul\":4203:4310   */\n      tag_204\n      jump\t// in\n    tag_318:\n        /* \"#utility.yul\":4196:4310   */\n      swap4\n      pop\n        /* \"#utility.yul\":4336:4339   */\n      dup4\n        /* \"#utility.yul\":4381:4385   */\n      0x20\n        /* \"#utility.yul\":4373:4379   */\n      dup3\n        /* \"#utility.yul\":4369:4386   */\n      mul\n        /* \"#utility.yul\":4364:4367   */\n      dup6\n        /* \"#utility.yul\":4360:4387   */\n      add\n        /* \"#utility.yul\":4411:4488   */\n      tag_319\n        /* \"#utility.yul\":4482:4487   */\n      dup6\n        /* \"#utility.yul\":4411:4488   */\n      tag_205\n      jump\t// in\n    tag_319:\n        /* \"#utility.yul\":4511:4518   */\n      dup1\n        /* \"#utility.yul\":4542:4543   */\n      0x00\n        /* \"#utility.yul\":4527:4956   */\n    tag_320:\n        /* \"#utility.yul\":4552:4558   */\n      dup6\n        /* \"#utility.yul\":4549:4550   */\n      dup2\n        /* \"#utility.yul\":4546:4559   */\n      lt\n        /* \"#utility.yul\":4527:4956   */\n      iszero\n      tag_322\n      jumpi\n        /* \"#utility.yul\":4623:4632   */\n      dup5\n        /* \"#utility.yul\":4617:4621   */\n      dup5\n        /* \"#utility.yul\":4613:4633   */\n      sub\n        /* \"#utility.yul\":4608:4611   */\n      dup10\n        /* \"#utility.yul\":4601:4634   */\n      mstore\n        /* \"#utility.yul\":4674:4680   */\n      dup2\n        /* \"#utility.yul\":4668:4681   */\n      mload\n        /* \"#utility.yul\":4702:4808   */\n      tag_323\n        /* \"#utility.yul\":4803:4807   */\n      dup6\n        /* \"#utility.yul\":4788:4801   */\n      dup3\n        /* \"#utility.yul\":4702:4808   */\n      tag_217\n      jump\t// in\n    tag_323:\n        /* \"#utility.yul\":4694:4808   */\n      swap5\n      pop\n        /* \"#utility.yul\":4831:4912   */\n      tag_324\n        /* \"#utility.yul\":4905:4911   */\n      dup4\n        /* \"#utility.yul\":4831:4912   */\n      tag_218\n      jump\t// in\n    tag_324:\n        /* \"#utility.yul\":4821:4912   */\n      swap3\n      pop\n        /* \"#utility.yul\":4941:4945   */\n      0x20\n        /* \"#utility.yul\":4936:4939   */\n      dup11\n        /* \"#utility.yul\":4932:4946   */\n      add\n        /* \"#utility.yul\":4925:4946   */\n      swap10\n      pop\n        /* \"#utility.yul\":4587:4956   */\n      pop\n        /* \"#utility.yul\":4574:4575   */\n      0x01\n        /* \"#utility.yul\":4571:4572   */\n      dup2\n        /* \"#utility.yul\":4567:4576   */\n      add\n        /* \"#utility.yul\":4562:4576   */\n      swap1\n      pop\n        /* \"#utility.yul\":4527:4956   */\n      jump(tag_320)\n    tag_322:\n        /* \"#utility.yul\":4531:4545   */\n      pop\n        /* \"#utility.yul\":4972:4976   */\n      dup3\n        /* \"#utility.yul\":4965:4976   */\n      swap8\n      pop\n        /* \"#utility.yul\":4992:4995   */\n      dup8\n        /* \"#utility.yul\":4985:4995   */\n      swap6\n      pop\n        /* \"#utility.yul\":4088:5001   */\n      pop\n      pop\n      pop\n      pop\n      pop\n        /* \"#utility.yul\":3922:5001   */\n      swap3\n      swap2\n      pop\n      pop\n      jump\t// out\n        /* \"#utility.yul\":5007:5464   */\n    tag_17:\n        /* \"#utility.yul\":5192:5196   */\n      0x00\n        /* \"#utility.yul\":5230:5232   */\n      0x20\n        /* \"#utility.yul\":5219:5228   */\n      dup3\n        /* \"#utility.yul\":5215:5233   */\n      add\n        /* \"#utility.yul\":5207:5233   */\n      swap1\n      pop\n        /* \"#utility.yul\":5279:5288   */\n      dup2\n        /* \"#utility.yul\":5273:5277   */\n      dup2\n        /* \"#utility.yul\":5269:5289   */\n      sub\n        /* \"#utility.yul\":5265:5266   */\n      0x00\n        /* \"#utility.yul\":5254:5263   */\n      dup4\n        /* \"#utility.yul\":5250:5267   */\n      add\n        /* \"#utility.yul\":5243:5290   */\n      mstore\n        /* \"#utility.yul\":5307:5457   */\n      tag_326\n        /* \"#utility.yul\":5452:5456   */\n      dup2\n        /* \"#utility.yul\":5443:5449   */\n      dup5\n        /* \"#utility.yul\":5307:5457   */\n      tag_219\n      jump\t// in\n    tag_326:\n        /* \"#utility.yul\":5299:5457   */\n      swap1\n      pop\n        /* \"#utility.yul\":5007:5464   */\n      swap3\n      swap2\n      pop\n      pop\n      jump\t// out\n        /* \"#utility.yul\":5551:5668   */\n    tag_221:\n        /* \"#utility.yul\":5660:5661   */\n      0x00\n        /* \"#utility.yul\":5657:5658   */\n      dup1\n        /* \"#utility.yul\":5650:5662   */\n      revert\n        /* \"#utility.yul\":5674:5791   */\n    tag_222:\n        /* \"#utility.yul\":5783:5784   */\n      0x00\n        /* \"#utility.yul\":5780:5781   */\n      dup1\n        /* \"#utility.yul\":5773:5785   */\n      revert\n        /* \"#utility.yul\":5797:5919   */\n    tag_223:\n        /* \"#utility.yul\":5870:5894   */\n      tag_331\n        /* \"#utility.yul\":5888:5893   */\n      dup2\n        /* \"#utility.yul\":5870:5894   */\n      tag_211\n      jump\t// in\n    tag_331:\n        /* \"#utility.yul\":5863:5868   */\n      dup2\n        /* \"#utility.yul\":5860:5895   */\n      eq\n        /* \"#utility.yul\":5850:5913   */\n      tag_332\n      jumpi\n        /* \"#utility.yul\":5909:5910   */\n      0x00\n        /* \"#utility.yul\":5906:5907   */\n      dup1\n        /* \"#utility.yul\":5899:5911   */\n      revert\n        /* \"#utility.yul\":5850:5913   */\n    tag_332:\n        /* \"#utility.yul\":5797:5919   */\n      pop\n      jump\t// out\n        /* \"#utility.yul\":5925:6064   */\n    tag_224:\n        /* \"#utility.yul\":5971:5976   */\n      0x00\n        /* \"#utility.yul\":6009:6015   */\n      dup2\n        /* \"#utility.yul\":5996:6016   */\n      calldataload\n        /* \"#utility.yul\":5987:6016   */\n      swap1\n      pop\n        /* \"#utility.yul\":6025:6058   */\n      tag_334\n        /* \"#utility.yul\":6052:6057   */\n      dup2\n        /* \"#utility.yul\":6025:6058   */\n      tag_223\n      jump\t// in\n    tag_334:\n        /* \"#utility.yul\":5925:6064   */\n      swap3\n      swap2\n      pop\n      pop\n      jump\t// out\n        /* \"#utility.yul\":6070:6544   */\n    tag_20:\n        /* \"#utility.yul\":6138:6144   */\n      0x00\n        /* \"#utility.yul\":6146:6152   */\n      dup1\n        /* \"#utility.yul\":6195:6197   */\n      0x40\n        /* \"#utility.yul\":6183:6192   */\n      dup4\n        /* \"#utility.yul\":6174:6181   */\n      dup6\n        /* \"#utility.yul\":6170:6193   */\n      sub\n        /* \"#utility.yul\":6166:6198   */\n      slt\n        /* \"#utility.yul\":6163:6282   */\n      iszero\n      tag_336\n      jumpi\n        /* \"#utility.yul\":6201:6280   */\n      tag_337\n      tag_221\n      jump\t// in\n    tag_337:\n        /* \"#utility.yul\":6163:6282   */\n    tag_336:\n        /* \"#utility.yul\":6321:6322   */\n      0x00\n        /* \"#utility.yul\":6346:6399   */\n      tag_338\n        /* \"#utility.yul\":6391:6398   */\n      dup6\n        /* \"#utility.yul\":6382:6388   */\n      dup3\n        /* \"#utility.yul\":6371:6380   */\n      dup7\n        /* \"#utility.yul\":6367:6389   */\n      add\n        /* \"#utility.yul\":6346:6399   */\n      tag_224\n      jump\t// in\n    tag_338:\n        /* \"#utility.yul\":6336:6399   */\n      swap3\n      pop\n        /* \"#utility.yul\":6292:6409   */\n      pop\n        /* \"#utility.yul\":6448:6450   */\n      0x20\n        /* \"#utility.yul\":6474:6527   */\n      tag_339\n        /* \"#utility.yul\":6519:6526   */\n      dup6\n        /* \"#utility.yul\":6510:6516   */\n      dup3\n        /* \"#utility.yul\":6499:6508   */\n      dup7\n        /* \"#utility.yul\":6495:6517   */\n      add\n        /* \"#utility.yul\":6474:6527   */\n      tag_224\n      jump\t// in\n    tag_339:\n        /* \"#utility.yul\":6464:6527   */\n      swap2\n      pop\n        /* \"#utility.yul\":6419:6537   */\n      pop\n        /* \"#utility.yul\":6070:6544   */\n      swap3\n      pop\n      swap3\n      swap1\n      pop\n      jump\t// out\n        /* \"#utility.yul\":6550:6689   */\n    tag_225:\n        /* \"#utility.yul\":6642:6648   */\n      0x00\n        /* \"#utility.yul\":6676:6681   */\n      dup2\n        /* \"#utility.yul\":6670:6682   */\n      mload\n        /* \"#utility.yul\":6660:6682   */\n      swap1\n      pop\n        /* \"#utility.yul\":6550:6689   */\n      swap2\n      swap1\n      pop\n      jump\t// out\n        /* \"#utility.yul\":6695:6904   */\n    tag_226:\n        /* \"#utility.yul\":6819:6830   */\n      0x00\n        /* \"#utility.yul\":6853:6859   */\n      dup3\n        /* \"#utility.yul\":6848:6851   */\n      dup3\n        /* \"#utility.yul\":6841:6860   */\n      mstore\n        /* \"#utility.yul\":6893:6897   */\n      0x20\n        /* \"#utility.yul\":6888:6891   */\n      dup3\n        /* \"#utility.yul\":6884:6898   */\n      add\n        /* \"#utility.yul\":6869:6898   */\n      swap1\n      pop\n        /* \"#utility.yul\":6695:6904   */\n      swap3\n      swap2\n      pop\n      pop\n      jump\t// out\n        /* \"#utility.yul\":6910:7067   */\n    tag_227:\n        /* \"#utility.yul\":7002:7006   */\n      0x00\n        /* \"#utility.yul\":7025:7028   */\n      dup2\n        /* \"#utility.yul\":7017:7028   */\n      swap1\n      pop\n        /* \"#utility.yul\":7055:7059   */\n      0x20\n        /* \"#utility.yul\":7050:7053   */\n      dup3\n        /* \"#utility.yul\":7046:7060   */\n      add\n        /* \"#utility.yul\":7038:7060   */\n      swap1\n      pop\n        /* \"#utility.yul\":6910:7067   */\n      swap2\n      swap1\n      pop\n      jump\t// out\n        /* \"#utility.yul\":7127:8757   */\n    tag_228:\n        /* \"#utility.yul\":7236:7239   */\n      0x00\n        /* \"#utility.yul\":7272:7276   */\n      0xe0\n        /* \"#utility.yul\":7267:7270   */\n      dup4\n        /* \"#utility.yul\":7263:7277   */\n      add\n        /* \"#utility.yul\":7359:7363   */\n      0x00\n        /* \"#utility.yul\":7352:7357   */\n      dup4\n        /* \"#utility.yul\":7348:7364   */\n      add\n        /* \"#utility.yul\":7342:7365   */\n      mload\n        /* \"#utility.yul\":7412:7415   */\n      dup5\n        /* \"#utility.yul\":7406:7410   */\n      dup3\n        /* \"#utility.yul\":7402:7416   */\n      sub\n        /* \"#utility.yul\":7395:7399   */\n      0x00\n        /* \"#utility.yul\":7390:7393   */\n      dup7\n        /* \"#utility.yul\":7386:7400   */\n      add\n        /* \"#utility.yul\":7379:7417   */\n      mstore\n        /* \"#utility.yul\":7438:7511   */\n      tag_344\n        /* \"#utility.yul\":7506:7510   */\n      dup3\n        /* \"#utility.yul\":7492:7504   */\n      dup3\n        /* \"#utility.yul\":7438:7511   */\n      tag_210\n      jump\t// in\n    tag_344:\n        /* \"#utility.yul\":7430:7511   */\n      swap2\n      pop\n        /* \"#utility.yul\":7287:7522   */\n      pop\n        /* \"#utility.yul\":7605:7609   */\n      0x20\n        /* \"#utility.yul\":7598:7603   */\n      dup4\n        /* \"#utility.yul\":7594:7610   */\n      add\n        /* \"#utility.yul\":7588:7611   */\n      mload\n        /* \"#utility.yul\":7658:7661   */\n      dup5\n        /* \"#utility.yul\":7652:7656   */\n      dup3\n        /* \"#utility.yul\":7648:7662   */\n      sub\n        /* \"#utility.yul\":7641:7645   */\n      0x20\n        /* \"#utility.yul\":7636:7639   */\n      dup7\n        /* \"#utility.yul\":7632:7646   */\n      add\n        /* \"#utility.yul\":7625:7663   */\n      mstore\n        /* \"#utility.yul\":7684:7757   */\n      tag_345\n        /* \"#utility.yul\":7752:7756   */\n      dup3\n        /* \"#utility.yul\":7738:7750   */\n      dup3\n        /* \"#utility.yul\":7684:7757   */\n      tag_210\n      jump\t// in\n    tag_345:\n        /* \"#utility.yul\":7676:7757   */\n      swap2\n      pop\n        /* \"#utility.yul\":7532:7768   */\n      pop\n        /* \"#utility.yul\":7849:7853   */\n      0x40\n        /* \"#utility.yul\":7842:7847   */\n      dup4\n        /* \"#utility.yul\":7838:7854   */\n      add\n        /* \"#utility.yul\":7832:7855   */\n      mload\n        /* \"#utility.yul\":7868:7931   */\n      tag_346\n        /* \"#utility.yul\":7925:7929   */\n      0x40\n        /* \"#utility.yul\":7920:7923   */\n      dup7\n        /* \"#utility.yul\":7916:7930   */\n      add\n        /* \"#utility.yul\":7902:7914   */\n      dup3\n        /* \"#utility.yul\":7868:7931   */\n      tag_212\n      jump\t// in\n    tag_346:\n        /* \"#utility.yul\":7778:7941   */\n      pop\n        /* \"#utility.yul\":8025:8029   */\n      0x60\n        /* \"#utility.yul\":8018:8023   */\n      dup4\n        /* \"#utility.yul\":8014:8030   */\n      add\n        /* \"#utility.yul\":8008:8031   */\n      mload\n        /* \"#utility.yul\":8078:8081   */\n      dup5\n        /* \"#utility.yul\":8072:8076   */\n      dup3\n        /* \"#utility.yul\":8068:8082   */\n      sub\n        /* \"#utility.yul\":8061:8065   */\n      0x60\n        /* \"#utility.yul\":8056:8059   */\n      dup7\n        /* \"#utility.yul\":8052:8066   */\n      add\n        /* \"#utility.yul\":8045:8083   */\n      mstore\n        /* \"#utility.yul\":8104:8177   */\n      tag_347\n        /* \"#utility.yul\":8172:8176   */\n      dup3\n        /* \"#utility.yul\":8158:8170   */\n      dup3\n        /* \"#utility.yul\":8104:8177   */\n      tag_210\n      jump\t// in\n    tag_347:\n        /* \"#utility.yul\":8096:8177   */\n      swap2\n      pop\n        /* \"#utility.yul\":7951:8188   */\n      pop\n        /* \"#utility.yul\":8277:8281   */\n      0x80\n        /* \"#utility.yul\":8270:8275   */\n      dup4\n        /* \"#utility.yul\":8266:8282   */\n      add\n        /* \"#utility.yul\":8260:8283   */\n      mload\n        /* \"#utility.yul\":8296:8359   */\n      tag_348\n        /* \"#utility.yul\":8353:8357   */\n      0x80\n        /* \"#utility.yul\":8348:8351   */\n      dup7\n        /* \"#utility.yul\":8344:8358   */\n      add\n        /* \"#utility.yul\":8330:8342   */\n      dup3\n        /* \"#utility.yul\":8296:8359   */\n      tag_212\n      jump\t// in\n    tag_348:\n        /* \"#utility.yul\":8198:8369   */\n      pop\n        /* \"#utility.yul\":8463:8467   */\n      0xa0\n        /* \"#utility.yul\":8456:8461   */\n      dup4\n        /* \"#utility.yul\":8452:8468   */\n      add\n        /* \"#utility.yul\":8446:8469   */\n      mload\n        /* \"#utility.yul\":8482:8545   */\n      tag_349\n        /* \"#utility.yul\":8539:8543   */\n      0xa0\n        /* \"#utility.yul\":8534:8537   */\n      dup7\n        /* \"#utility.yul\":8530:8544   */\n      add\n        /* \"#utility.yul\":8516:8528   */\n      dup3\n        /* \"#utility.yul\":8482:8545   */\n      tag_215\n      jump\t// in\n    tag_349:\n        /* \"#utility.yul\":8379:8555   */\n      pop\n        /* \"#utility.yul\":8638:8642   */\n      0xc0\n        /* \"#utility.yul\":8631:8636   */\n      dup4\n        /* \"#utility.yul\":8627:8643   */\n      add\n        /* \"#utility.yul\":8621:8644   */\n      mload\n        /* \"#utility.yul\":8657:8720   */\n      tag_350\n        /* \"#utility.yul\":8714:8718   */\n      0xc0\n        /* \"#utility.yul\":8709:8712   */\n      dup7\n        /* \"#utility.yul\":8705:8719   */\n      add\n        /* \"#utility.yul\":8691:8703   */\n      dup3\n        /* \"#utility.yul\":8657:8720   */\n      tag_212\n      jump\t// in\n    tag_350:\n        /* \"#utility.yul\":8565:8730   */\n      pop\n        /* \"#utility.yul\":8747:8751   */\n      dup1\n        /* \"#utility.yul\":8740:8751   */\n      swap2\n      pop\n        /* \"#utility.yul\":7241:8757   */\n      pop\n        /* \"#utility.yul\":7127:8757   */\n      swap3\n      swap2\n      pop\n      pop\n      jump\t// out\n        /* \"#utility.yul\":8763:9019   */\n    tag_229:\n        /* \"#utility.yul\":8882:8892   */\n      0x00\n        /* \"#utility.yul\":8917:9013   */\n      tag_352\n        /* \"#utility.yul\":9009:9012   */\n      dup4\n        /* \"#utility.yul\":9001:9007   */\n      dup4\n        /* \"#utility.yul\":8917:9013   */\n      tag_228\n      jump\t// in\n    tag_352:\n        /* \"#utility.yul\":8903:9013   */\n      swap1\n      pop\n        /* \"#utility.yul\":8763:9019   */\n      swap3\n      swap2\n      pop\n      pop\n      jump\t// out\n        /* \"#utility.yul\":9025:9163   */\n    tag_230:\n        /* \"#utility.yul\":9120:9124   */\n      0x00\n        /* \"#utility.yul\":9152:9156   */\n      0x20\n        /* \"#utility.yul\":9147:9150   */\n      dup3\n        /* \"#utility.yul\":9143:9157   */\n      add\n        /* \"#utility.yul\":9135:9157   */\n      swap1\n      pop\n        /* \"#utility.yul\":9025:9163   */\n      swap2\n      swap1\n      pop\n      jump\t// out\n        /* \"#utility.yul\":9227:10338   */\n    tag_231:\n        /* \"#utility.yul\":9396:9399   */\n      0x00\n        /* \"#utility.yul\":9425:9504   */\n      tag_355\n        /* \"#utility.yul\":9498:9503   */\n      dup3\n        /* \"#utility.yul\":9425:9504   */\n      tag_225\n      jump\t// in\n    tag_355:\n        /* \"#utility.yul\":9520:9631   */\n      tag_356\n        /* \"#utility.yul\":9624:9630   */\n      dup2\n        /* \"#utility.yul\":9619:9622   */\n      dup6\n        /* \"#utility.yul\":9520:9631   */\n      tag_226\n      jump\t// in\n    tag_356:\n        /* \"#utility.yul\":9513:9631   */\n      swap4\n      pop\n        /* \"#utility.yul\":9657:9660   */\n      dup4\n        /* \"#utility.yul\":9702:9706   */\n      0x20\n        /* \"#utility.yul\":9694:9700   */\n      dup3\n        /* \"#utility.yul\":9690:9707   */\n      mul\n        /* \"#utility.yul\":9685:9688   */\n      dup6\n        /* \"#utility.yul\":9681:9708   */\n      add\n        /* \"#utility.yul\":9732:9813   */\n      tag_357\n        /* \"#utility.yul\":9807:9812   */\n      dup6\n        /* \"#utility.yul\":9732:9813   */\n      tag_227\n      jump\t// in\n    tag_357:\n        /* \"#utility.yul\":9836:9843   */\n      dup1\n        /* \"#utility.yul\":9867:9868   */\n      0x00\n        /* \"#utility.yul\":9852:10293   */\n    tag_358:\n        /* \"#utility.yul\":9877:9883   */\n      dup6\n        /* \"#utility.yul\":9874:9875   */\n      dup2\n        /* \"#utility.yul\":9871:9884   */\n      lt\n        /* \"#utility.yul\":9852:10293   */\n      iszero\n      tag_360\n      jumpi\n        /* \"#utility.yul\":9948:9957   */\n      dup5\n        /* \"#utility.yul\":9942:9946   */\n      dup5\n        /* \"#utility.yul\":9938:9958   */\n      sub\n        /* \"#utility.yul\":9933:9936   */\n      dup10\n        /* \"#utility.yul\":9926:9959   */\n      mstore\n        /* \"#utility.yul\":9999:10005   */\n      dup2\n        /* \"#utility.yul\":9993:10006   */\n      mload\n        /* \"#utility.yul\":10027:10141   */\n      tag_361\n        /* \"#utility.yul\":10136:10140   */\n      dup6\n        /* \"#utility.yul\":10121:10134   */\n      dup3\n        /* \"#utility.yul\":10027:10141   */\n      tag_229\n      jump\t// in\n    tag_361:\n        /* \"#utility.yul\":10019:10141   */\n      swap5\n      pop\n        /* \"#utility.yul\":10164:10249   */\n      tag_362\n        /* \"#utility.yul\":10242:10248   */\n      dup4\n        /* \"#utility.yul\":10164:10249   */\n      tag_230\n      jump\t// in\n    tag_362:\n        /* \"#utility.yul\":10154:10249   */\n      swap3\n      pop\n        /* \"#utility.yul\":10278:10282   */\n      0x20\n        /* \"#utility.yul\":10273:10276   */\n      dup11\n        /* \"#utility.yul\":10269:10283   */\n      add\n        /* \"#utility.yul\":10262:10283   */\n      swap10\n      pop\n        /* \"#utility.yul\":9912:10293   */\n      pop\n        /* \"#utility.yul\":9899:9900   */\n      0x01\n        /* \"#utility.yul\":9896:9897   */\n      dup2\n        /* \"#utility.yul\":9892:9901   */\n      add\n        /* \"#utility.yul\":9887:9901   */\n      swap1\n      pop\n        /* \"#utility.yul\":9852:10293   */\n      jump(tag_358)\n    tag_360:\n        /* \"#utility.yul\":9856:9870   */\n      pop\n        /* \"#utility.yul\":10309:10313   */\n      dup3\n        /* \"#utility.yul\":10302:10313   */\n      swap8\n      pop\n        /* \"#utility.yul\":10329:10332   */\n      dup8\n        /* \"#utility.yul\":10322:10332   */\n      swap6\n      pop\n        /* \"#utility.yul\":9401:10338   */\n      pop\n      pop\n      pop\n      pop\n      pop\n        /* \"#utility.yul\":9227:10338   */\n      swap3\n      swap2\n      pop\n      pop\n      jump\t// out\n        /* \"#utility.yul\":10344:10817   */\n    tag_25:\n        /* \"#utility.yul\":10537:10541   */\n      0x00\n        /* \"#utility.yul\":10575:10577   */\n      0x20\n        /* \"#utility.yul\":10564:10573   */\n      dup3\n        /* \"#utility.yul\":10560:10578   */\n      add\n        /* \"#utility.yul\":10552:10578   */\n      swap1\n      pop\n        /* \"#utility.yul\":10624:10633   */\n      dup2\n        /* \"#utility.yul\":10618:10622   */\n      dup2\n        /* \"#utility.yul\":10614:10634   */\n      sub\n        /* \"#utility.yul\":10610:10611   */\n      0x00\n        /* \"#utility.yul\":10599:10608   */\n      dup4\n        /* \"#utility.yul\":10595:10612   */\n      add\n        /* \"#utility.yul\":10588:10635   */\n      mstore\n        /* \"#utility.yul\":10652:10810   */\n      tag_364\n        /* \"#utility.yul\":10805:10809   */\n      dup2\n        /* \"#utility.yul\":10796:10802   */\n      dup5\n        /* \"#utility.yul\":10652:10810   */\n      tag_231\n      jump\t// in\n    tag_364:\n        /* \"#utility.yul\":10644:10810   */\n      swap1\n      pop\n        /* \"#utility.yul\":10344:10817   */\n      swap3\n      swap2\n      pop\n      pop\n      jump\t// out\n        /* \"#utility.yul\":10823:10992   */\n    tag_232:\n        /* \"#utility.yul\":10907:10918   */\n      0x00\n        /* \"#utility.yul\":10941:10947   */\n      dup3\n        /* \"#utility.yul\":10936:10939   */\n      dup3\n        /* \"#utility.yul\":10929:10948   */\n      mstore\n        /* \"#utility.yul\":10981:10985   */\n      0x20\n        /* \"#utility.yul\":10976:10979   */\n      dup3\n        /* \"#utility.yul\":10972:10986   */\n      add\n        /* \"#utility.yul\":10957:10986   */\n      swap1\n      pop\n        /* \"#utility.yul\":10823:10992   */\n      swap3\n      swap2\n      pop\n      pop\n      jump\t// out\n        /* \"#utility.yul\":10998:11375   */\n    tag_233:\n        /* \"#utility.yul\":11086:11089   */\n      0x00\n        /* \"#utility.yul\":11114:11153   */\n      tag_367\n        /* \"#utility.yul\":11147:11152   */\n      dup3\n        /* \"#utility.yul\":11114:11153   */\n      tag_206\n      jump\t// in\n    tag_367:\n        /* \"#utility.yul\":11169:11240   */\n      tag_368\n        /* \"#utility.yul\":11233:11239   */\n      dup2\n        /* \"#utility.yul\":11228:11231   */\n      dup6\n        /* \"#utility.yul\":11169:11240   */\n      tag_232\n      jump\t// in\n    tag_368:\n        /* \"#utility.yul\":11162:11240   */\n      swap4\n      pop\n        /* \"#utility.yul\":11249:11314   */\n      tag_369\n        /* \"#utility.yul\":11307:11313   */\n      dup2\n        /* \"#utility.yul\":11302:11305   */\n      dup6\n        /* \"#utility.yul\":11295:11299   */\n      0x20\n        /* \"#utility.yul\":11288:11293   */\n      dup7\n        /* \"#utility.yul\":11284:11300   */\n      add\n        /* \"#utility.yul\":11249:11314   */\n      tag_208\n      jump\t// in\n    tag_369:\n        /* \"#utility.yul\":11339:11368   */\n      tag_370\n        /* \"#utility.yul\":11361:11367   */\n      dup2\n        /* \"#utility.yul\":11339:11368   */\n      tag_209\n      jump\t// in\n    tag_370:\n        /* \"#utility.yul\":11334:11337   */\n      dup5\n        /* \"#utility.yul\":11330:11369   */\n      add\n        /* \"#utility.yul\":11323:11369   */\n      swap2\n      pop\n        /* \"#utility.yul\":11090:11375   */\n      pop\n        /* \"#utility.yul\":10998:11375   */\n      swap3\n      swap2\n      pop\n      pop\n      jump\t// out\n        /* \"#utility.yul\":11381:11694   */\n    tag_29:\n        /* \"#utility.yul\":11494:11498   */\n      0x00\n        /* \"#utility.yul\":11532:11534   */\n      0x20\n        /* \"#utility.yul\":11521:11530   */\n      dup3\n        /* \"#utility.yul\":11517:11535   */\n      add\n        /* \"#utility.yul\":11509:11535   */\n      swap1\n      pop\n        /* \"#utility.yul\":11581:11590   */\n      dup2\n        /* \"#utility.yul\":11575:11579   */\n      dup2\n        /* \"#utility.yul\":11571:11591   */\n      sub\n        /* \"#utility.yul\":11567:11568   */\n      0x00\n        /* \"#utility.yul\":11556:11565   */\n      dup4\n        /* \"#utility.yul\":11552:11569   */\n      add\n        /* \"#utility.yul\":11545:11592   */\n      mstore\n        /* \"#utility.yul\":11609:11687   */\n      tag_372\n        /* \"#utility.yul\":11682:11686   */\n      dup2\n        /* \"#utility.yul\":11673:11679   */\n      dup5\n        /* \"#utility.yul\":11609:11687   */\n      tag_233\n      jump\t// in\n    tag_372:\n        /* \"#utility.yul\":11601:11687   */\n      swap1\n      pop\n        /* \"#utility.yul\":11381:11694   */\n      swap3\n      swap2\n      pop\n      pop\n      jump\t// out\n        /* \"#utility.yul\":11700:11817   */\n    tag_234:\n        /* \"#utility.yul\":11809:11810   */\n      0x00\n        /* \"#utility.yul\":11806:11807   */\n      dup1\n        /* \"#utility.yul\":11799:11811   */\n      revert\n        /* \"#utility.yul\":11823:11940   */\n    tag_235:\n        /* \"#utility.yul\":11932:11933   */\n      0x00\n        /* \"#utility.yul\":11929:11930   */\n      dup1\n        /* \"#utility.yul\":11922:11934   */\n      revert\n        /* \"#utility.yul\":11946:12063   */\n    tag_236:\n        /* \"#utility.yul\":12055:12056   */\n      0x00\n        /* \"#utility.yul\":12052:12053   */\n      dup1\n        /* \"#utility.yul\":12045:12057   */\n      revert\n        /* \"#utility.yul\":12083:12636   */\n    tag_237:\n        /* \"#utility.yul\":12141:12149   */\n      0x00\n        /* \"#utility.yul\":12151:12157   */\n      dup1\n        /* \"#utility.yul\":12201:12204   */\n      dup4\n        /* \"#utility.yul\":12194:12198   */\n      0x1f\n        /* \"#utility.yul\":12186:12192   */\n      dup5\n        /* \"#utility.yul\":12182:12199   */\n      add\n        /* \"#utility.yul\":12178:12205   */\n      slt\n        /* \"#utility.yul\":12168:12290   */\n      tag_377\n      jumpi\n        /* \"#utility.yul\":12209:12288   */\n      tag_378\n      tag_234\n      jump\t// in\n    tag_378:\n        /* \"#utility.yul\":12168:12290   */\n    tag_377:\n        /* \"#utility.yul\":12322:12328   */\n      dup3\n        /* \"#utility.yul\":12309:12329   */\n      calldataload\n        /* \"#utility.yul\":12299:12329   */\n      swap1\n      pop\n        /* \"#utility.yul\":12352:12370   */\n      0xffffffffffffffff\n        /* \"#utility.yul\":12344:12350   */\n      dup2\n        /* \"#utility.yul\":12341:12371   */\n      gt\n        /* \"#utility.yul\":12338:12455   */\n      iszero\n      tag_379\n      jumpi\n        /* \"#utility.yul\":12374:12453   */\n      tag_380\n      tag_235\n      jump\t// in\n    tag_380:\n        /* \"#utility.yul\":12338:12455   */\n    tag_379:\n        /* \"#utility.yul\":12488:12492   */\n      0x20\n        /* \"#utility.yul\":12480:12486   */\n      dup4\n        /* \"#utility.yul\":12476:12493   */\n      add\n        /* \"#utility.yul\":12464:12493   */\n      swap2\n      pop\n        /* \"#utility.yul\":12542:12545   */\n      dup4\n        /* \"#utility.yul\":12534:12538   */\n      0x01\n        /* \"#utility.yul\":12526:12532   */\n      dup3\n        /* \"#utility.yul\":12522:12539   */\n      mul\n        /* \"#utility.yul\":12512:12520   */\n      dup4\n        /* \"#utility.yul\":12508:12540   */\n      add\n        /* \"#utility.yul\":12505:12546   */\n      gt\n        /* \"#utility.yul\":12502:12630   */\n      iszero\n      tag_381\n      jumpi\n        /* \"#utility.yul\":12549:12628   */\n      tag_382\n      tag_236\n      jump\t// in\n    tag_382:\n        /* \"#utility.yul\":12502:12630   */\n    tag_381:\n        /* \"#utility.yul\":12083:12636   */\n      swap3\n      pop\n      swap3\n      swap1\n      pop\n      jump\t// out\n        /* \"#utility.yul\":12642:13661   */\n    tag_34:\n        /* \"#utility.yul\":12743:12749   */\n      0x00\n        /* \"#utility.yul\":12751:12757   */\n      dup1\n        /* \"#utility.yul\":12759:12765   */\n      0x00\n        /* \"#utility.yul\":12767:12773   */\n      dup1\n        /* \"#utility.yul\":12775:12781   */\n      0x00\n        /* \"#utility.yul\":12824:12826   */\n      0x60\n        /* \"#utility.yul\":12812:12821   */\n      dup7\n        /* \"#utility.yul\":12803:12810   */\n      dup9\n        /* \"#utility.yul\":12799:12822   */\n      sub\n        /* \"#utility.yul\":12795:12827   */\n      slt\n        /* \"#utility.yul\":12792:12911   */\n      iszero\n      tag_384\n      jumpi\n        /* \"#utility.yul\":12830:12909   */\n      tag_385\n      tag_221\n      jump\t// in\n    tag_385:\n        /* \"#utility.yul\":12792:12911   */\n    tag_384:\n        /* \"#utility.yul\":12978:12979   */\n      0x00\n        /* \"#utility.yul\":12967:12976   */\n      dup7\n        /* \"#utility.yul\":12963:12980   */\n      add\n        /* \"#utility.yul\":12950:12981   */\n      calldataload\n        /* \"#utility.yul\":13008:13026   */\n      0xffffffffffffffff\n        /* \"#utility.yul\":13000:13006   */\n      dup2\n        /* \"#utility.yul\":12997:13027   */\n      gt\n        /* \"#utility.yul\":12994:13111   */\n      iszero\n      tag_386\n      jumpi\n        /* \"#utility.yul\":13030:13109   */\n      tag_387\n      tag_222\n      jump\t// in\n    tag_387:\n        /* \"#utility.yul\":12994:13111   */\n    tag_386:\n        /* \"#utility.yul\":13143:13208   */\n      tag_388\n        /* \"#utility.yul\":13200:13207   */\n      dup9\n        /* \"#utility.yul\":13191:13197   */\n      dup3\n        /* \"#utility.yul\":13180:13189   */\n      dup10\n        /* \"#utility.yul\":13176:13198   */\n      add\n        /* \"#utility.yul\":13143:13208   */\n      tag_237\n      jump\t// in\n    tag_388:\n        /* \"#utility.yul\":13125:13208   */\n      swap6\n      pop\n      swap6\n      pop\n        /* \"#utility.yul\":12921:13218   */\n      pop\n        /* \"#utility.yul\":13257:13259   */\n      0x20\n        /* \"#utility.yul\":13283:13336   */\n      tag_389\n        /* \"#utility.yul\":13328:13335   */\n      dup9\n        /* \"#utility.yul\":13319:13325   */\n      dup3\n        /* \"#utility.yul\":13308:13317   */\n      dup10\n        /* \"#utility.yul\":13304:13326   */\n      add\n        /* \"#utility.yul\":13283:13336   */\n      tag_224\n      jump\t// in\n    tag_389:\n        /* \"#utility.yul\":13273:13336   */\n      swap4\n      pop\n        /* \"#utility.yul\":13228:13346   */\n      pop\n        /* \"#utility.yul\":13413:13415   */\n      0x40\n        /* \"#utility.yul\":13402:13411   */\n      dup7\n        /* \"#utility.yul\":13398:13416   */\n      add\n        /* \"#utility.yul\":13385:13417   */\n      calldataload\n        /* \"#utility.yul\":13444:13462   */\n      0xffffffffffffffff\n        /* \"#utility.yul\":13436:13442   */\n      dup2\n        /* \"#utility.yul\":13433:13463   */\n      gt\n        /* \"#utility.yul\":13430:13547   */\n      iszero\n      tag_390\n      jumpi\n        /* \"#utility.yul\":13466:13545   */\n      tag_391\n      tag_222\n      jump\t// in\n    tag_391:\n        /* \"#utility.yul\":13430:13547   */\n    tag_390:\n        /* \"#utility.yul\":13579:13644   */\n      tag_392\n        /* \"#utility.yul\":13636:13643   */\n      dup9\n        /* \"#utility.yul\":13627:13633   */\n      dup3\n        /* \"#utility.yul\":13616:13625   */\n      dup10\n        /* \"#utility.yul\":13612:13634   */\n      add\n        /* \"#utility.yul\":13579:13644   */\n      tag_237\n      jump\t// in\n    tag_392:\n        /* \"#utility.yul\":13561:13644   */\n      swap3\n      pop\n      swap3\n      pop\n        /* \"#utility.yul\":13356:13654   */\n      pop\n        /* \"#utility.yul\":12642:13661   */\n      swap3\n      swap6\n      pop\n      swap3\n      swap6\n      swap1\n      swap4\n      pop\n      jump\t// out\n        /* \"#utility.yul\":13667:15032   */\n    tag_43:\n        /* \"#utility.yul\":13789:13795   */\n      0x00\n        /* \"#utility.yul\":13797:13803   */\n      dup1\n        /* \"#utility.yul\":13805:13811   */\n      0x00\n        /* \"#utility.yul\":13813:13819   */\n      dup1\n        /* \"#utility.yul\":13821:13827   */\n      0x00\n        /* \"#utility.yul\":13829:13835   */\n      dup1\n        /* \"#utility.yul\":13837:13843   */\n      0x00\n        /* \"#utility.yul\":13886:13889   */\n      0x80\n        /* \"#utility.yul\":13874:13883   */\n      dup9\n        /* \"#utility.yul\":13865:13872   */\n      dup11\n        /* \"#utility.yul\":13861:13884   */\n      sub\n        /* \"#utility.yul\":13857:13890   */\n      slt\n        /* \"#utility.yul\":13854:13974   */\n      iszero\n      tag_394\n      jumpi\n        /* \"#utility.yul\":13893:13972   */\n      tag_395\n      tag_221\n      jump\t// in\n    tag_395:\n        /* \"#utility.yul\":13854:13974   */\n    tag_394:\n        /* \"#utility.yul\":14041:14042   */\n      0x00\n        /* \"#utility.yul\":14030:14039   */\n      dup9\n        /* \"#utility.yul\":14026:14043   */\n      add\n        /* \"#utility.yul\":14013:14044   */\n      calldataload\n        /* \"#utility.yul\":14071:14089   */\n      0xffffffffffffffff\n        /* \"#utility.yul\":14063:14069   */\n      dup2\n        /* \"#utility.yul\":14060:14090   */\n      gt\n        /* \"#utility.yul\":14057:14174   */\n      iszero\n      tag_396\n      jumpi\n        /* \"#utility.yul\":14093:14172   */\n      tag_397\n      tag_222\n      jump\t// in\n    tag_397:\n        /* \"#utility.yul\":14057:14174   */\n    tag_396:\n        /* \"#utility.yul\":14206:14271   */\n      tag_398\n        /* \"#utility.yul\":14263:14270   */\n      dup11\n        /* \"#utility.yul\":14254:14260   */\n      dup3\n        /* \"#utility.yul\":14243:14252   */\n      dup12\n        /* \"#utility.yul\":14239:14261   */\n      add\n        /* \"#utility.yul\":14206:14271   */\n      tag_237\n      jump\t// in\n    tag_398:\n        /* \"#utility.yul\":14188:14271   */\n      swap8\n      pop\n      swap8\n      pop\n        /* \"#utility.yul\":13984:14281   */\n      pop\n        /* \"#utility.yul\":14348:14350   */\n      0x20\n        /* \"#utility.yul\":14337:14346   */\n      dup9\n        /* \"#utility.yul\":14333:14351   */\n      add\n        /* \"#utility.yul\":14320:14352   */\n      calldataload\n        /* \"#utility.yul\":14379:14397   */\n      0xffffffffffffffff\n        /* \"#utility.yul\":14371:14377   */\n      dup2\n        /* \"#utility.yul\":14368:14398   */\n      gt\n        /* \"#utility.yul\":14365:14482   */\n      iszero\n      tag_399\n      jumpi\n        /* \"#utility.yul\":14401:14480   */\n      tag_400\n      tag_222\n      jump\t// in\n    tag_400:\n        /* \"#utility.yul\":14365:14482   */\n    tag_399:\n        /* \"#utility.yul\":14514:14579   */\n      tag_401\n        /* \"#utility.yul\":14571:14578   */\n      dup11\n        /* \"#utility.yul\":14562:14568   */\n      dup3\n        /* \"#utility.yul\":14551:14560   */\n      dup12\n        /* \"#utility.yul\":14547:14569   */\n      add\n        /* \"#utility.yul\":14514:14579   */\n      tag_237\n      jump\t// in\n    tag_401:\n        /* \"#utility.yul\":14496:14579   */\n      swap6\n      pop\n      swap6\n      pop\n        /* \"#utility.yul\":14291:14589   */\n      pop\n        /* \"#utility.yul\":14628:14630   */\n      0x40\n        /* \"#utility.yul\":14654:14707   */\n      tag_402\n        /* \"#utility.yul\":14699:14706   */\n      dup11\n        /* \"#utility.yul\":14690:14696   */\n      dup3\n        /* \"#utility.yul\":14679:14688   */\n      dup12\n        /* \"#utility.yul\":14675:14697   */\n      add\n        /* \"#utility.yul\":14654:14707   */\n      tag_224\n      jump\t// in\n    tag_402:\n        /* \"#utility.yul\":14644:14707   */\n      swap4\n      pop\n        /* \"#utility.yul\":14599:14717   */\n      pop\n        /* \"#utility.yul\":14784:14786   */\n      0x60\n        /* \"#utility.yul\":14773:14782   */\n      dup9\n        /* \"#utility.yul\":14769:14787   */\n      add\n        /* \"#utility.yul\":14756:14788   */\n      calldataload\n        /* \"#utility.yul\":14815:14833   */\n      0xffffffffffffffff\n        /* \"#utility.yul\":14807:14813   */\n      dup2\n        /* \"#utility.yul\":14804:14834   */\n      gt\n        /* \"#utility.yul\":14801:14918   */\n      iszero\n      tag_403\n      jumpi\n        /* \"#utility.yul\":14837:14916   */\n      tag_404\n      tag_222\n      jump\t// in\n    tag_404:\n        /* \"#utility.yul\":14801:14918   */\n    tag_403:\n        /* \"#utility.yul\":14950:15015   */\n      tag_405\n        /* \"#utility.yul\":15007:15014   */\n      dup11\n        /* \"#utility.yul\":14998:15004   */\n      dup3\n        /* \"#utility.yul\":14987:14996   */\n      dup12\n        /* \"#utility.yul\":14983:15005   */\n      add\n        /* \"#utility.yul\":14950:15015   */\n      tag_237\n      jump\t// in\n    tag_405:\n        /* \"#utility.yul\":14932:15015   */\n      swap3\n      pop\n      swap3\n      pop\n        /* \"#utility.yul\":14727:15025   */\n      pop\n        /* \"#utility.yul\":13667:15032   */\n      swap3\n      swap6\n      swap9\n      swap2\n      swap5\n      swap8\n      pop\n      swap3\n      swap6\n      pop\n      jump\t// out\n        /* \"#utility.yul\":15038:15156   */\n    tag_238:\n        /* \"#utility.yul\":15125:15149   */\n      tag_407\n        /* \"#utility.yul\":15143:15148   */\n      dup2\n        /* \"#utility.yul\":15125:15149   */\n      tag_214\n      jump\t// in\n    tag_407:\n        /* \"#utility.yul\":15120:15123   */\n      dup3\n        /* \"#utility.yul\":15113:15150   */\n      mstore\n        /* \"#utility.yul\":15038:15156   */\n      pop\n      pop\n      jump\t// out\n        /* \"#utility.yul\":15162:15384   */\n    tag_48:\n        /* \"#utility.yul\":15255:15259   */\n      0x00\n        /* \"#utility.yul\":15293:15295   */\n      0x20\n        /* \"#utility.yul\":15282:15291   */\n      dup3\n        /* \"#utility.yul\":15278:15296   */\n      add\n        /* \"#utility.yul\":15270:15296   */\n      swap1\n      pop\n        /* \"#utility.yul\":15306:15377   */\n      tag_409\n        /* \"#utility.yul\":15374:15375   */\n      0x00\n        /* \"#utility.yul\":15363:15372   */\n      dup4\n        /* \"#utility.yul\":15359:15376   */\n      add\n        /* \"#utility.yul\":15350:15356   */\n      dup5\n        /* \"#utility.yul\":15306:15377   */\n      tag_238\n      jump\t// in\n    tag_409:\n        /* \"#utility.yul\":15162:15384   */\n      swap3\n      swap2\n      pop\n      pop\n      jump\t// out\n        /* \"#utility.yul\":15390:15570   */\n    tag_52:\n        /* \"#utility.yul\":15438:15515   */\n      0x4e487b7100000000000000000000000000000000000000000000000000000000\n        /* \"#utility.yul\":15435:15436   */\n      0x00\n        /* \"#utility.yul\":15428:15516   */\n      mstore\n        /* \"#utility.yul\":15535:15539   */\n      0x41\n        /* \"#utility.yul\":15532:15533   */\n      0x04\n        /* \"#utility.yul\":15525:15540   */\n      mstore\n        /* \"#utility.yul\":15559:15563   */\n      0x24\n        /* \"#utility.yul\":15556:15557   */\n      0x00\n        /* \"#utility.yul\":15549:15564   */\n      revert\n        /* \"#utility.yul\":15576:15756   */\n    tag_239:\n        /* \"#utility.yul\":15624:15701   */\n      0x4e487b7100000000000000000000000000000000000000000000000000000000\n        /* \"#utility.yul\":15621:15622   */\n      0x00\n        /* \"#utility.yul\":15614:15702   */\n      mstore\n        /* \"#utility.yul\":15721:15725   */\n      0x22\n        /* \"#utility.yul\":15718:15719   */\n      0x04\n        /* \"#utility.yul\":15711:15726   */\n      mstore\n        /* \"#utility.yul\":15745:15749   */\n      0x24\n        /* \"#utility.yul\":15742:15743   */\n      0x00\n        /* \"#utility.yul\":15735:15750   */\n      revert\n        /* \"#utility.yul\":15762:16082   */\n    tag_61:\n        /* \"#utility.yul\":15806:15812   */\n      0x00\n        /* \"#utility.yul\":15843:15844   */\n      0x02\n        /* \"#utility.yul\":15837:15841   */\n      dup3\n        /* \"#utility.yul\":15833:15845   */\n      div\n        /* \"#utility.yul\":15823:15845   */\n      swap1\n      pop\n        /* \"#utility.yul\":15890:15891   */\n      0x01\n        /* \"#utility.yul\":15884:15888   */\n      dup3\n        /* \"#utility.yul\":15880:15892   */\n      and\n        /* \"#utility.yul\":15911:15929   */\n      dup1\n        /* \"#utility.yul\":15901:15982   */\n      tag_413\n      jumpi\n        /* \"#utility.yul\":15967:15971   */\n      0x7f\n        /* \"#utility.yul\":15959:15965   */\n      dup3\n        /* \"#utility.yul\":15955:15972   */\n      and\n        /* \"#utility.yul\":15945:15972   */\n      swap2\n      pop\n        /* \"#utility.yul\":15901:15982   */\n    tag_413:\n        /* \"#utility.yul\":16029:16031   */\n      0x20\n        /* \"#utility.yul\":16021:16027   */\n      dup3\n        /* \"#utility.yul\":16018:16032   */\n      lt\n        /* \"#utility.yul\":15998:16016   */\n      dup2\n        /* \"#utility.yul\":15995:16033   */\n      sub\n        /* \"#utility.yul\":15992:16076   */\n      tag_414\n      jumpi\n        /* \"#utility.yul\":16048:16066   */\n      tag_415\n      tag_239\n      jump\t// in\n    tag_415:\n        /* \"#utility.yul\":15992:16076   */\n    tag_414:\n        /* \"#utility.yul\":15813:16082   */\n      pop\n        /* \"#utility.yul\":15762:16082   */\n      swap2\n      swap1\n      pop\n      jump\t// out\n        /* \"#utility.yul\":16088:16268   */\n    tag_240:\n        /* \"#utility.yul\":16136:16213   */\n      0x4e487b7100000000000000000000000000000000000000000000000000000000\n        /* \"#utility.yul\":16133:16134   */\n      0x00\n        /* \"#utility.yul\":16126:16214   */\n      mstore\n        /* \"#utility.yul\":16233:16237   */\n      0x11\n        /* \"#utility.yul\":16230:16231   */\n      0x04\n        /* \"#utility.yul\":16223:16238   */\n      mstore\n        /* \"#utility.yul\":16257:16261   */\n      0x24\n        /* \"#utility.yul\":16254:16255   */\n      0x00\n        /* \"#utility.yul\":16247:16262   */\n      revert\n        /* \"#utility.yul\":16274:16468   */\n    tag_72:\n        /* \"#utility.yul\":16314:16318   */\n      0x00\n        /* \"#utility.yul\":16334:16354   */\n      tag_418\n        /* \"#utility.yul\":16352:16353   */\n      dup3\n        /* \"#utility.yul\":16334:16354   */\n      tag_211\n      jump\t// in\n    tag_418:\n        /* \"#utility.yul\":16329:16354   */\n      swap2\n      pop\n        /* \"#utility.yul\":16368:16388   */\n      tag_419\n        /* \"#utility.yul\":16386:16387   */\n      dup4\n        /* \"#utility.yul\":16368:16388   */\n      tag_211\n      jump\t// in\n    tag_419:\n        /* \"#utility.yul\":16363:16388   */\n      swap3\n      pop\n        /* \"#utility.yul\":16412:16413   */\n      dup3\n        /* \"#utility.yul\":16409:16410   */\n      dup3\n        /* \"#utility.yul\":16405:16414   */\n      sub\n        /* \"#utility.yul\":16397:16414   */\n      swap1\n      pop\n        /* \"#utility.yul\":16436:16437   */\n      dup2\n        /* \"#utility.yul\":16430:16434   */\n      dup2\n        /* \"#utility.yul\":16427:16438   */\n      gt\n        /* \"#utility.yul\":16424:16461   */\n      iszero\n      tag_420\n      jumpi\n        /* \"#utility.yul\":16441:16459   */\n      tag_421\n      tag_240\n      jump\t// in\n    tag_421:\n        /* \"#utility.yul\":16424:16461   */\n    tag_420:\n        /* \"#utility.yul\":16274:16468   */\n      swap3\n      swap2\n      pop\n      pop\n      jump\t// out\n        /* \"#utility.yul\":16474:16654   */\n    tag_75:\n        /* \"#utility.yul\":16522:16599   */\n      0x4e487b7100000000000000000000000000000000000000000000000000000000\n        /* \"#utility.yul\":16519:16520   */\n      0x00\n        /* \"#utility.yul\":16512:16600   */\n      mstore\n        /* \"#utility.yul\":16619:16623   */\n      0x32\n        /* \"#utility.yul\":16616:16617   */\n      0x04\n        /* \"#utility.yul\":16609:16624   */\n      mstore\n        /* \"#utility.yul\":16643:16647   */\n      0x24\n        /* \"#utility.yul\":16640:16641   */\n      0x00\n        /* \"#utility.yul\":16633:16648   */\n      revert\n        /* \"#utility.yul\":16660:16893   */\n    tag_77:\n        /* \"#utility.yul\":16699:16702   */\n      0x00\n        /* \"#utility.yul\":16722:16746   */\n      tag_424\n        /* \"#utility.yul\":16740:16745   */\n      dup3\n        /* \"#utility.yul\":16722:16746   */\n      tag_211\n      jump\t// in\n    tag_424:\n        /* \"#utility.yul\":16713:16746   */\n      swap2\n      pop\n        /* \"#utility.yul\":16768:16834   */\n      0xffffffffffffffffffffffffffffffffffffffffffffffffffffffffffffffff\n        /* \"#utility.yul\":16761:16766   */\n      dup3\n        /* \"#utility.yul\":16758:16835   */\n      sub\n        /* \"#utility.yul\":16755:16858   */\n      tag_425\n      jumpi\n        /* \"#utility.yul\":16838:16856   */\n      tag_426\n      tag_240\n      jump\t// in\n    tag_426:\n        /* \"#utility.yul\":16755:16858   */\n    tag_425:\n        /* \"#utility.yul\":16885:16886   */\n      0x01\n        /* \"#utility.yul\":16878:16883   */\n      dup3\n        /* \"#utility.yul\":16874:16887   */\n      add\n        /* \"#utility.yul\":16867:16887   */\n      swap1\n      pop\n        /* \"#utility.yul\":16660:16893   */\n      swap2\n      swap1\n      pop\n      jump\t// out\n        /* \"#utility.yul\":16899:17076   */\n    tag_241:\n        /* \"#utility.yul\":17039:17068   */\n      0x4e6f742066726f6d20656c656374696f6e20436f6d6d6973696f6e0000000000\n        /* \"#utility.yul\":17035:17036   */\n      0x00\n        /* \"#utility.yul\":17027:17033   */\n      dup3\n        /* \"#utility.yul\":17023:17037   */\n      add\n        /* \"#utility.yul\":17016:17069   */\n      mstore\n        /* \"#utility.yul\":16899:17076   */\n      pop\n      jump\t// out\n        /* \"#utility.yul\":17082:17448   */\n    tag_242:\n        /* \"#utility.yul\":17224:17227   */\n      0x00\n        /* \"#utility.yul\":17245:17312   */\n      tag_429\n        /* \"#utility.yul\":17309:17311   */\n      0x1b\n        /* \"#utility.yul\":17304:17307   */\n      dup4\n        /* \"#utility.yul\":17245:17312   */\n      tag_232\n      jump\t// in\n    tag_429:\n        /* \"#utility.yul\":17238:17312   */\n      swap2\n      pop\n        /* \"#utility.yul\":17321:17414   */\n      tag_430\n        /* \"#utility.yul\":17410:17413   */\n      dup3\n        /* \"#utility.yul\":17321:17414   */\n      tag_241\n      jump\t// in\n    tag_430:\n        /* \"#utility.yul\":17439:17441   */\n      0x20\n        /* \"#utility.yul\":17434:17437   */\n      dup3\n        /* \"#utility.yul\":17430:17442   */\n      add\n        /* \"#utility.yul\":17423:17442   */\n      swap1\n      pop\n        /* \"#utility.yul\":17082:17448   */\n      swap2\n      swap1\n      pop\n      jump\t// out\n        /* \"#utility.yul\":17454:17873   */\n    tag_81:\n        /* \"#utility.yul\":17620:17624   */\n      0x00\n        /* \"#utility.yul\":17658:17660   */\n      0x20\n        /* \"#utility.yul\":17647:17656   */\n      dup3\n        /* \"#utility.yul\":17643:17661   */\n      add\n        /* \"#utility.yul\":17635:17661   */\n      swap1\n      pop\n        /* \"#utility.yul\":17707:17716   */\n      dup2\n        /* \"#utility.yul\":17701:17705   */\n      dup2\n        /* \"#utility.yul\":17697:17717   */\n      sub\n        /* \"#utility.yul\":17693:17694   */\n      0x00\n        /* \"#utility.yul\":17682:17691   */\n      dup4\n        /* \"#utility.yul\":17678:17695   */\n      add\n        /* \"#utility.yul\":17671:17718   */\n      mstore\n        /* \"#utility.yul\":17735:17866   */\n      tag_432\n        /* \"#utility.yul\":17861:17865   */\n      dup2\n        /* \"#utility.yul\":17735:17866   */\n      tag_242\n      jump\t// in\n    tag_432:\n        /* \"#utility.yul\":17727:17866   */\n      swap1\n      pop\n        /* \"#utility.yul\":17454:17873   */\n      swap2\n      swap1\n      pop\n      jump\t// out\n        /* \"#utility.yul\":17879:18070   */\n    tag_84:\n        /* \"#utility.yul\":17919:17922   */\n      0x00\n        /* \"#utility.yul\":17938:17958   */\n      tag_434\n        /* \"#utility.yul\":17956:17957   */\n      dup3\n        /* \"#utility.yul\":17938:17958   */\n      tag_211\n      jump\t// in\n    tag_434:\n        /* \"#utility.yul\":17933:17958   */\n      swap2\n      pop\n        /* \"#utility.yul\":17972:17992   */\n      tag_435\n        /* \"#utility.yul\":17990:17991   */\n      dup4\n        /* \"#utility.yul\":17972:17992   */\n      tag_211\n      jump\t// in\n    tag_435:\n        /* \"#utility.yul\":17967:17992   */\n      swap3\n      pop\n        /* \"#utility.yul\":18015:18016   */\n      dup3\n        /* \"#utility.yul\":18012:18013   */\n      dup3\n        /* \"#utility.yul\":18008:18017   */\n      add\n        /* \"#utility.yul\":18001:18017   */\n      swap1\n      pop\n        /* \"#utility.yul\":18036:18039   */\n      dup1\n        /* \"#utility.yul\":18033:18034   */\n      dup3\n        /* \"#utility.yul\":18030:18040   */\n      gt\n        /* \"#utility.yul\":18027:18063   */\n      iszero\n      tag_436\n      jumpi\n        /* \"#utility.yul\":18043:18061   */\n      tag_437\n      tag_240\n      jump\t// in\n    tag_437:\n        /* \"#utility.yul\":18027:18063   */\n    tag_436:\n        /* \"#utility.yul\":17879:18070   */\n      swap3\n      swap2\n      pop\n      pop\n      jump\t// out\n        /* \"#utility.yul\":18076:18240   */\n    tag_243:\n        /* \"#utility.yul\":18216:18232   */\n      0x766f74696e67206973206f766572000000000000000000000000000000000000\n        /* \"#utility.yul\":18212:18213   */\n      0x00\n        /* \"#utility.yul\":18204:18210   */\n      dup3\n        /* \"#utility.yul\":18200:18214   */\n      add\n        /* \"#utility.yul\":18193:18233   */\n      mstore\n        /* \"#utility.yul\":18076:18240   */\n      pop\n      jump\t// out\n        /* \"#utility.yul\":18246:18612   */\n    tag_244:\n        /* \"#utility.yul\":18388:18391   */\n      0x00\n        /* \"#utility.yul\":18409:18476   */\n      tag_440\n        /* \"#utility.yul\":18473:18475   */\n      0x0e\n        /* \"#utility.yul\":18468:18471   */\n      dup4\n        /* \"#utility.yul\":18409:18476   */\n      tag_232\n      jump\t// in\n    tag_440:\n        /* \"#utility.yul\":18402:18476   */\n      swap2\n      pop\n        /* \"#utility.yul\":18485:18578   */\n      tag_441\n        /* \"#utility.yul\":18574:18577   */\n      dup3\n        /* \"#utility.yul\":18485:18578   */\n      tag_243\n      jump\t// in\n    tag_441:\n        /* \"#utility.yul\":18603:18605   */\n      0x20\n        /* \"#utility.yul\":18598:18601   */\n      dup3\n        /* \"#utility.yul\":18594:18606   */\n      add\n        /* \"#utility.yul\":18587:18606   */\n      swap1\n      pop\n        /* \"#utility.yul\":18246:18612   */\n      swap2\n      swap1\n      pop\n      jump\t// out\n        /* \"#utility.yul\":18618:19037   */\n    tag_129:\n        /* \"#utility.yul\":18784:18788   */\n      0x00\n        /* \"#utility.yul\":18822:18824   */\n      0x20\n        /* \"#utility.yul\":18811:18820   */\n      dup3\n        /* \"#utility.yul\":18807:18825   */\n      add\n        /* \"#utility.yul\":18799:18825   */\n      swap1\n      pop\n        /* \"#utility.yul\":18871:18880   */\n      dup2\n        /* \"#utility.yul\":18865:18869   */\n      dup2\n        /* \"#utility.yul\":18861:18881   */\n      sub\n        /* \"#utility.yul\":18857:18858   */\n      0x00\n        /* \"#utility.yul\":18846:18855   */\n      dup4\n        /* \"#utility.yul\":18842:18859   */\n      add\n        /* \"#utility.yul\":18835:18882   */\n      mstore\n        /* \"#utility.yul\":18899:19030   */\n      tag_443\n        /* \"#utility.yul\":19025:19029   */\n      dup2\n        /* \"#utility.yul\":18899:19030   */\n      tag_244\n      jump\t// in\n    tag_443:\n        /* \"#utility.yul\":18891:19030   */\n      swap1\n      pop\n        /* \"#utility.yul\":18618:19037   */\n      swap2\n      swap1\n      pop\n      jump\t// out\n        /* \"#utility.yul\":19043:19224   */\n    tag_245:\n        /* \"#utility.yul\":19183:19216   */\n      0x796f7520617265206e6f7420656c656769626c6520666f7220766f74696e6700\n        /* \"#utility.yul\":19179:19180   */\n      0x00\n        /* \"#utility.yul\":19171:19177   */\n      dup3\n        /* \"#utility.yul\":19167:19181   */\n      add\n        /* \"#utility.yul\":19160:19217   */\n      mstore\n        /* \"#utility.yul\":19043:19224   */\n      pop\n      jump\t// out\n        /* \"#utility.yul\":19230:19596   */\n    tag_246:\n        /* \"#utility.yul\":19372:19375   */\n      0x00\n        /* \"#utility.yul\":19393:19460   */\n      tag_446\n        /* \"#utility.yul\":19457:19459   */\n      0x1f\n        /* \"#utility.yul\":19452:19455   */\n      dup4\n        /* \"#utility.yul\":19393:19460   */\n      tag_232\n      jump\t// in\n    tag_446:\n        /* \"#utility.yul\":19386:19460   */\n      swap2\n      pop\n        /* \"#utility.yul\":19469:19562   */\n      tag_447\n        /* \"#utility.yul\":19558:19561   */\n      dup3\n        /* \"#utility.yul\":19469:19562   */\n      tag_245\n      jump\t// in\n    tag_447:\n        /* \"#utility.yul\":19587:19589   */\n      0x20\n        /* \"#utility.yul\":19582:19585   */\n      dup3\n        /* \"#utility.yul\":19578:19590   */\n      add\n        /* \"#utility.yul\":19571:19590   */\n      swap1\n      pop\n        /* \"#utility.yul\":19230:19596   */\n      swap2\n      swap1\n      pop\n      jump\t// out\n        /* \"#utility.yul\":19602:20021   */\n    tag_136:\n        /* \"#utility.yul\":19768:19772   */\n      0x00\n        /* \"#utility.yul\":19806:19808   */\n      0x20\n        /* \"#utility.yul\":19795:19804   */\n      dup3\n        /* \"#utility.yul\":19791:19809   */\n      add\n        /* \"#utility.yul\":19783:19809   */\n      swap1\n      pop\n        /* \"#utility.yul\":19855:19864   */\n      dup2\n        /* \"#utility.yul\":19849:19853   */\n      dup2\n        /* \"#utility.yul\":19845:19865   */\n      sub\n        /* \"#utility.yul\":19841:19842   */\n      0x00\n        /* \"#utility.yul\":19830:19839   */\n      dup4\n        /* \"#utility.yul\":19826:19843   */\n      add\n        /* \"#utility.yul\":19819:19866   */\n      mstore\n        /* \"#utility.yul\":19883:20014   */\n      tag_449\n        /* \"#utility.yul\":20009:20013   */\n      dup2\n        /* \"#utility.yul\":19883:20014   */\n      tag_246\n      jump\t// in\n    tag_449:\n        /* \"#utility.yul\":19875:20014   */\n      swap1\n      pop\n        /* \"#utility.yul\":19602:20021   */\n      swap2\n      swap1\n      pop\n      jump\t// out\n        /* \"#utility.yul\":20027:20199   */\n    tag_247:\n        /* \"#utility.yul\":20167:20191   */\n      0x766f74657220616c726561647920726567697374657200000000000000000000\n        /* \"#utility.yul\":20163:20164   */\n      0x00\n        /* \"#utility.yul\":20155:20161   */\n      dup3\n        /* \"#utility.yul\":20151:20165   */\n      add\n        /* \"#utility.yul\":20144:20192   */\n      mstore\n        /* \"#utility.yul\":20027:20199   */\n      pop\n      jump\t// out\n        /* \"#utility.yul\":20205:20571   */\n    tag_248:\n        /* \"#utility.yul\":20347:20350   */\n      0x00\n        /* \"#utility.yul\":20368:20435   */\n      tag_452\n        /* \"#utility.yul\":20432:20434   */\n      0x16\n        /* \"#utility.yul\":20427:20430   */\n      dup4\n        /* \"#utility.yul\":20368:20435   */\n      tag_232\n      jump\t// in\n    tag_452:\n        /* \"#utility.yul\":20361:20435   */\n      swap2\n      pop\n        /* \"#utility.yul\":20444:20537   */\n      tag_453\n        /* \"#utility.yul\":20533:20536   */\n      dup3\n        /* \"#utility.yul\":20444:20537   */\n      tag_247\n      jump\t// in\n    tag_453:\n        /* \"#utility.yul\":20562:20564   */\n      0x20\n        /* \"#utility.yul\":20557:20560   */\n      dup3\n        /* \"#utility.yul\":20553:20565   */\n      add\n        /* \"#utility.yul\":20546:20565   */\n      swap1\n      pop\n        /* \"#utility.yul\":20205:20571   */\n      swap2\n      swap1\n      pop\n      jump\t// out\n        /* \"#utility.yul\":20577:20996   */\n    tag_141:\n        /* \"#utility.yul\":20743:20747   */\n      0x00\n        /* \"#utility.yul\":20781:20783   */\n      0x20\n        /* \"#utility.yul\":20770:20779   */\n      dup3\n        /* \"#utility.yul\":20766:20784   */\n      add\n        /* \"#utility.yul\":20758:20784   */\n      swap1\n      pop\n        /* \"#utility.yul\":20830:20839   */\n      dup2\n        /* \"#utility.yul\":20824:20828   */\n      dup2\n        /* \"#utility.yul\":20820:20840   */\n      sub\n        /* \"#utility.yul\":20816:20817   */\n      0x00\n        /* \"#utility.yul\":20805:20814   */\n      dup4\n        /* \"#utility.yul\":20801:20818   */\n      add\n        /* \"#utility.yul\":20794:20841   */\n      mstore\n        /* \"#utility.yul\":20858:20989   */\n      tag_455\n        /* \"#utility.yul\":20984:20988   */\n      dup2\n        /* \"#utility.yul\":20858:20989   */\n      tag_248\n      jump\t// in\n    tag_455:\n        /* \"#utility.yul\":20850:20989   */\n      swap1\n      pop\n        /* \"#utility.yul\":20577:20996   */\n      swap2\n      swap1\n      pop\n      jump\t// out\n        /* \"#utility.yul\":21002:21143   */\n    tag_249:\n        /* \"#utility.yul\":21051:21055   */\n      0x00\n        /* \"#utility.yul\":21074:21077   */\n      dup2\n        /* \"#utility.yul\":21066:21077   */\n      swap1\n      pop\n        /* \"#utility.yul\":21097:21100   */\n      dup2\n        /* \"#utility.yul\":21094:21095   */\n      0x00\n        /* \"#utility.yul\":21087:21101   */\n      mstore\n        /* \"#utility.yul\":21131:21135   */\n      0x20\n        /* \"#utility.yul\":21128:21129   */\n      0x00\n        /* \"#utility.yul\":21118:21136   */\n      keccak256\n        /* \"#utility.yul\":21110:21136   */\n      swap1\n      pop\n        /* \"#utility.yul\":21002:21143   */\n      swap2\n      swap1\n      pop\n      jump\t// out\n        /* \"#utility.yul\":21149:21242   */\n    tag_250:\n        /* \"#utility.yul\":21186:21192   */\n      0x00\n        /* \"#utility.yul\":21233:21235   */\n      0x20\n        /* \"#utility.yul\":21228:21230   */\n      0x1f\n        /* \"#utility.yul\":21221:21226   */\n      dup4\n        /* \"#utility.yul\":21217:21231   */\n      add\n        /* \"#utility.yul\":21213:21236   */\n      div\n        /* \"#utility.yul\":21203:21236   */\n      swap1\n      pop\n        /* \"#utility.yul\":21149:21242   */\n      swap2\n      swap1\n      pop\n      jump\t// out\n        /* \"#utility.yul\":21248:21355   */\n    tag_251:\n        /* \"#utility.yul\":21292:21300   */\n      0x00\n        /* \"#utility.yul\":21342:21347   */\n      dup3\n        /* \"#utility.yul\":21336:21340   */\n      dup3\n        /* \"#utility.yul\":21332:21348   */\n      shl\n        /* \"#utility.yul\":21311:21348   */\n      swap1\n      pop\n        /* \"#utility.yul\":21248:21355   */\n      swap3\n      swap2\n      pop\n      pop\n      jump\t// out\n        /* \"#utility.yul\":21361:21754   */\n    tag_252:\n        /* \"#utility.yul\":21430:21436   */\n      0x00\n        /* \"#utility.yul\":21480:21481   */\n      0x08\n        /* \"#utility.yul\":21468:21478   */\n      dup4\n        /* \"#utility.yul\":21464:21482   */\n      mul\n        /* \"#utility.yul\":21503:21600   */\n      tag_460\n        /* \"#utility.yul\":21533:21599   */\n      0xffffffffffffffffffffffffffffffffffffffffffffffffffffffffffffffff\n        /* \"#utility.yul\":21522:21531   */\n      dup3\n        /* \"#utility.yul\":21503:21600   */\n      tag_251\n      jump\t// in\n    tag_460:\n        /* \"#utility.yul\":21621:21660   */\n      tag_461\n        /* \"#utility.yul\":21651:21659   */\n      dup7\n        /* \"#utility.yul\":21640:21649   */\n      dup4\n        /* \"#utility.yul\":21621:21660   */\n      tag_251\n      jump\t// in\n    tag_461:\n        /* \"#utility.yul\":21609:21660   */\n      swap6\n      pop\n        /* \"#utility.yul\":21693:21697   */\n      dup1\n        /* \"#utility.yul\":21689:21698   */\n      not\n        /* \"#utility.yul\":21682:21687   */\n      dup5\n        /* \"#utility.yul\":21678:21699   */\n      and\n        /* \"#utility.yul\":21669:21699   */\n      swap4\n      pop\n        /* \"#utility.yul\":21742:21746   */\n      dup1\n        /* \"#utility.yul\":21732:21740   */\n      dup7\n        /* \"#utility.yul\":21728:21747   */\n      and\n        /* \"#utility.yul\":21721:21726   */\n      dup5\n        /* \"#utility.yul\":21718:21748   */\n      or\n        /* \"#utility.yul\":21708:21748   */\n      swap3\n      pop\n        /* \"#utility.yul\":21437:21754   */\n      pop\n      pop\n        /* \"#utility.yul\":21361:21754   */\n      swap4\n      swap3\n      pop\n      pop\n      pop\n      jump\t// out\n        /* \"#utility.yul\":21760:21820   */\n    tag_253:\n        /* \"#utility.yul\":21788:21791   */\n      0x00\n        /* \"#utility.yul\":21809:21814   */\n      dup2\n        /* \"#utility.yul\":21802:21814   */\n      swap1\n      pop\n        /* \"#utility.yul\":21760:21820   */\n      swap2\n      swap1\n      pop\n      jump\t// out\n        /* \"#utility.yul\":21826:21968   */\n    tag_254:\n        /* \"#utility.yul\":21876:21885   */\n      0x00\n        /* \"#utility.yul\":21909:21962   */\n      tag_464\n        /* \"#utility.yul\":21927:21961   */\n      tag_465\n        /* \"#utility.yul\":21936:21960   */\n      tag_466\n        /* \"#utility.yul\":21954:21959   */\n      dup5\n        /* \"#utility.yul\":21936:21960   */\n      tag_211\n      jump\t// in\n    tag_466:\n        /* \"#utility.yul\":21927:21961   */\n      tag_253\n      jump\t// in\n    tag_465:\n        /* \"#utility.yul\":21909:21962   */\n      tag_211\n      jump\t// in\n    tag_464:\n        /* \"#utility.yul\":21896:21962   */\n      swap1\n      pop\n        /* \"#utility.yul\":21826:21968   */\n      swap2\n      swap1\n      pop\n      jump\t// out\n        /* \"#utility.yul\":21974:22049   */\n    tag_255:\n        /* \"#utility.yul\":22017:22020   */\n      0x00\n        /* \"#utility.yul\":22038:22043   */\n      dup2\n        /* \"#utility.yul\":22031:22043   */\n      swap1\n      pop\n        /* \"#utility.yul\":21974:22049   */\n      swap2\n      swap1\n      pop\n      jump\t// out\n        /* \"#utility.yul\":22055:22324   */\n    tag_256:\n        /* \"#utility.yul\":22165:22204   */\n      tag_469\n        /* \"#utility.yul\":22196:22203   */\n      dup4\n        /* \"#utility.yul\":22165:22204   */\n      tag_254\n      jump\t// in\n    tag_469:\n        /* \"#utility.yul\":22226:22317   */\n      tag_470\n        /* \"#utility.yul\":22275:22316   */\n      tag_471\n        /* \"#utility.yul\":22299:22315   */\n      dup3\n        /* \"#utility.yul\":22275:22316   */\n      tag_255\n      jump\t// in\n    tag_471:\n        /* \"#utility.yul\":22267:22273   */\n      dup5\n        /* \"#utility.yul\":22260:22264   */\n      dup5\n        /* \"#utility.yul\":22254:22265   */\n      sload\n        /* \"#utility.yul\":22226:22317   */\n      tag_252\n      jump\t// in\n    tag_470:\n        /* \"#utility.yul\":22220:22224   */\n      dup3\n        /* \"#utility.yul\":22213:22318   */\n      sstore\n        /* \"#utility.yul\":22131:22324   */\n      pop\n        /* \"#utility.yul\":22055:22324   */\n      pop\n      pop\n      pop\n      jump\t// out\n        /* \"#utility.yul\":22330:22403   */\n    tag_257:\n        /* \"#utility.yul\":22375:22378   */\n      0x00\n        /* \"#utility.yul\":22330:22403   */\n      swap1\n      jump\t// out\n        /* \"#utility.yul\":22409:22598   */\n    tag_258:\n        /* \"#utility.yul\":22486:22518   */\n      tag_474\n      tag_257\n      jump\t// in\n    tag_474:\n        /* \"#utility.yul\":22527:22592   */\n      tag_475\n        /* \"#utility.yul\":22585:22591   */\n      dup2\n        /* \"#utility.yul\":22577:22583   */\n      dup5\n        /* \"#utility.yul\":22571:22575   */\n      dup5\n        /* \"#utility.yul\":22527:22592   */\n      tag_256\n      jump\t// in\n    tag_475:\n        /* \"#utility.yul\":22462:22598   */\n      pop\n        /* \"#utility.yul\":22409:22598   */\n      pop\n      pop\n      jump\t// out\n        /* \"#utility.yul\":22604:22790   */\n    tag_259:\n        /* \"#utility.yul\":22664:22784   */\n    tag_477:\n        /* \"#utility.yul\":22681:22684   */\n      dup2\n        /* \"#utility.yul\":22674:22679   */\n      dup2\n        /* \"#utility.yul\":22671:22685   */\n      lt\n        /* \"#utility.yul\":22664:22784   */\n      iszero\n      tag_479\n      jumpi\n        /* \"#utility.yul\":22735:22774   */\n      tag_480\n        /* \"#utility.yul\":22772:22773   */\n      0x00\n        /* \"#utility.yul\":22765:22770   */\n      dup3\n        /* \"#utility.yul\":22735:22774   */\n      tag_258\n      jump\t// in\n    tag_480:\n        /* \"#utility.yul\":22708:22709   */\n      0x01\n        /* \"#utility.yul\":22701:22706   */\n      dup2\n        /* \"#utility.yul\":22697:22710   */\n      add\n        /* \"#utility.yul\":22688:22710   */\n      swap1\n      pop\n        /* \"#utility.yul\":22664:22784   */\n      jump(tag_477)\n    tag_479:\n        /* \"#utility.yul\":22604:22790   */\n      pop\n      pop\n      jump\t// out\n        /* \"#utility.yul\":22796:23339   */\n    tag_260:\n        /* \"#utility.yul\":22897:22899   */\n      0x1f\n        /* \"#utility.yul\":22892:22895   */\n      dup3\n        /* \"#utility.yul\":22889:22900   */\n      gt\n        /* \"#utility.yul\":22886:23332   */\n      iszero\n      tag_482\n      jumpi\n        /* \"#utility.yul\":22931:22969   */\n      tag_483\n        /* \"#utility.yul\":22963:22968   */\n      dup2\n        /* \"#utility.yul\":22931:22969   */\n      tag_249\n      jump\t// in\n    tag_483:\n        /* \"#utility.yul\":23015:23044   */\n      tag_484\n        /* \"#utility.yul\":23033:23043   */\n      dup5\n        /* \"#utility.yul\":23015:23044   */\n      tag_250\n      jump\t// in\n    tag_484:\n        /* \"#utility.yul\":23005:23013   */\n      dup2\n        /* \"#utility.yul\":23001:23045   */\n      add\n        /* \"#utility.yul\":23198:23200   */\n      0x20\n        /* \"#utility.yul\":23186:23196   */\n      dup6\n        /* \"#utility.yul\":23183:23201   */\n      lt\n        /* \"#utility.yul\":23180:23229   */\n      iszero\n      tag_485\n      jumpi\n        /* \"#utility.yul\":23219:23227   */\n      dup2\n        /* \"#utility.yul\":23204:23227   */\n      swap1\n      pop\n        /* \"#utility.yul\":23180:23229   */\n    tag_485:\n        /* \"#utility.yul\":23242:23322   */\n      tag_486\n        /* \"#utility.yul\":23298:23320   */\n      tag_487\n        /* \"#utility.yul\":23316:23319   */\n      dup6\n        /* \"#utility.yul\":23298:23320   */\n      tag_250\n      jump\t// in\n    tag_487:\n        /* \"#utility.yul\":23288:23296   */\n      dup4\n        /* \"#utility.yul\":23284:23321   */\n      add\n        /* \"#utility.yul\":23271:23282   */\n      dup3\n        /* \"#utility.yul\":23242:23322   */\n      tag_259\n      jump\t// in\n    tag_486:\n        /* \"#utility.yul\":22901:23332   */\n      pop\n      pop\n        /* \"#utility.yul\":22886:23332   */\n    tag_482:\n        /* \"#utility.yul\":22796:23339   */\n      pop\n      pop\n      pop\n      jump\t// out\n        /* \"#utility.yul\":23345:23462   */\n    tag_261:\n        /* \"#utility.yul\":23399:23407   */\n      0x00\n        /* \"#utility.yul\":23449:23454   */\n      dup3\n        /* \"#utility.yul\":23443:23447   */\n      dup3\n        /* \"#utility.yul\":23439:23455   */\n      shr\n        /* \"#utility.yul\":23418:23455   */\n      swap1\n      pop\n        /* \"#utility.yul\":23345:23462   */\n      swap3\n      swap2\n      pop\n      pop\n      jump\t// out\n        /* \"#utility.yul\":23468:23637   */\n    tag_262:\n        /* \"#utility.yul\":23512:23518   */\n      0x00\n        /* \"#utility.yul\":23545:23596   */\n      tag_490\n        /* \"#utility.yul\":23593:23594   */\n      0x00\n        /* \"#utility.yul\":23589:23595   */\n      not\n        /* \"#utility.yul\":23581:23586   */\n      dup5\n        /* \"#utility.yul\":23578:23579   */\n      0x08\n        /* \"#utility.yul\":23574:23587   */\n      mul\n        /* \"#utility.yul\":23545:23596   */\n      tag_261\n      jump\t// in\n    tag_490:\n        /* \"#utility.yul\":23541:23597   */\n      not\n        /* \"#utility.yul\":23626:23630   */\n      dup1\n        /* \"#utility.yul\":23620:23624   */\n      dup4\n        /* \"#utility.yul\":23616:23631   */\n      and\n        /* \"#utility.yul\":23606:23631   */\n      swap2\n      pop\n        /* \"#utility.yul\":23519:23637   */\n      pop\n        /* \"#utility.yul\":23468:23637   */\n      swap3\n      swap2\n      pop\n      pop\n      jump\t// out\n        /* \"#utility.yul\":23642:23937   */\n    tag_263:\n        /* \"#utility.yul\":23718:23722   */\n      0x00\n        /* \"#utility.yul\":23864:23893   */\n      tag_492\n        /* \"#utility.yul\":23889:23892   */\n      dup4\n        /* \"#utility.yul\":23883:23887   */\n      dup4\n        /* \"#utility.yul\":23864:23893   */\n      tag_262\n      jump\t// in\n    tag_492:\n        /* \"#utility.yul\":23856:23893   */\n      swap2\n      pop\n        /* \"#utility.yul\":23926:23929   */\n      dup3\n        /* \"#utility.yul\":23923:23924   */\n      0x02\n        /* \"#utility.yul\":23919:23930   */\n      mul\n        /* \"#utility.yul\":23913:23917   */\n      dup3\n        /* \"#utility.yul\":23910:23931   */\n      or\n        /* \"#utility.yul\":23902:23931   */\n      swap1\n      pop\n        /* \"#utility.yul\":23642:23937   */\n      swap3\n      swap2\n      pop\n      pop\n      jump\t// out\n        /* \"#utility.yul\":23942:25337   */\n    tag_143:\n        /* \"#utility.yul\":24059:24096   */\n      tag_494\n        /* \"#utility.yul\":24092:24095   */\n      dup3\n        /* \"#utility.yul\":24059:24096   */\n      tag_206\n      jump\t// in\n    tag_494:\n        /* \"#utility.yul\":24161:24179   */\n      0xffffffffffffffff\n        /* \"#utility.yul\":24153:24159   */\n      dup2\n        /* \"#utility.yul\":24150:24180   */\n      gt\n        /* \"#utility.yul\":24147:24203   */\n      iszero\n      tag_495\n      jumpi\n        /* \"#utility.yul\":24183:24201   */\n      tag_496\n      tag_52\n      jump\t// in\n    tag_496:\n        /* \"#utility.yul\":24147:24203   */\n    tag_495:\n        /* \"#utility.yul\":24227:24265   */\n      tag_497\n        /* \"#utility.yul\":24259:24263   */\n      dup3\n        /* \"#utility.yul\":24253:24264   */\n      sload\n        /* \"#utility.yul\":24227:24265   */\n      tag_61\n      jump\t// in\n    tag_497:\n        /* \"#utility.yul\":24312:24379   */\n      tag_498\n        /* \"#utility.yul\":24372:24378   */\n      dup3\n        /* \"#utility.yul\":24364:24370   */\n      dup3\n        /* \"#utility.yul\":24358:24362   */\n      dup6\n        /* \"#utility.yul\":24312:24379   */\n      tag_260\n      jump\t// in\n    tag_498:\n        /* \"#utility.yul\":24406:24407   */\n      0x00\n        /* \"#utility.yul\":24430:24434   */\n      0x20\n        /* \"#utility.yul\":24417:24434   */\n      swap1\n      pop\n        /* \"#utility.yul\":24462:24464   */\n      0x1f\n        /* \"#utility.yul\":24454:24460   */\n      dup4\n        /* \"#utility.yul\":24451:24465   */\n      gt\n        /* \"#utility.yul\":24479:24480   */\n      0x01\n        /* \"#utility.yul\":24474:25092   */\n      dup2\n      eq\n      tag_500\n      jumpi\n        /* \"#utility.yul\":25136:25137   */\n      0x00\n        /* \"#utility.yul\":25153:25159   */\n      dup5\n        /* \"#utility.yul\":25150:25227   */\n      iszero\n      tag_501\n      jumpi\n        /* \"#utility.yul\":25202:25211   */\n      dup3\n        /* \"#utility.yul\":25197:25200   */\n      dup8\n        /* \"#utility.yul\":25193:25212   */\n      add\n        /* \"#utility.yul\":25187:25213   */\n      mload\n        /* \"#utility.yul\":25178:25213   */\n      swap1\n      pop\n        /* \"#utility.yul\":25150:25227   */\n    tag_501:\n        /* \"#utility.yul\":25253:25320   */\n      tag_502\n        /* \"#utility.yul\":25313:25319   */\n      dup6\n        /* \"#utility.yul\":25306:25311   */\n      dup3\n        /* \"#utility.yul\":25253:25320   */\n      tag_263\n      jump\t// in\n    tag_502:\n        /* \"#utility.yul\":25247:25251   */\n      dup7\n        /* \"#utility.yul\":25240:25321   */\n      sstore\n        /* \"#utility.yul\":25109:25331   */\n      pop\n        /* \"#utility.yul\":24444:25331   */\n      jump(tag_499)\n        /* \"#utility.yul\":24474:25092   */\n    tag_500:\n        /* \"#utility.yul\":24526:24530   */\n      0x1f\n        /* \"#utility.yul\":24522:24531   */\n      not\n        /* \"#utility.yul\":24514:24520   */\n      dup5\n        /* \"#utility.yul\":24510:24532   */\n      and\n        /* \"#utility.yul\":24560:24597   */\n      tag_503\n        /* \"#utility.yul\":24592:24596   */\n      dup7\n        /* \"#utility.yul\":24560:24597   */\n      tag_249\n      jump\t// in\n    tag_503:\n        /* \"#utility.yul\":24619:24620   */\n      0x00\n        /* \"#utility.yul\":24633:24841   */\n    tag_504:\n        /* \"#utility.yul\":24647:24654   */\n      dup3\n        /* \"#utility.yul\":24644:24645   */\n      dup2\n        /* \"#utility.yul\":24641:24655   */\n      lt\n        /* \"#utility.yul\":24633:24841   */\n      iszero\n      tag_506\n      jumpi\n        /* \"#utility.yul\":24726:24735   */\n      dup5\n        /* \"#utility.yul\":24721:24724   */\n      dup10\n        /* \"#utility.yul\":24717:24736   */\n      add\n        /* \"#utility.yul\":24711:24737   */\n      mload\n        /* \"#utility.yul\":24703:24709   */\n      dup3\n        /* \"#utility.yul\":24696:24738   */\n      sstore\n        /* \"#utility.yul\":24777:24778   */\n      0x01\n        /* \"#utility.yul\":24769:24775   */\n      dup3\n        /* \"#utility.yul\":24765:24779   */\n      add\n        /* \"#utility.yul\":24755:24779   */\n      swap2\n      pop\n        /* \"#utility.yul\":24824:24826   */\n      0x20\n        /* \"#utility.yul\":24813:24822   */\n      dup6\n        /* \"#utility.yul\":24809:24827   */\n      add\n        /* \"#utility.yul\":24796:24827   */\n      swap5\n      pop\n        /* \"#utility.yul\":24670:24674   */\n      0x20\n        /* \"#utility.yul\":24667:24668   */\n      dup2\n        /* \"#utility.yul\":24663:24675   */\n      add\n        /* \"#utility.yul\":24658:24675   */\n      swap1\n      pop\n        /* \"#utility.yul\":24633:24841   */\n      jump(tag_504)\n    tag_506:\n        /* \"#utility.yul\":24869:24875   */\n      dup7\n        /* \"#utility.yul\":24860:24867   */\n      dup4\n        /* \"#utility.yul\":24857:24876   */\n      lt\n        /* \"#utility.yul\":24854:25033   */\n      iszero\n      tag_507\n      jumpi\n        /* \"#utility.yul\":24927:24936   */\n      dup5\n        /* \"#utility.yul\":24922:24925   */\n      dup10\n        /* \"#utility.yul\":24918:24937   */\n      add\n        /* \"#utility.yul\":24912:24938   */\n      mload\n        /* \"#utility.yul\":24970:25018   */\n      tag_508\n        /* \"#utility.yul\":25012:25016   */\n      0x1f\n        /* \"#utility.yul\":25004:25010   */\n      dup10\n        /* \"#utility.yul\":25000:25017   */\n      and\n        /* \"#utility.yul\":24989:24998   */\n      dup3\n        /* \"#utility.yul\":24970:25018   */\n      tag_262\n      jump\t// in\n    tag_508:\n        /* \"#utility.yul\":24962:24968   */\n      dup4\n        /* \"#utility.yul\":24955:25019   */\n      sstore\n        /* \"#utility.yul\":24877:25033   */\n      pop\n        /* \"#utility.yul\":24854:25033   */\n    tag_507:\n        /* \"#utility.yul\":25079:25080   */\n      0x01\n        /* \"#utility.yul\":25075:25076   */\n      0x02\n        /* \"#utility.yul\":25067:25073   */\n      dup9\n        /* \"#utility.yul\":25063:25077   */\n      mul\n        /* \"#utility.yul\":25059:25081   */\n      add\n        /* \"#utility.yul\":25053:25057   */\n      dup9\n        /* \"#utility.yul\":25046:25082   */\n      sstore\n        /* \"#utility.yul\":24481:25092   */\n      pop\n      pop\n      pop\n        /* \"#utility.yul\":24444:25331   */\n    tag_499:\n      pop\n        /* \"#utility.yul\":24034:25337   */\n      pop\n      pop\n      pop\n        /* \"#utility.yul\":23942:25337   */\n      pop\n      pop\n      jump\t// out\n        /* \"#utility.yul\":25343:25506   */\n    tag_264:\n        /* \"#utility.yul\":25483:25498   */\n      0x616c726561647920766f74656400000000000000000000000000000000000000\n        /* \"#utility.yul\":25479:25480   */\n      0x00\n        /* \"#utility.yul\":25471:25477   */\n      dup3\n        /* \"#utility.yul\":25467:25481   */\n      add\n        /* \"#utility.yul\":25460:25499   */\n      mstore\n        /* \"#utility.yul\":25343:25506   */\n      pop\n      jump\t// out\n        /* \"#utility.yul\":25512:25878   */\n    tag_265:\n        /* \"#utility.yul\":25654:25657   */\n      0x00\n        /* \"#utility.yul\":25675:25742   */\n      tag_511\n        /* \"#utility.yul\":25739:25741   */\n      0x0d\n        /* \"#utility.yul\":25734:25737   */\n      dup4\n        /* \"#utility.yul\":25675:25742   */\n      tag_232\n      jump\t// in\n    tag_511:\n        /* \"#utility.yul\":25668:25742   */\n      swap2\n      pop\n        /* \"#utility.yul\":25751:25844   */\n      tag_512\n        /* \"#utility.yul\":25840:25843   */\n      dup3\n        /* \"#utility.yul\":25751:25844   */\n      tag_264\n      jump\t// in\n    tag_512:\n        /* \"#utility.yul\":25869:25871   */\n      0x20\n        /* \"#utility.yul\":25864:25867   */\n      dup3\n        /* \"#utility.yul\":25860:25872   */\n      add\n        /* \"#utility.yul\":25853:25872   */\n      swap1\n      pop\n        /* \"#utility.yul\":25512:25878   */\n      swap2\n      swap1\n      pop\n      jump\t// out\n        /* \"#utility.yul\":25884:26303   */\n    tag_153:\n        /* \"#utility.yul\":26050:26054   */\n      0x00\n        /* \"#utility.yul\":26088:26090   */\n      0x20\n        /* \"#utility.yul\":26077:26086   */\n      dup3\n        /* \"#utility.yul\":26073:26091   */\n      add\n        /* \"#utility.yul\":26065:26091   */\n      swap1\n      pop\n        /* \"#utility.yul\":26137:26146   */\n      dup2\n        /* \"#utility.yul\":26131:26135   */\n      dup2\n        /* \"#utility.yul\":26127:26147   */\n      sub\n        /* \"#utility.yul\":26123:26124   */\n      0x00\n        /* \"#utility.yul\":26112:26121   */\n      dup4\n        /* \"#utility.yul\":26108:26125   */\n      add\n        /* \"#utility.yul\":26101:26148   */\n      mstore\n        /* \"#utility.yul\":26165:26296   */\n      tag_514\n        /* \"#utility.yul\":26291:26295   */\n      dup2\n        /* \"#utility.yul\":26165:26296   */\n      tag_265\n      jump\t// in\n    tag_514:\n        /* \"#utility.yul\":26157:26296   */\n      swap1\n      pop\n        /* \"#utility.yul\":25884:26303   */\n      swap2\n      swap1\n      pop\n      jump\t// out\n        /* \"#utility.yul\":26309:26539   */\n    tag_266:\n        /* \"#utility.yul\":26449:26483   */\n      0x636865636b20596f7520566f7465724964206f7220796f7520617265206e6f74\n        /* \"#utility.yul\":26445:26446   */\n      0x00\n        /* \"#utility.yul\":26437:26443   */\n      dup3\n        /* \"#utility.yul\":26433:26447   */\n      add\n        /* \"#utility.yul\":26426:26484   */\n      mstore\n        /* \"#utility.yul\":26518:26531   */\n      0x2072656769737465726564000000000000000000000000000000000000000000\n        /* \"#utility.yul\":26513:26515   */\n      0x20\n        /* \"#utility.yul\":26505:26511   */\n      dup3\n        /* \"#utility.yul\":26501:26516   */\n      add\n        /* \"#utility.yul\":26494:26532   */\n      mstore\n        /* \"#utility.yul\":26309:26539   */\n      pop\n      jump\t// out\n        /* \"#utility.yul\":26545:26911   */\n    tag_267:\n        /* \"#utility.yul\":26687:26690   */\n      0x00\n        /* \"#utility.yul\":26708:26775   */\n      tag_517\n        /* \"#utility.yul\":26772:26774   */\n      0x2b\n        /* \"#utility.yul\":26767:26770   */\n      dup4\n        /* \"#utility.yul\":26708:26775   */\n      tag_232\n      jump\t// in\n    tag_517:\n        /* \"#utility.yul\":26701:26775   */\n      swap2\n      pop\n        /* \"#utility.yul\":26784:26877   */\n      tag_518\n        /* \"#utility.yul\":26873:26876   */\n      dup3\n        /* \"#utility.yul\":26784:26877   */\n      tag_266\n      jump\t// in\n    tag_518:\n        /* \"#utility.yul\":26902:26904   */\n      0x40\n        /* \"#utility.yul\":26897:26900   */\n      dup3\n        /* \"#utility.yul\":26893:26905   */\n      add\n        /* \"#utility.yul\":26886:26905   */\n      swap1\n      pop\n        /* \"#utility.yul\":26545:26911   */\n      swap2\n      swap1\n      pop\n      jump\t// out\n        /* \"#utility.yul\":26917:27336   */\n    tag_156:\n        /* \"#utility.yul\":27083:27087   */\n      0x00\n        /* \"#utility.yul\":27121:27123   */\n      0x20\n        /* \"#utility.yul\":27110:27119   */\n      dup3\n        /* \"#utility.yul\":27106:27124   */\n      add\n        /* \"#utility.yul\":27098:27124   */\n      swap1\n      pop\n        /* \"#utility.yul\":27170:27179   */\n      dup2\n        /* \"#utility.yul\":27164:27168   */\n      dup2\n        /* \"#utility.yul\":27160:27180   */\n      sub\n        /* \"#utility.yul\":27156:27157   */\n      0x00\n        /* \"#utility.yul\":27145:27154   */\n      dup4\n        /* \"#utility.yul\":27141:27158   */\n      add\n        /* \"#utility.yul\":27134:27181   */\n      mstore\n        /* \"#utility.yul\":27198:27329   */\n      tag_520\n        /* \"#utility.yul\":27324:27328   */\n      dup2\n        /* \"#utility.yul\":27198:27329   */\n      tag_267\n      jump\t// in\n    tag_520:\n        /* \"#utility.yul\":27190:27329   */\n      swap1\n      pop\n        /* \"#utility.yul\":26917:27336   */\n      swap2\n      swap1\n      pop\n      jump\t// out\n        /* \"#utility.yul\":27342:27510   */\n    tag_268:\n        /* \"#utility.yul\":27482:27502   */\n      0x766f74696e67206e6f7420737461727465640000000000000000000000000000\n        /* \"#utility.yul\":27478:27479   */\n      0x00\n        /* \"#utility.yul\":27470:27476   */\n      dup3\n        /* \"#utility.yul\":27466:27480   */\n      add\n        /* \"#utility.yul\":27459:27503   */\n      mstore\n        /* \"#utility.yul\":27342:27510   */\n      pop\n      jump\t// out\n        /* \"#utility.yul\":27516:27882   */\n    tag_269:\n        /* \"#utility.yul\":27658:27661   */\n      0x00\n        /* \"#utility.yul\":27679:27746   */\n      tag_523\n        /* \"#utility.yul\":27743:27745   */\n      0x12\n        /* \"#utility.yul\":27738:27741   */\n      dup4\n        /* \"#utility.yul\":27679:27746   */\n      tag_232\n      jump\t// in\n    tag_523:\n        /* \"#utility.yul\":27672:27746   */\n      swap2\n      pop\n        /* \"#utility.yul\":27755:27848   */\n      tag_524\n        /* \"#utility.yul\":27844:27847   */\n      dup3\n        /* \"#utility.yul\":27755:27848   */\n      tag_268\n      jump\t// in\n    tag_524:\n        /* \"#utility.yul\":27873:27875   */\n      0x20\n        /* \"#utility.yul\":27868:27871   */\n      dup3\n        /* \"#utility.yul\":27864:27876   */\n      add\n        /* \"#utility.yul\":27857:27876   */\n      swap1\n      pop\n        /* \"#utility.yul\":27516:27882   */\n      swap2\n      swap1\n      pop\n      jump\t// out\n        /* \"#utility.yul\":27888:28307   */\n    tag_159:\n        /* \"#utility.yul\":28054:28058   */\n      0x00\n        /* \"#utility.yul\":28092:28094   */\n      0x20\n        /* \"#utility.yul\":28081:28090   */\n      dup3\n        /* \"#utility.yul\":28077:28095   */\n      add\n        /* \"#utility.yul\":28069:28095   */\n      swap1\n      pop\n        /* \"#utility.yul\":28141:28150   */\n      dup2\n        /* \"#utility.yul\":28135:28139   */\n      dup2\n        /* \"#utility.yul\":28131:28151   */\n      sub\n        /* \"#utility.yul\":28127:28128   */\n      0x00\n        /* \"#utility.yul\":28116:28125   */\n      dup4\n        /* \"#utility.yul\":28112:28129   */\n      add\n        /* \"#utility.yul\":28105:28152   */\n      mstore\n        /* \"#utility.yul\":28169:28300   */\n      tag_526\n        /* \"#utility.yul\":28295:28299   */\n      dup2\n        /* \"#utility.yul\":28169:28300   */\n      tag_269\n      jump\t// in\n    tag_526:\n        /* \"#utility.yul\":28161:28300   */\n      swap1\n      pop\n        /* \"#utility.yul\":27888:28307   */\n      swap2\n      swap1\n      pop\n      jump\t// out\n        /* \"#utility.yul\":28313:28539   */\n    tag_270:\n        /* \"#utility.yul\":28453:28487   */\n      0x63616e64696461746520726567697374726174696f6e20686173206e6f742064\n        /* \"#utility.yul\":28449:28450   */\n      0x00\n        /* \"#utility.yul\":28441:28447   */\n      dup3\n        /* \"#utility.yul\":28437:28451   */\n      add\n        /* \"#utility.yul\":28430:28488   */\n      mstore\n        /* \"#utility.yul\":28522:28531   */\n      0x6f6e652079657400000000000000000000000000000000000000000000000000\n        /* \"#utility.yul\":28517:28519   */\n      0x20\n        /* \"#utility.yul\":28509:28515   */\n      dup3\n        /* \"#utility.yul\":28505:28520   */\n      add\n        /* \"#utility.yul\":28498:28532   */\n      mstore\n        /* \"#utility.yul\":28313:28539   */\n      pop\n      jump\t// out\n        /* \"#utility.yul\":28545:28911   */\n    tag_271:\n        /* \"#utility.yul\":28687:28690   */\n      0x00\n        /* \"#utility.yul\":28708:28775   */\n      tag_529\n        /* \"#utility.yul\":28772:28774   */\n      0x27\n        /* \"#utility.yul\":28767:28770   */\n      dup4\n        /* \"#utility.yul\":28708:28775   */\n      tag_232\n      jump\t// in\n    tag_529:\n        /* \"#utility.yul\":28701:28775   */\n      swap2\n      pop\n        /* \"#utility.yul\":28784:28877   */\n      tag_530\n        /* \"#utility.yul\":28873:28876   */\n      dup3\n        /* \"#utility.yul\":28784:28877   */\n      tag_270\n      jump\t// in\n    tag_530:\n        /* \"#utility.yul\":28902:28904   */\n      0x40\n        /* \"#utility.yul\":28897:28900   */\n      dup3\n        /* \"#utility.yul\":28893:28905   */\n      add\n        /* \"#utility.yul\":28886:28905   */\n      swap1\n      pop\n        /* \"#utility.yul\":28545:28911   */\n      swap2\n      swap1\n      pop\n      jump\t// out\n        /* \"#utility.yul\":28917:29336   */\n    tag_162:\n        /* \"#utility.yul\":29083:29087   */\n      0x00\n        /* \"#utility.yul\":29121:29123   */\n      0x20\n        /* \"#utility.yul\":29110:29119   */\n      dup3\n        /* \"#utility.yul\":29106:29124   */\n      add\n        /* \"#utility.yul\":29098:29124   */\n      swap1\n      pop\n        /* \"#utility.yul\":29170:29179   */\n      dup2\n        /* \"#utility.yul\":29164:29168   */\n      dup2\n        /* \"#utility.yul\":29160:29180   */\n      sub\n        /* \"#utility.yul\":29156:29157   */\n      0x00\n        /* \"#utility.yul\":29145:29154   */\n      dup4\n        /* \"#utility.yul\":29141:29158   */\n      add\n        /* \"#utility.yul\":29134:29181   */\n      mstore\n        /* \"#utility.yul\":29198:29329   */\n      tag_532\n        /* \"#utility.yul\":29324:29328   */\n      dup2\n        /* \"#utility.yul\":29198:29329   */\n      tag_271\n      jump\t// in\n    tag_532:\n        /* \"#utility.yul\":29190:29329   */\n      swap1\n      pop\n        /* \"#utility.yul\":28917:29336   */\n      swap2\n      swap1\n      pop\n      jump\t// out\n        /* \"#utility.yul\":29342:29512   */\n    tag_272:\n        /* \"#utility.yul\":29482:29504   */\n      0x696e76616c69642063616e646964617465204964000000000000000000000000\n        /* \"#utility.yul\":29478:29479   */\n      0x00\n        /* \"#utility.yul\":29470:29476   */\n      dup3\n        /* \"#utility.yul\":29466:29480   */\n      add\n        /* \"#utility.yul\":29459:29505   */\n      mstore\n        /* \"#utility.yul\":29342:29512   */\n      pop\n      jump\t// out\n        /* \"#utility.yul\":29518:29884   */\n    tag_273:\n        /* \"#utility.yul\":29660:29663   */\n      0x00\n        /* \"#utility.yul\":29681:29748   */\n      tag_535\n        /* \"#utility.yul\":29745:29747   */\n      0x14\n        /* \"#utility.yul\":29740:29743   */\n      dup4\n        /* \"#utility.yul\":29681:29748   */\n      tag_232\n      jump\t// in\n    tag_535:\n        /* \"#utility.yul\":29674:29748   */\n      swap2\n      pop\n        /* \"#utility.yul\":29757:29850   */\n      tag_536\n        /* \"#utility.yul\":29846:29849   */\n      dup3\n        /* \"#utility.yul\":29757:29850   */\n      tag_272\n      jump\t// in\n    tag_536:\n        /* \"#utility.yul\":29875:29877   */\n      0x20\n        /* \"#utility.yul\":29870:29873   */\n      dup3\n        /* \"#utility.yul\":29866:29878   */\n      add\n        /* \"#utility.yul\":29859:29878   */\n      swap1\n      pop\n        /* \"#utility.yul\":29518:29884   */\n      swap2\n      swap1\n      pop\n      jump\t// out\n        /* \"#utility.yul\":29890:30309   */\n    tag_166:\n        /* \"#utility.yul\":30056:30060   */\n      0x00\n        /* \"#utility.yul\":30094:30096   */\n      0x20\n        /* \"#utility.yul\":30083:30092   */\n      dup3\n        /* \"#utility.yul\":30079:30097   */\n      add\n        /* \"#utility.yul\":30071:30097   */\n      swap1\n      pop\n        /* \"#utility.yul\":30143:30152   */\n      dup2\n        /* \"#utility.yul\":30137:30141   */\n      dup2\n        /* \"#utility.yul\":30133:30153   */\n      sub\n        /* \"#utility.yul\":30129:30130   */\n      0x00\n        /* \"#utility.yul\":30118:30127   */\n      dup4\n        /* \"#utility.yul\":30114:30131   */\n      add\n        /* \"#utility.yul\":30107:30154   */\n      mstore\n        /* \"#utility.yul\":30171:30302   */\n      tag_538\n        /* \"#utility.yul\":30297:30301   */\n      dup2\n        /* \"#utility.yul\":30171:30302   */\n      tag_273\n      jump\t// in\n    tag_538:\n        /* \"#utility.yul\":30163:30302   */\n      swap1\n      pop\n        /* \"#utility.yul\":29890:30309   */\n      swap2\n      swap1\n      pop\n      jump\t// out\n        /* \"#utility.yul\":30315:30557   */\n    tag_274:\n        /* \"#utility.yul\":30455:30489   */\n      0x596f7527726520656c656374696f6e20636f6d6d697373696f6e20616e642079\n        /* \"#utility.yul\":30451:30452   */\n      0x00\n        /* \"#utility.yul\":30443:30449   */\n      dup3\n        /* \"#utility.yul\":30439:30453   */\n      add\n        /* \"#utility.yul\":30432:30490   */\n      mstore\n        /* \"#utility.yul\":30524:30549   */\n      0x6f752063616e277420626520612063616e646964617465000000000000000000\n        /* \"#utility.yul\":30519:30521   */\n      0x20\n        /* \"#utility.yul\":30511:30517   */\n      dup3\n        /* \"#utility.yul\":30507:30522   */\n      add\n        /* \"#utility.yul\":30500:30550   */\n      mstore\n        /* \"#utility.yul\":30315:30557   */\n      pop\n      jump\t// out\n        /* \"#utility.yul\":30563:30929   */\n    tag_275:\n        /* \"#utility.yul\":30705:30708   */\n      0x00\n        /* \"#utility.yul\":30726:30793   */\n      tag_541\n        /* \"#utility.yul\":30790:30792   */\n      0x37\n        /* \"#utility.yul\":30785:30788   */\n      dup4\n        /* \"#utility.yul\":30726:30793   */\n      tag_232\n      jump\t// in\n    tag_541:\n        /* \"#utility.yul\":30719:30793   */\n      swap2\n      pop\n        /* \"#utility.yul\":30802:30895   */\n      tag_542\n        /* \"#utility.yul\":30891:30894   */\n      dup3\n        /* \"#utility.yul\":30802:30895   */\n      tag_274\n      jump\t// in\n    tag_542:\n        /* \"#utility.yul\":30920:30922   */\n      0x40\n        /* \"#utility.yul\":30915:30918   */\n      dup3\n        /* \"#utility.yul\":30911:30923   */\n      add\n        /* \"#utility.yul\":30904:30923   */\n      swap1\n      pop\n        /* \"#utility.yul\":30563:30929   */\n      swap2\n      swap1\n      pop\n      jump\t// out\n        /* \"#utility.yul\":30935:31354   */\n    tag_175:\n        /* \"#utility.yul\":31101:31105   */\n      0x00\n        /* \"#utility.yul\":31139:31141   */\n      0x20\n        /* \"#utility.yul\":31128:31137   */\n      dup3\n        /* \"#utility.yul\":31124:31142   */\n      add\n        /* \"#utility.yul\":31116:31142   */\n      swap1\n      pop\n        /* \"#utility.yul\":31188:31197   */\n      dup2\n        /* \"#utility.yul\":31182:31186   */\n      dup2\n        /* \"#utility.yul\":31178:31198   */\n      sub\n        /* \"#utility.yul\":31174:31175   */\n      0x00\n        /* \"#utility.yul\":31163:31172   */\n      dup4\n        /* \"#utility.yul\":31159:31176   */\n      add\n        /* \"#utility.yul\":31152:31199   */\n      mstore\n        /* \"#utility.yul\":31216:31347   */\n      tag_544\n        /* \"#utility.yul\":31342:31346   */\n      dup2\n        /* \"#utility.yul\":31216:31347   */\n      tag_275\n      jump\t// in\n    tag_544:\n        /* \"#utility.yul\":31208:31347   */\n      swap1\n      pop\n        /* \"#utility.yul\":30935:31354   */\n      swap2\n      swap1\n      pop\n      jump\t// out\n        /* \"#utility.yul\":31360:31536   */\n    tag_276:\n        /* \"#utility.yul\":31500:31528   */\n      0x63616e64696461746520616c7265646179207265676973746572000000000000\n        /* \"#utility.yul\":31496:31497   */\n      0x00\n        /* \"#utility.yul\":31488:31494   */\n      dup3\n        /* \"#utility.yul\":31484:31498   */\n      add\n        /* \"#utility.yul\":31477:31529   */\n      mstore\n        /* \"#utility.yul\":31360:31536   */\n      pop\n      jump\t// out\n        /* \"#utility.yul\":31542:31908   */\n    tag_277:\n        /* \"#utility.yul\":31684:31687   */\n      0x00\n        /* \"#utility.yul\":31705:31772   */\n      tag_547\n        /* \"#utility.yul\":31769:31771   */\n      0x1a\n        /* \"#utility.yul\":31764:31767   */\n      dup4\n        /* \"#utility.yul\":31705:31772   */\n      tag_232\n      jump\t// in\n    tag_547:\n        /* \"#utility.yul\":31698:31772   */\n      swap2\n      pop\n        /* \"#utility.yul\":31781:31874   */\n      tag_548\n        /* \"#utility.yul\":31870:31873   */\n      dup3\n        /* \"#utility.yul\":31781:31874   */\n      tag_276\n      jump\t// in\n    tag_548:\n        /* \"#utility.yul\":31899:31901   */\n      0x20\n        /* \"#utility.yul\":31894:31897   */\n      dup3\n        /* \"#utility.yul\":31890:31902   */\n      add\n        /* \"#utility.yul\":31883:31902   */\n      swap1\n      pop\n        /* \"#utility.yul\":31542:31908   */\n      swap2\n      swap1\n      pop\n      jump\t// out\n        /* \"#utility.yul\":31914:32333   */\n    tag_180:\n        /* \"#utility.yul\":32080:32084   */\n      0x00\n        /* \"#utility.yul\":32118:32120   */\n      0x20\n        /* \"#utility.yul\":32107:32116   */\n      dup3\n        /* \"#utility.yul\":32103:32121   */\n      add\n        /* \"#utility.yul\":32095:32121   */\n      swap1\n      pop\n        /* \"#utility.yul\":32167:32176   */\n      dup2\n        /* \"#utility.yul\":32161:32165   */\n      dup2\n        /* \"#utility.yul\":32157:32177   */\n      sub\n        /* \"#utility.yul\":32153:32154   */\n      0x00\n        /* \"#utility.yul\":32142:32151   */\n      dup4\n        /* \"#utility.yul\":32138:32155   */\n      add\n        /* \"#utility.yul\":32131:32178   */\n      mstore\n        /* \"#utility.yul\":32195:32326   */\n      tag_550\n        /* \"#utility.yul\":32321:32325   */\n      dup2\n        /* \"#utility.yul\":32195:32326   */\n      tag_277\n      jump\t// in\n    tag_550:\n        /* \"#utility.yul\":32187:32326   */\n      swap1\n      pop\n        /* \"#utility.yul\":31914:32333   */\n      swap2\n      swap1\n      pop\n      jump\t// out\n        /* \"#utility.yul\":32339:32509   */\n    tag_278:\n        /* \"#utility.yul\":32479:32501   */\n      0x796f7520617265206e6f7420656c696769626c65000000000000000000000000\n        /* \"#utility.yul\":32475:32476   */\n      0x00\n        /* \"#utility.yul\":32467:32473   */\n      dup3\n        /* \"#utility.yul\":32463:32477   */\n      add\n        /* \"#utility.yul\":32456:32502   */\n      mstore\n        /* \"#utility.yul\":32339:32509   */\n      pop\n      jump\t// out\n        /* \"#utility.yul\":32515:32881   */\n    tag_279:\n        /* \"#utility.yul\":32657:32660   */\n      0x00\n        /* \"#utility.yul\":32678:32745   */\n      tag_553\n        /* \"#utility.yul\":32742:32744   */\n      0x14\n        /* \"#utility.yul\":32737:32740   */\n      dup4\n        /* \"#utility.yul\":32678:32745   */\n      tag_232\n      jump\t// in\n    tag_553:\n        /* \"#utility.yul\":32671:32745   */\n      swap2\n      pop\n        /* \"#utility.yul\":32754:32847   */\n      tag_554\n        /* \"#utility.yul\":32843:32846   */\n      dup3\n        /* \"#utility.yul\":32754:32847   */\n      tag_278\n      jump\t// in\n    tag_554:\n        /* \"#utility.yul\":32872:32874   */\n      0x20\n        /* \"#utility.yul\":32867:32870   */\n      dup3\n        /* \"#utility.yul\":32863:32875   */\n      add\n        /* \"#utility.yul\":32856:32875   */\n      swap1\n      pop\n        /* \"#utility.yul\":32515:32881   */\n      swap2\n      swap1\n      pop\n      jump\t// out\n        /* \"#utility.yul\":32887:33306   */\n    tag_183:\n        /* \"#utility.yul\":33053:33057   */\n      0x00\n        /* \"#utility.yul\":33091:33093   */\n      0x20\n        /* \"#utility.yul\":33080:33089   */\n      dup3\n        /* \"#utility.yul\":33076:33094   */\n      add\n        /* \"#utility.yul\":33068:33094   */\n      swap1\n      pop\n        /* \"#utility.yul\":33140:33149   */\n      dup2\n        /* \"#utility.yul\":33134:33138   */\n      dup2\n        /* \"#utility.yul\":33130:33150   */\n      sub\n        /* \"#utility.yul\":33126:33127   */\n      0x00\n        /* \"#utility.yul\":33115:33124   */\n      dup4\n        /* \"#utility.yul\":33111:33128   */\n      add\n        /* \"#utility.yul\":33104:33151   */\n      mstore\n        /* \"#utility.yul\":33168:33299   */\n      tag_556\n        /* \"#utility.yul\":33294:33298   */\n      dup2\n        /* \"#utility.yul\":33168:33299   */\n      tag_279\n      jump\t// in\n    tag_556:\n        /* \"#utility.yul\":33160:33299   */\n      swap1\n      pop\n        /* \"#utility.yul\":32887:33306   */\n      swap2\n      swap1\n      pop\n      jump\t// out\n        /* \"#utility.yul\":33312:33489   */\n    tag_280:\n        /* \"#utility.yul\":33452:33481   */\n      0x63616e64696461746520726567697374726174696f6e2066756c6c0000000000\n        /* \"#utility.yul\":33448:33449   */\n      0x00\n        /* \"#utility.yul\":33440:33446   */\n      dup3\n        /* \"#utility.yul\":33436:33450   */\n      add\n        /* \"#utility.yul\":33429:33482   */\n      mstore\n        /* \"#utility.yul\":33312:33489   */\n      pop\n      jump\t// out\n        /* \"#utility.yul\":33495:33861   */\n    tag_281:\n        /* \"#utility.yul\":33637:33640   */\n      0x00\n        /* \"#utility.yul\":33658:33725   */\n      tag_559\n        /* \"#utility.yul\":33722:33724   */\n      0x1b\n        /* \"#utility.yul\":33717:33720   */\n      dup4\n        /* \"#utility.yul\":33658:33725   */\n      tag_232\n      jump\t// in\n    tag_559:\n        /* \"#utility.yul\":33651:33725   */\n      swap2\n      pop\n        /* \"#utility.yul\":33734:33827   */\n      tag_560\n        /* \"#utility.yul\":33823:33826   */\n      dup3\n        /* \"#utility.yul\":33734:33827   */\n      tag_280\n      jump\t// in\n    tag_560:\n        /* \"#utility.yul\":33852:33854   */\n      0x20\n        /* \"#utility.yul\":33847:33850   */\n      dup3\n        /* \"#utility.yul\":33843:33855   */\n      add\n        /* \"#utility.yul\":33836:33855   */\n      swap1\n      pop\n        /* \"#utility.yul\":33495:33861   */\n      swap2\n      swap1\n      pop\n      jump\t// out\n        /* \"#utility.yul\":33867:34286   */\n    tag_186:\n        /* \"#utility.yul\":34033:34037   */\n      0x00\n        /* \"#utility.yul\":34071:34073   */\n      0x20\n        /* \"#utility.yul\":34060:34069   */\n      dup3\n        /* \"#utility.yul\":34056:34074   */\n      add\n        /* \"#utility.yul\":34048:34074   */\n      swap1\n      pop\n        /* \"#utility.yul\":34120:34129   */\n      dup2\n        /* \"#utility.yul\":34114:34118   */\n      dup2\n        /* \"#utility.yul\":34110:34130   */\n      sub\n        /* \"#utility.yul\":34106:34107   */\n      0x00\n        /* \"#utility.yul\":34095:34104   */\n      dup4\n        /* \"#utility.yul\":34091:34108   */\n      add\n        /* \"#utility.yul\":34084:34131   */\n      mstore\n        /* \"#utility.yul\":34148:34279   */\n      tag_562\n        /* \"#utility.yul\":34274:34278   */\n      dup2\n        /* \"#utility.yul\":34148:34279   */\n      tag_281\n      jump\t// in\n    tag_562:\n        /* \"#utility.yul\":34140:34279   */\n      swap1\n      pop\n        /* \"#utility.yul\":33867:34286   */\n      swap2\n      swap1\n      pop\n      jump\t// out\n\n    auxdata: 0xa2646970667358221220a6613d675a85fcc5ef1aaa99e87c218a93cffb7aa1068970861456209ed1b71164736f6c63430008120033\n}\n",
				"bytecode": {
					"linkReferences": {},
					"object": "60806040526001600255600160035534801561001a57600080fd5b50336000806101000a81548173ffffffffffffffffffffffffffffffffffffffff021916908373ffffffffffffffffffffffffffffffffffffffff1602179055506126968061006a6000396000f3fe608060405234801561001057600080fd5b506004361061009e5760003560e01c806393e5fed21161006657806393e5fed214610123578063b384abef1461013f578063caa6fea41461015b578063cf5ce2e714610165578063dfbf53ae146101815761009e565b806324089918146100a35780632624ef6d146100c1578063498ea441146100dd5780634e73b5b8146100fb5780636537214714610119575b600080fd5b6100ab61019f565b6040516100b891906117d8565b60405180910390f35b6100db60048036038101906100d69190611830565b610406565b005b6100e56104d9565b6040516100f291906119dc565b60405180910390f35b6101036107d3565b6040516101109190611a48565b60405180910390f35b6101216108ce565b005b61013d60048036038101906101389190611acf565b610ae5565b005b61015960048036038101906101549190611830565b610d0e565b005b610163610f89565b005b61017f600480360381019061017a9190611b64565b611034565b005b610189611391565b6040516101969190611c3c565b60405180910390f35b6060600060025467ffffffffffffffff8111156101bf576101be611c57565b5b6040519080825280602002602001820160405280156101f857816020015b6101e56114fd565b8152602001906001900390816101dd5790505b5090506000600190505b60025481116103fe57600660008281526020019081526020016000206040518060c001604052908160008201805461023990611cb5565b80601f016020809104026020016040519081016040528092919081815260200182805461026590611cb5565b80156102b25780601f10610287576101008083540402835291602001916102b2565b820191906000526020600020905b81548152906001019060200180831161029557829003601f168201915b5050505050815260200160018201548152602001600282015481526020016003820180546102df90611cb5565b80601f016020809104026020016040519081016040528092919081815260200182805461030b90611cb5565b80156103585780601f1061032d57610100808354040283529160200191610358565b820191906000526020600020905b81548152906001019060200180831161033b57829003601f168201915b50505050508152602001600482015481526020016005820160009054906101000a900473ffffffffffffffffffffffffffffffffffffffff1673ffffffffffffffffffffffffffffffffffffffff1673ffffffffffffffffffffffffffffffffffffffff1681525050826001836103cf9190611d15565b815181106103e0576103df611d49565b5b602002602001018190525080806103f690611d78565b915050610202565b508091505090565b3373ffffffffffffffffffffffffffffffffffffffff1660008054906101000a900473ffffffffffffffffffffffffffffffffffffffff1673ffffffffffffffffffffffffffffffffffffffff1614610494576040517f08c379a000000000000000000000000000000000000000000000000000000000815260040161048b90611e0c565b60405180910390fd5b81426104a09190611e2c565b600481905550806004546104b49190611e2c565b6005819055506000600860006101000a81548160ff0219169083151502179055505050565b6060600060035467ffffffffffffffff8111156104f9576104f8611c57565b5b60405190808252806020026020018201604052801561053257816020015b61051f611549565b8152602001906001900390816105175790505b5090506000600190505b6003548110156107cb57600760008281526020019081526020016000206040518060e001604052908160008201805461057490611cb5565b80601f01602080910402602001604051908101604052809291908181526020018280546105a090611cb5565b80156105ed5780601f106105c2576101008083540402835291602001916105ed565b820191906000526020600020905b8154815290600101906020018083116105d057829003601f168201915b5050505050815260200160018201805461060690611cb5565b80601f016020809104026020016040519081016040528092919081815260200182805461063290611cb5565b801561067f5780601f106106545761010080835404028352916020019161067f565b820191906000526020600020905b81548152906001019060200180831161066257829003601f168201915b50505050508152602001600282015481526020016003820180546106a290611cb5565b80601f01602080910402602001604051908101604052809291908181526020018280546106ce90611cb5565b801561071b5780601f106106f05761010080835404028352916020019161071b565b820191906000526020600020905b8154815290600101906020018083116106fe57829003601f168201915b50505050508152602001600482015481526020016005820160009054906101000a900473ffffffffffffffffffffffffffffffffffffffff1673ffffffffffffffffffffffffffffffffffffffff1673ffffffffffffffffffffffffffffffffffffffff1681526020016006820154815250508260018361079c9190611d15565b815181106107ad576107ac611d49565b5b602002602001018190525080806107c390611d78565b91505061053c565b508091505090565b606060006004540361081c576040518060400160405280601281526020017f766f74696e67206e6f742073746172746564000000000000000000000000000081525090506108cb565b4260055411158015610841575060001515600860009054906101000a900460ff161515145b80156108505750600060045414155b15610892576040518060400160405280601281526020017f766f74696e6720696e2070726f6772657373000000000000000000000000000081525090506108cb565b6040518060400160405280600e81526020017f766f74696e67206973206f76657200000000000000000000000000000000000081525090505b90565b3373ffffffffffffffffffffffffffffffffffffffff1660008054906101000a900473ffffffffffffffffffffffffffffffffffffffff1673ffffffffffffffffffffffffffffffffffffffff161461095c576040517f08c379a000000000000000000000000000000000000000000000000000000000815260040161095390611e0c565b60405180910390fd5b4260055411806109785750600860009054906101000a900460ff165b6109b7576040517f08c379a00000000000000000000000000000000000000000000000000000000081526004016109ae90611eac565b60405180910390fd5b6007600060028152602001908152602001600020600601546007600060018152602001908152602001600020600601541115610a6a57600760006001815260200190815260200160002060050160009054906101000a900473ffffffffffffffffffffffffffffffffffffffff16600160006101000a81548173ffffffffffffffffffffffffffffffffffffffff021916908373ffffffffffffffffffffffffffffffffffffffff160217905550610ae3565b600760006002815260200190815260200160002060050160009054906101000a900473ffffffffffffffffffffffffffffffffffffffff16600160006101000a81548173ffffffffffffffffffffffffffffffffffffffff021916908373ffffffffffffffffffffffffffffffffffffffff1602179055505b565b6012831015610b29576040517f08c379a0000000000000000000000000000000000000000000000000000000008152600401610b2090611f18565b60405180910390fd5b60011515610b36336113b7565b151514610b78576040517f08c379a0000000000000000000000000000000000000000000000000000000008152600401610b6f90611f84565b60405180910390fd5b6040518060c0016040528086868080601f016020809104026020016040519081016040528093929190818152602001838380828437600081840152601f19601f820116905080830192505050505050508152602001848152602001600254815260200183838080601f016020809104026020016040519081016040528093929190818152602001838380828437600081840152601f19601f820116905080830192505050505050508152602001600081526020013373ffffffffffffffffffffffffffffffffffffffff168152506006600060025481526020019081526020016000206000820151816000019081610c709190612150565b5060208201518160010155604082015181600201556060820151816003019081610c9a9190612150565b506080820151816004015560a08201518160050160006101000a81548173ffffffffffffffffffffffffffffffffffffffff021916908373ffffffffffffffffffffffffffffffffffffffff16021790555090505060026000815480929190610d0290611d78565b91905055505050505050565b426005541180610d2a5750600860009054906101000a900460ff165b610d69576040517f08c379a0000000000000000000000000000000000000000000000000000000008152600401610d6090611eac565b60405180910390fd5b6000600660008481526020019081526020016000206004015414610dc2576040517f08c379a0000000000000000000000000000000000000000000000000000000008152600401610db99061226e565b60405180910390fd5b3373ffffffffffffffffffffffffffffffffffffffff166006600084815260200190815260200160002060050160009054906101000a900473ffffffffffffffffffffffffffffffffffffffff1673ffffffffffffffffffffffffffffffffffffffff1614610e66576040517f08c379a0000000000000000000000000000000000000000000000000000000008152600401610e5d90612300565b60405180910390fd5b600060045403610eab576040517f08c379a0000000000000000000000000000000000000000000000000000000008152600401610ea29061236c565b60405180910390fd5b6003805414610eef576040517f08c379a0000000000000000000000000000000000000000000000000000000008152600401610ee6906123fe565b60405180910390fd5b600081118015610eff5750600381105b610f3e576040517f08c379a0000000000000000000000000000000000000000000000000000000008152600401610f359061246a565b60405180910390fd5b806006600084815260200190815260200160002060040181905550600760008281526020019081526020016000206006016000815480929190610f8090611d78565b91905055505050565b3373ffffffffffffffffffffffffffffffffffffffff1660008054906101000a900473ffffffffffffffffffffffffffffffffffffffff1673ffffffffffffffffffffffffffffffffffffffff1614611017576040517f08c379a000000000000000000000000000000000000000000000000000000000815260040161100e90611e0c565b60405180910390fd5b6001600860006101000a81548160ff021916908315150217905550565b60008054906101000a900473ffffffffffffffffffffffffffffffffffffffff1673ffffffffffffffffffffffffffffffffffffffff163373ffffffffffffffffffffffffffffffffffffffff16036110c2576040517f08c379a00000000000000000000000000000000000000000000000000000000081526004016110b9906124fc565b60405180910390fd5b600115156110cf3361145a565b151514611111576040517f08c379a000000000000000000000000000000000000000000000000000000000815260040161110890612568565b60405180910390fd5b6012831015611155576040517f08c379a000000000000000000000000000000000000000000000000000000000815260040161114c906125d4565b60405180910390fd5b6003805410611199576040517f08c379a000000000000000000000000000000000000000000000000000000000815260040161119090612640565b60405180910390fd5b6040518060e0016040528088888080601f016020809104026020016040519081016040528093929190818152602001838380828437600081840152601f19601f82011690508083019250505050505050815260200186868080601f016020809104026020016040519081016040528093929190818152602001838380828437600081840152601f19601f82011690508083019250505050505050815260200184815260200183838080601f016020809104026020016040519081016040528093929190818152602001838380828437600081840152601f19601f82011690508083019250505050505050815260200160035481526020013373ffffffffffffffffffffffffffffffffffffffff168152602001600081525060076000600354815260200190815260200160002060008201518160000190816112db9190612150565b5060208201518160010190816112f19190612150565b506040820151816002015560608201518160030190816113119190612150565b506080820151816004015560a08201518160050160006101000a81548173ffffffffffffffffffffffffffffffffffffffff021916908373ffffffffffffffffffffffffffffffffffffffff16021790555060c082015181600601559050506003600081548092919061138390611d78565b919050555050505050505050565b600160009054906101000a900473ffffffffffffffffffffffffffffffffffffffff1681565b600080600190505b60025481101561144f578273ffffffffffffffffffffffffffffffffffffffff166006600083815260200190815260200160002060050160009054906101000a900473ffffffffffffffffffffffffffffffffffffffff1673ffffffffffffffffffffffffffffffffffffffff160361143c576000915050611455565b808061144790611d78565b9150506113bf565b50600190505b919050565b600080600190505b6003548110156114f2578273ffffffffffffffffffffffffffffffffffffffff166007600083815260200190815260200160002060050160009054906101000a900473ffffffffffffffffffffffffffffffffffffffff1673ffffffffffffffffffffffffffffffffffffffff16036114df5760009150506114f8565b80806114ea90611d78565b915050611462565b50600190505b919050565b6040518060c001604052806060815260200160008152602001600081526020016060815260200160008152602001600073ffffffffffffffffffffffffffffffffffffffff1681525090565b6040518060e001604052806060815260200160608152602001600081526020016060815260200160008152602001600073ffffffffffffffffffffffffffffffffffffffff168152602001600081525090565b600081519050919050565b600082825260208201905092915050565b6000819050602082019050919050565b600081519050919050565b600082825260208201905092915050565b60005b838110156116025780820151818401526020810190506115e7565b60008484015250505050565b6000601f19601f8301169050919050565b600061162a826115c8565b61163481856115d3565b93506116448185602086016115e4565b61164d8161160e565b840191505092915050565b6000819050919050565b61166b81611658565b82525050565b600073ffffffffffffffffffffffffffffffffffffffff82169050919050565b600061169c82611671565b9050919050565b6116ac81611691565b82525050565b600060c08301600083015184820360008601526116cf828261161f565b91505060208301516116e46020860182611662565b5060408301516116f76040860182611662565b506060830151848203606086015261170f828261161f565b91505060808301516117246080860182611662565b5060a083015161173760a08601826116a3565b508091505092915050565b600061174e83836116b2565b905092915050565b6000602082019050919050565b600061176e8261159c565b61177881856115a7565b93508360208202850161178a856115b8565b8060005b858110156117c657848403895281516117a78582611742565b94506117b283611756565b925060208a0199505060018101905061178e565b50829750879550505050505092915050565b600060208201905081810360008301526117f28184611763565b905092915050565b600080fd5b600080fd5b61180d81611658565b811461181857600080fd5b50565b60008135905061182a81611804565b92915050565b60008060408385031215611847576118466117fa565b5b60006118558582860161181b565b92505060206118668582860161181b565b9150509250929050565b600081519050919050565b600082825260208201905092915050565b6000819050602082019050919050565b600060e08301600083015184820360008601526118b9828261161f565b915050602083015184820360208601526118d3828261161f565b91505060408301516118e86040860182611662565b5060608301518482036060860152611900828261161f565b91505060808301516119156080860182611662565b5060a083015161192860a08601826116a3565b5060c083015161193b60c0860182611662565b508091505092915050565b6000611952838361189c565b905092915050565b6000602082019050919050565b600061197282611870565b61197c818561187b565b93508360208202850161198e8561188c565b8060005b858110156119ca57848403895281516119ab8582611946565b94506119b68361195a565b925060208a01995050600181019050611992565b50829750879550505050505092915050565b600060208201905081810360008301526119f68184611967565b905092915050565b600082825260208201905092915050565b6000611a1a826115c8565b611a2481856119fe565b9350611a348185602086016115e4565b611a3d8161160e565b840191505092915050565b60006020820190508181036000830152611a628184611a0f565b905092915050565b600080fd5b600080fd5b600080fd5b60008083601f840112611a8f57611a8e611a6a565b5b8235905067ffffffffffffffff811115611aac57611aab611a6f565b5b602083019150836001820283011115611ac857611ac7611a74565b5b9250929050565b600080600080600060608688031215611aeb57611aea6117fa565b5b600086013567ffffffffffffffff811115611b0957611b086117ff565b5b611b1588828901611a79565b95509550506020611b288882890161181b565b935050604086013567ffffffffffffffff811115611b4957611b486117ff565b5b611b5588828901611a79565b92509250509295509295909350565b60008060008060008060006080888a031215611b8357611b826117fa565b5b600088013567ffffffffffffffff811115611ba157611ba06117ff565b5b611bad8a828b01611a79565b9750975050602088013567ffffffffffffffff811115611bd057611bcf6117ff565b5b611bdc8a828b01611a79565b95509550506040611bef8a828b0161181b565b935050606088013567ffffffffffffffff811115611c1057611c0f6117ff565b5b611c1c8a828b01611a79565b925092505092959891949750929550565b611c3681611691565b82525050565b6000602082019050611c516000830184611c2d565b92915050565b7f4e487b7100000000000000000000000000000000000000000000000000000000600052604160045260246000fd5b7f4e487b7100000000000000000000000000000000000000000000000000000000600052602260045260246000fd5b60006002820490506001821680611ccd57607f821691505b602082108103611ce057611cdf611c86565b5b50919050565b7f4e487b7100000000000000000000000000000000000000000000000000000000600052601160045260246000fd5b6000611d2082611658565b9150611d2b83611658565b9250828203905081811115611d4357611d42611ce6565b5b92915050565b7f4e487b7100000000000000000000000000000000000000000000000000000000600052603260045260246000fd5b6000611d8382611658565b91507fffffffffffffffffffffffffffffffffffffffffffffffffffffffffffffffff8203611db557611db4611ce6565b5b600182019050919050565b7f4e6f742066726f6d20656c656374696f6e20436f6d6d6973696f6e0000000000600082015250565b6000611df6601b836119fe565b9150611e0182611dc0565b602082019050919050565b60006020820190508181036000830152611e2581611de9565b9050919050565b6000611e3782611658565b9150611e4283611658565b9250828201905080821115611e5a57611e59611ce6565b5b92915050565b7f766f74696e67206973206f766572000000000000000000000000000000000000600082015250565b6000611e96600e836119fe565b9150611ea182611e60565b602082019050919050565b60006020820190508181036000830152611ec581611e89565b9050919050565b7f796f7520617265206e6f7420656c656769626c6520666f7220766f74696e6700600082015250565b6000611f02601f836119fe565b9150611f0d82611ecc565b602082019050919050565b60006020820190508181036000830152611f3181611ef5565b9050919050565b7f766f74657220616c726561647920726567697374657200000000000000000000600082015250565b6000611f6e6016836119fe565b9150611f7982611f38565b602082019050919050565b60006020820190508181036000830152611f9d81611f61565b9050919050565b60008190508160005260206000209050919050565b60006020601f8301049050919050565b600082821b905092915050565b6000600883026120067fffffffffffffffffffffffffffffffffffffffffffffffffffffffffffffffff82611fc9565b6120108683611fc9565b95508019841693508086168417925050509392505050565b6000819050919050565b600061204d61204861204384611658565b612028565b611658565b9050919050565b6000819050919050565b61206783612032565b61207b61207382612054565b848454611fd6565b825550505050565b600090565b612090612083565b61209b81848461205e565b505050565b5b818110156120bf576120b4600082612088565b6001810190506120a1565b5050565b601f821115612104576120d581611fa4565b6120de84611fb9565b810160208510156120ed578190505b6121016120f985611fb9565b8301826120a0565b50505b505050565b600082821c905092915050565b600061212760001984600802612109565b1980831691505092915050565b60006121408383612116565b9150826002028217905092915050565b612159826115c8565b67ffffffffffffffff81111561217257612171611c57565b5b61217c8254611cb5565b6121878282856120c3565b600060209050601f8311600181146121ba57600084156121a8578287015190505b6121b28582612134565b86555061221a565b601f1984166121c886611fa4565b60005b828110156121f0578489015182556001820191506020850194506020810190506121cb565b8683101561220d5784890151612209601f891682612116565b8355505b6001600288020188555050505b505050505050565b7f616c726561647920766f74656400000000000000000000000000000000000000600082015250565b6000612258600d836119fe565b915061226382612222565b602082019050919050565b600060208201905081810360008301526122878161224b565b9050919050565b7f636865636b20596f7520566f7465724964206f7220796f7520617265206e6f7460008201527f2072656769737465726564000000000000000000000000000000000000000000602082015250565b60006122ea602b836119fe565b91506122f58261228e565b604082019050919050565b60006020820190508181036000830152612319816122dd565b9050919050565b7f766f74696e67206e6f7420737461727465640000000000000000000000000000600082015250565b60006123566012836119fe565b915061236182612320565b602082019050919050565b6000602082019050818103600083015261238581612349565b9050919050565b7f63616e64696461746520726567697374726174696f6e20686173206e6f74206460008201527f6f6e652079657400000000000000000000000000000000000000000000000000602082015250565b60006123e86027836119fe565b91506123f38261238c565b604082019050919050565b60006020820190508181036000830152612417816123db565b9050919050565b7f696e76616c69642063616e646964617465204964000000000000000000000000600082015250565b60006124546014836119fe565b915061245f8261241e565b602082019050919050565b6000602082019050818103600083015261248381612447565b9050919050565b7f596f7527726520656c656374696f6e20636f6d6d697373696f6e20616e64207960008201527f6f752063616e277420626520612063616e646964617465000000000000000000602082015250565b60006124e66037836119fe565b91506124f18261248a565b604082019050919050565b60006020820190508181036000830152612515816124d9565b9050919050565b7f63616e64696461746520616c7265646179207265676973746572000000000000600082015250565b6000612552601a836119fe565b915061255d8261251c565b602082019050919050565b6000602082019050818103600083015261258181612545565b9050919050565b7f796f7520617265206e6f7420656c696769626c65000000000000000000000000600082015250565b60006125be6014836119fe565b91506125c982612588565b602082019050919050565b600060208201905081810360008301526125ed816125b1565b9050919050565b7f63616e64696461746520726567697374726174696f6e2066756c6c0000000000600082015250565b600061262a601b836119fe565b9150612635826125f4565b602082019050919050565b600060208201905081810360008301526126598161261d565b905091905056fea2646970667358221220a6613d675a85fcc5ef1aaa99e87c218a93cffb7aa1068970861456209ed1b71164736f6c63430008120033",
					"opcodes": "PUSH1 0x80 PUSH1 0x40 MSTORE PUSH1 0x1 PUSH1 0x2 SSTORE PUSH1 0x1 PUSH1 0x3 SSTORE CALLVALUE DUP1 ISZERO PUSH2 0x1A JUMPI PUSH1 0x0 DUP1 REVERT JUMPDEST POP CALLER PUSH1 0x0 DUP1 PUSH2 0x100 EXP DUP2 SLOAD DUP2 PUSH20 0xFFFFFFFFFFFFFFFFFFFFFFFFFFFFFFFFFFFFFFFF MUL NOT AND SWAP1 DUP4 PUSH20 0xFFFFFFFFFFFFFFFFFFFFFFFFFFFFFFFFFFFFFFFF AND MUL OR SWAP1 SSTORE POP PUSH2 0x2696 DUP1 PUSH2 0x6A PUSH1 0x0 CODECOPY PUSH1 0x0 RETURN INVALID PUSH1 0x80 PUSH1 0x40 MSTORE CALLVALUE DUP1 ISZERO PUSH2 0x10 JUMPI PUSH1 0x0 DUP1 REVERT JUMPDEST POP PUSH1 0x4 CALLDATASIZE LT PUSH2 0x9E JUMPI PUSH1 0x0 CALLDATALOAD PUSH1 0xE0 SHR DUP1 PUSH4 0x93E5FED2 GT PUSH2 0x66 JUMPI DUP1 PUSH4 0x93E5FED2 EQ PUSH2 0x123 JUMPI DUP1 PUSH4 0xB384ABEF EQ PUSH2 0x13F JUMPI DUP1 PUSH4 0xCAA6FEA4 EQ PUSH2 0x15B JUMPI DUP1 PUSH4 0xCF5CE2E7 EQ PUSH2 0x165 JUMPI DUP1 PUSH4 0xDFBF53AE EQ PUSH2 0x181 JUMPI PUSH2 0x9E JUMP JUMPDEST DUP1 PUSH4 0x24089918 EQ PUSH2 0xA3 JUMPI DUP1 PUSH4 0x2624EF6D EQ PUSH2 0xC1 JUMPI DUP1 PUSH4 0x498EA441 EQ PUSH2 0xDD JUMPI DUP1 PUSH4 0x4E73B5B8 EQ PUSH2 0xFB JUMPI DUP1 PUSH4 0x65372147 EQ PUSH2 0x119 JUMPI JUMPDEST PUSH1 0x0 DUP1 REVERT JUMPDEST PUSH2 0xAB PUSH2 0x19F JUMP JUMPDEST PUSH1 0x40 MLOAD PUSH2 0xB8 SWAP2 SWAP1 PUSH2 0x17D8 JUMP JUMPDEST PUSH1 0x40 MLOAD DUP1 SWAP2 SUB SWAP1 RETURN JUMPDEST PUSH2 0xDB PUSH1 0x4 DUP1 CALLDATASIZE SUB DUP2 ADD SWAP1 PUSH2 0xD6 SWAP2 SWAP1 PUSH2 0x1830 JUMP JUMPDEST PUSH2 0x406 JUMP JUMPDEST STOP JUMPDEST PUSH2 0xE5 PUSH2 0x4D9 JUMP JUMPDEST PUSH1 0x40 MLOAD PUSH2 0xF2 SWAP2 SWAP1 PUSH2 0x19DC JUMP JUMPDEST PUSH1 0x40 MLOAD DUP1 SWAP2 SUB SWAP1 RETURN JUMPDEST PUSH2 0x103 PUSH2 0x7D3 JUMP JUMPDEST PUSH1 0x40 MLOAD PUSH2 0x110 SWAP2 SWAP1 PUSH2 0x1A48 JUMP JUMPDEST PUSH1 0x40 MLOAD DUP1 SWAP2 SUB SWAP1 RETURN JUMPDEST PUSH2 0x121 PUSH2 0x8CE JUMP JUMPDEST STOP JUMPDEST PUSH2 0x13D PUSH1 0x4 DUP1 CALLDATASIZE SUB DUP2 ADD SWAP1 PUSH2 0x138 SWAP2 SWAP1 PUSH2 0x1ACF JUMP JUMPDEST PUSH2 0xAE5 JUMP JUMPDEST STOP JUMPDEST PUSH2 0x159 PUSH1 0x4 DUP1 CALLDATASIZE SUB DUP2 ADD SWAP1 PUSH2 0x154 SWAP2 SWAP1 PUSH2 0x1830 JUMP JUMPDEST PUSH2 0xD0E JUMP JUMPDEST STOP JUMPDEST PUSH2 0x163 PUSH2 0xF89 JUMP JUMPDEST STOP JUMPDEST PUSH2 0x17F PUSH1 0x4 DUP1 CALLDATASIZE SUB DUP2 ADD SWAP1 PUSH2 0x17A SWAP2 SWAP1 PUSH2 0x1B64 JUMP JUMPDEST PUSH2 0x1034 JUMP JUMPDEST STOP JUMPDEST PUSH2 0x189 PUSH2 0x1391 JUMP JUMPDEST PUSH1 0x40 MLOAD PUSH2 0x196 SWAP2 SWAP1 PUSH2 0x1C3C JUMP JUMPDEST PUSH1 0x40 MLOAD DUP1 SWAP2 SUB SWAP1 RETURN JUMPDEST PUSH1 0x60 PUSH1 0x0 PUSH1 0x2 SLOAD PUSH8 0xFFFFFFFFFFFFFFFF DUP2 GT ISZERO PUSH2 0x1BF JUMPI PUSH2 0x1BE PUSH2 0x1C57 JUMP JUMPDEST JUMPDEST PUSH1 0x40 MLOAD SWAP1 DUP1 DUP3 MSTORE DUP1 PUSH1 0x20 MUL PUSH1 0x20 ADD DUP3 ADD PUSH1 0x40 MSTORE DUP1 ISZERO PUSH2 0x1F8 JUMPI DUP2 PUSH1 0x20 ADD JUMPDEST PUSH2 0x1E5 PUSH2 0x14FD JUMP JUMPDEST DUP2 MSTORE PUSH1 0x20 ADD SWAP1 PUSH1 0x1 SWAP1 SUB SWAP1 DUP2 PUSH2 0x1DD JUMPI SWAP1 POP JUMPDEST POP SWAP1 POP PUSH1 0x0 PUSH1 0x1 SWAP1 POP JUMPDEST PUSH1 0x2 SLOAD DUP2 GT PUSH2 0x3FE JUMPI PUSH1 0x6 PUSH1 0x0 DUP3 DUP2 MSTORE PUSH1 0x20 ADD SWAP1 DUP2 MSTORE PUSH1 0x20 ADD PUSH1 0x0 KECCAK256 PUSH1 0x40 MLOAD DUP1 PUSH1 0xC0 ADD PUSH1 0x40 MSTORE SWAP1 DUP2 PUSH1 0x0 DUP3 ADD DUP1 SLOAD PUSH2 0x239 SWAP1 PUSH2 0x1CB5 JUMP JUMPDEST DUP1 PUSH1 0x1F ADD PUSH1 0x20 DUP1 SWAP2 DIV MUL PUSH1 0x20 ADD PUSH1 0x40 MLOAD SWAP1 DUP2 ADD PUSH1 0x40 MSTORE DUP1 SWAP3 SWAP2 SWAP1 DUP2 DUP2 MSTORE PUSH1 0x20 ADD DUP3 DUP1 SLOAD PUSH2 0x265 SWAP1 PUSH2 0x1CB5 JUMP JUMPDEST DUP1 ISZERO PUSH2 0x2B2 JUMPI DUP1 PUSH1 0x1F LT PUSH2 0x287 JUMPI PUSH2 0x100 DUP1 DUP4 SLOAD DIV MUL DUP4 MSTORE SWAP2 PUSH1 0x20 ADD SWAP2 PUSH2 0x2B2 JUMP JUMPDEST DUP3 ADD SWAP2 SWAP1 PUSH1 0x0 MSTORE PUSH1 0x20 PUSH1 0x0 KECCAK256 SWAP1 JUMPDEST DUP2 SLOAD DUP2 MSTORE SWAP1 PUSH1 0x1 ADD SWAP1 PUSH1 0x20 ADD DUP1 DUP4 GT PUSH2 0x295 JUMPI DUP3 SWAP1 SUB PUSH1 0x1F AND DUP3 ADD SWAP2 JUMPDEST POP POP POP POP POP DUP2 MSTORE PUSH1 0x20 ADD PUSH1 0x1 DUP3 ADD SLOAD DUP2 MSTORE PUSH1 0x20 ADD PUSH1 0x2 DUP3 ADD SLOAD DUP2 MSTORE PUSH1 0x20 ADD PUSH1 0x3 DUP3 ADD DUP1 SLOAD PUSH2 0x2DF SWAP1 PUSH2 0x1CB5 JUMP JUMPDEST DUP1 PUSH1 0x1F ADD PUSH1 0x20 DUP1 SWAP2 DIV MUL PUSH1 0x20 ADD PUSH1 0x40 MLOAD SWAP1 DUP2 ADD PUSH1 0x40 MSTORE DUP1 SWAP3 SWAP2 SWAP1 DUP2 DUP2 MSTORE PUSH1 0x20 ADD DUP3 DUP1 SLOAD PUSH2 0x30B SWAP1 PUSH2 0x1CB5 JUMP JUMPDEST DUP1 ISZERO PUSH2 0x358 JUMPI DUP1 PUSH1 0x1F LT PUSH2 0x32D JUMPI PUSH2 0x100 DUP1 DUP4 SLOAD DIV MUL DUP4 MSTORE SWAP2 PUSH1 0x20 ADD SWAP2 PUSH2 0x358 JUMP JUMPDEST DUP3 ADD SWAP2 SWAP1 PUSH1 0x0 MSTORE PUSH1 0x20 PUSH1 0x0 KECCAK256 SWAP1 JUMPDEST DUP2 SLOAD DUP2 MSTORE SWAP1 PUSH1 0x1 ADD SWAP1 PUSH1 0x20 ADD DUP1 DUP4 GT PUSH2 0x33B JUMPI DUP3 SWAP1 SUB PUSH1 0x1F AND DUP3 ADD SWAP2 JUMPDEST POP POP POP POP POP DUP2 MSTORE PUSH1 0x20 ADD PUSH1 0x4 DUP3 ADD SLOAD DUP2 MSTORE PUSH1 0x20 ADD PUSH1 0x5 DUP3 ADD PUSH1 0x0 SWAP1 SLOAD SWAP1 PUSH2 0x100 EXP SWAP1 DIV PUSH20 0xFFFFFFFFFFFFFFFFFFFFFFFFFFFFFFFFFFFFFFFF AND PUSH20 0xFFFFFFFFFFFFFFFFFFFFFFFFFFFFFFFFFFFFFFFF AND PUSH20 0xFFFFFFFFFFFFFFFFFFFFFFFFFFFFFFFFFFFFFFFF AND DUP2 MSTORE POP POP DUP3 PUSH1 0x1 DUP4 PUSH2 0x3CF SWAP2 SWAP1 PUSH2 0x1D15 JUMP JUMPDEST DUP2 MLOAD DUP2 LT PUSH2 0x3E0 JUMPI PUSH2 0x3DF PUSH2 0x1D49 JUMP JUMPDEST JUMPDEST PUSH1 0x20 MUL PUSH1 0x20 ADD ADD DUP2 SWAP1 MSTORE POP DUP1 DUP1 PUSH2 0x3F6 SWAP1 PUSH2 0x1D78 JUMP JUMPDEST SWAP2 POP POP PUSH2 0x202 JUMP JUMPDEST POP DUP1 SWAP2 POP POP SWAP1 JUMP JUMPDEST CALLER PUSH20 0xFFFFFFFFFFFFFFFFFFFFFFFFFFFFFFFFFFFFFFFF AND PUSH1 0x0 DUP1 SLOAD SWAP1 PUSH2 0x100 EXP SWAP1 DIV PUSH20 0xFFFFFFFFFFFFFFFFFFFFFFFFFFFFFFFFFFFFFFFF AND PUSH20 0xFFFFFFFFFFFFFFFFFFFFFFFFFFFFFFFFFFFFFFFF AND EQ PUSH2 0x494 JUMPI PUSH1 0x40 MLOAD PUSH32 0x8C379A000000000000000000000000000000000000000000000000000000000 DUP2 MSTORE PUSH1 0x4 ADD PUSH2 0x48B SWAP1 PUSH2 0x1E0C JUMP JUMPDEST PUSH1 0x40 MLOAD DUP1 SWAP2 SUB SWAP1 REVERT JUMPDEST DUP2 TIMESTAMP PUSH2 0x4A0 SWAP2 SWAP1 PUSH2 0x1E2C JUMP JUMPDEST PUSH1 0x4 DUP2 SWAP1 SSTORE POP DUP1 PUSH1 0x4 SLOAD PUSH2 0x4B4 SWAP2 SWAP1 PUSH2 0x1E2C JUMP JUMPDEST PUSH1 0x5 DUP2 SWAP1 SSTORE POP PUSH1 0x0 PUSH1 0x8 PUSH1 0x0 PUSH2 0x100 EXP DUP2 SLOAD DUP2 PUSH1 0xFF MUL NOT AND SWAP1 DUP4 ISZERO ISZERO MUL OR SWAP1 SSTORE POP POP POP JUMP JUMPDEST PUSH1 0x60 PUSH1 0x0 PUSH1 0x3 SLOAD PUSH8 0xFFFFFFFFFFFFFFFF DUP2 GT ISZERO PUSH2 0x4F9 JUMPI PUSH2 0x4F8 PUSH2 0x1C57 JUMP JUMPDEST JUMPDEST PUSH1 0x40 MLOAD SWAP1 DUP1 DUP3 MSTORE DUP1 PUSH1 0x20 MUL PUSH1 0x20 ADD DUP3 ADD PUSH1 0x40 MSTORE DUP1 ISZERO PUSH2 0x532 JUMPI DUP2 PUSH1 0x20 ADD JUMPDEST PUSH2 0x51F PUSH2 0x1549 JUMP JUMPDEST DUP2 MSTORE PUSH1 0x20 ADD SWAP1 PUSH1 0x1 SWAP1 SUB SWAP1 DUP2 PUSH2 0x517 JUMPI SWAP1 POP JUMPDEST POP SWAP1 POP PUSH1 0x0 PUSH1 0x1 SWAP1 POP JUMPDEST PUSH1 0x3 SLOAD DUP2 LT ISZERO PUSH2 0x7CB JUMPI PUSH1 0x7 PUSH1 0x0 DUP3 DUP2 MSTORE PUSH1 0x20 ADD SWAP1 DUP2 MSTORE PUSH1 0x20 ADD PUSH1 0x0 KECCAK256 PUSH1 0x40 MLOAD DUP1 PUSH1 0xE0 ADD PUSH1 0x40 MSTORE SWAP1 DUP2 PUSH1 0x0 DUP3 ADD DUP1 SLOAD PUSH2 0x574 SWAP1 PUSH2 0x1CB5 JUMP JUMPDEST DUP1 PUSH1 0x1F ADD PUSH1 0x20 DUP1 SWAP2 DIV MUL PUSH1 0x20 ADD PUSH1 0x40 MLOAD SWAP1 DUP2 ADD PUSH1 0x40 MSTORE DUP1 SWAP3 SWAP2 SWAP1 DUP2 DUP2 MSTORE PUSH1 0x20 ADD DUP3 DUP1 SLOAD PUSH2 0x5A0 SWAP1 PUSH2 0x1CB5 JUMP JUMPDEST DUP1 ISZERO PUSH2 0x5ED JUMPI DUP1 PUSH1 0x1F LT PUSH2 0x5C2 JUMPI PUSH2 0x100 DUP1 DUP4 SLOAD DIV MUL DUP4 MSTORE SWAP2 PUSH1 0x20 ADD SWAP2 PUSH2 0x5ED JUMP JUMPDEST DUP3 ADD SWAP2 SWAP1 PUSH1 0x0 MSTORE PUSH1 0x20 PUSH1 0x0 KECCAK256 SWAP1 JUMPDEST DUP2 SLOAD DUP2 MSTORE SWAP1 PUSH1 0x1 ADD SWAP1 PUSH1 0x20 ADD DUP1 DUP4 GT PUSH2 0x5D0 JUMPI DUP3 SWAP1 SUB PUSH1 0x1F AND DUP3 ADD SWAP2 JUMPDEST POP POP POP POP POP DUP2 MSTORE PUSH1 0x20 ADD PUSH1 0x1 DUP3 ADD DUP1 SLOAD PUSH2 0x606 SWAP1 PUSH2 0x1CB5 JUMP JUMPDEST DUP1 PUSH1 0x1F ADD PUSH1 0x20 DUP1 SWAP2 DIV MUL PUSH1 0x20 ADD PUSH1 0x40 MLOAD SWAP1 DUP2 ADD PUSH1 0x40 MSTORE DUP1 SWAP3 SWAP2 SWAP1 DUP2 DUP2 MSTORE PUSH1 0x20 ADD DUP3 DUP1 SLOAD PUSH2 0x632 SWAP1 PUSH2 0x1CB5 JUMP JUMPDEST DUP1 ISZERO PUSH2 0x67F JUMPI DUP1 PUSH1 0x1F LT PUSH2 0x654 JUMPI PUSH2 0x100 DUP1 DUP4 SLOAD DIV MUL DUP4 MSTORE SWAP2 PUSH1 0x20 ADD SWAP2 PUSH2 0x67F JUMP JUMPDEST DUP3 ADD SWAP2 SWAP1 PUSH1 0x0 MSTORE PUSH1 0x20 PUSH1 0x0 KECCAK256 SWAP1 JUMPDEST DUP2 SLOAD DUP2 MSTORE SWAP1 PUSH1 0x1 ADD SWAP1 PUSH1 0x20 ADD DUP1 DUP4 GT PUSH2 0x662 JUMPI DUP3 SWAP1 SUB PUSH1 0x1F AND DUP3 ADD SWAP2 JUMPDEST POP POP POP POP POP DUP2 MSTORE PUSH1 0x20 ADD PUSH1 0x2 DUP3 ADD SLOAD DUP2 MSTORE PUSH1 0x20 ADD PUSH1 0x3 DUP3 ADD DUP1 SLOAD PUSH2 0x6A2 SWAP1 PUSH2 0x1CB5 JUMP JUMPDEST DUP1 PUSH1 0x1F ADD PUSH1 0x20 DUP1 SWAP2 DIV MUL PUSH1 0x20 ADD PUSH1 0x40 MLOAD SWAP1 DUP2 ADD PUSH1 0x40 MSTORE DUP1 SWAP3 SWAP2 SWAP1 DUP2 DUP2 MSTORE PUSH1 0x20 ADD DUP3 DUP1 SLOAD PUSH2 0x6CE SWAP1 PUSH2 0x1CB5 JUMP JUMPDEST DUP1 ISZERO PUSH2 0x71B JUMPI DUP1 PUSH1 0x1F LT PUSH2 0x6F0 JUMPI PUSH2 0x100 DUP1 DUP4 SLOAD DIV MUL DUP4 MSTORE SWAP2 PUSH1 0x20 ADD SWAP2 PUSH2 0x71B JUMP JUMPDEST DUP3 ADD SWAP2 SWAP1 PUSH1 0x0 MSTORE PUSH1 0x20 PUSH1 0x0 KECCAK256 SWAP1 JUMPDEST DUP2 SLOAD DUP2 MSTORE SWAP1 PUSH1 0x1 ADD SWAP1 PUSH1 0x20 ADD DUP1 DUP4 GT PUSH2 0x6FE JUMPI DUP3 SWAP1 SUB PUSH1 0x1F AND DUP3 ADD SWAP2 JUMPDEST POP POP POP POP POP DUP2 MSTORE PUSH1 0x20 ADD PUSH1 0x4 DUP3 ADD SLOAD DUP2 MSTORE PUSH1 0x20 ADD PUSH1 0x5 DUP3 ADD PUSH1 0x0 SWAP1 SLOAD SWAP1 PUSH2 0x100 EXP SWAP1 DIV PUSH20 0xFFFFFFFFFFFFFFFFFFFFFFFFFFFFFFFFFFFFFFFF AND PUSH20 0xFFFFFFFFFFFFFFFFFFFFFFFFFFFFFFFFFFFFFFFF AND PUSH20 0xFFFFFFFFFFFFFFFFFFFFFFFFFFFFFFFFFFFFFFFF AND DUP2 MSTORE PUSH1 0x20 ADD PUSH1 0x6 DUP3 ADD SLOAD DUP2 MSTORE POP POP DUP3 PUSH1 0x1 DUP4 PUSH2 0x79C SWAP2 SWAP1 PUSH2 0x1D15 JUMP JUMPDEST DUP2 MLOAD DUP2 LT PUSH2 0x7AD JUMPI PUSH2 0x7AC PUSH2 0x1D49 JUMP JUMPDEST JUMPDEST PUSH1 0x20 MUL PUSH1 0x20 ADD ADD DUP2 SWAP1 MSTORE POP DUP1 DUP1 PUSH2 0x7C3 SWAP1 PUSH2 0x1D78 JUMP JUMPDEST SWAP2 POP POP PUSH2 0x53C JUMP JUMPDEST POP DUP1 SWAP2 POP POP SWAP1 JUMP JUMPDEST PUSH1 0x60 PUSH1 0x0 PUSH1 0x4 SLOAD SUB PUSH2 0x81C JUMPI PUSH1 0x40 MLOAD DUP1 PUSH1 0x40 ADD PUSH1 0x40 MSTORE DUP1 PUSH1 0x12 DUP2 MSTORE PUSH1 0x20 ADD PUSH32 0x766F74696E67206E6F7420737461727465640000000000000000000000000000 DUP2 MSTORE POP SWAP1 POP PUSH2 0x8CB JUMP JUMPDEST TIMESTAMP PUSH1 0x5 SLOAD GT ISZERO DUP1 ISZERO PUSH2 0x841 JUMPI POP PUSH1 0x0 ISZERO ISZERO PUSH1 0x8 PUSH1 0x0 SWAP1 SLOAD SWAP1 PUSH2 0x100 EXP SWAP1 DIV PUSH1 0xFF AND ISZERO ISZERO EQ JUMPDEST DUP1 ISZERO PUSH2 0x850 JUMPI POP PUSH1 0x0 PUSH1 0x4 SLOAD EQ ISZERO JUMPDEST ISZERO PUSH2 0x892 JUMPI PUSH1 0x40 MLOAD DUP1 PUSH1 0x40 ADD PUSH1 0x40 MSTORE DUP1 PUSH1 0x12 DUP2 MSTORE PUSH1 0x20 ADD PUSH32 0x766F74696E6720696E2070726F67726573730000000000000000000000000000 DUP2 MSTORE POP SWAP1 POP PUSH2 0x8CB JUMP JUMPDEST PUSH1 0x40 MLOAD DUP1 PUSH1 0x40 ADD PUSH1 0x40 MSTORE DUP1 PUSH1 0xE DUP2 MSTORE PUSH1 0x20 ADD PUSH32 0x766F74696E67206973206F766572000000000000000000000000000000000000 DUP2 MSTORE POP SWAP1 POP JUMPDEST SWAP1 JUMP JUMPDEST CALLER PUSH20 0xFFFFFFFFFFFFFFFFFFFFFFFFFFFFFFFFFFFFFFFF AND PUSH1 0x0 DUP1 SLOAD SWAP1 PUSH2 0x100 EXP SWAP1 DIV PUSH20 0xFFFFFFFFFFFFFFFFFFFFFFFFFFFFFFFFFFFFFFFF AND PUSH20 0xFFFFFFFFFFFFFFFFFFFFFFFFFFFFFFFFFFFFFFFF AND EQ PUSH2 0x95C JUMPI PUSH1 0x40 MLOAD PUSH32 0x8C379A000000000000000000000000000000000000000000000000000000000 DUP2 MSTORE PUSH1 0x4 ADD PUSH2 0x953 SWAP1 PUSH2 0x1E0C JUMP JUMPDEST PUSH1 0x40 MLOAD DUP1 SWAP2 SUB SWAP1 REVERT JUMPDEST TIMESTAMP PUSH1 0x5 SLOAD GT DUP1 PUSH2 0x978 JUMPI POP PUSH1 0x8 PUSH1 0x0 SWAP1 SLOAD SWAP1 PUSH2 0x100 EXP SWAP1 DIV PUSH1 0xFF AND JUMPDEST PUSH2 0x9B7 JUMPI PUSH1 0x40 MLOAD PUSH32 0x8C379A000000000000000000000000000000000000000000000000000000000 DUP2 MSTORE PUSH1 0x4 ADD PUSH2 0x9AE SWAP1 PUSH2 0x1EAC JUMP JUMPDEST PUSH1 0x40 MLOAD DUP1 SWAP2 SUB SWAP1 REVERT JUMPDEST PUSH1 0x7 PUSH1 0x0 PUSH1 0x2 DUP2 MSTORE PUSH1 0x20 ADD SWAP1 DUP2 MSTORE PUSH1 0x20 ADD PUSH1 0x0 KECCAK256 PUSH1 0x6 ADD SLOAD PUSH1 0x7 PUSH1 0x0 PUSH1 0x1 DUP2 MSTORE PUSH1 0x20 ADD SWAP1 DUP2 MSTORE PUSH1 0x20 ADD PUSH1 0x0 KECCAK256 PUSH1 0x6 ADD SLOAD GT ISZERO PUSH2 0xA6A JUMPI PUSH1 0x7 PUSH1 0x0 PUSH1 0x1 DUP2 MSTORE PUSH1 0x20 ADD SWAP1 DUP2 MSTORE PUSH1 0x20 ADD PUSH1 0x0 KECCAK256 PUSH1 0x5 ADD PUSH1 0x0 SWAP1 SLOAD SWAP1 PUSH2 0x100 EXP SWAP1 DIV PUSH20 0xFFFFFFFFFFFFFFFFFFFFFFFFFFFFFFFFFFFFFFFF AND PUSH1 0x1 PUSH1 0x0 PUSH2 0x100 EXP DUP2 SLOAD DUP2 PUSH20 0xFFFFFFFFFFFFFFFFFFFFFFFFFFFFFFFFFFFFFFFF MUL NOT AND SWAP1 DUP4 PUSH20 0xFFFFFFFFFFFFFFFFFFFFFFFFFFFFFFFFFFFFFFFF AND MUL OR SWAP1 SSTORE POP PUSH2 0xAE3 JUMP JUMPDEST PUSH1 0x7 PUSH1 0x0 PUSH1 0x2 DUP2 MSTORE PUSH1 0x20 ADD SWAP1 DUP2 MSTORE PUSH1 0x20 ADD PUSH1 0x0 KECCAK256 PUSH1 0x5 ADD PUSH1 0x0 SWAP1 SLOAD SWAP1 PUSH2 0x100 EXP SWAP1 DIV PUSH20 0xFFFFFFFFFFFFFFFFFFFFFFFFFFFFFFFFFFFFFFFF AND PUSH1 0x1 PUSH1 0x0 PUSH2 0x100 EXP DUP2 SLOAD DUP2 PUSH20 0xFFFFFFFFFFFFFFFFFFFFFFFFFFFFFFFFFFFFFFFF MUL NOT AND SWAP1 DUP4 PUSH20 0xFFFFFFFFFFFFFFFFFFFFFFFFFFFFFFFFFFFFFFFF AND MUL OR SWAP1 SSTORE POP JUMPDEST JUMP JUMPDEST PUSH1 0x12 DUP4 LT ISZERO PUSH2 0xB29 JUMPI PUSH1 0x40 MLOAD PUSH32 0x8C379A000000000000000000000000000000000000000000000000000000000 DUP2 MSTORE PUSH1 0x4 ADD PUSH2 0xB20 SWAP1 PUSH2 0x1F18 JUMP JUMPDEST PUSH1 0x40 MLOAD DUP1 SWAP2 SUB SWAP1 REVERT JUMPDEST PUSH1 0x1 ISZERO ISZERO PUSH2 0xB36 CALLER PUSH2 0x13B7 JUMP JUMPDEST ISZERO ISZERO EQ PUSH2 0xB78 JUMPI PUSH1 0x40 MLOAD PUSH32 0x8C379A000000000000000000000000000000000000000000000000000000000 DUP2 MSTORE PUSH1 0x4 ADD PUSH2 0xB6F SWAP1 PUSH2 0x1F84 JUMP JUMPDEST PUSH1 0x40 MLOAD DUP1 SWAP2 SUB SWAP1 REVERT JUMPDEST PUSH1 0x40 MLOAD DUP1 PUSH1 0xC0 ADD PUSH1 0x40 MSTORE DUP1 DUP7 DUP7 DUP1 DUP1 PUSH1 0x1F ADD PUSH1 0x20 DUP1 SWAP2 DIV MUL PUSH1 0x20 ADD PUSH1 0x40 MLOAD SWAP1 DUP2 ADD PUSH1 0x40 MSTORE DUP1 SWAP4 SWAP3 SWAP2 SWAP1 DUP2 DUP2 MSTORE PUSH1 0x20 ADD DUP4 DUP4 DUP1 DUP3 DUP5 CALLDATACOPY PUSH1 0x0 DUP2 DUP5 ADD MSTORE PUSH1 0x1F NOT PUSH1 0x1F DUP3 ADD AND SWAP1 POP DUP1 DUP4 ADD SWAP3 POP POP POP POP POP POP POP DUP2 MSTORE PUSH1 0x20 ADD DUP5 DUP2 MSTORE PUSH1 0x20 ADD PUSH1 0x2 SLOAD DUP2 MSTORE PUSH1 0x20 ADD DUP4 DUP4 DUP1 DUP1 PUSH1 0x1F ADD PUSH1 0x20 DUP1 SWAP2 DIV MUL PUSH1 0x20 ADD PUSH1 0x40 MLOAD SWAP1 DUP2 ADD PUSH1 0x40 MSTORE DUP1 SWAP4 SWAP3 SWAP2 SWAP1 DUP2 DUP2 MSTORE PUSH1 0x20 ADD DUP4 DUP4 DUP1 DUP3 DUP5 CALLDATACOPY PUSH1 0x0 DUP2 DUP5 ADD MSTORE PUSH1 0x1F NOT PUSH1 0x1F DUP3 ADD AND SWAP1 POP DUP1 DUP4 ADD SWAP3 POP POP POP POP POP POP POP DUP2 MSTORE PUSH1 0x20 ADD PUSH1 0x0 DUP2 MSTORE PUSH1 0x20 ADD CALLER PUSH20 0xFFFFFFFFFFFFFFFFFFFFFFFFFFFFFFFFFFFFFFFF AND DUP2 MSTORE POP PUSH1 0x6 PUSH1 0x0 PUSH1 0x2 SLOAD DUP2 MSTORE PUSH1 0x20 ADD SWAP1 DUP2 MSTORE PUSH1 0x20 ADD PUSH1 0x0 KECCAK256 PUSH1 0x0 DUP3 ADD MLOAD DUP2 PUSH1 0x0 ADD SWAP1 DUP2 PUSH2 0xC70 SWAP2 SWAP1 PUSH2 0x2150 JUMP JUMPDEST POP PUSH1 0x20 DUP3 ADD MLOAD DUP2 PUSH1 0x1 ADD SSTORE PUSH1 0x40 DUP3 ADD MLOAD DUP2 PUSH1 0x2 ADD SSTORE PUSH1 0x60 DUP3 ADD MLOAD DUP2 PUSH1 0x3 ADD SWAP1 DUP2 PUSH2 0xC9A SWAP2 SWAP1 PUSH2 0x2150 JUMP JUMPDEST POP PUSH1 0x80 DUP3 ADD MLOAD DUP2 PUSH1 0x4 ADD SSTORE PUSH1 0xA0 DUP3 ADD MLOAD DUP2 PUSH1 0x5 ADD PUSH1 0x0 PUSH2 0x100 EXP DUP2 SLOAD DUP2 PUSH20 0xFFFFFFFFFFFFFFFFFFFFFFFFFFFFFFFFFFFFFFFF MUL NOT AND SWAP1 DUP4 PUSH20 0xFFFFFFFFFFFFFFFFFFFFFFFFFFFFFFFFFFFFFFFF AND MUL OR SWAP1 SSTORE POP SWAP1 POP POP PUSH1 0x2 PUSH1 0x0 DUP2 SLOAD DUP1 SWAP3 SWAP2 SWAP1 PUSH2 0xD02 SWAP1 PUSH2 0x1D78 JUMP JUMPDEST SWAP2 SWAP1 POP SSTORE POP POP POP POP POP POP JUMP JUMPDEST TIMESTAMP PUSH1 0x5 SLOAD GT DUP1 PUSH2 0xD2A JUMPI POP PUSH1 0x8 PUSH1 0x0 SWAP1 SLOAD SWAP1 PUSH2 0x100 EXP SWAP1 DIV PUSH1 0xFF AND JUMPDEST PUSH2 0xD69 JUMPI PUSH1 0x40 MLOAD PUSH32 0x8C379A000000000000000000000000000000000000000000000000000000000 DUP2 MSTORE PUSH1 0x4 ADD PUSH2 0xD60 SWAP1 PUSH2 0x1EAC JUMP JUMPDEST PUSH1 0x40 MLOAD DUP1 SWAP2 SUB SWAP1 REVERT JUMPDEST PUSH1 0x0 PUSH1 0x6 PUSH1 0x0 DUP5 DUP2 MSTORE PUSH1 0x20 ADD SWAP1 DUP2 MSTORE PUSH1 0x20 ADD PUSH1 0x0 KECCAK256 PUSH1 0x4 ADD SLOAD EQ PUSH2 0xDC2 JUMPI PUSH1 0x40 MLOAD PUSH32 0x8C379A000000000000000000000000000000000000000000000000000000000 DUP2 MSTORE PUSH1 0x4 ADD PUSH2 0xDB9 SWAP1 PUSH2 0x226E JUMP JUMPDEST PUSH1 0x40 MLOAD DUP1 SWAP2 SUB SWAP1 REVERT JUMPDEST CALLER PUSH20 0xFFFFFFFFFFFFFFFFFFFFFFFFFFFFFFFFFFFFFFFF AND PUSH1 0x6 PUSH1 0x0 DUP5 DUP2 MSTORE PUSH1 0x20 ADD SWAP1 DUP2 MSTORE PUSH1 0x20 ADD PUSH1 0x0 KECCAK256 PUSH1 0x5 ADD PUSH1 0x0 SWAP1 SLOAD SWAP1 PUSH2 0x100 EXP SWAP1 DIV PUSH20 0xFFFFFFFFFFFFFFFFFFFFFFFFFFFFFFFFFFFFFFFF AND PUSH20 0xFFFFFFFFFFFFFFFFFFFFFFFFFFFFFFFFFFFFFFFF AND EQ PUSH2 0xE66 JUMPI PUSH1 0x40 MLOAD PUSH32 0x8C379A000000000000000000000000000000000000000000000000000000000 DUP2 MSTORE PUSH1 0x4 ADD PUSH2 0xE5D SWAP1 PUSH2 0x2300 JUMP JUMPDEST PUSH1 0x40 MLOAD DUP1 SWAP2 SUB SWAP1 REVERT JUMPDEST PUSH1 0x0 PUSH1 0x4 SLOAD SUB PUSH2 0xEAB JUMPI PUSH1 0x40 MLOAD PUSH32 0x8C379A000000000000000000000000000000000000000000000000000000000 DUP2 MSTORE PUSH1 0x4 ADD PUSH2 0xEA2 SWAP1 PUSH2 0x236C JUMP JUMPDEST PUSH1 0x40 MLOAD DUP1 SWAP2 SUB SWAP1 REVERT JUMPDEST PUSH1 0x3 DUP1 SLOAD EQ PUSH2 0xEEF JUMPI PUSH1 0x40 MLOAD PUSH32 0x8C379A000000000000000000000000000000000000000000000000000000000 DUP2 MSTORE PUSH1 0x4 ADD PUSH2 0xEE6 SWAP1 PUSH2 0x23FE JUMP JUMPDEST PUSH1 0x40 MLOAD DUP1 SWAP2 SUB SWAP1 REVERT JUMPDEST PUSH1 0x0 DUP2 GT DUP1 ISZERO PUSH2 0xEFF JUMPI POP PUSH1 0x3 DUP2 LT JUMPDEST PUSH2 0xF3E JUMPI PUSH1 0x40 MLOAD PUSH32 0x8C379A000000000000000000000000000000000000000000000000000000000 DUP2 MSTORE PUSH1 0x4 ADD PUSH2 0xF35 SWAP1 PUSH2 0x246A JUMP JUMPDEST PUSH1 0x40 MLOAD DUP1 SWAP2 SUB SWAP1 REVERT JUMPDEST DUP1 PUSH1 0x6 PUSH1 0x0 DUP5 DUP2 MSTORE PUSH1 0x20 ADD SWAP1 DUP2 MSTORE PUSH1 0x20 ADD PUSH1 0x0 KECCAK256 PUSH1 0x4 ADD DUP2 SWAP1 SSTORE POP PUSH1 0x7 PUSH1 0x0 DUP3 DUP2 MSTORE PUSH1 0x20 ADD SWAP1 DUP2 MSTORE PUSH1 0x20 ADD PUSH1 0x0 KECCAK256 PUSH1 0x6 ADD PUSH1 0x0 DUP2 SLOAD DUP1 SWAP3 SWAP2 SWAP1 PUSH2 0xF80 SWAP1 PUSH2 0x1D78 JUMP JUMPDEST SWAP2 SWAP1 POP SSTORE POP POP POP JUMP JUMPDEST CALLER PUSH20 0xFFFFFFFFFFFFFFFFFFFFFFFFFFFFFFFFFFFFFFFF AND PUSH1 0x0 DUP1 SLOAD SWAP1 PUSH2 0x100 EXP SWAP1 DIV PUSH20 0xFFFFFFFFFFFFFFFFFFFFFFFFFFFFFFFFFFFFFFFF AND PUSH20 0xFFFFFFFFFFFFFFFFFFFFFFFFFFFFFFFFFFFFFFFF AND EQ PUSH2 0x1017 JUMPI PUSH1 0x40 MLOAD PUSH32 0x8C379A000000000000000000000000000000000000000000000000000000000 DUP2 MSTORE PUSH1 0x4 ADD PUSH2 0x100E SWAP1 PUSH2 0x1E0C JUMP JUMPDEST PUSH1 0x40 MLOAD DUP1 SWAP2 SUB SWAP1 REVERT JUMPDEST PUSH1 0x1 PUSH1 0x8 PUSH1 0x0 PUSH2 0x100 EXP DUP2 SLOAD DUP2 PUSH1 0xFF MUL NOT AND SWAP1 DUP4 ISZERO ISZERO MUL OR SWAP1 SSTORE POP JUMP JUMPDEST PUSH1 0x0 DUP1 SLOAD SWAP1 PUSH2 0x100 EXP SWAP1 DIV PUSH20 0xFFFFFFFFFFFFFFFFFFFFFFFFFFFFFFFFFFFFFFFF AND PUSH20 0xFFFFFFFFFFFFFFFFFFFFFFFFFFFFFFFFFFFFFFFF AND CALLER PUSH20 0xFFFFFFFFFFFFFFFFFFFFFFFFFFFFFFFFFFFFFFFF AND SUB PUSH2 0x10C2 JUMPI PUSH1 0x40 MLOAD PUSH32 0x8C379A000000000000000000000000000000000000000000000000000000000 DUP2 MSTORE PUSH1 0x4 ADD PUSH2 0x10B9 SWAP1 PUSH2 0x24FC JUMP JUMPDEST PUSH1 0x40 MLOAD DUP1 SWAP2 SUB SWAP1 REVERT JUMPDEST PUSH1 0x1 ISZERO ISZERO PUSH2 0x10CF CALLER PUSH2 0x145A JUMP JUMPDEST ISZERO ISZERO EQ PUSH2 0x1111 JUMPI PUSH1 0x40 MLOAD PUSH32 0x8C379A000000000000000000000000000000000000000000000000000000000 DUP2 MSTORE PUSH1 0x4 ADD PUSH2 0x1108 SWAP1 PUSH2 0x2568 JUMP JUMPDEST PUSH1 0x40 MLOAD DUP1 SWAP2 SUB SWAP1 REVERT JUMPDEST PUSH1 0x12 DUP4 LT ISZERO PUSH2 0x1155 JUMPI PUSH1 0x40 MLOAD PUSH32 0x8C379A000000000000000000000000000000000000000000000000000000000 DUP2 MSTORE PUSH1 0x4 ADD PUSH2 0x114C SWAP1 PUSH2 0x25D4 JUMP JUMPDEST PUSH1 0x40 MLOAD DUP1 SWAP2 SUB SWAP1 REVERT JUMPDEST PUSH1 0x3 DUP1 SLOAD LT PUSH2 0x1199 JUMPI PUSH1 0x40 MLOAD PUSH32 0x8C379A000000000000000000000000000000000000000000000000000000000 DUP2 MSTORE PUSH1 0x4 ADD PUSH2 0x1190 SWAP1 PUSH2 0x2640 JUMP JUMPDEST PUSH1 0x40 MLOAD DUP1 SWAP2 SUB SWAP1 REVERT JUMPDEST PUSH1 0x40 MLOAD DUP1 PUSH1 0xE0 ADD PUSH1 0x40 MSTORE DUP1 DUP9 DUP9 DUP1 DUP1 PUSH1 0x1F ADD PUSH1 0x20 DUP1 SWAP2 DIV MUL PUSH1 0x20 ADD PUSH1 0x40 MLOAD SWAP1 DUP2 ADD PUSH1 0x40 MSTORE DUP1 SWAP4 SWAP3 SWAP2 SWAP1 DUP2 DUP2 MSTORE PUSH1 0x20 ADD DUP4 DUP4 DUP1 DUP3 DUP5 CALLDATACOPY PUSH1 0x0 DUP2 DUP5 ADD MSTORE PUSH1 0x1F NOT PUSH1 0x1F DUP3 ADD AND SWAP1 POP DUP1 DUP4 ADD SWAP3 POP POP POP POP POP POP POP DUP2 MSTORE PUSH1 0x20 ADD DUP7 DUP7 DUP1 DUP1 PUSH1 0x1F ADD PUSH1 0x20 DUP1 SWAP2 DIV MUL PUSH1 0x20 ADD PUSH1 0x40 MLOAD SWAP1 DUP2 ADD PUSH1 0x40 MSTORE DUP1 SWAP4 SWAP3 SWAP2 SWAP1 DUP2 DUP2 MSTORE PUSH1 0x20 ADD DUP4 DUP4 DUP1 DUP3 DUP5 CALLDATACOPY PUSH1 0x0 DUP2 DUP5 ADD MSTORE PUSH1 0x1F NOT PUSH1 0x1F DUP3 ADD AND SWAP1 POP DUP1 DUP4 ADD SWAP3 POP POP POP POP POP POP POP DUP2 MSTORE PUSH1 0x20 ADD DUP5 DUP2 MSTORE PUSH1 0x20 ADD DUP4 DUP4 DUP1 DUP1 PUSH1 0x1F ADD PUSH1 0x20 DUP1 SWAP2 DIV MUL PUSH1 0x20 ADD PUSH1 0x40 MLOAD SWAP1 DUP2 ADD PUSH1 0x40 MSTORE DUP1 SWAP4 SWAP3 SWAP2 SWAP1 DUP2 DUP2 MSTORE PUSH1 0x20 ADD DUP4 DUP4 DUP1 DUP3 DUP5 CALLDATACOPY PUSH1 0x0 DUP2 DUP5 ADD MSTORE PUSH1 0x1F NOT PUSH1 0x1F DUP3 ADD AND SWAP1 POP DUP1 DUP4 ADD SWAP3 POP POP POP POP POP POP POP DUP2 MSTORE PUSH1 0x20 ADD PUSH1 0x3 SLOAD DUP2 MSTORE PUSH1 0x20 ADD CALLER PUSH20 0xFFFFFFFFFFFFFFFFFFFFFFFFFFFFFFFFFFFFFFFF AND DUP2 MSTORE PUSH1 0x20 ADD PUSH1 0x0 DUP2 MSTORE POP PUSH1 0x7 PUSH1 0x0 PUSH1 0x3 SLOAD DUP2 MSTORE PUSH1 0x20 ADD SWAP1 DUP2 MSTORE PUSH1 0x20 ADD PUSH1 0x0 KECCAK256 PUSH1 0x0 DUP3 ADD MLOAD DUP2 PUSH1 0x0 ADD SWAP1 DUP2 PUSH2 0x12DB SWAP2 SWAP1 PUSH2 0x2150 JUMP JUMPDEST POP PUSH1 0x20 DUP3 ADD MLOAD DUP2 PUSH1 0x1 ADD SWAP1 DUP2 PUSH2 0x12F1 SWAP2 SWAP1 PUSH2 0x2150 JUMP JUMPDEST POP PUSH1 0x40 DUP3 ADD MLOAD DUP2 PUSH1 0x2 ADD SSTORE PUSH1 0x60 DUP3 ADD MLOAD DUP2 PUSH1 0x3 ADD SWAP1 DUP2 PUSH2 0x1311 SWAP2 SWAP1 PUSH2 0x2150 JUMP JUMPDEST POP PUSH1 0x80 DUP3 ADD MLOAD DUP2 PUSH1 0x4 ADD SSTORE PUSH1 0xA0 DUP3 ADD MLOAD DUP2 PUSH1 0x5 ADD PUSH1 0x0 PUSH2 0x100 EXP DUP2 SLOAD DUP2 PUSH20 0xFFFFFFFFFFFFFFFFFFFFFFFFFFFFFFFFFFFFFFFF MUL NOT AND SWAP1 DUP4 PUSH20 0xFFFFFFFFFFFFFFFFFFFFFFFFFFFFFFFFFFFFFFFF AND MUL OR SWAP1 SSTORE POP PUSH1 0xC0 DUP3 ADD MLOAD DUP2 PUSH1 0x6 ADD SSTORE SWAP1 POP POP PUSH1 0x3 PUSH1 0x0 DUP2 SLOAD DUP1 SWAP3 SWAP2 SWAP1 PUSH2 0x1383 SWAP1 PUSH2 0x1D78 JUMP JUMPDEST SWAP2 SWAP1 POP SSTORE POP POP POP POP POP POP POP POP JUMP JUMPDEST PUSH1 0x1 PUSH1 0x0 SWAP1 SLOAD SWAP1 PUSH2 0x100 EXP SWAP1 DIV PUSH20 0xFFFFFFFFFFFFFFFFFFFFFFFFFFFFFFFFFFFFFFFF AND DUP2 JUMP JUMPDEST PUSH1 0x0 DUP1 PUSH1 0x1 SWAP1 POP JUMPDEST PUSH1 0x2 SLOAD DUP2 LT ISZERO PUSH2 0x144F JUMPI DUP3 PUSH20 0xFFFFFFFFFFFFFFFFFFFFFFFFFFFFFFFFFFFFFFFF AND PUSH1 0x6 PUSH1 0x0 DUP4 DUP2 MSTORE PUSH1 0x20 ADD SWAP1 DUP2 MSTORE PUSH1 0x20 ADD PUSH1 0x0 KECCAK256 PUSH1 0x5 ADD PUSH1 0x0 SWAP1 SLOAD SWAP1 PUSH2 0x100 EXP SWAP1 DIV PUSH20 0xFFFFFFFFFFFFFFFFFFFFFFFFFFFFFFFFFFFFFFFF AND PUSH20 0xFFFFFFFFFFFFFFFFFFFFFFFFFFFFFFFFFFFFFFFF AND SUB PUSH2 0x143C JUMPI PUSH1 0x0 SWAP2 POP POP PUSH2 0x1455 JUMP JUMPDEST DUP1 DUP1 PUSH2 0x1447 SWAP1 PUSH2 0x1D78 JUMP JUMPDEST SWAP2 POP POP PUSH2 0x13BF JUMP JUMPDEST POP PUSH1 0x1 SWAP1 POP JUMPDEST SWAP2 SWAP1 POP JUMP JUMPDEST PUSH1 0x0 DUP1 PUSH1 0x1 SWAP1 POP JUMPDEST PUSH1 0x3 SLOAD DUP2 LT ISZERO PUSH2 0x14F2 JUMPI DUP3 PUSH20 0xFFFFFFFFFFFFFFFFFFFFFFFFFFFFFFFFFFFFFFFF AND PUSH1 0x7 PUSH1 0x0 DUP4 DUP2 MSTORE PUSH1 0x20 ADD SWAP1 DUP2 MSTORE PUSH1 0x20 ADD PUSH1 0x0 KECCAK256 PUSH1 0x5 ADD PUSH1 0x0 SWAP1 SLOAD SWAP1 PUSH2 0x100 EXP SWAP1 DIV PUSH20 0xFFFFFFFFFFFFFFFFFFFFFFFFFFFFFFFFFFFFFFFF AND PUSH20 0xFFFFFFFFFFFFFFFFFFFFFFFFFFFFFFFFFFFFFFFF AND SUB PUSH2 0x14DF JUMPI PUSH1 0x0 SWAP2 POP POP PUSH2 0x14F8 JUMP JUMPDEST DUP1 DUP1 PUSH2 0x14EA SWAP1 PUSH2 0x1D78 JUMP JUMPDEST SWAP2 POP POP PUSH2 0x1462 JUMP JUMPDEST POP PUSH1 0x1 SWAP1 POP JUMPDEST SWAP2 SWAP1 POP JUMP JUMPDEST PUSH1 0x40 MLOAD DUP1 PUSH1 0xC0 ADD PUSH1 0x40 MSTORE DUP1 PUSH1 0x60 DUP2 MSTORE PUSH1 0x20 ADD PUSH1 0x0 DUP2 MSTORE PUSH1 0x20 ADD PUSH1 0x0 DUP2 MSTORE PUSH1 0x20 ADD PUSH1 0x60 DUP2 MSTORE PUSH1 0x20 ADD PUSH1 0x0 DUP2 MSTORE PUSH1 0x20 ADD PUSH1 0x0 PUSH20 0xFFFFFFFFFFFFFFFFFFFFFFFFFFFFFFFFFFFFFFFF AND DUP2 MSTORE POP SWAP1 JUMP JUMPDEST PUSH1 0x40 MLOAD DUP1 PUSH1 0xE0 ADD PUSH1 0x40 MSTORE DUP1 PUSH1 0x60 DUP2 MSTORE PUSH1 0x20 ADD PUSH1 0x60 DUP2 MSTORE PUSH1 0x20 ADD PUSH1 0x0 DUP2 MSTORE PUSH1 0x20 ADD PUSH1 0x60 DUP2 MSTORE PUSH1 0x20 ADD PUSH1 0x0 DUP2 MSTORE PUSH1 0x20 ADD PUSH1 0x0 PUSH20 0xFFFFFFFFFFFFFFFFFFFFFFFFFFFFFFFFFFFFFFFF AND DUP2 MSTORE PUSH1 0x20 ADD PUSH1 0x0 DUP2 MSTORE POP SWAP1 JUMP JUMPDEST PUSH1 0x0 DUP2 MLOAD SWAP1 POP SWAP2 SWAP1 POP JUMP JUMPDEST PUSH1 0x0 DUP3 DUP3 MSTORE PUSH1 0x20 DUP3 ADD SWAP1 POP SWAP3 SWAP2 POP POP JUMP JUMPDEST PUSH1 0x0 DUP2 SWAP1 POP PUSH1 0x20 DUP3 ADD SWAP1 POP SWAP2 SWAP1 POP JUMP JUMPDEST PUSH1 0x0 DUP2 MLOAD SWAP1 POP SWAP2 SWAP1 POP JUMP JUMPDEST PUSH1 0x0 DUP3 DUP3 MSTORE PUSH1 0x20 DUP3 ADD SWAP1 POP SWAP3 SWAP2 POP POP JUMP JUMPDEST PUSH1 0x0 JUMPDEST DUP4 DUP2 LT ISZERO PUSH2 0x1602 JUMPI DUP1 DUP3 ADD MLOAD DUP2 DUP5 ADD MSTORE PUSH1 0x20 DUP2 ADD SWAP1 POP PUSH2 0x15E7 JUMP JUMPDEST PUSH1 0x0 DUP5 DUP5 ADD MSTORE POP POP POP POP JUMP JUMPDEST PUSH1 0x0 PUSH1 0x1F NOT PUSH1 0x1F DUP4 ADD AND SWAP1 POP SWAP2 SWAP1 POP JUMP JUMPDEST PUSH1 0x0 PUSH2 0x162A DUP3 PUSH2 0x15C8 JUMP JUMPDEST PUSH2 0x1634 DUP2 DUP6 PUSH2 0x15D3 JUMP JUMPDEST SWAP4 POP PUSH2 0x1644 DUP2 DUP6 PUSH1 0x20 DUP7 ADD PUSH2 0x15E4 JUMP JUMPDEST PUSH2 0x164D DUP2 PUSH2 0x160E JUMP JUMPDEST DUP5 ADD SWAP2 POP POP SWAP3 SWAP2 POP POP JUMP JUMPDEST PUSH1 0x0 DUP2 SWAP1 POP SWAP2 SWAP1 POP JUMP JUMPDEST PUSH2 0x166B DUP2 PUSH2 0x1658 JUMP JUMPDEST DUP3 MSTORE POP POP JUMP JUMPDEST PUSH1 0x0 PUSH20 0xFFFFFFFFFFFFFFFFFFFFFFFFFFFFFFFFFFFFFFFF DUP3 AND SWAP1 POP SWAP2 SWAP1 POP JUMP JUMPDEST PUSH1 0x0 PUSH2 0x169C DUP3 PUSH2 0x1671 JUMP JUMPDEST SWAP1 POP SWAP2 SWAP1 POP JUMP JUMPDEST PUSH2 0x16AC DUP2 PUSH2 0x1691 JUMP JUMPDEST DUP3 MSTORE POP POP JUMP JUMPDEST PUSH1 0x0 PUSH1 0xC0 DUP4 ADD PUSH1 0x0 DUP4 ADD MLOAD DUP5 DUP3 SUB PUSH1 0x0 DUP7 ADD MSTORE PUSH2 0x16CF DUP3 DUP3 PUSH2 0x161F JUMP JUMPDEST SWAP2 POP POP PUSH1 0x20 DUP4 ADD MLOAD PUSH2 0x16E4 PUSH1 0x20 DUP7 ADD DUP3 PUSH2 0x1662 JUMP JUMPDEST POP PUSH1 0x40 DUP4 ADD MLOAD PUSH2 0x16F7 PUSH1 0x40 DUP7 ADD DUP3 PUSH2 0x1662 JUMP JUMPDEST POP PUSH1 0x60 DUP4 ADD MLOAD DUP5 DUP3 SUB PUSH1 0x60 DUP7 ADD MSTORE PUSH2 0x170F DUP3 DUP3 PUSH2 0x161F JUMP JUMPDEST SWAP2 POP POP PUSH1 0x80 DUP4 ADD MLOAD PUSH2 0x1724 PUSH1 0x80 DUP7 ADD DUP3 PUSH2 0x1662 JUMP JUMPDEST POP PUSH1 0xA0 DUP4 ADD MLOAD PUSH2 0x1737 PUSH1 0xA0 DUP7 ADD DUP3 PUSH2 0x16A3 JUMP JUMPDEST POP DUP1 SWAP2 POP POP SWAP3 SWAP2 POP POP JUMP JUMPDEST PUSH1 0x0 PUSH2 0x174E DUP4 DUP4 PUSH2 0x16B2 JUMP JUMPDEST SWAP1 POP SWAP3 SWAP2 POP POP JUMP JUMPDEST PUSH1 0x0 PUSH1 0x20 DUP3 ADD SWAP1 POP SWAP2 SWAP1 POP JUMP JUMPDEST PUSH1 0x0 PUSH2 0x176E DUP3 PUSH2 0x159C JUMP JUMPDEST PUSH2 0x1778 DUP2 DUP6 PUSH2 0x15A7 JUMP JUMPDEST SWAP4 POP DUP4 PUSH1 0x20 DUP3 MUL DUP6 ADD PUSH2 0x178A DUP6 PUSH2 0x15B8 JUMP JUMPDEST DUP1 PUSH1 0x0 JUMPDEST DUP6 DUP2 LT ISZERO PUSH2 0x17C6 JUMPI DUP5 DUP5 SUB DUP10 MSTORE DUP2 MLOAD PUSH2 0x17A7 DUP6 DUP3 PUSH2 0x1742 JUMP JUMPDEST SWAP5 POP PUSH2 0x17B2 DUP4 PUSH2 0x1756 JUMP JUMPDEST SWAP3 POP PUSH1 0x20 DUP11 ADD SWAP10 POP POP PUSH1 0x1 DUP2 ADD SWAP1 POP PUSH2 0x178E JUMP JUMPDEST POP DUP3 SWAP8 POP DUP8 SWAP6 POP POP POP POP POP POP SWAP3 SWAP2 POP POP JUMP JUMPDEST PUSH1 0x0 PUSH1 0x20 DUP3 ADD SWAP1 POP DUP2 DUP2 SUB PUSH1 0x0 DUP4 ADD MSTORE PUSH2 0x17F2 DUP2 DUP5 PUSH2 0x1763 JUMP JUMPDEST SWAP1 POP SWAP3 SWAP2 POP POP JUMP JUMPDEST PUSH1 0x0 DUP1 REVERT JUMPDEST PUSH1 0x0 DUP1 REVERT JUMPDEST PUSH2 0x180D DUP2 PUSH2 0x1658 JUMP JUMPDEST DUP2 EQ PUSH2 0x1818 JUMPI PUSH1 0x0 DUP1 REVERT JUMPDEST POP JUMP JUMPDEST PUSH1 0x0 DUP2 CALLDATALOAD SWAP1 POP PUSH2 0x182A DUP2 PUSH2 0x1804 JUMP JUMPDEST SWAP3 SWAP2 POP POP JUMP JUMPDEST PUSH1 0x0 DUP1 PUSH1 0x40 DUP4 DUP6 SUB SLT ISZERO PUSH2 0x1847 JUMPI PUSH2 0x1846 PUSH2 0x17FA JUMP JUMPDEST JUMPDEST PUSH1 0x0 PUSH2 0x1855 DUP6 DUP3 DUP7 ADD PUSH2 0x181B JUMP JUMPDEST SWAP3 POP POP PUSH1 0x20 PUSH2 0x1866 DUP6 DUP3 DUP7 ADD PUSH2 0x181B JUMP JUMPDEST SWAP2 POP POP SWAP3 POP SWAP3 SWAP1 POP JUMP JUMPDEST PUSH1 0x0 DUP2 MLOAD SWAP1 POP SWAP2 SWAP1 POP JUMP JUMPDEST PUSH1 0x0 DUP3 DUP3 MSTORE PUSH1 0x20 DUP3 ADD SWAP1 POP SWAP3 SWAP2 POP POP JUMP JUMPDEST PUSH1 0x0 DUP2 SWAP1 POP PUSH1 0x20 DUP3 ADD SWAP1 POP SWAP2 SWAP1 POP JUMP JUMPDEST PUSH1 0x0 PUSH1 0xE0 DUP4 ADD PUSH1 0x0 DUP4 ADD MLOAD DUP5 DUP3 SUB PUSH1 0x0 DUP7 ADD MSTORE PUSH2 0x18B9 DUP3 DUP3 PUSH2 0x161F JUMP JUMPDEST SWAP2 POP POP PUSH1 0x20 DUP4 ADD MLOAD DUP5 DUP3 SUB PUSH1 0x20 DUP7 ADD MSTORE PUSH2 0x18D3 DUP3 DUP3 PUSH2 0x161F JUMP JUMPDEST SWAP2 POP POP PUSH1 0x40 DUP4 ADD MLOAD PUSH2 0x18E8 PUSH1 0x40 DUP7 ADD DUP3 PUSH2 0x1662 JUMP JUMPDEST POP PUSH1 0x60 DUP4 ADD MLOAD DUP5 DUP3 SUB PUSH1 0x60 DUP7 ADD MSTORE PUSH2 0x1900 DUP3 DUP3 PUSH2 0x161F JUMP JUMPDEST SWAP2 POP POP PUSH1 0x80 DUP4 ADD MLOAD PUSH2 0x1915 PUSH1 0x80 DUP7 ADD DUP3 PUSH2 0x1662 JUMP JUMPDEST POP PUSH1 0xA0 DUP4 ADD MLOAD PUSH2 0x1928 PUSH1 0xA0 DUP7 ADD DUP3 PUSH2 0x16A3 JUMP JUMPDEST POP PUSH1 0xC0 DUP4 ADD MLOAD PUSH2 0x193B PUSH1 0xC0 DUP7 ADD DUP3 PUSH2 0x1662 JUMP JUMPDEST POP DUP1 SWAP2 POP POP SWAP3 SWAP2 POP POP JUMP JUMPDEST PUSH1 0x0 PUSH2 0x1952 DUP4 DUP4 PUSH2 0x189C JUMP JUMPDEST SWAP1 POP SWAP3 SWAP2 POP POP JUMP JUMPDEST PUSH1 0x0 PUSH1 0x20 DUP3 ADD SWAP1 POP SWAP2 SWAP1 POP JUMP JUMPDEST PUSH1 0x0 PUSH2 0x1972 DUP3 PUSH2 0x1870 JUMP JUMPDEST PUSH2 0x197C DUP2 DUP6 PUSH2 0x187B JUMP JUMPDEST SWAP4 POP DUP4 PUSH1 0x20 DUP3 MUL DUP6 ADD PUSH2 0x198E DUP6 PUSH2 0x188C JUMP JUMPDEST DUP1 PUSH1 0x0 JUMPDEST DUP6 DUP2 LT ISZERO PUSH2 0x19CA JUMPI DUP5 DUP5 SUB DUP10 MSTORE DUP2 MLOAD PUSH2 0x19AB DUP6 DUP3 PUSH2 0x1946 JUMP JUMPDEST SWAP5 POP PUSH2 0x19B6 DUP4 PUSH2 0x195A JUMP JUMPDEST SWAP3 POP PUSH1 0x20 DUP11 ADD SWAP10 POP POP PUSH1 0x1 DUP2 ADD SWAP1 POP PUSH2 0x1992 JUMP JUMPDEST POP DUP3 SWAP8 POP DUP8 SWAP6 POP POP POP POP POP POP SWAP3 SWAP2 POP POP JUMP JUMPDEST PUSH1 0x0 PUSH1 0x20 DUP3 ADD SWAP1 POP DUP2 DUP2 SUB PUSH1 0x0 DUP4 ADD MSTORE PUSH2 0x19F6 DUP2 DUP5 PUSH2 0x1967 JUMP JUMPDEST SWAP1 POP SWAP3 SWAP2 POP POP JUMP JUMPDEST PUSH1 0x0 DUP3 DUP3 MSTORE PUSH1 0x20 DUP3 ADD SWAP1 POP SWAP3 SWAP2 POP POP JUMP JUMPDEST PUSH1 0x0 PUSH2 0x1A1A DUP3 PUSH2 0x15C8 JUMP JUMPDEST PUSH2 0x1A24 DUP2 DUP6 PUSH2 0x19FE JUMP JUMPDEST SWAP4 POP PUSH2 0x1A34 DUP2 DUP6 PUSH1 0x20 DUP7 ADD PUSH2 0x15E4 JUMP JUMPDEST PUSH2 0x1A3D DUP2 PUSH2 0x160E JUMP JUMPDEST DUP5 ADD SWAP2 POP POP SWAP3 SWAP2 POP POP JUMP JUMPDEST PUSH1 0x0 PUSH1 0x20 DUP3 ADD SWAP1 POP DUP2 DUP2 SUB PUSH1 0x0 DUP4 ADD MSTORE PUSH2 0x1A62 DUP2 DUP5 PUSH2 0x1A0F JUMP JUMPDEST SWAP1 POP SWAP3 SWAP2 POP POP JUMP JUMPDEST PUSH1 0x0 DUP1 REVERT JUMPDEST PUSH1 0x0 DUP1 REVERT JUMPDEST PUSH1 0x0 DUP1 REVERT JUMPDEST PUSH1 0x0 DUP1 DUP4 PUSH1 0x1F DUP5 ADD SLT PUSH2 0x1A8F JUMPI PUSH2 0x1A8E PUSH2 0x1A6A JUMP JUMPDEST JUMPDEST DUP3 CALLDATALOAD SWAP1 POP PUSH8 0xFFFFFFFFFFFFFFFF DUP2 GT ISZERO PUSH2 0x1AAC JUMPI PUSH2 0x1AAB PUSH2 0x1A6F JUMP JUMPDEST JUMPDEST PUSH1 0x20 DUP4 ADD SWAP2 POP DUP4 PUSH1 0x1 DUP3 MUL DUP4 ADD GT ISZERO PUSH2 0x1AC8 JUMPI PUSH2 0x1AC7 PUSH2 0x1A74 JUMP JUMPDEST JUMPDEST SWAP3 POP SWAP3 SWAP1 POP JUMP JUMPDEST PUSH1 0x0 DUP1 PUSH1 0x0 DUP1 PUSH1 0x0 PUSH1 0x60 DUP7 DUP9 SUB SLT ISZERO PUSH2 0x1AEB JUMPI PUSH2 0x1AEA PUSH2 0x17FA JUMP JUMPDEST JUMPDEST PUSH1 0x0 DUP7 ADD CALLDATALOAD PUSH8 0xFFFFFFFFFFFFFFFF DUP2 GT ISZERO PUSH2 0x1B09 JUMPI PUSH2 0x1B08 PUSH2 0x17FF JUMP JUMPDEST JUMPDEST PUSH2 0x1B15 DUP9 DUP3 DUP10 ADD PUSH2 0x1A79 JUMP JUMPDEST SWAP6 POP SWAP6 POP POP PUSH1 0x20 PUSH2 0x1B28 DUP9 DUP3 DUP10 ADD PUSH2 0x181B JUMP JUMPDEST SWAP4 POP POP PUSH1 0x40 DUP7 ADD CALLDATALOAD PUSH8 0xFFFFFFFFFFFFFFFF DUP2 GT ISZERO PUSH2 0x1B49 JUMPI PUSH2 0x1B48 PUSH2 0x17FF JUMP JUMPDEST JUMPDEST PUSH2 0x1B55 DUP9 DUP3 DUP10 ADD PUSH2 0x1A79 JUMP JUMPDEST SWAP3 POP SWAP3 POP POP SWAP3 SWAP6 POP SWAP3 SWAP6 SWAP1 SWAP4 POP JUMP JUMPDEST PUSH1 0x0 DUP1 PUSH1 0x0 DUP1 PUSH1 0x0 DUP1 PUSH1 0x0 PUSH1 0x80 DUP9 DUP11 SUB SLT ISZERO PUSH2 0x1B83 JUMPI PUSH2 0x1B82 PUSH2 0x17FA JUMP JUMPDEST JUMPDEST PUSH1 0x0 DUP9 ADD CALLDATALOAD PUSH8 0xFFFFFFFFFFFFFFFF DUP2 GT ISZERO PUSH2 0x1BA1 JUMPI PUSH2 0x1BA0 PUSH2 0x17FF JUMP JUMPDEST JUMPDEST PUSH2 0x1BAD DUP11 DUP3 DUP12 ADD PUSH2 0x1A79 JUMP JUMPDEST SWAP8 POP SWAP8 POP POP PUSH1 0x20 DUP9 ADD CALLDATALOAD PUSH8 0xFFFFFFFFFFFFFFFF DUP2 GT ISZERO PUSH2 0x1BD0 JUMPI PUSH2 0x1BCF PUSH2 0x17FF JUMP JUMPDEST JUMPDEST PUSH2 0x1BDC DUP11 DUP3 DUP12 ADD PUSH2 0x1A79 JUMP JUMPDEST SWAP6 POP SWAP6 POP POP PUSH1 0x40 PUSH2 0x1BEF DUP11 DUP3 DUP12 ADD PUSH2 0x181B JUMP JUMPDEST SWAP4 POP POP PUSH1 0x60 DUP9 ADD CALLDATALOAD PUSH8 0xFFFFFFFFFFFFFFFF DUP2 GT ISZERO PUSH2 0x1C10 JUMPI PUSH2 0x1C0F PUSH2 0x17FF JUMP JUMPDEST JUMPDEST PUSH2 0x1C1C DUP11 DUP3 DUP12 ADD PUSH2 0x1A79 JUMP JUMPDEST SWAP3 POP SWAP3 POP POP SWAP3 SWAP6 SWAP9 SWAP2 SWAP5 SWAP8 POP SWAP3 SWAP6 POP JUMP JUMPDEST PUSH2 0x1C36 DUP2 PUSH2 0x1691 JUMP JUMPDEST DUP3 MSTORE POP POP JUMP JUMPDEST PUSH1 0x0 PUSH1 0x20 DUP3 ADD SWAP1 POP PUSH2 0x1C51 PUSH1 0x0 DUP4 ADD DUP5 PUSH2 0x1C2D JUMP JUMPDEST SWAP3 SWAP2 POP POP JUMP JUMPDEST PUSH32 0x4E487B7100000000000000000000000000000000000000000000000000000000 PUSH1 0x0 MSTORE PUSH1 0x41 PUSH1 0x4 MSTORE PUSH1 0x24 PUSH1 0x0 REVERT JUMPDEST PUSH32 0x4E487B7100000000000000000000000000000000000000000000000000000000 PUSH1 0x0 MSTORE PUSH1 0x22 PUSH1 0x4 MSTORE PUSH1 0x24 PUSH1 0x0 REVERT JUMPDEST PUSH1 0x0 PUSH1 0x2 DUP3 DIV SWAP1 POP PUSH1 0x1 DUP3 AND DUP1 PUSH2 0x1CCD JUMPI PUSH1 0x7F DUP3 AND SWAP2 POP JUMPDEST PUSH1 0x20 DUP3 LT DUP2 SUB PUSH2 0x1CE0 JUMPI PUSH2 0x1CDF PUSH2 0x1C86 JUMP JUMPDEST JUMPDEST POP SWAP2 SWAP1 POP JUMP JUMPDEST PUSH32 0x4E487B7100000000000000000000000000000000000000000000000000000000 PUSH1 0x0 MSTORE PUSH1 0x11 PUSH1 0x4 MSTORE PUSH1 0x24 PUSH1 0x0 REVERT JUMPDEST PUSH1 0x0 PUSH2 0x1D20 DUP3 PUSH2 0x1658 JUMP JUMPDEST SWAP2 POP PUSH2 0x1D2B DUP4 PUSH2 0x1658 JUMP JUMPDEST SWAP3 POP DUP3 DUP3 SUB SWAP1 POP DUP2 DUP2 GT ISZERO PUSH2 0x1D43 JUMPI PUSH2 0x1D42 PUSH2 0x1CE6 JUMP JUMPDEST JUMPDEST SWAP3 SWAP2 POP POP JUMP JUMPDEST PUSH32 0x4E487B7100000000000000000000000000000000000000000000000000000000 PUSH1 0x0 MSTORE PUSH1 0x32 PUSH1 0x4 MSTORE PUSH1 0x24 PUSH1 0x0 REVERT JUMPDEST PUSH1 0x0 PUSH2 0x1D83 DUP3 PUSH2 0x1658 JUMP JUMPDEST SWAP2 POP PUSH32 0xFFFFFFFFFFFFFFFFFFFFFFFFFFFFFFFFFFFFFFFFFFFFFFFFFFFFFFFFFFFFFFFF DUP3 SUB PUSH2 0x1DB5 JUMPI PUSH2 0x1DB4 PUSH2 0x1CE6 JUMP JUMPDEST JUMPDEST PUSH1 0x1 DUP3 ADD SWAP1 POP SWAP2 SWAP1 POP JUMP JUMPDEST PUSH32 0x4E6F742066726F6D20656C656374696F6E20436F6D6D6973696F6E0000000000 PUSH1 0x0 DUP3 ADD MSTORE POP JUMP JUMPDEST PUSH1 0x0 PUSH2 0x1DF6 PUSH1 0x1B DUP4 PUSH2 0x19FE JUMP JUMPDEST SWAP2 POP PUSH2 0x1E01 DUP3 PUSH2 0x1DC0 JUMP JUMPDEST PUSH1 0x20 DUP3 ADD SWAP1 POP SWAP2 SWAP1 POP JUMP JUMPDEST PUSH1 0x0 PUSH1 0x20 DUP3 ADD SWAP1 POP DUP2 DUP2 SUB PUSH1 0x0 DUP4 ADD MSTORE PUSH2 0x1E25 DUP2 PUSH2 0x1DE9 JUMP JUMPDEST SWAP1 POP SWAP2 SWAP1 POP JUMP JUMPDEST PUSH1 0x0 PUSH2 0x1E37 DUP3 PUSH2 0x1658 JUMP JUMPDEST SWAP2 POP PUSH2 0x1E42 DUP4 PUSH2 0x1658 JUMP JUMPDEST SWAP3 POP DUP3 DUP3 ADD SWAP1 POP DUP1 DUP3 GT ISZERO PUSH2 0x1E5A JUMPI PUSH2 0x1E59 PUSH2 0x1CE6 JUMP JUMPDEST JUMPDEST SWAP3 SWAP2 POP POP JUMP JUMPDEST PUSH32 0x766F74696E67206973206F766572000000000000000000000000000000000000 PUSH1 0x0 DUP3 ADD MSTORE POP JUMP JUMPDEST PUSH1 0x0 PUSH2 0x1E96 PUSH1 0xE DUP4 PUSH2 0x19FE JUMP JUMPDEST SWAP2 POP PUSH2 0x1EA1 DUP3 PUSH2 0x1E60 JUMP JUMPDEST PUSH1 0x20 DUP3 ADD SWAP1 POP SWAP2 SWAP1 POP JUMP JUMPDEST PUSH1 0x0 PUSH1 0x20 DUP3 ADD SWAP1 POP DUP2 DUP2 SUB PUSH1 0x0 DUP4 ADD MSTORE PUSH2 0x1EC5 DUP2 PUSH2 0x1E89 JUMP JUMPDEST SWAP1 POP SWAP2 SWAP1 POP JUMP JUMPDEST PUSH32 0x796F7520617265206E6F7420656C656769626C6520666F7220766F74696E6700 PUSH1 0x0 DUP3 ADD MSTORE POP JUMP JUMPDEST PUSH1 0x0 PUSH2 0x1F02 PUSH1 0x1F DUP4 PUSH2 0x19FE JUMP JUMPDEST SWAP2 POP PUSH2 0x1F0D DUP3 PUSH2 0x1ECC JUMP JUMPDEST PUSH1 0x20 DUP3 ADD SWAP1 POP SWAP2 SWAP1 POP JUMP JUMPDEST PUSH1 0x0 PUSH1 0x20 DUP3 ADD SWAP1 POP DUP2 DUP2 SUB PUSH1 0x0 DUP4 ADD MSTORE PUSH2 0x1F31 DUP2 PUSH2 0x1EF5 JUMP JUMPDEST SWAP1 POP SWAP2 SWAP1 POP JUMP JUMPDEST PUSH32 0x766F74657220616C726561647920726567697374657200000000000000000000 PUSH1 0x0 DUP3 ADD MSTORE POP JUMP JUMPDEST PUSH1 0x0 PUSH2 0x1F6E PUSH1 0x16 DUP4 PUSH2 0x19FE JUMP JUMPDEST SWAP2 POP PUSH2 0x1F79 DUP3 PUSH2 0x1F38 JUMP JUMPDEST PUSH1 0x20 DUP3 ADD SWAP1 POP SWAP2 SWAP1 POP JUMP JUMPDEST PUSH1 0x0 PUSH1 0x20 DUP3 ADD SWAP1 POP DUP2 DUP2 SUB PUSH1 0x0 DUP4 ADD MSTORE PUSH2 0x1F9D DUP2 PUSH2 0x1F61 JUMP JUMPDEST SWAP1 POP SWAP2 SWAP1 POP JUMP JUMPDEST PUSH1 0x0 DUP2 SWAP1 POP DUP2 PUSH1 0x0 MSTORE PUSH1 0x20 PUSH1 0x0 KECCAK256 SWAP1 POP SWAP2 SWAP1 POP JUMP JUMPDEST PUSH1 0x0 PUSH1 0x20 PUSH1 0x1F DUP4 ADD DIV SWAP1 POP SWAP2 SWAP1 POP JUMP JUMPDEST PUSH1 0x0 DUP3 DUP3 SHL SWAP1 POP SWAP3 SWAP2 POP POP JUMP JUMPDEST PUSH1 0x0 PUSH1 0x8 DUP4 MUL PUSH2 0x2006 PUSH32 0xFFFFFFFFFFFFFFFFFFFFFFFFFFFFFFFFFFFFFFFFFFFFFFFFFFFFFFFFFFFFFFFF DUP3 PUSH2 0x1FC9 JUMP JUMPDEST PUSH2 0x2010 DUP7 DUP4 PUSH2 0x1FC9 JUMP JUMPDEST SWAP6 POP DUP1 NOT DUP5 AND SWAP4 POP DUP1 DUP7 AND DUP5 OR SWAP3 POP POP POP SWAP4 SWAP3 POP POP POP JUMP JUMPDEST PUSH1 0x0 DUP2 SWAP1 POP SWAP2 SWAP1 POP JUMP JUMPDEST PUSH1 0x0 PUSH2 0x204D PUSH2 0x2048 PUSH2 0x2043 DUP5 PUSH2 0x1658 JUMP JUMPDEST PUSH2 0x2028 JUMP JUMPDEST PUSH2 0x1658 JUMP JUMPDEST SWAP1 POP SWAP2 SWAP1 POP JUMP JUMPDEST PUSH1 0x0 DUP2 SWAP1 POP SWAP2 SWAP1 POP JUMP JUMPDEST PUSH2 0x2067 DUP4 PUSH2 0x2032 JUMP JUMPDEST PUSH2 0x207B PUSH2 0x2073 DUP3 PUSH2 0x2054 JUMP JUMPDEST DUP5 DUP5 SLOAD PUSH2 0x1FD6 JUMP JUMPDEST DUP3 SSTORE POP POP POP POP JUMP JUMPDEST PUSH1 0x0 SWAP1 JUMP JUMPDEST PUSH2 0x2090 PUSH2 0x2083 JUMP JUMPDEST PUSH2 0x209B DUP2 DUP5 DUP5 PUSH2 0x205E JUMP JUMPDEST POP POP POP JUMP JUMPDEST JUMPDEST DUP2 DUP2 LT ISZERO PUSH2 0x20BF JUMPI PUSH2 0x20B4 PUSH1 0x0 DUP3 PUSH2 0x2088 JUMP JUMPDEST PUSH1 0x1 DUP2 ADD SWAP1 POP PUSH2 0x20A1 JUMP JUMPDEST POP POP JUMP JUMPDEST PUSH1 0x1F DUP3 GT ISZERO PUSH2 0x2104 JUMPI PUSH2 0x20D5 DUP2 PUSH2 0x1FA4 JUMP JUMPDEST PUSH2 0x20DE DUP5 PUSH2 0x1FB9 JUMP JUMPDEST DUP2 ADD PUSH1 0x20 DUP6 LT ISZERO PUSH2 0x20ED JUMPI DUP2 SWAP1 POP JUMPDEST PUSH2 0x2101 PUSH2 0x20F9 DUP6 PUSH2 0x1FB9 JUMP JUMPDEST DUP4 ADD DUP3 PUSH2 0x20A0 JUMP JUMPDEST POP POP JUMPDEST POP POP POP JUMP JUMPDEST PUSH1 0x0 DUP3 DUP3 SHR SWAP1 POP SWAP3 SWAP2 POP POP JUMP JUMPDEST PUSH1 0x0 PUSH2 0x2127 PUSH1 0x0 NOT DUP5 PUSH1 0x8 MUL PUSH2 0x2109 JUMP JUMPDEST NOT DUP1 DUP4 AND SWAP2 POP POP SWAP3 SWAP2 POP POP JUMP JUMPDEST PUSH1 0x0 PUSH2 0x2140 DUP4 DUP4 PUSH2 0x2116 JUMP JUMPDEST SWAP2 POP DUP3 PUSH1 0x2 MUL DUP3 OR SWAP1 POP SWAP3 SWAP2 POP POP JUMP JUMPDEST PUSH2 0x2159 DUP3 PUSH2 0x15C8 JUMP JUMPDEST PUSH8 0xFFFFFFFFFFFFFFFF DUP2 GT ISZERO PUSH2 0x2172 JUMPI PUSH2 0x2171 PUSH2 0x1C57 JUMP JUMPDEST JUMPDEST PUSH2 0x217C DUP3 SLOAD PUSH2 0x1CB5 JUMP JUMPDEST PUSH2 0x2187 DUP3 DUP3 DUP6 PUSH2 0x20C3 JUMP JUMPDEST PUSH1 0x0 PUSH1 0x20 SWAP1 POP PUSH1 0x1F DUP4 GT PUSH1 0x1 DUP2 EQ PUSH2 0x21BA JUMPI PUSH1 0x0 DUP5 ISZERO PUSH2 0x21A8 JUMPI DUP3 DUP8 ADD MLOAD SWAP1 POP JUMPDEST PUSH2 0x21B2 DUP6 DUP3 PUSH2 0x2134 JUMP JUMPDEST DUP7 SSTORE POP PUSH2 0x221A JUMP JUMPDEST PUSH1 0x1F NOT DUP5 AND PUSH2 0x21C8 DUP7 PUSH2 0x1FA4 JUMP JUMPDEST PUSH1 0x0 JUMPDEST DUP3 DUP2 LT ISZERO PUSH2 0x21F0 JUMPI DUP5 DUP10 ADD MLOAD DUP3 SSTORE PUSH1 0x1 DUP3 ADD SWAP2 POP PUSH1 0x20 DUP6 ADD SWAP5 POP PUSH1 0x20 DUP2 ADD SWAP1 POP PUSH2 0x21CB JUMP JUMPDEST DUP7 DUP4 LT ISZERO PUSH2 0x220D JUMPI DUP5 DUP10 ADD MLOAD PUSH2 0x2209 PUSH1 0x1F DUP10 AND DUP3 PUSH2 0x2116 JUMP JUMPDEST DUP4 SSTORE POP JUMPDEST PUSH1 0x1 PUSH1 0x2 DUP9 MUL ADD DUP9 SSTORE POP POP POP JUMPDEST POP POP POP POP POP POP JUMP JUMPDEST PUSH32 0x616C726561647920766F74656400000000000000000000000000000000000000 PUSH1 0x0 DUP3 ADD MSTORE POP JUMP JUMPDEST PUSH1 0x0 PUSH2 0x2258 PUSH1 0xD DUP4 PUSH2 0x19FE JUMP JUMPDEST SWAP2 POP PUSH2 0x2263 DUP3 PUSH2 0x2222 JUMP JUMPDEST PUSH1 0x20 DUP3 ADD SWAP1 POP SWAP2 SWAP1 POP JUMP JUMPDEST PUSH1 0x0 PUSH1 0x20 DUP3 ADD SWAP1 POP DUP2 DUP2 SUB PUSH1 0x0 DUP4 ADD MSTORE PUSH2 0x2287 DUP2 PUSH2 0x224B JUMP JUMPDEST SWAP1 POP SWAP2 SWAP1 POP JUMP JUMPDEST PUSH32 0x636865636B20596F7520566F7465724964206F7220796F7520617265206E6F74 PUSH1 0x0 DUP3 ADD MSTORE PUSH32 0x2072656769737465726564000000000000000000000000000000000000000000 PUSH1 0x20 DUP3 ADD MSTORE POP JUMP JUMPDEST PUSH1 0x0 PUSH2 0x22EA PUSH1 0x2B DUP4 PUSH2 0x19FE JUMP JUMPDEST SWAP2 POP PUSH2 0x22F5 DUP3 PUSH2 0x228E JUMP JUMPDEST PUSH1 0x40 DUP3 ADD SWAP1 POP SWAP2 SWAP1 POP JUMP JUMPDEST PUSH1 0x0 PUSH1 0x20 DUP3 ADD SWAP1 POP DUP2 DUP2 SUB PUSH1 0x0 DUP4 ADD MSTORE PUSH2 0x2319 DUP2 PUSH2 0x22DD JUMP JUMPDEST SWAP1 POP SWAP2 SWAP1 POP JUMP JUMPDEST PUSH32 0x766F74696E67206E6F7420737461727465640000000000000000000000000000 PUSH1 0x0 DUP3 ADD MSTORE POP JUMP JUMPDEST PUSH1 0x0 PUSH2 0x2356 PUSH1 0x12 DUP4 PUSH2 0x19FE JUMP JUMPDEST SWAP2 POP PUSH2 0x2361 DUP3 PUSH2 0x2320 JUMP JUMPDEST PUSH1 0x20 DUP3 ADD SWAP1 POP SWAP2 SWAP1 POP JUMP JUMPDEST PUSH1 0x0 PUSH1 0x20 DUP3 ADD SWAP1 POP DUP2 DUP2 SUB PUSH1 0x0 DUP4 ADD MSTORE PUSH2 0x2385 DUP2 PUSH2 0x2349 JUMP JUMPDEST SWAP1 POP SWAP2 SWAP1 POP JUMP JUMPDEST PUSH32 0x63616E64696461746520726567697374726174696F6E20686173206E6F742064 PUSH1 0x0 DUP3 ADD MSTORE PUSH32 0x6F6E652079657400000000000000000000000000000000000000000000000000 PUSH1 0x20 DUP3 ADD MSTORE POP JUMP JUMPDEST PUSH1 0x0 PUSH2 0x23E8 PUSH1 0x27 DUP4 PUSH2 0x19FE JUMP JUMPDEST SWAP2 POP PUSH2 0x23F3 DUP3 PUSH2 0x238C JUMP JUMPDEST PUSH1 0x40 DUP3 ADD SWAP1 POP SWAP2 SWAP1 POP JUMP JUMPDEST PUSH1 0x0 PUSH1 0x20 DUP3 ADD SWAP1 POP DUP2 DUP2 SUB PUSH1 0x0 DUP4 ADD MSTORE PUSH2 0x2417 DUP2 PUSH2 0x23DB JUMP JUMPDEST SWAP1 POP SWAP2 SWAP1 POP JUMP JUMPDEST PUSH32 0x696E76616C69642063616E646964617465204964000000000000000000000000 PUSH1 0x0 DUP3 ADD MSTORE POP JUMP JUMPDEST PUSH1 0x0 PUSH2 0x2454 PUSH1 0x14 DUP4 PUSH2 0x19FE JUMP JUMPDEST SWAP2 POP PUSH2 0x245F DUP3 PUSH2 0x241E JUMP JUMPDEST PUSH1 0x20 DUP3 ADD SWAP1 POP SWAP2 SWAP1 POP JUMP JUMPDEST PUSH1 0x0 PUSH1 0x20 DUP3 ADD SWAP1 POP DUP2 DUP2 SUB PUSH1 0x0 DUP4 ADD MSTORE PUSH2 0x2483 DUP2 PUSH2 0x2447 JUMP JUMPDEST SWAP1 POP SWAP2 SWAP1 POP JUMP JUMPDEST PUSH32 0x596F7527726520656C656374696F6E20636F6D6D697373696F6E20616E642079 PUSH1 0x0 DUP3 ADD MSTORE PUSH32 0x6F752063616E277420626520612063616E646964617465000000000000000000 PUSH1 0x20 DUP3 ADD MSTORE POP JUMP JUMPDEST PUSH1 0x0 PUSH2 0x24E6 PUSH1 0x37 DUP4 PUSH2 0x19FE JUMP JUMPDEST SWAP2 POP PUSH2 0x24F1 DUP3 PUSH2 0x248A JUMP JUMPDEST PUSH1 0x40 DUP3 ADD SWAP1 POP SWAP2 SWAP1 POP JUMP JUMPDEST PUSH1 0x0 PUSH1 0x20 DUP3 ADD SWAP1 POP DUP2 DUP2 SUB PUSH1 0x0 DUP4 ADD MSTORE PUSH2 0x2515 DUP2 PUSH2 0x24D9 JUMP JUMPDEST SWAP1 POP SWAP2 SWAP1 POP JUMP JUMPDEST PUSH32 0x63616E64696461746520616C7265646179207265676973746572000000000000 PUSH1 0x0 DUP3 ADD MSTORE POP JUMP JUMPDEST PUSH1 0x0 PUSH2 0x2552 PUSH1 0x1A DUP4 PUSH2 0x19FE JUMP JUMPDEST SWAP2 POP PUSH2 0x255D DUP3 PUSH2 0x251C JUMP JUMPDEST PUSH1 0x20 DUP3 ADD SWAP1 POP SWAP2 SWAP1 POP JUMP JUMPDEST PUSH1 0x0 PUSH1 0x20 DUP3 ADD SWAP1 POP DUP2 DUP2 SUB PUSH1 0x0 DUP4 ADD MSTORE PUSH2 0x2581 DUP2 PUSH2 0x2545 JUMP JUMPDEST SWAP1 POP SWAP2 SWAP1 POP JUMP JUMPDEST PUSH32 0x796F7520617265206E6F7420656C696769626C65000000000000000000000000 PUSH1 0x0 DUP3 ADD MSTORE POP JUMP JUMPDEST PUSH1 0x0 PUSH2 0x25BE PUSH1 0x14 DUP4 PUSH2 0x19FE JUMP JUMPDEST SWAP2 POP PUSH2 0x25C9 DUP3 PUSH2 0x2588 JUMP JUMPDEST PUSH1 0x20 DUP3 ADD SWAP1 POP SWAP2 SWAP1 POP JUMP JUMPDEST PUSH1 0x0 PUSH1 0x20 DUP3 ADD SWAP1 POP DUP2 DUP2 SUB PUSH1 0x0 DUP4 ADD MSTORE PUSH2 0x25ED DUP2 PUSH2 0x25B1 JUMP JUMPDEST SWAP1 POP SWAP2 SWAP1 POP JUMP JUMPDEST PUSH32 0x63616E64696461746520726567697374726174696F6E2066756C6C0000000000 PUSH1 0x0 DUP3 ADD MSTORE POP JUMP JUMPDEST PUSH1 0x0 PUSH2 0x262A PUSH1 0x1B DUP4 PUSH2 0x19FE JUMP JUMPDEST SWAP2 POP PUSH2 0x2635 DUP3 PUSH2 0x25F4 JUMP JUMPDEST PUSH1 0x20 DUP3 ADD SWAP1 POP SWAP2 SWAP1 POP JUMP JUMPDEST PUSH1 0x0 PUSH1 0x20 DUP3 ADD SWAP1 POP DUP2 DUP2 SUB PUSH1 0x0 DUP4 ADD MSTORE PUSH2 0x2659 DUP2 PUSH2 0x261D JUMP JUMPDEST SWAP1 POP SWAP2 SWAP1 POP JUMP INVALID LOG2 PUSH5 0x6970667358 0x22 SLT KECCAK256 0xA6 PUSH2 0x3D67 GAS DUP6 0xFC 0xC5 0xEF BYTE 0xAA SWAP10 0xE8 PUSH29 0x218A93CFFB7AA1068970861456209ED1B71164736F6C63430008120033 "
				},
				"gasEstimates": {
					"creation": {
						"codeDepositCost": "1975600",
						"executionCost": "70569",
						"totalCost": "2046169"
					},
					"external": {
						"VoteTime(uint256,uint256)": "infinite",
						"candidateList()": "infinite",
						"candidateRegister(string,string,uint256,string)": "infinite",
						"emergency()": "26622",
						"result()": "37572",
						"vote(uint256,uint256)": "infinite",
						"voterList()": "infinite",
						"voterRegister(string,uint256,string)": "infinite",
						"voting_status()": "infinite",
						"winner()": "2602"
					},
					"internal": {
						"VoterVerification(address)": "infinite",
						"candidateVarification(address)": "infinite"
					}
				},
				"methodIdentifiers": {
					"VoteTime(uint256,uint256)": "2624ef6d",
					"candidateList()": "498ea441",
					"candidateRegister(string,string,uint256,string)": "cf5ce2e7",
					"emergency()": "caa6fea4",
					"result()": "65372147",
					"vote(uint256,uint256)": "b384abef",
					"voterList()": "24089918",
					"voterRegister(string,uint256,string)": "93e5fed2",
					"voting_status()": "4e73b5b8",
					"winner()": "dfbf53ae"
				}
			},
			"storageLayout": {
				"storage": [
					{
						"astId": 3,
						"contract": "PROJECT/voting.sol:Vote",
						"label": "electionComision",
						"offset": 0,
						"slot": "0",
						"type": "t_address"
					},
					{
						"astId": 5,
						"contract": "PROJECT/voting.sol:Vote",
						"label": "winner",
						"offset": 0,
						"slot": "1",
						"type": "t_address"
					},
					{
						"astId": 36,
						"contract": "PROJECT/voting.sol:Vote",
						"label": "nextVoterId",
						"offset": 0,
						"slot": "2",
						"type": "t_uint256"
					},
					{
						"astId": 39,
						"contract": "PROJECT/voting.sol:Vote",
						"label": "nextCandidateId",
						"offset": 0,
						"slot": "3",
						"type": "t_uint256"
					},
					{
						"astId": 41,
						"contract": "PROJECT/voting.sol:Vote",
						"label": "startTime",
						"offset": 0,
						"slot": "4",
						"type": "t_uint256"
					},
					{
						"astId": 43,
						"contract": "PROJECT/voting.sol:Vote",
						"label": "endTime",
						"offset": 0,
						"slot": "5",
						"type": "t_uint256"
					},
					{
						"astId": 48,
						"contract": "PROJECT/voting.sol:Vote",
						"label": "voterDetails",
						"offset": 0,
						"slot": "6",
						"type": "t_mapping(t_uint256,t_struct(Voter)18_storage)"
					},
					{
						"astId": 53,
						"contract": "PROJECT/voting.sol:Vote",
						"label": "candidateDetails",
						"offset": 0,
						"slot": "7",
						"type": "t_mapping(t_uint256,t_struct(Candidate)33_storage)"
					},
					{
						"astId": 55,
						"contract": "PROJECT/voting.sol:Vote",
						"label": "stopVoting",
						"offset": 0,
						"slot": "8",
						"type": "t_bool"
					}
				],
				"types": {
					"t_address": {
						"encoding": "inplace",
						"label": "address",
						"numberOfBytes": "20"
					},
					"t_bool": {
						"encoding": "inplace",
						"label": "bool",
						"numberOfBytes": "1"
					},
					"t_mapping(t_uint256,t_struct(Candidate)33_storage)": {
						"encoding": "mapping",
						"key": "t_uint256",
						"label": "mapping(uint256 => struct Vote.Candidate)",
						"numberOfBytes": "32",
						"value": "t_struct(Candidate)33_storage"
					},
					"t_mapping(t_uint256,t_struct(Voter)18_storage)": {
						"encoding": "mapping",
						"key": "t_uint256",
						"label": "mapping(uint256 => struct Vote.Voter)",
						"numberOfBytes": "32",
						"value": "t_struct(Voter)18_storage"
					},
					"t_string_storage": {
						"encoding": "bytes",
						"label": "string",
						"numberOfBytes": "32"
					},
					"t_struct(Candidate)33_storage": {
						"encoding": "inplace",
						"label": "struct Vote.Candidate",
						"members": [
							{
								"astId": 20,
								"contract": "PROJECT/voting.sol:Vote",
								"label": "name",
								"offset": 0,
								"slot": "0",
								"type": "t_string_storage"
							},
							{
								"astId": 22,
								"contract": "PROJECT/voting.sol:Vote",
								"label": "party",
								"offset": 0,
								"slot": "1",
								"type": "t_string_storage"
							},
							{
								"astId": 24,
								"contract": "PROJECT/voting.sol:Vote",
								"label": "age",
								"offset": 0,
								"slot": "2",
								"type": "t_uint256"
							},
							{
								"astId": 26,
								"contract": "PROJECT/voting.sol:Vote",
								"label": "gender",
								"offset": 0,
								"slot": "3",
								"type": "t_string_storage"
							},
							{
								"astId": 28,
								"contract": "PROJECT/voting.sol:Vote",
								"label": "candidateId",
								"offset": 0,
								"slot": "4",
								"type": "t_uint256"
							},
							{
								"astId": 30,
								"contract": "PROJECT/voting.sol:Vote",
								"label": "candidateAddress",
								"offset": 0,
								"slot": "5",
								"type": "t_address"
							},
							{
								"astId": 32,
								"contract": "PROJECT/voting.sol:Vote",
								"label": "votes",
								"offset": 0,
								"slot": "6",
								"type": "t_uint256"
							}
						],
						"numberOfBytes": "224"
					},
					"t_struct(Voter)18_storage": {
						"encoding": "inplace",
						"label": "struct Vote.Voter",
						"members": [
							{
								"astId": 7,
								"contract": "PROJECT/voting.sol:Vote",
								"label": "name",
								"offset": 0,
								"slot": "0",
								"type": "t_string_storage"
							},
							{
								"astId": 9,
								"contract": "PROJECT/voting.sol:Vote",
								"label": "age",
								"offset": 0,
								"slot": "1",
								"type": "t_uint256"
							},
							{
								"astId": 11,
								"contract": "PROJECT/voting.sol:Vote",
								"label": "voterId",
								"offset": 0,
								"slot": "2",
								"type": "t_uint256"
							},
							{
								"astId": 13,
								"contract": "PROJECT/voting.sol:Vote",
								"label": "gender",
								"offset": 0,
								"slot": "3",
								"type": "t_string_storage"
							},
							{
								"astId": 15,
								"contract": "PROJECT/voting.sol:Vote",
								"label": "voteCandidateId",
								"offset": 0,
								"slot": "4",
								"type": "t_uint256"
							},
							{
								"astId": 17,
								"contract": "PROJECT/voting.sol:Vote",
								"label": "voterAddress",
								"offset": 0,
								"slot": "5",
								"type": "t_address"
							}
						],
						"numberOfBytes": "192"
					},
					"t_uint256": {
						"encoding": "inplace",
						"label": "uint256",
						"numberOfBytes": "32"
					}
				}
			},
			"userdoc": {
				"kind": "user",
				"methods": {},
				"version": 1
			}
		}
	}
}