{
	"OPPS/interface.sol": {
		"page": {
			"abi": [
				{
					"inputs": [
						{
							"internalType": "int256",
							"name": "a",
							"type": "int256"
						},
						{
							"internalType": "int256",
							"name": "b",
							"type": "int256"
						}
					],
					"name": "add",
					"outputs": [
						{
							"internalType": "int256",
							"name": "",
							"type": "int256"
						}
					],
					"stateMutability": "pure",
					"type": "function"
				},
				{
					"inputs": [
						{
							"internalType": "int256",
							"name": "a",
							"type": "int256"
						},
						{
							"internalType": "int256",
							"name": "b",
							"type": "int256"
						}
					],
					"name": "div",
					"outputs": [
						{
							"internalType": "int256",
							"name": "",
							"type": "int256"
						}
					],
					"stateMutability": "pure",
					"type": "function"
				},
				{
					"inputs": [
						{
							"internalType": "int256",
							"name": "a",
							"type": "int256"
						},
						{
							"internalType": "int256",
							"name": "b",
							"type": "int256"
						}
					],
					"name": "mul",
					"outputs": [
						{
							"internalType": "int256",
							"name": "",
							"type": "int256"
						}
					],
					"stateMutability": "pure",
					"type": "function"
				},
				{
					"inputs": [
						{
							"internalType": "int256",
							"name": "a",
							"type": "int256"
						},
						{
							"internalType": "int256",
							"name": "b",
							"type": "int256"
						}
					],
					"name": "sub",
					"outputs": [
						{
							"internalType": "int256",
							"name": "",
							"type": "int256"
						}
					],
					"stateMutability": "pure",
					"type": "function"
				}
			],
			"devdoc": {
				"kind": "dev",
				"methods": {},
				"version": 1
			},
			"evm": {
				"assembly": "    /* \"OPPS/interface.sol\":415:832  contract page is book{... */\n  mstore(0x40, 0x80)\n  callvalue\n  dup1\n  iszero\n  tag_1\n  jumpi\n  0x00\n  dup1\n  revert\ntag_1:\n  pop\n  dataSize(sub_0)\n  dup1\n  dataOffset(sub_0)\n  0x00\n  codecopy\n  0x00\n  return\nstop\n\nsub_0: assembly {\n        /* \"OPPS/interface.sol\":415:832  contract page is book{... */\n      mstore(0x40, 0x80)\n      callvalue\n      dup1\n      iszero\n      tag_1\n      jumpi\n      0x00\n      dup1\n      revert\n    tag_1:\n      pop\n      jumpi(tag_2, lt(calldatasize, 0x04))\n      shr(0xe0, calldataload(0x00))\n      dup1\n      0x43509138\n      eq\n      tag_3\n      jumpi\n      dup1\n      0xa5f3c23b\n      eq\n      tag_4\n      jumpi\n      dup1\n      0xadefc37b\n      eq\n      tag_5\n      jumpi\n      dup1\n      0xbbe93d91\n      eq\n      tag_6\n      jumpi\n    tag_2:\n      0x00\n      dup1\n      revert\n        /* \"OPPS/interface.sol\":640:731  function div(int a,int b) external pure override returns (int){... */\n    tag_3:\n      tag_7\n      0x04\n      dup1\n      calldatasize\n      sub\n      dup2\n      add\n      swap1\n      tag_8\n      swap2\n      swap1\n      tag_9\n      jump\t// in\n    tag_8:\n      tag_10\n      jump\t// in\n    tag_7:\n      mload(0x40)\n      tag_11\n      swap2\n      swap1\n      tag_12\n      jump\t// in\n    tag_11:\n      mload(0x40)\n      dup1\n      swap2\n      sub\n      swap1\n      return\n        /* \"OPPS/interface.sol\":443:537  function add(int a,int b) external pure override returns (int){... */\n    tag_4:\n      tag_13\n      0x04\n      dup1\n      calldatasize\n      sub\n      dup2\n      add\n      swap1\n      tag_14\n      swap2\n      swap1\n      tag_9\n      jump\t// in\n    tag_14:\n      tag_15\n      jump\t// in\n    tag_13:\n      mload(0x40)\n      tag_16\n      swap2\n      swap1\n      tag_12\n      jump\t// in\n    tag_16:\n      mload(0x40)\n      dup1\n      swap2\n      sub\n      swap1\n      return\n        /* \"OPPS/interface.sol\":543:634  function sub(int a,int b) external pure override returns (int){... */\n    tag_5:\n      tag_17\n      0x04\n      dup1\n      calldatasize\n      sub\n      dup2\n      add\n      swap1\n      tag_18\n      swap2\n      swap1\n      tag_9\n      jump\t// in\n    tag_18:\n      tag_19\n      jump\t// in\n    tag_17:\n      mload(0x40)\n      tag_20\n      swap2\n      swap1\n      tag_12\n      jump\t// in\n    tag_20:\n      mload(0x40)\n      dup1\n      swap2\n      sub\n      swap1\n      return\n        /* \"OPPS/interface.sol\":737:829  function mul(int a,int b) external pure override returns (int){ ... */\n    tag_6:\n      tag_21\n      0x04\n      dup1\n      calldatasize\n      sub\n      dup2\n      add\n      swap1\n      tag_22\n      swap2\n      swap1\n      tag_9\n      jump\t// in\n    tag_22:\n      tag_23\n      jump\t// in\n    tag_21:\n      mload(0x40)\n      tag_24\n      swap2\n      swap1\n      tag_12\n      jump\t// in\n    tag_24:\n      mload(0x40)\n      dup1\n      swap2\n      sub\n      swap1\n      return\n        /* \"OPPS/interface.sol\":640:731  function div(int a,int b) external pure override returns (int){... */\n    tag_10:\n        /* \"OPPS/interface.sol\":698:701  int */\n      0x00\n        /* \"OPPS/interface.sol\":722:723  b */\n      dup2\n        /* \"OPPS/interface.sol\":720:721  a */\n      dup4\n        /* \"OPPS/interface.sol\":720:723  a/b */\n      tag_26\n      swap2\n      swap1\n      tag_27\n      jump\t// in\n    tag_26:\n        /* \"OPPS/interface.sol\":713:723  return a/b */\n      swap1\n      pop\n        /* \"OPPS/interface.sol\":640:731  function div(int a,int b) external pure override returns (int){... */\n      swap3\n      swap2\n      pop\n      pop\n      jump\t// out\n        /* \"OPPS/interface.sol\":443:537  function add(int a,int b) external pure override returns (int){... */\n    tag_15:\n        /* \"OPPS/interface.sol\":501:504  int */\n      0x00\n        /* \"OPPS/interface.sol\":526:527  b */\n      dup2\n        /* \"OPPS/interface.sol\":524:525  a */\n      dup4\n        /* \"OPPS/interface.sol\":524:527  a+b */\n      tag_29\n      swap2\n      swap1\n      tag_30\n      jump\t// in\n    tag_29:\n        /* \"OPPS/interface.sol\":516:528  return (a+b) */\n      swap1\n      pop\n        /* \"OPPS/interface.sol\":443:537  function add(int a,int b) external pure override returns (int){... */\n      swap3\n      swap2\n      pop\n      pop\n      jump\t// out\n        /* \"OPPS/interface.sol\":543:634  function sub(int a,int b) external pure override returns (int){... */\n    tag_19:\n        /* \"OPPS/interface.sol\":601:604  int */\n      0x00\n        /* \"OPPS/interface.sol\":625:626  b */\n      dup2\n        /* \"OPPS/interface.sol\":623:624  a */\n      dup4\n        /* \"OPPS/interface.sol\":623:626  a-b */\n      tag_32\n      swap2\n      swap1\n      tag_33\n      jump\t// in\n    tag_32:\n        /* \"OPPS/interface.sol\":616:626  return a-b */\n      swap1\n      pop\n        /* \"OPPS/interface.sol\":543:634  function sub(int a,int b) external pure override returns (int){... */\n      swap3\n      swap2\n      pop\n      pop\n      jump\t// out\n        /* \"OPPS/interface.sol\":737:829  function mul(int a,int b) external pure override returns (int){ ... */\n    tag_23:\n        /* \"OPPS/interface.sol\":795:798  int */\n      0x00\n        /* \"OPPS/interface.sol\":820:821  b */\n      dup2\n        /* \"OPPS/interface.sol\":818:819  a */\n      dup4\n        /* \"OPPS/interface.sol\":818:821  a*b */\n      tag_35\n      swap2\n      swap1\n      tag_36\n      jump\t// in\n    tag_35:\n        /* \"OPPS/interface.sol\":811:821  return a*b */\n      swap1\n      pop\n        /* \"OPPS/interface.sol\":737:829  function mul(int a,int b) external pure override returns (int){ ... */\n      swap3\n      swap2\n      pop\n      pop\n      jump\t// out\n        /* \"#utility.yul\":88:205   */\n    tag_38:\n        /* \"#utility.yul\":197:198   */\n      0x00\n        /* \"#utility.yul\":194:195   */\n      dup1\n        /* \"#utility.yul\":187:199   */\n      revert\n        /* \"#utility.yul\":334:410   */\n    tag_40:\n        /* \"#utility.yul\":370:377   */\n      0x00\n        /* \"#utility.yul\":399:404   */\n      dup2\n        /* \"#utility.yul\":388:404   */\n      swap1\n      pop\n        /* \"#utility.yul\":334:410   */\n      swap2\n      swap1\n      pop\n      jump\t// out\n        /* \"#utility.yul\":416:536   */\n    tag_41:\n        /* \"#utility.yul\":488:511   */\n      tag_52\n        /* \"#utility.yul\":505:510   */\n      dup2\n        /* \"#utility.yul\":488:511   */\n      tag_40\n      jump\t// in\n    tag_52:\n        /* \"#utility.yul\":481:486   */\n      dup2\n        /* \"#utility.yul\":478:512   */\n      eq\n        /* \"#utility.yul\":468:530   */\n      tag_53\n      jumpi\n        /* \"#utility.yul\":526:527   */\n      0x00\n        /* \"#utility.yul\":523:524   */\n      dup1\n        /* \"#utility.yul\":516:528   */\n      revert\n        /* \"#utility.yul\":468:530   */\n    tag_53:\n        /* \"#utility.yul\":416:536   */\n      pop\n      jump\t// out\n        /* \"#utility.yul\":542:679   */\n    tag_42:\n        /* \"#utility.yul\":587:592   */\n      0x00\n        /* \"#utility.yul\":625:631   */\n      dup2\n        /* \"#utility.yul\":612:632   */\n      calldataload\n        /* \"#utility.yul\":603:632   */\n      swap1\n      pop\n        /* \"#utility.yul\":641:673   */\n      tag_55\n        /* \"#utility.yul\":667:672   */\n      dup2\n        /* \"#utility.yul\":641:673   */\n      tag_41\n      jump\t// in\n    tag_55:\n        /* \"#utility.yul\":542:679   */\n      swap3\n      swap2\n      pop\n      pop\n      jump\t// out\n        /* \"#utility.yul\":685:1155   */\n    tag_9:\n        /* \"#utility.yul\":751:757   */\n      0x00\n        /* \"#utility.yul\":759:765   */\n      dup1\n        /* \"#utility.yul\":808:810   */\n      0x40\n        /* \"#utility.yul\":796:805   */\n      dup4\n        /* \"#utility.yul\":787:794   */\n      dup6\n        /* \"#utility.yul\":783:806   */\n      sub\n        /* \"#utility.yul\":779:811   */\n      slt\n        /* \"#utility.yul\":776:895   */\n      iszero\n      tag_57\n      jumpi\n        /* \"#utility.yul\":814:893   */\n      tag_58\n      tag_38\n      jump\t// in\n    tag_58:\n        /* \"#utility.yul\":776:895   */\n    tag_57:\n        /* \"#utility.yul\":934:935   */\n      0x00\n        /* \"#utility.yul\":959:1011   */\n      tag_59\n        /* \"#utility.yul\":1003:1010   */\n      dup6\n        /* \"#utility.yul\":994:1000   */\n      dup3\n        /* \"#utility.yul\":983:992   */\n      dup7\n        /* \"#utility.yul\":979:1001   */\n      add\n        /* \"#utility.yul\":959:1011   */\n      tag_42\n      jump\t// in\n    tag_59:\n        /* \"#utility.yul\":949:1011   */\n      swap3\n      pop\n        /* \"#utility.yul\":905:1021   */\n      pop\n        /* \"#utility.yul\":1060:1062   */\n      0x20\n        /* \"#utility.yul\":1086:1138   */\n      tag_60\n        /* \"#utility.yul\":1130:1137   */\n      dup6\n        /* \"#utility.yul\":1121:1127   */\n      dup3\n        /* \"#utility.yul\":1110:1119   */\n      dup7\n        /* \"#utility.yul\":1106:1128   */\n      add\n        /* \"#utility.yul\":1086:1138   */\n      tag_42\n      jump\t// in\n    tag_60:\n        /* \"#utility.yul\":1076:1138   */\n      swap2\n      pop\n        /* \"#utility.yul\":1031:1148   */\n      pop\n        /* \"#utility.yul\":685:1155   */\n      swap3\n      pop\n      swap3\n      swap1\n      pop\n      jump\t// out\n        /* \"#utility.yul\":1161:1276   */\n    tag_43:\n        /* \"#utility.yul\":1246:1269   */\n      tag_62\n        /* \"#utility.yul\":1263:1268   */\n      dup2\n        /* \"#utility.yul\":1246:1269   */\n      tag_40\n      jump\t// in\n    tag_62:\n        /* \"#utility.yul\":1241:1244   */\n      dup3\n        /* \"#utility.yul\":1234:1270   */\n      mstore\n        /* \"#utility.yul\":1161:1276   */\n      pop\n      pop\n      jump\t// out\n        /* \"#utility.yul\":1282:1500   */\n    tag_12:\n        /* \"#utility.yul\":1373:1377   */\n      0x00\n        /* \"#utility.yul\":1411:1413   */\n      0x20\n        /* \"#utility.yul\":1400:1409   */\n      dup3\n        /* \"#utility.yul\":1396:1414   */\n      add\n        /* \"#utility.yul\":1388:1414   */\n      swap1\n      pop\n        /* \"#utility.yul\":1424:1493   */\n      tag_64\n        /* \"#utility.yul\":1490:1491   */\n      0x00\n        /* \"#utility.yul\":1479:1488   */\n      dup4\n        /* \"#utility.yul\":1475:1492   */\n      add\n        /* \"#utility.yul\":1466:1472   */\n      dup5\n        /* \"#utility.yul\":1424:1493   */\n      tag_43\n      jump\t// in\n    tag_64:\n        /* \"#utility.yul\":1282:1500   */\n      swap3\n      swap2\n      pop\n      pop\n      jump\t// out\n        /* \"#utility.yul\":1506:1686   */\n    tag_44:\n        /* \"#utility.yul\":1554:1631   */\n      0x4e487b7100000000000000000000000000000000000000000000000000000000\n        /* \"#utility.yul\":1551:1552   */\n      0x00\n        /* \"#utility.yul\":1544:1632   */\n      mstore\n        /* \"#utility.yul\":1651:1655   */\n      0x12\n        /* \"#utility.yul\":1648:1649   */\n      0x04\n        /* \"#utility.yul\":1641:1656   */\n      mstore\n        /* \"#utility.yul\":1675:1679   */\n      0x24\n        /* \"#utility.yul\":1672:1673   */\n      0x00\n        /* \"#utility.yul\":1665:1680   */\n      revert\n        /* \"#utility.yul\":1692:1872   */\n    tag_45:\n        /* \"#utility.yul\":1740:1817   */\n      0x4e487b7100000000000000000000000000000000000000000000000000000000\n        /* \"#utility.yul\":1737:1738   */\n      0x00\n        /* \"#utility.yul\":1730:1818   */\n      mstore\n        /* \"#utility.yul\":1837:1841   */\n      0x11\n        /* \"#utility.yul\":1834:1835   */\n      0x04\n        /* \"#utility.yul\":1827:1842   */\n      mstore\n        /* \"#utility.yul\":1861:1865   */\n      0x24\n        /* \"#utility.yul\":1858:1859   */\n      0x00\n        /* \"#utility.yul\":1851:1866   */\n      revert\n        /* \"#utility.yul\":1878:2263   */\n    tag_27:\n        /* \"#utility.yul\":1917:1918   */\n      0x00\n        /* \"#utility.yul\":1934:1953   */\n      tag_68\n        /* \"#utility.yul\":1951:1952   */\n      dup3\n        /* \"#utility.yul\":1934:1953   */\n      tag_40\n      jump\t// in\n    tag_68:\n        /* \"#utility.yul\":1929:1953   */\n      swap2\n      pop\n        /* \"#utility.yul\":1967:1986   */\n      tag_69\n        /* \"#utility.yul\":1984:1985   */\n      dup4\n        /* \"#utility.yul\":1967:1986   */\n      tag_40\n      jump\t// in\n    tag_69:\n        /* \"#utility.yul\":1962:1986   */\n      swap3\n      pop\n        /* \"#utility.yul\":2005:2006   */\n      dup3\n        /* \"#utility.yul\":1995:2030   */\n      tag_70\n      jumpi\n        /* \"#utility.yul\":2010:2028   */\n      tag_71\n      tag_44\n      jump\t// in\n    tag_71:\n        /* \"#utility.yul\":1995:2030   */\n    tag_70:\n        /* \"#utility.yul\":2196:2197   */\n      0x01\n        /* \"#utility.yul\":2193:2194   */\n      0x00\n        /* \"#utility.yul\":2189:2198   */\n      sub\n        /* \"#utility.yul\":2186:2187   */\n      dup4\n        /* \"#utility.yul\":2183:2199   */\n      eq\n        /* \"#utility.yul\":2102:2168   */\n      0x8000000000000000000000000000000000000000000000000000000000000000\n        /* \"#utility.yul\":2099:2100   */\n      dup4\n        /* \"#utility.yul\":2096:2169   */\n      eq\n        /* \"#utility.yul\":2079:2209   */\n      and\n        /* \"#utility.yul\":2076:2232   */\n      iszero\n      tag_72\n      jumpi\n        /* \"#utility.yul\":2212:2230   */\n      tag_73\n      tag_45\n      jump\t// in\n    tag_73:\n        /* \"#utility.yul\":2076:2232   */\n    tag_72:\n        /* \"#utility.yul\":2255:2256   */\n      dup3\n        /* \"#utility.yul\":2252:2253   */\n      dup3\n        /* \"#utility.yul\":2247:2257   */\n      sdiv\n        /* \"#utility.yul\":2242:2257   */\n      swap1\n      pop\n        /* \"#utility.yul\":1878:2263   */\n      swap3\n      swap2\n      pop\n      pop\n      jump\t// out\n        /* \"#utility.yul\":2269:2644   */\n    tag_30:\n        /* \"#utility.yul\":2308:2311   */\n      0x00\n        /* \"#utility.yul\":2327:2346   */\n      tag_75\n        /* \"#utility.yul\":2344:2345   */\n      dup3\n        /* \"#utility.yul\":2327:2346   */\n      tag_40\n      jump\t// in\n    tag_75:\n        /* \"#utility.yul\":2322:2346   */\n      swap2\n      pop\n        /* \"#utility.yul\":2360:2379   */\n      tag_76\n        /* \"#utility.yul\":2377:2378   */\n      dup4\n        /* \"#utility.yul\":2360:2379   */\n      tag_40\n      jump\t// in\n    tag_76:\n        /* \"#utility.yul\":2355:2379   */\n      swap3\n      pop\n        /* \"#utility.yul\":2402:2403   */\n      dup3\n        /* \"#utility.yul\":2399:2400   */\n      dup3\n        /* \"#utility.yul\":2395:2404   */\n      add\n        /* \"#utility.yul\":2388:2404   */\n      swap1\n      pop\n        /* \"#utility.yul\":2600:2601   */\n      dup3\n        /* \"#utility.yul\":2595:2598   */\n      dup2\n        /* \"#utility.yul\":2591:2602   */\n      slt\n        /* \"#utility.yul\":2584:2603   */\n      iszero\n        /* \"#utility.yul\":2580:2581   */\n      0x00\n        /* \"#utility.yul\":2577:2578   */\n      dup4\n        /* \"#utility.yul\":2573:2582   */\n      slt\n        /* \"#utility.yul\":2569:2604   */\n      and\n        /* \"#utility.yul\":2552:2553   */\n      dup4\n        /* \"#utility.yul\":2547:2550   */\n      dup3\n        /* \"#utility.yul\":2543:2554   */\n      slt\n        /* \"#utility.yul\":2538:2539   */\n      0x00\n        /* \"#utility.yul\":2535:2536   */\n      dup5\n        /* \"#utility.yul\":2531:2540   */\n      slt\n        /* \"#utility.yul\":2524:2541   */\n      iszero\n        /* \"#utility.yul\":2520:2555   */\n      and\n        /* \"#utility.yul\":2504:2614   */\n      or\n        /* \"#utility.yul\":2501:2637   */\n      iszero\n      tag_77\n      jumpi\n        /* \"#utility.yul\":2617:2635   */\n      tag_78\n      tag_45\n      jump\t// in\n    tag_78:\n        /* \"#utility.yul\":2501:2637   */\n    tag_77:\n        /* \"#utility.yul\":2269:2644   */\n      swap3\n      swap2\n      pop\n      pop\n      jump\t// out\n        /* \"#utility.yul\":2650:3022   */\n    tag_33:\n        /* \"#utility.yul\":2689:2693   */\n      0x00\n        /* \"#utility.yul\":2709:2728   */\n      tag_80\n        /* \"#utility.yul\":2726:2727   */\n      dup3\n        /* \"#utility.yul\":2709:2728   */\n      tag_40\n      jump\t// in\n    tag_80:\n        /* \"#utility.yul\":2704:2728   */\n      swap2\n      pop\n        /* \"#utility.yul\":2742:2761   */\n      tag_81\n        /* \"#utility.yul\":2759:2760   */\n      dup4\n        /* \"#utility.yul\":2742:2761   */\n      tag_40\n      jump\t// in\n    tag_81:\n        /* \"#utility.yul\":2737:2761   */\n      swap3\n      pop\n        /* \"#utility.yul\":2785:2786   */\n      dup3\n        /* \"#utility.yul\":2782:2783   */\n      dup3\n        /* \"#utility.yul\":2778:2787   */\n      sub\n        /* \"#utility.yul\":2770:2787   */\n      swap1\n      pop\n        /* \"#utility.yul\":2979:2980   */\n      dup2\n        /* \"#utility.yul\":2973:2977   */\n      dup2\n        /* \"#utility.yul\":2969:2981   */\n      slt\n        /* \"#utility.yul\":2965:2966   */\n      0x00\n        /* \"#utility.yul\":2962:2963   */\n      dup5\n        /* \"#utility.yul\":2958:2967   */\n      slt\n        /* \"#utility.yul\":2954:2982   */\n      and\n        /* \"#utility.yul\":2937:2938   */\n      dup3\n        /* \"#utility.yul\":2931:2935   */\n      dup3\n        /* \"#utility.yul\":2927:2939   */\n      sgt\n        /* \"#utility.yul\":2922:2923   */\n      0x00\n        /* \"#utility.yul\":2919:2920   */\n      dup6\n        /* \"#utility.yul\":2915:2924   */\n      slt\n        /* \"#utility.yul\":2908:2925   */\n      iszero\n        /* \"#utility.yul\":2904:2940   */\n      and\n        /* \"#utility.yul\":2888:2992   */\n      or\n        /* \"#utility.yul\":2885:3015   */\n      iszero\n      tag_82\n      jumpi\n        /* \"#utility.yul\":2995:3013   */\n      tag_83\n      tag_45\n      jump\t// in\n    tag_83:\n        /* \"#utility.yul\":2885:3015   */\n    tag_82:\n        /* \"#utility.yul\":2650:3022   */\n      swap3\n      swap2\n      pop\n      pop\n      jump\t// out\n        /* \"#utility.yul\":3028:3584   */\n    tag_36:\n        /* \"#utility.yul\":3067:3074   */\n      0x00\n        /* \"#utility.yul\":3090:3109   */\n      tag_85\n        /* \"#utility.yul\":3107:3108   */\n      dup3\n        /* \"#utility.yul\":3090:3109   */\n      tag_40\n      jump\t// in\n    tag_85:\n        /* \"#utility.yul\":3085:3109   */\n      swap2\n      pop\n        /* \"#utility.yul\":3123:3142   */\n      tag_86\n        /* \"#utility.yul\":3140:3141   */\n      dup4\n        /* \"#utility.yul\":3123:3142   */\n      tag_40\n      jump\t// in\n    tag_86:\n        /* \"#utility.yul\":3118:3142   */\n      swap3\n      pop\n        /* \"#utility.yul\":3177:3178   */\n      dup3\n        /* \"#utility.yul\":3174:3175   */\n      dup3\n        /* \"#utility.yul\":3170:3179   */\n      mul\n        /* \"#utility.yul\":3199:3228   */\n      tag_87\n        /* \"#utility.yul\":3216:3227   */\n      dup2\n        /* \"#utility.yul\":3199:3228   */\n      tag_40\n      jump\t// in\n    tag_87:\n        /* \"#utility.yul\":3188:3228   */\n      swap2\n      pop\n        /* \"#utility.yul\":3286:3352   */\n      0x8000000000000000000000000000000000000000000000000000000000000000\n        /* \"#utility.yul\":3283:3284   */\n      dup5\n        /* \"#utility.yul\":3280:3353   */\n      eq\n        /* \"#utility.yul\":3276:3277   */\n      0x00\n        /* \"#utility.yul\":3273:3274   */\n      dup5\n        /* \"#utility.yul\":3269:3278   */\n      slt\n        /* \"#utility.yul\":3265:3354   */\n      and\n        /* \"#utility.yul\":3262:3377   */\n      iszero\n      tag_88\n      jumpi\n        /* \"#utility.yul\":3357:3375   */\n      tag_89\n      tag_45\n      jump\t// in\n    tag_89:\n        /* \"#utility.yul\":3262:3377   */\n    tag_88:\n        /* \"#utility.yul\":3527:3528   */\n      dup3\n        /* \"#utility.yul\":3518:3525   */\n      dup3\n        /* \"#utility.yul\":3513:3529   */\n      sdiv\n        /* \"#utility.yul\":3510:3511   */\n      dup5\n        /* \"#utility.yul\":3507:3530   */\n      eq\n        /* \"#utility.yul\":3487:3488   */\n      dup4\n        /* \"#utility.yul\":3480:3489   */\n      iszero\n        /* \"#utility.yul\":3460:3544   */\n      or\n        /* \"#utility.yul\":3437:3577   */\n      tag_90\n      jumpi\n        /* \"#utility.yul\":3557:3575   */\n      tag_91\n      tag_45\n      jump\t// in\n    tag_91:\n        /* \"#utility.yul\":3437:3577   */\n    tag_90:\n        /* \"#utility.yul\":3075:3584   */\n      pop\n        /* \"#utility.yul\":3028:3584   */\n      swap3\n      swap2\n      pop\n      pop\n      jump\t// out\n\n    auxdata: 0xa26469706673582212205136b99ebd2c273e983c55dac543dc13c6572e611cced8bf23017adc05bc555c64736f6c63430008120033\n}\n",
				"bytecode": {
					"linkReferences": {},
					"object": "608060405234801561001057600080fd5b5061040b806100206000396000f3fe608060405234801561001057600080fd5b506004361061004c5760003560e01c80634350913814610051578063a5f3c23b14610081578063adefc37b146100b1578063bbe93d91146100e1575b600080fd5b61006b600480360381019061006691906101a4565b610111565b60405161007891906101f3565b60405180910390f35b61009b600480360381019061009691906101a4565b610127565b6040516100a891906101f3565b60405180910390f35b6100cb60048036038101906100c691906101a4565b61013d565b6040516100d891906101f3565b60405180910390f35b6100fb60048036038101906100f691906101a4565b610153565b60405161010891906101f3565b60405180910390f35b6000818361011f919061026c565b905092915050565b6000818361013591906102d6565b905092915050565b6000818361014b919061031a565b905092915050565b60008183610161919061035d565b905092915050565b600080fd5b6000819050919050565b6101818161016e565b811461018c57600080fd5b50565b60008135905061019e81610178565b92915050565b600080604083850312156101bb576101ba610169565b5b60006101c98582860161018f565b92505060206101da8582860161018f565b9150509250929050565b6101ed8161016e565b82525050565b600060208201905061020860008301846101e4565b92915050565b7f4e487b7100000000000000000000000000000000000000000000000000000000600052601260045260246000fd5b7f4e487b7100000000000000000000000000000000000000000000000000000000600052601160045260246000fd5b60006102778261016e565b91506102828361016e565b9250826102925761029161020e565b5b600160000383147f8000000000000000000000000000000000000000000000000000000000000000831416156102cb576102ca61023d565b5b828205905092915050565b60006102e18261016e565b91506102ec8361016e565b9250828201905082811215600083121683821260008412151617156103145761031361023d565b5b92915050565b60006103258261016e565b91506103308361016e565b92508282039050818112600084121682821360008512151617156103575761035661023d565b5b92915050565b60006103688261016e565b91506103738361016e565b92508282026103818161016e565b91507f800000000000000000000000000000000000000000000000000000000000000084146000841216156103b9576103b861023d565b5b82820584148315176103ce576103cd61023d565b5b509291505056fea26469706673582212205136b99ebd2c273e983c55dac543dc13c6572e611cced8bf23017adc05bc555c64736f6c63430008120033",
					"opcodes": "PUSH1 0x80 PUSH1 0x40 MSTORE CALLVALUE DUP1 ISZERO PUSH2 0x10 JUMPI PUSH1 0x0 DUP1 REVERT JUMPDEST POP PUSH2 0x40B DUP1 PUSH2 0x20 PUSH1 0x0 CODECOPY PUSH1 0x0 RETURN INVALID PUSH1 0x80 PUSH1 0x40 MSTORE CALLVALUE DUP1 ISZERO PUSH2 0x10 JUMPI PUSH1 0x0 DUP1 REVERT JUMPDEST POP PUSH1 0x4 CALLDATASIZE LT PUSH2 0x4C JUMPI PUSH1 0x0 CALLDATALOAD PUSH1 0xE0 SHR DUP1 PUSH4 0x43509138 EQ PUSH2 0x51 JUMPI DUP1 PUSH4 0xA5F3C23B EQ PUSH2 0x81 JUMPI DUP1 PUSH4 0xADEFC37B EQ PUSH2 0xB1 JUMPI DUP1 PUSH4 0xBBE93D91 EQ PUSH2 0xE1 JUMPI JUMPDEST PUSH1 0x0 DUP1 REVERT JUMPDEST PUSH2 0x6B PUSH1 0x4 DUP1 CALLDATASIZE SUB DUP2 ADD SWAP1 PUSH2 0x66 SWAP2 SWAP1 PUSH2 0x1A4 JUMP JUMPDEST PUSH2 0x111 JUMP JUMPDEST PUSH1 0x40 MLOAD PUSH2 0x78 SWAP2 SWAP1 PUSH2 0x1F3 JUMP JUMPDEST PUSH1 0x40 MLOAD DUP1 SWAP2 SUB SWAP1 RETURN JUMPDEST PUSH2 0x9B PUSH1 0x4 DUP1 CALLDATASIZE SUB DUP2 ADD SWAP1 PUSH2 0x96 SWAP2 SWAP1 PUSH2 0x1A4 JUMP JUMPDEST PUSH2 0x127 JUMP JUMPDEST PUSH1 0x40 MLOAD PUSH2 0xA8 SWAP2 SWAP1 PUSH2 0x1F3 JUMP JUMPDEST PUSH1 0x40 MLOAD DUP1 SWAP2 SUB SWAP1 RETURN JUMPDEST PUSH2 0xCB PUSH1 0x4 DUP1 CALLDATASIZE SUB DUP2 ADD SWAP1 PUSH2 0xC6 SWAP2 SWAP1 PUSH2 0x1A4 JUMP JUMPDEST PUSH2 0x13D JUMP JUMPDEST PUSH1 0x40 MLOAD PUSH2 0xD8 SWAP2 SWAP1 PUSH2 0x1F3 JUMP JUMPDEST PUSH1 0x40 MLOAD DUP1 SWAP2 SUB SWAP1 RETURN JUMPDEST PUSH2 0xFB PUSH1 0x4 DUP1 CALLDATASIZE SUB DUP2 ADD SWAP1 PUSH2 0xF6 SWAP2 SWAP1 PUSH2 0x1A4 JUMP JUMPDEST PUSH2 0x153 JUMP JUMPDEST PUSH1 0x40 MLOAD PUSH2 0x108 SWAP2 SWAP1 PUSH2 0x1F3 JUMP JUMPDEST PUSH1 0x40 MLOAD DUP1 SWAP2 SUB SWAP1 RETURN JUMPDEST PUSH1 0x0 DUP2 DUP4 PUSH2 0x11F SWAP2 SWAP1 PUSH2 0x26C JUMP JUMPDEST SWAP1 POP SWAP3 SWAP2 POP POP JUMP JUMPDEST PUSH1 0x0 DUP2 DUP4 PUSH2 0x135 SWAP2 SWAP1 PUSH2 0x2D6 JUMP JUMPDEST SWAP1 POP SWAP3 SWAP2 POP POP JUMP JUMPDEST PUSH1 0x0 DUP2 DUP4 PUSH2 0x14B SWAP2 SWAP1 PUSH2 0x31A JUMP JUMPDEST SWAP1 POP SWAP3 SWAP2 POP POP JUMP JUMPDEST PUSH1 0x0 DUP2 DUP4 PUSH2 0x161 SWAP2 SWAP1 PUSH2 0x35D JUMP JUMPDEST SWAP1 POP SWAP3 SWAP2 POP POP JUMP JUMPDEST PUSH1 0x0 DUP1 REVERT JUMPDEST PUSH1 0x0 DUP2 SWAP1 POP SWAP2 SWAP1 POP JUMP JUMPDEST PUSH2 0x181 DUP2 PUSH2 0x16E JUMP JUMPDEST DUP2 EQ PUSH2 0x18C JUMPI PUSH1 0x0 DUP1 REVERT JUMPDEST POP JUMP JUMPDEST PUSH1 0x0 DUP2 CALLDATALOAD SWAP1 POP PUSH2 0x19E DUP2 PUSH2 0x178 JUMP JUMPDEST SWAP3 SWAP2 POP POP JUMP JUMPDEST PUSH1 0x0 DUP1 PUSH1 0x40 DUP4 DUP6 SUB SLT ISZERO PUSH2 0x1BB JUMPI PUSH2 0x1BA PUSH2 0x169 JUMP JUMPDEST JUMPDEST PUSH1 0x0 PUSH2 0x1C9 DUP6 DUP3 DUP7 ADD PUSH2 0x18F JUMP JUMPDEST SWAP3 POP POP PUSH1 0x20 PUSH2 0x1DA DUP6 DUP3 DUP7 ADD PUSH2 0x18F JUMP JUMPDEST SWAP2 POP POP SWAP3 POP SWAP3 SWAP1 POP JUMP JUMPDEST PUSH2 0x1ED DUP2 PUSH2 0x16E JUMP JUMPDEST DUP3 MSTORE POP POP JUMP JUMPDEST PUSH1 0x0 PUSH1 0x20 DUP3 ADD SWAP1 POP PUSH2 0x208 PUSH1 0x0 DUP4 ADD DUP5 PUSH2 0x1E4 JUMP JUMPDEST SWAP3 SWAP2 POP POP JUMP JUMPDEST PUSH32 0x4E487B7100000000000000000000000000000000000000000000000000000000 PUSH1 0x0 MSTORE PUSH1 0x12 PUSH1 0x4 MSTORE PUSH1 0x24 PUSH1 0x0 REVERT JUMPDEST PUSH32 0x4E487B7100000000000000000000000000000000000000000000000000000000 PUSH1 0x0 MSTORE PUSH1 0x11 PUSH1 0x4 MSTORE PUSH1 0x24 PUSH1 0x0 REVERT JUMPDEST PUSH1 0x0 PUSH2 0x277 DUP3 PUSH2 0x16E JUMP JUMPDEST SWAP2 POP PUSH2 0x282 DUP4 PUSH2 0x16E JUMP JUMPDEST SWAP3 POP DUP3 PUSH2 0x292 JUMPI PUSH2 0x291 PUSH2 0x20E JUMP JUMPDEST JUMPDEST PUSH1 0x1 PUSH1 0x0 SUB DUP4 EQ PUSH32 0x8000000000000000000000000000000000000000000000000000000000000000 DUP4 EQ AND ISZERO PUSH2 0x2CB JUMPI PUSH2 0x2CA PUSH2 0x23D JUMP JUMPDEST JUMPDEST DUP3 DUP3 SDIV SWAP1 POP SWAP3 SWAP2 POP POP JUMP JUMPDEST PUSH1 0x0 PUSH2 0x2E1 DUP3 PUSH2 0x16E JUMP JUMPDEST SWAP2 POP PUSH2 0x2EC DUP4 PUSH2 0x16E JUMP JUMPDEST SWAP3 POP DUP3 DUP3 ADD SWAP1 POP DUP3 DUP2 SLT ISZERO PUSH1 0x0 DUP4 SLT AND DUP4 DUP3 SLT PUSH1 0x0 DUP5 SLT ISZERO AND OR ISZERO PUSH2 0x314 JUMPI PUSH2 0x313 PUSH2 0x23D JUMP JUMPDEST JUMPDEST SWAP3 SWAP2 POP POP JUMP JUMPDEST PUSH1 0x0 PUSH2 0x325 DUP3 PUSH2 0x16E JUMP JUMPDEST SWAP2 POP PUSH2 0x330 DUP4 PUSH2 0x16E JUMP JUMPDEST SWAP3 POP DUP3 DUP3 SUB SWAP1 POP DUP2 DUP2 SLT PUSH1 0x0 DUP5 SLT AND DUP3 DUP3 SGT PUSH1 0x0 DUP6 SLT ISZERO AND OR ISZERO PUSH2 0x357 JUMPI PUSH2 0x356 PUSH2 0x23D JUMP JUMPDEST JUMPDEST SWAP3 SWAP2 POP POP JUMP JUMPDEST PUSH1 0x0 PUSH2 0x368 DUP3 PUSH2 0x16E JUMP JUMPDEST SWAP2 POP PUSH2 0x373 DUP4 PUSH2 0x16E JUMP JUMPDEST SWAP3 POP DUP3 DUP3 MUL PUSH2 0x381 DUP2 PUSH2 0x16E JUMP JUMPDEST SWAP2 POP PUSH32 0x8000000000000000000000000000000000000000000000000000000000000000 DUP5 EQ PUSH1 0x0 DUP5 SLT AND ISZERO PUSH2 0x3B9 JUMPI PUSH2 0x3B8 PUSH2 0x23D JUMP JUMPDEST JUMPDEST DUP3 DUP3 SDIV DUP5 EQ DUP4 ISZERO OR PUSH2 0x3CE JUMPI PUSH2 0x3CD PUSH2 0x23D JUMP JUMPDEST JUMPDEST POP SWAP3 SWAP2 POP POP JUMP INVALID LOG2 PUSH5 0x6970667358 0x22 SLT KECCAK256 MLOAD CALLDATASIZE 0xB9 SWAP15 0xBD 0x2C 0x27 RETURNDATACOPY SWAP9 EXTCODECOPY SSTORE 0xDA 0xC5 NUMBER 0xDC SGT 0xC6 JUMPI 0x2E PUSH2 0x1CCE 0xD8 0xBF 0x23 ADD PUSH27 0xDC05BC555C64736F6C634300081200330000000000000000000000 "
				},
				"gasEstimates": {
					"creation": {
						"codeDepositCost": "207000",
						"executionCost": "251",
						"totalCost": "207251"
					},
					"external": {
						"add(int256,int256)": "infinite",
						"div(int256,int256)": "infinite",
						"mul(int256,int256)": "infinite",
						"sub(int256,int256)": "infinite"
					}
				},
				"methodIdentifiers": {
					"add(int256,int256)": "a5f3c23b",
					"div(int256,int256)": "43509138",
					"mul(int256,int256)": "bbe93d91",
					"sub(int256,int256)": "adefc37b"
				}
			},
			"storageLayout": {
				"storage": [],
				"types": null
			},
			"userdoc": {
				"kind": "user",
				"methods": {},
				"version": 1
			}
		}
	}
}